{
  "_format": "hh-sol-artifact-1",
  "contractName": "AssetFactory",
  "sourceName": "contracts/asset/AssetFactory.sol",
  "abi": [
    {
      "anonymous": false,
      "inputs": [
        {
          "indexed": true,
          "internalType": "address",
          "name": "creator",
          "type": "address"
        },
        {
          "indexed": false,
          "internalType": "address",
          "name": "asset",
          "type": "address"
        },
        {
          "indexed": false,
          "internalType": "uint256",
          "name": "id",
          "type": "uint256"
        },
        {
          "indexed": false,
          "internalType": "uint256",
          "name": "timestamp",
          "type": "uint256"
        }
      ],
      "name": "AssetCreated",
      "type": "event"
    },
    {
      "inputs": [
        {
          "internalType": "address",
          "name": "creator",
          "type": "address"
        },
        {
          "internalType": "address",
          "name": "issuer",
          "type": "address"
        },
        {
          "internalType": "address",
          "name": "apxRegistry",
          "type": "address"
        },
        {
          "internalType": "string",
          "name": "ansName",
          "type": "string"
        },
        {
          "internalType": "uint256",
          "name": "initialTokenSupply",
          "type": "uint256"
        },
        {
          "internalType": "bool",
          "name": "whitelistRequiredForRevenueClaim",
          "type": "bool"
        },
        {
          "internalType": "bool",
          "name": "whitelistRequiredForLiquidationClaim",
          "type": "bool"
        },
        {
          "internalType": "string",
          "name": "name",
          "type": "string"
        },
        {
          "internalType": "string",
          "name": "symbol",
          "type": "string"
        },
        {
          "internalType": "string",
          "name": "info",
          "type": "string"
        }
      ],
      "name": "create",
      "outputs": [
        {
          "internalType": "address",
          "name": "",
          "type": "address"
        }
      ],
      "stateMutability": "nonpayable",
      "type": "function"
    },
    {
      "inputs": [],
      "name": "getInstances",
      "outputs": [
        {
          "internalType": "address[]",
          "name": "",
          "type": "address[]"
        }
      ],
      "stateMutability": "view",
      "type": "function"
    },
    {
      "inputs": [
        {
          "internalType": "address",
          "name": "issuer",
          "type": "address"
        }
      ],
      "name": "getInstancesForIssuer",
      "outputs": [
        {
          "internalType": "address[]",
          "name": "",
          "type": "address[]"
        }
      ],
      "stateMutability": "view",
      "type": "function"
    },
    {
      "inputs": [
        {
          "internalType": "uint256",
          "name": "",
          "type": "uint256"
        }
      ],
      "name": "instances",
      "outputs": [
        {
          "internalType": "address",
          "name": "",
          "type": "address"
        }
      ],
      "stateMutability": "view",
      "type": "function"
    },
    {
      "inputs": [
        {
          "internalType": "address",
          "name": "",
          "type": "address"
        },
        {
          "internalType": "string",
          "name": "",
          "type": "string"
        }
      ],
      "name": "namespace",
      "outputs": [
        {
          "internalType": "address",
          "name": "",
          "type": "address"
        }
      ],
      "stateMutability": "view",
      "type": "function"
    }
  ],
  "bytecode": "0x608060405234801561001057600080fd5b506196d1806100206000396000f3fe60806040523480156200001157600080fd5b50600436106200005e5760003560e01c80630b5ecb8b1462000063578063238c3a90146200009957806368ec6f4914620000cf578063a2f7b3a51462000105578063d35fdd79146200013b575b600080fd5b6200008160048036038101906200007b919062000860565b6200015d565b60405162000090919062000d3d565b60405180910390f35b620000b76004803603810190620000b1919062000834565b62000578565b604051620000c6919062000d97565b60405180910390f35b620000ed6004803603810190620000e79190620009b4565b62000647565b604051620000fc919062000d3d565b60405180910390f35b6200012360048036038101906200011d919062000a0e565b6200069f565b60405162000132919062000d3d565b60405180910390f35b62000145620006df565b60405162000154919062000d97565b60405180910390f35b60008073ffffffffffffffffffffffffffffffffffffffff16600260008c73ffffffffffffffffffffffffffffffffffffffff1673ffffffffffffffffffffffffffffffffffffffff16815260200190815260200160002089604051620001c5919062000d24565b908152602001604051809103902060009054906101000a900473ffffffffffffffffffffffffffffffffffffffff1673ffffffffffffffffffffffffffffffffffffffff16146200024d576040517f08c379a0000000000000000000000000000000000000000000000000000000008152600401620002449062000dbb565b60405180910390fd5b6000808054905090506000600160008d73ffffffffffffffffffffffffffffffffffffffff1673ffffffffffffffffffffffffffffffffffffffff16815260200190815260200160002080549050905060006040518061018001604052808481526020018f73ffffffffffffffffffffffffffffffffffffffff1681526020018e73ffffffffffffffffffffffffffffffffffffffff1681526020018d73ffffffffffffffffffffffffffffffffffffffff1681526020018c81526020018381526020018b81526020018a1515815260200189151581526020018881526020018781526020018681525060405162000345906200076f565b62000351919062000ddd565b604051809103906000f0801580156200036e573d6000803e3d6000fd5b5090506000819080600181540180825580915050600190039060005260206000200160009091909190916101000a81548173ffffffffffffffffffffffffffffffffffffffff021916908373ffffffffffffffffffffffffffffffffffffffff160217905550600160008e73ffffffffffffffffffffffffffffffffffffffff1673ffffffffffffffffffffffffffffffffffffffff168152602001908152602001600020819080600181540180825580915050600190039060005260206000200160009091909190916101000a81548173ffffffffffffffffffffffffffffffffffffffff021916908373ffffffffffffffffffffffffffffffffffffffff16021790555080600260008f73ffffffffffffffffffffffffffffffffffffffff1673ffffffffffffffffffffffffffffffffffffffff1681526020019081526020016000208c604051620004c4919062000d24565b908152602001604051809103902060006101000a81548173ffffffffffffffffffffffffffffffffffffffff021916908373ffffffffffffffffffffffffffffffffffffffff1602179055508d73ffffffffffffffffffffffffffffffffffffffff167f3418f0fc128c79021ef5b85309b360ceb1a7e21e6287e4d7557047bafeafe71f8285426040516200055c9392919062000d5a565b60405180910390a28093505050509a9950505050505050505050565b6060600160008373ffffffffffffffffffffffffffffffffffffffff1673ffffffffffffffffffffffffffffffffffffffff1681526020019081526020016000208054806020026020016040519081016040528092919081815260200182805480156200063b57602002820191906000526020600020905b8160009054906101000a900473ffffffffffffffffffffffffffffffffffffffff1673ffffffffffffffffffffffffffffffffffffffff1681526020019060010190808311620005f0575b50505050509050919050565b6002602052816000526040600020818051602081018201805184825260208301602085012081835280955050505050506000915091509054906101000a900473ffffffffffffffffffffffffffffffffffffffff1681565b60008181548110620006b057600080fd5b906000526020600020016000915054906101000a900473ffffffffffffffffffffffffffffffffffffffff1681565b606060008054806020026020016040519081016040528092919081815260200182805480156200076557602002820191906000526020600020905b8160009054906101000a900473ffffffffffffffffffffffffffffffffffffffff1673ffffffffffffffffffffffffffffffffffffffff16815260200190600101908083116200071a575b5050505050905090565b6186a58062000ff783390190565b6000620007946200078e8462000e35565b62000e01565b905082815260208101848484011115620007ad57600080fd5b620007ba84828562000f23565b509392505050565b600081359050620007d38162000fa8565b92915050565b600081359050620007ea8162000fc2565b92915050565b600082601f8301126200080257600080fd5b8135620008148482602086016200077d565b91505092915050565b6000813590506200082e8162000fdc565b92915050565b6000602082840312156200084757600080fd5b60006200085784828501620007c2565b91505092915050565b6000806000806000806000806000806101408b8d0312156200088157600080fd5b6000620008918d828e01620007c2565b9a50506020620008a48d828e01620007c2565b9950506040620008b78d828e01620007c2565b98505060608b013567ffffffffffffffff811115620008d557600080fd5b620008e38d828e01620007f0565b9750506080620008f68d828e016200081d565b96505060a0620009098d828e01620007d9565b95505060c06200091c8d828e01620007d9565b94505060e08b013567ffffffffffffffff8111156200093a57600080fd5b620009488d828e01620007f0565b9350506101008b013567ffffffffffffffff8111156200096757600080fd5b620009758d828e01620007f0565b9250506101208b013567ffffffffffffffff8111156200099457600080fd5b620009a28d828e01620007f0565b9150509295989b9194979a5092959850565b60008060408385031215620009c857600080fd5b6000620009d885828601620007c2565b925050602083013567ffffffffffffffff811115620009f657600080fd5b62000a0485828601620007f0565b9150509250929050565b60006020828403121562000a2157600080fd5b600062000a31848285016200081d565b91505092915050565b600062000a48838362000a54565b60208301905092915050565b62000a5f8162000ed9565b82525050565b62000a708162000ed9565b82525050565b600062000a838262000e78565b62000a8f818562000e9b565b935062000a9c8362000e68565b8060005b8381101562000ad357815162000ab7888262000a3a565b975062000ac48362000e8e565b92505060018101905062000aa0565b5085935050505092915050565b62000aeb8162000eed565b82525050565b600062000afe8262000e83565b62000b0a818562000eac565b935062000b1c81856020860162000f32565b62000b278162000f97565b840191505092915050565b600062000b3f8262000e83565b62000b4b818562000ece565b935062000b5d81856020860162000f32565b80840191505092915050565b600062000b7860318362000ebd565b91507f4173736574466163746f72793a20617373657420776974682074686973206e6160008301527f6d6520616c7265616479206578697374730000000000000000000000000000006020830152604082019050919050565b60006101808301600083015162000bec600086018262000d02565b50602083015162000c01602086018262000a54565b50604083015162000c16604086018262000a54565b50606083015162000c2b606086018262000a54565b506080830151848203608086015262000c45828262000af1565b91505060a083015162000c5c60a086018262000d02565b5060c083015162000c7160c086018262000d02565b5060e083015162000c8660e086018262000ae0565b5061010083015162000c9d61010086018262000ae0565b5061012083015184820361012086015262000cb9828262000af1565b91505061014083015184820361014086015262000cd7828262000af1565b91505061016083015184820361016086015262000cf5828262000af1565b9150508091505092915050565b62000d0d8162000f19565b82525050565b62000d1e8162000f19565b82525050565b600062000d32828462000b32565b915081905092915050565b600060208201905062000d54600083018462000a65565b92915050565b600060608201905062000d71600083018662000a65565b62000d80602083018562000d13565b62000d8f604083018462000d13565b949350505050565b6000602082019050818103600083015262000db3818462000a76565b905092915050565b6000602082019050818103600083015262000dd68162000b69565b9050919050565b6000602082019050818103600083015262000df9818462000bd1565b905092915050565b6000604051905081810181811067ffffffffffffffff8211171562000e2b5762000e2a62000f68565b5b8060405250919050565b600067ffffffffffffffff82111562000e535762000e5262000f68565b5b601f19601f8301169050602081019050919050565b6000819050602082019050919050565b600081519050919050565b600081519050919050565b6000602082019050919050565b600082825260208201905092915050565b600082825260208201905092915050565b600082825260208201905092915050565b600081905092915050565b600062000ee68262000ef9565b9050919050565b60008115159050919050565b600073ffffffffffffffffffffffffffffffffffffffff82169050919050565b6000819050919050565b82818337600083830152505050565b60005b8381101562000f5257808201518184015260208101905062000f35565b8381111562000f62576000848401525b50505050565b7f4e487b7100000000000000000000000000000000000000000000000000000000600052604160045260246000fd5b6000601f19601f8301169050919050565b62000fb38162000ed9565b811462000fbf57600080fd5b50565b62000fcd8162000eed565b811462000fd957600080fd5b50565b62000fe78162000f19565b811462000ff357600080fd5b5056fe60806040523480156200001157600080fd5b50604051620086a5380380620086a5833981810160405281019062000037919062000fd1565b80610120015181610140015181600390805190602001906200005b92919062000bc2565b5080600490805190602001906200007492919062000bc2565b505050600073ffffffffffffffffffffffffffffffffffffffff16816020015173ffffffffffffffffffffffffffffffffffffffff161415620000ee576040517f08c379a0000000000000000000000000000000000000000000000000000000008152600401620000e5906200119a565b60405180910390fd5b600073ffffffffffffffffffffffffffffffffffffffff16816040015173ffffffffffffffffffffffffffffffffffffffff16141562000165576040517f08c379a00000000000000000000000000000000000000000000000000000000081526004016200015c90620011bc565b60405180910390fd5b60008160c0015111620001af576040517f08c379a0000000000000000000000000000000000000000000000000000000008152600401620001a690620011de565b60405180910390fd5b601e6040518060400160405280836101600151815260200142815250908060018154018082558091505060019003906000526020600020906002020160009091909190915060008201518160000190805190602001906200021292919062000bc2565b506020820151816001015550506000816020015173ffffffffffffffffffffffffffffffffffffffff16826040015173ffffffffffffffffffffffffffffffffffffffff16631865c57d6040518163ffffffff1660e01b815260040160006040518083038186803b1580156200028757600080fd5b505afa1580156200029c573d6000803e3d6000fd5b505050506040513d6000823e3d601f19601f82011682018060405250810190620002c7919062001016565b6080015173ffffffffffffffffffffffffffffffffffffffff161490506000309050604051806103000160405280846000015181526020018273ffffffffffffffffffffffffffffffffffffffff168152602001846080015181526020018460a0015181526020013373ffffffffffffffffffffffffffffffffffffffff168152602001846020015173ffffffffffffffffffffffffffffffffffffffff1681526020018460c0015181526020018460e0015115158152602001846101000151151581526020018315158152602001846040015173ffffffffffffffffffffffffffffffffffffffff168152602001846060015173ffffffffffffffffffffffffffffffffffffffff16815260200184610160015181526020018461012001518152602001846101400151815260200160008152602001600081526020016000815260200160008152602001600081526020016000151581526020016000815260200160008152602001600081525060096000820151816000015560208201518160010160006101000a81548173ffffffffffffffffffffffffffffffffffffffff021916908373ffffffffffffffffffffffffffffffffffffffff1602179055506040820151816002019080519060200190620004a792919062000bc2565b506060820151816003015560808201518160040160006101000a81548173ffffffffffffffffffffffffffffffffffffffff021916908373ffffffffffffffffffffffffffffffffffffffff16021790555060a08201518160050160006101000a81548173ffffffffffffffffffffffffffffffffffffffff021916908373ffffffffffffffffffffffffffffffffffffffff16021790555060c0820151816006015560e08201518160070160006101000a81548160ff0219169083151502179055506101008201518160070160016101000a81548160ff0219169083151502179055506101208201518160070160026101000a81548160ff0219169083151502179055506101408201518160070160036101000a81548173ffffffffffffffffffffffffffffffffffffffff021916908373ffffffffffffffffffffffffffffffffffffffff1602179055506101608201518160080160006101000a81548173ffffffffffffffffffffffffffffffffffffffff021916908373ffffffffffffffffffffffffffffffffffffffff1602179055506101808201518160090190805190602001906200065b92919062000bc2565b506101a082015181600a0190805190602001906200067b92919062000bc2565b506101c082015181600b0190805190602001906200069b92919062000bc2565b506101e082015181600c015561020082015181600d015561022082015181600e015561024082015181600f015561026082015181601001556102808201518160110160006101000a81548160ff0219169083151502179055506102a082015181601201556102c082015181601301556102e082015181601401559050506200073283602001518460c001516200073b60201b60201c565b505050620014e0565b600073ffffffffffffffffffffffffffffffffffffffff168273ffffffffffffffffffffffffffffffffffffffff161415620007ae576040517f08c379a0000000000000000000000000000000000000000000000000000000008152600401620007a59062001200565b60405180910390fd5b620007c260008383620008b460201b60201c565b8060026000828254620007d69190620012b7565b92505081905550806000808473ffffffffffffffffffffffffffffffffffffffff1673ffffffffffffffffffffffffffffffffffffffff16815260200190815260200160002060008282546200082d9190620012b7565b925050819055508173ffffffffffffffffffffffffffffffffffffffff16600073ffffffffffffffffffffffffffffffffffffffff167fddf252ad1be2c89b69c2b068fc378daa952ba7f163c4a11628f55a4df523b3ef8360405162000894919062001222565b60405180910390a3620008b060008383620009af60201b60201c565b5050565b620008cc838383620009b460201b6200345f1760201c565b600073ffffffffffffffffffffffffffffffffffffffff168373ffffffffffffffffffffffffffffffffffffffff16141562000929576200091382620009b960201b60201c565b6200092362000a1c60201b60201c565b620009aa565b600073ffffffffffffffffffffffffffffffffffffffff168273ffffffffffffffffffffffffffffffffffffffff16141562000986576200097083620009b960201b60201c565b6200098062000a1c60201b60201c565b620009a9565b6200099783620009b960201b60201c565b620009a882620009b960201b60201c565b5b5b505050565b505050565b505050565b62000a19600560008373ffffffffffffffffffffffffffffffffffffffff1673ffffffffffffffffffffffffffffffffffffffff16815260200190815260200160002062000a0d8362000a4060201b60201c565b62000a8860201b60201c565b50565b62000a3e600662000a3262000b1460201b60201c565b62000a8860201b60201c565b565b60008060008373ffffffffffffffffffffffffffffffffffffffff1673ffffffffffffffffffffffffffffffffffffffff168152602001908152602001600020549050919050565b600062000a9a62000b1e60201b60201c565b90508062000ab18460000162000b3c60201b60201c565b101562000b0f5782600001819080600181540180825580915050600190039060005260206000200160009091909190915055826001018290806001815401808255809150506001900390600052602060002001600090919091909150555b505050565b6000600254905090565b600062000b37600862000bb460201b620034641760201c565b905090565b6000808280549050141562000b55576000905062000baf565b816001838054905062000b69919062001314565b8154811062000ba1577f4e487b7100000000000000000000000000000000000000000000000000000000600052603260045260246000fd5b906000526020600020015490505b919050565b600081600001549050919050565b82805462000bd090620013cf565b90600052602060002090601f01602090048101928262000bf4576000855562000c40565b82601f1062000c0f57805160ff191683800117855562000c40565b8280016001018555821562000c40579182015b8281111562000c3f57825182559160200191906001019062000c22565b5b50905062000c4f919062000c53565b5090565b5b8082111562000c6e57600081600090555060010162000c54565b5090565b600062000c8962000c838462001273565b6200123f565b90508281526020810184848401111562000ca257600080fd5b62000caf84828562001399565b509392505050565b60008151905062000cc88162001492565b92915050565b60008151905062000cdf81620014ac565b92915050565b600082601f83011262000cf757600080fd5b815162000d0984826020860162000c72565b91505092915050565b6000610180828403121562000d2657600080fd5b62000d336101806200123f565b9050600062000d458482850162000fba565b600083015250602062000d5b8482850162000cb7565b602083015250604062000d718482850162000cb7565b604083015250606062000d878482850162000cb7565b606083015250608082015167ffffffffffffffff81111562000da857600080fd5b62000db68482850162000ce5565b60808301525060a062000dcc8482850162000fba565b60a08301525060c062000de28482850162000fba565b60c08301525060e062000df88482850162000cce565b60e08301525061010062000e0f8482850162000cce565b6101008301525061012082015167ffffffffffffffff81111562000e3257600080fd5b62000e408482850162000ce5565b6101208301525061014082015167ffffffffffffffff81111562000e6357600080fd5b62000e718482850162000ce5565b6101408301525061016082015167ffffffffffffffff81111562000e9457600080fd5b62000ea28482850162000ce5565b6101608301525092915050565b6000610100828403121562000ec357600080fd5b62000ed06101006200123f565b9050600062000ee28482850162000fba565b600083015250602062000ef88482850162000cb7565b602083015250604082015167ffffffffffffffff81111562000f1957600080fd5b62000f278482850162000ce5565b604083015250606062000f3d8482850162000cb7565b606083015250608062000f538482850162000cb7565b60808301525060a062000f698482850162000cb7565b60a08301525060c062000f7f8482850162000cb7565b60c08301525060e082015167ffffffffffffffff81111562000fa057600080fd5b62000fae8482850162000ce5565b60e08301525092915050565b60008151905062000fcb81620014c6565b92915050565b60006020828403121562000fe457600080fd5b600082015167ffffffffffffffff81111562000fff57600080fd5b6200100d8482850162000d12565b91505092915050565b6000602082840312156200102957600080fd5b600082015167ffffffffffffffff8111156200104457600080fd5b620010528482850162000eaf565b91505092915050565b60006200106a601d83620012a6565b91507f41737365743a20496e76616c6964206f776e65722070726f76696465640000006000830152602082019050919050565b6000620010ac601e83620012a6565b91507f41737365743a20496e76616c6964206973737565722070726f766964656400006000830152602082019050919050565b6000620010ee602683620012a6565b91507f41737365743a20496e697469616c20746f6b656e20737570706c792063616e2760008301527f74206265203000000000000000000000000000000000000000000000000000006020830152604082019050919050565b600062001156601f83620012a6565b91507f45524332303a206d696e7420746f20746865207a65726f2061646472657373006000830152602082019050919050565b62001194816200138f565b82525050565b60006020820190508181036000830152620011b5816200105b565b9050919050565b60006020820190508181036000830152620011d7816200109d565b9050919050565b60006020820190508181036000830152620011f981620010df565b9050919050565b600060208201905081810360008301526200121b8162001147565b9050919050565b600060208201905062001239600083018462001189565b92915050565b6000604051905081810181811067ffffffffffffffff8211171562001269576200126862001463565b5b8060405250919050565b600067ffffffffffffffff82111562001291576200129062001463565b5b601f19601f8301169050602081019050919050565b600082825260208201905092915050565b6000620012c4826200138f565b9150620012d1836200138f565b9250827fffffffffffffffffffffffffffffffffffffffffffffffffffffffffffffffff0382111562001309576200130862001405565b5b828201905092915050565b600062001321826200138f565b91506200132e836200138f565b92508282101562001344576200134362001405565b5b828203905092915050565b60006200135c826200136f565b9050919050565b60008115159050919050565b600073ffffffffffffffffffffffffffffffffffffffff82169050919050565b6000819050919050565b60005b83811015620013b95780820151818401526020810190506200139c565b83811115620013c9576000848401525b50505050565b60006002820490506001821680620013e857607f821691505b60208210811415620013ff57620013fe62001434565b5b50919050565b7f4e487b7100000000000000000000000000000000000000000000000000000000600052601160045260246000fd5b7f4e487b7100000000000000000000000000000000000000000000000000000000600052602260045260246000fd5b7f4e487b7100000000000000000000000000000000000000000000000000000000600052604160045260246000fd5b6200149d816200134f565b8114620014a957600080fd5b50565b620014b78162001363565b8114620014c357600080fd5b50565b620014d1816200138f565b8114620014dd57600080fd5b50565b6171b580620014f06000396000f3fe608060405234801561001057600080fd5b50600436106102485760003560e01c806391b14c5f1161013b578063a9059cbb116100b8578063bb16c0681161007c578063bb16c06814610718578063bbd9445914610734578063c24fe16c14610750578063cbf9fe5f1461076e578063dd62ed3e1461079e57610248565b8063a9059cbb14610674578063a91e9750146106a4578063a985994b146106c2578063b1c25586146106de578063b3756506146106fa57610248565b806398e16255116100ff57806398e16255146105bc5780639a4e8ce8146105da5780639d564d9a146105f8578063a0a83f8c14610614578063a457c2d71461064457610248565b806391b14c5f14610518578063937f6e771461053457806395d89b41146105505780639711715a1461056e578063981b24d01461058c57610248565b806332e71ead116101c957806350c73efe1161018d57806350c73efe1461046257806358a687ec146104925780635b1cdef21461049c57806370a08231146104cc5780638ca3d4bb146104fc57610248565b806332e71ead1461039557806339509351146103b357806340e688da146103e357806349d3f161146104165780634ee2cd7e1461043257610248565b806323b872dd1161021057806323b872dd146102f35780632af4c31e146103235780632d8b95a01461033f5780632e61a5711461035b578063313ce5671461037757610248565b8063025ed7991461024d57806306fdde0314610269578063095ea7b31461028757806318160ddd146102b75780631865c57d146102d5575b600080fd5b61026760048036038101906102629190615151565b6107ce565b005b610271610942565b60405161027e9190616664565b60405180910390f35b6102a1600480360381019061029c91906150d4565b6109d4565b6040516102ae9190616649565b60405180910390f35b6102bf6109f2565b6040516102cc9190616aa6565b60405180910390f35b6102dd6109fc565b6040516102ea9190616a84565b60405180910390f35b61030d60048036038101906103089190615085565b610ee7565b60405161031a9190616649565b60405180910390f35b61033d60048036038101906103389190615020565b6110f4565b005b61035960048036038101906103549190615151565b611209565b005b61037560048036038101906103709190615020565b6112f7565b005b61037f611429565b60405161038c9190616aea565b60405180910390f35b61039d611432565b6040516103aa919061641d565b60405180910390f35b6103cd60048036038101906103c891906150d4565b61145f565b6040516103da9190616649565b60405180910390f35b6103fd60048036038101906103f89190615020565b61150b565b60405161040d949392919061659e565b60405180910390f35b610430600480360381019061042b9190615151565b61155b565b005b61044c600480360381019061044791906150d4565b611649565b6040516104599190616aa6565b60405180910390f35b61047c60048036038101906104779190615020565b6116b9565b6040516104899190616aa6565b60405180910390f35b61049a611701565b005b6104b660048036038101906104b19190615020565b611bcb565b6040516104c39190616aa6565b60405180910390f35b6104e660048036038101906104e19190615020565b611be3565b6040516104f39190616aa6565b60405180910390f35b61051660048036038101906105119190615020565b611c7d565b005b610532600480360381019061052d9190615020565b611daf565b005b61054e600480360381019061054991906151a3565b611db2565b005b610558611f05565b6040516105659190616664565b60405180910390f35b610576611f97565b6040516105839190616aa6565b60405180910390f35b6105a660048036038101906105a19190615266565b611ff9565b6040516105b39190616aa6565b60405180910390f35b6105c461202a565b6040516105d191906165e3565b60405180910390f35b6105e2612125565b6040516105ef919061641d565b60405180910390f35b610612600480360381019061060d91906150d4565b612152565b005b61062e60048036038101906106299190615020565b6122fa565b60405161063b9190616aa6565b60405180910390f35b61065e600480360381019061065991906150d4565b612312565b60405161066b9190616649565b60405180910390f35b61068e600480360381019061068991906150d4565b6123fd565b60405161069b9190616649565b60405180910390f35b6106ac612608565b6040516106b99190616605565b60405180910390f35b6106dc60048036038101906106d79190615110565b6126db565b005b6106f860048036038101906106f391906150d4565b612957565b005b610702612b37565b60405161070f9190616627565b60405180910390f35b610732600480360381019061072d9190615020565b612c03565b005b61074e60048036038101906107499190615020565b6130be565b005b6107586133ba565b6040516107659190616aa6565b60405180910390f35b61078860048036038101906107839190615020565b6133c0565b6040516107959190616aa6565b60405180910390f35b6107b860048036038101906107b39190615049565b6133d8565b6040516107c59190616aa6565b60405180910390f35b600960070160039054906101000a900473ffffffffffffffffffffffffffffffffffffffff1673ffffffffffffffffffffffffffffffffffffffff16631865c57d6040518163ffffffff1660e01b815260040160006040518083038186803b15801561083957600080fd5b505afa15801561084d573d6000803e3d6000fd5b505050506040513d6000823e3d601f19601f820116820180604052508101906108769190615225565b6080015173ffffffffffffffffffffffffffffffffffffffff163373ffffffffffffffffffffffffffffffffffffffff16146108e7576040517f08c379a00000000000000000000000000000000000000000000000000000000081526004016108de90616784565b60405180910390fd5b80600960070160026101000a81548160ff0219169083151502179055507f378762f5fbec582efe534abe7b1b8f7e4e4a4ed6ce28c15fc23e2024ead4fcc3338242604051610937939291906164b4565b60405180910390a150565b60606003805461095190616f9d565b80601f016020809104026020016040519081016040528092919081815260200182805461097d90616f9d565b80156109ca5780601f1061099f576101008083540402835291602001916109ca565b820191906000526020600020905b8154815290600101906020018083116109ad57829003601f168201915b5050505050905090565b60006109e86109e1613472565b848461347a565b6001905092915050565b6000600254905090565b610a04614923565b600960405180610300016040529081600082015481526020016001820160009054906101000a900473ffffffffffffffffffffffffffffffffffffffff1673ffffffffffffffffffffffffffffffffffffffff1673ffffffffffffffffffffffffffffffffffffffff168152602001600282018054610a8290616f9d565b80601f0160208091040260200160405190810160405280929190818152602001828054610aae90616f9d565b8015610afb5780601f10610ad057610100808354040283529160200191610afb565b820191906000526020600020905b815481529060010190602001808311610ade57829003601f168201915b50505050508152602001600382015481526020016004820160009054906101000a900473ffffffffffffffffffffffffffffffffffffffff1673ffffffffffffffffffffffffffffffffffffffff1673ffffffffffffffffffffffffffffffffffffffff1681526020016005820160009054906101000a900473ffffffffffffffffffffffffffffffffffffffff1673ffffffffffffffffffffffffffffffffffffffff1673ffffffffffffffffffffffffffffffffffffffff168152602001600682015481526020016007820160009054906101000a900460ff161515151581526020016007820160019054906101000a900460ff161515151581526020016007820160029054906101000a900460ff161515151581526020016007820160039054906101000a900473ffffffffffffffffffffffffffffffffffffffff1673ffffffffffffffffffffffffffffffffffffffff1673ffffffffffffffffffffffffffffffffffffffff1681526020016008820160009054906101000a900473ffffffffffffffffffffffffffffffffffffffff1673ffffffffffffffffffffffffffffffffffffffff1673ffffffffffffffffffffffffffffffffffffffff168152602001600982018054610cd190616f9d565b80601f0160208091040260200160405190810160405280929190818152602001828054610cfd90616f9d565b8015610d4a5780601f10610d1f57610100808354040283529160200191610d4a565b820191906000526020600020905b815481529060010190602001808311610d2d57829003601f168201915b50505050508152602001600a82018054610d6390616f9d565b80601f0160208091040260200160405190810160405280929190818152602001828054610d8f90616f9d565b8015610ddc5780601f10610db157610100808354040283529160200191610ddc565b820191906000526020600020905b815481529060010190602001808311610dbf57829003601f168201915b50505050508152602001600b82018054610df590616f9d565b80601f0160208091040260200160405190810160405280929190818152602001828054610e2190616f9d565b8015610e6e5780601f10610e4357610100808354040283529160200191610e6e565b820191906000526020600020905b815481529060010190602001808311610e5157829003601f168201915b50505050508152602001600c8201548152602001600d8201548152602001600e8201548152602001600f8201548152602001601082015481526020016011820160009054906101000a900460ff161515151581526020016012820154815260200160138201548152602001601482015481525050905090565b600083836000610ef5613645565b90503073ffffffffffffffffffffffffffffffffffffffff168373ffffffffffffffffffffffffffffffffffffffff161480610f365750610f3583613672565b5b8015610fc757508073ffffffffffffffffffffffffffffffffffffffff16633657e851836040518263ffffffff1660e01b8152600401610f76919061641d565b60206040518083038186803b158015610f8e57600080fd5b505afa158015610fa2573d6000803e3d6000fd5b505050506040513d601f19601f82011682018060405250810190610fc6919061517a565b5b8061109e57503073ffffffffffffffffffffffffffffffffffffffff168273ffffffffffffffffffffffffffffffffffffffff16148061100c575061100b82613672565b5b801561109d57508073ffffffffffffffffffffffffffffffffffffffff16633657e851846040518263ffffffff1660e01b815260040161104c919061641d565b60206040518083038186803b15801561106457600080fd5b505afa158015611078573d6000803e3d6000fd5b505050506040513d601f19601f8201168201806040525081019061109c919061517a565b5b5b6110dd576040517f08c379a00000000000000000000000000000000000000000000000000000000081526004016110d490616924565b60405180910390fd5b6110e887878761380f565b93505050509392505050565b600960050160009054906101000a900473ffffffffffffffffffffffffffffffffffffffff1673ffffffffffffffffffffffffffffffffffffffff163373ffffffffffffffffffffffffffffffffffffffff1614611187576040517f08c379a000000000000000000000000000000000000000000000000000000000815260040161117e906169a4565b60405180910390fd5b80600960050160006101000a81548173ffffffffffffffffffffffffffffffffffffffff021916908373ffffffffffffffffffffffffffffffffffffffff1602179055507fb4fa0c8f1565e6385961540cac5b9884d84157c515100cf972728e8be8dacdd33382426040516111fe9392919061647d565b60405180910390a150565b600960050160009054906101000a900473ffffffffffffffffffffffffffffffffffffffff1673ffffffffffffffffffffffffffffffffffffffff163373ffffffffffffffffffffffffffffffffffffffff161461129c576040517f08c379a0000000000000000000000000000000000000000000000000000000008152600401611293906169a4565b60405180910390fd5b80600960070160006101000a81548160ff0219169083151502179055507f9f9c59041e1db26af9a0f9d072677adec7d0a57053d68e6e298a48535b8bbc8e3382426040516112ec939291906164b4565b60405180910390a150565b600960050160009054906101000a900473ffffffffffffffffffffffffffffffffffffffff1673ffffffffffffffffffffffffffffffffffffffff163373ffffffffffffffffffffffffffffffffffffffff161461138a576040517f08c379a0000000000000000000000000000000000000000000000000000000008152600401611381906169a4565b60405180910390fd5b600960110160009054906101000a900460ff16156113dd576040517f08c379a00000000000000000000000000000000000000000000000000000000081526004016113d490616864565b60405180910390fd5b6113e8816001613907565b7f5c6ace57e04d50c89abdde343bc20b6dbe48b8ce80684b10a2633f157b637d75338260014260405161141e9493929190616438565b60405180910390a150565b60006012905090565b6000600960070160039054906101000a900473ffffffffffffffffffffffffffffffffffffffff16905090565b600061150161146c613472565b84846001600061147a613472565b73ffffffffffffffffffffffffffffffffffffffff1673ffffffffffffffffffffffffffffffffffffffff16815260200190815260200160002060008873ffffffffffffffffffffffffffffffffffffffff1673ffffffffffffffffffffffffffffffffffffffff168152602001908152602001600020546114fc9190616c80565b61347a565b6001905092915050565b60226020528060005260406000206000915090508060000160009054906101000a900473ffffffffffffffffffffffffffffffffffffffff16908060010154908060020154908060030154905084565b600960050160009054906101000a900473ffffffffffffffffffffffffffffffffffffffff1673ffffffffffffffffffffffffffffffffffffffff163373ffffffffffffffffffffffffffffffffffffffff16146115ee576040517f08c379a00000000000000000000000000000000000000000000000000000000081526004016115e5906169a4565b60405180910390fd5b80600960070160016101000a81548160ff0219169083151502179055507f6d9ffa7cde4acb79d71e8ec905a78cd27084264f62509578d6bfc5db2490d95b33824260405161163e939291906164b4565b60405180910390a150565b600080600061169684600560008873ffffffffffffffffffffffffffffffffffffffff1673ffffffffffffffffffffffffffffffffffffffff168152602001908152602001600020613acf565b91509150816116ad576116a8856116b9565b6116af565b805b9250505092915050565b60008060008373ffffffffffffffffffffffffffffffffffffffff1673ffffffffffffffffffffffffffffffffffffffff168152602001908152602001600020549050919050565b600960110160009054906101000a900460ff1615611754576040517f08c379a000000000000000000000000000000000000000000000000000000000815260040161174b90616864565b60405180910390fd5b600033905061176281613672565b6117a1576040517f08c379a0000000000000000000000000000000000000000000000000000000008152600401611798906167e4565b60405180910390fd5b60008173ffffffffffffffffffffffffffffffffffffffff16631865c57d6040518163ffffffff1660e01b815260040160006040518083038186803b1580156117e957600080fd5b505afa1580156117fd573d6000803e3d6000fd5b505050506040513d6000823e3d601f19601f8201168201806040525081019061182691906151e4565b9050806101c0015161186d576040517f08c379a000000000000000000000000000000000000000000000000000000000815260040161186490616984565b60405180910390fd5b6000816102600151905060008261028001519050600083610120015190506000821180156118a35750816118a086611be3565b10155b6118e2576040517f08c379a00000000000000000000000000000000000000000000000000000000081526004016118d990616804565b60405180910390fd5b6000831180156119815750826118f6613beb565b73ffffffffffffffffffffffffffffffffffffffff166370a08231876040518263ffffffff1660e01b815260040161192e919061641d565b60206040518083038186803b15801561194657600080fd5b505afa15801561195a573d6000803e3d6000fd5b505050506040513d601f19601f8201168201806040525081019061197e919061528f565b10155b6119c0576040517f08c379a00000000000000000000000000000000000000000000000000000000081526004016119b7906169e4565b60405180910390fd5b826009600c0160008282546119d59190616c80565b92505081905550816009600d0160008282546119f19190616c80565b92505081905550600060405180608001604052808773ffffffffffffffffffffffffffffffffffffffff168152602001848152602001858152602001428152509050602081908060018154018082558091505060019003906000526020600020906004020160009091909190915060008201518160000160006101000a81548173ffffffffffffffffffffffffffffffffffffffff021916908373ffffffffffffffffffffffffffffffffffffffff160217905550602082015181600101556040820151816002015560608201518160030155505080602260008873ffffffffffffffffffffffffffffffffffffffff1673ffffffffffffffffffffffffffffffffffffffff16815260200190815260200160002060008201518160000160006101000a81548173ffffffffffffffffffffffffffffffffffffffff021916908373ffffffffffffffffffffffffffffffffffffffff1602179055506020820151816001015560408201518160020155606082015181600301559050506009600e0154821115611b8657816009600e01819055505b7fcbf0fbac05ba7258619b5b6f20bf2b567ce1a76f2f8f0a58f9e7fb3e90958c4833848642604051611bbb949392919061659e565b60405180910390a1505050505050565b60236020528060005260406000206000915090505481565b6000600960110160009054906101000a900460ff1615611c6c57600960050160009054906101000a900473ffffffffffffffffffffffffffffffffffffffff1673ffffffffffffffffffffffffffffffffffffffff168273ffffffffffffffffffffffffffffffffffffffff1614611c5c576000611c65565b611c646109f2565b5b9050611c78565b611c7582613bfa565b90505b919050565b600960050160009054906101000a900473ffffffffffffffffffffffffffffffffffffffff1673ffffffffffffffffffffffffffffffffffffffff163373ffffffffffffffffffffffffffffffffffffffff1614611d10576040517f08c379a0000000000000000000000000000000000000000000000000000000008152600401611d07906169a4565b60405180910390fd5b600960110160009054906101000a900460ff1615611d63576040517f08c379a0000000000000000000000000000000000000000000000000000000008152600401611d5a90616864565b60405180910390fd5b611d6e816000613907565b7f5c6ace57e04d50c89abdde343bc20b6dbe48b8ce80684b10a2633f157b637d753382600042604051611da49493929190616438565b60405180910390a150565b50565b600960050160009054906101000a900473ffffffffffffffffffffffffffffffffffffffff1673ffffffffffffffffffffffffffffffffffffffff163373ffffffffffffffffffffffffffffffffffffffff1614611e45576040517f08c379a0000000000000000000000000000000000000000000000000000000008152600401611e3c906169a4565b60405180910390fd5b601e60405180604001604052808381526020014281525090806001815401808255809150506001900390600052602060002090600202016000909190919091506000820151816000019080519060200190611ea1929190614a4e565b5060208201518160010155505080600980019080519060200190611ec6929190614a4e565b507f39b28594242c42fce47a0a6e63bac12adbd07fbb35580f5a54b236858101d58a813342604051611efa93929190616686565b60405180910390a150565b606060048054611f1490616f9d565b80601f0160208091040260200160405190810160405280929190818152602001828054611f4090616f9d565b8015611f8d5780601f10611f6257610100808354040283529160200191611f8d565b820191906000526020600020905b815481529060010190602001808311611f7057829003601f168201915b5050505050905090565b6000600960110160009054906101000a900460ff1615611fec576040517f08c379a0000000000000000000000000000000000000000000000000000000008152600401611fe390616864565b60405180910390fd5b611ff4613c42565b905090565b6000806000612009846006613acf565b915091508161201f5761201a6109f2565b612021565b805b92505050919050565b6060601e805480602002602001604051908101604052809291908181526020016000905b8282101561211c578382906000526020600020906002020160405180604001604052908160008201805461208190616f9d565b80601f01602080910402602001604051908101604052809291908181526020018280546120ad90616f9d565b80156120fa5780601f106120cf576101008083540402835291602001916120fa565b820191906000526020600020905b8154815290600101906020018083116120dd57829003601f168201915b505050505081526020016001820154815250508152602001906001019061204e565b50505050905090565b6000600960040160009054906101000a900473ffffffffffffffffffffffffffffffffffffffff16905090565b600960110160009054906101000a900460ff16156121a5576040517f08c379a000000000000000000000000000000000000000000000000000000000815260040161219c90616864565b60405180910390fd5b80602460003373ffffffffffffffffffffffffffffffffffffffff1673ffffffffffffffffffffffffffffffffffffffff168152602001908152602001600020541015612227576040517f08c379a000000000000000000000000000000000000000000000000000000000815260040161221e906168a4565b60405180910390fd5b61223182826123fd565b50806009600f0160008282546122479190616ed2565b9250508190555080602460003373ffffffffffffffffffffffffffffffffffffffff1673ffffffffffffffffffffffffffffffffffffffff168152602001908152602001600020600082825461229d9190616ed2565b925050819055508173ffffffffffffffffffffffffffffffffffffffff167f699d5f84f6dae9955e8356c381cd66833fa0ff5503825a42148187a22202e6593383426040516122ee93929190616514565b60405180910390a25050565b60216020528060005260406000206000915090505481565b60008060016000612321613472565b73ffffffffffffffffffffffffffffffffffffffff1673ffffffffffffffffffffffffffffffffffffffff16815260200190815260200160002060008573ffffffffffffffffffffffffffffffffffffffff1673ffffffffffffffffffffffffffffffffffffffff168152602001908152602001600020549050828110156123de576040517f08c379a00000000000000000000000000000000000000000000000000000000081526004016123d590616a64565b60405180910390fd5b6123f26123e9613472565b8585840361347a565b600191505092915050565b60003383600061240b613645565b90503073ffffffffffffffffffffffffffffffffffffffff168373ffffffffffffffffffffffffffffffffffffffff16148061244c575061244b83613672565b5b80156124dd57508073ffffffffffffffffffffffffffffffffffffffff16633657e851836040518263ffffffff1660e01b815260040161248c919061641d565b60206040518083038186803b1580156124a457600080fd5b505afa1580156124b8573d6000803e3d6000fd5b505050506040513d601f19601f820116820180604052508101906124dc919061517a565b5b806125b457503073ffffffffffffffffffffffffffffffffffffffff168273ffffffffffffffffffffffffffffffffffffffff161480612522575061252182613672565b5b80156125b357508073ffffffffffffffffffffffffffffffffffffffff16633657e851846040518263ffffffff1660e01b8152600401612562919061641d565b60206040518083038186803b15801561257a57600080fd5b505afa15801561258e573d6000803e3d6000fd5b505050506040513d601f19601f820116820180604052508101906125b2919061517a565b5b5b6125f3576040517f08c379a00000000000000000000000000000000000000000000000000000000081526004016125ea90616924565b60405180910390fd5b6125fd8686613c98565b935050505092915050565b60606020805480602002602001604051908101604052809291908181526020016000905b828210156126d257838290600052602060002090600402016040518060800160405290816000820160009054906101000a900473ffffffffffffffffffffffffffffffffffffffff1673ffffffffffffffffffffffffffffffffffffffff1673ffffffffffffffffffffffffffffffffffffffff16815260200160018201548152602001600282015481526020016003820154815250508152602001906001019061262c565b50505050905090565b600960110160009054906101000a900460ff161561272e576040517f08c379a000000000000000000000000000000000000000000000000000000000815260040161272590616864565b60405180910390fd5b600960050160009054906101000a900473ffffffffffffffffffffffffffffffffffffffff1673ffffffffffffffffffffffffffffffffffffffff163373ffffffffffffffffffffffffffffffffffffffff16146127c1576040517f08c379a00000000000000000000000000000000000000000000000000000000081526004016127b8906169a4565b60405180910390fd5b60005b815181101561282957612816828281518110612809577f4e487b7100000000000000000000000000000000000000000000000000000000600052603260045260246000fd5b6020026020010151612c03565b808061282190616fcf565b9150506127c4565b506009601001546009600f015414612876576040517f08c379a000000000000000000000000000000000000000000000000000000000815260040161286d90616a24565b60405180910390fd5b60006009600f01546128866109f2565b6128909190616ed2565b905060006128a3826009600e0154613cb6565b905060008111156128e3576128e23330836128bc613beb565b73ffffffffffffffffffffffffffffffffffffffff16613cfd909392919063ffffffff16565b5b6001600960110160006101000a81548160ff02191690831515021790555080600960120181905550426009601301819055507f5b139eba78ea635d9730fabca1ca3904a0984d47bc5a7dd5366083847d0875ef3382844260405161294a949392919061659e565b60405180910390a1505050565b600960110160009054906101000a900460ff16156129aa576040517f08c379a00000000000000000000000000000000000000000000000000000000081526004016129a190616864565b60405180910390fd5b806129b533306133d8565b10156129f6576040517f08c379a00000000000000000000000000000000000000000000000000000000081526004016129ed90616704565b60405180910390fd5b612a01333083610ee7565b508173ffffffffffffffffffffffffffffffffffffffff16630b9722eb33836040518363ffffffff1660e01b8152600401612a3d9291906164eb565b600060405180830381600087803b158015612a5757600080fd5b505af1158015612a6b573d6000803e3d6000fd5b50505050806009600f016000828254612a849190616c80565b9250508190555080602460008473ffffffffffffffffffffffffffffffffffffffff1673ffffffffffffffffffffffffffffffffffffffff1681526020019081526020016000206000828254612ada9190616c80565b925050819055503373ffffffffffffffffffffffffffffffffffffffff167f1275fd48486cbb7d356cea1842e2a40652ce8d0186eeddda588ef2b5f4a4213b838342604051612b2b93929190616514565b60405180910390a25050565b6060601f805480602002602001604051908101604052809291908181526020016000905b82821015612bfa578382906000526020600020016040518060400160405290816000820160009054906101000a900473ffffffffffffffffffffffffffffffffffffffff1673ffffffffffffffffffffffffffffffffffffffff1673ffffffffffffffffffffffffffffffffffffffff1681526020016000820160149054906101000a900460ff16151515158152505081526020019060010190612b5b565b50505050905090565b600960110160009054906101000a900460ff1615612c56576040517f08c379a0000000000000000000000000000000000000000000000000000000008152600401612c4d90616864565b60405180910390fd5b600960050160009054906101000a900473ffffffffffffffffffffffffffffffffffffffff1673ffffffffffffffffffffffffffffffffffffffff163373ffffffffffffffffffffffffffffffffffffffff1614612ce9576040517f08c379a0000000000000000000000000000000000000000000000000000000008152600401612ce0906169a4565b60405180910390fd5b600073ffffffffffffffffffffffffffffffffffffffff168173ffffffffffffffffffffffffffffffffffffffff161415612d59576040517f08c379a0000000000000000000000000000000000000000000000000000000008152600401612d50906168c4565b60405180910390fd5b6000602460008373ffffffffffffffffffffffffffffffffffffffff1673ffffffffffffffffffffffffffffffffffffffff1681526020019081526020016000205411612ddb576040517f08c379a0000000000000000000000000000000000000000000000000000000008152600401612dd290616884565b60405180910390fd5b600081905060008173ffffffffffffffffffffffffffffffffffffffff1663fe3298286040518163ffffffff1660e01b815260040160206040518083038186803b158015612e2857600080fd5b505afa158015612e3c573d6000803e3d6000fd5b505050506040513d601f19601f82011682018060405250810190612e60919061528f565b9050612f1333848473ffffffffffffffffffffffffffffffffffffffff1663fe3298286040518163ffffffff1660e01b815260040160206040518083038186803b158015612ead57600080fd5b505afa158015612ec1573d6000803e3d6000fd5b505050506040513d601f19601f82011682018060405250810190612ee5919061528f565b612eed613beb565b73ffffffffffffffffffffffffffffffffffffffff16613cfd909392919063ffffffff16565b60008273ffffffffffffffffffffffffffffffffffffffff166328a070256040518163ffffffff1660e01b8152600401602060405180830381600087803b158015612f5d57600080fd5b505af1158015612f71573d6000803e3d6000fd5b505050506040513d601f19601f82011682018060405250810190612f95919061528f565b9050602460008573ffffffffffffffffffffffffffffffffffffffff1673ffffffffffffffffffffffffffffffffffffffff168152602001908152602001600020548114613018576040517f08c379a000000000000000000000000000000000000000000000000000000000815260040161300f90616764565b60405180910390fd5b806009601001600082825461302d9190616c80565b925050819055506000602460008673ffffffffffffffffffffffffffffffffffffffff1673ffffffffffffffffffffffffffffffffffffffff168152602001908152602001600020819055507ffad7c8d28e13a8bcb9811313bbe6330556ca68eec9be6c4d8882a6999f0ba7e833838387426040516130b095949392919061654b565b60405180910390a150505050565b600960110160009054906101000a900460ff16613110576040517f08c379a000000000000000000000000000000000000000000000000000000000815260040161310790616824565b60405180910390fd5b600960070160019054906101000a900460ff1615806131bb5750613132613645565b73ffffffffffffffffffffffffffffffffffffffff16633657e851826040518263ffffffff1660e01b815260040161316a919061641d565b60206040518083038186803b15801561318257600080fd5b505afa158015613196573d6000803e3d6000fd5b505050506040513d601f19601f820116820180604052508101906131ba919061517a565b5b6131fa576040517f08c379a00000000000000000000000000000000000000000000000000000000081526004016131f190616724565b60405180910390fd5b600061320682306133d8565b90506000811161324b576040517f08c379a000000000000000000000000000000000000000000000000000000000815260040161324290616a44565b60405180910390fd5b60006132556109f2565b600960120154836132669190616e78565b6132709190616cd6565b9050600081116132b5576040517f08c379a00000000000000000000000000000000000000000000000000000000081526004016132ac90616904565b60405180910390fd5b6132e783826132c2613beb565b73ffffffffffffffffffffffffffffffffffffffff16613d869092919063ffffffff16565b6132f2833084610ee7565b5080602360008573ffffffffffffffffffffffffffffffffffffffff1673ffffffffffffffffffffffffffffffffffffffff16815260200190815260200160002060008282546133429190616c80565b92505081905550806009601401600082825461335e9190616c80565b925050819055508273ffffffffffffffffffffffffffffffffffffffff167f2aec1c87f3bc903aa0be5af816e24360e038c884cb96b991091f860698e3a25982426040516133ad929190616ac1565b60405180910390a2505050565b61271081565b60246020528060005260406000206000915090505481565b6000600160008473ffffffffffffffffffffffffffffffffffffffff1673ffffffffffffffffffffffffffffffffffffffff16815260200190815260200160002060008373ffffffffffffffffffffffffffffffffffffffff1673ffffffffffffffffffffffffffffffffffffffff16815260200190815260200160002054905092915050565b505050565b600081600001549050919050565b600033905090565b600073ffffffffffffffffffffffffffffffffffffffff168373ffffffffffffffffffffffffffffffffffffffff1614156134ea576040517f08c379a00000000000000000000000000000000000000000000000000000000081526004016134e190616944565b60405180910390fd5b600073ffffffffffffffffffffffffffffffffffffffff168273ffffffffffffffffffffffffffffffffffffffff16141561355a576040517f08c379a000000000000000000000000000000000000000000000000000000000815260040161355190616744565b60405180910390fd5b80600160008573ffffffffffffffffffffffffffffffffffffffff1673ffffffffffffffffffffffffffffffffffffffff16815260200190815260200160002060008473ffffffffffffffffffffffffffffffffffffffff1673ffffffffffffffffffffffffffffffffffffffff168152602001908152602001600020819055508173ffffffffffffffffffffffffffffffffffffffff168373ffffffffffffffffffffffffffffffffffffffff167f8c5be1e5ebec7d5bd14f71427d1e84f3dd0314c0f7b2291e5b200ac8c7c3b925836040516136389190616aa6565b60405180910390a3505050565b6000600960070160039054906101000a900473ffffffffffffffffffffffffffffffffffffffff16905090565b6000600960050160009054906101000a900473ffffffffffffffffffffffffffffffffffffffff1673ffffffffffffffffffffffffffffffffffffffff168273ffffffffffffffffffffffffffffffffffffffff16631865c57d6040518163ffffffff1660e01b815260040160006040518083038186803b1580156136f657600080fd5b505afa15801561370a573d6000803e3d6000fd5b505050506040513d6000823e3d601f19601f8201168201806040525081019061373391906151e4565b60a0015173ffffffffffffffffffffffffffffffffffffffff16141561375c576001905061380a565b61376582613e0c565b1561380557601f602160008473ffffffffffffffffffffffffffffffffffffffff1673ffffffffffffffffffffffffffffffffffffffff16815260200190815260200160002054815481106137e3577f4e487b7100000000000000000000000000000000000000000000000000000000600052603260045260246000fd5b9060005260206000200160000160149054906101000a900460ff16905061380a565b600090505b919050565b600061381c848484613f2e565b6000600160008673ffffffffffffffffffffffffffffffffffffffff1673ffffffffffffffffffffffffffffffffffffffff1681526020019081526020016000206000613867613472565b73ffffffffffffffffffffffffffffffffffffffff1673ffffffffffffffffffffffffffffffffffffffff168152602001908152602001600020549050828110156138e7576040517f08c379a00000000000000000000000000000000000000000000000000000000081526004016138de90616844565b60405180910390fd5b6138fb856138f3613472565b85840361347a565b60019150509392505050565b61391082613e0c565b156139b85780601f602160008573ffffffffffffffffffffffffffffffffffffffff1673ffffffffffffffffffffffffffffffffffffffff168152602001908152602001600020548154811061398f577f4e487b7100000000000000000000000000000000000000000000000000000000600052603260045260246000fd5b9060005260206000200160000160146101000a81548160ff021916908315150217905550613acb565b601f60405180604001604052808473ffffffffffffffffffffffffffffffffffffffff1681526020018315158152509080600181540180825580915050600190039060005260206000200160009091909190915060008201518160000160006101000a81548173ffffffffffffffffffffffffffffffffffffffff021916908373ffffffffffffffffffffffffffffffffffffffff16021790555060208201518160000160146101000a81548160ff02191690831515021790555050506001601f80549050613a879190616ed2565b602160008473ffffffffffffffffffffffffffffffffffffffff1673ffffffffffffffffffffffffffffffffffffffff168152602001908152602001600020819055505b5050565b60008060008411613b15576040517f08c379a0000000000000000000000000000000000000000000000000000000008152600401613b0c906169c4565b60405180910390fd5b613b1d6141af565b841115613b5f576040517f08c379a0000000000000000000000000000000000000000000000000000000008152600401613b56906166c4565b60405180910390fd5b6000613b7785856000016141c090919063ffffffff16565b90508360000180549050811415613b95576000809250925050613be4565b6001846001018281548110613bd3577f4e487b7100000000000000000000000000000000000000000000000000000000600052603260045260246000fd5b906000526020600020015492509250505b9250929050565b6000613bf56142e6565b905090565b60008060008373ffffffffffffffffffffffffffffffffffffffff1673ffffffffffffffffffffffffffffffffffffffff168152602001908152602001600020549050919050565b6000613c4e600861437b565b6000613c586141af565b90507f8030e83b04d87bef53480e26263266d6ca66863aa8506aca6f2559d18aa1cb6781604051613c899190616aa6565b60405180910390a18091505090565b6000613cac613ca5613472565b8484613f2e565b6001905092915050565b6000612710613cc3614391565b613ccd9190616e78565b613cd56143ac565b8385613ce19190616e78565b613ceb9190616e78565b613cf59190616cd6565b905092915050565b613d80846323b872dd60e01b858585604051602401613d1e9392919061647d565b604051602081830303815290604052907bffffffffffffffffffffffffffffffffffffffffffffffffffffffff19166020820180517bffffffffffffffffffffffffffffffffffffffffffffffffffffffff838183161783525050505061443b565b50505050565b613e078363a9059cbb60e01b8484604051602401613da59291906164eb565b604051602081830303815290604052907bffffffffffffffffffffffffffffffffffffffffffffffffffffffff19166020820180517bffffffffffffffffffffffffffffffffffffffffffffffffffffffff838183161783525050505061443b565b505050565b600080602160008473ffffffffffffffffffffffffffffffffffffffff1673ffffffffffffffffffffffffffffffffffffffff1681526020019081526020016000205490506000601f805490501415613e69576000915050613f29565b601f805490508110613e7f576000915050613f29565b8273ffffffffffffffffffffffffffffffffffffffff16601f8281548110613ed0577f4e487b7100000000000000000000000000000000000000000000000000000000600052603260045260246000fd5b9060005260206000200160000160009054906101000a900473ffffffffffffffffffffffffffffffffffffffff1673ffffffffffffffffffffffffffffffffffffffff1614613f23576000915050613f29565b60019150505b919050565b600073ffffffffffffffffffffffffffffffffffffffff168373ffffffffffffffffffffffffffffffffffffffff161415613f9e576040517f08c379a0000000000000000000000000000000000000000000000000000000008152600401613f95906168e4565b60405180910390fd5b600073ffffffffffffffffffffffffffffffffffffffff168273ffffffffffffffffffffffffffffffffffffffff16141561400e576040517f08c379a0000000000000000000000000000000000000000000000000000000008152600401614005906166e4565b60405180910390fd5b614019838383614502565b60008060008573ffffffffffffffffffffffffffffffffffffffff1673ffffffffffffffffffffffffffffffffffffffff1681526020019081526020016000205490508181101561409f576040517f08c379a0000000000000000000000000000000000000000000000000000000008152600401614096906167a4565b60405180910390fd5b8181036000808673ffffffffffffffffffffffffffffffffffffffff1673ffffffffffffffffffffffffffffffffffffffff16815260200190815260200160002081905550816000808573ffffffffffffffffffffffffffffffffffffffff1673ffffffffffffffffffffffffffffffffffffffff16815260200190815260200160002060008282546141329190616c80565b925050819055508273ffffffffffffffffffffffffffffffffffffffff168473ffffffffffffffffffffffffffffffffffffffff167fddf252ad1be2c89b69c2b068fc378daa952ba7f163c4a11628f55a4df523b3ef846040516141969190616aa6565b60405180910390a36141a98484846145bc565b50505050565b60006141bb6008613464565b905090565b600080838054905014156141d757600090506142e0565b600080848054905090505b808210156142615760006141f683836145c1565b905084868281548110614232577f4e487b7100000000000000000000000000000000000000000000000000000000600052603260045260246000fd5b9060005260206000200154111561424b5780915061425b565b6001816142589190616c80565b92505b506141e2565b6000821180156142bf5750838560018461427b9190616ed2565b815481106142b2577f4e487b7100000000000000000000000000000000000000000000000000000000600052603260045260246000fd5b9060005260206000200154145b156142da576001826142d19190616ed2565b925050506142e0565b81925050505b92915050565b60006142f0613645565b73ffffffffffffffffffffffffffffffffffffffff16631865c57d6040518163ffffffff1660e01b815260040160006040518083038186803b15801561433557600080fd5b505afa158015614349573d6000803e3d6000fd5b505050506040513d6000823e3d601f19601f820116820180604052508101906143729190615225565b60a00151905090565b6001816000016000828254019250508190555050565b600061439b611429565b600a6143a79190616d5a565b905090565b60006143b66142e6565b73ffffffffffffffffffffffffffffffffffffffff1663313ce5676040518163ffffffff1660e01b815260040160206040518083038186803b1580156143fb57600080fd5b505afa15801561440f573d6000803e3d6000fd5b505050506040513d601f19601f8201168201806040525081019061443391906152b8565b60ff16905090565b600061449d826040518060400160405280602081526020017f5361666545524332303a206c6f772d6c6576656c2063616c6c206661696c65648152508573ffffffffffffffffffffffffffffffffffffffff166146289092919063ffffffff16565b90506000815111156144fd57808060200190518101906144bd919061517a565b6144fc576040517f08c379a00000000000000000000000000000000000000000000000000000000081526004016144f390616a04565b60405180910390fd5b5b505050565b61450d83838361345f565b600073ffffffffffffffffffffffffffffffffffffffff168373ffffffffffffffffffffffffffffffffffffffff1614156145585761454b82614640565b614553614693565b6145b7565b600073ffffffffffffffffffffffffffffffffffffffff168273ffffffffffffffffffffffffffffffffffffffff1614156145a35761459683614640565b61459e614693565b6145b6565b6145ac83614640565b6145b582614640565b5b5b505050565b505050565b6000600280836145d19190617018565b6002856145de9190617018565b6145e89190616c80565b6145f29190616cd6565b6002836145ff9190616cd6565b60028561460c9190616cd6565b6146169190616c80565b6146209190616c80565b905092915050565b606061463784846000856146a7565b90509392505050565b614690600560008373ffffffffffffffffffffffffffffffffffffffff1673ffffffffffffffffffffffffffffffffffffffff16815260200190815260200160002061468b836116b9565b6147bb565b50565b6146a560066146a06109f2565b6147bb565b565b6060824710156146ec576040517f08c379a00000000000000000000000000000000000000000000000000000000081526004016146e3906167c4565b60405180910390fd5b6146f585614836565b614734576040517f08c379a000000000000000000000000000000000000000000000000000000000815260040161472b90616964565b60405180910390fd5b6000808673ffffffffffffffffffffffffffffffffffffffff16858760405161475d9190616406565b60006040518083038185875af1925050503d806000811461479a576040519150601f19603f3d011682016040523d82523d6000602084013e61479f565b606091505b50915091506147af828286614849565b92505050949350505050565b60006147c56141af565b9050806147d4846000016148b0565b10156148315782600001819080600181540180825580915050600190039060005260206000200160009091909190915055826001018290806001815401808255809150506001900390600052602060002001600090919091909150555b505050565b600080823b905060008111915050919050565b60608315614859578290506148a9565b60008351111561486c5782518084602001fd5b816040517f08c379a00000000000000000000000000000000000000000000000000000000081526004016148a09190616664565b60405180910390fd5b9392505050565b600080828054905014156148c7576000905061491e565b81600183805490506148d99190616ed2565b81548110614910577f4e487b7100000000000000000000000000000000000000000000000000000000600052603260045260246000fd5b906000526020600020015490505b919050565b60405180610300016040528060008152602001600073ffffffffffffffffffffffffffffffffffffffff1681526020016060815260200160008152602001600073ffffffffffffffffffffffffffffffffffffffff168152602001600073ffffffffffffffffffffffffffffffffffffffff16815260200160008152602001600015158152602001600015158152602001600015158152602001600073ffffffffffffffffffffffffffffffffffffffff168152602001600073ffffffffffffffffffffffffffffffffffffffff16815260200160608152602001606081526020016060815260200160008152602001600081526020016000815260200160008152602001600081526020016000151581526020016000815260200160008152602001600081525090565b828054614a5a90616f9d565b90600052602060002090601f016020900481019282614a7c5760008555614ac3565b82601f10614a9557805160ff1916838001178555614ac3565b82800160010185558215614ac3579182015b82811115614ac2578251825591602001919060010190614aa7565b5b509050614ad09190614ad4565b5090565b5b80821115614aed576000816000905550600101614ad5565b5090565b6000614b04614aff84616b36565b616b05565b90508083825260208201905082856020860282011115614b2357600080fd5b60005b85811015614b535781614b398882614bd9565b845260208401935060208301925050600181019050614b26565b5050509392505050565b6000614b70614b6b84616b62565b616b05565b905082815260208101848484011115614b8857600080fd5b614b93848285616f5b565b509392505050565b6000614bae614ba984616b62565b616b05565b905082815260208101848484011115614bc657600080fd5b614bd1848285616f6a565b509392505050565b600081359050614be881617123565b92915050565b600081519050614bfd81617123565b92915050565b600082601f830112614c1457600080fd5b8135614c24848260208601614af1565b91505092915050565b600081359050614c3c8161713a565b92915050565b600081519050614c518161713a565b92915050565b600082601f830112614c6857600080fd5b8135614c78848260208601614b5d565b91505092915050565b600082601f830112614c9257600080fd5b8151614ca2848260208601614b9b565b91505092915050565b60006102e08284031215614cbe57600080fd5b614cc96102e0616b05565b90506000614cd984828501614ff6565b6000830152506020614ced84828501614bee565b602083015250604082015167ffffffffffffffff811115614d0d57600080fd5b614d1984828501614c81565b6040830152506060614d2d84828501614ff6565b6060830152506080614d4184828501614bee565b60808301525060a0614d5584828501614bee565b60a08301525060c0614d6984828501614bee565b60c08301525060e0614d7d84828501614bee565b60e083015250610100614d9284828501614bee565b61010083015250610120614da884828501614ff6565b61012083015250610140614dbe84828501614ff6565b61014083015250610160614dd484828501614ff6565b61016083015250610180614dea84828501614ff6565b610180830152506101a0614e0084828501614c42565b6101a0830152506101c0614e1684828501614c42565b6101c0830152506101e0614e2c84828501614c42565b6101e083015250610200614e4284828501614ff6565b61020083015250610220614e5884828501614ff6565b61022083015250610240614e6e84828501614ff6565b61024083015250610260614e8484828501614ff6565b61026083015250610280614e9a84828501614ff6565b610280830152506102a0614eb084828501614ff6565b6102a0830152506102c082015167ffffffffffffffff811115614ed257600080fd5b614ede84828501614c81565b6102c08301525092915050565b60006101008284031215614efe57600080fd5b614f09610100616b05565b90506000614f1984828501614ff6565b6000830152506020614f2d84828501614bee565b602083015250604082015167ffffffffffffffff811115614f4d57600080fd5b614f5984828501614c81565b6040830152506060614f6d84828501614bee565b6060830152506080614f8184828501614bee565b60808301525060a0614f9584828501614bee565b60a08301525060c0614fa984828501614bee565b60c08301525060e082015167ffffffffffffffff811115614fc957600080fd5b614fd584828501614c81565b60e08301525092915050565b600081359050614ff081617151565b92915050565b60008151905061500581617151565b92915050565b60008151905061501a81617168565b92915050565b60006020828403121561503257600080fd5b600061504084828501614bd9565b91505092915050565b6000806040838503121561505c57600080fd5b600061506a85828601614bd9565b925050602061507b85828601614bd9565b9150509250929050565b60008060006060848603121561509a57600080fd5b60006150a886828701614bd9565b93505060206150b986828701614bd9565b92505060406150ca86828701614fe1565b9150509250925092565b600080604083850312156150e757600080fd5b60006150f585828601614bd9565b925050602061510685828601614fe1565b9150509250929050565b60006020828403121561512257600080fd5b600082013567ffffffffffffffff81111561513c57600080fd5b61514884828501614c03565b91505092915050565b60006020828403121561516357600080fd5b600061517184828501614c2d565b91505092915050565b60006020828403121561518c57600080fd5b600061519a84828501614c42565b91505092915050565b6000602082840312156151b557600080fd5b600082013567ffffffffffffffff8111156151cf57600080fd5b6151db84828501614c57565b91505092915050565b6000602082840312156151f657600080fd5b600082015167ffffffffffffffff81111561521057600080fd5b61521c84828501614cab565b91505092915050565b60006020828403121561523757600080fd5b600082015167ffffffffffffffff81111561525157600080fd5b61525d84828501614eeb565b91505092915050565b60006020828403121561527857600080fd5b600061528684828501614fe1565b91505092915050565b6000602082840312156152a157600080fd5b60006152af84828501614ff6565b91505092915050565b6000602082840312156152ca57600080fd5b60006152d88482850161500b565b91505092915050565b60006152ed8383616318565b905092915050565b60006153018383616355565b60808301905092915050565b600061531983836163aa565b60408301905092915050565b61532e81616f06565b82525050565b61533d81616f06565b82525050565b600061534e82616bc2565b6153588185616c20565b93508360208202850161536a85616b92565b8060005b858110156153a6578484038952815161538785826152e1565b945061539283616bf9565b925060208a0199505060018101905061536e565b50829750879550505050505092915050565b60006153c382616bcd565b6153cd8185616c31565b93506153d883616ba2565b8060005b838110156154095781516153f088826152f5565b97506153fb83616c06565b9250506001810190506153dc565b5085935050505092915050565b600061542182616bd8565b61542b8185616c42565b935061543683616bb2565b8060005b8381101561546757815161544e888261530d565b975061545983616c13565b92505060018101905061543a565b5085935050505092915050565b61547d81616f18565b82525050565b61548c81616f18565b82525050565b600061549d82616be3565b6154a78185616c53565b93506154b7818560208601616f6a565b80840191505092915050565b60006154ce82616bee565b6154d88185616c5e565b93506154e8818560208601616f6a565b6154f181617105565b840191505092915050565b600061550782616bee565b6155118185616c6f565b9350615521818560208601616f6a565b61552a81617105565b840191505092915050565b6000615542601d83616c6f565b91507f4552433230536e617073686f743a206e6f6e6578697374656e742069640000006000830152602082019050919050565b6000615582602383616c6f565b91507f45524332303a207472616e7366657220746f20746865207a65726f206164647260008301527f65737300000000000000000000000000000000000000000000000000000000006020830152604082019050919050565b60006155e8602783616c6f565b91507f41737365743a204d697373696e6720616c6c6f77616e636520666f7220746f6b60008301527f656e206c6f636b000000000000000000000000000000000000000000000000006020830152604082019050919050565b600061564e604483616c6f565b91507f41737365743a2077616c6c6574206d7573742062652077686974656c6973746560008301527f64206265666f726520636c61696d696e67206c69717569646174696f6e20736860208301527f6172652e000000000000000000000000000000000000000000000000000000006040830152606082019050919050565b60006156da602283616c6f565b91507f45524332303a20617070726f766520746f20746865207a65726f20616464726560008301527f73730000000000000000000000000000000000000000000000000000000000006020830152604082019050919050565b6000615740604883616c6f565b91507f41737365743a204c69717569646174656420746f6b656e7320737570706c792060008301527f646f6573206e6f74206d6174636820746865206c6f636b656420746f6b656e7360208301527f20737570706c792e0000000000000000000000000000000000000000000000006040830152606082019050919050565b60006157cc602e83616c6f565b91507f41737365743a204f6e6c7920697373756572206f776e65722063616e206d616b60008301527f65207468697320616374696f6e2e0000000000000000000000000000000000006020830152604082019050919050565b6000615832602683616c6f565b91507f45524332303a207472616e7366657220616d6f756e742065786365656473206260008301527f616c616e636500000000000000000000000000000000000000000000000000006020830152604082019050919050565b6000615898602683616c6f565b91507f416464726573733a20696e73756666696369656e742062616c616e636520666f60008301527f722063616c6c00000000000000000000000000000000000000000000000000006020830152604082019050919050565b60006158fe601d83616c6f565b91507f41737365743a2043616d706169676e206e6f7420617070726f7665642e0000006000830152602082019050919050565b600061593e605783616c6f565b91507f41737365743a2043616d706169676e20686173207369676e616c6c656420746860008301527f652073616c652066696e616c697a6174696f6e206275742063616d706169676e60208301527f20746f6b656e7320617265206e6f742070726573656e740000000000000000006040830152606082019050919050565b60006159ca601583616c6f565b91507f41737365743a206e6f74206c69717569646174656400000000000000000000006000830152602082019050919050565b6000615a0a602883616c6f565b91507f45524332303a207472616e7366657220616d6f756e742065786365656473206160008301527f6c6c6f77616e63650000000000000000000000000000000000000000000000006020830152604082019050919050565b6000615a70602a83616c6f565b91507f41737365743a20416374696f6e20666f7262696464656e2c206173736574206c60008301527f6971756964617465642e000000000000000000000000000000000000000000006020830152604082019050919050565b6000615ad6603783616c6f565b91507f41737365743a204e6f20746f6b656e73206d6972726f726564206f6e2074686560008301527f2070726f766964656420746f6b656e20616464726573730000000000000000006020830152604082019050919050565b6000615b3c602a83616c6f565b91507f41737365743a20696e737566666963656e7420616d6f756e74206f66206c6f6360008301527f6b656420746f6b656e73000000000000000000000000000000000000000000006020830152604082019050919050565b6000615ba2602583616c6f565b91507f41737365743a20496e76616c6964206d6972726f72656420746f6b656e20616460008301527f64726573730000000000000000000000000000000000000000000000000000006020830152604082019050919050565b6000615c08602583616c6f565b91507f45524332303a207472616e736665722066726f6d20746865207a65726f20616460008301527f64726573730000000000000000000000000000000000000000000000000000006020830152604082019050919050565b6000615c6e602483616c6f565b91507f41737365743a206e6f206c69717569646174696f6e2066756e647320746f206360008301527f6c61696d000000000000000000000000000000000000000000000000000000006020830152604082019050919050565b6000615cd4603983616c6f565b91507f41737365743a204e6f74207472616e7366657261626c652e204f6e6c7920746f60008301527f6b656e206d6972726f72696e6720697320616c6c6f7765642e000000000000006020830152604082019050919050565b6000615d3a602483616c6f565b91507f45524332303a20617070726f76652066726f6d20746865207a65726f2061646460008301527f72657373000000000000000000000000000000000000000000000000000000006020830152604082019050919050565b6000615da0601d83616c6f565b91507f416464726573733a2063616c6c20746f206e6f6e2d636f6e74726163740000006000830152602082019050919050565b6000615de0601d83616c6f565b91507f41737365743a2043616d706169676e206e6f742066696e616c697a65640000006000830152602082019050919050565b6000615e20602f83616c6f565b91507f41737365743a204f6e6c792061737365742063726561746f722063616e206d6160008301527f6b65207468697320616374696f6e2e00000000000000000000000000000000006020830152604082019050919050565b6000615e86601683616c6f565b91507f4552433230536e617073686f743a2069642069732030000000000000000000006000830152602082019050919050565b6000615ec6605483616c6f565b91507f41737365743a2043616d706169676e20686173207369676e616c6c656420746860008301527f652073616c652066696e616c697a6174696f6e2062757420726169736564206660208301527f756e647320617265206e6f742070726573656e740000000000000000000000006040830152606082019050919050565b6000615f52602a83616c6f565b91507f5361666545524332303a204552433230206f7065726174696f6e20646964206e60008301527f6f742073756363656564000000000000000000000000000000000000000000006020830152604082019050919050565b6000615fb8604183616c6f565b91507f41737365743a2043616e2774206c6971756964617465206f726967696e616c2060008301527f746f6b656e2e204c6971756964617465206d6972726f72656420746f6b656e7360208301527f21000000000000000000000000000000000000000000000000000000000000006040830152606082019050919050565b6000616044603883616c6f565b91507f41737365743a206e6f20746f6b656e7320617070726f76656420666f7220636c60008301527f61696d696e67206c69717569646174696f6e20736861726500000000000000006020830152604082019050919050565b60006160aa602583616c6f565b91507f45524332303a2064656372656173656420616c6c6f77616e63652062656c6f7760008301527f207a65726f0000000000000000000000000000000000000000000000000000006020830152604082019050919050565b60006103008301600083015161611c60008601826163d9565b50602083015161612f6020860182615325565b506040830151848203604086015261614782826154c3565b915050606083015161615c60608601826163d9565b50608083015161616f6080860182615325565b5060a083015161618260a0860182615325565b5060c083015161619560c08601826163d9565b5060e08301516161a860e0860182615474565b506101008301516161bd610100860182615474565b506101208301516161d2610120860182615474565b506101408301516161e7610140860182615325565b506101608301516161fc610160860182615325565b5061018083015184820361018086015261621682826154c3565b9150506101a08301518482036101a086015261623282826154c3565b9150506101c08301518482036101c086015261624e82826154c3565b9150506101e08301516162656101e08601826163d9565b5061020083015161627a6102008601826163d9565b5061022083015161628f6102208601826163d9565b506102408301516162a46102408601826163d9565b506102608301516162b96102608601826163d9565b506102808301516162ce610280860182615474565b506102a08301516162e36102a08601826163d9565b506102c08301516162f86102c08601826163d9565b506102e083015161630d6102e08601826163d9565b508091505092915050565b6000604083016000830151848203600086015261633582826154c3565b915050602083015161634a60208601826163d9565b508091505092915050565b60808201600082015161636b6000850182615325565b50602082015161637e60208501826163d9565b50604082015161639160408501826163d9565b5060608201516163a460608501826163d9565b50505050565b6040820160008201516163c06000850182615325565b5060208201516163d36020850182615474565b50505050565b6163e281616f44565b82525050565b6163f181616f44565b82525050565b61640081616f4e565b82525050565b60006164128284615492565b915081905092915050565b60006020820190506164326000830184615334565b92915050565b600060808201905061644d6000830187615334565b61645a6020830186615334565b6164676040830185615483565b61647460608301846163e8565b95945050505050565b60006060820190506164926000830186615334565b61649f6020830185615334565b6164ac60408301846163e8565b949350505050565b60006060820190506164c96000830186615334565b6164d66020830185615483565b6164e360408301846163e8565b949350505050565b60006040820190506165006000830185615334565b61650d60208301846163e8565b9392505050565b60006060820190506165296000830186615334565b61653660208301856163e8565b61654360408301846163e8565b949350505050565b600060a0820190506165606000830188615334565b61656d60208301876163e8565b61657a60408301866163e8565b6165876060830185615334565b61659460808301846163e8565b9695505050505050565b60006080820190506165b36000830187615334565b6165c060208301866163e8565b6165cd60408301856163e8565b6165da60608301846163e8565b95945050505050565b600060208201905081810360008301526165fd8184615343565b905092915050565b6000602082019050818103600083015261661f81846153b8565b905092915050565b600060208201905081810360008301526166418184615416565b905092915050565b600060208201905061665e6000830184615483565b92915050565b6000602082019050818103600083015261667e81846154fc565b905092915050565b600060608201905081810360008301526166a081866154fc565b90506166af6020830185615334565b6166bc60408301846163e8565b949350505050565b600060208201905081810360008301526166dd81615535565b9050919050565b600060208201905081810360008301526166fd81615575565b9050919050565b6000602082019050818103600083015261671d816155db565b9050919050565b6000602082019050818103600083015261673d81615641565b9050919050565b6000602082019050818103600083015261675d816156cd565b9050919050565b6000602082019050818103600083015261677d81615733565b9050919050565b6000602082019050818103600083015261679d816157bf565b9050919050565b600060208201905081810360008301526167bd81615825565b9050919050565b600060208201905081810360008301526167dd8161588b565b9050919050565b600060208201905081810360008301526167fd816158f1565b9050919050565b6000602082019050818103600083015261681d81615931565b9050919050565b6000602082019050818103600083015261683d816159bd565b9050919050565b6000602082019050818103600083015261685d816159fd565b9050919050565b6000602082019050818103600083015261687d81615a63565b9050919050565b6000602082019050818103600083015261689d81615ac9565b9050919050565b600060208201905081810360008301526168bd81615b2f565b9050919050565b600060208201905081810360008301526168dd81615b95565b9050919050565b600060208201905081810360008301526168fd81615bfb565b9050919050565b6000602082019050818103600083015261691d81615c61565b9050919050565b6000602082019050818103600083015261693d81615cc7565b9050919050565b6000602082019050818103600083015261695d81615d2d565b9050919050565b6000602082019050818103600083015261697d81615d93565b9050919050565b6000602082019050818103600083015261699d81615dd3565b9050919050565b600060208201905081810360008301526169bd81615e13565b9050919050565b600060208201905081810360008301526169dd81615e79565b9050919050565b600060208201905081810360008301526169fd81615eb9565b9050919050565b60006020820190508181036000830152616a1d81615f45565b9050919050565b60006020820190508181036000830152616a3d81615fab565b9050919050565b60006020820190508181036000830152616a5d81616037565b9050919050565b60006020820190508181036000830152616a7d8161609d565b9050919050565b60006020820190508181036000830152616a9e8184616103565b905092915050565b6000602082019050616abb60008301846163e8565b92915050565b6000604082019050616ad660008301856163e8565b616ae360208301846163e8565b9392505050565b6000602082019050616aff60008301846163f7565b92915050565b6000604051905081810181811067ffffffffffffffff82111715616b2c57616b2b6170d6565b5b8060405250919050565b600067ffffffffffffffff821115616b5157616b506170d6565b5b602082029050602081019050919050565b600067ffffffffffffffff821115616b7d57616b7c6170d6565b5b601f19601f8301169050602081019050919050565b6000819050602082019050919050565b6000819050602082019050919050565b6000819050602082019050919050565b600081519050919050565b600081519050919050565b600081519050919050565b600081519050919050565b600081519050919050565b6000602082019050919050565b6000602082019050919050565b6000602082019050919050565b600082825260208201905092915050565b600082825260208201905092915050565b600082825260208201905092915050565b600081905092915050565b600082825260208201905092915050565b600082825260208201905092915050565b6000616c8b82616f44565b9150616c9683616f44565b9250827fffffffffffffffffffffffffffffffffffffffffffffffffffffffffffffffff03821115616ccb57616cca617049565b5b828201905092915050565b6000616ce182616f44565b9150616cec83616f44565b925082616cfc57616cfb617078565b5b828204905092915050565b6000808291508390505b6001851115616d5157808604811115616d2d57616d2c617049565b5b6001851615616d3c5780820291505b8081029050616d4a85617116565b9450616d11565b94509492505050565b6000616d6582616f44565b9150616d7083616f4e565b9250616d9d7fffffffffffffffffffffffffffffffffffffffffffffffffffffffffffffffff8484616da5565b905092915050565b600082616db55760019050616e71565b81616dc35760009050616e71565b8160018114616dd95760028114616de357616e12565b6001915050616e71565b60ff841115616df557616df4617049565b5b8360020a915084821115616e0c57616e0b617049565b5b50616e71565b5060208310610133831016604e8410600b8410161715616e475782820a905083811115616e4257616e41617049565b5b616e71565b616e548484846001616d07565b92509050818404811115616e6b57616e6a617049565b5b81810290505b9392505050565b6000616e8382616f44565b9150616e8e83616f44565b9250817fffffffffffffffffffffffffffffffffffffffffffffffffffffffffffffffff0483118215151615616ec757616ec6617049565b5b828202905092915050565b6000616edd82616f44565b9150616ee883616f44565b925082821015616efb57616efa617049565b5b828203905092915050565b6000616f1182616f24565b9050919050565b60008115159050919050565b600073ffffffffffffffffffffffffffffffffffffffff82169050919050565b6000819050919050565b600060ff82169050919050565b82818337600083830152505050565b60005b83811015616f88578082015181840152602081019050616f6d565b83811115616f97576000848401525b50505050565b60006002820490506001821680616fb557607f821691505b60208210811415616fc957616fc86170a7565b5b50919050565b6000616fda82616f44565b91507fffffffffffffffffffffffffffffffffffffffffffffffffffffffffffffffff82141561700d5761700c617049565b5b600182019050919050565b600061702382616f44565b915061702e83616f44565b92508261703e5761703d617078565b5b828206905092915050565b7f4e487b7100000000000000000000000000000000000000000000000000000000600052601160045260246000fd5b7f4e487b7100000000000000000000000000000000000000000000000000000000600052601260045260246000fd5b7f4e487b7100000000000000000000000000000000000000000000000000000000600052602260045260246000fd5b7f4e487b7100000000000000000000000000000000000000000000000000000000600052604160045260246000fd5b6000601f19601f8301169050919050565b60008160011c9050919050565b61712c81616f06565b811461713757600080fd5b50565b61714381616f18565b811461714e57600080fd5b50565b61715a81616f44565b811461716557600080fd5b50565b61717181616f4e565b811461717c57600080fd5b5056fea264697066735822122030295117ff7bbdf0807ad2eade7302386a0dc841bbe2ff907b41885ec61187f264736f6c63430008000033a2646970667358221220c41c49189aa9dd88b56774afb10a4e63b3b27579d1158f4d3237c0119b53344764736f6c63430008000033",
  "linkReferences": {},
  "deployedLinkReferences": {}
}