{
  "_format": "hh-sol-artifact-1",
  "contractName": "MirroredToken",
  "sourceName": "contracts/tokens/MirroredToken.sol",
  "abi": [
    {
      "inputs": [
        {
          "internalType": "string",
          "name": "_name",
          "type": "string"
        },
        {
          "internalType": "string",
          "name": "_symbol",
          "type": "string"
        },
        {
          "internalType": "address",
          "name": "_priceProvider",
          "type": "address"
        },
        {
          "internalType": "contract IAsset",
          "name": "_originalToken",
          "type": "address"
        }
      ],
      "stateMutability": "nonpayable",
      "type": "constructor"
    },
    {
      "anonymous": false,
      "inputs": [
        {
          "indexed": true,
          "internalType": "address",
          "name": "owner",
          "type": "address"
        },
        {
          "indexed": true,
          "internalType": "address",
          "name": "spender",
          "type": "address"
        },
        {
          "indexed": false,
          "internalType": "uint256",
          "name": "value",
          "type": "uint256"
        }
      ],
      "name": "Approval",
      "type": "event"
    },
    {
      "anonymous": false,
      "inputs": [
        {
          "indexed": false,
          "internalType": "address",
          "name": "investor",
          "type": "address"
        },
        {
          "indexed": false,
          "internalType": "address",
          "name": "originalAsset",
          "type": "address"
        },
        {
          "indexed": false,
          "internalType": "uint256",
          "name": "amount",
          "type": "uint256"
        },
        {
          "indexed": false,
          "internalType": "uint256",
          "name": "timestamp",
          "type": "uint256"
        }
      ],
      "name": "ClaimLiquidationShare",
      "type": "event"
    },
    {
      "anonymous": false,
      "inputs": [
        {
          "indexed": false,
          "internalType": "address",
          "name": "caller",
          "type": "address"
        },
        {
          "indexed": false,
          "internalType": "address",
          "name": "mirroredToken",
          "type": "address"
        },
        {
          "indexed": false,
          "internalType": "uint256",
          "name": "amount",
          "type": "uint256"
        },
        {
          "indexed": false,
          "internalType": "uint256",
          "name": "timestamp",
          "type": "uint256"
        }
      ],
      "name": "ConvertFromOriginal",
      "type": "event"
    },
    {
      "anonymous": false,
      "inputs": [
        {
          "indexed": false,
          "internalType": "address",
          "name": "originalAsset",
          "type": "address"
        },
        {
          "indexed": false,
          "internalType": "uint256",
          "name": "liqudationFunds",
          "type": "uint256"
        },
        {
          "indexed": false,
          "internalType": "uint256",
          "name": "liquidationSnapshotId",
          "type": "uint256"
        },
        {
          "indexed": false,
          "internalType": "uint256",
          "name": "timestamp",
          "type": "uint256"
        }
      ],
      "name": "Liquidated",
      "type": "event"
    },
    {
      "anonymous": false,
      "inputs": [
        {
          "indexed": false,
          "internalType": "uint256",
          "name": "id",
          "type": "uint256"
        }
      ],
      "name": "Snapshot",
      "type": "event"
    },
    {
      "anonymous": false,
      "inputs": [
        {
          "indexed": true,
          "internalType": "address",
          "name": "from",
          "type": "address"
        },
        {
          "indexed": true,
          "internalType": "address",
          "name": "to",
          "type": "address"
        },
        {
          "indexed": false,
          "internalType": "uint256",
          "name": "value",
          "type": "uint256"
        }
      ],
      "name": "Transfer",
      "type": "event"
    },
    {
      "anonymous": false,
      "inputs": [
        {
          "indexed": false,
          "internalType": "address",
          "name": "caller",
          "type": "address"
        },
        {
          "indexed": false,
          "internalType": "uint256",
          "name": "price",
          "type": "uint256"
        },
        {
          "indexed": false,
          "internalType": "uint256",
          "name": "expiry",
          "type": "uint256"
        },
        {
          "indexed": false,
          "internalType": "uint256",
          "name": "timestamp",
          "type": "uint256"
        }
      ],
      "name": "UpdateTokenPrice",
      "type": "event"
    },
    {
      "inputs": [
        {
          "internalType": "address",
          "name": "owner",
          "type": "address"
        },
        {
          "internalType": "address",
          "name": "spender",
          "type": "address"
        }
      ],
      "name": "allowance",
      "outputs": [
        {
          "internalType": "uint256",
          "name": "",
          "type": "uint256"
        }
      ],
      "stateMutability": "view",
      "type": "function"
    },
    {
      "inputs": [
        {
          "internalType": "address",
          "name": "spender",
          "type": "address"
        },
        {
          "internalType": "uint256",
          "name": "amount",
          "type": "uint256"
        }
      ],
      "name": "approve",
      "outputs": [
        {
          "internalType": "bool",
          "name": "",
          "type": "bool"
        }
      ],
      "stateMutability": "nonpayable",
      "type": "function"
    },
    {
      "inputs": [
        {
          "internalType": "address",
          "name": "account",
          "type": "address"
        }
      ],
      "name": "balanceOf",
      "outputs": [
        {
          "internalType": "uint256",
          "name": "",
          "type": "uint256"
        }
      ],
      "stateMutability": "view",
      "type": "function"
    },
    {
      "inputs": [
        {
          "internalType": "address",
          "name": "account",
          "type": "address"
        },
        {
          "internalType": "uint256",
          "name": "snapshotId",
          "type": "uint256"
        }
      ],
      "name": "balanceOfAt",
      "outputs": [
        {
          "internalType": "uint256",
          "name": "",
          "type": "uint256"
        }
      ],
      "stateMutability": "view",
      "type": "function"
    },
    {
      "inputs": [],
      "name": "circulatingSupply",
      "outputs": [
        {
          "internalType": "uint256",
          "name": "",
          "type": "uint256"
        }
      ],
      "stateMutability": "view",
      "type": "function"
    },
    {
      "inputs": [
        {
          "internalType": "address",
          "name": "investor",
          "type": "address"
        }
      ],
      "name": "claimLiquidationShare",
      "outputs": [],
      "stateMutability": "nonpayable",
      "type": "function"
    },
    {
      "inputs": [],
      "name": "convertFromOriginal",
      "outputs": [],
      "stateMutability": "nonpayable",
      "type": "function"
    },
    {
      "inputs": [],
      "name": "decimals",
      "outputs": [
        {
          "internalType": "uint8",
          "name": "",
          "type": "uint8"
        }
      ],
      "stateMutability": "view",
      "type": "function"
    },
    {
      "inputs": [
        {
          "internalType": "address",
          "name": "spender",
          "type": "address"
        },
        {
          "internalType": "uint256",
          "name": "subtractedValue",
          "type": "uint256"
        }
      ],
      "name": "decreaseAllowance",
      "outputs": [
        {
          "internalType": "bool",
          "name": "",
          "type": "bool"
        }
      ],
      "stateMutability": "nonpayable",
      "type": "function"
    },
    {
      "inputs": [
        {
          "internalType": "address",
          "name": "spender",
          "type": "address"
        },
        {
          "internalType": "uint256",
          "name": "addedValue",
          "type": "uint256"
        }
      ],
      "name": "increaseAllowance",
      "outputs": [
        {
          "internalType": "bool",
          "name": "",
          "type": "bool"
        }
      ],
      "stateMutability": "nonpayable",
      "type": "function"
    },
    {
      "inputs": [],
      "name": "lastKnownTokenValue",
      "outputs": [
        {
          "internalType": "uint256",
          "name": "",
          "type": "uint256"
        }
      ],
      "stateMutability": "view",
      "type": "function"
    },
    {
      "inputs": [],
      "name": "liquidate",
      "outputs": [],
      "stateMutability": "nonpayable",
      "type": "function"
    },
    {
      "inputs": [],
      "name": "liquidated",
      "outputs": [
        {
          "internalType": "bool",
          "name": "",
          "type": "bool"
        }
      ],
      "stateMutability": "view",
      "type": "function"
    },
    {
      "inputs": [
        {
          "internalType": "address",
          "name": "",
          "type": "address"
        }
      ],
      "name": "liquidationClaimsMap",
      "outputs": [
        {
          "internalType": "uint256",
          "name": "",
          "type": "uint256"
        }
      ],
      "stateMutability": "view",
      "type": "function"
    },
    {
      "inputs": [],
      "name": "liquidationFundsClaimed",
      "outputs": [
        {
          "internalType": "uint256",
          "name": "",
          "type": "uint256"
        }
      ],
      "stateMutability": "view",
      "type": "function"
    },
    {
      "inputs": [],
      "name": "liquidationSnapshotId",
      "outputs": [
        {
          "internalType": "uint256",
          "name": "",
          "type": "uint256"
        }
      ],
      "stateMutability": "view",
      "type": "function"
    },
    {
      "inputs": [],
      "name": "liquidationTimestamp",
      "outputs": [
        {
          "internalType": "uint256",
          "name": "",
          "type": "uint256"
        }
      ],
      "stateMutability": "view",
      "type": "function"
    },
    {
      "inputs": [],
      "name": "name",
      "outputs": [
        {
          "internalType": "string",
          "name": "",
          "type": "string"
        }
      ],
      "stateMutability": "view",
      "type": "function"
    },
    {
      "inputs": [],
      "name": "originalToken",
      "outputs": [
        {
          "internalType": "contract IAsset",
          "name": "",
          "type": "address"
        }
      ],
      "stateMutability": "view",
      "type": "function"
    },
    {
      "inputs": [],
      "name": "priceProvider",
      "outputs": [
        {
          "internalType": "address",
          "name": "",
          "type": "address"
        }
      ],
      "stateMutability": "view",
      "type": "function"
    },
    {
      "inputs": [],
      "name": "symbol",
      "outputs": [
        {
          "internalType": "string",
          "name": "",
          "type": "string"
        }
      ],
      "stateMutability": "view",
      "type": "function"
    },
    {
      "inputs": [],
      "name": "tokenPriceRecord",
      "outputs": [
        {
          "internalType": "uint256",
          "name": "price",
          "type": "uint256"
        },
        {
          "internalType": "uint256",
          "name": "updatedAtTimestamp",
          "type": "uint256"
        },
        {
          "internalType": "uint256",
          "name": "validUntilTimestamp",
          "type": "uint256"
        },
        {
          "internalType": "address",
          "name": "provider",
          "type": "address"
        }
      ],
      "stateMutability": "view",
      "type": "function"
    },
    {
      "inputs": [],
      "name": "totalSupply",
      "outputs": [
        {
          "internalType": "uint256",
          "name": "",
          "type": "uint256"
        }
      ],
      "stateMutability": "view",
      "type": "function"
    },
    {
      "inputs": [
        {
          "internalType": "uint256",
          "name": "snapshotId",
          "type": "uint256"
        }
      ],
      "name": "totalSupplyAt",
      "outputs": [
        {
          "internalType": "uint256",
          "name": "",
          "type": "uint256"
        }
      ],
      "stateMutability": "view",
      "type": "function"
    },
    {
      "inputs": [
        {
          "internalType": "address",
          "name": "recipient",
          "type": "address"
        },
        {
          "internalType": "uint256",
          "name": "amount",
          "type": "uint256"
        }
      ],
      "name": "transfer",
      "outputs": [
        {
          "internalType": "bool",
          "name": "",
          "type": "bool"
        }
      ],
      "stateMutability": "nonpayable",
      "type": "function"
    },
    {
      "inputs": [
        {
          "internalType": "address",
          "name": "sender",
          "type": "address"
        },
        {
          "internalType": "address",
          "name": "recipient",
          "type": "address"
        },
        {
          "internalType": "uint256",
          "name": "amount",
          "type": "uint256"
        }
      ],
      "name": "transferFrom",
      "outputs": [
        {
          "internalType": "bool",
          "name": "",
          "type": "bool"
        }
      ],
      "stateMutability": "nonpayable",
      "type": "function"
    },
    {
      "inputs": [
        {
          "internalType": "uint256",
          "name": "price",
          "type": "uint256"
        },
        {
          "internalType": "uint256",
          "name": "expiry",
          "type": "uint256"
        }
      ],
      "name": "updateTokenPrice",
      "outputs": [],
      "stateMutability": "nonpayable",
      "type": "function"
    }
  ],
  "bytecode": "0x60806040523480156200001157600080fd5b5060405162004b8438038062004b84833981810160405281019062000037919062000963565b8383816003908051906020019062000051929190620007fc565b5080600490805190602001906200006a929190620007fc565b505050600073ffffffffffffffffffffffffffffffffffffffff168173ffffffffffffffffffffffffffffffffffffffff161415620000e0576040517f08c379a0000000000000000000000000000000000000000000000000000000008152600401620000d79062000bde565b60405180910390fd5b600073ffffffffffffffffffffffffffffffffffffffff168273ffffffffffffffffffffffffffffffffffffffff16141562000153576040517f08c379a00000000000000000000000000000000000000000000000000000000081526004016200014a9062000c22565b60405180910390fd5b620001636200036c60201b60201c565b60ff168173ffffffffffffffffffffffffffffffffffffffff1663f0141d846040518163ffffffff1660e01b815260040160206040518083038186803b158015620001ad57600080fd5b505afa158015620001c2573d6000803e3d6000fd5b505050506040513d601f19601f82011682018060405250810190620001e8919062000a01565b146200022b576040517f08c379a0000000000000000000000000000000000000000000000000000000008152600401620002229062000c00565b60405180910390fd5b80600960006101000a81548173ffffffffffffffffffffffffffffffffffffffff021916908373ffffffffffffffffffffffffffffffffffffffff16021790555081600a60006101000a81548173ffffffffffffffffffffffffffffffffffffffff021916908373ffffffffffffffffffffffffffffffffffffffff1602179055506200036230600960009054906101000a900473ffffffffffffffffffffffffffffffffffffffff1673ffffffffffffffffffffffffffffffffffffffff16633a98ef396040518163ffffffff1660e01b815260040160206040518083038186803b1580156200031b57600080fd5b505afa15801562000330573d6000803e3d6000fd5b505050506040513d601f19601f8201168201806040525081019062000356919062000a01565b6200037560201b60201c565b5050505062000f2c565b60006012905090565b600073ffffffffffffffffffffffffffffffffffffffff168273ffffffffffffffffffffffffffffffffffffffff161415620003e8576040517f08c379a0000000000000000000000000000000000000000000000000000000008152600401620003df9062000c44565b60405180910390fd5b620003fc60008383620004ee60201b60201c565b806002600082825462000410919062000cfb565b92505081905550806000808473ffffffffffffffffffffffffffffffffffffffff1673ffffffffffffffffffffffffffffffffffffffff168152602001908152602001600020600082825462000467919062000cfb565b925050819055508173ffffffffffffffffffffffffffffffffffffffff16600073ffffffffffffffffffffffffffffffffffffffff167fddf252ad1be2c89b69c2b068fc378daa952ba7f163c4a11628f55a4df523b3ef83604051620004ce919062000c66565b60405180910390a3620004ea60008383620005e960201b60201c565b5050565b62000506838383620005ee60201b620015061760201c565b600073ffffffffffffffffffffffffffffffffffffffff168373ffffffffffffffffffffffffffffffffffffffff16141562000563576200054d82620005f360201b60201c565b6200055d6200065660201b60201c565b620005e4565b600073ffffffffffffffffffffffffffffffffffffffff168273ffffffffffffffffffffffffffffffffffffffff161415620005c057620005aa83620005f360201b60201c565b620005ba6200065660201b60201c565b620005e3565b620005d183620005f360201b60201c565b620005e282620005f360201b60201c565b5b5b505050565b505050565b505050565b62000653600560008373ffffffffffffffffffffffffffffffffffffffff1673ffffffffffffffffffffffffffffffffffffffff16815260200190815260200160002062000647836200067a60201b60201c565b620006c260201b60201c565b50565b6200067860066200066c6200074e60201b60201c565b620006c260201b60201c565b565b60008060008373ffffffffffffffffffffffffffffffffffffffff1673ffffffffffffffffffffffffffffffffffffffff168152602001908152602001600020549050919050565b6000620006d46200075860201b60201c565b905080620006eb846000016200077660201b60201c565b1015620007495782600001819080600181540180825580915050600190039060005260206000200160009091909190915055826001018290806001815401808255809150506001900390600052602060002001600090919091909150555b505050565b6000600254905090565b6000620007716008620007ee60201b6200150b1760201c565b905090565b600080828054905014156200078f5760009050620007e9565b8160018380549050620007a3919062000d58565b81548110620007db577f4e487b7100000000000000000000000000000000000000000000000000000000600052603260045260246000fd5b906000526020600020015490505b919050565b600081600001549050919050565b8280546200080a9062000e1b565b90600052602060002090601f0160209004810192826200082e57600085556200087a565b82601f106200084957805160ff19168380011785556200087a565b828001600101855582156200087a579182015b82811115620008795782518255916020019190600101906200085c565b5b5090506200088991906200088d565b5090565b5b80821115620008a85760008160009055506001016200088e565b5090565b6000620008c3620008bd8462000cb7565b62000c83565b905082815260208101848484011115620008dc57600080fd5b620008e984828562000de5565b509392505050565b600081519050620009028162000ede565b92915050565b600081519050620009198162000ef8565b92915050565b600082601f8301126200093157600080fd5b815162000943848260208601620008ac565b91505092915050565b6000815190506200095d8162000f12565b92915050565b600080600080608085870312156200097a57600080fd5b600085015167ffffffffffffffff8111156200099557600080fd5b620009a3878288016200091f565b945050602085015167ffffffffffffffff811115620009c157600080fd5b620009cf878288016200091f565b9350506040620009e287828801620008f1565b9250506060620009f58782880162000908565b91505092959194509250565b60006020828403121562000a1457600080fd5b600062000a24848285016200094c565b91505092915050565b600062000a3c602d8362000cea565b91507f4d6972726f726564546f6b656e3a20696e76616c6964206f726967696e616c2060008301527f746f6b656e2061646472657373000000000000000000000000000000000000006020830152604082019050919050565b600062000aa460458362000cea565b91507f4d6972726f726564546f6b656e3a206f726967696e616c20616e64206d69727260008301527f6f72656420617373657420646563696d616c20707265636973696f6e206d697360208301527f6d617463680000000000000000000000000000000000000000000000000000006040830152606082019050919050565b600062000b32602d8362000cea565b91507f4d6972726f726564546f6b656e3a20696e76616c69642070726963652070726f60008301527f76696465722061646472657373000000000000000000000000000000000000006020830152604082019050919050565b600062000b9a601f8362000cea565b91507f45524332303a206d696e7420746f20746865207a65726f2061646472657373006000830152602082019050919050565b62000bd88162000ddb565b82525050565b6000602082019050818103600083015262000bf98162000a2d565b9050919050565b6000602082019050818103600083015262000c1b8162000a95565b9050919050565b6000602082019050818103600083015262000c3d8162000b23565b9050919050565b6000602082019050818103600083015262000c5f8162000b8b565b9050919050565b600060208201905062000c7d600083018462000bcd565b92915050565b6000604051905081810181811067ffffffffffffffff8211171562000cad5762000cac62000eaf565b5b8060405250919050565b600067ffffffffffffffff82111562000cd55762000cd462000eaf565b5b601f19601f8301169050602081019050919050565b600082825260208201905092915050565b600062000d088262000ddb565b915062000d158362000ddb565b9250827fffffffffffffffffffffffffffffffffffffffffffffffffffffffffffffffff0382111562000d4d5762000d4c62000e51565b5b828201905092915050565b600062000d658262000ddb565b915062000d728362000ddb565b92508282101562000d885762000d8762000e51565b5b828203905092915050565b600062000da08262000dbb565b9050919050565b600062000db48262000d93565b9050919050565b600073ffffffffffffffffffffffffffffffffffffffff82169050919050565b6000819050919050565b60005b8381101562000e0557808201518184015260208101905062000de8565b8381111562000e15576000848401525b50505050565b6000600282049050600182168062000e3457607f821691505b6020821081141562000e4b5762000e4a62000e80565b5b50919050565b7f4e487b7100000000000000000000000000000000000000000000000000000000600052601160045260246000fd5b7f4e487b7100000000000000000000000000000000000000000000000000000000600052602260045260246000fd5b7f4e487b7100000000000000000000000000000000000000000000000000000000600052604160045260246000fd5b62000ee98162000d93565b811462000ef557600080fd5b50565b62000f038162000da7565b811462000f0f57600080fd5b50565b62000f1d8162000ddb565b811462000f2957600080fd5b50565b613c488062000f3c6000396000f3fe608060405234801561001057600080fd5b50600436106101a95760003560e01c806374b874a6116100f9578063a457c2d711610097578063ae32b0e711610071578063ae32b0e7146104db578063b888879e146104f9578063bbd9445914610517578063dd62ed3e14610533576101a9565b8063a457c2d714610471578063a9059cbb146104a1578063adb55790146104d1576101a9565b80639358928b116100d35780639358928b146103e457806395d89b4114610402578063981b24d014610420578063a4239e8b14610450576101a9565b806374b874a61461038c578063897925f5146103aa57806391630980146103c6576101a9565b806328a07025116101665780634ee2cd7e116101405780634ee2cd7e146102de5780635a0572aa1461030e5780635b1cdef21461032c57806370a082311461035c576101a9565b806328a0702514610286578063313ce5671461029057806339509351146102ae576101a9565b806306fdde03146101ae578063095ea7b3146101cc5780630e7c1cb5146101fc57806318160ddd1461021a57806323b872dd1461023857806323b98cde14610268575b600080fd5b6101b6610563565b6040516101c391906134ec565b60405180910390f35b6101e660048036038101906101e19190612883565b6105f5565b6040516101f391906134b6565b60405180910390f35b610204610613565b60405161021191906134d1565b60405180910390f35b610222610639565b60405161022f91906137ce565b60405180910390f35b610252600480360381019061024d9190612834565b610643565b60405161025f91906134b6565b60405180910390f35b61027061073b565b60405161027d91906134b6565b60405180910390f35b61028e61074e565b005b6102986109d4565b6040516102a5919061382e565b60405180910390f35b6102c860048036038101906102c39190612883565b6109dd565b6040516102d591906134b6565b60405180910390f35b6102f860048036038101906102f39190612883565b610a89565b60405161030591906137ce565b60405180910390f35b610316610af9565b60405161032391906137ce565b60405180910390f35b610346600480360381019061034191906127cf565b610aff565b60405161035391906137ce565b60405180910390f35b610376600480360381019061037191906127cf565b610b17565b60405161038391906137ce565b60405180910390f35b610394610b5f565b6040516103a191906137ce565b60405180910390f35b6103c460048036038101906103bf91906129bc565b610b65565b005b6103ce610d75565b6040516103db91906137ce565b60405180910390f35b6103ec610d8c565b6040516103f991906137ce565b60405180910390f35b61040a610dae565b60405161041791906134ec565b60405180910390f35b61043a6004803603810190610435919061296a565b610e40565b60405161044791906137ce565b60405180910390f35b610458610e71565b60405161046894939291906137e9565b60405180910390f35b61048b60048036038101906104869190612883565b610eaf565b60405161049891906134b6565b60405180910390f35b6104bb60048036038101906104b69190612883565b610f9a565b6040516104c891906134b6565b60405180910390f35b6104d9610fb8565b005b6104e361122e565b6040516104f091906137ce565b60405180910390f35b610501611234565b60405161050e9190613388565b60405180910390f35b610531600480360381019061052c91906127cf565b61125a565b005b61054d600480360381019061054891906127f8565b61147f565b60405161055a91906137ce565b60405180910390f35b60606003805461057290613a9d565b80601f016020809104026020016040519081016040528092919081815260200182805461059e90613a9d565b80156105eb5780601f106105c0576101008083540402835291602001916105eb565b820191906000526020600020905b8154815290600101906020018083116105ce57829003601f168201915b5050505050905090565b6000610609610602611519565b8484611521565b6001905092915050565b600960009054906101000a900473ffffffffffffffffffffffffffffffffffffffff1681565b6000600254905090565b60006106508484846116ec565b6000600160008673ffffffffffffffffffffffffffffffffffffffff1673ffffffffffffffffffffffffffffffffffffffff168152602001908152602001600020600061069b611519565b73ffffffffffffffffffffffffffffffffffffffff1673ffffffffffffffffffffffffffffffffffffffff1681526020019081526020016000205490508281101561071b576040517f08c379a00000000000000000000000000000000000000000000000000000000081526004016107129061364e565b60405180910390fd5b61072f85610727611519565b858403611521565b60019150509392505050565b600a60149054906101000a900460ff1681565b600a60149054906101000a900460ff161561079e576040517f08c379a00000000000000000000000000000000000000000000000000000000081526004016107959061372e565b60405180910390fd5b600960009054906101000a900473ffffffffffffffffffffffffffffffffffffffff1673ffffffffffffffffffffffffffffffffffffffff163373ffffffffffffffffffffffffffffffffffffffff161461082e576040517f08c379a0000000000000000000000000000000000000000000000000000000008152600401610825906135ae565b60405180910390fd5b600e60020154421115610876576040517f08c379a000000000000000000000000000000000000000000000000000000000815260040161086d906136ae565b60405180910390fd5b600061088861088361196d565b61198f565b905080610893611a73565b73ffffffffffffffffffffffffffffffffffffffff166370a08231306040518263ffffffff1660e01b81526004016108cb9190613388565b60206040518083038186803b1580156108e357600080fd5b505afa1580156108f7573d6000803e3d6000fd5b505050506040513d601f19601f8201168201806040525081019061091b9190612993565b101561095c576040517f08c379a00000000000000000000000000000000000000000000000000000000081526004016109539061362e565b60405180910390fd5b6000610966611baa565b90506001600a60146101000a81548160ff02191690831515021790555042600b8190555080600c819055507f5b139eba78ea635d9730fabca1ca3904a0984d47bc5a7dd5366083847d0875ef3383600c54426040516109c89493929190613471565b60405180910390a15050565b60006012905090565b6000610a7f6109ea611519565b8484600160006109f8611519565b73ffffffffffffffffffffffffffffffffffffffff1673ffffffffffffffffffffffffffffffffffffffff16815260200190815260200160002060008873ffffffffffffffffffffffffffffffffffffffff1673ffffffffffffffffffffffffffffffffffffffff16815260200190815260200160002054610a7a91906138dc565b611521565b6001905092915050565b6000806000610ad684600560008873ffffffffffffffffffffffffffffffffffffffff1673ffffffffffffffffffffffffffffffffffffffff168152602001908152602001600020611c00565b9150915081610aed57610ae885610b17565b610aef565b805b9250505092915050565b600c5481565b60126020528060005260406000206000915090505481565b60008060008373ffffffffffffffffffffffffffffffffffffffff1673ffffffffffffffffffffffffffffffffffffffff168152602001908152602001600020549050919050565b600b5481565b600a60149054906101000a900460ff1615610bb5576040517f08c379a0000000000000000000000000000000000000000000000000000000008152600401610bac9061372e565b60405180910390fd5b600a60009054906101000a900473ffffffffffffffffffffffffffffffffffffffff1673ffffffffffffffffffffffffffffffffffffffff163373ffffffffffffffffffffffffffffffffffffffff1614610c45576040517f08c379a0000000000000000000000000000000000000000000000000000000008152600401610c3c9061376e565b60405180910390fd5b60008211610c88576040517f08c379a0000000000000000000000000000000000000000000000000000000008152600401610c7f9061356e565b60405180910390fd5b60405180608001604052808381526020014281526020018242610cab91906138dc565b81526020013373ffffffffffffffffffffffffffffffffffffffff16815250600e60008201518160000155602082015181600101556040820151816002015560608201518160030160006101000a81548173ffffffffffffffffffffffffffffffffffffffff021916908373ffffffffffffffffffffffffffffffffffffffff1602179055509050507fc8ca79a20a7b3d6e9bfe00b0e3719d984cec1fecb95c690339a19a52eac9942733838342604051610d699493929190613471565b60405180910390a15050565b6000610d87610d8261196d565b61198f565b905090565b6000610d9730610b17565b610d9f610639565b610da991906139bd565b905090565b606060048054610dbd90613a9d565b80601f0160208091040260200160405190810160405280929190818152602001828054610de990613a9d565b8015610e365780601f10610e0b57610100808354040283529160200191610e36565b820191906000526020600020905b815481529060010190602001808311610e1957829003601f168201915b5050505050905090565b6000806000610e50846006611c00565b9150915081610e6657610e61610639565b610e68565b805b92505050919050565b600e8060000154908060010154908060020154908060030160009054906101000a900473ffffffffffffffffffffffffffffffffffffffff16905084565b60008060016000610ebe611519565b73ffffffffffffffffffffffffffffffffffffffff1673ffffffffffffffffffffffffffffffffffffffff16815260200190815260200160002060008573ffffffffffffffffffffffffffffffffffffffff1673ffffffffffffffffffffffffffffffffffffffff16815260200190815260200160002054905082811015610f7b576040517f08c379a0000000000000000000000000000000000000000000000000000000008152600401610f72906137ae565b60405180910390fd5b610f8f610f86611519565b85858403611521565b600191505092915050565b6000610fae610fa7611519565b84846116ec565b6001905092915050565b600a60149054906101000a900460ff1615611008576040517f08c379a0000000000000000000000000000000000000000000000000000000008152600401610fff9061372e565b60405180910390fd5b600073ffffffffffffffffffffffffffffffffffffffff16600960009054906101000a900473ffffffffffffffffffffffffffffffffffffffff1673ffffffffffffffffffffffffffffffffffffffff16141561109a576040517f08c379a00000000000000000000000000000000000000000000000000000000081526004016110919061360e565b60405180910390fd5b6000600960009054906101000a900473ffffffffffffffffffffffffffffffffffffffff16905060008173ffffffffffffffffffffffffffffffffffffffff1663dd62ed3e33306040518363ffffffff1660e01b81526004016110fe9291906133a3565b60206040518083038186803b15801561111657600080fd5b505afa15801561112a573d6000803e3d6000fd5b505050506040513d601f19601f8201168201806040525081019061114e9190612993565b905060008111611193576040517f08c379a000000000000000000000000000000000000000000000000000000000815260040161118a906135ce565b60405180910390fd5b6111c03330838573ffffffffffffffffffffffffffffffffffffffff16611d1c909392919063ffffffff16565b6111ca3382610f9a565b507fe979e44a2f7b8a89e6971ddc4e89ed4be843b4c7c5de120b1585e86dc05cbcd333600960009054906101000a900473ffffffffffffffffffffffffffffffffffffffff1683426040516112229493929190613403565b60405180910390a15050565b600d5481565b600a60009054906101000a900473ffffffffffffffffffffffffffffffffffffffff1681565b600a60149054906101000a900460ff166112a9576040517f08c379a00000000000000000000000000000000000000000000000000000000081526004016112a09061368e565b60405180910390fd5b6000601260008373ffffffffffffffffffffffffffffffffffffffff1673ffffffffffffffffffffffffffffffffffffffff168152602001908152602001600020541461132b576040517f08c379a00000000000000000000000000000000000000000000000000000000081526004016113229061366e565b60405180910390fd5b600061134161133c83600c54610a89565b61198f565b905061134b611a73565b73ffffffffffffffffffffffffffffffffffffffff1663a9059cbb83836040518363ffffffff1660e01b8152600401611385929190613448565b602060405180830381600087803b15801561139f57600080fd5b505af11580156113b3573d6000803e3d6000fd5b505050506040513d601f19601f820116820180604052508101906113d791906128bf565b5080601260008473ffffffffffffffffffffffffffffffffffffffff1673ffffffffffffffffffffffffffffffffffffffff168152602001908152602001600020819055507f22086de203d5e21638e289fcc43e4dc9d59e10fa8cbd5ce829aeadf251a187ac82600960009054906101000a900473ffffffffffffffffffffffffffffffffffffffff1683426040516114739493929190613403565b60405180910390a15050565b6000600160008473ffffffffffffffffffffffffffffffffffffffff1673ffffffffffffffffffffffffffffffffffffffff16815260200190815260200160002060008373ffffffffffffffffffffffffffffffffffffffff1673ffffffffffffffffffffffffffffffffffffffff16815260200190815260200160002054905092915050565b505050565b600081600001549050919050565b600033905090565b600073ffffffffffffffffffffffffffffffffffffffff168373ffffffffffffffffffffffffffffffffffffffff161415611591576040517f08c379a0000000000000000000000000000000000000000000000000000000008152600401611588906136ee565b60405180910390fd5b600073ffffffffffffffffffffffffffffffffffffffff168273ffffffffffffffffffffffffffffffffffffffff161415611601576040517f08c379a00000000000000000000000000000000000000000000000000000000081526004016115f89061354e565b60405180910390fd5b80600160008573ffffffffffffffffffffffffffffffffffffffff1673ffffffffffffffffffffffffffffffffffffffff16815260200190815260200160002060008473ffffffffffffffffffffffffffffffffffffffff1673ffffffffffffffffffffffffffffffffffffffff168152602001908152602001600020819055508173ffffffffffffffffffffffffffffffffffffffff168373ffffffffffffffffffffffffffffffffffffffff167f8c5be1e5ebec7d5bd14f71427d1e84f3dd0314c0f7b2291e5b200ac8c7c3b925836040516116df91906137ce565b60405180910390a3505050565b600073ffffffffffffffffffffffffffffffffffffffff168373ffffffffffffffffffffffffffffffffffffffff16141561175c576040517f08c379a0000000000000000000000000000000000000000000000000000000008152600401611753906136ce565b60405180910390fd5b600073ffffffffffffffffffffffffffffffffffffffff168273ffffffffffffffffffffffffffffffffffffffff1614156117cc576040517f08c379a00000000000000000000000000000000000000000000000000000000081526004016117c39061352e565b60405180910390fd5b6117d7838383611da5565b60008060008573ffffffffffffffffffffffffffffffffffffffff1673ffffffffffffffffffffffffffffffffffffffff1681526020019081526020016000205490508181101561185d576040517f08c379a00000000000000000000000000000000000000000000000000000000081526004016118549061358e565b60405180910390fd5b8181036000808673ffffffffffffffffffffffffffffffffffffffff1673ffffffffffffffffffffffffffffffffffffffff16815260200190815260200160002081905550816000808573ffffffffffffffffffffffffffffffffffffffff1673ffffffffffffffffffffffffffffffffffffffff16815260200190815260200160002060008282546118f091906138dc565b925050819055508273ffffffffffffffffffffffffffffffffffffffff168473ffffffffffffffffffffffffffffffffffffffff167fddf252ad1be2c89b69c2b068fc378daa952ba7f163c4a11628f55a4df523b3ef8460405161195491906137ce565b60405180910390a3611967848484611e5f565b50505050565b600061197830610b17565b611980610639565b61198a91906139bd565b905090565b6000612710600960009054906101000a900473ffffffffffffffffffffffffffffffffffffffff1673ffffffffffffffffffffffffffffffffffffffff1663f0141d846040518163ffffffff1660e01b815260040160206040518083038186803b1580156119fc57600080fd5b505afa158015611a10573d6000803e3d6000fd5b505050506040513d601f19601f82011682018060405250810190611a349190612993565b611a3e9190613963565b670de0b6b3a7640000600e6000015484611a589190613963565b611a629190613963565b611a6c9190613932565b9050919050565b6000600960009054906101000a900473ffffffffffffffffffffffffffffffffffffffff1673ffffffffffffffffffffffffffffffffffffffff16631865c57d6040518163ffffffff1660e01b815260040160006040518083038186803b158015611add57600080fd5b505afa158015611af1573d6000803e3d6000fd5b505050506040513d6000823e3d601f19601f82011682018060405250810190611b1a91906128e8565b610140015173ffffffffffffffffffffffffffffffffffffffff16631865c57d6040518163ffffffff1660e01b815260040160006040518083038186803b158015611b6457600080fd5b505afa158015611b78573d6000803e3d6000fd5b505050506040513d6000823e3d601f19601f82011682018060405250810190611ba19190612929565b60a00151905090565b6000611bb66008611e64565b6000611bc0611e7a565b90507f8030e83b04d87bef53480e26263266d6ca66863aa8506aca6f2559d18aa1cb6781604051611bf191906137ce565b60405180910390a18091505090565b60008060008411611c46576040517f08c379a0000000000000000000000000000000000000000000000000000000008152600401611c3d9061374e565b60405180910390fd5b611c4e611e7a565b841115611c90576040517f08c379a0000000000000000000000000000000000000000000000000000000008152600401611c879061350e565b60405180910390fd5b6000611ca88585600001611e8b90919063ffffffff16565b90508360000180549050811415611cc6576000809250925050611d15565b6001846001018281548110611d04577f4e487b7100000000000000000000000000000000000000000000000000000000600052603260045260246000fd5b906000526020600020015492509250505b9250929050565b611d9f846323b872dd60e01b858585604051602401611d3d939291906133cc565b604051602081830303815290604052907bffffffffffffffffffffffffffffffffffffffffffffffffffffffff19166020820180517bffffffffffffffffffffffffffffffffffffffffffffffffffffffff8381831617835250505050611fb1565b50505050565b611db0838383611506565b600073ffffffffffffffffffffffffffffffffffffffff168373ffffffffffffffffffffffffffffffffffffffff161415611dfb57611dee82612078565b611df66120cb565b611e5a565b600073ffffffffffffffffffffffffffffffffffffffff168273ffffffffffffffffffffffffffffffffffffffff161415611e4657611e3983612078565b611e416120cb565b611e59565b611e4f83612078565b611e5882612078565b5b5b505050565b505050565b6001816000016000828254019250508190555050565b6000611e86600861150b565b905090565b60008083805490501415611ea25760009050611fab565b600080848054905090505b80821015611f2c576000611ec183836120df565b905084868281548110611efd577f4e487b7100000000000000000000000000000000000000000000000000000000600052603260045260246000fd5b90600052602060002001541115611f1657809150611f26565b600181611f2391906138dc565b92505b50611ead565b600082118015611f8a57508385600184611f4691906139bd565b81548110611f7d577f4e487b7100000000000000000000000000000000000000000000000000000000600052603260045260246000fd5b9060005260206000200154145b15611fa557600182611f9c91906139bd565b92505050611fab565b81925050505b92915050565b6000612013826040518060400160405280602081526020017f5361666545524332303a206c6f772d6c6576656c2063616c6c206661696c65648152508573ffffffffffffffffffffffffffffffffffffffff166121469092919063ffffffff16565b9050600081511115612073578080602001905181019061203391906128bf565b612072576040517f08c379a00000000000000000000000000000000000000000000000000000000081526004016120699061378e565b60405180910390fd5b5b505050565b6120c8600560008373ffffffffffffffffffffffffffffffffffffffff1673ffffffffffffffffffffffffffffffffffffffff1681526020019081526020016000206120c383610b17565b61215e565b50565b6120dd60066120d8610639565b61215e565b565b6000600280836120ef9190613acf565b6002856120fc9190613acf565b61210691906138dc565b6121109190613932565b60028361211d9190613932565b60028561212a9190613932565b61213491906138dc565b61213e91906138dc565b905092915050565b606061215584846000856121d9565b90509392505050565b6000612168611e7a565b905080612177846000016122ed565b10156121d45782600001819080600181540180825580915050600190039060005260206000200160009091909190915055826001018290806001815401808255809150506001900390600052602060002001600090919091909150555b505050565b60608247101561221e576040517f08c379a0000000000000000000000000000000000000000000000000000000008152600401612215906135ee565b60405180910390fd5b61222785612360565b612266576040517f08c379a000000000000000000000000000000000000000000000000000000000815260040161225d9061370e565b60405180910390fd5b6000808673ffffffffffffffffffffffffffffffffffffffff16858760405161228f9190613371565b60006040518083038185875af1925050503d80600081146122cc576040519150601f19603f3d011682016040523d82523d6000602084013e6122d1565b606091505b50915091506122e1828286612373565b92505050949350505050565b60008082805490501415612304576000905061235b565b816001838054905061231691906139bd565b8154811061234d577f4e487b7100000000000000000000000000000000000000000000000000000000600052603260045260246000fd5b906000526020600020015490505b919050565b600080823b905060008111915050919050565b60608315612383578290506123d3565b6000835111156123965782518084602001fd5b816040517f08c379a00000000000000000000000000000000000000000000000000000000081526004016123ca91906134ec565b60405180910390fd5b9392505050565b60006123ed6123e88461387a565b613849565b90508281526020810184848401111561240557600080fd5b612410848285613a6a565b509392505050565b60008135905061242781613bcd565b92915050565b60008151905061243c81613bcd565b92915050565b60008151905061245181613be4565b92915050565b600082601f83011261246857600080fd5b81516124788482602086016123da565b91505092915050565b6000610280828403121561249457600080fd5b61249f610280613849565b905060006124af848285016127ba565b60008301525060206124c38482850161242d565b602083015250604082015167ffffffffffffffff8111156124e357600080fd5b6124ef84828501612457565b6040830152506060612503848285016127ba565b60608301525060806125178482850161242d565b60808301525060a061252b8482850161242d565b60a08301525060c061253f8482850161242d565b60c08301525060e0612553848285016127ba565b60e08301525061010061256884828501612442565b6101008301525061012061257e84828501612442565b610120830152506101406125948482850161242d565b6101408301525061016082015167ffffffffffffffff8111156125b657600080fd5b6125c284828501612457565b6101608301525061018082015167ffffffffffffffff8111156125e457600080fd5b6125f084828501612457565b610180830152506101a082015167ffffffffffffffff81111561261257600080fd5b61261e84828501612457565b6101a0830152506101c0612634848285016127ba565b6101c0830152506101e061264a848285016127ba565b6101e08301525061020061266084828501612442565b61020083015250610220612676848285016127ba565b6102208301525061024061268c848285016127ba565b610240830152506102606126a2848285016127ba565b6102608301525092915050565b600061010082840312156126c257600080fd5b6126cd610100613849565b905060006126dd848285016127ba565b60008301525060206126f18482850161242d565b602083015250604082015167ffffffffffffffff81111561271157600080fd5b61271d84828501612457565b60408301525060606127318482850161242d565b60608301525060806127458482850161242d565b60808301525060a06127598482850161242d565b60a08301525060c061276d8482850161242d565b60c08301525060e082015167ffffffffffffffff81111561278d57600080fd5b61279984828501612457565b60e08301525092915050565b6000813590506127b481613bfb565b92915050565b6000815190506127c981613bfb565b92915050565b6000602082840312156127e157600080fd5b60006127ef84828501612418565b91505092915050565b6000806040838503121561280b57600080fd5b600061281985828601612418565b925050602061282a85828601612418565b9150509250929050565b60008060006060848603121561284957600080fd5b600061285786828701612418565b935050602061286886828701612418565b9250506040612879868287016127a5565b9150509250925092565b6000806040838503121561289657600080fd5b60006128a485828601612418565b92505060206128b5858286016127a5565b9150509250929050565b6000602082840312156128d157600080fd5b60006128df84828501612442565b91505092915050565b6000602082840312156128fa57600080fd5b600082015167ffffffffffffffff81111561291457600080fd5b61292084828501612481565b91505092915050565b60006020828403121561293b57600080fd5b600082015167ffffffffffffffff81111561295557600080fd5b612961848285016126af565b91505092915050565b60006020828403121561297c57600080fd5b600061298a848285016127a5565b91505092915050565b6000602082840312156129a557600080fd5b60006129b3848285016127ba565b91505092915050565b600080604083850312156129cf57600080fd5b60006129dd858286016127a5565b92505060206129ee858286016127a5565b9150509250929050565b612a01816139f1565b82525050565b612a1081613a03565b82525050565b6000612a21826138aa565b612a2b81856138c0565b9350612a3b818560208601613a6a565b80840191505092915050565b612a5081613a46565b82525050565b6000612a61826138b5565b612a6b81856138cb565b9350612a7b818560208601613a6a565b612a8481613bbc565b840191505092915050565b6000612a9c601d836138cb565b91507f4552433230536e617073686f743a206e6f6e6578697374656e742069640000006000830152602082019050919050565b6000612adc6023836138cb565b91507f45524332303a207472616e7366657220746f20746865207a65726f206164647260008301527f65737300000000000000000000000000000000000000000000000000000000006020830152604082019050919050565b6000612b426022836138cb565b91507f45524332303a20617070726f766520746f20746865207a65726f20616464726560008301527f73730000000000000000000000000000000000000000000000000000000000006020830152604082019050919050565b6000612ba86023836138cb565b91507f4d6972726f726564546f6b656e3a2070726963652068617320746f206265203e60008301527f20303b00000000000000000000000000000000000000000000000000000000006020830152604082019050919050565b6000612c0e6026836138cb565b91507f45524332303a207472616e7366657220616d6f756e742065786365656473206260008301527f616c616e636500000000000000000000000000000000000000000000000000006020830152604082019050919050565b6000612c746044836138cb565b91507f4d6972726f726564546f6b656e3a206e6f7420616c6c6f7765643b2063616c6c60008301527f6572206d75737420626520616e206f726967696e616c2061737365742061646460208301527f72657373000000000000000000000000000000000000000000000000000000006040830152606082019050919050565b6000612d006043836138cb565b91507f4d6972726f726564546f6b656e3a2063616e277420636f6e766572742066726f60008301527f6d206f726967696e616c20746f6b656e3b204d697373696e6720617070726f7660208301527f616c2e00000000000000000000000000000000000000000000000000000000006040830152606082019050919050565b6000612d8c6026836138cb565b91507f416464726573733a20696e73756666696369656e742062616c616e636520666f60008301527f722063616c6c00000000000000000000000000000000000000000000000000006020830152604082019050919050565b6000612df26057836138cb565b91507f4d6972726f726564546f6b656e3a2063616e277420636f6e766572742066726f60008301527f6d206f726967696e616c20746f6b656e3b204f726967696e616c20746f6b656e60208301527f20776173206e6576657220696e697469616c697a65642e0000000000000000006040830152606082019050919050565b6000612e7e6052836138cb565b91507f4d6972726f726564546f6b656e3a206e6f7420656e6f7567682066756e64732060008301527f666f72206c69717569646174696f6e3b207472616e736665722066756e64732060208301527f6265666f7265206c69717569646174696f6e00000000000000000000000000006040830152606082019050919050565b6000612f0a6028836138cb565b91507f45524332303a207472616e7366657220616d6f756e742065786365656473206160008301527f6c6c6f77616e63650000000000000000000000000000000000000000000000006020830152604082019050919050565b6000612f70603d836138cb565b91507f4d6972726f726564546f6b656e3a20696e766573746f722068617320616c726560008301527f61647920636c61696d6564206c69717569646174696f6e2066756e64730000006020830152604082019050919050565b6000612fd6601d836138cb565b91507f4d6972726f726564546f6b656e3a206e6f74206c6971756964617465640000006000830152602082019050919050565b60006130166045836138cb565b91507f4d6972726f726564546f6b656e3a20707269636520657870697265643b20757060008301527f64617465207072696365206265666f726520747279696e6720746f206c69717560208301527f69646174650000000000000000000000000000000000000000000000000000006040830152606082019050919050565b60006130a26025836138cb565b91507f45524332303a207472616e736665722066726f6d20746865207a65726f20616460008301527f64726573730000000000000000000000000000000000000000000000000000006020830152604082019050919050565b60006131086024836138cb565b91507f45524332303a20617070726f76652066726f6d20746865207a65726f2061646460008301527f72657373000000000000000000000000000000000000000000000000000000006020830152604082019050919050565b600061316e601d836138cb565b91507f416464726573733a2063616c6c20746f206e6f6e2d636f6e74726163740000006000830152602082019050919050565b60006131ae6032836138cb565b91507f4d6972726f726564546f6b656e3a20416374696f6e20666f7262696464656e2c60008301527f206173736574206c6971756964617465642e00000000000000000000000000006020830152604082019050919050565b60006132146016836138cb565b91507f4552433230536e617073686f743a2069642069732030000000000000000000006000830152602082019050919050565b6000613254601b836138cb565b91507f4d6972726f726564546f6b656e3a206e6f7420616c6c6f7765643b00000000006000830152602082019050919050565b6000613294602a836138cb565b91507f5361666545524332303a204552433230206f7065726174696f6e20646964206e60008301527f6f742073756363656564000000000000000000000000000000000000000000006020830152604082019050919050565b60006132fa6025836138cb565b91507f45524332303a2064656372656173656420616c6c6f77616e63652062656c6f7760008301527f207a65726f0000000000000000000000000000000000000000000000000000006020830152604082019050919050565b61335c81613a2f565b82525050565b61336b81613a39565b82525050565b600061337d8284612a16565b915081905092915050565b600060208201905061339d60008301846129f8565b92915050565b60006040820190506133b860008301856129f8565b6133c560208301846129f8565b9392505050565b60006060820190506133e160008301866129f8565b6133ee60208301856129f8565b6133fb6040830184613353565b949350505050565b600060808201905061341860008301876129f8565b61342560208301866129f8565b6134326040830185613353565b61343f6060830184613353565b95945050505050565b600060408201905061345d60008301856129f8565b61346a6020830184613353565b9392505050565b600060808201905061348660008301876129f8565b6134936020830186613353565b6134a06040830185613353565b6134ad6060830184613353565b95945050505050565b60006020820190506134cb6000830184612a07565b92915050565b60006020820190506134e66000830184612a47565b92915050565b600060208201905081810360008301526135068184612a56565b905092915050565b6000602082019050818103600083015261352781612a8f565b9050919050565b6000602082019050818103600083015261354781612acf565b9050919050565b6000602082019050818103600083015261356781612b35565b9050919050565b6000602082019050818103600083015261358781612b9b565b9050919050565b600060208201905081810360008301526135a781612c01565b9050919050565b600060208201905081810360008301526135c781612c67565b9050919050565b600060208201905081810360008301526135e781612cf3565b9050919050565b6000602082019050818103600083015261360781612d7f565b9050919050565b6000602082019050818103600083015261362781612de5565b9050919050565b6000602082019050818103600083015261364781612e71565b9050919050565b6000602082019050818103600083015261366781612efd565b9050919050565b6000602082019050818103600083015261368781612f63565b9050919050565b600060208201905081810360008301526136a781612fc9565b9050919050565b600060208201905081810360008301526136c781613009565b9050919050565b600060208201905081810360008301526136e781613095565b9050919050565b60006020820190508181036000830152613707816130fb565b9050919050565b6000602082019050818103600083015261372781613161565b9050919050565b60006020820190508181036000830152613747816131a1565b9050919050565b6000602082019050818103600083015261376781613207565b9050919050565b6000602082019050818103600083015261378781613247565b9050919050565b600060208201905081810360008301526137a781613287565b9050919050565b600060208201905081810360008301526137c7816132ed565b9050919050565b60006020820190506137e36000830184613353565b92915050565b60006080820190506137fe6000830187613353565b61380b6020830186613353565b6138186040830185613353565b61382560608301846129f8565b95945050505050565b60006020820190506138436000830184613362565b92915050565b6000604051905081810181811067ffffffffffffffff821117156138705761386f613b8d565b5b8060405250919050565b600067ffffffffffffffff82111561389557613894613b8d565b5b601f19601f8301169050602081019050919050565b600081519050919050565b600081519050919050565b600081905092915050565b600082825260208201905092915050565b60006138e782613a2f565b91506138f283613a2f565b9250827fffffffffffffffffffffffffffffffffffffffffffffffffffffffffffffffff0382111561392757613926613b00565b5b828201905092915050565b600061393d82613a2f565b915061394883613a2f565b92508261395857613957613b2f565b5b828204905092915050565b600061396e82613a2f565b915061397983613a2f565b9250817fffffffffffffffffffffffffffffffffffffffffffffffffffffffffffffffff04831182151516156139b2576139b1613b00565b5b828202905092915050565b60006139c882613a2f565b91506139d383613a2f565b9250828210156139e6576139e5613b00565b5b828203905092915050565b60006139fc82613a0f565b9050919050565b60008115159050919050565b600073ffffffffffffffffffffffffffffffffffffffff82169050919050565b6000819050919050565b600060ff82169050919050565b6000613a5182613a58565b9050919050565b6000613a6382613a0f565b9050919050565b60005b83811015613a88578082015181840152602081019050613a6d565b83811115613a97576000848401525b50505050565b60006002820490506001821680613ab557607f821691505b60208210811415613ac957613ac8613b5e565b5b50919050565b6000613ada82613a2f565b9150613ae583613a2f565b925082613af557613af4613b2f565b5b828206905092915050565b7f4e487b7100000000000000000000000000000000000000000000000000000000600052601160045260246000fd5b7f4e487b7100000000000000000000000000000000000000000000000000000000600052601260045260246000fd5b7f4e487b7100000000000000000000000000000000000000000000000000000000600052602260045260246000fd5b7f4e487b7100000000000000000000000000000000000000000000000000000000600052604160045260246000fd5b6000601f19601f8301169050919050565b613bd6816139f1565b8114613be157600080fd5b50565b613bed81613a03565b8114613bf857600080fd5b50565b613c0481613a2f565b8114613c0f57600080fd5b5056fea2646970667358221220542d3ebfb3d514ae9ff7c11e795eb618e94e68cd12e6c26094815ef588267e1364736f6c63430008000033",
  "linkReferences": {},
  "deployedLinkReferences": {}
}