{
  "_format": "hh-sol-artifact-1",
  "contractName": "ApxAssetsRegistry",
  "sourceName": "contracts/apx-protocol/ApxAssetsRegistry.sol",
  "abi": [
    {
      "inputs": [
        {
          "internalType": "address",
          "name": "_masterOwner",
          "type": "address"
        },
        {
          "internalType": "address",
          "name": "_assetManager",
          "type": "address"
        },
        {
          "internalType": "address",
          "name": "_priceManager",
          "type": "address"
        }
      ],
      "stateMutability": "nonpayable",
      "type": "constructor"
    },
    {
      "anonymous": false,
      "inputs": [
        {
          "indexed": false,
          "internalType": "address",
          "name": "calller",
          "type": "address"
        },
        {
          "indexed": false,
          "internalType": "address",
          "name": "newAssetsRegistry",
          "type": "address"
        },
        {
          "indexed": false,
          "internalType": "address",
          "name": "originalAsset",
          "type": "address"
        },
        {
          "indexed": false,
          "internalType": "uint256",
          "name": "timestamp",
          "type": "uint256"
        }
      ],
      "name": "Migrate",
      "type": "event"
    },
    {
      "anonymous": false,
      "inputs": [
        {
          "indexed": false,
          "internalType": "address",
          "name": "caller",
          "type": "address"
        },
        {
          "indexed": false,
          "internalType": "address",
          "name": "original",
          "type": "address"
        },
        {
          "indexed": false,
          "internalType": "address",
          "name": "mirrored",
          "type": "address"
        },
        {
          "indexed": false,
          "internalType": "bool",
          "name": "state",
          "type": "bool"
        },
        {
          "indexed": false,
          "internalType": "uint256",
          "name": "timestamp",
          "type": "uint256"
        }
      ],
      "name": "RegisterAsset",
      "type": "event"
    },
    {
      "anonymous": false,
      "inputs": [
        {
          "indexed": false,
          "internalType": "address",
          "name": "oldAssetManager",
          "type": "address"
        },
        {
          "indexed": false,
          "internalType": "address",
          "name": "newAssetManager",
          "type": "address"
        },
        {
          "indexed": false,
          "internalType": "uint256",
          "name": "timestamp",
          "type": "uint256"
        }
      ],
      "name": "TransferAssetManagerRole",
      "type": "event"
    },
    {
      "anonymous": false,
      "inputs": [
        {
          "indexed": false,
          "internalType": "address",
          "name": "oldMasterOwner",
          "type": "address"
        },
        {
          "indexed": false,
          "internalType": "address",
          "name": "newMasterOwner",
          "type": "address"
        },
        {
          "indexed": false,
          "internalType": "uint256",
          "name": "timestamp",
          "type": "uint256"
        }
      ],
      "name": "TransferMasterOwnerRole",
      "type": "event"
    },
    {
      "anonymous": false,
      "inputs": [
        {
          "indexed": false,
          "internalType": "address",
          "name": "oldPriceManager",
          "type": "address"
        },
        {
          "indexed": false,
          "internalType": "address",
          "name": "newPriceManager",
          "type": "address"
        },
        {
          "indexed": false,
          "internalType": "uint256",
          "name": "timestamp",
          "type": "uint256"
        }
      ],
      "name": "TransferPriceManagerRole",
      "type": "event"
    },
    {
      "anonymous": false,
      "inputs": [
        {
          "indexed": false,
          "internalType": "address",
          "name": "priceManager",
          "type": "address"
        },
        {
          "indexed": false,
          "internalType": "address",
          "name": "asset",
          "type": "address"
        },
        {
          "indexed": false,
          "internalType": "uint256",
          "name": "price",
          "type": "uint256"
        },
        {
          "indexed": false,
          "internalType": "uint256",
          "name": "expiry",
          "type": "uint256"
        },
        {
          "indexed": false,
          "internalType": "uint256",
          "name": "timestamp",
          "type": "uint256"
        }
      ],
      "name": "UpdatePrice",
      "type": "event"
    },
    {
      "anonymous": false,
      "inputs": [
        {
          "indexed": false,
          "internalType": "address",
          "name": "assetManager",
          "type": "address"
        },
        {
          "indexed": false,
          "internalType": "address",
          "name": "asset",
          "type": "address"
        },
        {
          "indexed": false,
          "internalType": "bool",
          "name": "active",
          "type": "bool"
        },
        {
          "indexed": false,
          "internalType": "uint256",
          "name": "timestamp",
          "type": "uint256"
        }
      ],
      "name": "UpdateState",
      "type": "event"
    },
    {
      "inputs": [],
      "name": "assetManager",
      "outputs": [
        {
          "internalType": "address",
          "name": "",
          "type": "address"
        }
      ],
      "stateMutability": "view",
      "type": "function"
    },
    {
      "inputs": [
        {
          "internalType": "address",
          "name": "asset",
          "type": "address"
        }
      ],
      "name": "getMirrored",
      "outputs": [
        {
          "components": [
            {
              "internalType": "address",
              "name": "originalToken",
              "type": "address"
            },
            {
              "internalType": "address",
              "name": "mirroredToken",
              "type": "address"
            },
            {
              "internalType": "bool",
              "name": "exists",
              "type": "bool"
            },
            {
              "internalType": "bool",
              "name": "state",
              "type": "bool"
            },
            {
              "internalType": "uint256",
              "name": "stateUpdatedAt",
              "type": "uint256"
            },
            {
              "internalType": "uint256",
              "name": "price",
              "type": "uint256"
            },
            {
              "internalType": "uint256",
              "name": "pricePrecision",
              "type": "uint256"
            },
            {
              "internalType": "uint256",
              "name": "priceUpdatedAt",
              "type": "uint256"
            },
            {
              "internalType": "uint256",
              "name": "priceValidUntil",
              "type": "uint256"
            },
            {
              "internalType": "address",
              "name": "priceProvider",
              "type": "address"
            }
          ],
          "internalType": "struct Structs.AssetRecord",
          "name": "",
          "type": "tuple"
        }
      ],
      "stateMutability": "view",
      "type": "function"
    },
    {
      "inputs": [
        {
          "internalType": "address",
          "name": "original",
          "type": "address"
        }
      ],
      "name": "getMirroredFromOriginal",
      "outputs": [
        {
          "components": [
            {
              "internalType": "address",
              "name": "originalToken",
              "type": "address"
            },
            {
              "internalType": "address",
              "name": "mirroredToken",
              "type": "address"
            },
            {
              "internalType": "bool",
              "name": "exists",
              "type": "bool"
            },
            {
              "internalType": "bool",
              "name": "state",
              "type": "bool"
            },
            {
              "internalType": "uint256",
              "name": "stateUpdatedAt",
              "type": "uint256"
            },
            {
              "internalType": "uint256",
              "name": "price",
              "type": "uint256"
            },
            {
              "internalType": "uint256",
              "name": "pricePrecision",
              "type": "uint256"
            },
            {
              "internalType": "uint256",
              "name": "priceUpdatedAt",
              "type": "uint256"
            },
            {
              "internalType": "uint256",
              "name": "priceValidUntil",
              "type": "uint256"
            },
            {
              "internalType": "address",
              "name": "priceProvider",
              "type": "address"
            }
          ],
          "internalType": "struct Structs.AssetRecord",
          "name": "",
          "type": "tuple"
        }
      ],
      "stateMutability": "view",
      "type": "function"
    },
    {
      "inputs": [],
      "name": "getMirroredList",
      "outputs": [
        {
          "internalType": "address[]",
          "name": "",
          "type": "address[]"
        }
      ],
      "stateMutability": "view",
      "type": "function"
    },
    {
      "inputs": [],
      "name": "masterOwner",
      "outputs": [
        {
          "internalType": "address",
          "name": "",
          "type": "address"
        }
      ],
      "stateMutability": "view",
      "type": "function"
    },
    {
      "inputs": [
        {
          "internalType": "address",
          "name": "newAssetsRegistry",
          "type": "address"
        },
        {
          "internalType": "address",
          "name": "originalAsset",
          "type": "address"
        }
      ],
      "name": "migrate",
      "outputs": [],
      "stateMutability": "nonpayable",
      "type": "function"
    },
    {
      "inputs": [],
      "name": "priceManager",
      "outputs": [
        {
          "internalType": "address",
          "name": "",
          "type": "address"
        }
      ],
      "stateMutability": "view",
      "type": "function"
    },
    {
      "inputs": [
        {
          "internalType": "address",
          "name": "original",
          "type": "address"
        },
        {
          "internalType": "address",
          "name": "mirrored",
          "type": "address"
        },
        {
          "internalType": "bool",
          "name": "state",
          "type": "bool"
        }
      ],
      "name": "registerAsset",
      "outputs": [],
      "stateMutability": "nonpayable",
      "type": "function"
    },
    {
      "inputs": [
        {
          "internalType": "address",
          "name": "newAssetManager",
          "type": "address"
        }
      ],
      "name": "transferAssetManagerRole",
      "outputs": [],
      "stateMutability": "nonpayable",
      "type": "function"
    },
    {
      "inputs": [
        {
          "internalType": "address",
          "name": "newMasterOwner",
          "type": "address"
        }
      ],
      "name": "transferMasterOwnerRole",
      "outputs": [],
      "stateMutability": "nonpayable",
      "type": "function"
    },
    {
      "inputs": [
        {
          "internalType": "address",
          "name": "newPriceManager",
          "type": "address"
        }
      ],
      "name": "transferPriceManagerRole",
      "outputs": [],
      "stateMutability": "nonpayable",
      "type": "function"
    },
    {
      "inputs": [
        {
          "internalType": "address",
          "name": "asset",
          "type": "address"
        },
        {
          "internalType": "uint256",
          "name": "price",
          "type": "uint256"
        },
        {
          "internalType": "uint256",
          "name": "pricePrecision",
          "type": "uint256"
        },
        {
          "internalType": "uint256",
          "name": "expiry",
          "type": "uint256"
        }
      ],
      "name": "updatePrice",
      "outputs": [],
      "stateMutability": "nonpayable",
      "type": "function"
    },
    {
      "inputs": [
        {
          "internalType": "address",
          "name": "asset",
          "type": "address"
        },
        {
          "internalType": "bool",
          "name": "state",
          "type": "bool"
        }
      ],
      "name": "updateState",
      "outputs": [],
      "stateMutability": "nonpayable",
      "type": "function"
    }
  ],
  "bytecode": "0x60806040523480156200001157600080fd5b5060405162002dd938038062002dd9833981810160405281019062000037919062000119565b826000806101000a81548173ffffffffffffffffffffffffffffffffffffffff021916908373ffffffffffffffffffffffffffffffffffffffff16021790555081600160006101000a81548173ffffffffffffffffffffffffffffffffffffffff021916908373ffffffffffffffffffffffffffffffffffffffff16021790555080600260006101000a81548173ffffffffffffffffffffffffffffffffffffffff021916908373ffffffffffffffffffffffffffffffffffffffff160217905550505050620001bd565b6000815190506200011381620001a3565b92915050565b6000806000606084860312156200012f57600080fd5b60006200013f8682870162000102565b9350506020620001528682870162000102565b9250506040620001658682870162000102565b9150509250925092565b60006200017c8262000183565b9050919050565b600073ffffffffffffffffffffffffffffffffffffffff82169050919050565b620001ae816200016f565b8114620001ba57600080fd5b50565b612c0c80620001cd6000396000f3fe608060405234801561001057600080fd5b50600436106100cf5760003560e01c80636fb3ebf31161008c578063c7e1ffe311610066578063c7e1ffe3146101fc578063d44ced801461021a578063e7201d7d14610236578063fc13d1cb14610254576100cf565b80636fb3ebf3146101a457806394217ad1146101c2578063a02ba2e5146101e0576100cf565b80631068361f146100d45780633ac47c0a146100f05780634028d0e9146101205780634c8c6976146101505780635cd977f31461016c578063631bed4e14610188575b600080fd5b6100ee60048036038101906100e99190611e3b565b610270565b005b61010a60048036038101906101059190611e12565b6105e4565b60405161011791906129fe565b60405180910390f35b61013a60048036038101906101359190611e12565b6107a8565b60405161014791906129fe565b60405180910390f35b61016a60048036038101906101659190611f02565b6109cb565b005b61018660048036038101906101819190611e77565b610e44565b005b6101a2600480360381019061019d9190611ec6565b6114dc565b005b6101ac611735565b6040516101b9919061285c565b60405180910390f35b6101ca6117c3565b6040516101d791906126da565b60405180910390f35b6101fa60048036038101906101f59190611e12565b6117e9565b005b61020461194e565b60405161021191906126da565b60405180910390f35b610234600480360381019061022f9190611e12565b611974565b005b61023e611ad9565b60405161024b91906126da565b60405180910390f35b61026e60048036038101906102699190611e12565b611afd565b005b60008054906101000a900473ffffffffffffffffffffffffffffffffffffffff1673ffffffffffffffffffffffffffffffffffffffff163373ffffffffffffffffffffffffffffffffffffffff16146102fe576040517f08c379a00000000000000000000000000000000000000000000000000000000081526004016102f59061289e565b60405180910390fd5b600073ffffffffffffffffffffffffffffffffffffffff168273ffffffffffffffffffffffffffffffffffffffff16141561036e576040517f08c379a0000000000000000000000000000000000000000000000000000000008152600401610365906129be565b60405180910390fd5b600073ffffffffffffffffffffffffffffffffffffffff168173ffffffffffffffffffffffffffffffffffffffff1614156103de576040517f08c379a00000000000000000000000000000000000000000000000000000000081526004016103d59061297e565b60405180910390fd5b8173ffffffffffffffffffffffffffffffffffffffff16634028d0e9826040518263ffffffff1660e01b815260040161041791906126da565b6101406040518083038186803b15801561043057600080fd5b505afa158015610444573d6000803e3d6000fd5b505050506040513d601f19601f820116820180604052508101906104689190611f65565b6020015173ffffffffffffffffffffffffffffffffffffffff16600460008373ffffffffffffffffffffffffffffffffffffffff1673ffffffffffffffffffffffffffffffffffffffff16815260200190815260200160002060009054906101000a900473ffffffffffffffffffffffffffffffffffffffff1673ffffffffffffffffffffffffffffffffffffffff1614610538576040517f08c379a000000000000000000000000000000000000000000000000000000000815260040161052f9061287e565b60405180910390fd5b8073ffffffffffffffffffffffffffffffffffffffff166391b14c5f836040518263ffffffff1660e01b815260040161057191906126da565b600060405180830381600087803b15801561058b57600080fd5b505af115801561059f573d6000803e3d6000fd5b505050507f6daef94fbc8b59fa3c2376fe03e2136d1e8be75d43940cecb1041ee373fbd76c338383426040516105d89493929190612748565b60405180910390a15050565b6105ec611c09565b600360008373ffffffffffffffffffffffffffffffffffffffff1673ffffffffffffffffffffffffffffffffffffffff168152602001908152602001600020604051806101400160405290816000820160009054906101000a900473ffffffffffffffffffffffffffffffffffffffff1673ffffffffffffffffffffffffffffffffffffffff1673ffffffffffffffffffffffffffffffffffffffff1681526020016001820160009054906101000a900473ffffffffffffffffffffffffffffffffffffffff1673ffffffffffffffffffffffffffffffffffffffff1673ffffffffffffffffffffffffffffffffffffffff1681526020016001820160149054906101000a900460ff161515151581526020016001820160159054906101000a900460ff1615151515815260200160028201548152602001600382015481526020016004820154815260200160058201548152602001600682015481526020016007820160009054906101000a900473ffffffffffffffffffffffffffffffffffffffff1673ffffffffffffffffffffffffffffffffffffffff1673ffffffffffffffffffffffffffffffffffffffff16815250509050919050565b6107b0611c09565b60036000600460008573ffffffffffffffffffffffffffffffffffffffff1673ffffffffffffffffffffffffffffffffffffffff16815260200190815260200160002060009054906101000a900473ffffffffffffffffffffffffffffffffffffffff1673ffffffffffffffffffffffffffffffffffffffff1673ffffffffffffffffffffffffffffffffffffffff168152602001908152602001600020604051806101400160405290816000820160009054906101000a900473ffffffffffffffffffffffffffffffffffffffff1673ffffffffffffffffffffffffffffffffffffffff1673ffffffffffffffffffffffffffffffffffffffff1681526020016001820160009054906101000a900473ffffffffffffffffffffffffffffffffffffffff1673ffffffffffffffffffffffffffffffffffffffff1673ffffffffffffffffffffffffffffffffffffffff1681526020016001820160149054906101000a900460ff161515151581526020016001820160159054906101000a900460ff1615151515815260200160028201548152602001600382015481526020016004820154815260200160058201548152602001600682015481526020016007820160009054906101000a900473ffffffffffffffffffffffffffffffffffffffff1673ffffffffffffffffffffffffffffffffffffffff1673ffffffffffffffffffffffffffffffffffffffff16815250509050919050565b600260009054906101000a900473ffffffffffffffffffffffffffffffffffffffff1673ffffffffffffffffffffffffffffffffffffffff163373ffffffffffffffffffffffffffffffffffffffff161480610a72575060008054906101000a900473ffffffffffffffffffffffffffffffffffffffff1673ffffffffffffffffffffffffffffffffffffffff163373ffffffffffffffffffffffffffffffffffffffff16145b610ab1576040517f08c379a0000000000000000000000000000000000000000000000000000000008152600401610aa89061299e565b60405180910390fd5b83600360008273ffffffffffffffffffffffffffffffffffffffff1673ffffffffffffffffffffffffffffffffffffffff16815260200190815260200160002060010160149054906101000a900460ff16610b41576040517f08c379a0000000000000000000000000000000000000000000000000000000008152600401610b389061295e565b60405180910390fd5b600360008673ffffffffffffffffffffffffffffffffffffffff1673ffffffffffffffffffffffffffffffffffffffff16815260200190815260200160002060010160159054906101000a900460ff16610bd0576040517f08c379a0000000000000000000000000000000000000000000000000000000008152600401610bc7906128fe565b60405180910390fd5b60008411610c13576040517f08c379a0000000000000000000000000000000000000000000000000000000008152600401610c0a906128be565b60405180910390fd5b60008211610c56576040517f08c379a0000000000000000000000000000000000000000000000000000000008152600401610c4d906128de565b60405180910390fd5b83600360008773ffffffffffffffffffffffffffffffffffffffff1673ffffffffffffffffffffffffffffffffffffffff1681526020019081526020016000206003018190555082600360008773ffffffffffffffffffffffffffffffffffffffff1673ffffffffffffffffffffffffffffffffffffffff1681526020019081526020016000206004018190555042600360008773ffffffffffffffffffffffffffffffffffffffff1673ffffffffffffffffffffffffffffffffffffffff168152602001908152602001600020600501819055508142610d379190612a95565b600360008773ffffffffffffffffffffffffffffffffffffffff1673ffffffffffffffffffffffffffffffffffffffff1681526020019081526020016000206006018190555033600360008773ffffffffffffffffffffffffffffffffffffffff1673ffffffffffffffffffffffffffffffffffffffff16815260200190815260200160002060070160006101000a81548173ffffffffffffffffffffffffffffffffffffffff021916908373ffffffffffffffffffffffffffffffffffffffff1602179055507f764efc646c4a475777adaf94d5678eed6cf6f7996cab33b6d14f08fb90c677323386868542604051610e35959493929190612809565b60405180910390a15050505050565b600160009054906101000a900473ffffffffffffffffffffffffffffffffffffffff1673ffffffffffffffffffffffffffffffffffffffff163373ffffffffffffffffffffffffffffffffffffffff161480610eeb575060008054906101000a900473ffffffffffffffffffffffffffffffffffffffff1673ffffffffffffffffffffffffffffffffffffffff163373ffffffffffffffffffffffffffffffffffffffff16145b610f2a576040517f08c379a0000000000000000000000000000000000000000000000000000000008152600401610f21906129de565b60405180910390fd5b600360008373ffffffffffffffffffffffffffffffffffffffff1673ffffffffffffffffffffffffffffffffffffffff16815260200190815260200160002060010160149054906101000a900460ff16158061106557506000600360008473ffffffffffffffffffffffffffffffffffffffff1673ffffffffffffffffffffffffffffffffffffffff16815260200190815260200160002060010160009054906101000a900473ffffffffffffffffffffffffffffffffffffffff1673ffffffffffffffffffffffffffffffffffffffff166318160ddd6040518163ffffffff1660e01b815260040160206040518083038186803b15801561102b57600080fd5b505afa15801561103f573d6000803e3d6000fd5b505050506040513d601f19601f820116820180604052508101906110639190611f8f565b145b6110a4576040517f08c379a000000000000000000000000000000000000000000000000000000000815260040161109b9061293e565b60405180910390fd5b8173ffffffffffffffffffffffffffffffffffffffff168373ffffffffffffffffffffffffffffffffffffffff16148061115b575060008273ffffffffffffffffffffffffffffffffffffffff166318160ddd6040518163ffffffff1660e01b815260040160206040518083038186803b15801561112157600080fd5b505afa158015611135573d6000803e3d6000fd5b505050506040513d601f19601f820116820180604052508101906111599190611f8f565b145b61119a576040517f08c379a00000000000000000000000000000000000000000000000000000000081526004016111919061291e565b60405180910390fd5b81600460008573ffffffffffffffffffffffffffffffffffffffff1673ffffffffffffffffffffffffffffffffffffffff16815260200190815260200160002060006101000a81548173ffffffffffffffffffffffffffffffffffffffff021916908373ffffffffffffffffffffffffffffffffffffffff1602179055506040518061014001604052808473ffffffffffffffffffffffffffffffffffffffff1681526020018373ffffffffffffffffffffffffffffffffffffffff168152602001600115158152602001821515815260200142815260200160008152602001600081526020016000815260200160008152602001600073ffffffffffffffffffffffffffffffffffffffff16815250600360008473ffffffffffffffffffffffffffffffffffffffff1673ffffffffffffffffffffffffffffffffffffffff16815260200190815260200160002060008201518160000160006101000a81548173ffffffffffffffffffffffffffffffffffffffff021916908373ffffffffffffffffffffffffffffffffffffffff16021790555060208201518160010160006101000a81548173ffffffffffffffffffffffffffffffffffffffff021916908373ffffffffffffffffffffffffffffffffffffffff16021790555060408201518160010160146101000a81548160ff02191690831515021790555060608201518160010160156101000a81548160ff0219169083151502179055506080820151816002015560a0820151816003015560c0820151816004015560e0820151816005015561010082015181600601556101208201518160070160006101000a81548173ffffffffffffffffffffffffffffffffffffffff021916908373ffffffffffffffffffffffffffffffffffffffff1602179055509050506005829080600181540180825580915050600190039060005260206000200160009091909190916101000a81548173ffffffffffffffffffffffffffffffffffffffff021916908373ffffffffffffffffffffffffffffffffffffffff1602179055507f20ffaa7cdef32ec390faba0b6c0fdde9d04556adc454c357318ba6a33f77612433848484426040516114cf9594939291906126f5565b60405180910390a1505050565b600160009054906101000a900473ffffffffffffffffffffffffffffffffffffffff1673ffffffffffffffffffffffffffffffffffffffff163373ffffffffffffffffffffffffffffffffffffffff161480611583575060008054906101000a900473ffffffffffffffffffffffffffffffffffffffff1673ffffffffffffffffffffffffffffffffffffffff163373ffffffffffffffffffffffffffffffffffffffff16145b6115c2576040517f08c379a00000000000000000000000000000000000000000000000000000000081526004016115b9906129de565b60405180910390fd5b81600360008273ffffffffffffffffffffffffffffffffffffffff1673ffffffffffffffffffffffffffffffffffffffff16815260200190815260200160002060010160149054906101000a900460ff16611652576040517f08c379a00000000000000000000000000000000000000000000000000000000081526004016116499061295e565b60405180910390fd5b81600360008573ffffffffffffffffffffffffffffffffffffffff1673ffffffffffffffffffffffffffffffffffffffff16815260200190815260200160002060010160156101000a81548160ff02191690831515021790555042600360008573ffffffffffffffffffffffffffffffffffffffff1673ffffffffffffffffffffffffffffffffffffffff168152602001908152602001600020600201819055507ff56e3cdcfda01076824a09b404cc7d19307f02108fd00e25df2dd0670c2bf77433848442604051611728949392919061278d565b60405180910390a1505050565b606060058054806020026020016040519081016040528092919081815260200182805480156117b957602002820191906000526020600020905b8160009054906101000a900473ffffffffffffffffffffffffffffffffffffffff1673ffffffffffffffffffffffffffffffffffffffff168152602001906001019080831161176f575b5050505050905090565b600160009054906101000a900473ffffffffffffffffffffffffffffffffffffffff1681565b600260009054906101000a900473ffffffffffffffffffffffffffffffffffffffff1673ffffffffffffffffffffffffffffffffffffffff163373ffffffffffffffffffffffffffffffffffffffff161480611890575060008054906101000a900473ffffffffffffffffffffffffffffffffffffffff1673ffffffffffffffffffffffffffffffffffffffff163373ffffffffffffffffffffffffffffffffffffffff16145b6118cf576040517f08c379a00000000000000000000000000000000000000000000000000000000081526004016118c69061299e565b60405180910390fd5b80600260006101000a81548173ffffffffffffffffffffffffffffffffffffffff021916908373ffffffffffffffffffffffffffffffffffffffff1602179055507f14cd355c85a2e508b50dae93ed34d367acd01bbb6d73eadaa0ebf33683f7c007338242604051611943939291906127d2565b60405180910390a150565b600260009054906101000a900473ffffffffffffffffffffffffffffffffffffffff1681565b600160009054906101000a900473ffffffffffffffffffffffffffffffffffffffff1673ffffffffffffffffffffffffffffffffffffffff163373ffffffffffffffffffffffffffffffffffffffff161480611a1b575060008054906101000a900473ffffffffffffffffffffffffffffffffffffffff1673ffffffffffffffffffffffffffffffffffffffff163373ffffffffffffffffffffffffffffffffffffffff16145b611a5a576040517f08c379a0000000000000000000000000000000000000000000000000000000008152600401611a51906129de565b60405180910390fd5b80600160006101000a81548173ffffffffffffffffffffffffffffffffffffffff021916908373ffffffffffffffffffffffffffffffffffffffff1602179055507f33742cb416d6896cf707f66ff94306a754023f9cb56bd1011aa4e2a6339eb3b5338242604051611ace939291906127d2565b60405180910390a150565b60008054906101000a900473ffffffffffffffffffffffffffffffffffffffff1681565b60008054906101000a900473ffffffffffffffffffffffffffffffffffffffff1673ffffffffffffffffffffffffffffffffffffffff163373ffffffffffffffffffffffffffffffffffffffff1614611b8b576040517f08c379a0000000000000000000000000000000000000000000000000000000008152600401611b829061289e565b60405180910390fd5b806000806101000a81548173ffffffffffffffffffffffffffffffffffffffff021916908373ffffffffffffffffffffffffffffffffffffffff1602179055507f1bdded3f0710f518febc34900b2cd7eea256176e53be840fc3c01234f49697ee338242604051611bfe939291906127d2565b60405180910390a150565b604051806101400160405280600073ffffffffffffffffffffffffffffffffffffffff168152602001600073ffffffffffffffffffffffffffffffffffffffff1681526020016000151581526020016000151581526020016000815260200160008152602001600081526020016000815260200160008152602001600073ffffffffffffffffffffffffffffffffffffffff1681525090565b600081359050611cb181612b91565b92915050565b600081519050611cc681612b91565b92915050565b600081359050611cdb81612ba8565b92915050565b600081519050611cf081612ba8565b92915050565b60006101408284031215611d0957600080fd5b611d14610140612a1a565b90506000611d2484828501611cb7565b6000830152506020611d3884828501611cb7565b6020830152506040611d4c84828501611ce1565b6040830152506060611d6084828501611ce1565b6060830152506080611d7484828501611dfd565b60808301525060a0611d8884828501611dfd565b60a08301525060c0611d9c84828501611dfd565b60c08301525060e0611db084828501611dfd565b60e083015250610100611dc584828501611dfd565b61010083015250610120611ddb84828501611cb7565b6101208301525092915050565b600081359050611df781612bbf565b92915050565b600081519050611e0c81612bbf565b92915050565b600060208284031215611e2457600080fd5b6000611e3284828501611ca2565b91505092915050565b60008060408385031215611e4e57600080fd5b6000611e5c85828601611ca2565b9250506020611e6d85828601611ca2565b9150509250929050565b600080600060608486031215611e8c57600080fd5b6000611e9a86828701611ca2565b9350506020611eab86828701611ca2565b9250506040611ebc86828701611ccc565b9150509250925092565b60008060408385031215611ed957600080fd5b6000611ee785828601611ca2565b9250506020611ef885828601611ccc565b9150509250929050565b60008060008060808587031215611f1857600080fd5b6000611f2687828801611ca2565b9450506020611f3787828801611de8565b9350506040611f4887828801611de8565b9250506060611f5987828801611de8565b91505092959194509250565b60006101408284031215611f7857600080fd5b6000611f8684828501611cf6565b91505092915050565b600060208284031215611fa157600080fd5b6000611faf84828501611dfd565b91505092915050565b6000611fc48383611fd0565b60208301905092915050565b611fd981612aeb565b82525050565b611fe881612aeb565b82525050565b6000611ff982612a5b565b6120038185612a73565b935061200e83612a4b565b8060005b8381101561203f5781516120268882611fb8565b975061203183612a66565b925050600181019050612012565b5085935050505092915050565b61205581612afd565b82525050565b61206481612afd565b82525050565b6000612077604683612a84565b91507f41707841737365747352656769737472793a204d6972726f72656420746f6b6560008301527f6e7320696e20746865206e657720616e64206f6c64207265676973747279206460208301527f69666665722e00000000000000000000000000000000000000000000000000006040830152606082019050919050565b6000612103603c83612a84565b91507f41707841737365747352656769737472793a204f6e6c79206d6173746572206f60008301527f776e65722063616e2063616c6c20746869732066756e6374696f6e2e000000006020830152604082019050919050565b6000612169602383612a84565b91507f4d6972726f726564546f6b656e3a2070726963652068617320746f206265203e60008301527f20303b00000000000000000000000000000000000000000000000000000000006020830152604082019050919050565b60006121cf602483612a84565b91507f4d6972726f726564546f6b656e3a206578706972792068617320746f2062652060008301527f3e20303b000000000000000000000000000000000000000000000000000000006020830152604082019050919050565b6000612235603d83612a84565b91507f41707841737365747352656769737472793a2043616e2075706461746520707260008301527f69636520666f7220617070726f76656420617373657473206f6e6c792e0000006020830152604082019050919050565b600061229b604883612a84565b91507f41707841737365747352656769737472793a204d6972726f726564206173736560008301527f742070726f76696465642073686f756c64206861766520696e697469616c207360208301527f7570706c7920302e0000000000000000000000000000000000000000000000006040830152606082019050919050565b6000612327605883612a84565b91507f41707841737365747352656769737472793a204d6972726f726564206173736560008301527f7420616c72656164792065786973747320616e6420697320696e20636972637560208301527f6c6174696f6e2e2043616e2774206f76657277726974652e00000000000000006040830152606082019050919050565b60006123b3602883612a84565b91507f41707841737365747352656769737472793a20417373657420646f6573206e6f60008301527f742065786973742e0000000000000000000000000000000000000000000000006020830152604082019050919050565b6000612419603083612a84565b91507f41707841737365747352656769737472793a20496e76616c6964206f7269676960008301527f6e616c41737365742061646472657373000000000000000000000000000000006020830152604082019050919050565b600061247f604d83612a84565b91507f41707841737365747352656769737472793a204f6e6c79207072696365206d6160008301527f6e61676572206f72206d6173746572206f776e65722063616e2063616c6c207460208301527f6869732066756e6374696f6e2e000000000000000000000000000000000000006040830152606082019050919050565b600061250b602e83612a84565b91507f41707841737365747352656769737472793a20496e76616c696420617078526560008301527f67697374727920616464726573730000000000000000000000000000000000006020830152604082019050919050565b6000612571604d83612a84565b91507f41707841737365747352656769737472793a204f6e6c79206173736574206d6160008301527f6e61676572206f72206d6173746572206f776e65722063616e2063616c6c207460208301527f6869732066756e6374696f6e2e000000000000000000000000000000000000006040830152606082019050919050565b610140820160008201516126076000850182611fd0565b50602082015161261a6020850182611fd0565b50604082015161262d604085018261204c565b506060820151612640606085018261204c565b50608082015161265360808501826126bc565b5060a082015161266660a08501826126bc565b5060c082015161267960c08501826126bc565b5060e082015161268c60e08501826126bc565b506101008201516126a16101008501826126bc565b506101208201516126b6610120850182611fd0565b50505050565b6126c581612b29565b82525050565b6126d481612b29565b82525050565b60006020820190506126ef6000830184611fdf565b92915050565b600060a08201905061270a6000830188611fdf565b6127176020830187611fdf565b6127246040830186611fdf565b612731606083018561205b565b61273e60808301846126cb565b9695505050505050565b600060808201905061275d6000830187611fdf565b61276a6020830186611fdf565b6127776040830185611fdf565b61278460608301846126cb565b95945050505050565b60006080820190506127a26000830187611fdf565b6127af6020830186611fdf565b6127bc604083018561205b565b6127c960608301846126cb565b95945050505050565b60006060820190506127e76000830186611fdf565b6127f46020830185611fdf565b61280160408301846126cb565b949350505050565b600060a08201905061281e6000830188611fdf565b61282b6020830187611fdf565b61283860408301866126cb565b61284560608301856126cb565b61285260808301846126cb565b9695505050505050565b600060208201905081810360008301526128768184611fee565b905092915050565b600060208201905081810360008301526128978161206a565b9050919050565b600060208201905081810360008301526128b7816120f6565b9050919050565b600060208201905081810360008301526128d78161215c565b9050919050565b600060208201905081810360008301526128f7816121c2565b9050919050565b6000602082019050818103600083015261291781612228565b9050919050565b600060208201905081810360008301526129378161228e565b9050919050565b600060208201905081810360008301526129578161231a565b9050919050565b60006020820190508181036000830152612977816123a6565b9050919050565b600060208201905081810360008301526129978161240c565b9050919050565b600060208201905081810360008301526129b781612472565b9050919050565b600060208201905081810360008301526129d7816124fe565b9050919050565b600060208201905081810360008301526129f781612564565b9050919050565b600061014082019050612a1460008301846125f0565b92915050565b6000604051905081810181811067ffffffffffffffff82111715612a4157612a40612b62565b5b8060405250919050565b6000819050602082019050919050565b600081519050919050565b6000602082019050919050565b600082825260208201905092915050565b600082825260208201905092915050565b6000612aa082612b29565b9150612aab83612b29565b9250827fffffffffffffffffffffffffffffffffffffffffffffffffffffffffffffffff03821115612ae057612adf612b33565b5b828201905092915050565b6000612af682612b09565b9050919050565b60008115159050919050565b600073ffffffffffffffffffffffffffffffffffffffff82169050919050565b6000819050919050565b7f4e487b7100000000000000000000000000000000000000000000000000000000600052601160045260246000fd5b7f4e487b7100000000000000000000000000000000000000000000000000000000600052604160045260246000fd5b612b9a81612aeb565b8114612ba557600080fd5b50565b612bb181612afd565b8114612bbc57600080fd5b50565b612bc881612b29565b8114612bd357600080fd5b5056fea264697066735822122001f90f6a4c0362e0c4282946e95d832415c0e0f95182396457b3a224e789b8c264736f6c63430008000033",
  "linkReferences": {},
  "deployedLinkReferences": {}
}