{
  "_format": "hh-sol-artifact-1",
  "contractName": "PayoutManager",
  "sourceName": "contracts/managers/payout/PayoutManager.sol",
  "abi": [
    {
      "inputs": [
        {
          "internalType": "uint256",
          "name": "id",
          "type": "uint256"
        },
        {
          "internalType": "address",
          "name": "owner",
          "type": "address"
        },
        {
          "internalType": "string",
          "name": "ansName",
          "type": "string"
        },
        {
          "internalType": "uint256",
          "name": "ansId",
          "type": "uint256"
        },
        {
          "internalType": "address",
          "name": "assetAddress",
          "type": "address"
        },
        {
          "internalType": "string",
          "name": "info",
          "type": "string"
        }
      ],
      "stateMutability": "nonpayable",
      "type": "constructor"
    },
    {
      "anonymous": false,
      "inputs": [
        {
          "indexed": true,
          "internalType": "address",
          "name": "creator",
          "type": "address"
        },
        {
          "indexed": false,
          "internalType": "address",
          "name": "asset",
          "type": "address"
        },
        {
          "indexed": false,
          "internalType": "uint256",
          "name": "payoutId",
          "type": "uint256"
        },
        {
          "indexed": false,
          "internalType": "uint256",
          "name": "amount",
          "type": "uint256"
        },
        {
          "indexed": false,
          "internalType": "uint256",
          "name": "timestamp",
          "type": "uint256"
        }
      ],
      "name": "CreatePayout",
      "type": "event"
    },
    {
      "anonymous": false,
      "inputs": [
        {
          "indexed": true,
          "internalType": "address",
          "name": "investor",
          "type": "address"
        },
        {
          "indexed": false,
          "internalType": "address",
          "name": "asset",
          "type": "address"
        },
        {
          "indexed": false,
          "internalType": "uint256",
          "name": "payoutId",
          "type": "uint256"
        },
        {
          "indexed": false,
          "internalType": "uint256",
          "name": "amount",
          "type": "uint256"
        },
        {
          "indexed": false,
          "internalType": "uint256",
          "name": "timestamp",
          "type": "uint256"
        }
      ],
      "name": "Release",
      "type": "event"
    },
    {
      "anonymous": false,
      "inputs": [
        {
          "indexed": false,
          "internalType": "string",
          "name": "info",
          "type": "string"
        },
        {
          "indexed": false,
          "internalType": "address",
          "name": "setter",
          "type": "address"
        },
        {
          "indexed": false,
          "internalType": "uint256",
          "name": "timestamp",
          "type": "uint256"
        }
      ],
      "name": "SetInfo",
      "type": "event"
    },
    {
      "inputs": [
        {
          "internalType": "string",
          "name": "description",
          "type": "string"
        },
        {
          "internalType": "uint256",
          "name": "amount",
          "type": "uint256"
        },
        {
          "internalType": "address[]",
          "name": "ignored",
          "type": "address[]"
        }
      ],
      "name": "createPayout",
      "outputs": [],
      "stateMutability": "nonpayable",
      "type": "function"
    },
    {
      "inputs": [],
      "name": "getInfoHistory",
      "outputs": [
        {
          "components": [
            {
              "internalType": "string",
              "name": "info",
              "type": "string"
            },
            {
              "internalType": "uint256",
              "name": "timestamp",
              "type": "uint256"
            }
          ],
          "internalType": "struct Structs.InfoEntry[]",
          "name": "",
          "type": "tuple[]"
        }
      ],
      "stateMutability": "view",
      "type": "function"
    },
    {
      "inputs": [],
      "name": "getPayouts",
      "outputs": [
        {
          "components": [
            {
              "internalType": "uint256",
              "name": "snapshotId",
              "type": "uint256"
            },
            {
              "internalType": "string",
              "name": "description",
              "type": "string"
            },
            {
              "internalType": "uint256",
              "name": "amount",
              "type": "uint256"
            },
            {
              "internalType": "uint256",
              "name": "totalReleased",
              "type": "uint256"
            },
            {
              "internalType": "uint256",
              "name": "totalClaimsCount",
              "type": "uint256"
            },
            {
              "internalType": "uint256",
              "name": "ignoredAmount",
              "type": "uint256"
            },
            {
              "internalType": "address[]",
              "name": "ignoredWallets",
              "type": "address[]"
            }
          ],
          "internalType": "struct Structs.Payout[]",
          "name": "",
          "type": "tuple[]"
        }
      ],
      "stateMutability": "view",
      "type": "function"
    },
    {
      "inputs": [],
      "name": "getState",
      "outputs": [
        {
          "components": [
            {
              "internalType": "uint256",
              "name": "id",
              "type": "uint256"
            },
            {
              "internalType": "address",
              "name": "contractAddress",
              "type": "address"
            },
            {
              "internalType": "string",
              "name": "ansName",
              "type": "string"
            },
            {
              "internalType": "uint256",
              "name": "ansId",
              "type": "uint256"
            },
            {
              "internalType": "address",
              "name": "createdBy",
              "type": "address"
            },
            {
              "internalType": "address",
              "name": "owner",
              "type": "address"
            },
            {
              "internalType": "address",
              "name": "asset",
              "type": "address"
            },
            {
              "internalType": "address",
              "name": "assetFactory",
              "type": "address"
            },
            {
              "internalType": "uint256",
              "name": "totalPayoutsCreated",
              "type": "uint256"
            },
            {
              "internalType": "uint256",
              "name": "totalPayoutsAmount",
              "type": "uint256"
            },
            {
              "internalType": "string",
              "name": "info",
              "type": "string"
            }
          ],
          "internalType": "struct Structs.PayoutManagerState",
          "name": "",
          "type": "tuple"
        }
      ],
      "stateMutability": "view",
      "type": "function"
    },
    {
      "inputs": [
        {
          "internalType": "uint256",
          "name": "",
          "type": "uint256"
        },
        {
          "internalType": "address",
          "name": "",
          "type": "address"
        }
      ],
      "name": "ignoredWalletsMapPerPayout",
      "outputs": [
        {
          "internalType": "bool",
          "name": "",
          "type": "bool"
        }
      ],
      "stateMutability": "view",
      "type": "function"
    },
    {
      "inputs": [
        {
          "internalType": "address",
          "name": "account",
          "type": "address"
        },
        {
          "internalType": "uint256",
          "name": "snapshotId",
          "type": "uint256"
        }
      ],
      "name": "release",
      "outputs": [],
      "stateMutability": "nonpayable",
      "type": "function"
    },
    {
      "inputs": [
        {
          "internalType": "uint256",
          "name": "",
          "type": "uint256"
        },
        {
          "internalType": "address",
          "name": "",
          "type": "address"
        }
      ],
      "name": "releaseMapPerPayout",
      "outputs": [
        {
          "internalType": "uint256",
          "name": "",
          "type": "uint256"
        }
      ],
      "stateMutability": "view",
      "type": "function"
    },
    {
      "inputs": [
        {
          "internalType": "address",
          "name": "account",
          "type": "address"
        },
        {
          "internalType": "uint256",
          "name": "snapshotId",
          "type": "uint256"
        }
      ],
      "name": "released",
      "outputs": [
        {
          "internalType": "uint256",
          "name": "",
          "type": "uint256"
        }
      ],
      "stateMutability": "view",
      "type": "function"
    },
    {
      "inputs": [
        {
          "internalType": "string",
          "name": "info",
          "type": "string"
        }
      ],
      "name": "setInfo",
      "outputs": [],
      "stateMutability": "nonpayable",
      "type": "function"
    },
    {
      "inputs": [
        {
          "internalType": "address",
          "name": "account",
          "type": "address"
        },
        {
          "internalType": "uint256",
          "name": "snapshotId",
          "type": "uint256"
        }
      ],
      "name": "shares",
      "outputs": [
        {
          "internalType": "uint256",
          "name": "",
          "type": "uint256"
        }
      ],
      "stateMutability": "view",
      "type": "function"
    },
    {
      "inputs": [
        {
          "internalType": "uint256",
          "name": "",
          "type": "uint256"
        }
      ],
      "name": "snapshotToPayout",
      "outputs": [
        {
          "internalType": "uint256",
          "name": "",
          "type": "uint256"
        }
      ],
      "stateMutability": "view",
      "type": "function"
    },
    {
      "inputs": [
        {
          "internalType": "uint256",
          "name": "snapshotId",
          "type": "uint256"
        }
      ],
      "name": "totalReleased",
      "outputs": [
        {
          "internalType": "uint256",
          "name": "",
          "type": "uint256"
        }
      ],
      "stateMutability": "view",
      "type": "function"
    }
  ],
  "bytecode": "0x60806040523480156200001157600080fd5b5060405162003aee38038062003aee8339818101604052810190620000379190620005b8565b600073ffffffffffffffffffffffffffffffffffffffff168573ffffffffffffffffffffffffffffffffffffffff161415620000aa576040517f08c379a0000000000000000000000000000000000000000000000000000000008152600401620000a1906200074c565b60405180910390fd5b600073ffffffffffffffffffffffffffffffffffffffff168273ffffffffffffffffffffffffffffffffffffffff1614156200011d576040517f08c379a000000000000000000000000000000000000000000000000000000000815260040162000114906200072a565b60405180910390fd5b60008273ffffffffffffffffffffffffffffffffffffffff16639a4e8ce86040518163ffffffff1660e01b815260040160206040518083038186803b1580156200016657600080fd5b505afa1580156200017b573d6000803e3d6000fd5b505050506040513d601f19601f82011682018060405250810190620001a191906200058c565b90506040518061016001604052808881526020013073ffffffffffffffffffffffffffffffffffffffff1681526020018681526020018581526020013373ffffffffffffffffffffffffffffffffffffffff1681526020018773ffffffffffffffffffffffffffffffffffffffff1681526020018473ffffffffffffffffffffffffffffffffffffffff1681526020018273ffffffffffffffffffffffffffffffffffffffff168152602001600081526020016000815260200183815250600080820151816000015560208201518160010160006101000a81548173ffffffffffffffffffffffffffffffffffffffff021916908373ffffffffffffffffffffffffffffffffffffffff1602179055506040820151816002019080519060200190620002cf9291906200043c565b506060820151816003015560808201518160040160006101000a81548173ffffffffffffffffffffffffffffffffffffffff021916908373ffffffffffffffffffffffffffffffffffffffff16021790555060a08201518160050160006101000a81548173ffffffffffffffffffffffffffffffffffffffff021916908373ffffffffffffffffffffffffffffffffffffffff16021790555060c08201518160060160006101000a81548173ffffffffffffffffffffffffffffffffffffffff021916908373ffffffffffffffffffffffffffffffffffffffff16021790555060e08201518160070160006101000a81548173ffffffffffffffffffffffffffffffffffffffff021916908373ffffffffffffffffffffffffffffffffffffffff1602179055506101008201518160080155610120820151816009015561014082015181600a0190805190602001906200042b9291906200043c565b509050505050505050505062000922565b8280546200044a906200085a565b90600052602060002090601f0160209004810192826200046e5760008555620004ba565b82601f106200048957805160ff1916838001178555620004ba565b82800160010185558215620004ba579182015b82811115620004b95782518255916020019190600101906200049c565b5b509050620004c99190620004cd565b5090565b5b80821115620004e8576000816000905550600101620004ce565b5090565b600062000503620004fd84620007a2565b6200076e565b9050828152602081018484840111156200051c57600080fd5b6200052984828562000824565b509392505050565b6000815190506200054281620008ee565b92915050565b600082601f8301126200055a57600080fd5b81516200056c848260208601620004ec565b91505092915050565b600081519050620005868162000908565b92915050565b6000602082840312156200059f57600080fd5b6000620005af8482850162000531565b91505092915050565b60008060008060008060c08789031215620005d257600080fd5b6000620005e289828a0162000575565b9650506020620005f589828a0162000531565b955050604087015167ffffffffffffffff8111156200061357600080fd5b6200062189828a0162000548565b94505060606200063489828a0162000575565b93505060806200064789828a0162000531565b92505060a087015167ffffffffffffffff8111156200066557600080fd5b6200067389828a0162000548565b9150509295509295509295565b60006200068f602483620007d5565b91507f5061796f75744d616e616765723a20696e76616c69642061737365742061646460008301527f72657373000000000000000000000000000000000000000000000000000000006020830152604082019050919050565b6000620006f7601c83620007d5565b91507f5061796f75744d616e616765723a20696e76616c6964206f776e6572000000006000830152602082019050919050565b60006020820190508181036000830152620007458162000680565b9050919050565b600060208201905081810360008301526200076781620006e8565b9050919050565b6000604051905081810181811067ffffffffffffffff82111715620007985762000797620008bf565b5b8060405250919050565b600067ffffffffffffffff821115620007c057620007bf620008bf565b5b601f19601f8301169050602081019050919050565b600082825260208201905092915050565b6000620007f382620007fa565b9050919050565b600073ffffffffffffffffffffffffffffffffffffffff82169050919050565b6000819050919050565b60005b838110156200084457808201518184015260208101905062000827565b8381111562000854576000848401525b50505050565b600060028204905060018216806200087357607f821691505b602082108114156200088a576200088962000890565b5b50919050565b7f4e487b7100000000000000000000000000000000000000000000000000000000600052602260045260246000fd5b7f4e487b7100000000000000000000000000000000000000000000000000000000600052604160045260246000fd5b620008f981620007e6565b81146200090557600080fd5b50565b62000913816200081a565b81146200091f57600080fd5b50565b6131bc80620009326000396000f3fe608060405234801561001057600080fd5b50600436106100b45760003560e01c806398e162551161007157806398e162551461018d578063ae0b8fd5146101ab578063c21211a3146101db578063cb0ae43d1461020b578063cfe8307014610227578063d430119b14610257576100b4565b80630357371d146100b95780631865c57d146100d5578063259ddefc146100f357806342985510146101235780636bf90c8414610153578063937f6e7714610171575b600080fd5b6100d360048036038101906100ce91906120cd565b610287565b005b6100dd610610565b6040516100ea9190612ca2565b60405180910390f35b61010d600480360381019061010891906120cd565b610925565b60405161011a9190612cc4565b60405180910390f35b61013d600480360381019061013891906122c6565b610939565b60405161014a9190612b27565b60405180910390f35b61015b610968565b6040516101689190612b05565b60405180910390f35b61018b60048036038101906101869190612132565b610b19565b005b610195610c37565b6040516101a29190612ae3565b60405180910390f35b6101c560048036038101906101c091906122c6565b610d32565b6040516101d29190612cc4565b60405180910390f35b6101f560048036038101906101f09190612274565b610d57565b6040516102029190612cc4565b60405180910390f35b61022560048036038101906102209190612173565b610d6f565b005b610241600480360381019061023c91906120cd565b611128565b60405161024e9190612cc4565b60405180910390f35b610271600480360381019061026c9190612274565b611196565b60405161027e9190612cc4565b60405180910390f35b6000600f6000838152602001908152602001600020549050600d600082815260200190815260200160002060008473ffffffffffffffffffffffffffffffffffffffff1673ffffffffffffffffffffffffffffffffffffffff16815260200190815260200160002060009054906101000a900460ff161561033d576040517f08c379a000000000000000000000000000000000000000000000000000000000815260040161033490612ba2565b60405180910390fd5b6000600e600083815260200190815260200160002060008573ffffffffffffffffffffffffffffffffffffffff1673ffffffffffffffffffffffffffffffffffffffff16815260200190815260200160002054146103d0576040517f08c379a00000000000000000000000000000000000000000000000000000000081526004016103c790612be2565b60405180910390fd5b6000600c828154811061040c577f4e487b7100000000000000000000000000000000000000000000000000000000600052603260045260246000fd5b90600052602060002090600702019050600061042885856111fe565b90506000811161046d576040517f08c379a000000000000000000000000000000000000000000000000000000000815260040161046490612c22565b60405180910390fd5b6000826005015461047d866112b7565b6104879190612f3b565b905060008183856002015461049c9190612ee1565b6104a69190612eb0565b905060008114156104ec576040517f08c379a00000000000000000000000000000000000000000000000000000000081526004016104e390612c82565b60405180910390fd5b80600e600087815260200190815260200160002060008973ffffffffffffffffffffffffffffffffffffffff1673ffffffffffffffffffffffffffffffffffffffff16815260200190815260200160002081905550808460030160008282546105559190612e5a565b9250508190555061058e878261056961136d565b73ffffffffffffffffffffffffffffffffffffffff166114029092919063ffffffff16565b8673ffffffffffffffffffffffffffffffffffffffff167f93fede667057c1bd18fa0a628a650c1fc54bd3bd215fbdecbfca4b85a57c0f63600060060160009054906101000a900473ffffffffffffffffffffffffffffffffffffffff168784426040516105ff9493929190612a9e565b60405180910390a250505050505050565b61061861198d565b600060405180610160016040529081600082015481526020016001820160009054906101000a900473ffffffffffffffffffffffffffffffffffffffff1673ffffffffffffffffffffffffffffffffffffffff1673ffffffffffffffffffffffffffffffffffffffff16815260200160028201805461069690612ff9565b80601f01602080910402602001604051908101604052809291908181526020018280546106c290612ff9565b801561070f5780601f106106e45761010080835404028352916020019161070f565b820191906000526020600020905b8154815290600101906020018083116106f257829003601f168201915b50505050508152602001600382015481526020016004820160009054906101000a900473ffffffffffffffffffffffffffffffffffffffff1673ffffffffffffffffffffffffffffffffffffffff1673ffffffffffffffffffffffffffffffffffffffff1681526020016005820160009054906101000a900473ffffffffffffffffffffffffffffffffffffffff1673ffffffffffffffffffffffffffffffffffffffff1673ffffffffffffffffffffffffffffffffffffffff1681526020016006820160009054906101000a900473ffffffffffffffffffffffffffffffffffffffff1673ffffffffffffffffffffffffffffffffffffffff1673ffffffffffffffffffffffffffffffffffffffff1681526020016007820160009054906101000a900473ffffffffffffffffffffffffffffffffffffffff1673ffffffffffffffffffffffffffffffffffffffff1673ffffffffffffffffffffffffffffffffffffffff1681526020016008820154815260200160098201548152602001600a8201805461089e90612ff9565b80601f01602080910402602001604051908101604052809291908181526020018280546108ca90612ff9565b80156109175780601f106108ec57610100808354040283529160200191610917565b820191906000526020600020905b8154815290600101906020018083116108fa57829003601f168201915b505050505081525050905090565b600061093183836111fe565b905092915050565b600d6020528160005260406000206020528060005260406000206000915091509054906101000a900460ff1681565b6060600c805480602002602001604051908101604052809291908181526020016000905b82821015610b1057838290600052602060002090600702016040518060e0016040529081600082015481526020016001820180546109c990612ff9565b80601f01602080910402602001604051908101604052809291908181526020018280546109f590612ff9565b8015610a425780601f10610a1757610100808354040283529160200191610a42565b820191906000526020600020905b815481529060010190602001808311610a2557829003601f168201915b505050505081526020016002820154815260200160038201548152602001600482015481526020016005820154815260200160068201805480602002602001604051908101604052809291908181526020018280548015610af857602002820191906000526020600020905b8160009054906101000a900473ffffffffffffffffffffffffffffffffffffffff1673ffffffffffffffffffffffffffffffffffffffff1681526020019060010190808311610aae575b5050505050815250508152602001906001019061098c565b50505050905090565b600060050160009054906101000a900473ffffffffffffffffffffffffffffffffffffffff1673ffffffffffffffffffffffffffffffffffffffff163373ffffffffffffffffffffffffffffffffffffffff1614610b7657600080fd5b600b60405180604001604052808381526020014281525090806001815401808255809150506001900390600052602060002090600202016000909190919091506000820151816000019080519060200190610bd2929190611a55565b50602082015181600101555050806000600a019080519060200190610bf8929190611a55565b507f39b28594242c42fce47a0a6e63bac12adbd07fbb35580f5a54b236858101d58a813342604051610c2c93929190612b64565b60405180910390a150565b6060600b805480602002602001604051908101604052809291908181526020016000905b82821015610d295783829060005260206000209060020201604051806040016040529081600082018054610c8e90612ff9565b80601f0160208091040260200160405190810160405280929190818152602001828054610cba90612ff9565b8015610d075780601f10610cdc57610100808354040283529160200191610d07565b820191906000526020600020905b815481529060010190602001808311610cea57829003601f168201915b5050505050815260200160018201548152505081526020019060010190610c5b565b50505050905090565b600e602052816000526040600020602052806000526040600020600091509150505481565b600f6020528060005260406000206000915090505481565b600060050160009054906101000a900473ffffffffffffffffffffffffffffffffffffffff1673ffffffffffffffffffffffffffffffffffffffff163373ffffffffffffffffffffffffffffffffffffffff1614610dcc57600080fd5b60008211610e0f576040517f08c379a0000000000000000000000000000000000000000000000000000000008152600401610e0690612c02565b60405180910390fd5b610e1761136d565b73ffffffffffffffffffffffffffffffffffffffff166323b872dd3330856040518463ffffffff1660e01b8152600401610e5393929190612a3e565b602060405180830381600087803b158015610e6d57600080fd5b505af1158015610e81573d6000803e3d6000fd5b505050506040513d601f19601f82011682018060405250810190610ea59190612109565b506000610eb0611488565b73ffffffffffffffffffffffffffffffffffffffff16639711715a6040518163ffffffff1660e01b8152600401602060405180830381600087803b158015610ef757600080fd5b505af1158015610f0b573d6000803e3d6000fd5b505050506040513d601f19601f82011682018060405250810190610f2f919061229d565b90506000600c8054905090506000600c600181600181540180825580915050039060005260206000209060070201905082816000018190555085816001019080519060200190610f80929190611a55565b5084816002018190555083816006019080519060200190610fa2929190611adb565b5080600601600060060160009054906101000a900473ffffffffffffffffffffffffffffffffffffffff169080600181540180825580915050600190039060005260206000200160009091909190916101000a81548173ffffffffffffffffffffffffffffffffffffffff021916908373ffffffffffffffffffffffffffffffffffffffff160217905550600061103983866114b4565b90508082600501819055506001600c805490506110569190612f3b565b600f6000868152602001908152602001600020819055506001600060080160008282546110839190612e5a565b92505081905550856000600901600082825461109f9190612e5a565b925050819055503373ffffffffffffffffffffffffffffffffffffffff167fd1522d90cb856256d5eb1daaf93092794362d607ebef69f9f6068f997dc7bf99600060060160009054906101000a900473ffffffffffffffffffffffffffffffffffffffff168589426040516111179493929190612a9e565b60405180910390a250505050505050565b6000600e6000600f600085815260200190815260200160002054815260200190815260200160002060008473ffffffffffffffffffffffffffffffffffffffff1673ffffffffffffffffffffffffffffffffffffffff16815260200190815260200160002054905092915050565b6000600c600f600084815260200190815260200160002054815481106111e5577f4e487b7100000000000000000000000000000000000000000000000000000000600052603260045260246000fd5b9060005260206000209060070201600301549050919050565b60008060060160009054906101000a900473ffffffffffffffffffffffffffffffffffffffff1673ffffffffffffffffffffffffffffffffffffffff16634ee2cd7e84846040518363ffffffff1660e01b815260040161125f929190612a75565b60206040518083038186803b15801561127757600080fd5b505afa15801561128b573d6000803e3d6000fd5b505050506040513d601f19601f820116820180604052508101906112af919061229d565b905092915050565b60008060060160009054906101000a900473ffffffffffffffffffffffffffffffffffffffff1673ffffffffffffffffffffffffffffffffffffffff1663981b24d0836040518263ffffffff1660e01b81526004016113169190612cc4565b60206040518083038186803b15801561132e57600080fd5b505afa158015611342573d6000803e3d6000fd5b505050506040513d601f19601f82011682018060405250810190611366919061229d565b9050919050565b600061137761168a565b73ffffffffffffffffffffffffffffffffffffffff16631865c57d6040518163ffffffff1660e01b815260040160006040518083038186803b1580156113bc57600080fd5b505afa1580156113d0573d6000803e3d6000fd5b505050506040513d6000823e3d601f19601f820116820180604052508101906113f99190612233565b60a00151905090565b6114838363a9059cbb60e01b8484604051602401611421929190612a75565b604051602081830303815290604052907bffffffffffffffffffffffffffffffffffffffffffffffffffffffff19166020820180517bffffffffffffffffffffffffffffffffffffffffffffffffffffffff8381831617835250505050611720565b505050565b60008060060160009054906101000a900473ffffffffffffffffffffffffffffffffffffffff16905090565b60008060008060060160009054906101000a900473ffffffffffffffffffffffffffffffffffffffff16905060005b845181101561167e578173ffffffffffffffffffffffffffffffffffffffff166370a08231868381518110611541577f4e487b7100000000000000000000000000000000000000000000000000000000600052603260045260246000fd5b60200260200101516040518263ffffffff1660e01b81526004016115659190612a23565b60206040518083038186803b15801561157d57600080fd5b505afa158015611591573d6000803e3d6000fd5b505050506040513d601f19601f820116820180604052508101906115b5919061229d565b836115c09190612e5a565b92506001600d60008881526020019081526020016000206000878481518110611612577f4e487b7100000000000000000000000000000000000000000000000000000000600052603260045260246000fd5b602002602001015173ffffffffffffffffffffffffffffffffffffffff1673ffffffffffffffffffffffffffffffffffffffff16815260200190815260200160002060006101000a81548160ff02191690831515021790555080806116769061302b565b9150506114e3565b50819250505092915050565b6000611694611488565b73ffffffffffffffffffffffffffffffffffffffff16631865c57d6040518163ffffffff1660e01b815260040160006040518083038186803b1580156116d957600080fd5b505afa1580156116ed573d6000803e3d6000fd5b505050506040513d6000823e3d601f19601f8201168201806040525081019061171691906121f2565b6101400151905090565b6000611782826040518060400160405280602081526020017f5361666545524332303a206c6f772d6c6576656c2063616c6c206661696c65648152508573ffffffffffffffffffffffffffffffffffffffff166117e79092919063ffffffff16565b90506000815111156117e257808060200190518101906117a29190612109565b6117e1576040517f08c379a00000000000000000000000000000000000000000000000000000000081526004016117d890612c62565b60405180910390fd5b5b505050565b60606117f684846000856117ff565b90509392505050565b606082471015611844576040517f08c379a000000000000000000000000000000000000000000000000000000000815260040161183b90612bc2565b60405180910390fd5b61184d85611913565b61188c576040517f08c379a000000000000000000000000000000000000000000000000000000000815260040161188390612c42565b60405180910390fd5b6000808673ffffffffffffffffffffffffffffffffffffffff1685876040516118b59190612a0c565b60006040518083038185875af1925050503d80600081146118f2576040519150601f19603f3d011682016040523d82523d6000602084013e6118f7565b606091505b5091509150611907828286611926565b92505050949350505050565b600080823b905060008111915050919050565b6060831561193657829050611986565b6000835111156119495782518084602001fd5b816040517f08c379a000000000000000000000000000000000000000000000000000000000815260040161197d9190612b42565b60405180910390fd5b9392505050565b60405180610160016040528060008152602001600073ffffffffffffffffffffffffffffffffffffffff1681526020016060815260200160008152602001600073ffffffffffffffffffffffffffffffffffffffff168152602001600073ffffffffffffffffffffffffffffffffffffffff168152602001600073ffffffffffffffffffffffffffffffffffffffff168152602001600073ffffffffffffffffffffffffffffffffffffffff1681526020016000815260200160008152602001606081525090565b828054611a6190612ff9565b90600052602060002090601f016020900481019282611a835760008555611aca565b82601f10611a9c57805160ff1916838001178555611aca565b82800160010185558215611aca579182015b82811115611ac9578251825591602001919060010190611aae565b5b509050611ad79190611b65565b5090565b828054828255906000526020600020908101928215611b54579160200282015b82811115611b535782518260006101000a81548173ffffffffffffffffffffffffffffffffffffffff021916908373ffffffffffffffffffffffffffffffffffffffff16021790555091602001919060010190611afb565b5b509050611b619190611b65565b5090565b5b80821115611b7e576000816000905550600101611b66565b5090565b6000611b95611b9084612d10565b612cdf565b90508083825260208201905082856020860282011115611bb457600080fd5b60005b85811015611be45781611bca8882611c6a565b845260208401935060208301925050600181019050611bb7565b5050509392505050565b6000611c01611bfc84612d3c565b612cdf565b905082815260208101848484011115611c1957600080fd5b611c24848285612fb7565b509392505050565b6000611c3f611c3a84612d3c565b612cdf565b905082815260208101848484011115611c5757600080fd5b611c62848285612fc6565b509392505050565b600081359050611c7981613141565b92915050565b600081519050611c8e81613141565b92915050565b600082601f830112611ca557600080fd5b8135611cb5848260208601611b82565b91505092915050565b600081519050611ccd81613158565b92915050565b600082601f830112611ce457600080fd5b8135611cf4848260208601611bee565b91505092915050565b600082601f830112611d0e57600080fd5b8151611d1e848260208601611c2c565b91505092915050565b60006103008284031215611d3a57600080fd5b611d45610300612cdf565b90506000611d55848285016120b8565b6000830152506020611d6984828501611c7f565b602083015250604082015167ffffffffffffffff811115611d8957600080fd5b611d9584828501611cfd565b6040830152506060611da9848285016120b8565b6060830152506080611dbd84828501611c7f565b60808301525060a0611dd184828501611c7f565b60a08301525060c0611de5848285016120b8565b60c08301525060e0611df984828501611cbe565b60e083015250610100611e0e84828501611cbe565b61010083015250610120611e2484828501611cbe565b61012083015250610140611e3a84828501611c7f565b61014083015250610160611e5084828501611c7f565b6101608301525061018082015167ffffffffffffffff811115611e7257600080fd5b611e7e84828501611cfd565b610180830152506101a082015167ffffffffffffffff811115611ea057600080fd5b611eac84828501611cfd565b6101a0830152506101c082015167ffffffffffffffff811115611ece57600080fd5b611eda84828501611cfd565b6101c0830152506101e0611ef0848285016120b8565b6101e083015250610200611f06848285016120b8565b61020083015250610220611f1c848285016120b8565b61022083015250610240611f32848285016120b8565b61024083015250610260611f48848285016120b8565b61026083015250610280611f5e84828501611cbe565b610280830152506102a0611f74848285016120b8565b6102a0830152506102c0611f8a848285016120b8565b6102c0830152506102e0611fa0848285016120b8565b6102e08301525092915050565b60006101008284031215611fc057600080fd5b611fcb610100612cdf565b90506000611fdb848285016120b8565b6000830152506020611fef84828501611c7f565b602083015250604082015167ffffffffffffffff81111561200f57600080fd5b61201b84828501611cfd565b604083015250606061202f84828501611c7f565b606083015250608061204384828501611c7f565b60808301525060a061205784828501611c7f565b60a08301525060c061206b84828501611c7f565b60c08301525060e082015167ffffffffffffffff81111561208b57600080fd5b61209784828501611cfd565b60e08301525092915050565b6000813590506120b28161316f565b92915050565b6000815190506120c78161316f565b92915050565b600080604083850312156120e057600080fd5b60006120ee85828601611c6a565b92505060206120ff858286016120a3565b9150509250929050565b60006020828403121561211b57600080fd5b600061212984828501611cbe565b91505092915050565b60006020828403121561214457600080fd5b600082013567ffffffffffffffff81111561215e57600080fd5b61216a84828501611cd3565b91505092915050565b60008060006060848603121561218857600080fd5b600084013567ffffffffffffffff8111156121a257600080fd5b6121ae86828701611cd3565b93505060206121bf868287016120a3565b925050604084013567ffffffffffffffff8111156121dc57600080fd5b6121e886828701611c94565b9150509250925092565b60006020828403121561220457600080fd5b600082015167ffffffffffffffff81111561221e57600080fd5b61222a84828501611d27565b91505092915050565b60006020828403121561224557600080fd5b600082015167ffffffffffffffff81111561225f57600080fd5b61226b84828501611fad565b91505092915050565b60006020828403121561228657600080fd5b6000612294848285016120a3565b91505092915050565b6000602082840312156122af57600080fd5b60006122bd848285016120b8565b91505092915050565b600080604083850312156122d957600080fd5b60006122e7858286016120a3565b92505060206122f885828601611c6a565b9150509250929050565b600061230e8383612342565b60208301905092915050565b60006123268383612818565b905092915050565b600061233a838361294b565b905092915050565b61234b81612f6f565b82525050565b61235a81612f6f565b82525050565b600061236b82612d9c565b6123758185612dfa565b935061238083612d6c565b8060005b838110156123b15781516123988882612302565b97506123a383612dd3565b925050600181019050612384565b5085935050505092915050565b60006123c982612da7565b6123d38185612e0b565b9350836020820285016123e585612d7c565b8060005b858110156124215784840389528151612402858261231a565b945061240d83612de0565b925060208a019950506001810190506123e9565b50829750879550505050505092915050565b600061243e82612db2565b6124488185612e1c565b93508360208202850161245a85612d8c565b8060005b858110156124965784840389528151612477858261232e565b945061248283612ded565b925060208a0199505060018101905061245e565b50829750879550505050505092915050565b6124b181612f81565b82525050565b60006124c282612dbd565b6124cc8185612e2d565b93506124dc818560208601612fc6565b80840191505092915050565b60006124f382612dc8565b6124fd8185612e38565b935061250d818560208601612fc6565b61251681613130565b840191505092915050565b600061252c82612dc8565b6125368185612e49565b9350612546818560208601612fc6565b61254f81613130565b840191505092915050565b6000612567602583612e49565b91507f5061796f75744d616e616765723a204163636f756e7420686173206e6f20736860008301527f617265732e0000000000000000000000000000000000000000000000000000006020830152604082019050919050565b60006125cd602683612e49565b91507f416464726573733a20696e73756666696369656e742062616c616e636520666f60008301527f722063616c6c00000000000000000000000000000000000000000000000000006020830152604082019050919050565b6000612633603183612e49565b91507f5061796f75744d616e616765723a204163636f756e742068617320616c72656160008301527f64792072656c65617365642066756e64730000000000000000000000000000006020830152604082019050919050565b6000612699602d83612e49565b91507f5061796f75744d616e616765723a20696e76616c6964207061796f757420616d60008301527f6f756e742070726f7669646564000000000000000000000000000000000000006020830152604082019050919050565b60006126ff601683612e49565b91507f4163636f756e7420686173206e6f207368617265732e000000000000000000006000830152602082019050919050565b600061273f601d83612e49565b91507f416464726573733a2063616c6c20746f206e6f6e2d636f6e74726163740000006000830152602082019050919050565b600061277f602a83612e49565b91507f5361666545524332303a204552433230206f7065726174696f6e20646964206e60008301527f6f742073756363656564000000000000000000000000000000000000000000006020830152604082019050919050565b60006127e5601b83612e49565b91507f4163636f756e74206973206e6f7420647565207061796d656e742e00000000006000830152602082019050919050565b6000604083016000830151848203600086015261283582826124e8565b915050602083015161284a60208601826129ee565b508091505092915050565b60006101608301600083015161286e60008601826129ee565b5060208301516128816020860182612342565b506040830151848203604086015261289982826124e8565b91505060608301516128ae60608601826129ee565b5060808301516128c16080860182612342565b5060a08301516128d460a0860182612342565b5060c08301516128e760c0860182612342565b5060e08301516128fa60e0860182612342565b5061010083015161290f6101008601826129ee565b506101208301516129246101208601826129ee565b5061014083015184820361014086015261293e82826124e8565b9150508091505092915050565b600060e08301600083015161296360008601826129ee565b506020830151848203602086015261297b82826124e8565b915050604083015161299060408601826129ee565b5060608301516129a360608601826129ee565b5060808301516129b660808601826129ee565b5060a08301516129c960a08601826129ee565b5060c083015184820360c08601526129e18282612360565b9150508091505092915050565b6129f781612fad565b82525050565b612a0681612fad565b82525050565b6000612a1882846124b7565b915081905092915050565b6000602082019050612a386000830184612351565b92915050565b6000606082019050612a536000830186612351565b612a606020830185612351565b612a6d60408301846129fd565b949350505050565b6000604082019050612a8a6000830185612351565b612a9760208301846129fd565b9392505050565b6000608082019050612ab36000830187612351565b612ac060208301866129fd565b612acd60408301856129fd565b612ada60608301846129fd565b95945050505050565b60006020820190508181036000830152612afd81846123be565b905092915050565b60006020820190508181036000830152612b1f8184612433565b905092915050565b6000602082019050612b3c60008301846124a8565b92915050565b60006020820190508181036000830152612b5c8184612521565b905092915050565b60006060820190508181036000830152612b7e8186612521565b9050612b8d6020830185612351565b612b9a60408301846129fd565b949350505050565b60006020820190508181036000830152612bbb8161255a565b9050919050565b60006020820190508181036000830152612bdb816125c0565b9050919050565b60006020820190508181036000830152612bfb81612626565b9050919050565b60006020820190508181036000830152612c1b8161268c565b9050919050565b60006020820190508181036000830152612c3b816126f2565b9050919050565b60006020820190508181036000830152612c5b81612732565b9050919050565b60006020820190508181036000830152612c7b81612772565b9050919050565b60006020820190508181036000830152612c9b816127d8565b9050919050565b60006020820190508181036000830152612cbc8184612855565b905092915050565b6000602082019050612cd960008301846129fd565b92915050565b6000604051905081810181811067ffffffffffffffff82111715612d0657612d05613101565b5b8060405250919050565b600067ffffffffffffffff821115612d2b57612d2a613101565b5b602082029050602081019050919050565b600067ffffffffffffffff821115612d5757612d56613101565b5b601f19601f8301169050602081019050919050565b6000819050602082019050919050565b6000819050602082019050919050565b6000819050602082019050919050565b600081519050919050565b600081519050919050565b600081519050919050565b600081519050919050565b600081519050919050565b6000602082019050919050565b6000602082019050919050565b6000602082019050919050565b600082825260208201905092915050565b600082825260208201905092915050565b600082825260208201905092915050565b600081905092915050565b600082825260208201905092915050565b600082825260208201905092915050565b6000612e6582612fad565b9150612e7083612fad565b9250827fffffffffffffffffffffffffffffffffffffffffffffffffffffffffffffffff03821115612ea557612ea4613074565b5b828201905092915050565b6000612ebb82612fad565b9150612ec683612fad565b925082612ed657612ed56130a3565b5b828204905092915050565b6000612eec82612fad565b9150612ef783612fad565b9250817fffffffffffffffffffffffffffffffffffffffffffffffffffffffffffffffff0483118215151615612f3057612f2f613074565b5b828202905092915050565b6000612f4682612fad565b9150612f5183612fad565b925082821015612f6457612f63613074565b5b828203905092915050565b6000612f7a82612f8d565b9050919050565b60008115159050919050565b600073ffffffffffffffffffffffffffffffffffffffff82169050919050565b6000819050919050565b82818337600083830152505050565b60005b83811015612fe4578082015181840152602081019050612fc9565b83811115612ff3576000848401525b50505050565b6000600282049050600182168061301157607f821691505b60208210811415613025576130246130d2565b5b50919050565b600061303682612fad565b91507fffffffffffffffffffffffffffffffffffffffffffffffffffffffffffffffff82141561306957613068613074565b5b600182019050919050565b7f4e487b7100000000000000000000000000000000000000000000000000000000600052601160045260246000fd5b7f4e487b7100000000000000000000000000000000000000000000000000000000600052601260045260246000fd5b7f4e487b7100000000000000000000000000000000000000000000000000000000600052602260045260246000fd5b7f4e487b7100000000000000000000000000000000000000000000000000000000600052604160045260246000fd5b6000601f19601f8301169050919050565b61314a81612f6f565b811461315557600080fd5b50565b61316181612f81565b811461316c57600080fd5b50565b61317881612fad565b811461318357600080fd5b5056fea2646970667358221220e1ca5b30cad3b643b4d6351233fcfe07d7c5a77117a4970fb8174b39631a982e64736f6c63430008000033",
  "linkReferences": {},
  "deployedLinkReferences": {}
}