{
  "_format": "hh-sol-artifact-1",
  "contractName": "WalletApproverService",
  "sourceName": "contracts/services/WalletApproverService.sol",
  "abi": [
    {
      "inputs": [
        {
          "internalType": "address",
          "name": "_masterOwner",
          "type": "address"
        },
        {
          "internalType": "address[]",
          "name": "approvers",
          "type": "address[]"
        },
        {
          "internalType": "uint256",
          "name": "_rewardPerApprove",
          "type": "uint256"
        }
      ],
      "stateMutability": "nonpayable",
      "type": "constructor"
    },
    {
      "anonymous": false,
      "inputs": [
        {
          "indexed": true,
          "internalType": "address",
          "name": "caller",
          "type": "address"
        },
        {
          "indexed": false,
          "internalType": "address",
          "name": "wallet",
          "type": "address"
        },
        {
          "indexed": false,
          "internalType": "uint256",
          "name": "timestamp",
          "type": "uint256"
        }
      ],
      "name": "ApproveWallet",
      "type": "event"
    },
    {
      "anonymous": false,
      "inputs": [
        {
          "indexed": true,
          "internalType": "address",
          "name": "sender",
          "type": "address"
        },
        {
          "indexed": false,
          "internalType": "uint256",
          "name": "amount",
          "type": "uint256"
        },
        {
          "indexed": false,
          "internalType": "uint256",
          "name": "timestamp",
          "type": "uint256"
        }
      ],
      "name": "Received",
      "type": "event"
    },
    {
      "anonymous": false,
      "inputs": [
        {
          "indexed": true,
          "internalType": "address",
          "name": "receiver",
          "type": "address"
        },
        {
          "indexed": false,
          "internalType": "uint256",
          "name": "amount",
          "type": "uint256"
        },
        {
          "indexed": false,
          "internalType": "uint256",
          "name": "timestamp",
          "type": "uint256"
        }
      ],
      "name": "Released",
      "type": "event"
    },
    {
      "anonymous": false,
      "inputs": [
        {
          "indexed": true,
          "internalType": "address",
          "name": "caller",
          "type": "address"
        },
        {
          "indexed": false,
          "internalType": "address",
          "name": "wallet",
          "type": "address"
        },
        {
          "indexed": false,
          "internalType": "uint256",
          "name": "timestamp",
          "type": "uint256"
        }
      ],
      "name": "SuspendWallet",
      "type": "event"
    },
    {
      "anonymous": false,
      "inputs": [
        {
          "indexed": true,
          "internalType": "address",
          "name": "caller",
          "type": "address"
        },
        {
          "indexed": true,
          "internalType": "address",
          "name": "newOwner",
          "type": "address"
        },
        {
          "indexed": false,
          "internalType": "uint256",
          "name": "timestamp",
          "type": "uint256"
        }
      ],
      "name": "TransferMasterOwnerRights",
      "type": "event"
    },
    {
      "anonymous": false,
      "inputs": [
        {
          "indexed": true,
          "internalType": "address",
          "name": "caller",
          "type": "address"
        },
        {
          "indexed": true,
          "internalType": "address",
          "name": "approver",
          "type": "address"
        },
        {
          "indexed": false,
          "internalType": "bool",
          "name": "approved",
          "type": "bool"
        },
        {
          "indexed": false,
          "internalType": "uint256",
          "name": "timestamp",
          "type": "uint256"
        }
      ],
      "name": "UpdateApproverStatus",
      "type": "event"
    },
    {
      "anonymous": false,
      "inputs": [
        {
          "indexed": true,
          "internalType": "address",
          "name": "caller",
          "type": "address"
        },
        {
          "indexed": false,
          "internalType": "uint256",
          "name": "oldAmount",
          "type": "uint256"
        },
        {
          "indexed": false,
          "internalType": "uint256",
          "name": "newAmount",
          "type": "uint256"
        },
        {
          "indexed": false,
          "internalType": "uint256",
          "name": "timestamp",
          "type": "uint256"
        }
      ],
      "name": "UpdateRewardAmount",
      "type": "event"
    },
    {
      "anonymous": false,
      "inputs": [
        {
          "indexed": true,
          "internalType": "address",
          "name": "caller",
          "type": "address"
        },
        {
          "indexed": false,
          "internalType": "address",
          "name": "wallet",
          "type": "address"
        },
        {
          "indexed": false,
          "internalType": "uint256",
          "name": "reward",
          "type": "uint256"
        },
        {
          "indexed": false,
          "internalType": "uint256",
          "name": "timestamp",
          "type": "uint256"
        }
      ],
      "name": "WalletFunded",
      "type": "event"
    },
    {
      "inputs": [
        {
          "internalType": "address",
          "name": "",
          "type": "address"
        }
      ],
      "name": "allowedApprovers",
      "outputs": [
        {
          "internalType": "bool",
          "name": "",
          "type": "bool"
        }
      ],
      "stateMutability": "view",
      "type": "function"
    },
    {
      "inputs": [
        {
          "internalType": "contract IIssuer",
          "name": "issuer",
          "type": "address"
        },
        {
          "internalType": "address payable",
          "name": "wallet",
          "type": "address"
        }
      ],
      "name": "approveWallet",
      "outputs": [],
      "stateMutability": "nonpayable",
      "type": "function"
    },
    {
      "inputs": [
        {
          "internalType": "contract IIssuer",
          "name": "issuer",
          "type": "address"
        },
        {
          "internalType": "address payable[]",
          "name": "wallets",
          "type": "address[]"
        }
      ],
      "name": "approveWallets",
      "outputs": [],
      "stateMutability": "nonpayable",
      "type": "function"
    },
    {
      "inputs": [],
      "name": "masterOwner",
      "outputs": [
        {
          "internalType": "address",
          "name": "",
          "type": "address"
        }
      ],
      "stateMutability": "view",
      "type": "function"
    },
    {
      "inputs": [],
      "name": "release",
      "outputs": [],
      "stateMutability": "nonpayable",
      "type": "function"
    },
    {
      "inputs": [],
      "name": "rewardPerApprove",
      "outputs": [
        {
          "internalType": "uint256",
          "name": "",
          "type": "uint256"
        }
      ],
      "stateMutability": "view",
      "type": "function"
    },
    {
      "inputs": [
        {
          "internalType": "contract IIssuer",
          "name": "issuer",
          "type": "address"
        },
        {
          "internalType": "address",
          "name": "wallet",
          "type": "address"
        }
      ],
      "name": "suspendWallet",
      "outputs": [],
      "stateMutability": "nonpayable",
      "type": "function"
    },
    {
      "inputs": [
        {
          "internalType": "contract IIssuer",
          "name": "issuer",
          "type": "address"
        },
        {
          "internalType": "address[]",
          "name": "wallets",
          "type": "address[]"
        }
      ],
      "name": "suspendWallets",
      "outputs": [],
      "stateMutability": "nonpayable",
      "type": "function"
    },
    {
      "inputs": [
        {
          "internalType": "address",
          "name": "newMasterOwner",
          "type": "address"
        }
      ],
      "name": "transferMasterOwnerRights",
      "outputs": [],
      "stateMutability": "nonpayable",
      "type": "function"
    },
    {
      "inputs": [
        {
          "internalType": "address",
          "name": "approver",
          "type": "address"
        },
        {
          "internalType": "bool",
          "name": "approved",
          "type": "bool"
        }
      ],
      "name": "updateApproverStatus",
      "outputs": [],
      "stateMutability": "nonpayable",
      "type": "function"
    },
    {
      "inputs": [
        {
          "internalType": "uint256",
          "name": "newRewardAmount",
          "type": "uint256"
        }
      ],
      "name": "updateRewardAmount",
      "outputs": [],
      "stateMutability": "nonpayable",
      "type": "function"
    },
    {
      "stateMutability": "payable",
      "type": "receive"
    }
  ],
  "bytecode": "0x60806040523480156200001157600080fd5b50604051620021713803806200217183398181016040528101906200003791906200028b565b826000806101000a81548173ffffffffffffffffffffffffffffffffffffffff021916908373ffffffffffffffffffffffffffffffffffffffff16021790555060005b825181101562000132576001806000858481518110620000c3577f4e487b7100000000000000000000000000000000000000000000000000000000600052603260045260246000fd5b602002602001015173ffffffffffffffffffffffffffffffffffffffff1673ffffffffffffffffffffffffffffffffffffffff16815260200190815260200160002060006101000a81548160ff021916908315150217905550808062000129906200039b565b9150506200007a565b5060018060008060009054906101000a900473ffffffffffffffffffffffffffffffffffffffff1673ffffffffffffffffffffffffffffffffffffffff1673ffffffffffffffffffffffffffffffffffffffff16815260200190815260200160002060006101000a81548160ff021916908315150217905550806002819055505050506200047b565b6000620001d2620001cc846200032e565b620002fa565b90508083825260208201905082856020860282011115620001f257600080fd5b60005b858110156200022657816200020b888262000230565b845260208401935060208301925050600181019050620001f5565b5050509392505050565b600081519050620002418162000447565b92915050565b600082601f8301126200025957600080fd5b81516200026b848260208601620001bb565b91505092915050565b600081519050620002858162000461565b92915050565b600080600060608486031215620002a157600080fd5b6000620002b18682870162000230565b935050602084015167ffffffffffffffff811115620002cf57600080fd5b620002dd8682870162000247565b9250506040620002f08682870162000274565b9150509250925092565b6000604051905081810181811067ffffffffffffffff8211171562000324576200032362000418565b5b8060405250919050565b600067ffffffffffffffff8211156200034c576200034b62000418565b5b602082029050602081019050919050565b60006200036a8262000371565b9050919050565b600073ffffffffffffffffffffffffffffffffffffffff82169050919050565b6000819050919050565b6000620003a88262000391565b91507fffffffffffffffffffffffffffffffffffffffffffffffffffffffffffffffff821415620003de57620003dd620003e9565b5b600182019050919050565b7f4e487b7100000000000000000000000000000000000000000000000000000000600052601160045260246000fd5b7f4e487b7100000000000000000000000000000000000000000000000000000000600052604160045260246000fd5b62000452816200035d565b81146200045e57600080fd5b50565b6200046c8162000391565b81146200047857600080fd5b50565b611ce6806200048b6000396000f3fe6080604052600436106100a05760003560e01c80639ed5f9ae116100645780639ed5f9ae146101b9578063cd3c6bda146101e2578063dfe8a4191461020b578063e7201d7d14610234578063f72069e01461025f578063fac178911461029c576100f7565b8063057106af146100fc57806315c2ba14146101255780634b14c0421461014e5780635c26e9ea1461017957806386d1a69f146101a2576100f7565b366100f7573373ffffffffffffffffffffffffffffffffffffffff167f74cf3d18d0ddca79038197ad0dd2c7fa5005ef61a5d1ed190e8a8a437e2fcf1034426040516100ed929190611997565b60405180910390a2005b600080fd5b34801561010857600080fd5b50610123600480360381019061011e9190611521565b6102c5565b005b34801561013157600080fd5b5061014c60048036038101906101479190611682565b610506565b005b34801561015a57600080fd5b506101636105f8565b604051610170919061197c565b60405180910390f35b34801561018557600080fd5b506101a0600480360381019061019b91906114e5565b6105fe565b005b3480156101ae57600080fd5b506101b761074e565b005b3480156101c557600080fd5b506101e060048036038101906101db91906114bc565b61087b565b005b3480156101ee57600080fd5b506102096004803603810190610204919061155d565b610a60565b005b34801561021757600080fd5b50610232600480360381019061022d9190611599565b610d7b565b005b34801561024057600080fd5b50610249610f6b565b6040516102569190611819565b60405180910390f35b34801561026b57600080fd5b50610286600480360381019061028191906114bc565b610f8f565b60405161029391906118d8565b60405180910390f35b3480156102a857600080fd5b506102c360048036038101906102be91906115ed565b610faf565b005b81600160003373ffffffffffffffffffffffffffffffffffffffff1673ffffffffffffffffffffffffffffffffffffffff16815260200190815260200160002060009054906101000a900460ff16610352576040517f08c379a00000000000000000000000000000000000000000000000000000000081526004016103499061195c565b60405180910390fd5b3073ffffffffffffffffffffffffffffffffffffffff168173ffffffffffffffffffffffffffffffffffffffff16631865c57d6040518163ffffffff1660e01b815260040160006040518083038186803b1580156103af57600080fd5b505afa1580156103c3573d6000803e3d6000fd5b505050506040513d6000823e3d601f19601f820116820180604052508101906103ec9190611641565b60c0015173ffffffffffffffffffffffffffffffffffffffff1614610446576040517f08c379a000000000000000000000000000000000000000000000000000000000815260040161043d9061191c565b60405180910390fd5b8273ffffffffffffffffffffffffffffffffffffffff1663e7283755836040518263ffffffff1660e01b815260040161047f9190611819565b600060405180830381600087803b15801561049957600080fd5b505af11580156104ad573d6000803e3d6000fd5b505050503373ffffffffffffffffffffffffffffffffffffffff167f0cdc784c25b088063aac81264eca764b27f1ae23aa4ef42c7ecc395cae03f58283426040516104f99291906118af565b60405180910390a2505050565b60008054906101000a900473ffffffffffffffffffffffffffffffffffffffff1673ffffffffffffffffffffffffffffffffffffffff163373ffffffffffffffffffffffffffffffffffffffff1614610594576040517f08c379a000000000000000000000000000000000000000000000000000000000815260040161058b9061193c565b60405180910390fd5b60006002549050816002819055503373ffffffffffffffffffffffffffffffffffffffff167f73e9d6d9b9f59093c10026af838c807858a65951bb561826b3d579c7d7f397778284426040516105ec939291906119c0565b60405180910390a25050565b60025481565b60008054906101000a900473ffffffffffffffffffffffffffffffffffffffff1673ffffffffffffffffffffffffffffffffffffffff163373ffffffffffffffffffffffffffffffffffffffff161461068c576040517f08c379a00000000000000000000000000000000000000000000000000000000081526004016106839061193c565b60405180910390fd5b80600160008473ffffffffffffffffffffffffffffffffffffffff1673ffffffffffffffffffffffffffffffffffffffff16815260200190815260200160002060006101000a81548160ff0219169083151502179055508173ffffffffffffffffffffffffffffffffffffffff163373ffffffffffffffffffffffffffffffffffffffff167fa45aa7d1f34e5fdf51d1c244527b5a64174cfe4a3c4f538ff999f13cf2d1b88083426040516107429291906118f3565b60405180910390a35050565b60008054906101000a900473ffffffffffffffffffffffffffffffffffffffff1673ffffffffffffffffffffffffffffffffffffffff163373ffffffffffffffffffffffffffffffffffffffff16146107dc576040517f08c379a00000000000000000000000000000000000000000000000000000000081526004016107d39061193c565b60405180910390fd5b60004790503373ffffffffffffffffffffffffffffffffffffffff166108fc829081150290604051600060405180830381858888f19350505050158015610827573d6000803e3d6000fd5b503373ffffffffffffffffffffffffffffffffffffffff167f82e416ba72d10e709b5de7ac16f5f49ff1d94f22d55bf582d353d3c313a1e8dd8242604051610870929190611997565b60405180910390a250565b60008054906101000a900473ffffffffffffffffffffffffffffffffffffffff1673ffffffffffffffffffffffffffffffffffffffff163373ffffffffffffffffffffffffffffffffffffffff1614610909576040517f08c379a00000000000000000000000000000000000000000000000000000000081526004016109009061193c565b60405180910390fd5b6000600160003373ffffffffffffffffffffffffffffffffffffffff1673ffffffffffffffffffffffffffffffffffffffff16815260200190815260200160002060006101000a81548160ff02191690831515021790555060018060008373ffffffffffffffffffffffffffffffffffffffff1673ffffffffffffffffffffffffffffffffffffffff16815260200190815260200160002060006101000a81548160ff021916908315150217905550806000806101000a81548173ffffffffffffffffffffffffffffffffffffffff021916908373ffffffffffffffffffffffffffffffffffffffff1602179055508073ffffffffffffffffffffffffffffffffffffffff163373ffffffffffffffffffffffffffffffffffffffff167fd724df8cf1d08552f896ece20553cd75c168a92f554096b1c7bb9dfc5cd6cb6542604051610a55919061197c565b60405180910390a350565b81600160003373ffffffffffffffffffffffffffffffffffffffff1673ffffffffffffffffffffffffffffffffffffffff16815260200190815260200160002060009054906101000a900460ff16610aed576040517f08c379a0000000000000000000000000000000000000000000000000000000008152600401610ae49061195c565b60405180910390fd5b3073ffffffffffffffffffffffffffffffffffffffff168173ffffffffffffffffffffffffffffffffffffffff16631865c57d6040518163ffffffff1660e01b815260040160006040518083038186803b158015610b4a57600080fd5b505afa158015610b5e573d6000803e3d6000fd5b505050506040513d6000823e3d601f19601f82011682018060405250810190610b879190611641565b60c0015173ffffffffffffffffffffffffffffffffffffffff1614610be1576040517f08c379a0000000000000000000000000000000000000000000000000000000008152600401610bd89061191c565b60405180910390fd5b6000600254118015610bf557506002544710155b8015610c18575060008273ffffffffffffffffffffffffffffffffffffffff1631145b15610cbb578173ffffffffffffffffffffffffffffffffffffffff166108fc6002549081150290604051600060405180830381858888f19350505050158015610c65573d6000803e3d6000fd5b503373ffffffffffffffffffffffffffffffffffffffff167f558b590c524a3a1cc1cdffc58e9d4b29f9533e4b15aad49b356ac56581501e768360025442604051610cb293929190611878565b60405180910390a25b8273ffffffffffffffffffffffffffffffffffffffff16630fcb0ae5836040518263ffffffff1660e01b8152600401610cf49190611834565b600060405180830381600087803b158015610d0e57600080fd5b505af1158015610d22573d6000803e3d6000fd5b505050503373ffffffffffffffffffffffffffffffffffffffff167f2e2b67435ee24fd62159192aa2c134e7ef98d33b5e88e5655963adee6ef461d08342604051610d6e92919061184f565b60405180910390a2505050565b81600160003373ffffffffffffffffffffffffffffffffffffffff1673ffffffffffffffffffffffffffffffffffffffff16815260200190815260200160002060009054906101000a900460ff16610e08576040517f08c379a0000000000000000000000000000000000000000000000000000000008152600401610dff9061195c565b60405180910390fd5b3073ffffffffffffffffffffffffffffffffffffffff168173ffffffffffffffffffffffffffffffffffffffff16631865c57d6040518163ffffffff1660e01b815260040160006040518083038186803b158015610e6557600080fd5b505afa158015610e79573d6000803e3d6000fd5b505050506040513d6000823e3d601f19601f82011682018060405250810190610ea29190611641565b60c0015173ffffffffffffffffffffffffffffffffffffffff1614610efc576040517f08c379a0000000000000000000000000000000000000000000000000000000008152600401610ef39061191c565b60405180910390fd5b60005b8251811015610f6557610f5284848381518110610f45577f4e487b7100000000000000000000000000000000000000000000000000000000600052603260045260246000fd5b60200260200101516102c5565b8080610f5d90611b96565b915050610eff565b50505050565b60008054906101000a900473ffffffffffffffffffffffffffffffffffffffff1681565b60016020528060005260406000206000915054906101000a900460ff1681565b81600160003373ffffffffffffffffffffffffffffffffffffffff1673ffffffffffffffffffffffffffffffffffffffff16815260200190815260200160002060009054906101000a900460ff1661103c576040517f08c379a00000000000000000000000000000000000000000000000000000000081526004016110339061195c565b60405180910390fd5b3073ffffffffffffffffffffffffffffffffffffffff168173ffffffffffffffffffffffffffffffffffffffff16631865c57d6040518163ffffffff1660e01b815260040160006040518083038186803b15801561109957600080fd5b505afa1580156110ad573d6000803e3d6000fd5b505050506040513d6000823e3d601f19601f820116820180604052508101906110d69190611641565b60c0015173ffffffffffffffffffffffffffffffffffffffff1614611130576040517f08c379a00000000000000000000000000000000000000000000000000000000081526004016111279061191c565b60405180910390fd5b60005b82518110156111995761118684848381518110611179577f4e487b7100000000000000000000000000000000000000000000000000000000600052603260045260246000fd5b6020026020010151610a60565b808061119190611b96565b915050611133565b50505050565b60006111b26111ad84611a28565b6119f7565b905080838252602082019050828560208602820111156111d157600080fd5b60005b8581101561120157816111e788826112b5565b8452602084019350602083019250506001810190506111d4565b5050509392505050565b600061121e61121984611a54565b6119f7565b9050808382526020820190508285602086028201111561123d57600080fd5b60005b8581101561126d578161125388826112df565b845260208401935060208301925050600181019050611240565b5050509392505050565b600061128a61128584611a80565b6119f7565b9050828152602081018484840111156112a257600080fd5b6112ad848285611b63565b509392505050565b6000813590506112c481611c3d565b92915050565b6000815190506112d981611c3d565b92915050565b6000813590506112ee81611c54565b92915050565b600082601f83011261130557600080fd5b813561131584826020860161119f565b91505092915050565b600082601f83011261132f57600080fd5b813561133f84826020860161120b565b91505092915050565b60008135905061135781611c6b565b92915050565b60008135905061136c81611c82565b92915050565b600082601f83011261138357600080fd5b8151611393848260208601611277565b91505092915050565b600061010082840312156113af57600080fd5b6113ba6101006119f7565b905060006113ca848285016114a7565b60008301525060206113de848285016112ca565b602083015250604082015167ffffffffffffffff8111156113fe57600080fd5b61140a84828501611372565b604083015250606061141e848285016112ca565b6060830152506080611432848285016112ca565b60808301525060a0611446848285016112ca565b60a08301525060c061145a848285016112ca565b60c08301525060e082015167ffffffffffffffff81111561147a57600080fd5b61148684828501611372565b60e08301525092915050565b6000813590506114a181611c99565b92915050565b6000815190506114b681611c99565b92915050565b6000602082840312156114ce57600080fd5b60006114dc848285016112b5565b91505092915050565b600080604083850312156114f857600080fd5b6000611506858286016112b5565b925050602061151785828601611348565b9150509250929050565b6000806040838503121561153457600080fd5b60006115428582860161135d565b9250506020611553858286016112b5565b9150509250929050565b6000806040838503121561157057600080fd5b600061157e8582860161135d565b925050602061158f858286016112df565b9150509250929050565b600080604083850312156115ac57600080fd5b60006115ba8582860161135d565b925050602083013567ffffffffffffffff8111156115d757600080fd5b6115e3858286016112f4565b9150509250929050565b6000806040838503121561160057600080fd5b600061160e8582860161135d565b925050602083013567ffffffffffffffff81111561162b57600080fd5b6116378582860161131e565b9150509250929050565b60006020828403121561165357600080fd5b600082015167ffffffffffffffff81111561166d57600080fd5b6116798482850161139c565b91505092915050565b60006020828403121561169457600080fd5b60006116a284828501611492565b91505092915050565b6116b481611b2d565b82525050565b6116c381611ac1565b82525050565b6116d281611ae5565b82525050565b60006116e5603983611ab0565b91507f57616c6c6574417070726f766572536572766963653a206e6f7420616c6c6f7760008301527f656420746f20617070726f766520666f72206973737565723b000000000000006020830152604082019050919050565b600061174b602883611ab0565b91507f57616c6c6574417070726f766572536572766963653a206e6f74206d6173746560008301527f72206f776e65723b0000000000000000000000000000000000000000000000006020830152604082019050919050565b60006117b1603983611ab0565b91507f57616c6c6574417070726f766572536572766963653a20617070726f7665722060008301527f6e6f7420696e20616c6c6f77656420617070726f766572733b000000000000006020830152604082019050919050565b61181381611b23565b82525050565b600060208201905061182e60008301846116ba565b92915050565b600060208201905061184960008301846116ab565b92915050565b600060408201905061186460008301856116ab565b611871602083018461180a565b9392505050565b600060608201905061188d60008301866116ab565b61189a602083018561180a565b6118a7604083018461180a565b949350505050565b60006040820190506118c460008301856116ba565b6118d1602083018461180a565b9392505050565b60006020820190506118ed60008301846116c9565b92915050565b600060408201905061190860008301856116c9565b611915602083018461180a565b9392505050565b60006020820190508181036000830152611935816116d8565b9050919050565b600060208201905081810360008301526119558161173e565b9050919050565b60006020820190508181036000830152611975816117a4565b9050919050565b6000602082019050611991600083018461180a565b92915050565b60006040820190506119ac600083018561180a565b6119b9602083018461180a565b9392505050565b60006060820190506119d5600083018661180a565b6119e2602083018561180a565b6119ef604083018461180a565b949350505050565b6000604051905081810181811067ffffffffffffffff82111715611a1e57611a1d611c0e565b5b8060405250919050565b600067ffffffffffffffff821115611a4357611a42611c0e565b5b602082029050602081019050919050565b600067ffffffffffffffff821115611a6f57611a6e611c0e565b5b602082029050602081019050919050565b600067ffffffffffffffff821115611a9b57611a9a611c0e565b5b601f19601f8301169050602081019050919050565b600082825260208201905092915050565b6000611acc82611b03565b9050919050565b6000611ade82611b03565b9050919050565b60008115159050919050565b6000611afc82611ac1565b9050919050565b600073ffffffffffffffffffffffffffffffffffffffff82169050919050565b6000819050919050565b6000611b3882611b3f565b9050919050565b6000611b4a82611b51565b9050919050565b6000611b5c82611b03565b9050919050565b60005b83811015611b81578082015181840152602081019050611b66565b83811115611b90576000848401525b50505050565b6000611ba182611b23565b91507fffffffffffffffffffffffffffffffffffffffffffffffffffffffffffffffff821415611bd457611bd3611bdf565b5b600182019050919050565b7f4e487b7100000000000000000000000000000000000000000000000000000000600052601160045260246000fd5b7f4e487b7100000000000000000000000000000000000000000000000000000000600052604160045260246000fd5b611c4681611ac1565b8114611c5157600080fd5b50565b611c5d81611ad3565b8114611c6857600080fd5b50565b611c7481611ae5565b8114611c7f57600080fd5b50565b611c8b81611af1565b8114611c9657600080fd5b50565b611ca281611b23565b8114611cad57600080fd5b5056fea264697066735822122034eb16f067d17258e6baa6a4a964d76278969fbf3ab76064099a6ae16ca4802464736f6c63430008000033",
  "linkReferences": {},
  "deployedLinkReferences": {}
}