{
  "_format": "hh-sol-artifact-1",
  "contractName": "WalletApproverService",
  "sourceName": "contracts/services/WalletApproverService.sol",
  "abi": [
    {
      "inputs": [
        {
          "internalType": "address",
          "name": "_masterOwner",
          "type": "address"
        },
        {
          "internalType": "address[]",
          "name": "approvers",
          "type": "address[]"
        },
        {
          "internalType": "uint256",
          "name": "_rewardPerApprove",
          "type": "uint256"
        }
      ],
      "stateMutability": "nonpayable",
      "type": "constructor"
    },
    {
      "anonymous": false,
      "inputs": [
        {
          "indexed": true,
          "internalType": "address",
          "name": "caller",
          "type": "address"
        },
        {
          "indexed": false,
          "internalType": "address",
          "name": "wallet",
          "type": "address"
        },
        {
          "indexed": false,
          "internalType": "uint256",
          "name": "timestamp",
          "type": "uint256"
        }
      ],
      "name": "ApproveWallet",
      "type": "event"
    },
    {
      "anonymous": false,
      "inputs": [
        {
          "indexed": true,
          "internalType": "address",
          "name": "sender",
          "type": "address"
        },
        {
          "indexed": false,
          "internalType": "uint256",
          "name": "amount",
          "type": "uint256"
        },
        {
          "indexed": false,
          "internalType": "uint256",
          "name": "timestamp",
          "type": "uint256"
        }
      ],
      "name": "Received",
      "type": "event"
    },
    {
      "anonymous": false,
      "inputs": [
        {
          "indexed": true,
          "internalType": "address",
          "name": "receiver",
          "type": "address"
        },
        {
          "indexed": false,
          "internalType": "uint256",
          "name": "amount",
          "type": "uint256"
        },
        {
          "indexed": false,
          "internalType": "uint256",
          "name": "timestamp",
          "type": "uint256"
        }
      ],
      "name": "Released",
      "type": "event"
    },
    {
      "anonymous": false,
      "inputs": [
        {
          "indexed": true,
          "internalType": "address",
          "name": "caller",
          "type": "address"
        },
        {
          "indexed": false,
          "internalType": "address",
          "name": "wallet",
          "type": "address"
        },
        {
          "indexed": false,
          "internalType": "uint256",
          "name": "timestamp",
          "type": "uint256"
        }
      ],
      "name": "SuspendWallet",
      "type": "event"
    },
    {
      "anonymous": false,
      "inputs": [
        {
          "indexed": true,
          "internalType": "address",
          "name": "caller",
          "type": "address"
        },
        {
          "indexed": true,
          "internalType": "address",
          "name": "newOwner",
          "type": "address"
        },
        {
          "indexed": false,
          "internalType": "uint256",
          "name": "timestamp",
          "type": "uint256"
        }
      ],
      "name": "TransferMasterOwnerRights",
      "type": "event"
    },
    {
      "anonymous": false,
      "inputs": [
        {
          "indexed": true,
          "internalType": "address",
          "name": "caller",
          "type": "address"
        },
        {
          "indexed": true,
          "internalType": "address",
          "name": "approver",
          "type": "address"
        },
        {
          "indexed": false,
          "internalType": "bool",
          "name": "approved",
          "type": "bool"
        },
        {
          "indexed": false,
          "internalType": "uint256",
          "name": "timestamp",
          "type": "uint256"
        }
      ],
      "name": "UpdateApproverStatus",
      "type": "event"
    },
    {
      "anonymous": false,
      "inputs": [
        {
          "indexed": true,
          "internalType": "address",
          "name": "caller",
          "type": "address"
        },
        {
          "indexed": false,
          "internalType": "uint256",
          "name": "oldAmount",
          "type": "uint256"
        },
        {
          "indexed": false,
          "internalType": "uint256",
          "name": "newAmount",
          "type": "uint256"
        },
        {
          "indexed": false,
          "internalType": "uint256",
          "name": "timestamp",
          "type": "uint256"
        }
      ],
      "name": "UpdateRewardAmount",
      "type": "event"
    },
    {
      "anonymous": false,
      "inputs": [
        {
          "indexed": true,
          "internalType": "address",
          "name": "caller",
          "type": "address"
        },
        {
          "indexed": false,
          "internalType": "address",
          "name": "wallet",
          "type": "address"
        },
        {
          "indexed": false,
          "internalType": "uint256",
          "name": "reward",
          "type": "uint256"
        },
        {
          "indexed": false,
          "internalType": "uint256",
          "name": "timestamp",
          "type": "uint256"
        }
      ],
      "name": "WalletFunded",
      "type": "event"
    },
    {
      "inputs": [
        {
          "internalType": "address",
          "name": "",
          "type": "address"
        }
      ],
      "name": "allowedApprovers",
      "outputs": [
        {
          "internalType": "bool",
          "name": "",
          "type": "bool"
        }
      ],
      "stateMutability": "view",
      "type": "function"
    },
    {
      "inputs": [
        {
          "internalType": "contract IIssuer",
          "name": "issuer",
          "type": "address"
        },
        {
          "internalType": "address payable",
          "name": "wallet",
          "type": "address"
        }
      ],
      "name": "approveWallet",
      "outputs": [],
      "stateMutability": "nonpayable",
      "type": "function"
    },
    {
      "inputs": [
        {
          "internalType": "contract IIssuer",
          "name": "issuer",
          "type": "address"
        },
        {
          "internalType": "address payable[]",
          "name": "wallets",
          "type": "address[]"
        }
      ],
      "name": "approveWallets",
      "outputs": [],
      "stateMutability": "nonpayable",
      "type": "function"
    },
    {
      "inputs": [],
      "name": "masterOwner",
      "outputs": [
        {
          "internalType": "address",
          "name": "",
          "type": "address"
        }
      ],
      "stateMutability": "view",
      "type": "function"
    },
    {
      "inputs": [],
      "name": "release",
      "outputs": [],
      "stateMutability": "nonpayable",
      "type": "function"
    },
    {
      "inputs": [],
      "name": "rewardPerApprove",
      "outputs": [
        {
          "internalType": "uint256",
          "name": "",
          "type": "uint256"
        }
      ],
      "stateMutability": "view",
      "type": "function"
    },
    {
      "inputs": [
        {
          "internalType": "contract IIssuer",
          "name": "issuer",
          "type": "address"
        },
        {
          "internalType": "address",
          "name": "wallet",
          "type": "address"
        }
      ],
      "name": "suspendWallet",
      "outputs": [],
      "stateMutability": "nonpayable",
      "type": "function"
    },
    {
      "inputs": [
        {
          "internalType": "contract IIssuer",
          "name": "issuer",
          "type": "address"
        },
        {
          "internalType": "address[]",
          "name": "wallets",
          "type": "address[]"
        }
      ],
      "name": "suspendWallets",
      "outputs": [],
      "stateMutability": "nonpayable",
      "type": "function"
    },
    {
      "inputs": [
        {
          "internalType": "address",
          "name": "newMasterOwner",
          "type": "address"
        }
      ],
      "name": "transferMasterOwnerRights",
      "outputs": [],
      "stateMutability": "nonpayable",
      "type": "function"
    },
    {
      "inputs": [
        {
          "internalType": "address",
          "name": "approver",
          "type": "address"
        },
        {
          "internalType": "bool",
          "name": "approved",
          "type": "bool"
        }
      ],
      "name": "updateApproverStatus",
      "outputs": [],
      "stateMutability": "nonpayable",
      "type": "function"
    },
    {
      "inputs": [
        {
          "internalType": "uint256",
          "name": "newRewardAmount",
          "type": "uint256"
        }
      ],
      "name": "updateRewardAmount",
      "outputs": [],
      "stateMutability": "nonpayable",
      "type": "function"
    },
    {
      "stateMutability": "payable",
      "type": "receive"
    }
  ],
  "bytecode": "0x60806040523480156200001157600080fd5b50604051620022c9380380620022c983398181016040528101906200003791906200028b565b826000806101000a81548173ffffffffffffffffffffffffffffffffffffffff021916908373ffffffffffffffffffffffffffffffffffffffff16021790555060005b825181101562000132576001806000858481518110620000c3577f4e487b7100000000000000000000000000000000000000000000000000000000600052603260045260246000fd5b602002602001015173ffffffffffffffffffffffffffffffffffffffff1673ffffffffffffffffffffffffffffffffffffffff16815260200190815260200160002060006101000a81548160ff021916908315150217905550808062000129906200039b565b9150506200007a565b5060018060008060009054906101000a900473ffffffffffffffffffffffffffffffffffffffff1673ffffffffffffffffffffffffffffffffffffffff1673ffffffffffffffffffffffffffffffffffffffff16815260200190815260200160002060006101000a81548160ff021916908315150217905550806002819055505050506200047b565b6000620001d2620001cc846200032e565b620002fa565b90508083825260208201905082856020860282011115620001f257600080fd5b60005b858110156200022657816200020b888262000230565b845260208401935060208301925050600181019050620001f5565b5050509392505050565b600081519050620002418162000447565b92915050565b600082601f8301126200025957600080fd5b81516200026b848260208601620001bb565b91505092915050565b600081519050620002858162000461565b92915050565b600080600060608486031215620002a157600080fd5b6000620002b18682870162000230565b935050602084015167ffffffffffffffff811115620002cf57600080fd5b620002dd8682870162000247565b9250506040620002f08682870162000274565b9150509250925092565b6000604051905081810181811067ffffffffffffffff8211171562000324576200032362000418565b5b8060405250919050565b600067ffffffffffffffff8211156200034c576200034b62000418565b5b602082029050602081019050919050565b60006200036a8262000371565b9050919050565b600073ffffffffffffffffffffffffffffffffffffffff82169050919050565b6000819050919050565b6000620003a88262000391565b91507fffffffffffffffffffffffffffffffffffffffffffffffffffffffffffffffff821415620003de57620003dd620003e9565b5b600182019050919050565b7f4e487b7100000000000000000000000000000000000000000000000000000000600052601160045260246000fd5b7f4e487b7100000000000000000000000000000000000000000000000000000000600052604160045260246000fd5b62000452816200035d565b81146200045e57600080fd5b50565b6200046c8162000391565b81146200047857600080fd5b50565b611e3e806200048b6000396000f3fe6080604052600436106100a05760003560e01c80639ed5f9ae116100645780639ed5f9ae146101b9578063cd3c6bda146101e2578063dfe8a4191461020b578063e7201d7d14610234578063f72069e01461025f578063fac178911461029c576100f7565b8063057106af146100fc57806315c2ba14146101255780634b14c0421461014e5780635c26e9ea1461017957806386d1a69f146101a2576100f7565b366100f7573373ffffffffffffffffffffffffffffffffffffffff167f74cf3d18d0ddca79038197ad0dd2c7fa5005ef61a5d1ed190e8a8a437e2fcf1034426040516100ed929190611aef565b60405180910390a2005b600080fd5b34801561010857600080fd5b50610123600480360381019061011e9190611679565b6102c5565b005b34801561013157600080fd5b5061014c600480360381019061014791906117da565b61055c565b005b34801561015a57600080fd5b5061016361064e565b6040516101709190611ad4565b60405180910390f35b34801561018557600080fd5b506101a0600480360381019061019b919061163d565b610654565b005b3480156101ae57600080fd5b506101b76107a4565b005b3480156101c557600080fd5b506101e060048036038101906101db9190611614565b6108d1565b005b3480156101ee57600080fd5b50610209600480360381019061020491906116b5565b610ab6565b005b34801561021757600080fd5b50610232600480360381019061022d91906116f1565b610e27565b005b34801561024057600080fd5b5061024961106d565b6040516102569190611971565b60405180910390f35b34801561026b57600080fd5b5061028660048036038101906102819190611614565b611091565b6040516102939190611a30565b60405180910390f35b3480156102a857600080fd5b506102c360048036038101906102be9190611745565b6110b1565b005b8160008054906101000a900473ffffffffffffffffffffffffffffffffffffffff1673ffffffffffffffffffffffffffffffffffffffff163373ffffffffffffffffffffffffffffffffffffffff1614806103695750600160003373ffffffffffffffffffffffffffffffffffffffff1673ffffffffffffffffffffffffffffffffffffffff16815260200190815260200160002060009054906101000a900460ff165b6103a8576040517f08c379a000000000000000000000000000000000000000000000000000000000815260040161039f90611ab4565b60405180910390fd5b3073ffffffffffffffffffffffffffffffffffffffff168173ffffffffffffffffffffffffffffffffffffffff16631865c57d6040518163ffffffff1660e01b815260040160006040518083038186803b15801561040557600080fd5b505afa158015610419573d6000803e3d6000fd5b505050506040513d6000823e3d601f19601f820116820180604052508101906104429190611799565b60c0015173ffffffffffffffffffffffffffffffffffffffff161461049c576040517f08c379a000000000000000000000000000000000000000000000000000000000815260040161049390611a74565b60405180910390fd5b8273ffffffffffffffffffffffffffffffffffffffff1663e7283755836040518263ffffffff1660e01b81526004016104d59190611971565b600060405180830381600087803b1580156104ef57600080fd5b505af1158015610503573d6000803e3d6000fd5b505050503373ffffffffffffffffffffffffffffffffffffffff167f0cdc784c25b088063aac81264eca764b27f1ae23aa4ef42c7ecc395cae03f582834260405161054f929190611a07565b60405180910390a2505050565b60008054906101000a900473ffffffffffffffffffffffffffffffffffffffff1673ffffffffffffffffffffffffffffffffffffffff163373ffffffffffffffffffffffffffffffffffffffff16146105ea576040517f08c379a00000000000000000000000000000000000000000000000000000000081526004016105e190611a94565b60405180910390fd5b60006002549050816002819055503373ffffffffffffffffffffffffffffffffffffffff167f73e9d6d9b9f59093c10026af838c807858a65951bb561826b3d579c7d7f3977782844260405161064293929190611b18565b60405180910390a25050565b60025481565b60008054906101000a900473ffffffffffffffffffffffffffffffffffffffff1673ffffffffffffffffffffffffffffffffffffffff163373ffffffffffffffffffffffffffffffffffffffff16146106e2576040517f08c379a00000000000000000000000000000000000000000000000000000000081526004016106d990611a94565b60405180910390fd5b80600160008473ffffffffffffffffffffffffffffffffffffffff1673ffffffffffffffffffffffffffffffffffffffff16815260200190815260200160002060006101000a81548160ff0219169083151502179055508173ffffffffffffffffffffffffffffffffffffffff163373ffffffffffffffffffffffffffffffffffffffff167fa45aa7d1f34e5fdf51d1c244527b5a64174cfe4a3c4f538ff999f13cf2d1b8808342604051610798929190611a4b565b60405180910390a35050565b60008054906101000a900473ffffffffffffffffffffffffffffffffffffffff1673ffffffffffffffffffffffffffffffffffffffff163373ffffffffffffffffffffffffffffffffffffffff1614610832576040517f08c379a000000000000000000000000000000000000000000000000000000000815260040161082990611a94565b60405180910390fd5b60004790503373ffffffffffffffffffffffffffffffffffffffff166108fc829081150290604051600060405180830381858888f1935050505015801561087d573d6000803e3d6000fd5b503373ffffffffffffffffffffffffffffffffffffffff167f82e416ba72d10e709b5de7ac16f5f49ff1d94f22d55bf582d353d3c313a1e8dd82426040516108c6929190611aef565b60405180910390a250565b60008054906101000a900473ffffffffffffffffffffffffffffffffffffffff1673ffffffffffffffffffffffffffffffffffffffff163373ffffffffffffffffffffffffffffffffffffffff161461095f576040517f08c379a000000000000000000000000000000000000000000000000000000000815260040161095690611a94565b60405180910390fd5b6000600160003373ffffffffffffffffffffffffffffffffffffffff1673ffffffffffffffffffffffffffffffffffffffff16815260200190815260200160002060006101000a81548160ff02191690831515021790555060018060008373ffffffffffffffffffffffffffffffffffffffff1673ffffffffffffffffffffffffffffffffffffffff16815260200190815260200160002060006101000a81548160ff021916908315150217905550806000806101000a81548173ffffffffffffffffffffffffffffffffffffffff021916908373ffffffffffffffffffffffffffffffffffffffff1602179055508073ffffffffffffffffffffffffffffffffffffffff163373ffffffffffffffffffffffffffffffffffffffff167fd724df8cf1d08552f896ece20553cd75c168a92f554096b1c7bb9dfc5cd6cb6542604051610aab9190611ad4565b60405180910390a350565b8160008054906101000a900473ffffffffffffffffffffffffffffffffffffffff1673ffffffffffffffffffffffffffffffffffffffff163373ffffffffffffffffffffffffffffffffffffffff161480610b5a5750600160003373ffffffffffffffffffffffffffffffffffffffff1673ffffffffffffffffffffffffffffffffffffffff16815260200190815260200160002060009054906101000a900460ff165b610b99576040517f08c379a0000000000000000000000000000000000000000000000000000000008152600401610b9090611ab4565b60405180910390fd5b3073ffffffffffffffffffffffffffffffffffffffff168173ffffffffffffffffffffffffffffffffffffffff16631865c57d6040518163ffffffff1660e01b815260040160006040518083038186803b158015610bf657600080fd5b505afa158015610c0a573d6000803e3d6000fd5b505050506040513d6000823e3d601f19601f82011682018060405250810190610c339190611799565b60c0015173ffffffffffffffffffffffffffffffffffffffff1614610c8d576040517f08c379a0000000000000000000000000000000000000000000000000000000008152600401610c8490611a74565b60405180910390fd5b6000600254118015610ca157506002544710155b8015610cc4575060008273ffffffffffffffffffffffffffffffffffffffff1631145b15610d67578173ffffffffffffffffffffffffffffffffffffffff166108fc6002549081150290604051600060405180830381858888f19350505050158015610d11573d6000803e3d6000fd5b503373ffffffffffffffffffffffffffffffffffffffff167f558b590c524a3a1cc1cdffc58e9d4b29f9533e4b15aad49b356ac56581501e768360025442604051610d5e939291906119d0565b60405180910390a25b8273ffffffffffffffffffffffffffffffffffffffff16630fcb0ae5836040518263ffffffff1660e01b8152600401610da0919061198c565b600060405180830381600087803b158015610dba57600080fd5b505af1158015610dce573d6000803e3d6000fd5b505050503373ffffffffffffffffffffffffffffffffffffffff167f2e2b67435ee24fd62159192aa2c134e7ef98d33b5e88e5655963adee6ef461d08342604051610e1a9291906119a7565b60405180910390a2505050565b8160008054906101000a900473ffffffffffffffffffffffffffffffffffffffff1673ffffffffffffffffffffffffffffffffffffffff163373ffffffffffffffffffffffffffffffffffffffff161480610ecb5750600160003373ffffffffffffffffffffffffffffffffffffffff1673ffffffffffffffffffffffffffffffffffffffff16815260200190815260200160002060009054906101000a900460ff165b610f0a576040517f08c379a0000000000000000000000000000000000000000000000000000000008152600401610f0190611ab4565b60405180910390fd5b3073ffffffffffffffffffffffffffffffffffffffff168173ffffffffffffffffffffffffffffffffffffffff16631865c57d6040518163ffffffff1660e01b815260040160006040518083038186803b158015610f6757600080fd5b505afa158015610f7b573d6000803e3d6000fd5b505050506040513d6000823e3d601f19601f82011682018060405250810190610fa49190611799565b60c0015173ffffffffffffffffffffffffffffffffffffffff1614610ffe576040517f08c379a0000000000000000000000000000000000000000000000000000000008152600401610ff590611a74565b60405180910390fd5b60005b82518110156110675761105484848381518110611047577f4e487b7100000000000000000000000000000000000000000000000000000000600052603260045260246000fd5b60200260200101516102c5565b808061105f90611cee565b915050611001565b50505050565b60008054906101000a900473ffffffffffffffffffffffffffffffffffffffff1681565b60016020528060005260406000206000915054906101000a900460ff1681565b8160008054906101000a900473ffffffffffffffffffffffffffffffffffffffff1673ffffffffffffffffffffffffffffffffffffffff163373ffffffffffffffffffffffffffffffffffffffff1614806111555750600160003373ffffffffffffffffffffffffffffffffffffffff1673ffffffffffffffffffffffffffffffffffffffff16815260200190815260200160002060009054906101000a900460ff165b611194576040517f08c379a000000000000000000000000000000000000000000000000000000000815260040161118b90611ab4565b60405180910390fd5b3073ffffffffffffffffffffffffffffffffffffffff168173ffffffffffffffffffffffffffffffffffffffff16631865c57d6040518163ffffffff1660e01b815260040160006040518083038186803b1580156111f157600080fd5b505afa158015611205573d6000803e3d6000fd5b505050506040513d6000823e3d601f19601f8201168201806040525081019061122e9190611799565b60c0015173ffffffffffffffffffffffffffffffffffffffff1614611288576040517f08c379a000000000000000000000000000000000000000000000000000000000815260040161127f90611a74565b60405180910390fd5b60005b82518110156112f1576112de848483815181106112d1577f4e487b7100000000000000000000000000000000000000000000000000000000600052603260045260246000fd5b6020026020010151610ab6565b80806112e990611cee565b91505061128b565b50505050565b600061130a61130584611b80565b611b4f565b9050808382526020820190508285602086028201111561132957600080fd5b60005b85811015611359578161133f888261140d565b84526020840193506020830192505060018101905061132c565b5050509392505050565b600061137661137184611bac565b611b4f565b9050808382526020820190508285602086028201111561139557600080fd5b60005b858110156113c557816113ab8882611437565b845260208401935060208301925050600181019050611398565b5050509392505050565b60006113e26113dd84611bd8565b611b4f565b9050828152602081018484840111156113fa57600080fd5b611405848285611cbb565b509392505050565b60008135905061141c81611d95565b92915050565b60008151905061143181611d95565b92915050565b60008135905061144681611dac565b92915050565b600082601f83011261145d57600080fd5b813561146d8482602086016112f7565b91505092915050565b600082601f83011261148757600080fd5b8135611497848260208601611363565b91505092915050565b6000813590506114af81611dc3565b92915050565b6000813590506114c481611dda565b92915050565b600082601f8301126114db57600080fd5b81516114eb8482602086016113cf565b91505092915050565b6000610100828403121561150757600080fd5b611512610100611b4f565b90506000611522848285016115ff565b600083015250602061153684828501611422565b602083015250604082015167ffffffffffffffff81111561155657600080fd5b611562848285016114ca565b604083015250606061157684828501611422565b606083015250608061158a84828501611422565b60808301525060a061159e84828501611422565b60a08301525060c06115b284828501611422565b60c08301525060e082015167ffffffffffffffff8111156115d257600080fd5b6115de848285016114ca565b60e08301525092915050565b6000813590506115f981611df1565b92915050565b60008151905061160e81611df1565b92915050565b60006020828403121561162657600080fd5b60006116348482850161140d565b91505092915050565b6000806040838503121561165057600080fd5b600061165e8582860161140d565b925050602061166f858286016114a0565b9150509250929050565b6000806040838503121561168c57600080fd5b600061169a858286016114b5565b92505060206116ab8582860161140d565b9150509250929050565b600080604083850312156116c857600080fd5b60006116d6858286016114b5565b92505060206116e785828601611437565b9150509250929050565b6000806040838503121561170457600080fd5b6000611712858286016114b5565b925050602083013567ffffffffffffffff81111561172f57600080fd5b61173b8582860161144c565b9150509250929050565b6000806040838503121561175857600080fd5b6000611766858286016114b5565b925050602083013567ffffffffffffffff81111561178357600080fd5b61178f85828601611476565b9150509250929050565b6000602082840312156117ab57600080fd5b600082015167ffffffffffffffff8111156117c557600080fd5b6117d1848285016114f4565b91505092915050565b6000602082840312156117ec57600080fd5b60006117fa848285016115ea565b91505092915050565b61180c81611c85565b82525050565b61181b81611c19565b82525050565b61182a81611c3d565b82525050565b600061183d603983611c08565b91507f57616c6c6574417070726f766572536572766963653a206e6f7420616c6c6f7760008301527f656420746f20617070726f766520666f72206973737565723b000000000000006020830152604082019050919050565b60006118a3602883611c08565b91507f57616c6c6574417070726f766572536572766963653a206e6f74206d6173746560008301527f72206f776e65723b0000000000000000000000000000000000000000000000006020830152604082019050919050565b6000611909603983611c08565b91507f57616c6c6574417070726f766572536572766963653a20617070726f7665722060008301527f6e6f7420696e20616c6c6f77656420617070726f766572733b000000000000006020830152604082019050919050565b61196b81611c7b565b82525050565b60006020820190506119866000830184611812565b92915050565b60006020820190506119a16000830184611803565b92915050565b60006040820190506119bc6000830185611803565b6119c96020830184611962565b9392505050565b60006060820190506119e56000830186611803565b6119f26020830185611962565b6119ff6040830184611962565b949350505050565b6000604082019050611a1c6000830185611812565b611a296020830184611962565b9392505050565b6000602082019050611a456000830184611821565b92915050565b6000604082019050611a606000830185611821565b611a6d6020830184611962565b9392505050565b60006020820190508181036000830152611a8d81611830565b9050919050565b60006020820190508181036000830152611aad81611896565b9050919050565b60006020820190508181036000830152611acd816118fc565b9050919050565b6000602082019050611ae96000830184611962565b92915050565b6000604082019050611b046000830185611962565b611b116020830184611962565b9392505050565b6000606082019050611b2d6000830186611962565b611b3a6020830185611962565b611b476040830184611962565b949350505050565b6000604051905081810181811067ffffffffffffffff82111715611b7657611b75611d66565b5b8060405250919050565b600067ffffffffffffffff821115611b9b57611b9a611d66565b5b602082029050602081019050919050565b600067ffffffffffffffff821115611bc757611bc6611d66565b5b602082029050602081019050919050565b600067ffffffffffffffff821115611bf357611bf2611d66565b5b601f19601f8301169050602081019050919050565b600082825260208201905092915050565b6000611c2482611c5b565b9050919050565b6000611c3682611c5b565b9050919050565b60008115159050919050565b6000611c5482611c19565b9050919050565b600073ffffffffffffffffffffffffffffffffffffffff82169050919050565b6000819050919050565b6000611c9082611c97565b9050919050565b6000611ca282611ca9565b9050919050565b6000611cb482611c5b565b9050919050565b60005b83811015611cd9578082015181840152602081019050611cbe565b83811115611ce8576000848401525b50505050565b6000611cf982611c7b565b91507fffffffffffffffffffffffffffffffffffffffffffffffffffffffffffffffff821415611d2c57611d2b611d37565b5b600182019050919050565b7f4e487b7100000000000000000000000000000000000000000000000000000000600052601160045260246000fd5b7f4e487b7100000000000000000000000000000000000000000000000000000000600052604160045260246000fd5b611d9e81611c19565b8114611da957600080fd5b50565b611db581611c2b565b8114611dc057600080fd5b50565b611dcc81611c3d565b8114611dd757600080fd5b50565b611de381611c49565b8114611dee57600080fd5b50565b611dfa81611c7b565b8114611e0557600080fd5b5056fea26469706673582212201d9105d40172c725a33c366628ef85f520db592c7ea9fd98220b564d3aa79d3e64736f6c63430008000033",
  "linkReferences": {},
  "deployedLinkReferences": {}
}