{
  "_format": "hh-sol-artifact-1",
  "contractName": "QueryService",
  "sourceName": "contracts/services/QueryService.sol",
  "abi": [
    {
      "inputs": [
        {
          "internalType": "address",
          "name": "issuer",
          "type": "address"
        },
        {
          "internalType": "address",
          "name": "cfManagerFactoryAddress",
          "type": "address"
        }
      ],
      "name": "getCampaignsForIssuer",
      "outputs": [
        {
          "components": [
            {
              "internalType": "uint256",
              "name": "id",
              "type": "uint256"
            },
            {
              "internalType": "address",
              "name": "contractAddress",
              "type": "address"
            },
            {
              "internalType": "string",
              "name": "ansName",
              "type": "string"
            },
            {
              "internalType": "uint256",
              "name": "ansId",
              "type": "uint256"
            },
            {
              "internalType": "address",
              "name": "createdBy",
              "type": "address"
            },
            {
              "internalType": "address",
              "name": "owner",
              "type": "address"
            },
            {
              "internalType": "address",
              "name": "asset",
              "type": "address"
            },
            {
              "internalType": "address",
              "name": "issuer",
              "type": "address"
            },
            {
              "internalType": "uint256",
              "name": "tokenPrice",
              "type": "uint256"
            },
            {
              "internalType": "uint256",
              "name": "softCap",
              "type": "uint256"
            },
            {
              "internalType": "uint256",
              "name": "minInvestment",
              "type": "uint256"
            },
            {
              "internalType": "uint256",
              "name": "maxInvestment",
              "type": "uint256"
            },
            {
              "internalType": "bool",
              "name": "whitelistRequired",
              "type": "bool"
            },
            {
              "internalType": "bool",
              "name": "finalized",
              "type": "bool"
            },
            {
              "internalType": "bool",
              "name": "cancelled",
              "type": "bool"
            },
            {
              "internalType": "uint256",
              "name": "totalClaimableTokens",
              "type": "uint256"
            },
            {
              "internalType": "uint256",
              "name": "totalInvestorsCount",
              "type": "uint256"
            },
            {
              "internalType": "uint256",
              "name": "totalClaimsCount",
              "type": "uint256"
            },
            {
              "internalType": "uint256",
              "name": "totalFundsRaised",
              "type": "uint256"
            },
            {
              "internalType": "uint256",
              "name": "totalTokensSold",
              "type": "uint256"
            },
            {
              "internalType": "uint256",
              "name": "totalTokensBalance",
              "type": "uint256"
            },
            {
              "internalType": "string",
              "name": "info",
              "type": "string"
            }
          ],
          "internalType": "struct Structs.CfManagerSoftcapState[]",
          "name": "",
          "type": "tuple[]"
        }
      ],
      "stateMutability": "view",
      "type": "function"
    },
    {
      "inputs": [
        {
          "internalType": "address",
          "name": "issuer",
          "type": "address"
        },
        {
          "internalType": "address",
          "name": "investor",
          "type": "address"
        },
        {
          "internalType": "address",
          "name": "cfManagerFactoryAddress",
          "type": "address"
        }
      ],
      "name": "getCampaignsForIssuerInvestor",
      "outputs": [
        {
          "components": [
            {
              "components": [
                {
                  "internalType": "uint256",
                  "name": "id",
                  "type": "uint256"
                },
                {
                  "internalType": "address",
                  "name": "contractAddress",
                  "type": "address"
                },
                {
                  "internalType": "string",
                  "name": "ansName",
                  "type": "string"
                },
                {
                  "internalType": "uint256",
                  "name": "ansId",
                  "type": "uint256"
                },
                {
                  "internalType": "address",
                  "name": "createdBy",
                  "type": "address"
                },
                {
                  "internalType": "address",
                  "name": "owner",
                  "type": "address"
                },
                {
                  "internalType": "address",
                  "name": "asset",
                  "type": "address"
                },
                {
                  "internalType": "address",
                  "name": "issuer",
                  "type": "address"
                },
                {
                  "internalType": "uint256",
                  "name": "tokenPrice",
                  "type": "uint256"
                },
                {
                  "internalType": "uint256",
                  "name": "softCap",
                  "type": "uint256"
                },
                {
                  "internalType": "uint256",
                  "name": "minInvestment",
                  "type": "uint256"
                },
                {
                  "internalType": "uint256",
                  "name": "maxInvestment",
                  "type": "uint256"
                },
                {
                  "internalType": "bool",
                  "name": "whitelistRequired",
                  "type": "bool"
                },
                {
                  "internalType": "bool",
                  "name": "finalized",
                  "type": "bool"
                },
                {
                  "internalType": "bool",
                  "name": "cancelled",
                  "type": "bool"
                },
                {
                  "internalType": "uint256",
                  "name": "totalClaimableTokens",
                  "type": "uint256"
                },
                {
                  "internalType": "uint256",
                  "name": "totalInvestorsCount",
                  "type": "uint256"
                },
                {
                  "internalType": "uint256",
                  "name": "totalClaimsCount",
                  "type": "uint256"
                },
                {
                  "internalType": "uint256",
                  "name": "totalFundsRaised",
                  "type": "uint256"
                },
                {
                  "internalType": "uint256",
                  "name": "totalTokensSold",
                  "type": "uint256"
                },
                {
                  "internalType": "uint256",
                  "name": "totalTokensBalance",
                  "type": "uint256"
                },
                {
                  "internalType": "string",
                  "name": "info",
                  "type": "string"
                }
              ],
              "internalType": "struct Structs.CfManagerSoftcapState",
              "name": "campaign",
              "type": "tuple"
            },
            {
              "internalType": "uint256",
              "name": "tokenAmount",
              "type": "uint256"
            },
            {
              "internalType": "uint256",
              "name": "tokenValue",
              "type": "uint256"
            }
          ],
          "internalType": "struct QueryService.CampaignWithInvestmentState[]",
          "name": "",
          "type": "tuple[]"
        }
      ],
      "stateMutability": "view",
      "type": "function"
    }
  ],
  "bytecode": "0x608060405234801561001057600080fd5b50611338806100206000396000f3fe608060405234801561001057600080fd5b50600436106100365760003560e01c8063cc003d591461003b578063edc6ce741461006b575b600080fd5b61005560048036038101906100509190610b26565b61009b565b604051610062919061104d565b60405180910390f35b61008560048036038101906100809190610b62565b6102e6565b604051610092919061102b565b60405180910390f35b6060600082905060008173ffffffffffffffffffffffffffffffffffffffff1663238c3a90866040518263ffffffff1660e01b81526004016100dd9190611010565b60006040518083038186803b1580156100f557600080fd5b505afa158015610109573d6000803e3d6000fd5b505050506040513d6000823e3d601f19601f820116820180604052508101906101329190610bb1565b90506000815167ffffffffffffffff811115610177577f4e487b7100000000000000000000000000000000000000000000000000000000600052604160045260246000fd5b6040519080825280602002602001820160405280156101b057816020015b61019d610668565b8152602001906001900390816101955790505b50905060005b82518110156102d9578281815181106101f8577f4e487b7100000000000000000000000000000000000000000000000000000000600052603260045260246000fd5b602002602001015173ffffffffffffffffffffffffffffffffffffffff16631865c57d6040518163ffffffff1660e01b815260040160006040518083038186803b15801561024557600080fd5b505afa158015610259573d6000803e3d6000fd5b505050506040513d6000823e3d601f19601f820116820180604052508101906102829190610bf2565b8282815181106102bb577f4e487b7100000000000000000000000000000000000000000000000000000000600052603260045260246000fd5b602002602001018190525080806102d190611205565b9150506101b6565b5080935050505092915050565b6060600082905060008173ffffffffffffffffffffffffffffffffffffffff1663238c3a90876040518263ffffffff1660e01b81526004016103289190611010565b60006040518083038186803b15801561034057600080fd5b505afa158015610354573d6000803e3d6000fd5b505050506040513d6000823e3d601f19601f8201168201806040525081019061037d9190610bb1565b90506000815167ffffffffffffffff8111156103c2577f4e487b7100000000000000000000000000000000000000000000000000000000600052604160045260246000fd5b6040519080825280602002602001820160405280156103fb57816020015b6103e8610783565b8152602001906001900390816103e05790505b50905060005b825181101561065a576000838281518110610445577f4e487b7100000000000000000000000000000000000000000000000000000000600052603260045260246000fd5b6020026020010151905060008173ffffffffffffffffffffffffffffffffffffffff16631865c57d6040518163ffffffff1660e01b815260040160006040518083038186803b15801561049757600080fd5b505afa1580156104ab573d6000803e3d6000fd5b505050506040513d6000823e3d601f19601f820116820180604052508101906104d49190610bf2565b905060405180606001604052808281526020018373ffffffffffffffffffffffffffffffffffffffff1663a0e2e5f68c6040518263ffffffff1660e01b81526004016105209190611010565b60206040518083038186803b15801561053857600080fd5b505afa15801561054c573d6000803e3d6000fd5b505050506040513d601f19601f820116820180604052508101906105709190610c33565b81526020018373ffffffffffffffffffffffffffffffffffffffff166396b988628c6040518263ffffffff1660e01b81526004016105ae9190611010565b60206040518083038186803b1580156105c657600080fd5b505afa1580156105da573d6000803e3d6000fd5b505050506040513d601f19601f820116820180604052508101906105fe9190610c33565b81525084848151811061063a577f4e487b7100000000000000000000000000000000000000000000000000000000600052603260045260246000fd5b60200260200101819052505050808061065290611205565b915050610401565b508093505050509392505050565b604051806102c0016040528060008152602001600073ffffffffffffffffffffffffffffffffffffffff1681526020016060815260200160008152602001600073ffffffffffffffffffffffffffffffffffffffff168152602001600073ffffffffffffffffffffffffffffffffffffffff168152602001600073ffffffffffffffffffffffffffffffffffffffff168152602001600073ffffffffffffffffffffffffffffffffffffffff16815260200160008152602001600081526020016000815260200160008152602001600015158152602001600015158152602001600015158152602001600081526020016000815260200160008152602001600081526020016000815260200160008152602001606081525090565b6040518060600160405280610796610668565b815260200160008152602001600081525090565b60006107bd6107b8846110a0565b61106f565b905080838252602082019050828560208602820111156107dc57600080fd5b60005b8581101561080c57816107f28882610869565b8452602084019350602083019250506001810190506107df565b5050509392505050565b6000610829610824846110cc565b61106f565b90508281526020810184848401111561084157600080fd5b61084c8482856111d2565b509392505050565b600081359050610863816112bd565b92915050565b600081519050610878816112bd565b92915050565b600082601f83011261088f57600080fd5b815161089f8482602086016107aa565b91505092915050565b6000815190506108b7816112d4565b92915050565b600082601f8301126108ce57600080fd5b81516108de848260208601610816565b91505092915050565b60006102c082840312156108fa57600080fd5b6109056102c061106f565b9050600061091584828501610b11565b600083015250602061092984828501610869565b602083015250604082015167ffffffffffffffff81111561094957600080fd5b610955848285016108bd565b604083015250606061096984828501610b11565b606083015250608061097d84828501610869565b60808301525060a061099184828501610869565b60a08301525060c06109a584828501610869565b60c08301525060e06109b984828501610869565b60e0830152506101006109ce84828501610b11565b610100830152506101206109e484828501610b11565b610120830152506101406109fa84828501610b11565b61014083015250610160610a1084828501610b11565b61016083015250610180610a26848285016108a8565b610180830152506101a0610a3c848285016108a8565b6101a0830152506101c0610a52848285016108a8565b6101c0830152506101e0610a6884828501610b11565b6101e083015250610200610a7e84828501610b11565b61020083015250610220610a9484828501610b11565b61022083015250610240610aaa84828501610b11565b61024083015250610260610ac084828501610b11565b61026083015250610280610ad684828501610b11565b610280830152506102a082015167ffffffffffffffff811115610af857600080fd5b610b04848285016108bd565b6102a08301525092915050565b600081519050610b20816112eb565b92915050565b60008060408385031215610b3957600080fd5b6000610b4785828601610854565b9250506020610b5885828601610854565b9150509250929050565b600080600060608486031215610b7757600080fd5b6000610b8586828701610854565b9350506020610b9686828701610854565b9250506040610ba786828701610854565b9150509250925092565b600060208284031215610bc357600080fd5b600082015167ffffffffffffffff811115610bdd57600080fd5b610be98482850161087e565b91505092915050565b600060208284031215610c0457600080fd5b600082015167ffffffffffffffff811115610c1e57600080fd5b610c2a848285016108e7565b91505092915050565b600060208284031215610c4557600080fd5b6000610c5384828501610b11565b91505092915050565b6000610c688383610dd4565b905092915050565b6000610c7c8383610e24565b905092915050565b610c8d8161118a565b82525050565b610c9c8161118a565b82525050565b6000610cad8261111c565b610cb78185611157565b935083602082028501610cc9856110fc565b8060005b85811015610d055784840389528151610ce68582610c5c565b9450610cf18361113d565b925060208a01995050600181019050610ccd565b50829750879550505050505092915050565b6000610d2282611127565b610d2c8185611168565b935083602082028501610d3e8561110c565b8060005b85811015610d7a5784840389528151610d5b8582610c70565b9450610d668361114a565b925060208a01995050600181019050610d42565b50829750879550505050505092915050565b610d958161119c565b82525050565b6000610da682611132565b610db08185611179565b9350610dc08185602086016111d2565b610dc9816112ac565b840191505092915050565b60006060830160008301518482036000860152610df18282610e24565b9150506020830151610e066020860182611001565b506040830151610e196040860182611001565b508091505092915050565b60006102c083016000830151610e3d6000860182611001565b506020830151610e506020860182610c84565b5060408301518482036040860152610e688282610d9b565b9150506060830151610e7d6060860182611001565b506080830151610e906080860182610c84565b5060a0830151610ea360a0860182610c84565b5060c0830151610eb660c0860182610c84565b5060e0830151610ec960e0860182610c84565b50610100830151610ede610100860182611001565b50610120830151610ef3610120860182611001565b50610140830151610f08610140860182611001565b50610160830151610f1d610160860182611001565b50610180830151610f32610180860182610d8c565b506101a0830151610f476101a0860182610d8c565b506101c0830151610f5c6101c0860182610d8c565b506101e0830151610f716101e0860182611001565b50610200830151610f86610200860182611001565b50610220830151610f9b610220860182611001565b50610240830151610fb0610240860182611001565b50610260830151610fc5610260860182611001565b50610280830151610fda610280860182611001565b506102a08301518482036102a0860152610ff48282610d9b565b9150508091505092915050565b61100a816111c8565b82525050565b60006020820190506110256000830184610c93565b92915050565b600060208201905081810360008301526110458184610ca2565b905092915050565b600060208201905081810360008301526110678184610d17565b905092915050565b6000604051905081810181811067ffffffffffffffff821117156110965761109561127d565b5b8060405250919050565b600067ffffffffffffffff8211156110bb576110ba61127d565b5b602082029050602081019050919050565b600067ffffffffffffffff8211156110e7576110e661127d565b5b601f19601f8301169050602081019050919050565b6000819050602082019050919050565b6000819050602082019050919050565b600081519050919050565b600081519050919050565b600081519050919050565b6000602082019050919050565b6000602082019050919050565b600082825260208201905092915050565b600082825260208201905092915050565b600082825260208201905092915050565b6000611195826111a8565b9050919050565b60008115159050919050565b600073ffffffffffffffffffffffffffffffffffffffff82169050919050565b6000819050919050565b60005b838110156111f05780820151818401526020810190506111d5565b838111156111ff576000848401525b50505050565b6000611210826111c8565b91507fffffffffffffffffffffffffffffffffffffffffffffffffffffffffffffffff8214156112435761124261124e565b5b600182019050919050565b7f4e487b7100000000000000000000000000000000000000000000000000000000600052601160045260246000fd5b7f4e487b7100000000000000000000000000000000000000000000000000000000600052604160045260246000fd5b6000601f19601f8301169050919050565b6112c68161118a565b81146112d157600080fd5b50565b6112dd8161119c565b81146112e857600080fd5b50565b6112f4816111c8565b81146112ff57600080fd5b5056fea2646970667358221220c0c6fa7d9f6e4a1c0cecd0080e32192831dd6a32130b5473f02e0d6354861cd764736f6c63430008000033",
  "linkReferences": {},
  "deployedLinkReferences": {}
}