{
  "_format": "hh-sol-artifact-1",
  "contractName": "QueryService",
  "sourceName": "contracts/services/QueryService.sol",
  "abi": [
    {
      "inputs": [
        {
          "internalType": "address",
          "name": "issuer",
          "type": "address"
        },
        {
          "internalType": "address",
          "name": "cfManagerFactoryAddress",
          "type": "address"
        }
      ],
      "name": "getCampaignsForIssuer",
      "outputs": [
        {
          "components": [
            {
              "internalType": "uint256",
              "name": "id",
              "type": "uint256"
            },
            {
              "internalType": "address",
              "name": "contractAddress",
              "type": "address"
            },
            {
              "internalType": "string",
              "name": "ansName",
              "type": "string"
            },
            {
              "internalType": "uint256",
              "name": "ansId",
              "type": "uint256"
            },
            {
              "internalType": "address",
              "name": "createdBy",
              "type": "address"
            },
            {
              "internalType": "address",
              "name": "owner",
              "type": "address"
            },
            {
              "internalType": "address",
              "name": "asset",
              "type": "address"
            },
            {
              "internalType": "address",
              "name": "assetFactory",
              "type": "address"
            },
            {
              "internalType": "address",
              "name": "issuer",
              "type": "address"
            },
            {
              "internalType": "uint256",
              "name": "tokenPrice",
              "type": "uint256"
            },
            {
              "internalType": "uint256",
              "name": "softCap",
              "type": "uint256"
            },
            {
              "internalType": "uint256",
              "name": "minInvestment",
              "type": "uint256"
            },
            {
              "internalType": "uint256",
              "name": "maxInvestment",
              "type": "uint256"
            },
            {
              "internalType": "bool",
              "name": "whitelistRequired",
              "type": "bool"
            },
            {
              "internalType": "bool",
              "name": "finalized",
              "type": "bool"
            },
            {
              "internalType": "bool",
              "name": "cancelled",
              "type": "bool"
            },
            {
              "internalType": "uint256",
              "name": "totalClaimableTokens",
              "type": "uint256"
            },
            {
              "internalType": "uint256",
              "name": "totalInvestorsCount",
              "type": "uint256"
            },
            {
              "internalType": "uint256",
              "name": "totalClaimsCount",
              "type": "uint256"
            },
            {
              "internalType": "uint256",
              "name": "totalFundsRaised",
              "type": "uint256"
            },
            {
              "internalType": "uint256",
              "name": "totalTokensSold",
              "type": "uint256"
            },
            {
              "internalType": "uint256",
              "name": "totalTokensBalance",
              "type": "uint256"
            },
            {
              "internalType": "string",
              "name": "info",
              "type": "string"
            }
          ],
          "internalType": "struct Structs.CfManagerSoftcapState[]",
          "name": "",
          "type": "tuple[]"
        }
      ],
      "stateMutability": "view",
      "type": "function"
    },
    {
      "inputs": [
        {
          "internalType": "address",
          "name": "issuer",
          "type": "address"
        },
        {
          "internalType": "address",
          "name": "investor",
          "type": "address"
        },
        {
          "internalType": "address",
          "name": "cfManagerFactoryAddress",
          "type": "address"
        }
      ],
      "name": "getCampaignsForIssuerInvestor",
      "outputs": [
        {
          "components": [
            {
              "components": [
                {
                  "internalType": "uint256",
                  "name": "id",
                  "type": "uint256"
                },
                {
                  "internalType": "address",
                  "name": "contractAddress",
                  "type": "address"
                },
                {
                  "internalType": "string",
                  "name": "ansName",
                  "type": "string"
                },
                {
                  "internalType": "uint256",
                  "name": "ansId",
                  "type": "uint256"
                },
                {
                  "internalType": "address",
                  "name": "createdBy",
                  "type": "address"
                },
                {
                  "internalType": "address",
                  "name": "owner",
                  "type": "address"
                },
                {
                  "internalType": "address",
                  "name": "asset",
                  "type": "address"
                },
                {
                  "internalType": "address",
                  "name": "assetFactory",
                  "type": "address"
                },
                {
                  "internalType": "address",
                  "name": "issuer",
                  "type": "address"
                },
                {
                  "internalType": "uint256",
                  "name": "tokenPrice",
                  "type": "uint256"
                },
                {
                  "internalType": "uint256",
                  "name": "softCap",
                  "type": "uint256"
                },
                {
                  "internalType": "uint256",
                  "name": "minInvestment",
                  "type": "uint256"
                },
                {
                  "internalType": "uint256",
                  "name": "maxInvestment",
                  "type": "uint256"
                },
                {
                  "internalType": "bool",
                  "name": "whitelistRequired",
                  "type": "bool"
                },
                {
                  "internalType": "bool",
                  "name": "finalized",
                  "type": "bool"
                },
                {
                  "internalType": "bool",
                  "name": "cancelled",
                  "type": "bool"
                },
                {
                  "internalType": "uint256",
                  "name": "totalClaimableTokens",
                  "type": "uint256"
                },
                {
                  "internalType": "uint256",
                  "name": "totalInvestorsCount",
                  "type": "uint256"
                },
                {
                  "internalType": "uint256",
                  "name": "totalClaimsCount",
                  "type": "uint256"
                },
                {
                  "internalType": "uint256",
                  "name": "totalFundsRaised",
                  "type": "uint256"
                },
                {
                  "internalType": "uint256",
                  "name": "totalTokensSold",
                  "type": "uint256"
                },
                {
                  "internalType": "uint256",
                  "name": "totalTokensBalance",
                  "type": "uint256"
                },
                {
                  "internalType": "string",
                  "name": "info",
                  "type": "string"
                }
              ],
              "internalType": "struct Structs.CfManagerSoftcapState",
              "name": "campaign",
              "type": "tuple"
            },
            {
              "internalType": "uint256",
              "name": "tokenAmount",
              "type": "uint256"
            },
            {
              "internalType": "uint256",
              "name": "tokenValue",
              "type": "uint256"
            }
          ],
          "internalType": "struct QueryService.CampaignWithInvestmentState[]",
          "name": "",
          "type": "tuple[]"
        }
      ],
      "stateMutability": "view",
      "type": "function"
    }
  ],
  "bytecode": "0x608060405234801561001057600080fd5b50611380806100206000396000f3fe608060405234801561001057600080fd5b50600436106100365760003560e01c8063cc003d591461003b578063edc6ce741461006b575b600080fd5b61005560048036038101906100509190610b59565b61009b565b6040516100629190611095565b60405180910390f35b61008560048036038101906100809190610b95565b6102e6565b6040516100929190611073565b60405180910390f35b6060600082905060008173ffffffffffffffffffffffffffffffffffffffff1663238c3a90866040518263ffffffff1660e01b81526004016100dd9190611058565b60006040518083038186803b1580156100f557600080fd5b505afa158015610109573d6000803e3d6000fd5b505050506040513d6000823e3d601f19601f820116820180604052508101906101329190610be4565b90506000815167ffffffffffffffff811115610177577f4e487b7100000000000000000000000000000000000000000000000000000000600052604160045260246000fd5b6040519080825280602002602001820160405280156101b057816020015b61019d610668565b8152602001906001900390816101955790505b50905060005b82518110156102d9578281815181106101f8577f4e487b7100000000000000000000000000000000000000000000000000000000600052603260045260246000fd5b602002602001015173ffffffffffffffffffffffffffffffffffffffff16631865c57d6040518163ffffffff1660e01b815260040160006040518083038186803b15801561024557600080fd5b505afa158015610259573d6000803e3d6000fd5b505050506040513d6000823e3d601f19601f820116820180604052508101906102829190610c25565b8282815181106102bb577f4e487b7100000000000000000000000000000000000000000000000000000000600052603260045260246000fd5b602002602001018190525080806102d19061124d565b9150506101b6565b5080935050505092915050565b6060600082905060008173ffffffffffffffffffffffffffffffffffffffff1663238c3a90876040518263ffffffff1660e01b81526004016103289190611058565b60006040518083038186803b15801561034057600080fd5b505afa158015610354573d6000803e3d6000fd5b505050506040513d6000823e3d601f19601f8201168201806040525081019061037d9190610be4565b90506000815167ffffffffffffffff8111156103c2577f4e487b7100000000000000000000000000000000000000000000000000000000600052604160045260246000fd5b6040519080825280602002602001820160405280156103fb57816020015b6103e86107a0565b8152602001906001900390816103e05790505b50905060005b825181101561065a576000838281518110610445577f4e487b7100000000000000000000000000000000000000000000000000000000600052603260045260246000fd5b6020026020010151905060008173ffffffffffffffffffffffffffffffffffffffff16631865c57d6040518163ffffffff1660e01b815260040160006040518083038186803b15801561049757600080fd5b505afa1580156104ab573d6000803e3d6000fd5b505050506040513d6000823e3d601f19601f820116820180604052508101906104d49190610c25565b905060405180606001604052808281526020018373ffffffffffffffffffffffffffffffffffffffff1663a0e2e5f68c6040518263ffffffff1660e01b81526004016105209190611058565b60206040518083038186803b15801561053857600080fd5b505afa15801561054c573d6000803e3d6000fd5b505050506040513d601f19601f820116820180604052508101906105709190610c66565b81526020018373ffffffffffffffffffffffffffffffffffffffff166396b988628c6040518263ffffffff1660e01b81526004016105ae9190611058565b60206040518083038186803b1580156105c657600080fd5b505afa1580156105da573d6000803e3d6000fd5b505050506040513d601f19601f820116820180604052508101906105fe9190610c66565b81525084848151811061063a577f4e487b7100000000000000000000000000000000000000000000000000000000600052603260045260246000fd5b6020026020010181905250505080806106529061124d565b915050610401565b508093505050509392505050565b604051806102e0016040528060008152602001600073ffffffffffffffffffffffffffffffffffffffff1681526020016060815260200160008152602001600073ffffffffffffffffffffffffffffffffffffffff168152602001600073ffffffffffffffffffffffffffffffffffffffff168152602001600073ffffffffffffffffffffffffffffffffffffffff168152602001600073ffffffffffffffffffffffffffffffffffffffff168152602001600073ffffffffffffffffffffffffffffffffffffffff16815260200160008152602001600081526020016000815260200160008152602001600015158152602001600015158152602001600015158152602001600081526020016000815260200160008152602001600081526020016000815260200160008152602001606081525090565b60405180606001604052806107b3610668565b815260200160008152602001600081525090565b60006107da6107d5846110e8565b6110b7565b905080838252602082019050828560208602820111156107f957600080fd5b60005b85811015610829578161080f8882610886565b8452602084019350602083019250506001810190506107fc565b5050509392505050565b600061084661084184611114565b6110b7565b90508281526020810184848401111561085e57600080fd5b61086984828561121a565b509392505050565b60008135905061088081611305565b92915050565b60008151905061089581611305565b92915050565b600082601f8301126108ac57600080fd5b81516108bc8482602086016107c7565b91505092915050565b6000815190506108d48161131c565b92915050565b600082601f8301126108eb57600080fd5b81516108fb848260208601610833565b91505092915050565b60006102e0828403121561091757600080fd5b6109226102e06110b7565b9050600061093284828501610b44565b600083015250602061094684828501610886565b602083015250604082015167ffffffffffffffff81111561096657600080fd5b610972848285016108da565b604083015250606061098684828501610b44565b606083015250608061099a84828501610886565b60808301525060a06109ae84828501610886565b60a08301525060c06109c284828501610886565b60c08301525060e06109d684828501610886565b60e0830152506101006109eb84828501610886565b61010083015250610120610a0184828501610b44565b61012083015250610140610a1784828501610b44565b61014083015250610160610a2d84828501610b44565b61016083015250610180610a4384828501610b44565b610180830152506101a0610a59848285016108c5565b6101a0830152506101c0610a6f848285016108c5565b6101c0830152506101e0610a85848285016108c5565b6101e083015250610200610a9b84828501610b44565b61020083015250610220610ab184828501610b44565b61022083015250610240610ac784828501610b44565b61024083015250610260610add84828501610b44565b61026083015250610280610af384828501610b44565b610280830152506102a0610b0984828501610b44565b6102a0830152506102c082015167ffffffffffffffff811115610b2b57600080fd5b610b37848285016108da565b6102c08301525092915050565b600081519050610b5381611333565b92915050565b60008060408385031215610b6c57600080fd5b6000610b7a85828601610871565b9250506020610b8b85828601610871565b9150509250929050565b600080600060608486031215610baa57600080fd5b6000610bb886828701610871565b9350506020610bc986828701610871565b9250506040610bda86828701610871565b9150509250925092565b600060208284031215610bf657600080fd5b600082015167ffffffffffffffff811115610c1057600080fd5b610c1c8482850161089b565b91505092915050565b600060208284031215610c3757600080fd5b600082015167ffffffffffffffff811115610c5157600080fd5b610c5d84828501610904565b91505092915050565b600060208284031215610c7857600080fd5b6000610c8684828501610b44565b91505092915050565b6000610c9b8383610e07565b905092915050565b6000610caf8383610e57565b905092915050565b610cc0816111d2565b82525050565b610ccf816111d2565b82525050565b6000610ce082611164565b610cea818561119f565b935083602082028501610cfc85611144565b8060005b85811015610d385784840389528151610d198582610c8f565b9450610d2483611185565b925060208a01995050600181019050610d00565b50829750879550505050505092915050565b6000610d558261116f565b610d5f81856111b0565b935083602082028501610d7185611154565b8060005b85811015610dad5784840389528151610d8e8582610ca3565b9450610d9983611192565b925060208a01995050600181019050610d75565b50829750879550505050505092915050565b610dc8816111e4565b82525050565b6000610dd98261117a565b610de381856111c1565b9350610df381856020860161121a565b610dfc816112f4565b840191505092915050565b60006060830160008301518482036000860152610e248282610e57565b9150506020830151610e396020860182611049565b506040830151610e4c6040860182611049565b508091505092915050565b60006102e083016000830151610e706000860182611049565b506020830151610e836020860182610cb7565b5060408301518482036040860152610e9b8282610dce565b9150506060830151610eb06060860182611049565b506080830151610ec36080860182610cb7565b5060a0830151610ed660a0860182610cb7565b5060c0830151610ee960c0860182610cb7565b5060e0830151610efc60e0860182610cb7565b50610100830151610f11610100860182610cb7565b50610120830151610f26610120860182611049565b50610140830151610f3b610140860182611049565b50610160830151610f50610160860182611049565b50610180830151610f65610180860182611049565b506101a0830151610f7a6101a0860182610dbf565b506101c0830151610f8f6101c0860182610dbf565b506101e0830151610fa46101e0860182610dbf565b50610200830151610fb9610200860182611049565b50610220830151610fce610220860182611049565b50610240830151610fe3610240860182611049565b50610260830151610ff8610260860182611049565b5061028083015161100d610280860182611049565b506102a08301516110226102a0860182611049565b506102c08301518482036102c086015261103c8282610dce565b9150508091505092915050565b61105281611210565b82525050565b600060208201905061106d6000830184610cc6565b92915050565b6000602082019050818103600083015261108d8184610cd5565b905092915050565b600060208201905081810360008301526110af8184610d4a565b905092915050565b6000604051905081810181811067ffffffffffffffff821117156110de576110dd6112c5565b5b8060405250919050565b600067ffffffffffffffff821115611103576111026112c5565b5b602082029050602081019050919050565b600067ffffffffffffffff82111561112f5761112e6112c5565b5b601f19601f8301169050602081019050919050565b6000819050602082019050919050565b6000819050602082019050919050565b600081519050919050565b600081519050919050565b600081519050919050565b6000602082019050919050565b6000602082019050919050565b600082825260208201905092915050565b600082825260208201905092915050565b600082825260208201905092915050565b60006111dd826111f0565b9050919050565b60008115159050919050565b600073ffffffffffffffffffffffffffffffffffffffff82169050919050565b6000819050919050565b60005b8381101561123857808201518184015260208101905061121d565b83811115611247576000848401525b50505050565b600061125882611210565b91507fffffffffffffffffffffffffffffffffffffffffffffffffffffffffffffffff82141561128b5761128a611296565b5b600182019050919050565b7f4e487b7100000000000000000000000000000000000000000000000000000000600052601160045260246000fd5b7f4e487b7100000000000000000000000000000000000000000000000000000000600052604160045260246000fd5b6000601f19601f8301169050919050565b61130e816111d2565b811461131957600080fd5b50565b611325816111e4565b811461133057600080fd5b50565b61133c81611210565b811461134757600080fd5b5056fea264697066735822122028c96a62bfc1b207eba0223fa4533fb45694b8d3641d18beee3ef5cbc5239ea864736f6c63430008000033",
  "linkReferences": {},
  "deployedLinkReferences": {}
}