{
  "_format": "hh-sol-artifact-1",
  "contractName": "MirroredToken",
  "sourceName": "contracts/apx-protocol/MirroredToken.sol",
  "abi": [
    {
      "inputs": [
        {
          "internalType": "string",
          "name": "_name",
          "type": "string"
        },
        {
          "internalType": "string",
          "name": "_symbol",
          "type": "string"
        },
        {
          "internalType": "address",
          "name": "_priceProvider",
          "type": "address"
        },
        {
          "internalType": "contract IAsset",
          "name": "_originalToken",
          "type": "address"
        },
        {
          "internalType": "address",
          "name": "_childChainManager",
          "type": "address"
        }
      ],
      "stateMutability": "nonpayable",
      "type": "constructor"
    },
    {
      "anonymous": false,
      "inputs": [
        {
          "indexed": true,
          "internalType": "address",
          "name": "owner",
          "type": "address"
        },
        {
          "indexed": true,
          "internalType": "address",
          "name": "spender",
          "type": "address"
        },
        {
          "indexed": false,
          "internalType": "uint256",
          "name": "value",
          "type": "uint256"
        }
      ],
      "name": "Approval",
      "type": "event"
    },
    {
      "anonymous": false,
      "inputs": [
        {
          "indexed": true,
          "internalType": "address",
          "name": "wallet",
          "type": "address"
        },
        {
          "indexed": false,
          "internalType": "uint256",
          "name": "amount",
          "type": "uint256"
        },
        {
          "indexed": false,
          "internalType": "address",
          "name": "originalToken",
          "type": "address"
        },
        {
          "indexed": false,
          "internalType": "uint256",
          "name": "timestamp",
          "type": "uint256"
        }
      ],
      "name": "BurnMirrored",
      "type": "event"
    },
    {
      "anonymous": false,
      "inputs": [
        {
          "indexed": false,
          "internalType": "address",
          "name": "investor",
          "type": "address"
        },
        {
          "indexed": false,
          "internalType": "address",
          "name": "originalAsset",
          "type": "address"
        },
        {
          "indexed": false,
          "internalType": "uint256",
          "name": "amount",
          "type": "uint256"
        },
        {
          "indexed": false,
          "internalType": "uint256",
          "name": "timestamp",
          "type": "uint256"
        }
      ],
      "name": "ClaimLiquidationShare",
      "type": "event"
    },
    {
      "anonymous": false,
      "inputs": [
        {
          "indexed": false,
          "internalType": "address",
          "name": "originalAsset",
          "type": "address"
        },
        {
          "indexed": false,
          "internalType": "uint256",
          "name": "liquidatedTokensAmount",
          "type": "uint256"
        },
        {
          "indexed": false,
          "internalType": "uint256",
          "name": "liqudationFunds",
          "type": "uint256"
        },
        {
          "indexed": false,
          "internalType": "uint256",
          "name": "timestamp",
          "type": "uint256"
        }
      ],
      "name": "Liquidated",
      "type": "event"
    },
    {
      "anonymous": false,
      "inputs": [
        {
          "indexed": true,
          "internalType": "address",
          "name": "wallet",
          "type": "address"
        },
        {
          "indexed": false,
          "internalType": "uint256",
          "name": "amount",
          "type": "uint256"
        },
        {
          "indexed": false,
          "internalType": "address",
          "name": "originalToken",
          "type": "address"
        },
        {
          "indexed": false,
          "internalType": "uint256",
          "name": "timestamp",
          "type": "uint256"
        }
      ],
      "name": "MintMirrored",
      "type": "event"
    },
    {
      "anonymous": false,
      "inputs": [
        {
          "indexed": false,
          "internalType": "uint256",
          "name": "id",
          "type": "uint256"
        }
      ],
      "name": "Snapshot",
      "type": "event"
    },
    {
      "anonymous": false,
      "inputs": [
        {
          "indexed": true,
          "internalType": "address",
          "name": "from",
          "type": "address"
        },
        {
          "indexed": true,
          "internalType": "address",
          "name": "to",
          "type": "address"
        },
        {
          "indexed": false,
          "internalType": "uint256",
          "name": "value",
          "type": "uint256"
        }
      ],
      "name": "Transfer",
      "type": "event"
    },
    {
      "anonymous": false,
      "inputs": [
        {
          "indexed": false,
          "internalType": "address",
          "name": "caller",
          "type": "address"
        },
        {
          "indexed": false,
          "internalType": "uint256",
          "name": "price",
          "type": "uint256"
        },
        {
          "indexed": false,
          "internalType": "uint256",
          "name": "expiry",
          "type": "uint256"
        },
        {
          "indexed": false,
          "internalType": "uint256",
          "name": "timestamp",
          "type": "uint256"
        }
      ],
      "name": "UpdateTokenPrice",
      "type": "event"
    },
    {
      "inputs": [
        {
          "internalType": "address",
          "name": "owner",
          "type": "address"
        },
        {
          "internalType": "address",
          "name": "spender",
          "type": "address"
        }
      ],
      "name": "allowance",
      "outputs": [
        {
          "internalType": "uint256",
          "name": "",
          "type": "uint256"
        }
      ],
      "stateMutability": "view",
      "type": "function"
    },
    {
      "inputs": [
        {
          "internalType": "address",
          "name": "spender",
          "type": "address"
        },
        {
          "internalType": "uint256",
          "name": "amount",
          "type": "uint256"
        }
      ],
      "name": "approve",
      "outputs": [
        {
          "internalType": "bool",
          "name": "",
          "type": "bool"
        }
      ],
      "stateMutability": "nonpayable",
      "type": "function"
    },
    {
      "inputs": [
        {
          "internalType": "address",
          "name": "account",
          "type": "address"
        }
      ],
      "name": "balanceBeforeLiquidation",
      "outputs": [
        {
          "internalType": "uint256",
          "name": "",
          "type": "uint256"
        }
      ],
      "stateMutability": "view",
      "type": "function"
    },
    {
      "inputs": [
        {
          "internalType": "address",
          "name": "account",
          "type": "address"
        }
      ],
      "name": "balanceOf",
      "outputs": [
        {
          "internalType": "uint256",
          "name": "",
          "type": "uint256"
        }
      ],
      "stateMutability": "view",
      "type": "function"
    },
    {
      "inputs": [
        {
          "internalType": "address",
          "name": "account",
          "type": "address"
        },
        {
          "internalType": "uint256",
          "name": "snapshotId",
          "type": "uint256"
        }
      ],
      "name": "balanceOfAt",
      "outputs": [
        {
          "internalType": "uint256",
          "name": "",
          "type": "uint256"
        }
      ],
      "stateMutability": "view",
      "type": "function"
    },
    {
      "inputs": [
        {
          "internalType": "uint256",
          "name": "amount",
          "type": "uint256"
        }
      ],
      "name": "burnMirrored",
      "outputs": [],
      "stateMutability": "nonpayable",
      "type": "function"
    },
    {
      "inputs": [
        {
          "internalType": "address",
          "name": "investor",
          "type": "address"
        }
      ],
      "name": "claimLiquidationShare",
      "outputs": [],
      "stateMutability": "nonpayable",
      "type": "function"
    },
    {
      "inputs": [],
      "name": "decimals",
      "outputs": [
        {
          "internalType": "uint8",
          "name": "",
          "type": "uint8"
        }
      ],
      "stateMutability": "view",
      "type": "function"
    },
    {
      "inputs": [
        {
          "internalType": "address",
          "name": "spender",
          "type": "address"
        },
        {
          "internalType": "uint256",
          "name": "subtractedValue",
          "type": "uint256"
        }
      ],
      "name": "decreaseAllowance",
      "outputs": [
        {
          "internalType": "bool",
          "name": "",
          "type": "bool"
        }
      ],
      "stateMutability": "nonpayable",
      "type": "function"
    },
    {
      "inputs": [
        {
          "internalType": "address",
          "name": "spender",
          "type": "address"
        },
        {
          "internalType": "uint256",
          "name": "addedValue",
          "type": "uint256"
        }
      ],
      "name": "increaseAllowance",
      "outputs": [
        {
          "internalType": "bool",
          "name": "",
          "type": "bool"
        }
      ],
      "stateMutability": "nonpayable",
      "type": "function"
    },
    {
      "inputs": [],
      "name": "lastKnownMarketCap",
      "outputs": [
        {
          "internalType": "uint256",
          "name": "",
          "type": "uint256"
        }
      ],
      "stateMutability": "view",
      "type": "function"
    },
    {
      "inputs": [],
      "name": "liquidate",
      "outputs": [
        {
          "internalType": "uint256",
          "name": "",
          "type": "uint256"
        }
      ],
      "stateMutability": "nonpayable",
      "type": "function"
    },
    {
      "inputs": [],
      "name": "liquidated",
      "outputs": [
        {
          "internalType": "bool",
          "name": "",
          "type": "bool"
        }
      ],
      "stateMutability": "view",
      "type": "function"
    },
    {
      "inputs": [
        {
          "internalType": "address",
          "name": "",
          "type": "address"
        }
      ],
      "name": "liquidationClaimsMap",
      "outputs": [
        {
          "internalType": "uint256",
          "name": "",
          "type": "uint256"
        }
      ],
      "stateMutability": "view",
      "type": "function"
    },
    {
      "inputs": [],
      "name": "liquidationFundsClaimed",
      "outputs": [
        {
          "internalType": "uint256",
          "name": "",
          "type": "uint256"
        }
      ],
      "stateMutability": "view",
      "type": "function"
    },
    {
      "inputs": [],
      "name": "liquidationFundsTotal",
      "outputs": [
        {
          "internalType": "uint256",
          "name": "",
          "type": "uint256"
        }
      ],
      "stateMutability": "view",
      "type": "function"
    },
    {
      "inputs": [],
      "name": "liquidationTimestamp",
      "outputs": [
        {
          "internalType": "uint256",
          "name": "",
          "type": "uint256"
        }
      ],
      "stateMutability": "view",
      "type": "function"
    },
    {
      "inputs": [
        {
          "internalType": "address",
          "name": "wallet",
          "type": "address"
        },
        {
          "internalType": "uint256",
          "name": "amount",
          "type": "uint256"
        }
      ],
      "name": "mintMirrored",
      "outputs": [],
      "stateMutability": "nonpayable",
      "type": "function"
    },
    {
      "inputs": [],
      "name": "name",
      "outputs": [
        {
          "internalType": "string",
          "name": "",
          "type": "string"
        }
      ],
      "stateMutability": "view",
      "type": "function"
    },
    {
      "inputs": [],
      "name": "originalToken",
      "outputs": [
        {
          "internalType": "contract IAsset",
          "name": "",
          "type": "address"
        }
      ],
      "stateMutability": "view",
      "type": "function"
    },
    {
      "inputs": [],
      "name": "priceProvider",
      "outputs": [
        {
          "internalType": "address",
          "name": "",
          "type": "address"
        }
      ],
      "stateMutability": "view",
      "type": "function"
    },
    {
      "inputs": [],
      "name": "symbol",
      "outputs": [
        {
          "internalType": "string",
          "name": "",
          "type": "string"
        }
      ],
      "stateMutability": "view",
      "type": "function"
    },
    {
      "inputs": [],
      "name": "tokenPriceRecord",
      "outputs": [
        {
          "internalType": "uint256",
          "name": "price",
          "type": "uint256"
        },
        {
          "internalType": "uint256",
          "name": "updatedAtTimestamp",
          "type": "uint256"
        },
        {
          "internalType": "uint256",
          "name": "validUntilTimestamp",
          "type": "uint256"
        },
        {
          "internalType": "uint256",
          "name": "capturedSupply",
          "type": "uint256"
        },
        {
          "internalType": "address",
          "name": "provider",
          "type": "address"
        }
      ],
      "stateMutability": "view",
      "type": "function"
    },
    {
      "inputs": [],
      "name": "totalSupply",
      "outputs": [
        {
          "internalType": "uint256",
          "name": "",
          "type": "uint256"
        }
      ],
      "stateMutability": "view",
      "type": "function"
    },
    {
      "inputs": [
        {
          "internalType": "uint256",
          "name": "snapshotId",
          "type": "uint256"
        }
      ],
      "name": "totalSupplyAt",
      "outputs": [
        {
          "internalType": "uint256",
          "name": "",
          "type": "uint256"
        }
      ],
      "stateMutability": "view",
      "type": "function"
    },
    {
      "inputs": [
        {
          "internalType": "address",
          "name": "recipient",
          "type": "address"
        },
        {
          "internalType": "uint256",
          "name": "amount",
          "type": "uint256"
        }
      ],
      "name": "transfer",
      "outputs": [
        {
          "internalType": "bool",
          "name": "",
          "type": "bool"
        }
      ],
      "stateMutability": "nonpayable",
      "type": "function"
    },
    {
      "inputs": [
        {
          "internalType": "address",
          "name": "sender",
          "type": "address"
        },
        {
          "internalType": "address",
          "name": "recipient",
          "type": "address"
        },
        {
          "internalType": "uint256",
          "name": "amount",
          "type": "uint256"
        }
      ],
      "name": "transferFrom",
      "outputs": [
        {
          "internalType": "bool",
          "name": "",
          "type": "bool"
        }
      ],
      "stateMutability": "nonpayable",
      "type": "function"
    },
    {
      "inputs": [
        {
          "internalType": "uint256",
          "name": "price",
          "type": "uint256"
        },
        {
          "internalType": "uint256",
          "name": "expiry",
          "type": "uint256"
        }
      ],
      "name": "updateTokenPrice",
      "outputs": [],
      "stateMutability": "nonpayable",
      "type": "function"
    }
  ],
  "bytecode": "0x60806040523480156200001157600080fd5b50604051620051a8380380620051a883398181016040528101906200003791906200049e565b848481600390805190602001906200005192919062000337565b5080600490805190602001906200006a92919062000337565b505050600073ffffffffffffffffffffffffffffffffffffffff168273ffffffffffffffffffffffffffffffffffffffff161415620000e0576040517f08c379a0000000000000000000000000000000000000000000000000000000008152600401620000d79062000744565b60405180910390fd5b600073ffffffffffffffffffffffffffffffffffffffff168373ffffffffffffffffffffffffffffffffffffffff16141562000153576040517f08c379a00000000000000000000000000000000000000000000000000000000081526004016200014a90620007aa565b60405180910390fd5b620001636200032e60201b60201c565b60ff168273ffffffffffffffffffffffffffffffffffffffff1663313ce5676040518163ffffffff1660e01b815260040160206040518083038186803b158015620001ad57600080fd5b505afa158015620001c2573d6000803e3d6000fd5b505050506040513d601f19601f82011682018060405250810190620001e8919062000552565b60ff16146200022e576040517f08c379a0000000000000000000000000000000000000000000000000000000008152600401620002259062000788565b60405180910390fd5b600073ffffffffffffffffffffffffffffffffffffffff168173ffffffffffffffffffffffffffffffffffffffff161415620002a1576040517f08c379a0000000000000000000000000000000000000000000000000000000008152600401620002989062000766565b60405180910390fd5b81600960006101000a81548173ffffffffffffffffffffffffffffffffffffffff021916908373ffffffffffffffffffffffffffffffffffffffff16021790555082600a60006101000a81548173ffffffffffffffffffffffffffffffffffffffff021916908373ffffffffffffffffffffffffffffffffffffffff1602179055505050505050620009b1565b60006012905090565b8280546200034590620008cf565b90600052602060002090601f016020900481019282620003695760008555620003b5565b82601f106200038457805160ff1916838001178555620003b5565b82800160010185558215620003b5579182015b82811115620003b457825182559160200191906001019062000397565b5b509050620003c49190620003c8565b5090565b5b80821115620003e3576000816000905550600101620003c9565b5090565b6000620003fe620003f88462000800565b620007cc565b9050828152602081018484840111156200041757600080fd5b6200042484828562000899565b509392505050565b6000815190506200043d8162000963565b92915050565b60008151905062000454816200097d565b92915050565b600082601f8301126200046c57600080fd5b81516200047e848260208601620003e7565b91505092915050565b600081519050620004988162000997565b92915050565b600080600080600060a08688031215620004b757600080fd5b600086015167ffffffffffffffff811115620004d257600080fd5b620004e0888289016200045a565b955050602086015167ffffffffffffffff811115620004fe57600080fd5b6200050c888289016200045a565b94505060406200051f888289016200042c565b9350506060620005328882890162000443565b925050608062000545888289016200042c565b9150509295509295909350565b6000602082840312156200056557600080fd5b6000620005758482850162000487565b91505092915050565b60006200058d602d8362000833565b91507f4d6972726f726564546f6b656e3a20696e76616c6964206f726967696e616c2060008301527f746f6b656e2061646472657373000000000000000000000000000000000000006020830152604082019050919050565b6000620005f560328362000833565b91507f4d6972726f726564546f6b656e3a20696e76616c6964206368696c642063686160008301527f696e206d616e61676572206164647265737300000000000000000000000000006020830152604082019050919050565b60006200065d60458362000833565b91507f4d6972726f726564546f6b656e3a206f726967696e616c20616e64206d69727260008301527f6f72656420617373657420646563696d616c20707265636973696f6e206d697360208301527f6d617463680000000000000000000000000000000000000000000000000000006040830152606082019050919050565b6000620006eb602d8362000833565b91507f4d6972726f726564546f6b656e3a20696e76616c69642070726963652070726f60008301527f76696465722061646472657373000000000000000000000000000000000000006020830152604082019050919050565b600060208201905081810360008301526200075f816200057e565b9050919050565b600060208201905081810360008301526200078181620005e6565b9050919050565b60006020820190508181036000830152620007a3816200064e565b9050919050565b60006020820190508181036000830152620007c581620006dc565b9050919050565b6000604051905081810181811067ffffffffffffffff82111715620007f657620007f562000934565b5b8060405250919050565b600067ffffffffffffffff8211156200081e576200081d62000934565b5b601f19601f8301169050602081019050919050565b600082825260208201905092915050565b600062000851826200086c565b9050919050565b6000620008658262000844565b9050919050565b600073ffffffffffffffffffffffffffffffffffffffff82169050919050565b600060ff82169050919050565b60005b83811015620008b95780820151818401526020810190506200089c565b83811115620008c9576000848401525b50505050565b60006002820490506001821680620008e857607f821691505b60208210811415620008ff57620008fe62000905565b5b50919050565b7f4e487b7100000000000000000000000000000000000000000000000000000000600052602260045260246000fd5b7f4e487b7100000000000000000000000000000000000000000000000000000000600052604160045260246000fd5b6200096e8162000844565b81146200097a57600080fd5b50565b620009888162000858565b81146200099457600080fd5b50565b620009a2816200088c565b8114620009ae57600080fd5b50565b6147e780620009c16000396000f3fe608060405234801561001057600080fd5b50600436106101c45760003560e01c806374b874a6116100f9578063a6fd2a3311610097578063b888879e11610071578063b888879e1461054b578063bbd9445914610569578063dd62ed3e14610585578063fe329828146105b5576101c4565b8063a6fd2a33146104e1578063a9059cbb146104fd578063ae32b0e71461052d576101c4565b806395d89b41116100d357806395d89b4114610441578063981b24d01461045f578063a4239e8b1461048f578063a457c2d7146104b1576101c4565b806374b874a6146103e95780638589bc9314610407578063897925f514610425576101c4565b806328a07025116101665780634ee2cd7e116101405780634ee2cd7e1461032957806350c73efe146103595780635b1cdef21461038957806370a08231146103b9576101c4565b806328a07025146102bd578063313ce567146102db57806339509351146102f9576101c4565b80630e7c1cb5116101a25780630e7c1cb51461023357806318160ddd1461025157806323b872dd1461026f57806323b98cde1461029f576101c4565b806306fdde03146101c9578063095ea7b3146101e75780630b9722eb14610217575b600080fd5b6101d16105d3565b6040516101de9190613e11565b60405180910390f35b61020160048036038101906101fc9190613007565b610665565b60405161020e9190613ddb565b60405180910390f35b610231600480360381019061022c9190613007565b610683565b005b61023b6107c3565b6040516102489190613df6565b60405180910390f35b6102596107e9565b6040516102669190614193565b60405180910390f35b61028960048036038101906102849190612fb8565b6107f3565b6040516102969190613ddb565b60405180910390f35b6102a76108eb565b6040516102b49190613ddb565b60405180910390f35b6102c56108fe565b6040516102d29190614193565b60405180910390f35b6102e3610bd8565b6040516102f09190614238565b60405180910390f35b610313600480360381019061030e9190613007565b610be1565b6040516103209190613ddb565b60405180910390f35b610343600480360381019061033e9190613007565b610c8d565b6040516103509190614193565b60405180910390f35b610373600480360381019061036e9190612f53565b610cfd565b6040516103809190614193565b60405180910390f35b6103a3600480360381019061039e9190612f53565b610d45565b6040516103b09190614193565b60405180910390f35b6103d360048036038101906103ce9190612f53565b610d5d565b6040516103e09190614193565b60405180910390f35b6103f1610da5565b6040516103fe9190614193565b60405180910390f35b61040f610dab565b60405161041c9190614193565b60405180910390f35b61043f600480360381019061043a9190613140565b610db1565b005b610449610fd8565b6040516104569190613e11565b60405180910390f35b610479600480360381019061047491906130ee565b61106a565b6040516104869190614193565b60405180910390f35b61049761109b565b6040516104a89594939291906141e5565b60405180910390f35b6104cb60048036038101906104c69190613007565b6110df565b6040516104d89190613ddb565b60405180910390f35b6104fb60048036038101906104f691906130ee565b6111ca565b005b61051760048036038101906105129190613007565b61132a565b6040516105249190613ddb565b60405180910390f35b610535611348565b6040516105429190614193565b60405180910390f35b61055361134e565b6040516105609190613d0d565b60405180910390f35b610583600480360381019061057e9190612f53565b611374565b005b61059f600480360381019061059a9190612f7c565b61170d565b6040516105ac9190614193565b60405180910390f35b6105bd611794565b6040516105ca9190614193565b60405180910390f35b6060600380546105e290614618565b80601f016020809104026020016040519081016040528092919081815260200182805461060e90614618565b801561065b5780601f106106305761010080835404028352916020019161065b565b820191906000526020600020905b81548152906001019060200180831161063e57829003601f168201915b5050505050905090565b60006106796106726117ab565b84846117b3565b6001905092915050565b600a60149054906101000a900460ff16156106d3576040517f08c379a00000000000000000000000000000000000000000000000000000000081526004016106ca906140d3565b60405180910390fd5b600960009054906101000a900473ffffffffffffffffffffffffffffffffffffffff1673ffffffffffffffffffffffffffffffffffffffff163373ffffffffffffffffffffffffffffffffffffffff1614610763576040517f08c379a000000000000000000000000000000000000000000000000000000000815260040161075a90614073565b60405180910390fd5b61076d828261197e565b8173ffffffffffffffffffffffffffffffffffffffff167f45fafd3f1f8b8cce02b1d655edd24aa9ec3c88d5afc30da901b5be11d591a8868233426040516107b7939291906141ae565b60405180910390a25050565b600960009054906101000a900473ffffffffffffffffffffffffffffffffffffffff1681565b6000600254905090565b6000610800848484611ade565b6000600160008673ffffffffffffffffffffffffffffffffffffffff1673ffffffffffffffffffffffffffffffffffffffff168152602001908152602001600020600061084b6117ab565b73ffffffffffffffffffffffffffffffffffffffff1673ffffffffffffffffffffffffffffffffffffffff168152602001908152602001600020549050828110156108cb576040517f08c379a00000000000000000000000000000000000000000000000000000000081526004016108c290613fb3565b60405180910390fd5b6108df856108d76117ab565b8584036117b3565b60019150509392505050565b600a60149054906101000a900460ff1681565b6000600a60149054906101000a900460ff1615610950576040517f08c379a0000000000000000000000000000000000000000000000000000000008152600401610947906140d3565b60405180910390fd5b600960009054906101000a900473ffffffffffffffffffffffffffffffffffffffff1673ffffffffffffffffffffffffffffffffffffffff163373ffffffffffffffffffffffffffffffffffffffff16146109e0576040517f08c379a00000000000000000000000000000000000000000000000000000000081526004016109d790613f13565b60405180910390fd5b600e60020154421115610a28576040517f08c379a0000000000000000000000000000000000000000000000000000000008152600401610a1f90614033565b60405180910390fd5b600e60030154610a366107e9565b14610a76576040517f08c379a0000000000000000000000000000000000000000000000000000000008152600401610a6d90613e93565b60405180910390fd5b6000610a806107e9565b90506000610a8d82611d5f565b905080610a98611ee2565b73ffffffffffffffffffffffffffffffffffffffff166370a08231306040518263ffffffff1660e01b8152600401610ad09190613d0d565b60206040518083038186803b158015610ae857600080fd5b505afa158015610afc573d6000803e3d6000fd5b505050506040513d601f19601f82011682018060405250810190610b209190613117565b1015610b61576040517f08c379a0000000000000000000000000000000000000000000000000000000008152600401610b5890613f93565b60405180910390fd5b6001600a60146101000a81548160ff02191690831515021790555042600c8190555080600b819055507f5b139eba78ea635d9730fabca1ca3904a0984d47bc5a7dd5366083847d0875ef33610bb46107e9565b600b5442604051610bc89493929190613d96565b60405180910390a1819250505090565b60006012905090565b6000610c83610bee6117ab565b848460016000610bfc6117ab565b73ffffffffffffffffffffffffffffffffffffffff1673ffffffffffffffffffffffffffffffffffffffff16815260200190815260200160002060008873ffffffffffffffffffffffffffffffffffffffff1673ffffffffffffffffffffffffffffffffffffffff16815260200190815260200160002054610c7e91906142e6565b6117b3565b6001905092915050565b6000806000610cda84600560008873ffffffffffffffffffffffffffffffffffffffff1673ffffffffffffffffffffffffffffffffffffffff168152602001908152602001600020611f77565b9150915081610cf157610cec85610cfd565b610cf3565b805b9250505092915050565b60008060008373ffffffffffffffffffffffffffffffffffffffff1673ffffffffffffffffffffffffffffffffffffffff168152602001908152602001600020549050919050565b60136020528060005260406000206000915090505481565b60008060008373ffffffffffffffffffffffffffffffffffffffff1673ffffffffffffffffffffffffffffffffffffffff168152602001908152602001600020549050919050565b600c5481565b600b5481565b600a60149054906101000a900460ff1615610e01576040517f08c379a0000000000000000000000000000000000000000000000000000000008152600401610df8906140d3565b60405180910390fd5b600a60009054906101000a900473ffffffffffffffffffffffffffffffffffffffff1673ffffffffffffffffffffffffffffffffffffffff163373ffffffffffffffffffffffffffffffffffffffff1614610e91576040517f08c379a0000000000000000000000000000000000000000000000000000000008152600401610e8890614113565b60405180910390fd5b60008211610ed4576040517f08c379a0000000000000000000000000000000000000000000000000000000008152600401610ecb90613ed3565b60405180910390fd5b6040518060a001604052808381526020014281526020018242610ef791906142e6565b8152602001610f046107e9565b81526020013373ffffffffffffffffffffffffffffffffffffffff16815250600e6000820151816000015560208201518160010155604082015181600201556060820151816003015560808201518160040160006101000a81548173ffffffffffffffffffffffffffffffffffffffff021916908373ffffffffffffffffffffffffffffffffffffffff1602179055509050507fc8ca79a20a7b3d6e9bfe00b0e3719d984cec1fecb95c690339a19a52eac9942733838342604051610fcc9493929190613d96565b60405180910390a15050565b606060048054610fe790614618565b80601f016020809104026020016040519081016040528092919081815260200182805461101390614618565b80156110605780601f1061103557610100808354040283529160200191611060565b820191906000526020600020905b81548152906001019060200180831161104357829003601f168201915b5050505050905090565b600080600061107a846006611f77565b91509150816110905761108b6107e9565b611092565b805b92505050919050565b600e8060000154908060010154908060020154908060030154908060040160009054906101000a900473ffffffffffffffffffffffffffffffffffffffff16905085565b600080600160006110ee6117ab565b73ffffffffffffffffffffffffffffffffffffffff1673ffffffffffffffffffffffffffffffffffffffff16815260200190815260200160002060008573ffffffffffffffffffffffffffffffffffffffff1673ffffffffffffffffffffffffffffffffffffffff168152602001908152602001600020549050828110156111ab576040517f08c379a00000000000000000000000000000000000000000000000000000000081526004016111a290614153565b60405180910390fd5b6111bf6111b66117ab565b858584036117b3565b600191505092915050565b600a60149054906101000a900460ff161561121a576040517f08c379a0000000000000000000000000000000000000000000000000000000008152600401611211906140d3565b60405180910390fd5b6112243382612093565b600960009054906101000a900473ffffffffffffffffffffffffffffffffffffffff1673ffffffffffffffffffffffffffffffffffffffff16639d564d9a33836040518363ffffffff1660e01b8152600401611281929190613d6d565b600060405180830381600087803b15801561129b57600080fd5b505af11580156112af573d6000803e3d6000fd5b505050503373ffffffffffffffffffffffffffffffffffffffff167f3691b7ed6a8edecb61265ab58956b5c7a63a9330c91b11bce0bf1ef07fdf15f682600960009054906101000a900473ffffffffffffffffffffffffffffffffffffffff164260405161131f939291906141ae565b60405180910390a250565b600061133e6113376117ab565b8484611ade565b6001905092915050565b600d5481565b600a60009054906101000a900473ffffffffffffffffffffffffffffffffffffffff1681565b600a60149054906101000a900460ff166113c3576040517f08c379a00000000000000000000000000000000000000000000000000000000081526004016113ba90613fd3565b60405180910390fd5b600960009054906101000a900473ffffffffffffffffffffffffffffffffffffffff1673ffffffffffffffffffffffffffffffffffffffff16631865c57d6040518163ffffffff1660e01b815260040160006040518083038186803b15801561142b57600080fd5b505afa15801561143f573d6000803e3d6000fd5b505050506040513d6000823e3d601f19601f82011682018060405250810190611468919061306c565b61010001511580611505575061147c61226a565b73ffffffffffffffffffffffffffffffffffffffff16633657e851826040518263ffffffff1660e01b81526004016114b49190613d0d565b60206040518083038186803b1580156114cc57600080fd5b505afa1580156114e0573d6000803e3d6000fd5b505050506040513d601f19601f820116820180604052508101906115049190613043565b5b611544576040517f08c379a000000000000000000000000000000000000000000000000000000000815260040161153b90613ff3565b60405180910390fd5b6000611550823061170d565b905060008111611595576040517f08c379a000000000000000000000000000000000000000000000000000000000815260040161158c90613f73565b60405180910390fd5b600061159f6107e9565b600b54836115ad91906144de565b6115b7919061433c565b9050600081116115fc576040517f08c379a00000000000000000000000000000000000000000000000000000000081526004016115f390613f53565b60405180910390fd5b61162e8382611609611ee2565b73ffffffffffffffffffffffffffffffffffffffff1661231b9092919063ffffffff16565b6116398330846107f3565b5080601360008573ffffffffffffffffffffffffffffffffffffffff1673ffffffffffffffffffffffffffffffffffffffff168152602001908152602001600020600082825461168991906142e6565b9250508190555080600d60008282546116a291906142e6565b925050819055507f22086de203d5e21638e289fcc43e4dc9d59e10fa8cbd5ce829aeadf251a187ac83600960009054906101000a900473ffffffffffffffffffffffffffffffffffffffff1683426040516117009493929190613d28565b60405180910390a1505050565b6000600160008473ffffffffffffffffffffffffffffffffffffffff1673ffffffffffffffffffffffffffffffffffffffff16815260200190815260200160002060008373ffffffffffffffffffffffffffffffffffffffff1673ffffffffffffffffffffffffffffffffffffffff16815260200190815260200160002054905092915050565b60006117a66117a16107e9565b611d5f565b905090565b600033905090565b600073ffffffffffffffffffffffffffffffffffffffff168373ffffffffffffffffffffffffffffffffffffffff161415611823576040517f08c379a000000000000000000000000000000000000000000000000000000000815260040161181a90614093565b60405180910390fd5b600073ffffffffffffffffffffffffffffffffffffffff168273ffffffffffffffffffffffffffffffffffffffff161415611893576040517f08c379a000000000000000000000000000000000000000000000000000000000815260040161188a90613eb3565b60405180910390fd5b80600160008573ffffffffffffffffffffffffffffffffffffffff1673ffffffffffffffffffffffffffffffffffffffff16815260200190815260200160002060008473ffffffffffffffffffffffffffffffffffffffff1673ffffffffffffffffffffffffffffffffffffffff168152602001908152602001600020819055508173ffffffffffffffffffffffffffffffffffffffff168373ffffffffffffffffffffffffffffffffffffffff167f8c5be1e5ebec7d5bd14f71427d1e84f3dd0314c0f7b2291e5b200ac8c7c3b925836040516119719190614193565b60405180910390a3505050565b600073ffffffffffffffffffffffffffffffffffffffff168273ffffffffffffffffffffffffffffffffffffffff1614156119ee576040517f08c379a00000000000000000000000000000000000000000000000000000000081526004016119e590614173565b60405180910390fd5b6119fa600083836123a1565b8060026000828254611a0c91906142e6565b92505081905550806000808473ffffffffffffffffffffffffffffffffffffffff1673ffffffffffffffffffffffffffffffffffffffff1681526020019081526020016000206000828254611a6191906142e6565b925050819055508173ffffffffffffffffffffffffffffffffffffffff16600073ffffffffffffffffffffffffffffffffffffffff167fddf252ad1be2c89b69c2b068fc378daa952ba7f163c4a11628f55a4df523b3ef83604051611ac69190614193565b60405180910390a3611ada6000838361245b565b5050565b600073ffffffffffffffffffffffffffffffffffffffff168373ffffffffffffffffffffffffffffffffffffffff161415611b4e576040517f08c379a0000000000000000000000000000000000000000000000000000000008152600401611b4590614053565b60405180910390fd5b600073ffffffffffffffffffffffffffffffffffffffff168273ffffffffffffffffffffffffffffffffffffffff161415611bbe576040517f08c379a0000000000000000000000000000000000000000000000000000000008152600401611bb590613e53565b60405180910390fd5b611bc98383836123a1565b60008060008573ffffffffffffffffffffffffffffffffffffffff1673ffffffffffffffffffffffffffffffffffffffff16815260200190815260200160002054905081811015611c4f576040517f08c379a0000000000000000000000000000000000000000000000000000000008152600401611c4690613ef3565b60405180910390fd5b8181036000808673ffffffffffffffffffffffffffffffffffffffff1673ffffffffffffffffffffffffffffffffffffffff16815260200190815260200160002081905550816000808573ffffffffffffffffffffffffffffffffffffffff1673ffffffffffffffffffffffffffffffffffffffff1681526020019081526020016000206000828254611ce291906142e6565b925050819055508273ffffffffffffffffffffffffffffffffffffffff168473ffffffffffffffffffffffffffffffffffffffff167fddf252ad1be2c89b69c2b068fc378daa952ba7f163c4a11628f55a4df523b3ef84604051611d469190614193565b60405180910390a3611d5984848461245b565b50505050565b6000600960009054906101000a900473ffffffffffffffffffffffffffffffffffffffff1673ffffffffffffffffffffffffffffffffffffffff1663c24fe16c6040518163ffffffff1660e01b815260040160206040518083038186803b158015611dc957600080fd5b505afa158015611ddd573d6000803e3d6000fd5b505050506040513d601f19601f82011682018060405250810190611e019190613117565b600960009054906101000a900473ffffffffffffffffffffffffffffffffffffffff1673ffffffffffffffffffffffffffffffffffffffff1663313ce5676040518163ffffffff1660e01b815260040160206040518083038186803b158015611e6957600080fd5b505afa158015611e7d573d6000803e3d6000fd5b505050506040513d601f19601f82011682018060405250810190611ea1919061317c565b60ff16611eae91906144de565b611eb6612460565b600e6000015484611ec791906144de565b611ed191906144de565b611edb919061433c565b9050919050565b6000611eec61226a565b73ffffffffffffffffffffffffffffffffffffffff16631865c57d6040518163ffffffff1660e01b815260040160006040518083038186803b158015611f3157600080fd5b505afa158015611f45573d6000803e3d6000fd5b505050506040513d6000823e3d601f19601f82011682018060405250810190611f6e91906130ad565b60a00151905090565b60008060008411611fbd576040517f08c379a0000000000000000000000000000000000000000000000000000000008152600401611fb4906140f3565b60405180910390fd5b611fc561257e565b841115612007576040517f08c379a0000000000000000000000000000000000000000000000000000000008152600401611ffe90613e33565b60405180910390fd5b600061201f858560000161258f90919063ffffffff16565b9050836000018054905081141561203d57600080925092505061208c565b600184600101828154811061207b577f4e487b7100000000000000000000000000000000000000000000000000000000600052603260045260246000fd5b906000526020600020015492509250505b9250929050565b600073ffffffffffffffffffffffffffffffffffffffff168273ffffffffffffffffffffffffffffffffffffffff161415612103576040517f08c379a00000000000000000000000000000000000000000000000000000000081526004016120fa90614013565b60405180910390fd5b61210f826000836123a1565b60008060008473ffffffffffffffffffffffffffffffffffffffff1673ffffffffffffffffffffffffffffffffffffffff16815260200190815260200160002054905081811015612195576040517f08c379a000000000000000000000000000000000000000000000000000000000815260040161218c90613e73565b60405180910390fd5b8181036000808573ffffffffffffffffffffffffffffffffffffffff1673ffffffffffffffffffffffffffffffffffffffff1681526020019081526020016000208190555081600260008282546121ec9190614538565b92505081905550600073ffffffffffffffffffffffffffffffffffffffff168373ffffffffffffffffffffffffffffffffffffffff167fddf252ad1be2c89b69c2b068fc378daa952ba7f163c4a11628f55a4df523b3ef846040516122519190614193565b60405180910390a36122658360008461245b565b505050565b6000600960009054906101000a900473ffffffffffffffffffffffffffffffffffffffff1673ffffffffffffffffffffffffffffffffffffffff16631865c57d6040518163ffffffff1660e01b815260040160006040518083038186803b1580156122d457600080fd5b505afa1580156122e8573d6000803e3d6000fd5b505050506040513d6000823e3d601f19601f82011682018060405250810190612311919061306c565b6101400151905090565b61239c8363a9059cbb60e01b848460405160240161233a929190613d6d565b604051602081830303815290604052907bffffffffffffffffffffffffffffffffffffffffffffffffffffffff19166020820180517bffffffffffffffffffffffffffffffffffffffffffffffffffffffff83818316178352505050506126b5565b505050565b6123ac83838361277c565b600073ffffffffffffffffffffffffffffffffffffffff168373ffffffffffffffffffffffffffffffffffffffff1614156123f7576123ea82612781565b6123f26127d4565b612456565b600073ffffffffffffffffffffffffffffffffffffffff168273ffffffffffffffffffffffffffffffffffffffff1614156124425761243583612781565b61243d6127d4565b612455565b61244b83612781565b61245482612781565b5b5b505050565b505050565b600061246a61226a565b73ffffffffffffffffffffffffffffffffffffffff16631865c57d6040518163ffffffff1660e01b815260040160006040518083038186803b1580156124af57600080fd5b505afa1580156124c3573d6000803e3d6000fd5b505050506040513d6000823e3d601f19601f820116820180604052508101906124ec91906130ad565b60a0015173ffffffffffffffffffffffffffffffffffffffff1663313ce5676040518163ffffffff1660e01b815260040160206040518083038186803b15801561253557600080fd5b505afa158015612549573d6000803e3d6000fd5b505050506040513d601f19601f8201168201806040525081019061256d919061317c565b600a61257991906143c0565b905090565b600061258a60086127e8565b905090565b600080838054905014156125a657600090506126af565b600080848054905090505b808210156126305760006125c583836127f6565b905084868281548110612601577f4e487b7100000000000000000000000000000000000000000000000000000000600052603260045260246000fd5b9060005260206000200154111561261a5780915061262a565b60018161262791906142e6565b92505b506125b1565b60008211801561268e5750838560018461264a9190614538565b81548110612681577f4e487b7100000000000000000000000000000000000000000000000000000000600052603260045260246000fd5b9060005260206000200154145b156126a9576001826126a09190614538565b925050506126af565b81925050505b92915050565b6000612717826040518060400160405280602081526020017f5361666545524332303a206c6f772d6c6576656c2063616c6c206661696c65648152508573ffffffffffffffffffffffffffffffffffffffff1661285d9092919063ffffffff16565b905060008151111561277757808060200190518101906127379190613043565b612776576040517f08c379a000000000000000000000000000000000000000000000000000000000815260040161276d90614133565b60405180910390fd5b5b505050565b505050565b6127d1600560008373ffffffffffffffffffffffffffffffffffffffff1673ffffffffffffffffffffffffffffffffffffffff1681526020019081526020016000206127cc83610cfd565b612875565b50565b6127e660066127e16107e9565b612875565b565b600081600001549050919050565b600060028083612806919061464a565b600285612813919061464a565b61281d91906142e6565b612827919061433c565b600283612834919061433c565b600285612841919061433c565b61284b91906142e6565b61285591906142e6565b905092915050565b606061286c84846000856128f0565b90509392505050565b600061287f61257e565b90508061288e84600001612a04565b10156128eb5782600001819080600181540180825580915050600190039060005260206000200160009091909190915055826001018290806001815401808255809150506001900390600052602060002001600090919091909150555b505050565b606082471015612935576040517f08c379a000000000000000000000000000000000000000000000000000000000815260040161292c90613f33565b60405180910390fd5b61293e85612a77565b61297d576040517f08c379a0000000000000000000000000000000000000000000000000000000008152600401612974906140b3565b60405180910390fd5b6000808673ffffffffffffffffffffffffffffffffffffffff1685876040516129a69190613cf6565b60006040518083038185875af1925050503d80600081146129e3576040519150601f19603f3d011682016040523d82523d6000602084013e6129e8565b606091505b50915091506129f8828286612a8a565b92505050949350505050565b60008082805490501415612a1b5760009050612a72565b8160018380549050612a2d9190614538565b81548110612a64577f4e487b7100000000000000000000000000000000000000000000000000000000600052603260045260246000fd5b906000526020600020015490505b919050565b600080823b905060008111915050919050565b60608315612a9a57829050612aea565b600083511115612aad5782518084602001fd5b816040517f08c379a0000000000000000000000000000000000000000000000000000000008152600401612ae19190613e11565b60405180910390fd5b9392505050565b6000612b04612aff84614284565b614253565b905082815260208101848484011115612b1c57600080fd5b612b278482856145e5565b509392505050565b600081359050612b3e81614755565b92915050565b600081519050612b5381614755565b92915050565b600081519050612b688161476c565b92915050565b600082601f830112612b7f57600080fd5b8151612b8f848260208601612af1565b91505092915050565b60006103008284031215612bab57600080fd5b612bb6610300614253565b90506000612bc684828501612f29565b6000830152506020612bda84828501612b44565b602083015250604082015167ffffffffffffffff811115612bfa57600080fd5b612c0684828501612b6e565b6040830152506060612c1a84828501612f29565b6060830152506080612c2e84828501612b44565b60808301525060a0612c4284828501612b44565b60a08301525060c0612c5684828501612f29565b60c08301525060e0612c6a84828501612b59565b60e083015250610100612c7f84828501612b59565b61010083015250610120612c9584828501612b59565b61012083015250610140612cab84828501612b44565b61014083015250610160612cc184828501612b44565b6101608301525061018082015167ffffffffffffffff811115612ce357600080fd5b612cef84828501612b6e565b610180830152506101a082015167ffffffffffffffff811115612d1157600080fd5b612d1d84828501612b6e565b6101a0830152506101c082015167ffffffffffffffff811115612d3f57600080fd5b612d4b84828501612b6e565b6101c0830152506101e0612d6184828501612f29565b6101e083015250610200612d7784828501612f29565b61020083015250610220612d8d84828501612f29565b61022083015250610240612da384828501612f29565b61024083015250610260612db984828501612f29565b61026083015250610280612dcf84828501612b59565b610280830152506102a0612de584828501612f29565b6102a0830152506102c0612dfb84828501612f29565b6102c0830152506102e0612e1184828501612f29565b6102e08301525092915050565b60006101008284031215612e3157600080fd5b612e3c610100614253565b90506000612e4c84828501612f29565b6000830152506020612e6084828501612b44565b602083015250604082015167ffffffffffffffff811115612e8057600080fd5b612e8c84828501612b6e565b6040830152506060612ea084828501612b44565b6060830152506080612eb484828501612b44565b60808301525060a0612ec884828501612b44565b60a08301525060c0612edc84828501612b44565b60c08301525060e082015167ffffffffffffffff811115612efc57600080fd5b612f0884828501612b6e565b60e08301525092915050565b600081359050612f2381614783565b92915050565b600081519050612f3881614783565b92915050565b600081519050612f4d8161479a565b92915050565b600060208284031215612f6557600080fd5b6000612f7384828501612b2f565b91505092915050565b60008060408385031215612f8f57600080fd5b6000612f9d85828601612b2f565b9250506020612fae85828601612b2f565b9150509250929050565b600080600060608486031215612fcd57600080fd5b6000612fdb86828701612b2f565b9350506020612fec86828701612b2f565b9250506040612ffd86828701612f14565b9150509250925092565b6000806040838503121561301a57600080fd5b600061302885828601612b2f565b925050602061303985828601612f14565b9150509250929050565b60006020828403121561305557600080fd5b600061306384828501612b59565b91505092915050565b60006020828403121561307e57600080fd5b600082015167ffffffffffffffff81111561309857600080fd5b6130a484828501612b98565b91505092915050565b6000602082840312156130bf57600080fd5b600082015167ffffffffffffffff8111156130d957600080fd5b6130e584828501612e1e565b91505092915050565b60006020828403121561310057600080fd5b600061310e84828501612f14565b91505092915050565b60006020828403121561312957600080fd5b600061313784828501612f29565b91505092915050565b6000806040838503121561315357600080fd5b600061316185828601612f14565b925050602061317285828601612f14565b9150509250929050565b60006020828403121561318e57600080fd5b600061319c84828501612f3e565b91505092915050565b6131ae8161456c565b82525050565b6131bd8161457e565b82525050565b60006131ce826142b4565b6131d881856142ca565b93506131e88185602086016145e5565b80840191505092915050565b6131fd816145c1565b82525050565b600061320e826142bf565b61321881856142d5565b93506132288185602086016145e5565b61323181614737565b840191505092915050565b6000613249601d836142d5565b91507f4552433230536e617073686f743a206e6f6e6578697374656e742069640000006000830152602082019050919050565b60006132896023836142d5565b91507f45524332303a207472616e7366657220746f20746865207a65726f206164647260008301527f65737300000000000000000000000000000000000000000000000000000000006020830152604082019050919050565b60006132ef6022836142d5565b91507f45524332303a206275726e20616d6f756e7420657863656564732062616c616e60008301527f63650000000000000000000000000000000000000000000000000000000000006020830152604082019050919050565b60006133556057836142d5565b91507f4d6972726f726564546f6b656e3a20746f74616c20737570706c79207761732060008301527f6368616e6765642073696e636520746865206c6173742070726963652075706460208301527f6174653b2075706461746520707269636520616761696e0000000000000000006040830152606082019050919050565b60006133e16022836142d5565b91507f45524332303a20617070726f766520746f20746865207a65726f20616464726560008301527f73730000000000000000000000000000000000000000000000000000000000006020830152604082019050919050565b60006134476023836142d5565b91507f4d6972726f726564546f6b656e3a2070726963652068617320746f206265203e60008301527f20303b00000000000000000000000000000000000000000000000000000000006020830152604082019050919050565b60006134ad6026836142d5565b91507f45524332303a207472616e7366657220616d6f756e742065786365656473206260008301527f616c616e636500000000000000000000000000000000000000000000000000006020830152604082019050919050565b60006135136044836142d5565b91507f4d6972726f726564546f6b656e3a206e6f7420616c6c6f7765643b2063616c6c60008301527f6572206d75737420626520616e206f726967696e616c2061737365742061646460208301527f72657373000000000000000000000000000000000000000000000000000000006040830152606082019050919050565b600061359f6026836142d5565b91507f416464726573733a20696e73756666696369656e742062616c616e636520666f60008301527f722063616c6c00000000000000000000000000000000000000000000000000006020830152604082019050919050565b6000613605602c836142d5565b91507f4d6972726f726564546f6b656e3a206e6f206c69717569646174696f6e20667560008301527f6e647320746f20636c61696d00000000000000000000000000000000000000006020830152604082019050919050565b600061366b6040836142d5565b91507f4d6972726f726564546f6b656e3a206e6f20746f6b656e7320617070726f766560008301527f6420666f7220636c61696d696e67206c69717569646174696f6e2073686172656020830152604082019050919050565b60006136d16052836142d5565b91507f4d6972726f726564546f6b656e3a206e6f7420656e6f7567682066756e64732060008301527f666f72206c69717569646174696f6e3b207472616e736665722066756e64732060208301527f6265666f7265206c69717569646174696f6e00000000000000000000000000006040830152606082019050919050565b600061375d6028836142d5565b91507f45524332303a207472616e7366657220616d6f756e742065786365656473206160008301527f6c6c6f77616e63650000000000000000000000000000000000000000000000006020830152604082019050919050565b60006137c3601d836142d5565b91507f4d6972726f726564546f6b656e3a206e6f74206c6971756964617465640000006000830152602082019050919050565b6000613803604c836142d5565b91507f4d6972726f726564546f6b656e3a2077616c6c6574206d75737420626520776860008301527f6974656c6973746564206265666f726520636c61696d696e67206c697175696460208301527f6174696f6e2073686172652e00000000000000000000000000000000000000006040830152606082019050919050565b600061388f6021836142d5565b91507f45524332303a206275726e2066726f6d20746865207a65726f2061646472657360008301527f73000000000000000000000000000000000000000000000000000000000000006020830152604082019050919050565b60006138f56045836142d5565b91507f4d6972726f726564546f6b656e3a20707269636520657870697265643b20757060008301527f64617465207072696365206265666f726520747279696e6720746f206c69717560208301527f69646174650000000000000000000000000000000000000000000000000000006040830152606082019050919050565b60006139816025836142d5565b91507f45524332303a207472616e736665722066726f6d20746865207a65726f20616460008301527f64726573730000000000000000000000000000000000000000000000000000006020830152604082019050919050565b60006139e7602c836142d5565b91507f4d6972726f726564546f6b656e3a204f6e6c79206f726967696e616c20746f6b60008301527f656e2063616e206d696e742e00000000000000000000000000000000000000006020830152604082019050919050565b6000613a4d6024836142d5565b91507f45524332303a20617070726f76652066726f6d20746865207a65726f2061646460008301527f72657373000000000000000000000000000000000000000000000000000000006020830152604082019050919050565b6000613ab3601d836142d5565b91507f416464726573733a2063616c6c20746f206e6f6e2d636f6e74726163740000006000830152602082019050919050565b6000613af36032836142d5565b91507f4d6972726f726564546f6b656e3a20416374696f6e20666f7262696464656e2c60008301527f206173736574206c6971756964617465642e00000000000000000000000000006020830152604082019050919050565b6000613b596016836142d5565b91507f4552433230536e617073686f743a2069642069732030000000000000000000006000830152602082019050919050565b6000613b99601b836142d5565b91507f4d6972726f726564546f6b656e3a206e6f7420616c6c6f7765643b00000000006000830152602082019050919050565b6000613bd9602a836142d5565b91507f5361666545524332303a204552433230206f7065726174696f6e20646964206e60008301527f6f742073756363656564000000000000000000000000000000000000000000006020830152604082019050919050565b6000613c3f6025836142d5565b91507f45524332303a2064656372656173656420616c6c6f77616e63652062656c6f7760008301527f207a65726f0000000000000000000000000000000000000000000000000000006020830152604082019050919050565b6000613ca5601f836142d5565b91507f45524332303a206d696e7420746f20746865207a65726f2061646472657373006000830152602082019050919050565b613ce1816145aa565b82525050565b613cf0816145b4565b82525050565b6000613d0282846131c3565b915081905092915050565b6000602082019050613d2260008301846131a5565b92915050565b6000608082019050613d3d60008301876131a5565b613d4a60208301866131a5565b613d576040830185613cd8565b613d646060830184613cd8565b95945050505050565b6000604082019050613d8260008301856131a5565b613d8f6020830184613cd8565b9392505050565b6000608082019050613dab60008301876131a5565b613db86020830186613cd8565b613dc56040830185613cd8565b613dd26060830184613cd8565b95945050505050565b6000602082019050613df060008301846131b4565b92915050565b6000602082019050613e0b60008301846131f4565b92915050565b60006020820190508181036000830152613e2b8184613203565b905092915050565b60006020820190508181036000830152613e4c8161323c565b9050919050565b60006020820190508181036000830152613e6c8161327c565b9050919050565b60006020820190508181036000830152613e8c816132e2565b9050919050565b60006020820190508181036000830152613eac81613348565b9050919050565b60006020820190508181036000830152613ecc816133d4565b9050919050565b60006020820190508181036000830152613eec8161343a565b9050919050565b60006020820190508181036000830152613f0c816134a0565b9050919050565b60006020820190508181036000830152613f2c81613506565b9050919050565b60006020820190508181036000830152613f4c81613592565b9050919050565b60006020820190508181036000830152613f6c816135f8565b9050919050565b60006020820190508181036000830152613f8c8161365e565b9050919050565b60006020820190508181036000830152613fac816136c4565b9050919050565b60006020820190508181036000830152613fcc81613750565b9050919050565b60006020820190508181036000830152613fec816137b6565b9050919050565b6000602082019050818103600083015261400c816137f6565b9050919050565b6000602082019050818103600083015261402c81613882565b9050919050565b6000602082019050818103600083015261404c816138e8565b9050919050565b6000602082019050818103600083015261406c81613974565b9050919050565b6000602082019050818103600083015261408c816139da565b9050919050565b600060208201905081810360008301526140ac81613a40565b9050919050565b600060208201905081810360008301526140cc81613aa6565b9050919050565b600060208201905081810360008301526140ec81613ae6565b9050919050565b6000602082019050818103600083015261410c81613b4c565b9050919050565b6000602082019050818103600083015261412c81613b8c565b9050919050565b6000602082019050818103600083015261414c81613bcc565b9050919050565b6000602082019050818103600083015261416c81613c32565b9050919050565b6000602082019050818103600083015261418c81613c98565b9050919050565b60006020820190506141a86000830184613cd8565b92915050565b60006060820190506141c36000830186613cd8565b6141d060208301856131a5565b6141dd6040830184613cd8565b949350505050565b600060a0820190506141fa6000830188613cd8565b6142076020830187613cd8565b6142146040830186613cd8565b6142216060830185613cd8565b61422e60808301846131a5565b9695505050505050565b600060208201905061424d6000830184613ce7565b92915050565b6000604051905081810181811067ffffffffffffffff8211171561427a57614279614708565b5b8060405250919050565b600067ffffffffffffffff82111561429f5761429e614708565b5b601f19601f8301169050602081019050919050565b600081519050919050565b600081519050919050565b600081905092915050565b600082825260208201905092915050565b60006142f1826145aa565b91506142fc836145aa565b9250827fffffffffffffffffffffffffffffffffffffffffffffffffffffffffffffffff038211156143315761433061467b565b5b828201905092915050565b6000614347826145aa565b9150614352836145aa565b925082614362576143616146aa565b5b828204905092915050565b6000808291508390505b60018511156143b7578086048111156143935761439261467b565b5b60018516156143a25780820291505b80810290506143b085614748565b9450614377565b94509492505050565b60006143cb826145aa565b91506143d6836145b4565b92506144037fffffffffffffffffffffffffffffffffffffffffffffffffffffffffffffffff848461440b565b905092915050565b60008261441b57600190506144d7565b8161442957600090506144d7565b816001811461443f576002811461444957614478565b60019150506144d7565b60ff84111561445b5761445a61467b565b5b8360020a9150848211156144725761447161467b565b5b506144d7565b5060208310610133831016604e8410600b84101617156144ad5782820a9050838111156144a8576144a761467b565b5b6144d7565b6144ba848484600161436d565b925090508184048111156144d1576144d061467b565b5b81810290505b9392505050565b60006144e9826145aa565b91506144f4836145aa565b9250817fffffffffffffffffffffffffffffffffffffffffffffffffffffffffffffffff048311821515161561452d5761452c61467b565b5b828202905092915050565b6000614543826145aa565b915061454e836145aa565b9250828210156145615761456061467b565b5b828203905092915050565b60006145778261458a565b9050919050565b60008115159050919050565b600073ffffffffffffffffffffffffffffffffffffffff82169050919050565b6000819050919050565b600060ff82169050919050565b60006145cc826145d3565b9050919050565b60006145de8261458a565b9050919050565b60005b838110156146035780820151818401526020810190506145e8565b83811115614612576000848401525b50505050565b6000600282049050600182168061463057607f821691505b60208210811415614644576146436146d9565b5b50919050565b6000614655826145aa565b9150614660836145aa565b9250826146705761466f6146aa565b5b828206905092915050565b7f4e487b7100000000000000000000000000000000000000000000000000000000600052601160045260246000fd5b7f4e487b7100000000000000000000000000000000000000000000000000000000600052601260045260246000fd5b7f4e487b7100000000000000000000000000000000000000000000000000000000600052602260045260246000fd5b7f4e487b7100000000000000000000000000000000000000000000000000000000600052604160045260246000fd5b6000601f19601f8301169050919050565b60008160011c9050919050565b61475e8161456c565b811461476957600080fd5b50565b6147758161457e565b811461478057600080fd5b50565b61478c816145aa565b811461479757600080fd5b50565b6147a3816145b4565b81146147ae57600080fd5b5056fea264697066735822122049dd38e3e023ffe75ac378166fd76076ae04fd1416a8ac5db8ea5bac678fd57464736f6c63430008000033",
  "linkReferences": {},
  "deployedLinkReferences": {}
}