{
  "_format": "hh-sol-artifact-1",
  "contractName": "CfManagerSoftcap",
  "sourceName": "contracts/managers/crowdfunding-softcap/CfManagerSoftcap.sol",
  "abi": [
    {
      "inputs": [
        {
          "internalType": "uint256",
          "name": "id",
          "type": "uint256"
        },
        {
          "internalType": "address",
          "name": "owner",
          "type": "address"
        },
        {
          "internalType": "string",
          "name": "ansName",
          "type": "string"
        },
        {
          "internalType": "uint256",
          "name": "ansId",
          "type": "uint256"
        },
        {
          "internalType": "address",
          "name": "asset",
          "type": "address"
        },
        {
          "internalType": "uint256",
          "name": "tokenPrice",
          "type": "uint256"
        },
        {
          "internalType": "uint256",
          "name": "softCap",
          "type": "uint256"
        },
        {
          "internalType": "uint256",
          "name": "minInvestment",
          "type": "uint256"
        },
        {
          "internalType": "uint256",
          "name": "maxInvestment",
          "type": "uint256"
        },
        {
          "internalType": "bool",
          "name": "whitelistRequired",
          "type": "bool"
        },
        {
          "internalType": "string",
          "name": "info",
          "type": "string"
        }
      ],
      "stateMutability": "nonpayable",
      "type": "constructor"
    },
    {
      "anonymous": false,
      "inputs": [
        {
          "indexed": true,
          "internalType": "address",
          "name": "owner",
          "type": "address"
        },
        {
          "indexed": false,
          "internalType": "address",
          "name": "asset",
          "type": "address"
        },
        {
          "indexed": false,
          "internalType": "uint256",
          "name": "tokensReturned",
          "type": "uint256"
        },
        {
          "indexed": false,
          "internalType": "uint256",
          "name": "timestamp",
          "type": "uint256"
        }
      ],
      "name": "CancelCampaign",
      "type": "event"
    },
    {
      "anonymous": false,
      "inputs": [
        {
          "indexed": true,
          "internalType": "address",
          "name": "investor",
          "type": "address"
        },
        {
          "indexed": false,
          "internalType": "address",
          "name": "asset",
          "type": "address"
        },
        {
          "indexed": false,
          "internalType": "uint256",
          "name": "tokenAmount",
          "type": "uint256"
        },
        {
          "indexed": false,
          "internalType": "uint256",
          "name": "tokenValue",
          "type": "uint256"
        },
        {
          "indexed": false,
          "internalType": "uint256",
          "name": "timestamp",
          "type": "uint256"
        }
      ],
      "name": "CancelInvestment",
      "type": "event"
    },
    {
      "anonymous": false,
      "inputs": [
        {
          "indexed": false,
          "internalType": "address",
          "name": "caller",
          "type": "address"
        },
        {
          "indexed": false,
          "internalType": "address",
          "name": "newOwner",
          "type": "address"
        },
        {
          "indexed": false,
          "internalType": "uint256",
          "name": "timestamp",
          "type": "uint256"
        }
      ],
      "name": "ChangeOwnership",
      "type": "event"
    },
    {
      "anonymous": false,
      "inputs": [
        {
          "indexed": true,
          "internalType": "address",
          "name": "investor",
          "type": "address"
        },
        {
          "indexed": false,
          "internalType": "address",
          "name": "asset",
          "type": "address"
        },
        {
          "indexed": false,
          "internalType": "uint256",
          "name": "tokenAmount",
          "type": "uint256"
        },
        {
          "indexed": false,
          "internalType": "uint256",
          "name": "tokenValue",
          "type": "uint256"
        },
        {
          "indexed": false,
          "internalType": "uint256",
          "name": "timestamp",
          "type": "uint256"
        }
      ],
      "name": "Claim",
      "type": "event"
    },
    {
      "anonymous": false,
      "inputs": [
        {
          "indexed": true,
          "internalType": "address",
          "name": "owner",
          "type": "address"
        },
        {
          "indexed": false,
          "internalType": "address",
          "name": "asset",
          "type": "address"
        },
        {
          "indexed": false,
          "internalType": "uint256",
          "name": "fundsRaised",
          "type": "uint256"
        },
        {
          "indexed": false,
          "internalType": "uint256",
          "name": "tokensSold",
          "type": "uint256"
        },
        {
          "indexed": false,
          "internalType": "uint256",
          "name": "tokensRefund",
          "type": "uint256"
        },
        {
          "indexed": false,
          "internalType": "uint256",
          "name": "timestamp",
          "type": "uint256"
        }
      ],
      "name": "Finalize",
      "type": "event"
    },
    {
      "anonymous": false,
      "inputs": [
        {
          "indexed": true,
          "internalType": "address",
          "name": "investor",
          "type": "address"
        },
        {
          "indexed": false,
          "internalType": "address",
          "name": "asset",
          "type": "address"
        },
        {
          "indexed": false,
          "internalType": "uint256",
          "name": "tokenAmount",
          "type": "uint256"
        },
        {
          "indexed": false,
          "internalType": "uint256",
          "name": "tokenValue",
          "type": "uint256"
        },
        {
          "indexed": false,
          "internalType": "uint256",
          "name": "timestamp",
          "type": "uint256"
        }
      ],
      "name": "Invest",
      "type": "event"
    },
    {
      "anonymous": false,
      "inputs": [
        {
          "indexed": false,
          "internalType": "string",
          "name": "info",
          "type": "string"
        },
        {
          "indexed": false,
          "internalType": "address",
          "name": "setter",
          "type": "address"
        },
        {
          "indexed": false,
          "internalType": "uint256",
          "name": "timestamp",
          "type": "uint256"
        }
      ],
      "name": "SetInfo",
      "type": "event"
    },
    {
      "inputs": [],
      "name": "cancelCampaign",
      "outputs": [],
      "stateMutability": "nonpayable",
      "type": "function"
    },
    {
      "inputs": [],
      "name": "cancelInvestment",
      "outputs": [],
      "stateMutability": "nonpayable",
      "type": "function"
    },
    {
      "inputs": [
        {
          "internalType": "address",
          "name": "newOwner",
          "type": "address"
        }
      ],
      "name": "changeOwnership",
      "outputs": [],
      "stateMutability": "nonpayable",
      "type": "function"
    },
    {
      "inputs": [
        {
          "internalType": "address",
          "name": "investor",
          "type": "address"
        }
      ],
      "name": "claim",
      "outputs": [],
      "stateMutability": "nonpayable",
      "type": "function"
    },
    {
      "inputs": [
        {
          "internalType": "address",
          "name": "",
          "type": "address"
        }
      ],
      "name": "claims",
      "outputs": [
        {
          "internalType": "uint256",
          "name": "",
          "type": "uint256"
        }
      ],
      "stateMutability": "view",
      "type": "function"
    },
    {
      "inputs": [],
      "name": "finalize",
      "outputs": [],
      "stateMutability": "nonpayable",
      "type": "function"
    },
    {
      "inputs": [],
      "name": "getInfoHistory",
      "outputs": [
        {
          "components": [
            {
              "internalType": "string",
              "name": "info",
              "type": "string"
            },
            {
              "internalType": "uint256",
              "name": "timestamp",
              "type": "uint256"
            }
          ],
          "internalType": "struct Structs.InfoEntry[]",
          "name": "",
          "type": "tuple[]"
        }
      ],
      "stateMutability": "view",
      "type": "function"
    },
    {
      "inputs": [],
      "name": "getState",
      "outputs": [
        {
          "components": [
            {
              "internalType": "uint256",
              "name": "id",
              "type": "uint256"
            },
            {
              "internalType": "address",
              "name": "contractAddress",
              "type": "address"
            },
            {
              "internalType": "string",
              "name": "ansName",
              "type": "string"
            },
            {
              "internalType": "uint256",
              "name": "ansId",
              "type": "uint256"
            },
            {
              "internalType": "address",
              "name": "createdBy",
              "type": "address"
            },
            {
              "internalType": "address",
              "name": "owner",
              "type": "address"
            },
            {
              "internalType": "address",
              "name": "asset",
              "type": "address"
            },
            {
              "internalType": "address",
              "name": "assetFactory",
              "type": "address"
            },
            {
              "internalType": "address",
              "name": "issuer",
              "type": "address"
            },
            {
              "internalType": "uint256",
              "name": "tokenPrice",
              "type": "uint256"
            },
            {
              "internalType": "uint256",
              "name": "softCap",
              "type": "uint256"
            },
            {
              "internalType": "uint256",
              "name": "minInvestment",
              "type": "uint256"
            },
            {
              "internalType": "uint256",
              "name": "maxInvestment",
              "type": "uint256"
            },
            {
              "internalType": "bool",
              "name": "whitelistRequired",
              "type": "bool"
            },
            {
              "internalType": "bool",
              "name": "finalized",
              "type": "bool"
            },
            {
              "internalType": "bool",
              "name": "cancelled",
              "type": "bool"
            },
            {
              "internalType": "uint256",
              "name": "totalClaimableTokens",
              "type": "uint256"
            },
            {
              "internalType": "uint256",
              "name": "totalInvestorsCount",
              "type": "uint256"
            },
            {
              "internalType": "uint256",
              "name": "totalClaimsCount",
              "type": "uint256"
            },
            {
              "internalType": "uint256",
              "name": "totalFundsRaised",
              "type": "uint256"
            },
            {
              "internalType": "uint256",
              "name": "totalTokensSold",
              "type": "uint256"
            },
            {
              "internalType": "uint256",
              "name": "totalTokensBalance",
              "type": "uint256"
            },
            {
              "internalType": "string",
              "name": "info",
              "type": "string"
            }
          ],
          "internalType": "struct Structs.CfManagerSoftcapState",
          "name": "",
          "type": "tuple"
        }
      ],
      "stateMutability": "view",
      "type": "function"
    },
    {
      "inputs": [
        {
          "internalType": "uint256",
          "name": "amount",
          "type": "uint256"
        }
      ],
      "name": "invest",
      "outputs": [],
      "stateMutability": "nonpayable",
      "type": "function"
    },
    {
      "inputs": [
        {
          "internalType": "address",
          "name": "",
          "type": "address"
        }
      ],
      "name": "investments",
      "outputs": [
        {
          "internalType": "uint256",
          "name": "",
          "type": "uint256"
        }
      ],
      "stateMutability": "view",
      "type": "function"
    },
    {
      "inputs": [
        {
          "internalType": "string",
          "name": "info",
          "type": "string"
        }
      ],
      "name": "setInfo",
      "outputs": [],
      "stateMutability": "nonpayable",
      "type": "function"
    },
    {
      "inputs": [
        {
          "internalType": "address",
          "name": "",
          "type": "address"
        }
      ],
      "name": "tokenAmounts",
      "outputs": [
        {
          "internalType": "uint256",
          "name": "",
          "type": "uint256"
        }
      ],
      "stateMutability": "view",
      "type": "function"
    }
  ],
  "bytecode": "0x60806040523480156200001157600080fd5b50604051620055c3380380620055c3833981810160405281019062000037919062000e38565b600073ffffffffffffffffffffffffffffffffffffffff168a73ffffffffffffffffffffffffffffffffffffffff161415620000aa576040517f08c379a0000000000000000000000000000000000000000000000000000000008152600401620000a19062001299565b60405180910390fd5b600073ffffffffffffffffffffffffffffffffffffffff168773ffffffffffffffffffffffffffffffffffffffff1614156200011d576040517f08c379a0000000000000000000000000000000000000000000000000000000008152600401620001149062001277565b60405180910390fd5b6000861162000163576040517f08c379a00000000000000000000000000000000000000000000000000000000081526004016200015a9062001255565b60405180910390fd5b83831015620001a9576040517f08c379a0000000000000000000000000000000000000000000000000000000008152600401620001a090620012dd565b60405180910390fd5b60008311620001ef576040517f08c379a0000000000000000000000000000000000000000000000000000000008152600401620001e69062001233565b60405180910390fd5b60008773ffffffffffffffffffffffffffffffffffffffff166332e71ead6040518163ffffffff1660e01b815260040160206040518083038186803b1580156200023857600080fd5b505afa1580156200024d573d6000803e3d6000fd5b505050506040513d601f19601f8201168201806040525081019062000273919062000d9b565b905060008873ffffffffffffffffffffffffffffffffffffffff16639a4e8ce86040518163ffffffff1660e01b815260040160206040518083038186803b158015620002be57600080fd5b505afa158015620002d3573d6000803e3d6000fd5b505050506040513d601f19601f82011682018060405250810190620002f9919062000d9b565b9050604051806102e001604052808e81526020013073ffffffffffffffffffffffffffffffffffffffff1681526020018c81526020018b81526020013373ffffffffffffffffffffffffffffffffffffffff1681526020018d73ffffffffffffffffffffffffffffffffffffffff1681526020018a73ffffffffffffffffffffffffffffffffffffffff1681526020018273ffffffffffffffffffffffffffffffffffffffff1681526020018373ffffffffffffffffffffffffffffffffffffffff168152602001898152602001888152602001878152602001868152602001851515815260200160001515815260200160001515815260200160008152602001600081526020016000815260200160008152602001600081526020016000815260200184815250600080820151816000015560208201518160010160006101000a81548173ffffffffffffffffffffffffffffffffffffffff021916908373ffffffffffffffffffffffffffffffffffffffff16021790555060408201518160020190805190602001906200049192919062000b12565b506060820151816003015560808201518160040160006101000a81548173ffffffffffffffffffffffffffffffffffffffff021916908373ffffffffffffffffffffffffffffffffffffffff16021790555060a08201518160050160006101000a81548173ffffffffffffffffffffffffffffffffffffffff021916908373ffffffffffffffffffffffffffffffffffffffff16021790555060c08201518160060160006101000a81548173ffffffffffffffffffffffffffffffffffffffff021916908373ffffffffffffffffffffffffffffffffffffffff16021790555060e08201518160070160006101000a81548173ffffffffffffffffffffffffffffffffffffffff021916908373ffffffffffffffffffffffffffffffffffffffff1602179055506101008201518160080160006101000a81548173ffffffffffffffffffffffffffffffffffffffff021916908373ffffffffffffffffffffffffffffffffffffffff160217905550610120820151816009015561014082015181600a015561016082015181600b015561018082015181600c01556101a082015181600d0160006101000a81548160ff0219169083151502179055506101c082015181600d0160016101000a81548160ff0219169083151502179055506101e082015181600d0160026101000a81548160ff02191690831515021790555061020082015181600e015561022082015181600f01556102408201518160100155610260820151816011015561028082015181601201556102a082015181601301556102c0820151816014019080519060200190620006f092919062000b12565b5090505086620007878a73ffffffffffffffffffffffffffffffffffffffff166318160ddd6040518163ffffffff1660e01b815260040160206040518083038186803b1580156200074057600080fd5b505afa15801562000755573d6000803e3d6000fd5b505050506040513d601f19601f820116820180604052508101906200077b919062000e0c565b620007de60201b60201c565b1015620007cb576040517f08c379a0000000000000000000000000000000000000000000000000000000008152600401620007c290620012bb565b60405180910390fd5b505050505050505050505050506200179c565b6000620007f06200084e60201b60201c565b62000800620008fb60201b60201c565b6200080c919062001547565b6200081c620009b660201b60201c565b600060090154846200082f919062001547565b6200083b919062001547565b62000847919062001377565b9050919050565b60008060060160009054906101000a900473ffffffffffffffffffffffffffffffffffffffff1673ffffffffffffffffffffffffffffffffffffffff1663c24fe16c6040518163ffffffff1660e01b815260040160206040518083038186803b158015620008bb57600080fd5b505afa158015620008d0573d6000803e3d6000fd5b505050506040513d601f19601f82011682018060405250810190620008f6919062000e0c565b905090565b60008060060160009054906101000a900473ffffffffffffffffffffffffffffffffffffffff1673ffffffffffffffffffffffffffffffffffffffff1663313ce5676040518163ffffffff1660e01b815260040160206040518083038186803b1580156200096857600080fd5b505afa1580156200097d573d6000803e3d6000fd5b505050506040513d601f19601f82011682018060405250810190620009a3919062000f71565b600a620009b191906200140a565b905090565b6000620009c862000ae660201b60201c565b73ffffffffffffffffffffffffffffffffffffffff16631865c57d6040518163ffffffff1660e01b815260040160006040518083038186803b15801562000a0e57600080fd5b505afa15801562000a23573d6000803e3d6000fd5b505050506040513d6000823e3d601f19601f8201168201806040525081019062000a4e919062000dc7565b60a0015173ffffffffffffffffffffffffffffffffffffffff1663313ce5676040518163ffffffff1660e01b815260040160206040518083038186803b15801562000a9857600080fd5b505afa15801562000aad573d6000803e3d6000fd5b505050506040513d601f19601f8201168201806040525081019062000ad3919062000f71565b600a62000ae191906200140a565b905090565b60008060080160009054906101000a900473ffffffffffffffffffffffffffffffffffffffff16905090565b82805462000b209062001635565b90600052602060002090601f01602090048101928262000b44576000855562000b90565b82601f1062000b5f57805160ff191683800117855562000b90565b8280016001018555821562000b90579182015b8281111562000b8f57825182559160200191906001019062000b72565b5b50905062000b9f919062000ba3565b5090565b5b8082111562000bbe57600081600090555060010162000ba4565b5090565b600062000bd962000bd38462001333565b620012ff565b90508281526020810184848401111562000bf257600080fd5b62000bff848285620015ff565b509392505050565b60008151905062000c188162001734565b92915050565b60008151905062000c2f816200174e565b92915050565b600082601f83011262000c4757600080fd5b815162000c5984826020860162000bc2565b91505092915050565b6000610100828403121562000c7657600080fd5b62000c83610100620012ff565b9050600062000c958482850162000d6d565b600083015250602062000cab8482850162000c07565b602083015250604082015167ffffffffffffffff81111562000ccc57600080fd5b62000cda8482850162000c35565b604083015250606062000cf08482850162000c07565b606083015250608062000d068482850162000c07565b60808301525060a062000d1c8482850162000c07565b60a08301525060c062000d328482850162000c07565b60c08301525060e082015167ffffffffffffffff81111562000d5357600080fd5b62000d618482850162000c35565b60e08301525092915050565b60008151905062000d7e8162001768565b92915050565b60008151905062000d958162001782565b92915050565b60006020828403121562000dae57600080fd5b600062000dbe8482850162000c07565b91505092915050565b60006020828403121562000dda57600080fd5b600082015167ffffffffffffffff81111562000df557600080fd5b62000e038482850162000c62565b91505092915050565b60006020828403121562000e1f57600080fd5b600062000e2f8482850162000d6d565b91505092915050565b60008060008060008060008060008060006101608c8e03121562000e5b57600080fd5b600062000e6b8e828f0162000d6d565b9b5050602062000e7e8e828f0162000c07565b9a505060408c015167ffffffffffffffff81111562000e9c57600080fd5b62000eaa8e828f0162000c35565b995050606062000ebd8e828f0162000d6d565b985050608062000ed08e828f0162000c07565b97505060a062000ee38e828f0162000d6d565b96505060c062000ef68e828f0162000d6d565b95505060e062000f098e828f0162000d6d565b94505061010062000f1d8e828f0162000d6d565b93505061012062000f318e828f0162000c1e565b9250506101408c015167ffffffffffffffff81111562000f5057600080fd5b62000f5e8e828f0162000c35565b9150509295989b509295989b9093969950565b60006020828403121562000f8457600080fd5b600062000f948482850162000d84565b91505092915050565b600062000fac60398362001366565b91507f43664d616e61676572536f66746361703a204d617820696e766573746d656e7460008301527f2068617320746f20626520626967676572207468616e20302e000000000000006020830152604082019050919050565b60006200101460418362001366565b91507f43664d616e61676572536f66746361703a20496e697469616c2070726963652060008301527f70657220746f6b656e206d7573742062652067726561746572207468616e203060208301527f2e000000000000000000000000000000000000000000000000000000000000006040830152606082019050919050565b6000620010a260278362001366565b91507f43664d616e61676572536f66746361703a20496e76616c69642061737365742060008301527f61646472657373000000000000000000000000000000000000000000000000006020830152604082019050919050565b60006200110a60278362001366565b91507f43664d616e61676572536f66746361703a20496e76616c6964206f776e65722060008301527f61646472657373000000000000000000000000000000000000000000000000006020830152604082019050919050565b60006200117260238362001366565b91507f43664d616e61676572536f66746361703a20496e76616c696420736f6674206360008301527f61702e00000000000000000000000000000000000000000000000000000000006020830152604082019050919050565b6000620011da603b8362001366565b91507f43664d616e61676572536f66746361703a204d61782068617320746f2062652060008301527f626967676572207468616e206d696e20696e766573746d656e742e00000000006020830152604082019050919050565b600060208201905081810360008301526200124e8162000f9d565b9050919050565b60006020820190508181036000830152620012708162001005565b9050919050565b60006020820190508181036000830152620012928162001093565b9050919050565b60006020820190508181036000830152620012b481620010fb565b9050919050565b60006020820190508181036000830152620012d68162001163565b9050919050565b60006020820190508181036000830152620012f881620011cb565b9050919050565b6000604051905081810181811067ffffffffffffffff82111715620013295762001328620016f8565b5b8060405250919050565b600067ffffffffffffffff821115620013515762001350620016f8565b5b601f19601f8301169050602081019050919050565b600082825260208201905092915050565b60006200138482620015e8565b91506200139183620015e8565b925082620013a457620013a36200169a565b5b828204905092915050565b6000808291508390505b60018511156200140157808604811115620013d957620013d86200166b565b5b6001851615620013e95780820291505b8081029050620013f98562001727565b9450620013b9565b94509492505050565b60006200141782620015e8565b91506200142483620015f2565b9250620014537fffffffffffffffffffffffffffffffffffffffffffffffffffffffffffffffff84846200145b565b905092915050565b6000826200146d576001905062001540565b816200147d576000905062001540565b8160018114620014965760028114620014a157620014d7565b600191505062001540565b60ff841115620014b657620014b56200166b565b5b8360020a915084821115620014d057620014cf6200166b565b5b5062001540565b5060208310610133831016604e8410600b8410161715620015115782820a9050838111156200150b576200150a6200166b565b5b62001540565b620015208484846001620013af565b925090508184048111156200153a57620015396200166b565b5b81810290505b9392505050565b60006200155482620015e8565b91506200156183620015e8565b9250817fffffffffffffffffffffffffffffffffffffffffffffffffffffffffffffffff04831182151516156200159d576200159c6200166b565b5b828202905092915050565b6000620015b582620015c8565b9050919050565b60008115159050919050565b600073ffffffffffffffffffffffffffffffffffffffff82169050919050565b6000819050919050565b600060ff82169050919050565b60005b838110156200161f57808201518184015260208101905062001602565b838111156200162f576000848401525b50505050565b600060028204905060018216806200164e57607f821691505b60208210811415620016655762001664620016c9565b5b50919050565b7f4e487b7100000000000000000000000000000000000000000000000000000000600052601160045260246000fd5b7f4e487b7100000000000000000000000000000000000000000000000000000000600052601260045260246000fd5b7f4e487b7100000000000000000000000000000000000000000000000000000000600052602260045260246000fd5b7f4e487b7100000000000000000000000000000000000000000000000000000000600052604160045260246000fd5b60008160011c9050919050565b6200173f81620015a8565b81146200174b57600080fd5b50565b6200175981620015bc565b81146200176557600080fd5b50565b6200177381620015e8565b81146200177f57600080fd5b50565b6200178d81620015f2565b81146200179957600080fd5b50565b613e1780620017ac6000396000f3fe608060405234801561001057600080fd5b50600436106100b45760003560e01c806394f8e9541161007157806394f8e9541461015157806396b988621461015b578063980e78441461018b57806398e1625514610195578063a0e2e5f6146101b3578063c6788bdd146101e3576100b4565b80631865c57d146100b95780631e83409a146100d75780632af4c31e146100f35780632afcf4801461010f5780634bb278f31461012b578063937f6e7714610135575b600080fd5b6100c1610213565b6040516100ce9190613842565b60405180910390f35b6100f160048036038101906100ec919061296a565b6106be565b005b61010d6004803603810190610108919061296a565b610915565b005b61012960048036038101906101249190612a3e565b610a2a565b005b6101336110bb565b005b61014f600480360381019061014a91906129bc565b6114fd565b005b610159611651565b005b6101756004803603810190610170919061296a565b61196a565b6040516101829190613864565b60405180910390f35b610193611982565b005b61019d611c23565b6040516101aa91906135e0565b60405180910390f35b6101cd60048036038101906101c8919061296a565b611d1e565b6040516101da9190613864565b60405180910390f35b6101fd60048036038101906101f8919061296a565b611d36565b60405161020a9190613864565b60405180910390f35b61021b61254b565b600080604051806102e0016040529081600082015481526020016001820160009054906101000a900473ffffffffffffffffffffffffffffffffffffffff1673ffffffffffffffffffffffffffffffffffffffff1673ffffffffffffffffffffffffffffffffffffffff16815260200160028201805461029a90613c79565b80601f01602080910402602001604051908101604052809291908181526020018280546102c690613c79565b80156103135780601f106102e857610100808354040283529160200191610313565b820191906000526020600020905b8154815290600101906020018083116102f657829003601f168201915b50505050508152602001600382015481526020016004820160009054906101000a900473ffffffffffffffffffffffffffffffffffffffff1673ffffffffffffffffffffffffffffffffffffffff1673ffffffffffffffffffffffffffffffffffffffff1681526020016005820160009054906101000a900473ffffffffffffffffffffffffffffffffffffffff1673ffffffffffffffffffffffffffffffffffffffff1673ffffffffffffffffffffffffffffffffffffffff1681526020016006820160009054906101000a900473ffffffffffffffffffffffffffffffffffffffff1673ffffffffffffffffffffffffffffffffffffffff1673ffffffffffffffffffffffffffffffffffffffff1681526020016007820160009054906101000a900473ffffffffffffffffffffffffffffffffffffffff1673ffffffffffffffffffffffffffffffffffffffff1673ffffffffffffffffffffffffffffffffffffffff1681526020016008820160009054906101000a900473ffffffffffffffffffffffffffffffffffffffff1673ffffffffffffffffffffffffffffffffffffffff1673ffffffffffffffffffffffffffffffffffffffff16815260200160098201548152602001600a8201548152602001600b8201548152602001600c8201548152602001600d820160009054906101000a900460ff16151515158152602001600d820160019054906101000a900460ff16151515158152602001600d820160029054906101000a900460ff16151515158152602001600e8201548152602001600f82015481526020016010820154815260200160118201548152602001601282015481526020016013820154815260200160148201805461059990613c79565b80601f01602080910402602001604051908101604052809291908181526020018280546105c590613c79565b80156106125780601f106105e757610100808354040283529160200191610612565b820191906000526020600020905b8154815290600101906020018083116105f557829003601f168201915b5050505050815250509050610625611d4e565b73ffffffffffffffffffffffffffffffffffffffff166370a08231306040518263ffffffff1660e01b815260040161065d9190613496565b60206040518083038186803b15801561067557600080fd5b505afa158015610689573d6000803e3d6000fd5b505050506040513d601f19601f820116820180604052508101906106ad9190612a67565b816102a00181815250508091505090565b6000600d0160019054906101000a900460ff16610710576040517f08c379a000000000000000000000000000000000000000000000000000000000815260040161070790613662565b60405180910390fd5b6000601660008373ffffffffffffffffffffffffffffffffffffffff1673ffffffffffffffffffffffffffffffffffffffff1681526020019081526020016000205490506000601760008473ffffffffffffffffffffffffffffffffffffffff1673ffffffffffffffffffffffffffffffffffffffff1681526020019081526020016000205490506000821180156107a85750600081115b6107e7576040517f08c379a00000000000000000000000000000000000000000000000000000000081526004016107de90613802565b60405180910390fd5b6001600060100160008282546107fd919061395c565b92505081905550816000600e0160008282546108199190613bae565b925050819055506000601660008573ffffffffffffffffffffffffffffffffffffffff1673ffffffffffffffffffffffffffffffffffffffff168152602001908152602001600020819055506108978383610872611d4e565b73ffffffffffffffffffffffffffffffffffffffff16611d7a9092919063ffffffff16565b8273ffffffffffffffffffffffffffffffffffffffff167f9137e112a187039f8a3291c0a66fce97153d25ec42036e82360d5d0106d19a6e600060060160009054906101000a900473ffffffffffffffffffffffffffffffffffffffff168484426040516109089493929190613548565b60405180910390a2505050565b600060050160009054906101000a900473ffffffffffffffffffffffffffffffffffffffff1673ffffffffffffffffffffffffffffffffffffffff163373ffffffffffffffffffffffffffffffffffffffff16146109a8576040517f08c379a000000000000000000000000000000000000000000000000000000000815260040161099f906136e2565b60405180910390fd5b80600060050160006101000a81548173ffffffffffffffffffffffffffffffffffffffff021916908373ffffffffffffffffffffffffffffffffffffffff1602179055507fb4fa0c8f1565e6385961540cac5b9884d84157c515100cf972728e8be8dacdd3338242604051610a1f939291906134b1565b60405180910390a150565b6000600d0160029054906101000a900460ff1615610a7d576040517f08c379a0000000000000000000000000000000000000000000000000000000008152600401610a74906136c2565b60405180910390fd5b6000600d0160019054906101000a900460ff1615610ad0576040517f08c379a0000000000000000000000000000000000000000000000000000000008152600401610ac7906137e2565b60405180910390fd5b6000600d0160009054906101000a900460ff161580610b0f57506000600d0160009054906101000a900460ff168015610b0e5750610b0d33611e00565b5b5b610b4e576040517f08c379a0000000000000000000000000000000000000000000000000000000008152600401610b4590613782565b60405180910390fd5b60008111610b91576040517f08c379a0000000000000000000000000000000000000000000000000000000008152600401610b8890613762565b60405180910390fd5b600080600e0154610ba0611d4e565b73ffffffffffffffffffffffffffffffffffffffff166370a08231306040518263ffffffff1660e01b8152600401610bd89190613496565b60206040518083038186803b158015610bf057600080fd5b505afa158015610c04573d6000803e3d6000fd5b505050506040513d601f19601f82011682018060405250810190610c289190612a67565b610c329190613bae565b905060008111610c77576040517f08c379a0000000000000000000000000000000000000000000000000000000008152600401610c6e90613722565b60405180910390fd5b6000610c81611e99565b610c89611fb7565b610c9161206c565b60006009015486610ca291906139b2565b610cac9190613b54565b610cb69190613b54565b610cc091906139b2565b90506000610ccd82612115565b9050600082118015610cdf5750600081115b610d1e576040517f08c379a0000000000000000000000000000000000000000000000000000000008152600401610d1590613702565b60405180910390fd5b81831015610d61576040517f08c379a0000000000000000000000000000000000000000000000000000000008152600401610d58906137a2565b60405180910390fd5b6000610db6601660003373ffffffffffffffffffffffffffffffffffffffff1673ffffffffffffffffffffffffffffffffffffffff1681526020019081526020016000205484610db1919061395c565b612115565b9050610dc184612165565b811015610e03576040517f08c379a0000000000000000000000000000000000000000000000000000000008152600401610dfa90613702565b60405180910390fd5b6000600c0154811115610e4b576040517f08c379a0000000000000000000000000000000000000000000000000000000008152600401610e4290613742565b60405180910390fd5b610e7f333084610e59612194565b73ffffffffffffffffffffffffffffffffffffffff16612229909392919063ffffffff16565b6000601660003373ffffffffffffffffffffffffffffffffffffffff1673ffffffffffffffffffffffffffffffffffffffff168152602001908152602001600020541415610ee55760016000600f016000828254610edd919061395c565b925050819055505b82601660003373ffffffffffffffffffffffffffffffffffffffff1673ffffffffffffffffffffffffffffffffffffffff1681526020019081526020016000206000828254610f34919061395c565b9250508190555081601760003373ffffffffffffffffffffffffffffffffffffffff1673ffffffffffffffffffffffffffffffffffffffff1681526020019081526020016000206000828254610f8a919061395c565b9250508190555082601860003373ffffffffffffffffffffffffffffffffffffffff1673ffffffffffffffffffffffffffffffffffffffff1681526020019081526020016000206000828254610fe0919061395c565b92505081905550826000600e016000828254610ffc919061395c565b925050819055508260006012016000828254611018919061395c565b925050819055508160006011016000828254611034919061395c565b925050819055503373ffffffffffffffffffffffffffffffffffffffff167ff29b7b9c9bc4f1c24045a5a10b8bb59a7318d7a1e2e46af68bd5560dfce0e044600060060160009054906101000a900473ffffffffffffffffffffffffffffffffffffffff168585426040516110ac9493929190613548565b60405180910390a25050505050565b600060050160009054906101000a900473ffffffffffffffffffffffffffffffffffffffff1673ffffffffffffffffffffffffffffffffffffffff163373ffffffffffffffffffffffffffffffffffffffff161461114e576040517f08c379a0000000000000000000000000000000000000000000000000000000008152600401611145906136e2565b60405180910390fd5b6000600d0160029054906101000a900460ff16156111a1576040517f08c379a0000000000000000000000000000000000000000000000000000000008152600401611198906136c2565b60405180910390fd5b6000600d0160019054906101000a900460ff16156111f4576040517f08c379a00000000000000000000000000000000000000000000000000000000081526004016111eb906137e2565b60405180910390fd5b60006111fe612194565b905060008173ffffffffffffffffffffffffffffffffffffffff166370a08231306040518263ffffffff1660e01b815260040161123b9190613496565b60206040518083038186803b15801561125357600080fd5b505afa158015611267573d6000803e3d6000fd5b505050506040513d601f19601f8201168201806040525081019061128b9190612a67565b90506000600a01548110156112d5576040517f08c379a00000000000000000000000000000000000000000000000000000000081526004016112cc90613682565b60405180910390fd5b60016000600d0160016101000a81548160ff02191690831515021790555060006112fd611d4e565b90506000806012015490506000818373ffffffffffffffffffffffffffffffffffffffff166370a08231306040518263ffffffff1660e01b81526004016113449190613496565b60206040518083038186803b15801561135c57600080fd5b505afa158015611370573d6000803e3d6000fd5b505050506040513d601f19601f820116820180604052508101906113949190612a67565b61139e9190613bae565b9050600060060160009054906101000a900473ffffffffffffffffffffffffffffffffffffffff1673ffffffffffffffffffffffffffffffffffffffff166358a687ec6040518163ffffffff1660e01b8152600401600060405180830381600087803b15801561140d57600080fd5b505af1158015611421573d6000803e3d6000fd5b5050505061145033858773ffffffffffffffffffffffffffffffffffffffff16611d7a9092919063ffffffff16565b61147b33828573ffffffffffffffffffffffffffffffffffffffff16611d7a9092919063ffffffff16565b3373ffffffffffffffffffffffffffffffffffffffff167fc7ffb23c3f55c770b94ffcdbbe7d3b0520a2e76b9abe111f43c7c48cab999a6a600060060160009054906101000a900473ffffffffffffffffffffffffffffffffffffffff16868585426040516114ee95949392919061358d565b60405180910390a25050505050565b600060050160009054906101000a900473ffffffffffffffffffffffffffffffffffffffff1673ffffffffffffffffffffffffffffffffffffffff163373ffffffffffffffffffffffffffffffffffffffff1614611590576040517f08c379a0000000000000000000000000000000000000000000000000000000008152600401611587906136e2565b60405180910390fd5b6015604051806040016040528083815260200142815250908060018154018082558091505060019003906000526020600020906002020160009091909190915060008201518160000190805190602001906115ec929190612683565b506020820151816001015550508060006014019080519060200190611612929190612683565b507f39b28594242c42fce47a0a6e63bac12adbd07fbb35580f5a54b236858101d58a81334260405161164693929190613624565b60405180910390a150565b6000600d0160019054906101000a900460ff16156116a4576040517f08c379a000000000000000000000000000000000000000000000000000000000815260040161169b906137e2565b60405180910390fd5b6000601660003373ffffffffffffffffffffffffffffffffffffffff1673ffffffffffffffffffffffffffffffffffffffff1681526020019081526020016000205490506000601760003373ffffffffffffffffffffffffffffffffffffffff1673ffffffffffffffffffffffffffffffffffffffff16815260200190815260200160002054905060008211801561173c5750600081115b61177b576040517f08c379a000000000000000000000000000000000000000000000000000000000815260040161177290613802565b60405180910390fd5b60016000600f0160008282546117919190613bae565b925050819055506000601660003373ffffffffffffffffffffffffffffffffffffffff1673ffffffffffffffffffffffffffffffffffffffff168152602001908152602001600020819055506000601760003373ffffffffffffffffffffffffffffffffffffffff1673ffffffffffffffffffffffffffffffffffffffff168152602001908152602001600020819055506000601860003373ffffffffffffffffffffffffffffffffffffffff1673ffffffffffffffffffffffffffffffffffffffff16815260200190815260200160002081905550816000600e01600082825461187c9190613bae565b9250508190555081600060120160008282546118989190613bae565b9250508190555080600060110160008282546118b49190613bae565b925050819055506118ed33826118c8612194565b73ffffffffffffffffffffffffffffffffffffffff16611d7a9092919063ffffffff16565b3373ffffffffffffffffffffffffffffffffffffffff167f211dda46c5b3693e6a4dae7489d6a6738cf8a0104ce5b5ddbb477496a796e3ba600060060160009054906101000a900473ffffffffffffffffffffffffffffffffffffffff1684844260405161195e9493929190613548565b60405180910390a25050565b60176020528060005260406000206000915090505481565b600060050160009054906101000a900473ffffffffffffffffffffffffffffffffffffffff1673ffffffffffffffffffffffffffffffffffffffff163373ffffffffffffffffffffffffffffffffffffffff1614611a15576040517f08c379a0000000000000000000000000000000000000000000000000000000008152600401611a0c906136e2565b60405180910390fd5b6000600d0160029054906101000a900460ff1615611a68576040517f08c379a0000000000000000000000000000000000000000000000000000000008152600401611a5f906136c2565b60405180910390fd5b6000600d0160019054906101000a900460ff1615611abb576040517f08c379a0000000000000000000000000000000000000000000000000000000008152600401611ab2906137e2565b60405180910390fd5b60016000600d0160026101000a81548160ff0219169083151502179055506000611ae3611d4e565b73ffffffffffffffffffffffffffffffffffffffff166370a08231306040518263ffffffff1660e01b8152600401611b1b9190613496565b60206040518083038186803b158015611b3357600080fd5b505afa158015611b47573d6000803e3d6000fd5b505050506040513d601f19601f82011682018060405250810190611b6b9190612a67565b90506000811115611ba957611ba83382611b83611d4e565b73ffffffffffffffffffffffffffffffffffffffff16611d7a9092919063ffffffff16565b5b3373ffffffffffffffffffffffffffffffffffffffff167faf1ae5c6fb3f0ce445b207ae00f52f0b564d8fe58282727032de5d199eaa7981600060060160009054906101000a900473ffffffffffffffffffffffffffffffffffffffff168342604051611c1893929190613511565b60405180910390a250565b60606015805480602002602001604051908101604052809291908181526020016000905b82821015611d155783829060005260206000209060020201604051806040016040529081600082018054611c7a90613c79565b80601f0160208091040260200160405190810160405280929190818152602001828054611ca690613c79565b8015611cf35780601f10611cc857610100808354040283529160200191611cf3565b820191906000526020600020905b815481529060010190602001808311611cd657829003601f168201915b5050505050815260200160018201548152505081526020019060010190611c47565b50505050905090565b60186020528060005260406000206000915090505481565b60166020528060005260406000206000915090505481565b60008060060160009054906101000a900473ffffffffffffffffffffffffffffffffffffffff16905090565b611dfb8363a9059cbb60e01b8484604051602401611d999291906134e8565b604051602081830303815290604052907bffffffffffffffffffffffffffffffffffffffffffffffffffffffff19166020820180517bffffffffffffffffffffffffffffffffffffffffffffffffffffffff83818316178352505050506122b2565b505050565b6000611e0a612379565b73ffffffffffffffffffffffffffffffffffffffff16633657e851836040518263ffffffff1660e01b8152600401611e429190613496565b60206040518083038186803b158015611e5a57600080fd5b505afa158015611e6e573d6000803e3d6000fd5b505050506040513d601f19601f82011682018060405250810190611e929190612993565b9050919050565b6000611ea3612379565b73ffffffffffffffffffffffffffffffffffffffff16631865c57d6040518163ffffffff1660e01b815260040160006040518083038186803b158015611ee857600080fd5b505afa158015611efc573d6000803e3d6000fd5b505050506040513d6000823e3d601f19601f82011682018060405250810190611f2591906129fd565b60a0015173ffffffffffffffffffffffffffffffffffffffff1663313ce5676040518163ffffffff1660e01b815260040160206040518083038186803b158015611f6e57600080fd5b505afa158015611f82573d6000803e3d6000fd5b505050506040513d601f19601f82011682018060405250810190611fa69190612a90565b600a611fb29190613a36565b905090565b60008060060160009054906101000a900473ffffffffffffffffffffffffffffffffffffffff1673ffffffffffffffffffffffffffffffffffffffff1663313ce5676040518163ffffffff1660e01b815260040160206040518083038186803b15801561202357600080fd5b505afa158015612037573d6000803e3d6000fd5b505050506040513d601f19601f8201168201806040525081019061205b9190612a90565b600a6120679190613a36565b905090565b60008060060160009054906101000a900473ffffffffffffffffffffffffffffffffffffffff1673ffffffffffffffffffffffffffffffffffffffff1663c24fe16c6040518163ffffffff1660e01b815260040160206040518083038186803b1580156120d857600080fd5b505afa1580156120ec573d6000803e3d6000fd5b505050506040513d601f19601f820116820180604052508101906121109190612a67565b905090565b600061211f61206c565b612127611fb7565b6121319190613b54565b612139611e99565b6000600901548461214a9190613b54565b6121549190613b54565b61215e91906139b2565b9050919050565b60008061217183612115565b90506000600b0154811061218a576000600b015461218c565b805b915050919050565b600061219e612379565b73ffffffffffffffffffffffffffffffffffffffff16631865c57d6040518163ffffffff1660e01b815260040160006040518083038186803b1580156121e357600080fd5b505afa1580156121f7573d6000803e3d6000fd5b505050506040513d6000823e3d601f19601f8201168201806040525081019061222091906129fd565b60a00151905090565b6122ac846323b872dd60e01b85858560405160240161224a939291906134b1565b604051602081830303815290604052907bffffffffffffffffffffffffffffffffffffffffffffffffffffffff19166020820180517bffffffffffffffffffffffffffffffffffffffffffffffffffffffff83818316178352505050506122b2565b50505050565b6000612314826040518060400160405280602081526020017f5361666545524332303a206c6f772d6c6576656c2063616c6c206661696c65648152508573ffffffffffffffffffffffffffffffffffffffff166123a59092919063ffffffff16565b905060008151111561237457808060200190518101906123349190612993565b612373576040517f08c379a000000000000000000000000000000000000000000000000000000000815260040161236a90613822565b60405180910390fd5b5b505050565b60008060080160009054906101000a900473ffffffffffffffffffffffffffffffffffffffff16905090565b60606123b484846000856123bd565b90509392505050565b606082471015612402576040517f08c379a00000000000000000000000000000000000000000000000000000000081526004016123f9906136a2565b60405180910390fd5b61240b856124d1565b61244a576040517f08c379a0000000000000000000000000000000000000000000000000000000008152600401612441906137c2565b60405180910390fd5b6000808673ffffffffffffffffffffffffffffffffffffffff168587604051612473919061347f565b60006040518083038185875af1925050503d80600081146124b0576040519150601f19603f3d011682016040523d82523d6000602084013e6124b5565b606091505b50915091506124c58282866124e4565b92505050949350505050565b600080823b905060008111915050919050565b606083156124f457829050612544565b6000835111156125075782518084602001fd5b816040517f08c379a000000000000000000000000000000000000000000000000000000000815260040161253b9190613602565b60405180910390fd5b9392505050565b604051806102e0016040528060008152602001600073ffffffffffffffffffffffffffffffffffffffff1681526020016060815260200160008152602001600073ffffffffffffffffffffffffffffffffffffffff168152602001600073ffffffffffffffffffffffffffffffffffffffff168152602001600073ffffffffffffffffffffffffffffffffffffffff168152602001600073ffffffffffffffffffffffffffffffffffffffff168152602001600073ffffffffffffffffffffffffffffffffffffffff16815260200160008152602001600081526020016000815260200160008152602001600015158152602001600015158152602001600015158152602001600081526020016000815260200160008152602001600081526020016000815260200160008152602001606081525090565b82805461268f90613c79565b90600052602060002090601f0160209004810192826126b157600085556126f8565b82601f106126ca57805160ff19168380011785556126f8565b828001600101855582156126f8579182015b828111156126f75782518255916020019190600101906126dc565b5b5090506127059190612709565b5090565b5b8082111561272257600081600090555060010161270a565b5090565b6000612739612734846138b0565b61387f565b90508281526020810184848401111561275157600080fd5b61275c848285613c37565b509392505050565b6000612777612772846138b0565b61387f565b90508281526020810184848401111561278f57600080fd5b61279a848285613c46565b509392505050565b6000813590506127b181613d85565b92915050565b6000815190506127c681613d85565b92915050565b6000815190506127db81613d9c565b92915050565b600082601f8301126127f257600080fd5b8135612802848260208601612726565b91505092915050565b600082601f83011261281c57600080fd5b815161282c848260208601612764565b91505092915050565b6000610100828403121561284857600080fd5b61285361010061387f565b9050600061286384828501612940565b6000830152506020612877848285016127b7565b602083015250604082015167ffffffffffffffff81111561289757600080fd5b6128a38482850161280b565b60408301525060606128b7848285016127b7565b60608301525060806128cb848285016127b7565b60808301525060a06128df848285016127b7565b60a08301525060c06128f3848285016127b7565b60c08301525060e082015167ffffffffffffffff81111561291357600080fd5b61291f8482850161280b565b60e08301525092915050565b60008135905061293a81613db3565b92915050565b60008151905061294f81613db3565b92915050565b60008151905061296481613dca565b92915050565b60006020828403121561297c57600080fd5b600061298a848285016127a2565b91505092915050565b6000602082840312156129a557600080fd5b60006129b3848285016127cc565b91505092915050565b6000602082840312156129ce57600080fd5b600082013567ffffffffffffffff8111156129e857600080fd5b6129f4848285016127e1565b91505092915050565b600060208284031215612a0f57600080fd5b600082015167ffffffffffffffff811115612a2957600080fd5b612a3584828501612835565b91505092915050565b600060208284031215612a5057600080fd5b6000612a5e8482850161292b565b91505092915050565b600060208284031215612a7957600080fd5b6000612a8784828501612940565b91505092915050565b600060208284031215612aa257600080fd5b6000612ab084828501612955565b91505092915050565b6000612ac58383613424565b905092915050565b612ad681613be2565b82525050565b612ae581613be2565b82525050565b6000612af6826138f0565b612b00818561391e565b935083602082028501612b12856138e0565b8060005b85811015612b4e5784840389528151612b2f8582612ab9565b9450612b3a83613911565b925060208a01995050600181019050612b16565b50829750879550505050505092915050565b612b6981613bf4565b82525050565b6000612b7a826138fb565b612b84818561392f565b9350612b94818560208601613c46565b80840191505092915050565b6000612bab82613906565b612bb5818561393a565b9350612bc5818560208601613c46565b612bce81613d67565b840191505092915050565b6000612be482613906565b612bee818561394b565b9350612bfe818560208601613c46565b612c0781613d67565b840191505092915050565b6000612c1f60308361394b565b91507f43664d616e61676572536f66746361703a205468652063616d706169676e206960008301527f73206e6f742066696e616c697a65642e000000000000000000000000000000006020830152604082019050919050565b6000612c85605a8361394b565b91507f43664d616e61676572536f66746361703a2043616e206f6e6c792066696e616c60008301527f697a652063616d706169676e20696620746865206d696e696d756d2066756e6460208301527f696e6720676f616c20686173206265656e20726561636865642e0000000000006040830152606082019050919050565b6000612d1160268361394b565b91507f416464726573733a20696e73756666696369656e742062616c616e636520666f60008301527f722063616c6c00000000000000000000000000000000000000000000000000006020830152604082019050919050565b6000612d7760328361394b565b91507f43664d616e61676572536f66746361703a205468652063616d706169676e206860008301527f6173206265656e2063616e63656c6c65642e00000000000000000000000000006020830152604082019050919050565b6000612ddd60348361394b565b91507f43664d616e61676572536f66746361703a204f6e6c79206f776e65722063616e60008301527f2063616c6c20746869732066756e6374696f6e2e0000000000000000000000006020830152604082019050919050565b6000612e43602c8361394b565b91507f43664d616e61676572536f66746361703a20496e766573746d656e7420616d6f60008301527f756e7420746f6f206c6f772e00000000000000000000000000000000000000006020830152604082019050919050565b6000612ea960348361394b565b91507f43664d616e61676572536f66746361703a204e6f206d6f726520746f6b656e7360008301527f20617661696c61626c6520666f722073616c652e0000000000000000000000006020830152604082019050919050565b6000612f0f602d8361394b565b91507f43664d616e61676572536f66746361703a20496e766573746d656e7420616d6f60008301527f756e7420746f6f20686967682e000000000000000000000000000000000000006020830152604082019050919050565b6000612f75602b8361394b565b91507f496e766573746d656e7420616d6f756e742068617320746f206265206772656160008301527f746572207468616e20302e0000000000000000000000000000000000000000006020830152604082019050919050565b6000612fdb60298361394b565b91507f43664d616e61676572536f66746361703a2057616c6c6574206e6f742077686960008301527f74656c69737465642e00000000000000000000000000000000000000000000006020830152604082019050919050565b600061304160448361394b565b91507f43664d616e61676572536f66746361703a204e6f7420656e6f75676820746f6b60008301527f656e73206c65667420666f72207468697320696e766573746d656e7420616d6f60208301527f756e742e000000000000000000000000000000000000000000000000000000006040830152606082019050919050565b60006130cd601d8361394b565b91507f416464726573733a2063616c6c20746f206e6f6e2d636f6e74726163740000006000830152602082019050919050565b600061310d602c8361394b565b91507f43664d616e61676572536f66746361703a205468652063616d706169676e206960008301527f732066696e616c697a65642e00000000000000000000000000000000000000006020830152604082019050919050565b600061317360228361394b565b91507f43664d616e61676572536f66746361703a204e6f20746f6b656e73206f776e6560008301527f642e0000000000000000000000000000000000000000000000000000000000006020830152604082019050919050565b60006131d9602a8361394b565b91507f5361666545524332303a204552433230206f7065726174696f6e20646964206e60008301527f6f742073756363656564000000000000000000000000000000000000000000006020830152604082019050919050565b60006102e08301600083015161324b6000860182613461565b50602083015161325e6020860182612acd565b50604083015184820360408601526132768282612ba0565b915050606083015161328b6060860182613461565b50608083015161329e6080860182612acd565b5060a08301516132b160a0860182612acd565b5060c08301516132c460c0860182612acd565b5060e08301516132d760e0860182612acd565b506101008301516132ec610100860182612acd565b50610120830151613301610120860182613461565b50610140830151613316610140860182613461565b5061016083015161332b610160860182613461565b50610180830151613340610180860182613461565b506101a08301516133556101a0860182612b60565b506101c083015161336a6101c0860182612b60565b506101e083015161337f6101e0860182612b60565b50610200830151613394610200860182613461565b506102208301516133a9610220860182613461565b506102408301516133be610240860182613461565b506102608301516133d3610260860182613461565b506102808301516133e8610280860182613461565b506102a08301516133fd6102a0860182613461565b506102c08301518482036102c08601526134178282612ba0565b9150508091505092915050565b600060408301600083015184820360008601526134418282612ba0565b91505060208301516134566020860182613461565b508091505092915050565b61346a81613c20565b82525050565b61347981613c20565b82525050565b600061348b8284612b6f565b915081905092915050565b60006020820190506134ab6000830184612adc565b92915050565b60006060820190506134c66000830186612adc565b6134d36020830185612adc565b6134e06040830184613470565b949350505050565b60006040820190506134fd6000830185612adc565b61350a6020830184613470565b9392505050565b60006060820190506135266000830186612adc565b6135336020830185613470565b6135406040830184613470565b949350505050565b600060808201905061355d6000830187612adc565b61356a6020830186613470565b6135776040830185613470565b6135846060830184613470565b95945050505050565b600060a0820190506135a26000830188612adc565b6135af6020830187613470565b6135bc6040830186613470565b6135c96060830185613470565b6135d66080830184613470565b9695505050505050565b600060208201905081810360008301526135fa8184612aeb565b905092915050565b6000602082019050818103600083015261361c8184612bd9565b905092915050565b6000606082019050818103600083015261363e8186612bd9565b905061364d6020830185612adc565b61365a6040830184613470565b949350505050565b6000602082019050818103600083015261367b81612c12565b9050919050565b6000602082019050818103600083015261369b81612c78565b9050919050565b600060208201905081810360008301526136bb81612d04565b9050919050565b600060208201905081810360008301526136db81612d6a565b9050919050565b600060208201905081810360008301526136fb81612dd0565b9050919050565b6000602082019050818103600083015261371b81612e36565b9050919050565b6000602082019050818103600083015261373b81612e9c565b9050919050565b6000602082019050818103600083015261375b81612f02565b9050919050565b6000602082019050818103600083015261377b81612f68565b9050919050565b6000602082019050818103600083015261379b81612fce565b9050919050565b600060208201905081810360008301526137bb81613034565b9050919050565b600060208201905081810360008301526137db816130c0565b9050919050565b600060208201905081810360008301526137fb81613100565b9050919050565b6000602082019050818103600083015261381b81613166565b9050919050565b6000602082019050818103600083015261383b816131cc565b9050919050565b6000602082019050818103600083015261385c8184613232565b905092915050565b60006020820190506138796000830184613470565b92915050565b6000604051905081810181811067ffffffffffffffff821117156138a6576138a5613d38565b5b8060405250919050565b600067ffffffffffffffff8211156138cb576138ca613d38565b5b601f19601f8301169050602081019050919050565b6000819050602082019050919050565b600081519050919050565b600081519050919050565b600081519050919050565b6000602082019050919050565b600082825260208201905092915050565b600081905092915050565b600082825260208201905092915050565b600082825260208201905092915050565b600061396782613c20565b915061397283613c20565b9250827fffffffffffffffffffffffffffffffffffffffffffffffffffffffffffffffff038211156139a7576139a6613cab565b5b828201905092915050565b60006139bd82613c20565b91506139c883613c20565b9250826139d8576139d7613cda565b5b828204905092915050565b6000808291508390505b6001851115613a2d57808604811115613a0957613a08613cab565b5b6001851615613a185780820291505b8081029050613a2685613d78565b94506139ed565b94509492505050565b6000613a4182613c20565b9150613a4c83613c2a565b9250613a797fffffffffffffffffffffffffffffffffffffffffffffffffffffffffffffffff8484613a81565b905092915050565b600082613a915760019050613b4d565b81613a9f5760009050613b4d565b8160018114613ab55760028114613abf57613aee565b6001915050613b4d565b60ff841115613ad157613ad0613cab565b5b8360020a915084821115613ae857613ae7613cab565b5b50613b4d565b5060208310610133831016604e8410600b8410161715613b235782820a905083811115613b1e57613b1d613cab565b5b613b4d565b613b3084848460016139e3565b92509050818404811115613b4757613b46613cab565b5b81810290505b9392505050565b6000613b5f82613c20565b9150613b6a83613c20565b9250817fffffffffffffffffffffffffffffffffffffffffffffffffffffffffffffffff0483118215151615613ba357613ba2613cab565b5b828202905092915050565b6000613bb982613c20565b9150613bc483613c20565b925082821015613bd757613bd6613cab565b5b828203905092915050565b6000613bed82613c00565b9050919050565b60008115159050919050565b600073ffffffffffffffffffffffffffffffffffffffff82169050919050565b6000819050919050565b600060ff82169050919050565b82818337600083830152505050565b60005b83811015613c64578082015181840152602081019050613c49565b83811115613c73576000848401525b50505050565b60006002820490506001821680613c9157607f821691505b60208210811415613ca557613ca4613d09565b5b50919050565b7f4e487b7100000000000000000000000000000000000000000000000000000000600052601160045260246000fd5b7f4e487b7100000000000000000000000000000000000000000000000000000000600052601260045260246000fd5b7f4e487b7100000000000000000000000000000000000000000000000000000000600052602260045260246000fd5b7f4e487b7100000000000000000000000000000000000000000000000000000000600052604160045260246000fd5b6000601f19601f8301169050919050565b60008160011c9050919050565b613d8e81613be2565b8114613d9957600080fd5b50565b613da581613bf4565b8114613db057600080fd5b50565b613dbc81613c20565b8114613dc757600080fd5b50565b613dd381613c2a565b8114613dde57600080fd5b5056fea2646970667358221220e3a8ad81c13a94bec8cd7a957a40d06dc442bfb99a53c051635bd68476276c9264736f6c63430008000033",
  "linkReferences": {},
  "deployedLinkReferences": {}
}