{
  "_format": "hh-sol-artifact-1",
  "contractName": "CfManagerSoftcap",
  "sourceName": "contracts/managers/crowdfunding-softcap/CfManagerSoftcap.sol",
  "abi": [
    {
      "inputs": [
        {
          "internalType": "uint256",
          "name": "id",
          "type": "uint256"
        },
        {
          "internalType": "address",
          "name": "owner",
          "type": "address"
        },
        {
          "internalType": "string",
          "name": "ansName",
          "type": "string"
        },
        {
          "internalType": "uint256",
          "name": "ansId",
          "type": "uint256"
        },
        {
          "internalType": "address",
          "name": "asset",
          "type": "address"
        },
        {
          "internalType": "uint256",
          "name": "tokenPrice",
          "type": "uint256"
        },
        {
          "internalType": "uint256",
          "name": "softCap",
          "type": "uint256"
        },
        {
          "internalType": "uint256",
          "name": "minInvestment",
          "type": "uint256"
        },
        {
          "internalType": "uint256",
          "name": "maxInvestment",
          "type": "uint256"
        },
        {
          "internalType": "bool",
          "name": "whitelistRequired",
          "type": "bool"
        },
        {
          "internalType": "string",
          "name": "info",
          "type": "string"
        }
      ],
      "stateMutability": "nonpayable",
      "type": "constructor"
    },
    {
      "anonymous": false,
      "inputs": [
        {
          "indexed": true,
          "internalType": "address",
          "name": "owner",
          "type": "address"
        },
        {
          "indexed": false,
          "internalType": "uint256",
          "name": "tokensReturned",
          "type": "uint256"
        },
        {
          "indexed": false,
          "internalType": "uint256",
          "name": "timestamp",
          "type": "uint256"
        }
      ],
      "name": "CancelCampaign",
      "type": "event"
    },
    {
      "anonymous": false,
      "inputs": [
        {
          "indexed": true,
          "internalType": "address",
          "name": "investor",
          "type": "address"
        },
        {
          "indexed": false,
          "internalType": "uint256",
          "name": "tokenAmount",
          "type": "uint256"
        },
        {
          "indexed": false,
          "internalType": "uint256",
          "name": "tokenValue",
          "type": "uint256"
        },
        {
          "indexed": false,
          "internalType": "uint256",
          "name": "timestamp",
          "type": "uint256"
        }
      ],
      "name": "CancelInvestment",
      "type": "event"
    },
    {
      "anonymous": false,
      "inputs": [
        {
          "indexed": false,
          "internalType": "address",
          "name": "caller",
          "type": "address"
        },
        {
          "indexed": false,
          "internalType": "address",
          "name": "newOwner",
          "type": "address"
        },
        {
          "indexed": false,
          "internalType": "uint256",
          "name": "timestamp",
          "type": "uint256"
        }
      ],
      "name": "ChangeOwnership",
      "type": "event"
    },
    {
      "anonymous": false,
      "inputs": [
        {
          "indexed": true,
          "internalType": "address",
          "name": "investor",
          "type": "address"
        },
        {
          "indexed": false,
          "internalType": "uint256",
          "name": "tokenAmount",
          "type": "uint256"
        },
        {
          "indexed": false,
          "internalType": "uint256",
          "name": "tokenValue",
          "type": "uint256"
        },
        {
          "indexed": false,
          "internalType": "uint256",
          "name": "timestamp",
          "type": "uint256"
        }
      ],
      "name": "Claim",
      "type": "event"
    },
    {
      "anonymous": false,
      "inputs": [
        {
          "indexed": true,
          "internalType": "address",
          "name": "owner",
          "type": "address"
        },
        {
          "indexed": false,
          "internalType": "uint256",
          "name": "fundsRaised",
          "type": "uint256"
        },
        {
          "indexed": false,
          "internalType": "uint256",
          "name": "tokensSold",
          "type": "uint256"
        },
        {
          "indexed": false,
          "internalType": "uint256",
          "name": "tokensRefund",
          "type": "uint256"
        },
        {
          "indexed": false,
          "internalType": "uint256",
          "name": "timestamp",
          "type": "uint256"
        }
      ],
      "name": "Finalize",
      "type": "event"
    },
    {
      "anonymous": false,
      "inputs": [
        {
          "indexed": true,
          "internalType": "address",
          "name": "investor",
          "type": "address"
        },
        {
          "indexed": false,
          "internalType": "uint256",
          "name": "tokenAmount",
          "type": "uint256"
        },
        {
          "indexed": false,
          "internalType": "uint256",
          "name": "tokenValue",
          "type": "uint256"
        },
        {
          "indexed": false,
          "internalType": "uint256",
          "name": "timestamp",
          "type": "uint256"
        }
      ],
      "name": "Invest",
      "type": "event"
    },
    {
      "anonymous": false,
      "inputs": [
        {
          "indexed": false,
          "internalType": "string",
          "name": "info",
          "type": "string"
        },
        {
          "indexed": false,
          "internalType": "address",
          "name": "setter",
          "type": "address"
        },
        {
          "indexed": false,
          "internalType": "uint256",
          "name": "timestamp",
          "type": "uint256"
        }
      ],
      "name": "SetInfo",
      "type": "event"
    },
    {
      "inputs": [],
      "name": "cancelCampaign",
      "outputs": [],
      "stateMutability": "nonpayable",
      "type": "function"
    },
    {
      "inputs": [],
      "name": "cancelInvestment",
      "outputs": [],
      "stateMutability": "nonpayable",
      "type": "function"
    },
    {
      "inputs": [
        {
          "internalType": "address",
          "name": "newOwner",
          "type": "address"
        }
      ],
      "name": "changeOwnership",
      "outputs": [],
      "stateMutability": "nonpayable",
      "type": "function"
    },
    {
      "inputs": [
        {
          "internalType": "address",
          "name": "investor",
          "type": "address"
        }
      ],
      "name": "claim",
      "outputs": [],
      "stateMutability": "nonpayable",
      "type": "function"
    },
    {
      "inputs": [
        {
          "internalType": "address",
          "name": "",
          "type": "address"
        }
      ],
      "name": "claims",
      "outputs": [
        {
          "internalType": "uint256",
          "name": "",
          "type": "uint256"
        }
      ],
      "stateMutability": "view",
      "type": "function"
    },
    {
      "inputs": [],
      "name": "finalize",
      "outputs": [],
      "stateMutability": "nonpayable",
      "type": "function"
    },
    {
      "inputs": [],
      "name": "getInfoHistory",
      "outputs": [
        {
          "components": [
            {
              "internalType": "string",
              "name": "info",
              "type": "string"
            },
            {
              "internalType": "uint256",
              "name": "timestamp",
              "type": "uint256"
            }
          ],
          "internalType": "struct Structs.InfoEntry[]",
          "name": "",
          "type": "tuple[]"
        }
      ],
      "stateMutability": "view",
      "type": "function"
    },
    {
      "inputs": [],
      "name": "getState",
      "outputs": [
        {
          "components": [
            {
              "internalType": "uint256",
              "name": "id",
              "type": "uint256"
            },
            {
              "internalType": "address",
              "name": "contractAddress",
              "type": "address"
            },
            {
              "internalType": "string",
              "name": "ansName",
              "type": "string"
            },
            {
              "internalType": "uint256",
              "name": "ansId",
              "type": "uint256"
            },
            {
              "internalType": "address",
              "name": "createdBy",
              "type": "address"
            },
            {
              "internalType": "address",
              "name": "owner",
              "type": "address"
            },
            {
              "internalType": "address",
              "name": "asset",
              "type": "address"
            },
            {
              "internalType": "address",
              "name": "issuer",
              "type": "address"
            },
            {
              "internalType": "uint256",
              "name": "tokenPrice",
              "type": "uint256"
            },
            {
              "internalType": "uint256",
              "name": "softCap",
              "type": "uint256"
            },
            {
              "internalType": "uint256",
              "name": "minInvestment",
              "type": "uint256"
            },
            {
              "internalType": "uint256",
              "name": "maxInvestment",
              "type": "uint256"
            },
            {
              "internalType": "bool",
              "name": "whitelistRequired",
              "type": "bool"
            },
            {
              "internalType": "bool",
              "name": "finalized",
              "type": "bool"
            },
            {
              "internalType": "bool",
              "name": "cancelled",
              "type": "bool"
            },
            {
              "internalType": "uint256",
              "name": "totalClaimableTokens",
              "type": "uint256"
            },
            {
              "internalType": "uint256",
              "name": "totalInvestorsCount",
              "type": "uint256"
            },
            {
              "internalType": "uint256",
              "name": "totalClaimsCount",
              "type": "uint256"
            },
            {
              "internalType": "uint256",
              "name": "totalFundsRaised",
              "type": "uint256"
            },
            {
              "internalType": "uint256",
              "name": "totalTokensSold",
              "type": "uint256"
            },
            {
              "internalType": "uint256",
              "name": "totalTokensBalance",
              "type": "uint256"
            },
            {
              "internalType": "string",
              "name": "info",
              "type": "string"
            }
          ],
          "internalType": "struct Structs.CfManagerSoftcapState",
          "name": "",
          "type": "tuple"
        }
      ],
      "stateMutability": "view",
      "type": "function"
    },
    {
      "inputs": [
        {
          "internalType": "uint256",
          "name": "amount",
          "type": "uint256"
        }
      ],
      "name": "invest",
      "outputs": [],
      "stateMutability": "nonpayable",
      "type": "function"
    },
    {
      "inputs": [
        {
          "internalType": "address",
          "name": "",
          "type": "address"
        }
      ],
      "name": "investments",
      "outputs": [
        {
          "internalType": "uint256",
          "name": "",
          "type": "uint256"
        }
      ],
      "stateMutability": "view",
      "type": "function"
    },
    {
      "inputs": [
        {
          "internalType": "string",
          "name": "info",
          "type": "string"
        }
      ],
      "name": "setInfo",
      "outputs": [],
      "stateMutability": "nonpayable",
      "type": "function"
    },
    {
      "inputs": [
        {
          "internalType": "address",
          "name": "",
          "type": "address"
        }
      ],
      "name": "tokenAmounts",
      "outputs": [
        {
          "internalType": "uint256",
          "name": "",
          "type": "uint256"
        }
      ],
      "stateMutability": "view",
      "type": "function"
    }
  ],
  "bytecode": "0x60806040523480156200001157600080fd5b5060405162004c3d38038062004c3d8339818101604052810190620000379190620009e9565b600073ffffffffffffffffffffffffffffffffffffffff168a73ffffffffffffffffffffffffffffffffffffffff161415620000aa576040517f08c379a0000000000000000000000000000000000000000000000000000000008152600401620000a19062000d2c565b60405180910390fd5b600073ffffffffffffffffffffffffffffffffffffffff168773ffffffffffffffffffffffffffffffffffffffff1614156200011d576040517f08c379a0000000000000000000000000000000000000000000000000000000008152600401620001149062000d0a565b60405180910390fd5b6000861162000163576040517f08c379a00000000000000000000000000000000000000000000000000000000081526004016200015a9062000ce8565b60405180910390fd5b83831015620001a9576040517f08c379a0000000000000000000000000000000000000000000000000000000008152600401620001a09062000d4e565b60405180910390fd5b60008773ffffffffffffffffffffffffffffffffffffffff16631865c57d6040518163ffffffff1660e01b815260040160006040518083038186803b158015620001f257600080fd5b505afa15801562000207573d6000803e3d6000fd5b505050506040513d6000823e3d601f19601f82011682018060405250810190620002329190620009a4565b61014001519050604051806102c001604052808d81526020013073ffffffffffffffffffffffffffffffffffffffff1681526020018b81526020018a81526020013373ffffffffffffffffffffffffffffffffffffffff1681526020018c73ffffffffffffffffffffffffffffffffffffffff1681526020018973ffffffffffffffffffffffffffffffffffffffff1681526020018273ffffffffffffffffffffffffffffffffffffffff168152602001888152602001878152602001868152602001858152602001841515815260200160001515815260200160001515815260200160008152602001600081526020016000815260200160008152602001600081526020016000815260200183815250600080820151816000015560208201518160010160006101000a81548173ffffffffffffffffffffffffffffffffffffffff021916908373ffffffffffffffffffffffffffffffffffffffff1602179055506040820151816002019080519060200190620003b3929190620005e0565b506060820151816003015560808201518160040160006101000a81548173ffffffffffffffffffffffffffffffffffffffff021916908373ffffffffffffffffffffffffffffffffffffffff16021790555060a08201518160050160006101000a81548173ffffffffffffffffffffffffffffffffffffffff021916908373ffffffffffffffffffffffffffffffffffffffff16021790555060c08201518160060160006101000a81548173ffffffffffffffffffffffffffffffffffffffff021916908373ffffffffffffffffffffffffffffffffffffffff16021790555060e08201518160070160006101000a81548173ffffffffffffffffffffffffffffffffffffffff021916908373ffffffffffffffffffffffffffffffffffffffff1602179055506101008201518160080155610120820151816009015561014082015181600a015561016082015181600b015561018082015181600c0160006101000a81548160ff0219169083151502179055506101a082015181600c0160016101000a81548160ff0219169083151502179055506101c082015181600c0160026101000a81548160ff0219169083151502179055506101e082015181600d015561020082015181600e015561022082015181600f01556102408201518160100155610260820151816011015561028082015181601201556102a0820151816013019080519060200190620005ca929190620005e0565b5090505050505050505050505050505062000f4a565b828054620005ee9062000e68565b90600052602060002090601f0160209004810192826200061257600085556200065e565b82601f106200062d57805160ff19168380011785556200065e565b828001600101855582156200065e579182015b828111156200065d57825182559160200191906001019062000640565b5b5090506200066d919062000671565b5090565b5b808211156200068c57600081600090555060010162000672565b5090565b6000620006a7620006a18462000da4565b62000d70565b905082815260208101848484011115620006c057600080fd5b620006cd84828562000e32565b509392505050565b600081519050620006e68162000efc565b92915050565b600081519050620006fd8162000f16565b92915050565b600082601f8301126200071557600080fd5b81516200072784826020860162000690565b91505092915050565b600061028082840312156200074457600080fd5b6200075161028062000d70565b9050600062000763848285016200098d565b60008301525060206200077984828501620006d5565b602083015250604082015167ffffffffffffffff8111156200079a57600080fd5b620007a88482850162000703565b6040830152506060620007be848285016200098d565b6060830152506080620007d484828501620006d5565b60808301525060a0620007ea84828501620006d5565b60a08301525060c06200080084828501620006d5565b60c08301525060e062000816848285016200098d565b60e0830152506101006200082d84828501620006ec565b610100830152506101206200084584828501620006ec565b610120830152506101406200085d84828501620006d5565b6101408301525061016082015167ffffffffffffffff8111156200088057600080fd5b6200088e8482850162000703565b6101608301525061018082015167ffffffffffffffff811115620008b157600080fd5b620008bf8482850162000703565b610180830152506101a082015167ffffffffffffffff811115620008e257600080fd5b620008f08482850162000703565b6101a0830152506101c062000908848285016200098d565b6101c0830152506101e062000920848285016200098d565b6101e0830152506102006200093884828501620006ec565b6102008301525061022062000950848285016200098d565b6102208301525061024062000968848285016200098d565b6102408301525061026062000980848285016200098d565b6102608301525092915050565b6000815190506200099e8162000f30565b92915050565b600060208284031215620009b757600080fd5b600082015167ffffffffffffffff811115620009d257600080fd5b620009e08482850162000730565b91505092915050565b60008060008060008060008060008060006101608c8e03121562000a0c57600080fd5b600062000a1c8e828f016200098d565b9b5050602062000a2f8e828f01620006d5565b9a505060408c015167ffffffffffffffff81111562000a4d57600080fd5b62000a5b8e828f0162000703565b995050606062000a6e8e828f016200098d565b985050608062000a818e828f01620006d5565b97505060a062000a948e828f016200098d565b96505060c062000aa78e828f016200098d565b95505060e062000aba8e828f016200098d565b94505061010062000ace8e828f016200098d565b93505061012062000ae28e828f01620006ec565b9250506101408c015167ffffffffffffffff81111562000b0157600080fd5b62000b0f8e828f0162000703565b9150509295989b509295989b9093969950565b600062000b3160418362000dd7565b91507f43664d616e61676572536f66746361703a20496e697469616c2070726963652060008301527f70657220746f6b656e206d7573742062652067726561746572207468616e203060208301527f2e000000000000000000000000000000000000000000000000000000000000006040830152606082019050919050565b600062000bbf60278362000dd7565b91507f43664d616e61676572536f66746361703a20496e76616c69642061737365742060008301527f61646472657373000000000000000000000000000000000000000000000000006020830152604082019050919050565b600062000c2760278362000dd7565b91507f43664d616e61676572536f66746361703a20496e76616c6964206f776e65722060008301527f61646472657373000000000000000000000000000000000000000000000000006020830152604082019050919050565b600062000c8f603a8362000dd7565b91507f43664d616e61676572536f66746361703a204d61782068617320746f2062652060008301527f626967676572207468616e206d696e20696e766573746d656e740000000000006020830152604082019050919050565b6000602082019050818103600083015262000d038162000b22565b9050919050565b6000602082019050818103600083015262000d258162000bb0565b9050919050565b6000602082019050818103600083015262000d478162000c18565b9050919050565b6000602082019050818103600083015262000d698162000c80565b9050919050565b6000604051905081810181811067ffffffffffffffff8211171562000d9a5762000d9962000ecd565b5b8060405250919050565b600067ffffffffffffffff82111562000dc25762000dc162000ecd565b5b601f19601f8301169050602081019050919050565b600082825260208201905092915050565b600062000df58262000e08565b9050919050565b60008115159050919050565b600073ffffffffffffffffffffffffffffffffffffffff82169050919050565b6000819050919050565b60005b8381101562000e5257808201518184015260208101905062000e35565b8381111562000e62576000848401525b50505050565b6000600282049050600182168062000e8157607f821691505b6020821081141562000e985762000e9762000e9e565b5b50919050565b7f4e487b7100000000000000000000000000000000000000000000000000000000600052602260045260246000fd5b7f4e487b7100000000000000000000000000000000000000000000000000000000600052604160045260246000fd5b62000f078162000de8565b811462000f1357600080fd5b50565b62000f218162000dfc565b811462000f2d57600080fd5b50565b62000f3b8162000e28565b811462000f4757600080fd5b50565b613ce38062000f5a6000396000f3fe608060405234801561001057600080fd5b50600436106100b45760003560e01c806394f8e9541161007157806394f8e9541461015157806396b988621461015b578063980e78441461018b57806398e1625514610195578063a0e2e5f6146101b3578063c6788bdd146101e3576100b4565b80631865c57d146100b95780631e83409a146100d75780632af4c31e146100f35780632afcf4801461010f5780634bb278f31461012b578063937f6e7714610135575b600080fd5b6100c1610213565b6040516100ce919061361e565b60405180910390f35b6100f160048036038101906100ec919061282a565b610668565b005b61010d6004803603810190610108919061282a565b610898565b005b610129600480360381019061012491906128fe565b6109ad565b005b610133611012565b005b61014f600480360381019061014a919061287c565b6114aa565b005b6101596115fe565b005b6101756004803603810190610170919061282a565b6118f0565b6040516101829190613640565b60405180910390f35b610193611908565b005b61019d611b82565b6040516101aa91906133bc565b60405180910390f35b6101cd60048036038101906101c8919061282a565b611c7d565b6040516101da9190613640565b60405180910390f35b6101fd60048036038101906101f8919061282a565b611c95565b60405161020a9190613640565b60405180910390f35b61021b612428565b600080604051806102c0016040529081600082015481526020016001820160009054906101000a900473ffffffffffffffffffffffffffffffffffffffff1673ffffffffffffffffffffffffffffffffffffffff1673ffffffffffffffffffffffffffffffffffffffff16815260200160028201805461029a90613b45565b80601f01602080910402602001604051908101604052809291908181526020018280546102c690613b45565b80156103135780601f106102e857610100808354040283529160200191610313565b820191906000526020600020905b8154815290600101906020018083116102f657829003601f168201915b50505050508152602001600382015481526020016004820160009054906101000a900473ffffffffffffffffffffffffffffffffffffffff1673ffffffffffffffffffffffffffffffffffffffff1673ffffffffffffffffffffffffffffffffffffffff1681526020016005820160009054906101000a900473ffffffffffffffffffffffffffffffffffffffff1673ffffffffffffffffffffffffffffffffffffffff1673ffffffffffffffffffffffffffffffffffffffff1681526020016006820160009054906101000a900473ffffffffffffffffffffffffffffffffffffffff1673ffffffffffffffffffffffffffffffffffffffff1673ffffffffffffffffffffffffffffffffffffffff1681526020016007820160009054906101000a900473ffffffffffffffffffffffffffffffffffffffff1673ffffffffffffffffffffffffffffffffffffffff1673ffffffffffffffffffffffffffffffffffffffff1681526020016008820154815260200160098201548152602001600a8201548152602001600b8201548152602001600c820160009054906101000a900460ff16151515158152602001600c820160019054906101000a900460ff16151515158152602001600c820160029054906101000a900460ff16151515158152602001600d8201548152602001600e8201548152602001600f820154815260200160108201548152602001601182015481526020016012820154815260200160138201805461054390613b45565b80601f016020809104026020016040519081016040528092919081815260200182805461056f90613b45565b80156105bc5780601f10610591576101008083540402835291602001916105bc565b820191906000526020600020905b81548152906001019060200180831161059f57829003601f168201915b50505050508152505090506105cf611cad565b73ffffffffffffffffffffffffffffffffffffffff166370a08231306040518263ffffffff1660e01b81526004016106079190613341565b60206040518083038186803b15801561061f57600080fd5b505afa158015610633573d6000803e3d6000fd5b505050506040513d601f19601f820116820180604052508101906106579190612927565b816102800181815250508091505090565b6000600c0160019054906101000a900460ff166106ba576040517f08c379a00000000000000000000000000000000000000000000000000000000081526004016106b19061343e565b60405180910390fd5b6000601560008373ffffffffffffffffffffffffffffffffffffffff1673ffffffffffffffffffffffffffffffffffffffff1681526020019081526020016000205490506000601660008473ffffffffffffffffffffffffffffffffffffffff1673ffffffffffffffffffffffffffffffffffffffff1681526020019081526020016000205490506000821180156107525750600081115b610791576040517f08c379a0000000000000000000000000000000000000000000000000000000008152600401610788906135de565b60405180910390fd5b60016000600f0160008282546107a791906137dd565b92505081905550816000600d0160008282546107c39190613a7a565b925050819055506000601560008573ffffffffffffffffffffffffffffffffffffffff1673ffffffffffffffffffffffffffffffffffffffff16815260200190815260200160002081905550610841838361081c611cad565b73ffffffffffffffffffffffffffffffffffffffff16611cd99092919063ffffffff16565b8273ffffffffffffffffffffffffffffffffffffffff167f45c072aa05b9853b5a993de7a28bc332ee01404a628cec1a23ce0f659f842ef183834260405161088b93929190613684565b60405180910390a2505050565b600060050160009054906101000a900473ffffffffffffffffffffffffffffffffffffffff1673ffffffffffffffffffffffffffffffffffffffff163373ffffffffffffffffffffffffffffffffffffffff161461092b576040517f08c379a0000000000000000000000000000000000000000000000000000000008152600401610922906134be565b60405180910390fd5b80600060050160006101000a81548173ffffffffffffffffffffffffffffffffffffffff021916908373ffffffffffffffffffffffffffffffffffffffff1602179055507fb4fa0c8f1565e6385961540cac5b9884d84157c515100cf972728e8be8dacdd33382426040516109a29392919061335c565b60405180910390a150565b6000600c0160029054906101000a900460ff1615610a00576040517f08c379a00000000000000000000000000000000000000000000000000000000081526004016109f79061349e565b60405180910390fd5b6000600c0160019054906101000a900460ff1615610a53576040517f08c379a0000000000000000000000000000000000000000000000000000000008152600401610a4a906135be565b60405180910390fd5b6000600c0160009054906101000a900460ff161580610a9257506000600c0160009054906101000a900460ff168015610a915750610a9033611d5f565b5b5b610ad1576040517f08c379a0000000000000000000000000000000000000000000000000000000008152600401610ac89061355e565b60405180910390fd5b60008111610b14576040517f08c379a0000000000000000000000000000000000000000000000000000000008152600401610b0b9061353e565b60405180910390fd5b600080600d0154610b23611cad565b73ffffffffffffffffffffffffffffffffffffffff166370a08231306040518263ffffffff1660e01b8152600401610b5b9190613341565b60206040518083038186803b158015610b7357600080fd5b505afa158015610b87573d6000803e3d6000fd5b505050506040513d601f19601f82011682018060405250810190610bab9190612927565b610bb59190613a7a565b905060008111610bfa576040517f08c379a0000000000000000000000000000000000000000000000000000000008152600401610bf1906134fe565b60405180910390fd5b6000610c04611df8565b610c0c611f16565b61271060006008015486610c209190613833565b610c2a9190613a20565b610c349190613a20565b610c3e9190613833565b90506000610c4b82611fcb565b9050600082118015610c5d5750600081115b610c9c576040517f08c379a0000000000000000000000000000000000000000000000000000000008152600401610c93906134de565b60405180910390fd5b81831015610cdf576040517f08c379a0000000000000000000000000000000000000000000000000000000008152600401610cd69061357e565b60405180910390fd5b610d13333083610ced612016565b73ffffffffffffffffffffffffffffffffffffffff166120ab909392919063ffffffff16565b6000610d68601560003373ffffffffffffffffffffffffffffffffffffffff1673ffffffffffffffffffffffffffffffffffffffff1681526020019081526020016000205484610d6391906137dd565b611fcb565b9050610d7384612134565b811015610db5576040517f08c379a0000000000000000000000000000000000000000000000000000000008152600401610dac906134de565b60405180910390fd5b6000600b0154811115610dfd576040517f08c379a0000000000000000000000000000000000000000000000000000000008152600401610df49061351e565b60405180910390fd5b6000601560003373ffffffffffffffffffffffffffffffffffffffff1673ffffffffffffffffffffffffffffffffffffffff168152602001908152602001600020541415610e635760016000600e016000828254610e5b91906137dd565b925050819055505b82601560003373ffffffffffffffffffffffffffffffffffffffff1673ffffffffffffffffffffffffffffffffffffffff1681526020019081526020016000206000828254610eb291906137dd565b9250508190555081601660003373ffffffffffffffffffffffffffffffffffffffff1673ffffffffffffffffffffffffffffffffffffffff1681526020019081526020016000206000828254610f0891906137dd565b9250508190555082601760003373ffffffffffffffffffffffffffffffffffffffff1673ffffffffffffffffffffffffffffffffffffffff1681526020019081526020016000206000828254610f5e91906137dd565b92505081905550826000600d016000828254610f7a91906137dd565b925050819055508260006011016000828254610f9691906137dd565b925050819055508160006010016000828254610fb291906137dd565b925050819055503373ffffffffffffffffffffffffffffffffffffffff167f4df9cbfa66cbbabb528375b3af00207b446225af5a96b8a4b5c413b18226fb9584844260405161100393929190613684565b60405180910390a25050505050565b600060050160009054906101000a900473ffffffffffffffffffffffffffffffffffffffff1673ffffffffffffffffffffffffffffffffffffffff163373ffffffffffffffffffffffffffffffffffffffff16146110a5576040517f08c379a000000000000000000000000000000000000000000000000000000000815260040161109c906134be565b60405180910390fd5b6000600c0160029054906101000a900460ff16156110f8576040517f08c379a00000000000000000000000000000000000000000000000000000000081526004016110ef9061349e565b60405180910390fd5b6000600c0160019054906101000a900460ff161561114b576040517f08c379a0000000000000000000000000000000000000000000000000000000008152600401611142906135be565b60405180910390fd5b6000611155612016565b90506000600901548173ffffffffffffffffffffffffffffffffffffffff166370a08231306040518263ffffffff1660e01b81526004016111969190613341565b60206040518083038186803b1580156111ae57600080fd5b505afa1580156111c2573d6000803e3d6000fd5b505050506040513d601f19601f820116820180604052508101906111e69190612927565b1015611227576040517f08c379a000000000000000000000000000000000000000000000000000000000815260040161121e9061345e565b60405180910390fd5b60016000600c0160016101000a81548160ff021916908315150217905550600061124f611cad565b905060008273ffffffffffffffffffffffffffffffffffffffff166370a08231306040518263ffffffff1660e01b815260040161128c9190613341565b60206040518083038186803b1580156112a457600080fd5b505afa1580156112b8573d6000803e3d6000fd5b505050506040513d601f19601f820116820180604052508101906112dc9190612927565b90506000806011015490506000818473ffffffffffffffffffffffffffffffffffffffff166370a08231306040518263ffffffff1660e01b81526004016113239190613341565b60206040518083038186803b15801561133b57600080fd5b505afa15801561134f573d6000803e3d6000fd5b505050506040513d601f19601f820116820180604052508101906113739190612927565b61137d9190613a7a565b90506000611389612163565b90508073ffffffffffffffffffffffffffffffffffffffff1663ce5c4fd884866040518363ffffffff1660e01b81526004016113c692919061365b565b600060405180830381600087803b1580156113e057600080fd5b505af11580156113f4573d6000803e3d6000fd5b5050505061142333858873ffffffffffffffffffffffffffffffffffffffff16611cd99092919063ffffffff16565b61144e33838773ffffffffffffffffffffffffffffffffffffffff16611cd99092919063ffffffff16565b3373ffffffffffffffffffffffffffffffffffffffff167f9f00ffbbe845c178c4d607f94b9d3228cca61c694315bed74f051777d38aaeb98585854260405161149a94939291906136bb565b60405180910390a2505050505050565b600060050160009054906101000a900473ffffffffffffffffffffffffffffffffffffffff1673ffffffffffffffffffffffffffffffffffffffff163373ffffffffffffffffffffffffffffffffffffffff161461153d576040517f08c379a0000000000000000000000000000000000000000000000000000000008152600401611534906134be565b60405180910390fd5b601460405180604001604052808381526020014281525090806001815401808255809150506001900390600052602060002090600202016000909190919091506000820151816000019080519060200190611599929190612543565b5060208201518160010155505080600060130190805190602001906115bf929190612543565b507f39b28594242c42fce47a0a6e63bac12adbd07fbb35580f5a54b236858101d58a8133426040516115f393929190613400565b60405180910390a150565b6000600c0160019054906101000a900460ff1615611651576040517f08c379a0000000000000000000000000000000000000000000000000000000008152600401611648906135be565b60405180910390fd5b6000601560003373ffffffffffffffffffffffffffffffffffffffff1673ffffffffffffffffffffffffffffffffffffffff1681526020019081526020016000205490506000601660003373ffffffffffffffffffffffffffffffffffffffff1673ffffffffffffffffffffffffffffffffffffffff1681526020019081526020016000205490506000821180156116e95750600081115b611728576040517f08c379a000000000000000000000000000000000000000000000000000000000815260040161171f906135de565b60405180910390fd5b60016000600e01600082825461173e9190613a7a565b925050819055506000601560003373ffffffffffffffffffffffffffffffffffffffff1673ffffffffffffffffffffffffffffffffffffffff168152602001908152602001600020819055506000601660003373ffffffffffffffffffffffffffffffffffffffff1673ffffffffffffffffffffffffffffffffffffffff168152602001908152602001600020819055506000601760003373ffffffffffffffffffffffffffffffffffffffff1673ffffffffffffffffffffffffffffffffffffffff16815260200190815260200160002081905550816000600d0160008282546118299190613a7a565b9250508190555081600060110160008282546118459190613a7a565b9250508190555080600060100160008282546118619190613a7a565b9250508190555061189a3382611875612016565b73ffffffffffffffffffffffffffffffffffffffff16611cd99092919063ffffffff16565b3373ffffffffffffffffffffffffffffffffffffffff167fe99ebefc9221ce1eec15471cf0b135a83f9ca7f8719003de1784aac0685d69428383426040516118e493929190613684565b60405180910390a25050565b60166020528060005260406000206000915090505481565b600060050160009054906101000a900473ffffffffffffffffffffffffffffffffffffffff1673ffffffffffffffffffffffffffffffffffffffff163373ffffffffffffffffffffffffffffffffffffffff161461199b576040517f08c379a0000000000000000000000000000000000000000000000000000000008152600401611992906134be565b60405180910390fd5b6000600c0160029054906101000a900460ff16156119ee576040517f08c379a00000000000000000000000000000000000000000000000000000000081526004016119e59061349e565b60405180910390fd5b6000600c0160019054906101000a900460ff1615611a41576040517f08c379a0000000000000000000000000000000000000000000000000000000008152600401611a38906135be565b60405180910390fd5b60016000600c0160026101000a81548160ff0219169083151502179055506000611a69611cad565b73ffffffffffffffffffffffffffffffffffffffff166370a08231306040518263ffffffff1660e01b8152600401611aa19190613341565b60206040518083038186803b158015611ab957600080fd5b505afa158015611acd573d6000803e3d6000fd5b505050506040513d601f19601f82011682018060405250810190611af19190612927565b90506000811115611b2f57611b2e3382611b09611cad565b73ffffffffffffffffffffffffffffffffffffffff16611cd99092919063ffffffff16565b5b3373ffffffffffffffffffffffffffffffffffffffff167f04318d6728dda143503ca0b1c5442f0703c11b322dd02eb178fea60e2a4c36b88242604051611b7792919061365b565b60405180910390a250565b60606014805480602002602001604051908101604052809291908181526020016000905b82821015611c745783829060005260206000209060020201604051806040016040529081600082018054611bd990613b45565b80601f0160208091040260200160405190810160405280929190818152602001828054611c0590613b45565b8015611c525780601f10611c2757610100808354040283529160200191611c52565b820191906000526020600020905b815481529060010190602001808311611c3557829003601f168201915b5050505050815260200160018201548152505081526020019060010190611ba6565b50505050905090565b60176020528060005260406000206000915090505481565b60156020528060005260406000206000915090505481565b60008060060160009054906101000a900473ffffffffffffffffffffffffffffffffffffffff16905090565b611d5a8363a9059cbb60e01b8484604051602401611cf8929190613393565b604051602081830303815290604052907bffffffffffffffffffffffffffffffffffffffffffffffffffffffff19166020820180517bffffffffffffffffffffffffffffffffffffffffffffffffffffffff838183161783525050505061218f565b505050565b6000611d69612256565b73ffffffffffffffffffffffffffffffffffffffff16633657e851836040518263ffffffff1660e01b8152600401611da19190613341565b60206040518083038186803b158015611db957600080fd5b505afa158015611dcd573d6000803e3d6000fd5b505050506040513d601f19601f82011682018060405250810190611df19190612853565b9050919050565b6000611e02612256565b73ffffffffffffffffffffffffffffffffffffffff16631865c57d6040518163ffffffff1660e01b815260040160006040518083038186803b158015611e4757600080fd5b505afa158015611e5b573d6000803e3d6000fd5b505050506040513d6000823e3d601f19601f82011682018060405250810190611e8491906128bd565b60a0015173ffffffffffffffffffffffffffffffffffffffff1663313ce5676040518163ffffffff1660e01b815260040160206040518083038186803b158015611ecd57600080fd5b505afa158015611ee1573d6000803e3d6000fd5b505050506040513d601f19601f82011682018060405250810190611f059190612950565b600a611f119190613902565b905090565b60008060060160009054906101000a900473ffffffffffffffffffffffffffffffffffffffff1673ffffffffffffffffffffffffffffffffffffffff1663f0141d846040518163ffffffff1660e01b815260040160206040518083038186803b158015611f8257600080fd5b505afa158015611f96573d6000803e3d6000fd5b505050506040513d601f19601f82011682018060405250810190611fba9190612927565b600a611fc691906138b7565b905090565b6000612710611fd8611f16565b611fe29190613a20565b611fea611df8565b60006008015484611ffb9190613a20565b6120059190613a20565b61200f9190613833565b9050919050565b6000612020612256565b73ffffffffffffffffffffffffffffffffffffffff16631865c57d6040518163ffffffff1660e01b815260040160006040518083038186803b15801561206557600080fd5b505afa158015612079573d6000803e3d6000fd5b505050506040513d6000823e3d601f19601f820116820180604052508101906120a291906128bd565b60a00151905090565b61212e846323b872dd60e01b8585856040516024016120cc9392919061335c565b604051602081830303815290604052907bffffffffffffffffffffffffffffffffffffffffffffffffffffffff19166020820180517bffffffffffffffffffffffffffffffffffffffffffffffffffffffff838183161783525050505061218f565b50505050565b60008061214083611fcb565b90506000600a01548110612159576000600a015461215b565b805b915050919050565b60008060060160009054906101000a900473ffffffffffffffffffffffffffffffffffffffff16905090565b60006121f1826040518060400160405280602081526020017f5361666545524332303a206c6f772d6c6576656c2063616c6c206661696c65648152508573ffffffffffffffffffffffffffffffffffffffff166122829092919063ffffffff16565b905060008151111561225157808060200190518101906122119190612853565b612250576040517f08c379a0000000000000000000000000000000000000000000000000000000008152600401612247906135fe565b60405180910390fd5b5b505050565b60008060070160009054906101000a900473ffffffffffffffffffffffffffffffffffffffff16905090565b6060612291848460008561229a565b90509392505050565b6060824710156122df576040517f08c379a00000000000000000000000000000000000000000000000000000000081526004016122d69061347e565b60405180910390fd5b6122e8856123ae565b612327576040517f08c379a000000000000000000000000000000000000000000000000000000000815260040161231e9061359e565b60405180910390fd5b6000808673ffffffffffffffffffffffffffffffffffffffff168587604051612350919061332a565b60006040518083038185875af1925050503d806000811461238d576040519150601f19603f3d011682016040523d82523d6000602084013e612392565b606091505b50915091506123a28282866123c1565b92505050949350505050565b600080823b905060008111915050919050565b606083156123d157829050612421565b6000835111156123e45782518084602001fd5b816040517f08c379a000000000000000000000000000000000000000000000000000000000815260040161241891906133de565b60405180910390fd5b9392505050565b604051806102c0016040528060008152602001600073ffffffffffffffffffffffffffffffffffffffff1681526020016060815260200160008152602001600073ffffffffffffffffffffffffffffffffffffffff168152602001600073ffffffffffffffffffffffffffffffffffffffff168152602001600073ffffffffffffffffffffffffffffffffffffffff168152602001600073ffffffffffffffffffffffffffffffffffffffff16815260200160008152602001600081526020016000815260200160008152602001600015158152602001600015158152602001600015158152602001600081526020016000815260200160008152602001600081526020016000815260200160008152602001606081525090565b82805461254f90613b45565b90600052602060002090601f01602090048101928261257157600085556125b8565b82601f1061258a57805160ff19168380011785556125b8565b828001600101855582156125b8579182015b828111156125b757825182559160200191906001019061259c565b5b5090506125c591906125c9565b5090565b5b808211156125e25760008160009055506001016125ca565b5090565b60006125f96125f484613731565b613700565b90508281526020810184848401111561261157600080fd5b61261c848285613b03565b509392505050565b600061263761263284613731565b613700565b90508281526020810184848401111561264f57600080fd5b61265a848285613b12565b509392505050565b60008135905061267181613c51565b92915050565b60008151905061268681613c51565b92915050565b60008151905061269b81613c68565b92915050565b600082601f8301126126b257600080fd5b81356126c28482602086016125e6565b91505092915050565b600082601f8301126126dc57600080fd5b81516126ec848260208601612624565b91505092915050565b6000610100828403121561270857600080fd5b612713610100613700565b9050600061272384828501612800565b600083015250602061273784828501612677565b602083015250604082015167ffffffffffffffff81111561275757600080fd5b612763848285016126cb565b604083015250606061277784828501612677565b606083015250608061278b84828501612677565b60808301525060a061279f84828501612677565b60a08301525060c06127b384828501612677565b60c08301525060e082015167ffffffffffffffff8111156127d357600080fd5b6127df848285016126cb565b60e08301525092915050565b6000813590506127fa81613c7f565b92915050565b60008151905061280f81613c7f565b92915050565b60008151905061282481613c96565b92915050565b60006020828403121561283c57600080fd5b600061284a84828501612662565b91505092915050565b60006020828403121561286557600080fd5b60006128738482850161268c565b91505092915050565b60006020828403121561288e57600080fd5b600082013567ffffffffffffffff8111156128a857600080fd5b6128b4848285016126a1565b91505092915050565b6000602082840312156128cf57600080fd5b600082015167ffffffffffffffff8111156128e957600080fd5b6128f5848285016126f5565b91505092915050565b60006020828403121561291057600080fd5b600061291e848285016127eb565b91505092915050565b60006020828403121561293957600080fd5b600061294784828501612800565b91505092915050565b60006020828403121561296257600080fd5b600061297084828501612815565b91505092915050565b600061298583836132cf565b905092915050565b61299681613aae565b82525050565b6129a581613aae565b82525050565b60006129b682613771565b6129c0818561379f565b9350836020820285016129d285613761565b8060005b85811015612a0e57848403895281516129ef8582612979565b94506129fa83613792565b925060208a019950506001810190506129d6565b50829750879550505050505092915050565b612a2981613ac0565b82525050565b6000612a3a8261377c565b612a4481856137b0565b9350612a54818560208601613b12565b80840191505092915050565b6000612a6b82613787565b612a7581856137bb565b9350612a85818560208601613b12565b612a8e81613c33565b840191505092915050565b6000612aa482613787565b612aae81856137cc565b9350612abe818560208601613b12565b612ac781613c33565b840191505092915050565b6000612adf6030836137cc565b91507f43664d616e61676572536f66746361703a205468652063616d706169676e206960008301527f73206e6f742066696e616c697a65642e000000000000000000000000000000006020830152604082019050919050565b6000612b45605a836137cc565b91507f43664d616e61676572536f66746361703a2043616e206f6e6c792066696e616c60008301527f697a652063616d706169676e20696620746865206d696e696d756d2066756e6460208301527f696e6720676f616c20686173206265656e20726561636865642e0000000000006040830152606082019050919050565b6000612bd16026836137cc565b91507f416464726573733a20696e73756666696369656e742062616c616e636520666f60008301527f722063616c6c00000000000000000000000000000000000000000000000000006020830152604082019050919050565b6000612c376032836137cc565b91507f43664d616e61676572536f66746361703a205468652063616d706169676e206860008301527f6173206265656e2063616e63656c6c65642e00000000000000000000000000006020830152604082019050919050565b6000612c9d6034836137cc565b91507f43664d616e61676572536f66746361703a204f6e6c79206f776e65722063616e60008301527f2063616c6c20746869732066756e6374696f6e2e0000000000000000000000006020830152604082019050919050565b6000612d03602c836137cc565b91507f43664d616e61676572536f66746361703a20496e766573746d656e7420616d6f60008301527f756e7420746f6f206c6f772e00000000000000000000000000000000000000006020830152604082019050919050565b6000612d696034836137cc565b91507f43664d616e61676572536f66746361703a204e6f206d6f726520746f6b656e7360008301527f20617661696c61626c6520666f722073616c652e0000000000000000000000006020830152604082019050919050565b6000612dcf602d836137cc565b91507f43664d616e61676572536f66746361703a20496e766573746d656e7420616d6f60008301527f756e7420746f6f20686967682e000000000000000000000000000000000000006020830152604082019050919050565b6000612e35602b836137cc565b91507f496e766573746d656e7420616d6f756e742068617320746f206265206772656160008301527f746572207468616e20302e0000000000000000000000000000000000000000006020830152604082019050919050565b6000612e9b6029836137cc565b91507f43664d616e61676572536f66746361703a2057616c6c6574206e6f742077686960008301527f74656c69737465642e00000000000000000000000000000000000000000000006020830152604082019050919050565b6000612f016044836137cc565b91507f43664d616e61676572536f66746361703a204e6f7420656e6f75676820746f6b60008301527f656e73206c65667420666f72207468697320696e766573746d656e7420616d6f60208301527f756e742e000000000000000000000000000000000000000000000000000000006040830152606082019050919050565b6000612f8d601d836137cc565b91507f416464726573733a2063616c6c20746f206e6f6e2d636f6e74726163740000006000830152602082019050919050565b6000612fcd602c836137cc565b91507f43664d616e61676572536f66746361703a205468652063616d706169676e206960008301527f732066696e616c697a65642e00000000000000000000000000000000000000006020830152604082019050919050565b60006130336022836137cc565b91507f43664d616e61676572536f66746361703a204e6f20746f6b656e73206f776e6560008301527f642e0000000000000000000000000000000000000000000000000000000000006020830152604082019050919050565b6000613099602a836137cc565b91507f5361666545524332303a204552433230206f7065726174696f6e20646964206e60008301527f6f742073756363656564000000000000000000000000000000000000000000006020830152604082019050919050565b60006102c08301600083015161310b600086018261330c565b50602083015161311e602086018261298d565b50604083015184820360408601526131368282612a60565b915050606083015161314b606086018261330c565b50608083015161315e608086018261298d565b5060a083015161317160a086018261298d565b5060c083015161318460c086018261298d565b5060e083015161319760e086018261298d565b506101008301516131ac61010086018261330c565b506101208301516131c161012086018261330c565b506101408301516131d661014086018261330c565b506101608301516131eb61016086018261330c565b50610180830151613200610180860182612a20565b506101a08301516132156101a0860182612a20565b506101c083015161322a6101c0860182612a20565b506101e083015161323f6101e086018261330c565b5061020083015161325461020086018261330c565b5061022083015161326961022086018261330c565b5061024083015161327e61024086018261330c565b5061026083015161329361026086018261330c565b506102808301516132a861028086018261330c565b506102a08301518482036102a08601526132c28282612a60565b9150508091505092915050565b600060408301600083015184820360008601526132ec8282612a60565b9150506020830151613301602086018261330c565b508091505092915050565b61331581613aec565b82525050565b61332481613aec565b82525050565b60006133368284612a2f565b915081905092915050565b6000602082019050613356600083018461299c565b92915050565b6000606082019050613371600083018661299c565b61337e602083018561299c565b61338b604083018461331b565b949350505050565b60006040820190506133a8600083018561299c565b6133b5602083018461331b565b9392505050565b600060208201905081810360008301526133d681846129ab565b905092915050565b600060208201905081810360008301526133f88184612a99565b905092915050565b6000606082019050818103600083015261341a8186612a99565b9050613429602083018561299c565b613436604083018461331b565b949350505050565b6000602082019050818103600083015261345781612ad2565b9050919050565b6000602082019050818103600083015261347781612b38565b9050919050565b6000602082019050818103600083015261349781612bc4565b9050919050565b600060208201905081810360008301526134b781612c2a565b9050919050565b600060208201905081810360008301526134d781612c90565b9050919050565b600060208201905081810360008301526134f781612cf6565b9050919050565b6000602082019050818103600083015261351781612d5c565b9050919050565b6000602082019050818103600083015261353781612dc2565b9050919050565b6000602082019050818103600083015261355781612e28565b9050919050565b6000602082019050818103600083015261357781612e8e565b9050919050565b6000602082019050818103600083015261359781612ef4565b9050919050565b600060208201905081810360008301526135b781612f80565b9050919050565b600060208201905081810360008301526135d781612fc0565b9050919050565b600060208201905081810360008301526135f781613026565b9050919050565b600060208201905081810360008301526136178161308c565b9050919050565b6000602082019050818103600083015261363881846130f2565b905092915050565b6000602082019050613655600083018461331b565b92915050565b6000604082019050613670600083018561331b565b61367d602083018461331b565b9392505050565b6000606082019050613699600083018661331b565b6136a6602083018561331b565b6136b3604083018461331b565b949350505050565b60006080820190506136d0600083018761331b565b6136dd602083018661331b565b6136ea604083018561331b565b6136f7606083018461331b565b95945050505050565b6000604051905081810181811067ffffffffffffffff8211171561372757613726613c04565b5b8060405250919050565b600067ffffffffffffffff82111561374c5761374b613c04565b5b601f19601f8301169050602081019050919050565b6000819050602082019050919050565b600081519050919050565b600081519050919050565b600081519050919050565b6000602082019050919050565b600082825260208201905092915050565b600081905092915050565b600082825260208201905092915050565b600082825260208201905092915050565b60006137e882613aec565b91506137f383613aec565b9250827fffffffffffffffffffffffffffffffffffffffffffffffffffffffffffffffff0382111561382857613827613b77565b5b828201905092915050565b600061383e82613aec565b915061384983613aec565b92508261385957613858613ba6565b5b828204905092915050565b6000808291508390505b60018511156138ae5780860481111561388a57613889613b77565b5b60018516156138995780820291505b80810290506138a785613c44565b945061386e565b94509492505050565b60006138c282613aec565b91506138cd83613aec565b92506138fa7fffffffffffffffffffffffffffffffffffffffffffffffffffffffffffffffff848461394d565b905092915050565b600061390d82613aec565b915061391883613af6565b92506139457fffffffffffffffffffffffffffffffffffffffffffffffffffffffffffffffff848461394d565b905092915050565b60008261395d5760019050613a19565b8161396b5760009050613a19565b8160018114613981576002811461398b576139ba565b6001915050613a19565b60ff84111561399d5761399c613b77565b5b8360020a9150848211156139b4576139b3613b77565b5b50613a19565b5060208310610133831016604e8410600b84101617156139ef5782820a9050838111156139ea576139e9613b77565b5b613a19565b6139fc8484846001613864565b92509050818404811115613a1357613a12613b77565b5b81810290505b9392505050565b6000613a2b82613aec565b9150613a3683613aec565b9250817fffffffffffffffffffffffffffffffffffffffffffffffffffffffffffffffff0483118215151615613a6f57613a6e613b77565b5b828202905092915050565b6000613a8582613aec565b9150613a9083613aec565b925082821015613aa357613aa2613b77565b5b828203905092915050565b6000613ab982613acc565b9050919050565b60008115159050919050565b600073ffffffffffffffffffffffffffffffffffffffff82169050919050565b6000819050919050565b600060ff82169050919050565b82818337600083830152505050565b60005b83811015613b30578082015181840152602081019050613b15565b83811115613b3f576000848401525b50505050565b60006002820490506001821680613b5d57607f821691505b60208210811415613b7157613b70613bd5565b5b50919050565b7f4e487b7100000000000000000000000000000000000000000000000000000000600052601160045260246000fd5b7f4e487b7100000000000000000000000000000000000000000000000000000000600052601260045260246000fd5b7f4e487b7100000000000000000000000000000000000000000000000000000000600052602260045260246000fd5b7f4e487b7100000000000000000000000000000000000000000000000000000000600052604160045260246000fd5b6000601f19601f8301169050919050565b60008160011c9050919050565b613c5a81613aae565b8114613c6557600080fd5b50565b613c7181613ac0565b8114613c7c57600080fd5b50565b613c8881613aec565b8114613c9357600080fd5b50565b613c9f81613af6565b8114613caa57600080fd5b5056fea2646970667358221220bda28ed6145996ee0aac5ebf592c2287fb3a7a5ecaab613a244ff46cd8bb6ab064736f6c63430008000033",
  "linkReferences": {},
  "deployedLinkReferences": {}
}