{
  "_format": "hh-sol-artifact-1",
  "contractName": "GlobalService",
  "sourceName": "contracts/services/GlobalService.sol",
  "abi": [
    {
      "inputs": [
        {
          "internalType": "address",
          "name": "_masterOwner",
          "type": "address"
        },
        {
          "internalType": "address",
          "name": "_walletApprover",
          "type": "address"
        },
        {
          "internalType": "address[]",
          "name": "ownersList",
          "type": "address[]"
        },
        {
          "internalType": "address[]",
          "name": "approvedWalletsList",
          "type": "address[]"
        }
      ],
      "stateMutability": "nonpayable",
      "type": "constructor"
    },
    {
      "inputs": [
        {
          "internalType": "address",
          "name": "",
          "type": "address"
        }
      ],
      "name": "approvedWallets",
      "outputs": [
        {
          "internalType": "bool",
          "name": "",
          "type": "bool"
        }
      ],
      "stateMutability": "view",
      "type": "function"
    },
    {
      "inputs": [
        {
          "internalType": "address",
          "name": "",
          "type": "address"
        },
        {
          "internalType": "address",
          "name": "",
          "type": "address"
        }
      ],
      "name": "deploymentsCount",
      "outputs": [
        {
          "internalType": "uint256",
          "name": "",
          "type": "uint256"
        }
      ],
      "stateMutability": "view",
      "type": "function"
    },
    {
      "inputs": [
        {
          "internalType": "address",
          "name": "",
          "type": "address"
        }
      ],
      "name": "maxDeploymentsPerFactory",
      "outputs": [
        {
          "internalType": "uint256",
          "name": "",
          "type": "uint256"
        }
      ],
      "stateMutability": "view",
      "type": "function"
    },
    {
      "inputs": [
        {
          "internalType": "address",
          "name": "",
          "type": "address"
        }
      ],
      "name": "owners",
      "outputs": [
        {
          "internalType": "bool",
          "name": "",
          "type": "bool"
        }
      ],
      "stateMutability": "view",
      "type": "function"
    },
    {
      "inputs": [
        {
          "internalType": "address",
          "name": "creator",
          "type": "address"
        }
      ],
      "name": "registerDeployment",
      "outputs": [],
      "stateMutability": "nonpayable",
      "type": "function"
    }
  ],
  "bytecode": "0x608060405234801561001057600080fd5b506040516108c33803806108c383398181016040528101906100329190610296565b836000806101000a81548173ffffffffffffffffffffffffffffffffffffffff021916908373ffffffffffffffffffffffffffffffffffffffff16021790555060005b8251811015610129576001600260008584815181106100bd577f4e487b7100000000000000000000000000000000000000000000000000000000600052603260045260246000fd5b602002602001015173ffffffffffffffffffffffffffffffffffffffff1673ffffffffffffffffffffffffffffffffffffffff16815260200190815260200160002060006101000a81548160ff0219169083151502179055508080610121906103c2565b915050610075565b5060005b81518110156101e157600160036000848481518110610175577f4e487b7100000000000000000000000000000000000000000000000000000000600052603260045260246000fd5b602002602001015173ffffffffffffffffffffffffffffffffffffffff1673ffffffffffffffffffffffffffffffffffffffff16815260200190815260200160002060006101000a81548160ff02191690831515021790555080806101d9906103c2565b91505061012d565b5050505050610480565b60006101fe6101f98461035a565b610329565b9050808382526020820190508285602086028201111561021d57600080fd5b60005b8581101561024d57816102338882610257565b845260208401935060208301925050600181019050610220565b5050509392505050565b60008151905061026681610469565b92915050565b600082601f83011261027d57600080fd5b815161028d8482602086016101eb565b91505092915050565b600080600080608085870312156102ac57600080fd5b60006102ba87828801610257565b94505060206102cb87828801610257565b935050604085015167ffffffffffffffff8111156102e857600080fd5b6102f48782880161026c565b925050606085015167ffffffffffffffff81111561031157600080fd5b61031d8782880161026c565b91505092959194509250565b6000604051905081810181811067ffffffffffffffff821117156103505761034f61043a565b5b8060405250919050565b600067ffffffffffffffff8211156103755761037461043a565b5b602082029050602081019050919050565b600061039182610398565b9050919050565b600073ffffffffffffffffffffffffffffffffffffffff82169050919050565b6000819050919050565b60006103cd826103b8565b91507fffffffffffffffffffffffffffffffffffffffffffffffffffffffffffffffff821415610400576103ff61040b565b5b600182019050919050565b7f4e487b7100000000000000000000000000000000000000000000000000000000600052601160045260246000fd5b7f4e487b7100000000000000000000000000000000000000000000000000000000600052604160045260246000fd5b61047281610386565b811461047d57600080fd5b50565b6104348061048f6000396000f3fe608060405234801561001057600080fd5b50600436106100575760003560e01c8063022914a71461005c5780633e376d491461008c57806357c14628146100a85780635d5aeda4146100d857806372e9bbc014610108575b600080fd5b61007660048036038101906100719190610261565b610138565b60405161008391906102e4565b60405180910390f35b6100a660048036038101906100a19190610261565b610158565b005b6100c260048036038101906100bd9190610261565b6101ef565b6040516100cf91906102e4565b60405180910390f35b6100f260048036038101906100ed9190610261565b61020f565b6040516100ff91906102ff565b60405180910390f35b610122600480360381019061011d919061028a565b610227565b60405161012f91906102ff565b60405180910390f35b60026020528060005260406000206000915054906101000a900460ff1681565b6001600560003373ffffffffffffffffffffffffffffffffffffffff1673ffffffffffffffffffffffffffffffffffffffff16815260200190815260200160002060008373ffffffffffffffffffffffffffffffffffffffff1673ffffffffffffffffffffffffffffffffffffffff16815260200190815260200160002060008282546101e5919061031a565b9250508190555050565b60036020528060005260406000206000915054906101000a900460ff1681565b60046020528060005260406000206000915090505481565b6005602052816000526040600020602052806000526040600020600091509150505481565b60008135905061025b816103e7565b92915050565b60006020828403121561027357600080fd5b60006102818482850161024c565b91505092915050565b6000806040838503121561029d57600080fd5b60006102ab8582860161024c565b92505060206102bc8582860161024c565b9150509250929050565b6102cf81610382565b82525050565b6102de816103ae565b82525050565b60006020820190506102f960008301846102c6565b92915050565b600060208201905061031460008301846102d5565b92915050565b6000610325826103ae565b9150610330836103ae565b9250827fffffffffffffffffffffffffffffffffffffffffffffffffffffffffffffffff03821115610365576103646103b8565b5b828201905092915050565b600061037b8261038e565b9050919050565b60008115159050919050565b600073ffffffffffffffffffffffffffffffffffffffff82169050919050565b6000819050919050565b7f4e487b7100000000000000000000000000000000000000000000000000000000600052601160045260246000fd5b6103f081610370565b81146103fb57600080fd5b5056fea264697066735822122085c376beb9de5694371bfbaf5d4b2ef758ee61d511629dbe95475cb8f815fa1a64736f6c63430008000033",
  "linkReferences": {},
  "deployedLinkReferences": {}
}