{
  "_format": "hh-sol-artifact-1",
  "contractName": "Asset",
  "sourceName": "contracts/asset/Asset.sol",
  "abi": [
    {
      "inputs": [
        {
          "internalType": "uint256",
          "name": "id",
          "type": "uint256"
        },
        {
          "internalType": "address",
          "name": "owner",
          "type": "address"
        },
        {
          "internalType": "address",
          "name": "issuer",
          "type": "address"
        },
        {
          "internalType": "string",
          "name": "ansName",
          "type": "string"
        },
        {
          "internalType": "uint256",
          "name": "ansId",
          "type": "uint256"
        },
        {
          "internalType": "uint256",
          "name": "initialTokenSupply",
          "type": "uint256"
        },
        {
          "internalType": "bool",
          "name": "whitelistRequiredForTransfer",
          "type": "bool"
        },
        {
          "internalType": "string",
          "name": "name",
          "type": "string"
        },
        {
          "internalType": "string",
          "name": "symbol",
          "type": "string"
        },
        {
          "internalType": "string",
          "name": "info",
          "type": "string"
        }
      ],
      "stateMutability": "nonpayable",
      "type": "constructor"
    },
    {
      "anonymous": false,
      "inputs": [
        {
          "indexed": true,
          "internalType": "address",
          "name": "owner",
          "type": "address"
        },
        {
          "indexed": true,
          "internalType": "address",
          "name": "spender",
          "type": "address"
        },
        {
          "indexed": false,
          "internalType": "uint256",
          "name": "value",
          "type": "uint256"
        }
      ],
      "name": "Approval",
      "type": "event"
    },
    {
      "anonymous": false,
      "inputs": [
        {
          "indexed": false,
          "internalType": "address",
          "name": "approver",
          "type": "address"
        },
        {
          "indexed": false,
          "internalType": "address",
          "name": "wallet",
          "type": "address"
        },
        {
          "indexed": false,
          "internalType": "bool",
          "name": "whitelisted",
          "type": "bool"
        },
        {
          "indexed": false,
          "internalType": "uint256",
          "name": "timestamp",
          "type": "uint256"
        }
      ],
      "name": "CampaignWhitelist",
      "type": "event"
    },
    {
      "anonymous": false,
      "inputs": [
        {
          "indexed": false,
          "internalType": "address",
          "name": "caller",
          "type": "address"
        },
        {
          "indexed": false,
          "internalType": "address",
          "name": "newOwner",
          "type": "address"
        },
        {
          "indexed": false,
          "internalType": "uint256",
          "name": "timestamp",
          "type": "uint256"
        }
      ],
      "name": "ChangeOwnership",
      "type": "event"
    },
    {
      "anonymous": false,
      "inputs": [
        {
          "indexed": true,
          "internalType": "address",
          "name": "investor",
          "type": "address"
        },
        {
          "indexed": false,
          "internalType": "address",
          "name": "campaign",
          "type": "address"
        },
        {
          "indexed": false,
          "internalType": "uint256",
          "name": "amount",
          "type": "uint256"
        },
        {
          "indexed": false,
          "internalType": "uint256",
          "name": "timestamp",
          "type": "uint256"
        }
      ],
      "name": "ClaimLiquidationShare",
      "type": "event"
    },
    {
      "anonymous": false,
      "inputs": [
        {
          "indexed": true,
          "internalType": "address",
          "name": "caller",
          "type": "address"
        },
        {
          "indexed": false,
          "internalType": "address",
          "name": "mirroredToken",
          "type": "address"
        },
        {
          "indexed": false,
          "internalType": "uint256",
          "name": "amount",
          "type": "uint256"
        },
        {
          "indexed": false,
          "internalType": "uint256",
          "name": "timestamp",
          "type": "uint256"
        }
      ],
      "name": "ConvertFromMirrored",
      "type": "event"
    },
    {
      "anonymous": false,
      "inputs": [
        {
          "indexed": false,
          "internalType": "address",
          "name": "campaign",
          "type": "address"
        },
        {
          "indexed": false,
          "internalType": "uint256",
          "name": "tokenAmount",
          "type": "uint256"
        },
        {
          "indexed": false,
          "internalType": "uint256",
          "name": "tokenValue",
          "type": "uint256"
        },
        {
          "indexed": false,
          "internalType": "uint256",
          "name": "timestamp",
          "type": "uint256"
        }
      ],
      "name": "FinalizeSale",
      "type": "event"
    },
    {
      "anonymous": false,
      "inputs": [
        {
          "indexed": false,
          "internalType": "address",
          "name": "liquidator",
          "type": "address"
        },
        {
          "indexed": false,
          "internalType": "uint256",
          "name": "liquidationFunds",
          "type": "uint256"
        },
        {
          "indexed": false,
          "internalType": "uint256",
          "name": "liquidationSnapshotId",
          "type": "uint256"
        },
        {
          "indexed": false,
          "internalType": "uint256",
          "name": "timestamp",
          "type": "uint256"
        }
      ],
      "name": "Liquidated",
      "type": "event"
    },
    {
      "anonymous": false,
      "inputs": [
        {
          "indexed": false,
          "internalType": "address",
          "name": "caller",
          "type": "address"
        },
        {
          "indexed": false,
          "internalType": "bool",
          "name": "approvedByIssuer",
          "type": "bool"
        },
        {
          "indexed": false,
          "internalType": "uint256",
          "name": "timestamp",
          "type": "uint256"
        }
      ],
      "name": "SetApprovedByIssuer",
      "type": "event"
    },
    {
      "anonymous": false,
      "inputs": [
        {
          "indexed": false,
          "internalType": "string",
          "name": "info",
          "type": "string"
        },
        {
          "indexed": false,
          "internalType": "address",
          "name": "setter",
          "type": "address"
        },
        {
          "indexed": false,
          "internalType": "uint256",
          "name": "timestamp",
          "type": "uint256"
        }
      ],
      "name": "SetInfo",
      "type": "event"
    },
    {
      "anonymous": false,
      "inputs": [
        {
          "indexed": false,
          "internalType": "address",
          "name": "approver",
          "type": "address"
        },
        {
          "indexed": false,
          "internalType": "bool",
          "name": "status",
          "type": "bool"
        },
        {
          "indexed": false,
          "internalType": "uint256",
          "name": "timestamp",
          "type": "uint256"
        }
      ],
      "name": "SetIssuerStatus",
      "type": "event"
    },
    {
      "anonymous": false,
      "inputs": [
        {
          "indexed": false,
          "internalType": "address",
          "name": "caller",
          "type": "address"
        },
        {
          "indexed": false,
          "internalType": "address",
          "name": "mirroredToken",
          "type": "address"
        },
        {
          "indexed": false,
          "internalType": "uint256",
          "name": "timestamp",
          "type": "uint256"
        }
      ],
      "name": "SetMirroredToken",
      "type": "event"
    },
    {
      "anonymous": false,
      "inputs": [
        {
          "indexed": false,
          "internalType": "address",
          "name": "caller",
          "type": "address"
        },
        {
          "indexed": false,
          "internalType": "bool",
          "name": "whitelistRequiredForTransfer",
          "type": "bool"
        },
        {
          "indexed": false,
          "internalType": "uint256",
          "name": "timestamp",
          "type": "uint256"
        }
      ],
      "name": "SetWhitelistRequiredForTransfer",
      "type": "event"
    },
    {
      "anonymous": false,
      "inputs": [
        {
          "indexed": false,
          "internalType": "uint256",
          "name": "id",
          "type": "uint256"
        }
      ],
      "name": "Snapshot",
      "type": "event"
    },
    {
      "anonymous": false,
      "inputs": [
        {
          "indexed": true,
          "internalType": "address",
          "name": "from",
          "type": "address"
        },
        {
          "indexed": true,
          "internalType": "address",
          "name": "to",
          "type": "address"
        },
        {
          "indexed": false,
          "internalType": "uint256",
          "name": "value",
          "type": "uint256"
        }
      ],
      "name": "Transfer",
      "type": "event"
    },
    {
      "inputs": [
        {
          "internalType": "address",
          "name": "owner",
          "type": "address"
        },
        {
          "internalType": "address",
          "name": "spender",
          "type": "address"
        }
      ],
      "name": "allowance",
      "outputs": [
        {
          "internalType": "uint256",
          "name": "",
          "type": "uint256"
        }
      ],
      "stateMutability": "view",
      "type": "function"
    },
    {
      "inputs": [
        {
          "internalType": "address",
          "name": "spender",
          "type": "address"
        },
        {
          "internalType": "uint256",
          "name": "amount",
          "type": "uint256"
        }
      ],
      "name": "approve",
      "outputs": [
        {
          "internalType": "bool",
          "name": "",
          "type": "bool"
        }
      ],
      "stateMutability": "nonpayable",
      "type": "function"
    },
    {
      "inputs": [
        {
          "internalType": "address",
          "name": "campaign",
          "type": "address"
        }
      ],
      "name": "approveCampaign",
      "outputs": [],
      "stateMutability": "nonpayable",
      "type": "function"
    },
    {
      "inputs": [
        {
          "internalType": "address",
          "name": "",
          "type": "address"
        }
      ],
      "name": "approvedCampaignsMap",
      "outputs": [
        {
          "internalType": "uint256",
          "name": "",
          "type": "uint256"
        }
      ],
      "stateMutability": "view",
      "type": "function"
    },
    {
      "inputs": [
        {
          "internalType": "address",
          "name": "account",
          "type": "address"
        }
      ],
      "name": "balanceOf",
      "outputs": [
        {
          "internalType": "uint256",
          "name": "",
          "type": "uint256"
        }
      ],
      "stateMutability": "view",
      "type": "function"
    },
    {
      "inputs": [
        {
          "internalType": "address",
          "name": "account",
          "type": "address"
        },
        {
          "internalType": "uint256",
          "name": "snapshotId",
          "type": "uint256"
        }
      ],
      "name": "balanceOfAt",
      "outputs": [
        {
          "internalType": "uint256",
          "name": "",
          "type": "uint256"
        }
      ],
      "stateMutability": "view",
      "type": "function"
    },
    {
      "inputs": [
        {
          "internalType": "address",
          "name": "newOwner",
          "type": "address"
        }
      ],
      "name": "changeOwnership",
      "outputs": [],
      "stateMutability": "nonpayable",
      "type": "function"
    },
    {
      "inputs": [
        {
          "internalType": "address",
          "name": "campaign",
          "type": "address"
        },
        {
          "internalType": "address",
          "name": "investor",
          "type": "address"
        }
      ],
      "name": "claimLiquidationShare",
      "outputs": [],
      "stateMutability": "nonpayable",
      "type": "function"
    },
    {
      "inputs": [],
      "name": "convertFromMirrored",
      "outputs": [],
      "stateMutability": "nonpayable",
      "type": "function"
    },
    {
      "inputs": [],
      "name": "decimals",
      "outputs": [
        {
          "internalType": "uint8",
          "name": "",
          "type": "uint8"
        }
      ],
      "stateMutability": "view",
      "type": "function"
    },
    {
      "inputs": [
        {
          "internalType": "address",
          "name": "spender",
          "type": "address"
        },
        {
          "internalType": "uint256",
          "name": "subtractedValue",
          "type": "uint256"
        }
      ],
      "name": "decreaseAllowance",
      "outputs": [
        {
          "internalType": "bool",
          "name": "",
          "type": "bool"
        }
      ],
      "stateMutability": "nonpayable",
      "type": "function"
    },
    {
      "inputs": [
        {
          "internalType": "uint256",
          "name": "tokenAmount",
          "type": "uint256"
        },
        {
          "internalType": "uint256",
          "name": "tokenValue",
          "type": "uint256"
        }
      ],
      "name": "finalizeSale",
      "outputs": [],
      "stateMutability": "nonpayable",
      "type": "function"
    },
    {
      "inputs": [],
      "name": "getCampaignRecords",
      "outputs": [
        {
          "components": [
            {
              "internalType": "address",
              "name": "wallet",
              "type": "address"
            },
            {
              "internalType": "bool",
              "name": "whitelisted",
              "type": "bool"
            }
          ],
          "internalType": "struct Structs.WalletRecord[]",
          "name": "",
          "type": "tuple[]"
        }
      ],
      "stateMutability": "view",
      "type": "function"
    },
    {
      "inputs": [],
      "name": "getDecimals",
      "outputs": [
        {
          "internalType": "uint256",
          "name": "",
          "type": "uint256"
        }
      ],
      "stateMutability": "view",
      "type": "function"
    },
    {
      "inputs": [],
      "name": "getInfoHistory",
      "outputs": [
        {
          "components": [
            {
              "internalType": "string",
              "name": "info",
              "type": "string"
            },
            {
              "internalType": "uint256",
              "name": "timestamp",
              "type": "uint256"
            }
          ],
          "internalType": "struct Structs.InfoEntry[]",
          "name": "",
          "type": "tuple[]"
        }
      ],
      "stateMutability": "view",
      "type": "function"
    },
    {
      "inputs": [],
      "name": "getSellHistory",
      "outputs": [
        {
          "components": [
            {
              "internalType": "address",
              "name": "cfManager",
              "type": "address"
            },
            {
              "internalType": "uint256",
              "name": "tokenAmount",
              "type": "uint256"
            },
            {
              "internalType": "uint256",
              "name": "tokenValue",
              "type": "uint256"
            },
            {
              "internalType": "uint256",
              "name": "timestamp",
              "type": "uint256"
            }
          ],
          "internalType": "struct Structs.TokenSaleInfo[]",
          "name": "",
          "type": "tuple[]"
        }
      ],
      "stateMutability": "view",
      "type": "function"
    },
    {
      "inputs": [],
      "name": "getState",
      "outputs": [
        {
          "components": [
            {
              "internalType": "uint256",
              "name": "id",
              "type": "uint256"
            },
            {
              "internalType": "address",
              "name": "contractAddress",
              "type": "address"
            },
            {
              "internalType": "string",
              "name": "ansName",
              "type": "string"
            },
            {
              "internalType": "uint256",
              "name": "ansId",
              "type": "uint256"
            },
            {
              "internalType": "address",
              "name": "createdBy",
              "type": "address"
            },
            {
              "internalType": "address",
              "name": "owner",
              "type": "address"
            },
            {
              "internalType": "address",
              "name": "mirroredToken",
              "type": "address"
            },
            {
              "internalType": "uint256",
              "name": "initialTokenSupply",
              "type": "uint256"
            },
            {
              "internalType": "bool",
              "name": "whitelistRequiredForTransfer",
              "type": "bool"
            },
            {
              "internalType": "bool",
              "name": "assetApprovedByIssuer",
              "type": "bool"
            },
            {
              "internalType": "address",
              "name": "issuer",
              "type": "address"
            },
            {
              "internalType": "string",
              "name": "info",
              "type": "string"
            },
            {
              "internalType": "string",
              "name": "name",
              "type": "string"
            },
            {
              "internalType": "string",
              "name": "symbol",
              "type": "string"
            },
            {
              "internalType": "uint256",
              "name": "totalAmountRaised",
              "type": "uint256"
            },
            {
              "internalType": "uint256",
              "name": "totalTokensSold",
              "type": "uint256"
            },
            {
              "internalType": "bool",
              "name": "liquidated",
              "type": "bool"
            },
            {
              "internalType": "uint256",
              "name": "liquidationTimestamp",
              "type": "uint256"
            },
            {
              "internalType": "uint256",
              "name": "liquidationSnapshotId",
              "type": "uint256"
            },
            {
              "internalType": "uint256",
              "name": "liquidationFundsClaimed",
              "type": "uint256"
            }
          ],
          "internalType": "struct Structs.AssetState",
          "name": "",
          "type": "tuple"
        }
      ],
      "stateMutability": "view",
      "type": "function"
    },
    {
      "inputs": [
        {
          "internalType": "address",
          "name": "spender",
          "type": "address"
        },
        {
          "internalType": "uint256",
          "name": "addedValue",
          "type": "uint256"
        }
      ],
      "name": "increaseAllowance",
      "outputs": [
        {
          "internalType": "bool",
          "name": "",
          "type": "bool"
        }
      ],
      "stateMutability": "nonpayable",
      "type": "function"
    },
    {
      "inputs": [],
      "name": "liquidate",
      "outputs": [],
      "stateMutability": "nonpayable",
      "type": "function"
    },
    {
      "inputs": [
        {
          "internalType": "address",
          "name": "",
          "type": "address"
        },
        {
          "internalType": "address",
          "name": "",
          "type": "address"
        }
      ],
      "name": "liquidationClaimsMap",
      "outputs": [
        {
          "internalType": "uint256",
          "name": "",
          "type": "uint256"
        }
      ],
      "stateMutability": "view",
      "type": "function"
    },
    {
      "inputs": [],
      "name": "name",
      "outputs": [
        {
          "internalType": "string",
          "name": "",
          "type": "string"
        }
      ],
      "stateMutability": "view",
      "type": "function"
    },
    {
      "inputs": [
        {
          "internalType": "string",
          "name": "info",
          "type": "string"
        }
      ],
      "name": "setInfo",
      "outputs": [],
      "stateMutability": "nonpayable",
      "type": "function"
    },
    {
      "inputs": [
        {
          "internalType": "bool",
          "name": "status",
          "type": "bool"
        }
      ],
      "name": "setIssuerStatus",
      "outputs": [],
      "stateMutability": "nonpayable",
      "type": "function"
    },
    {
      "inputs": [
        {
          "internalType": "address",
          "name": "token",
          "type": "address"
        }
      ],
      "name": "setMirroredToken",
      "outputs": [],
      "stateMutability": "nonpayable",
      "type": "function"
    },
    {
      "inputs": [
        {
          "internalType": "bool",
          "name": "whitelistRequiredForTransfer",
          "type": "bool"
        }
      ],
      "name": "setWhitelistRequiredForTransfer",
      "outputs": [],
      "stateMutability": "nonpayable",
      "type": "function"
    },
    {
      "inputs": [],
      "name": "snapshot",
      "outputs": [
        {
          "internalType": "uint256",
          "name": "",
          "type": "uint256"
        }
      ],
      "stateMutability": "nonpayable",
      "type": "function"
    },
    {
      "inputs": [
        {
          "internalType": "address",
          "name": "",
          "type": "address"
        }
      ],
      "name": "successfulTokenSalesMap",
      "outputs": [
        {
          "internalType": "address",
          "name": "cfManager",
          "type": "address"
        },
        {
          "internalType": "uint256",
          "name": "tokenAmount",
          "type": "uint256"
        },
        {
          "internalType": "uint256",
          "name": "tokenValue",
          "type": "uint256"
        },
        {
          "internalType": "uint256",
          "name": "timestamp",
          "type": "uint256"
        }
      ],
      "stateMutability": "view",
      "type": "function"
    },
    {
      "inputs": [
        {
          "internalType": "address",
          "name": "campaign",
          "type": "address"
        }
      ],
      "name": "suspendCampaign",
      "outputs": [],
      "stateMutability": "nonpayable",
      "type": "function"
    },
    {
      "inputs": [],
      "name": "symbol",
      "outputs": [
        {
          "internalType": "string",
          "name": "",
          "type": "string"
        }
      ],
      "stateMutability": "view",
      "type": "function"
    },
    {
      "inputs": [],
      "name": "totalShares",
      "outputs": [
        {
          "internalType": "uint256",
          "name": "",
          "type": "uint256"
        }
      ],
      "stateMutability": "view",
      "type": "function"
    },
    {
      "inputs": [],
      "name": "totalSupply",
      "outputs": [
        {
          "internalType": "uint256",
          "name": "",
          "type": "uint256"
        }
      ],
      "stateMutability": "view",
      "type": "function"
    },
    {
      "inputs": [
        {
          "internalType": "uint256",
          "name": "snapshotId",
          "type": "uint256"
        }
      ],
      "name": "totalSupplyAt",
      "outputs": [
        {
          "internalType": "uint256",
          "name": "",
          "type": "uint256"
        }
      ],
      "stateMutability": "view",
      "type": "function"
    },
    {
      "inputs": [
        {
          "internalType": "address",
          "name": "recipient",
          "type": "address"
        },
        {
          "internalType": "uint256",
          "name": "amount",
          "type": "uint256"
        }
      ],
      "name": "transfer",
      "outputs": [
        {
          "internalType": "bool",
          "name": "",
          "type": "bool"
        }
      ],
      "stateMutability": "nonpayable",
      "type": "function"
    },
    {
      "inputs": [
        {
          "internalType": "address",
          "name": "sender",
          "type": "address"
        },
        {
          "internalType": "address",
          "name": "recipient",
          "type": "address"
        },
        {
          "internalType": "uint256",
          "name": "amount",
          "type": "uint256"
        }
      ],
      "name": "transferFrom",
      "outputs": [
        {
          "internalType": "bool",
          "name": "",
          "type": "bool"
        }
      ],
      "stateMutability": "nonpayable",
      "type": "function"
    }
  ],
  "bytecode": "0x60806040523480156200001157600080fd5b506040516200862338038062008623833981810160405281019062000037919062000e78565b828281600390805190602001906200005192919062000bc1565b5080600490805190602001906200006a92919062000bc1565b505050600073ffffffffffffffffffffffffffffffffffffffff168973ffffffffffffffffffffffffffffffffffffffff161415620000e0576040517f08c379a0000000000000000000000000000000000000000000000000000000008152600401620000d7906200110b565b60405180910390fd5b600073ffffffffffffffffffffffffffffffffffffffff168873ffffffffffffffffffffffffffffffffffffffff16141562000153576040517f08c379a00000000000000000000000000000000000000000000000000000000081526004016200014a906200112d565b60405180910390fd5b6000851162000199576040517f08c379a000000000000000000000000000000000000000000000000000000000815260040162000190906200114f565b60405180910390fd5b601b60405180604001604052808381526020014281525090806001815401808255809150506001900390600052602060002090600202016000909190919091506000820151816000019080519060200190620001f792919062000bc1565b5060208201518160010155505060008973ffffffffffffffffffffffffffffffffffffffff168973ffffffffffffffffffffffffffffffffffffffff16631865c57d6040518163ffffffff1660e01b815260040160006040518083038186803b1580156200026457600080fd5b505afa15801562000279573d6000803e3d6000fd5b505050506040513d6000823e3d601f19601f82011682018060405250810190620002a4919062000e33565b6080015173ffffffffffffffffffffffffffffffffffffffff1614905060003090506040518061028001604052808d81526020018273ffffffffffffffffffffffffffffffffffffffff1681526020018a81526020018981526020013373ffffffffffffffffffffffffffffffffffffffff1681526020018c73ffffffffffffffffffffffffffffffffffffffff168152602001600073ffffffffffffffffffffffffffffffffffffffff168152602001888152602001871515815260200183151581526020018b73ffffffffffffffffffffffffffffffffffffffff16815260200184815260200186815260200185815260200160008152602001600081526020016000151581526020016000815260200160008152602001600081525060096000820151816000015560208201518160010160006101000a81548173ffffffffffffffffffffffffffffffffffffffff021916908373ffffffffffffffffffffffffffffffffffffffff16021790555060408201518160020190805190602001906200043492919062000bc1565b506060820151816003015560808201518160040160006101000a81548173ffffffffffffffffffffffffffffffffffffffff021916908373ffffffffffffffffffffffffffffffffffffffff16021790555060a08201518160050160006101000a81548173ffffffffffffffffffffffffffffffffffffffff021916908373ffffffffffffffffffffffffffffffffffffffff16021790555060c08201518160060160006101000a81548173ffffffffffffffffffffffffffffffffffffffff021916908373ffffffffffffffffffffffffffffffffffffffff16021790555060e082015181600701556101008201518160080160006101000a81548160ff0219169083151502179055506101208201518160080160016101000a81548160ff0219169083151502179055506101408201518160080160026101000a81548173ffffffffffffffffffffffffffffffffffffffff021916908373ffffffffffffffffffffffffffffffffffffffff160217905550610160820151816009019080519060200190620005c792919062000bc1565b5061018082015181600a019080519060200190620005e792919062000bc1565b506101a082015181600b0190805190602001906200060792919062000bc1565b506101c082015181600c01556101e082015181600d015561020082015181600e0160006101000a81548160ff02191690831515021790555061022082015181600f015561024082015181601001556102608201518160110155905050620006758b886200068760201b60201c565b50505050505050505050505062001451565b600073ffffffffffffffffffffffffffffffffffffffff168273ffffffffffffffffffffffffffffffffffffffff161415620006fa576040517f08c379a0000000000000000000000000000000000000000000000000000000008152600401620006f19062001171565b60405180910390fd5b6200070e600083836200080060201b60201c565b806002600082825462000722919062001228565b92505081905550806000808473ffffffffffffffffffffffffffffffffffffffff1673ffffffffffffffffffffffffffffffffffffffff168152602001908152602001600020600082825462000779919062001228565b925050819055508173ffffffffffffffffffffffffffffffffffffffff16600073ffffffffffffffffffffffffffffffffffffffff167fddf252ad1be2c89b69c2b068fc378daa952ba7f163c4a11628f55a4df523b3ef83604051620007e0919062001193565b60405180910390a3620007fc60008383620008fb60201b60201c565b5050565b620008188383836200090060201b62003ab61760201c565b600073ffffffffffffffffffffffffffffffffffffffff168373ffffffffffffffffffffffffffffffffffffffff16141562000875576200085f826200090560201b60201c565b6200086f6200096860201b60201c565b620008f6565b600073ffffffffffffffffffffffffffffffffffffffff168273ffffffffffffffffffffffffffffffffffffffff161415620008d257620008bc836200090560201b60201c565b620008cc6200096860201b60201c565b620008f5565b620008e3836200090560201b60201c565b620008f4826200090560201b60201c565b5b5b505050565b505050565b505050565b62000965600560008373ffffffffffffffffffffffffffffffffffffffff1673ffffffffffffffffffffffffffffffffffffffff16815260200190815260200160002062000959836200098c60201b60201c565b62000a3f60201b60201c565b50565b6200098a60066200097e62000acb60201b60201c565b62000a3f60201b60201c565b565b60006009600e0160009054906101000a900460ff161562000a2157600960050160009054906101000a900473ffffffffffffffffffffffffffffffffffffffff1673ffffffffffffffffffffffffffffffffffffffff168273ffffffffffffffffffffffffffffffffffffffff161462000a0857600062000a19565b62000a1862000acb60201b60201c565b5b905062000a3a565b62000a378262000ad560201b62003abb1760201c565b90505b919050565b600062000a5162000b1d60201b60201c565b90508062000a688460000162000b3b60201b60201c565b101562000ac65782600001819080600181540180825580915050600190039060005260206000200160009091909190915055826001018290806001815401808255809150506001900390600052602060002001600090919091909150555b505050565b6000600254905090565b60008060008373ffffffffffffffffffffffffffffffffffffffff1673ffffffffffffffffffffffffffffffffffffffff168152602001908152602001600020549050919050565b600062000b36600862000bb360201b62003b031760201c565b905090565b6000808280549050141562000b54576000905062000bae565b816001838054905062000b68919062001285565b8154811062000ba0577f4e487b7100000000000000000000000000000000000000000000000000000000600052603260045260246000fd5b906000526020600020015490505b919050565b600081600001549050919050565b82805462000bcf9062001340565b90600052602060002090601f01602090048101928262000bf3576000855562000c3f565b82601f1062000c0e57805160ff191683800117855562000c3f565b8280016001018555821562000c3f579182015b8281111562000c3e57825182559160200191906001019062000c21565b5b50905062000c4e919062000c52565b5090565b5b8082111562000c6d57600081600090555060010162000c53565b5090565b600062000c8862000c8284620011e4565b620011b0565b90508281526020810184848401111562000ca157600080fd5b62000cae8482856200130a565b509392505050565b60008151905062000cc78162001403565b92915050565b60008151905062000cde816200141d565b92915050565b600082601f83011262000cf657600080fd5b815162000d0884826020860162000c71565b91505092915050565b6000610100828403121562000d2557600080fd5b62000d32610100620011b0565b9050600062000d448482850162000e1c565b600083015250602062000d5a8482850162000cb6565b602083015250604082015167ffffffffffffffff81111562000d7b57600080fd5b62000d898482850162000ce4565b604083015250606062000d9f8482850162000cb6565b606083015250608062000db58482850162000cb6565b60808301525060a062000dcb8482850162000cb6565b60a08301525060c062000de18482850162000cb6565b60c08301525060e082015167ffffffffffffffff81111562000e0257600080fd5b62000e108482850162000ce4565b60e08301525092915050565b60008151905062000e2d8162001437565b92915050565b60006020828403121562000e4657600080fd5b600082015167ffffffffffffffff81111562000e6157600080fd5b62000e6f8482850162000d11565b91505092915050565b6000806000806000806000806000806101408b8d03121562000e9957600080fd5b600062000ea98d828e0162000e1c565b9a5050602062000ebc8d828e0162000cb6565b995050604062000ecf8d828e0162000cb6565b98505060608b015167ffffffffffffffff81111562000eed57600080fd5b62000efb8d828e0162000ce4565b975050608062000f0e8d828e0162000e1c565b96505060a062000f218d828e0162000e1c565b95505060c062000f348d828e0162000ccd565b94505060e08b015167ffffffffffffffff81111562000f5257600080fd5b62000f608d828e0162000ce4565b9350506101008b015167ffffffffffffffff81111562000f7f57600080fd5b62000f8d8d828e0162000ce4565b9250506101208b015167ffffffffffffffff81111562000fac57600080fd5b62000fba8d828e0162000ce4565b9150509295989b9194979a5092959850565b600062000fdb601d8362001217565b91507f41737365743a20496e76616c6964206f776e65722070726f76696465640000006000830152602082019050919050565b60006200101d601e8362001217565b91507f41737365743a20496e76616c6964206973737565722070726f766964656400006000830152602082019050919050565b60006200105f60268362001217565b91507f41737365743a20496e697469616c20746f6b656e20737570706c792063616e2760008301527f74206265203000000000000000000000000000000000000000000000000000006020830152604082019050919050565b6000620010c7601f8362001217565b91507f45524332303a206d696e7420746f20746865207a65726f2061646472657373006000830152602082019050919050565b620011058162001300565b82525050565b60006020820190508181036000830152620011268162000fcc565b9050919050565b6000602082019050818103600083015262001148816200100e565b9050919050565b600060208201905081810360008301526200116a8162001050565b9050919050565b600060208201905081810360008301526200118c81620010b8565b9050919050565b6000602082019050620011aa6000830184620010fa565b92915050565b6000604051905081810181811067ffffffffffffffff82111715620011da57620011d9620013d4565b5b8060405250919050565b600067ffffffffffffffff821115620012025762001201620013d4565b5b601f19601f8301169050602081019050919050565b600082825260208201905092915050565b6000620012358262001300565b9150620012428362001300565b9250827fffffffffffffffffffffffffffffffffffffffffffffffffffffffffffffffff038211156200127a576200127962001376565b5b828201905092915050565b6000620012928262001300565b91506200129f8362001300565b925082821015620012b557620012b462001376565b5b828203905092915050565b6000620012cd82620012e0565b9050919050565b60008115159050919050565b600073ffffffffffffffffffffffffffffffffffffffff82169050919050565b6000819050919050565b60005b838110156200132a5780820151818401526020810190506200130d565b838111156200133a576000848401525b50505050565b600060028204905060018216806200135957607f821691505b6020821081141562001370576200136f620013a5565b5b50919050565b7f4e487b7100000000000000000000000000000000000000000000000000000000600052601160045260246000fd5b7f4e487b7100000000000000000000000000000000000000000000000000000000600052602260045260246000fd5b7f4e487b7100000000000000000000000000000000000000000000000000000000600052604160045260246000fd5b6200140e81620012c0565b81146200141a57600080fd5b50565b6200142881620012d4565b81146200143457600080fd5b50565b620014428162001300565b81146200144e57600080fd5b50565b6171c280620014616000396000f3fe608060405234801561001057600080fd5b50600436106102065760003560e01c806364621a161161011a578063a0a83f8c116100ad578063b37565061161007c578063b3756506146105f0578063c7d1be001461060e578063ce5c4fd81461063e578063dd62ed3e1461065a578063f0141d841461068a57610206565b8063a0a83f8c14610542578063a457c2d714610572578063a9059cbb146105a2578063a91e9750146105d257610206565b806395d89b41116100e957806395d89b41146104b85780639711715a146104d6578063981b24d0146104f457806398e162551461052457610206565b806364621a161461043457806370a08231146104505780638ca3d4bb14610480578063937f6e771461049c57610206565b806328a070251161019d578063395093511161016c57806339509351146103675780633a98ef391461039757806340722716146103b557806340e688da146103d15780634ee2cd7e1461040457610206565b806328a07025146103075780632af4c31e146103115780632e61a5711461032d578063313ce5671461034957610206565b80630d201245116101d95780630d2012451461027f57806318160ddd1461029b5780631865c57d146102b957806323b872dd146102d757610206565b8063025ed7991461020b57806306fdde0314610227578063095ea7b3146102455780630cee62d714610275575b600080fd5b610225600480360381019061022091906156a8565b6106a8565b005b61022f61081c565b60405161023c919061699e565b60405180910390f35b61025f600480360381019061025a919061566c565b6108ae565b60405161026c9190616983565b60405180910390f35b61027d610c3c565b005b610299600480360381019061029491906156a8565b610ed3565b005b6102a3610fc1565b6040516102b09190616d40565b60405180910390f35b6102c1610fcb565b6040516102ce9190616d1e565b60405180910390f35b6102f160048036038101906102ec919061561d565b61147d565b6040516102fe9190616983565b60405180910390f35b61030f611806565b005b61032b600480360381019061032691906155b8565b611baf565b005b610347600480360381019061034291906155b8565b611cc4565b005b610351611da3565b60405161035e9190616d5b565b60405180910390f35b610381600480360381019061037c919061566c565b611dac565b60405161038e9190616983565b60405180910390f35b61039f61213a565b6040516103ac9190616d40565b60405180910390f35b6103cf60048036038101906103ca91906155b8565b612149565b005b6103eb60048036038101906103e691906155b8565b612356565b6040516103fb94939291906168d8565b60405180910390f35b61041e6004803603810190610419919061566c565b6123a6565b60405161042b9190616d40565b60405180910390f35b61044e600480360381019061044991906155e1565b612416565b005b61046a600480360381019061046591906155b8565b612874565b6040516104779190616d40565b60405180910390f35b61049a600480360381019061049591906155b8565b61290e565b005b6104b660048036038101906104b191906156fa565b6129ed565b005b6104c0612b40565b6040516104cd919061699e565b60405180910390f35b6104de612bd2565b6040516104eb9190616d40565b60405180910390f35b61050e600480360381019061050991906157bd565b612c34565b60405161051b9190616d40565b60405180910390f35b61052c612c65565b604051610539919061691d565b60405180910390f35b61055c600480360381019061055791906155b8565b612d60565b6040516105699190616d40565b60405180910390f35b61058c6004803603810190610587919061566c565b612d78565b6040516105999190616983565b60405180910390f35b6105bc60048036038101906105b7919061566c565b613106565b6040516105c99190616983565b60405180910390f35b6105da613494565b6040516105e7919061693f565b60405180910390f35b6105f8613567565b6040516106059190616961565b60405180910390f35b610628600480360381019061062391906155e1565b613633565b6040516106359190616d40565b60405180910390f35b6106586004803603810190610653919061580f565b613657565b005b610674600480360381019061066f91906155e1565b613a1d565b6040516106819190616d40565b60405180910390f35b610692613aa4565b60405161069f9190616d40565b60405180910390f35b600960080160029054906101000a900473ffffffffffffffffffffffffffffffffffffffff1673ffffffffffffffffffffffffffffffffffffffff16631865c57d6040518163ffffffff1660e01b815260040160006040518083038186803b15801561071357600080fd5b505afa158015610727573d6000803e3d6000fd5b505050506040513d6000823e3d601f19601f82011682018060405250810190610750919061577c565b6080015173ffffffffffffffffffffffffffffffffffffffff163373ffffffffffffffffffffffffffffffffffffffff16146107c1576040517f08c379a00000000000000000000000000000000000000000000000000000000081526004016107b890616a7e565b60405180910390fd5b80600960080160016101000a81548160ff0219169083151502179055507f378762f5fbec582efe534abe7b1b8f7e4e4a4ed6ce28c15fc23e2024ead4fcc333824260405161081193929190616841565b60405180910390a150565b60606003805461082b90617017565b80601f016020809104026020016040519081016040528092919081815260200182805461085790617017565b80156108a45780601f10610879576101008083540402835291602001916108a4565b820191906000526020600020905b81548152906001019060200180831161088757829003601f168201915b5050505050905090565b60006108b8613b11565b600960050160009054906101000a900473ffffffffffffffffffffffffffffffffffffffff1673ffffffffffffffffffffffffffffffffffffffff168173ffffffffffffffffffffffffffffffffffffffff1614806109275750600960080160009054906101000a900460ff16155b80610a075750600960080160009054906101000a900460ff168015610a065750600960080160029054906101000a900473ffffffffffffffffffffffffffffffffffffffff1673ffffffffffffffffffffffffffffffffffffffff16633657e851826040518263ffffffff1660e01b81526004016109a59190616781565b60206040518083038186803b1580156109bd57600080fd5b505afa1580156109d1573d6000803e3d6000fd5b505050506040513d601f19601f820116820180604052508101906109f591906156d1565b80610a055750610a0481613b19565b5b5b5b610a46576040517f08c379a0000000000000000000000000000000000000000000000000000000008152600401610a3d90616c1e565b60405180910390fd5b83600960050160009054906101000a900473ffffffffffffffffffffffffffffffffffffffff1673ffffffffffffffffffffffffffffffffffffffff168173ffffffffffffffffffffffffffffffffffffffff161480610ab65750600960080160009054906101000a900460ff16155b80610b965750600960080160009054906101000a900460ff168015610b955750600960080160029054906101000a900473ffffffffffffffffffffffffffffffffffffffff1673ffffffffffffffffffffffffffffffffffffffff16633657e851826040518263ffffffff1660e01b8152600401610b349190616781565b60206040518083038186803b158015610b4c57600080fd5b505afa158015610b60573d6000803e3d6000fd5b505050506040513d601f19601f82011682018060405250810190610b8491906156d1565b80610b945750610b9381613b19565b5b5b5b610bd5576040517f08c379a0000000000000000000000000000000000000000000000000000000008152600401610bcc90616c1e565b60405180910390fd5b6009600e0160009054906101000a900460ff1615610c28576040517f08c379a0000000000000000000000000000000000000000000000000000000008152600401610c1f90616bbe565b60405180910390fd5b610c328585613cb6565b9250505092915050565b6009600e0160009054906101000a900460ff1615610c8f576040517f08c379a0000000000000000000000000000000000000000000000000000000008152600401610c8690616bbe565b60405180910390fd5b600073ffffffffffffffffffffffffffffffffffffffff16600960060160009054906101000a900473ffffffffffffffffffffffffffffffffffffffff1673ffffffffffffffffffffffffffffffffffffffff161415610d24576040517f08c379a0000000000000000000000000000000000000000000000000000000008152600401610d1b90616c5e565b60405180910390fd5b6000600960060160009054906101000a900473ffffffffffffffffffffffffffffffffffffffff16905060008173ffffffffffffffffffffffffffffffffffffffff1663dd62ed3e33306040518363ffffffff1660e01b8152600401610d8b92919061679c565b60206040518083038186803b158015610da357600080fd5b505afa158015610db7573d6000803e3d6000fd5b505050506040513d601f19601f82011682018060405250810190610ddb91906157e6565b905060008111610e20576040517f08c379a0000000000000000000000000000000000000000000000000000000008152600401610e1790616abe565b60405180910390fd5b610e4d3330838573ffffffffffffffffffffffffffffffffffffffff16613cd4909392919063ffffffff16565b610e573382613106565b503373ffffffffffffffffffffffffffffffffffffffff167f1d3b10f6e623362f9cf16316332efab1dbe272d6a59011e8c200f344d5f9623c600960060160009054906101000a900473ffffffffffffffffffffffffffffffffffffffff168342604051610ec7939291906168a1565b60405180910390a25050565b600960050160009054906101000a900473ffffffffffffffffffffffffffffffffffffffff1673ffffffffffffffffffffffffffffffffffffffff163373ffffffffffffffffffffffffffffffffffffffff1614610f66576040517f08c379a0000000000000000000000000000000000000000000000000000000008152600401610f5d90616c7e565b60405180910390fd5b80600960080160006101000a81548160ff0219169083151502179055507f2f824341849edde519544d4a9e11421845a643b53a544a5e50fbe369cd44da4a338242604051610fb693929190616841565b60405180910390a150565b6000600254905090565b610fd3614f9a565b600960405180610280016040529081600082015481526020016001820160009054906101000a900473ffffffffffffffffffffffffffffffffffffffff1673ffffffffffffffffffffffffffffffffffffffff1673ffffffffffffffffffffffffffffffffffffffff16815260200160028201805461105190617017565b80601f016020809104026020016040519081016040528092919081815260200182805461107d90617017565b80156110ca5780601f1061109f576101008083540402835291602001916110ca565b820191906000526020600020905b8154815290600101906020018083116110ad57829003601f168201915b50505050508152602001600382015481526020016004820160009054906101000a900473ffffffffffffffffffffffffffffffffffffffff1673ffffffffffffffffffffffffffffffffffffffff1673ffffffffffffffffffffffffffffffffffffffff1681526020016005820160009054906101000a900473ffffffffffffffffffffffffffffffffffffffff1673ffffffffffffffffffffffffffffffffffffffff1673ffffffffffffffffffffffffffffffffffffffff1681526020016006820160009054906101000a900473ffffffffffffffffffffffffffffffffffffffff1673ffffffffffffffffffffffffffffffffffffffff1673ffffffffffffffffffffffffffffffffffffffff168152602001600782015481526020016008820160009054906101000a900460ff161515151581526020016008820160019054906101000a900460ff161515151581526020016008820160029054906101000a900473ffffffffffffffffffffffffffffffffffffffff1673ffffffffffffffffffffffffffffffffffffffff1673ffffffffffffffffffffffffffffffffffffffff16815260200160098201805461128590617017565b80601f01602080910402602001604051908101604052809291908181526020018280546112b190617017565b80156112fe5780601f106112d3576101008083540402835291602001916112fe565b820191906000526020600020905b8154815290600101906020018083116112e157829003601f168201915b50505050508152602001600a8201805461131790617017565b80601f016020809104026020016040519081016040528092919081815260200182805461134390617017565b80156113905780601f1061136557610100808354040283529160200191611390565b820191906000526020600020905b81548152906001019060200180831161137357829003601f168201915b50505050508152602001600b820180546113a990617017565b80601f01602080910402602001604051908101604052809291908181526020018280546113d590617017565b80156114225780601f106113f757610100808354040283529160200191611422565b820191906000526020600020905b81548152906001019060200180831161140557829003601f168201915b50505050508152602001600c8201548152602001600d8201548152602001600e820160009054906101000a900460ff16151515158152602001600f820154815260200160108201548152602001601182015481525050905090565b600083600960050160009054906101000a900473ffffffffffffffffffffffffffffffffffffffff1673ffffffffffffffffffffffffffffffffffffffff168173ffffffffffffffffffffffffffffffffffffffff1614806114ef5750600960080160009054906101000a900460ff16155b806115cf5750600960080160009054906101000a900460ff1680156115ce5750600960080160029054906101000a900473ffffffffffffffffffffffffffffffffffffffff1673ffffffffffffffffffffffffffffffffffffffff16633657e851826040518263ffffffff1660e01b815260040161156d9190616781565b60206040518083038186803b15801561158557600080fd5b505afa158015611599573d6000803e3d6000fd5b505050506040513d601f19601f820116820180604052508101906115bd91906156d1565b806115cd57506115cc81613b19565b5b5b5b61160e576040517f08c379a000000000000000000000000000000000000000000000000000000000815260040161160590616c1e565b60405180910390fd5b83600960050160009054906101000a900473ffffffffffffffffffffffffffffffffffffffff1673ffffffffffffffffffffffffffffffffffffffff168173ffffffffffffffffffffffffffffffffffffffff16148061167e5750600960080160009054906101000a900460ff16155b8061175e5750600960080160009054906101000a900460ff16801561175d5750600960080160029054906101000a900473ffffffffffffffffffffffffffffffffffffffff1673ffffffffffffffffffffffffffffffffffffffff16633657e851826040518263ffffffff1660e01b81526004016116fc9190616781565b60206040518083038186803b15801561171457600080fd5b505afa158015611728573d6000803e3d6000fd5b505050506040513d601f19601f8201168201806040525081019061174c91906156d1565b8061175c575061175b81613b19565b5b5b5b61179d576040517f08c379a000000000000000000000000000000000000000000000000000000000815260040161179490616c1e565b60405180910390fd5b6009600e0160009054906101000a900460ff16156117f0576040517f08c379a00000000000000000000000000000000000000000000000000000000081526004016117e790616bbe565b60405180910390fd5b6117fb868686613d5d565b925050509392505050565b6009600e0160009054906101000a900460ff1615611859576040517f08c379a000000000000000000000000000000000000000000000000000000000815260040161185090616bbe565b60405180910390fd5b600960050160009054906101000a900473ffffffffffffffffffffffffffffffffffffffff1673ffffffffffffffffffffffffffffffffffffffff163373ffffffffffffffffffffffffffffffffffffffff16146118ec576040517f08c379a00000000000000000000000000000000000000000000000000000000081526004016118e390616c7e565b60405180910390fd5b600073ffffffffffffffffffffffffffffffffffffffff16600960060160009054906101000a900473ffffffffffffffffffffffffffffffffffffffff1673ffffffffffffffffffffffffffffffffffffffff161415801561197b57506000611979600960060160009054906101000a900473ffffffffffffffffffffffffffffffffffffffff16612874565b115b15611ae8576000600960060160009054906101000a900473ffffffffffffffffffffffffffffffffffffffff16905060008173ffffffffffffffffffffffffffffffffffffffff1663916309806040518163ffffffff1660e01b815260040160206040518083038186803b1580156119f257600080fd5b505afa158015611a06573d6000803e3d6000fd5b505050506040513d601f19601f82011682018060405250810190611a2a91906157e6565b9050611a8533600960060160009054906101000a900473ffffffffffffffffffffffffffffffffffffffff1683611a5f613e55565b73ffffffffffffffffffffffffffffffffffffffff16613cd4909392919063ffffffff16565b8173ffffffffffffffffffffffffffffffffffffffff166328a070256040518163ffffffff1660e01b8152600401600060405180830381600087803b158015611acd57600080fd5b505af1158015611ae1573d6000803e3d6000fd5b5050505050505b60006009600c015490506000811115611b3057611b2f333083611b09613e55565b73ffffffffffffffffffffffffffffffffffffffff16613cd4909392919063ffffffff16565b5b6000611b3a613f08565b905060016009600e0160006101000a81548160ff021916908315150217905550426009600f0181905550806009601001819055507f5b139eba78ea635d9730fabca1ca3904a0984d47bc5a7dd5366083847d0875ef33838342604051611ba394939291906168d8565b60405180910390a15050565b600960050160009054906101000a900473ffffffffffffffffffffffffffffffffffffffff1673ffffffffffffffffffffffffffffffffffffffff163373ffffffffffffffffffffffffffffffffffffffff1614611c42576040517f08c379a0000000000000000000000000000000000000000000000000000000008152600401611c3990616c7e565b60405180910390fd5b80600960050160006101000a81548173ffffffffffffffffffffffffffffffffffffffff021916908373ffffffffffffffffffffffffffffffffffffffff1602179055507fb4fa0c8f1565e6385961540cac5b9884d84157c515100cf972728e8be8dacdd3338242604051611cb99392919061680a565b60405180910390a150565b600960050160009054906101000a900473ffffffffffffffffffffffffffffffffffffffff1673ffffffffffffffffffffffffffffffffffffffff163373ffffffffffffffffffffffffffffffffffffffff1614611d57576040517f08c379a0000000000000000000000000000000000000000000000000000000008152600401611d4e90616c7e565b60405180910390fd5b611d62816001613f5e565b7f5c6ace57e04d50c89abdde343bc20b6dbe48b8ce80684b10a2633f157b637d753382600142604051611d9894939291906167c5565b60405180910390a150565b60006012905090565b6000611db6613b11565b600960050160009054906101000a900473ffffffffffffffffffffffffffffffffffffffff1673ffffffffffffffffffffffffffffffffffffffff168173ffffffffffffffffffffffffffffffffffffffff161480611e255750600960080160009054906101000a900460ff16155b80611f055750600960080160009054906101000a900460ff168015611f045750600960080160029054906101000a900473ffffffffffffffffffffffffffffffffffffffff1673ffffffffffffffffffffffffffffffffffffffff16633657e851826040518263ffffffff1660e01b8152600401611ea39190616781565b60206040518083038186803b158015611ebb57600080fd5b505afa158015611ecf573d6000803e3d6000fd5b505050506040513d601f19601f82011682018060405250810190611ef391906156d1565b80611f035750611f0281613b19565b5b5b5b611f44576040517f08c379a0000000000000000000000000000000000000000000000000000000008152600401611f3b90616c1e565b60405180910390fd5b83600960050160009054906101000a900473ffffffffffffffffffffffffffffffffffffffff1673ffffffffffffffffffffffffffffffffffffffff168173ffffffffffffffffffffffffffffffffffffffff161480611fb45750600960080160009054906101000a900460ff16155b806120945750600960080160009054906101000a900460ff1680156120935750600960080160029054906101000a900473ffffffffffffffffffffffffffffffffffffffff1673ffffffffffffffffffffffffffffffffffffffff16633657e851826040518263ffffffff1660e01b81526004016120329190616781565b60206040518083038186803b15801561204a57600080fd5b505afa15801561205e573d6000803e3d6000fd5b505050506040513d601f19601f8201168201806040525081019061208291906156d1565b80612092575061209181613b19565b5b5b5b6120d3576040517f08c379a00000000000000000000000000000000000000000000000000000000081526004016120ca90616c1e565b60405180910390fd5b6009600e0160009054906101000a900460ff1615612126576040517f08c379a000000000000000000000000000000000000000000000000000000000815260040161211d90616bbe565b60405180910390fd5b6121308585614126565b9250505092915050565b6000612144610fc1565b905090565b600960050160009054906101000a900473ffffffffffffffffffffffffffffffffffffffff1673ffffffffffffffffffffffffffffffffffffffff163373ffffffffffffffffffffffffffffffffffffffff16146121dc576040517f08c379a00000000000000000000000000000000000000000000000000000000081526004016121d390616c7e565b60405180910390fd5b6009600e0160009054906101000a900460ff161561222f576040517f08c379a000000000000000000000000000000000000000000000000000000000815260040161222690616bbe565b60405180910390fd5b600073ffffffffffffffffffffffffffffffffffffffff16600960060160009054906101000a900473ffffffffffffffffffffffffffffffffffffffff1673ffffffffffffffffffffffffffffffffffffffff16146122d457600061229382612874565b146122d3576040517f08c379a00000000000000000000000000000000000000000000000000000000081526004016122ca90616b7e565b60405180910390fd5b5b80600960060160006101000a81548173ffffffffffffffffffffffffffffffffffffffff021916908373ffffffffffffffffffffffffffffffffffffffff1602179055507f213656ffcfc04c7059bb0d97c2558b916fe998397ef28928a4032bfdb9d11cca33824260405161234b9392919061680a565b60405180910390a150565b601f6020528060005260406000206000915090508060000160009054906101000a900473ffffffffffffffffffffffffffffffffffffffff16908060010154908060020154908060030154905084565b60008060006123f384600560008873ffffffffffffffffffffffffffffffffffffffff1673ffffffffffffffffffffffffffffffffffffffff1681526020019081526020016000206141d2565b915091508161240a5761240585612874565b61240c565b805b9250505092915050565b6009600e0160009054906101000a900460ff16612468576040517f08c379a000000000000000000000000000000000000000000000000000000000815260040161245f90616b5e565b60405180910390fd5b6000601f60008473ffffffffffffffffffffffffffffffffffffffff1673ffffffffffffffffffffffffffffffffffffffff1681526020019081526020016000206040518060800160405290816000820160009054906101000a900473ffffffffffffffffffffffffffffffffffffffff1673ffffffffffffffffffffffffffffffffffffffff1673ffffffffffffffffffffffffffffffffffffffff16815260200160018201548152602001600282015481526020016003820154815250509050600073ffffffffffffffffffffffffffffffffffffffff16816000015173ffffffffffffffffffffffffffffffffffffffff16141561259e576040517f08c379a000000000000000000000000000000000000000000000000000000000815260040161259590616b1e565b60405180910390fd5b6000602060008573ffffffffffffffffffffffffffffffffffffffff1673ffffffffffffffffffffffffffffffffffffffff16815260200190815260200160002060008473ffffffffffffffffffffffffffffffffffffffff1673ffffffffffffffffffffffffffffffffffffffff168152602001908152602001600020541461265d576040517f08c379a000000000000000000000000000000000000000000000000000000000815260040161265490616a3e565b60405180910390fd5b60008373ffffffffffffffffffffffffffffffffffffffff166396b98862846040518263ffffffff1660e01b81526004016126989190616781565b60206040518083038186803b1580156126b057600080fd5b505afa1580156126c4573d6000803e3d6000fd5b505050506040513d601f19601f820116820180604052508101906126e891906157e6565b90506126f2613e55565b73ffffffffffffffffffffffffffffffffffffffff1663a9059cbb84836040518363ffffffff1660e01b815260040161272c929190616878565b602060405180830381600087803b15801561274657600080fd5b505af115801561275a573d6000803e3d6000fd5b505050506040513d601f19601f8201168201806040525081019061277e91906156d1565b5080602060008673ffffffffffffffffffffffffffffffffffffffff1673ffffffffffffffffffffffffffffffffffffffff16815260200190815260200160002060008573ffffffffffffffffffffffffffffffffffffffff1673ffffffffffffffffffffffffffffffffffffffff1681526020019081526020016000208190555080600960110160008282546128159190616ec5565b925050819055508273ffffffffffffffffffffffffffffffffffffffff167f22086de203d5e21638e289fcc43e4dc9d59e10fa8cbd5ce829aeadf251a187ac858342604051612866939291906168a1565b60405180910390a250505050565b60006009600e0160009054906101000a900460ff16156128fd57600960050160009054906101000a900473ffffffffffffffffffffffffffffffffffffffff1673ffffffffffffffffffffffffffffffffffffffff168273ffffffffffffffffffffffffffffffffffffffff16146128ed5760006128f6565b6128f5610fc1565b5b9050612909565b61290682613abb565b90505b919050565b600960050160009054906101000a900473ffffffffffffffffffffffffffffffffffffffff1673ffffffffffffffffffffffffffffffffffffffff163373ffffffffffffffffffffffffffffffffffffffff16146129a1576040517f08c379a000000000000000000000000000000000000000000000000000000000815260040161299890616c7e565b60405180910390fd5b6129ac816000613f5e565b7f5c6ace57e04d50c89abdde343bc20b6dbe48b8ce80684b10a2633f157b637d7533826000426040516129e294939291906167c5565b60405180910390a150565b600960050160009054906101000a900473ffffffffffffffffffffffffffffffffffffffff1673ffffffffffffffffffffffffffffffffffffffff163373ffffffffffffffffffffffffffffffffffffffff1614612a80576040517f08c379a0000000000000000000000000000000000000000000000000000000008152600401612a7790616c7e565b60405180910390fd5b601b60405180604001604052808381526020014281525090806001815401808255809150506001900390600052602060002090600202016000909190919091506000820151816000019080519060200190612adc9291906150a7565b5060208201518160010155505080600980019080519060200190612b019291906150a7565b507f39b28594242c42fce47a0a6e63bac12adbd07fbb35580f5a54b236858101d58a813342604051612b35939291906169c0565b60405180910390a150565b606060048054612b4f90617017565b80601f0160208091040260200160405190810160405280929190818152602001828054612b7b90617017565b8015612bc85780601f10612b9d57610100808354040283529160200191612bc8565b820191906000526020600020905b815481529060010190602001808311612bab57829003601f168201915b5050505050905090565b60006009600e0160009054906101000a900460ff1615612c27576040517f08c379a0000000000000000000000000000000000000000000000000000000008152600401612c1e90616bbe565b60405180910390fd5b612c2f613f08565b905090565b6000806000612c448460066141d2565b9150915081612c5a57612c55610fc1565b612c5c565b805b92505050919050565b6060601b805480602002602001604051908101604052809291908181526020016000905b82821015612d575783829060005260206000209060020201604051806040016040529081600082018054612cbc90617017565b80601f0160208091040260200160405190810160405280929190818152602001828054612ce890617017565b8015612d355780601f10612d0a57610100808354040283529160200191612d35565b820191906000526020600020905b815481529060010190602001808311612d1857829003601f168201915b5050505050815260200160018201548152505081526020019060010190612c89565b50505050905090565b601e6020528060005260406000206000915090505481565b6000612d82613b11565b600960050160009054906101000a900473ffffffffffffffffffffffffffffffffffffffff1673ffffffffffffffffffffffffffffffffffffffff168173ffffffffffffffffffffffffffffffffffffffff161480612df15750600960080160009054906101000a900460ff16155b80612ed15750600960080160009054906101000a900460ff168015612ed05750600960080160029054906101000a900473ffffffffffffffffffffffffffffffffffffffff1673ffffffffffffffffffffffffffffffffffffffff16633657e851826040518263ffffffff1660e01b8152600401612e6f9190616781565b60206040518083038186803b158015612e8757600080fd5b505afa158015612e9b573d6000803e3d6000fd5b505050506040513d601f19601f82011682018060405250810190612ebf91906156d1565b80612ecf5750612ece81613b19565b5b5b5b612f10576040517f08c379a0000000000000000000000000000000000000000000000000000000008152600401612f0790616c1e565b60405180910390fd5b83600960050160009054906101000a900473ffffffffffffffffffffffffffffffffffffffff1673ffffffffffffffffffffffffffffffffffffffff168173ffffffffffffffffffffffffffffffffffffffff161480612f805750600960080160009054906101000a900460ff16155b806130605750600960080160009054906101000a900460ff16801561305f5750600960080160029054906101000a900473ffffffffffffffffffffffffffffffffffffffff1673ffffffffffffffffffffffffffffffffffffffff16633657e851826040518263ffffffff1660e01b8152600401612ffe9190616781565b60206040518083038186803b15801561301657600080fd5b505afa15801561302a573d6000803e3d6000fd5b505050506040513d601f19601f8201168201806040525081019061304e91906156d1565b8061305e575061305d81613b19565b5b5b5b61309f576040517f08c379a000000000000000000000000000000000000000000000000000000000815260040161309690616c1e565b60405180910390fd5b6009600e0160009054906101000a900460ff16156130f2576040517f08c379a00000000000000000000000000000000000000000000000000000000081526004016130e990616bbe565b60405180910390fd5b6130fc85856142ee565b9250505092915050565b6000613110613b11565b600960050160009054906101000a900473ffffffffffffffffffffffffffffffffffffffff1673ffffffffffffffffffffffffffffffffffffffff168173ffffffffffffffffffffffffffffffffffffffff16148061317f5750600960080160009054906101000a900460ff16155b8061325f5750600960080160009054906101000a900460ff16801561325e5750600960080160029054906101000a900473ffffffffffffffffffffffffffffffffffffffff1673ffffffffffffffffffffffffffffffffffffffff16633657e851826040518263ffffffff1660e01b81526004016131fd9190616781565b60206040518083038186803b15801561321557600080fd5b505afa158015613229573d6000803e3d6000fd5b505050506040513d601f19601f8201168201806040525081019061324d91906156d1565b8061325d575061325c81613b19565b5b5b5b61329e576040517f08c379a000000000000000000000000000000000000000000000000000000000815260040161329590616c1e565b60405180910390fd5b83600960050160009054906101000a900473ffffffffffffffffffffffffffffffffffffffff1673ffffffffffffffffffffffffffffffffffffffff168173ffffffffffffffffffffffffffffffffffffffff16148061330e5750600960080160009054906101000a900460ff16155b806133ee5750600960080160009054906101000a900460ff1680156133ed5750600960080160029054906101000a900473ffffffffffffffffffffffffffffffffffffffff1673ffffffffffffffffffffffffffffffffffffffff16633657e851826040518263ffffffff1660e01b815260040161338c9190616781565b60206040518083038186803b1580156133a457600080fd5b505afa1580156133b8573d6000803e3d6000fd5b505050506040513d601f19601f820116820180604052508101906133dc91906156d1565b806133ec57506133eb81613b19565b5b5b5b61342d576040517f08c379a000000000000000000000000000000000000000000000000000000000815260040161342490616c1e565b60405180910390fd5b6009600e0160009054906101000a900460ff1615613480576040517f08c379a000000000000000000000000000000000000000000000000000000000815260040161347790616bbe565b60405180910390fd5b61348a85856143d9565b9250505092915050565b6060601d805480602002602001604051908101604052809291908181526020016000905b8282101561355e57838290600052602060002090600402016040518060800160405290816000820160009054906101000a900473ffffffffffffffffffffffffffffffffffffffff1673ffffffffffffffffffffffffffffffffffffffff1673ffffffffffffffffffffffffffffffffffffffff1681526020016001820154815260200160028201548152602001600382015481525050815260200190600101906134b8565b50505050905090565b6060601c805480602002602001604051908101604052809291908181526020016000905b8282101561362a578382906000526020600020016040518060400160405290816000820160009054906101000a900473ffffffffffffffffffffffffffffffffffffffff1673ffffffffffffffffffffffffffffffffffffffff1673ffffffffffffffffffffffffffffffffffffffff1681526020016000820160149054906101000a900460ff1615151515815250508152602001906001019061358b565b50505050905090565b60208052816000526040600020602052806000526040600020600091509150505481565b6009600e0160009054906101000a900460ff16156136aa576040517f08c379a00000000000000000000000000000000000000000000000000000000081526004016136a190616bbe565b60405180910390fd5b60003390506136b881613b19565b6136f7576040517f08c379a00000000000000000000000000000000000000000000000000000000081526004016136ee90616afe565b60405180910390fd5b60008311801561370f57508261370c82612874565b10155b61374e576040517f08c379a000000000000000000000000000000000000000000000000000000000815260040161374590616b3e565b60405180910390fd5b6000821180156137ed575081613762613e55565b73ffffffffffffffffffffffffffffffffffffffff166370a08231836040518263ffffffff1660e01b815260040161379a9190616781565b60206040518083038186803b1580156137b257600080fd5b505afa1580156137c6573d6000803e3d6000fd5b505050506040513d601f19601f820116820180604052508101906137ea91906157e6565b10155b61382c576040517f08c379a000000000000000000000000000000000000000000000000000000000815260040161382390616cbe565b60405180910390fd5b816009600c0160008282546138419190616ec5565b92505081905550826009600d01600082825461385d9190616ec5565b92505081905550600060405180608001604052808373ffffffffffffffffffffffffffffffffffffffff168152602001858152602001848152602001428152509050601d81908060018154018082558091505060019003906000526020600020906004020160009091909190915060008201518160000160006101000a81548173ffffffffffffffffffffffffffffffffffffffff021916908373ffffffffffffffffffffffffffffffffffffffff160217905550602082015181600101556040820151816002015560608201518160030155505080601f60008473ffffffffffffffffffffffffffffffffffffffff1673ffffffffffffffffffffffffffffffffffffffff16815260200190815260200160002060008201518160000160006101000a81548173ffffffffffffffffffffffffffffffffffffffff021916908373ffffffffffffffffffffffffffffffffffffffff1602179055506020820151816001015560408201518160020155606082015181600301559050507fcbf0fbac05ba7258619b5b6f20bf2b567ce1a76f2f8f0a58f9e7fb3e90958c4833858542604051613a0f94939291906168d8565b60405180910390a150505050565b6000600160008473ffffffffffffffffffffffffffffffffffffffff1673ffffffffffffffffffffffffffffffffffffffff16815260200190815260200160002060008373ffffffffffffffffffffffffffffffffffffffff1673ffffffffffffffffffffffffffffffffffffffff16815260200190815260200160002054905092915050565b6000613aae611da3565b60ff16905090565b505050565b60008060008373ffffffffffffffffffffffffffffffffffffffff1673ffffffffffffffffffffffffffffffffffffffff168152602001908152602001600020549050919050565b600081600001549050919050565b600033905090565b6000600960050160009054906101000a900473ffffffffffffffffffffffffffffffffffffffff1673ffffffffffffffffffffffffffffffffffffffff168273ffffffffffffffffffffffffffffffffffffffff16631865c57d6040518163ffffffff1660e01b815260040160006040518083038186803b158015613b9d57600080fd5b505afa158015613bb1573d6000803e3d6000fd5b505050506040513d6000823e3d601f19601f82011682018060405250810190613bda919061573b565b60a0015173ffffffffffffffffffffffffffffffffffffffff161415613c035760019050613cb1565b613c0c826143f7565b15613cac57601c601e60008473ffffffffffffffffffffffffffffffffffffffff1673ffffffffffffffffffffffffffffffffffffffff1681526020019081526020016000205481548110613c8a577f4e487b7100000000000000000000000000000000000000000000000000000000600052603260045260246000fd5b9060005260206000200160000160149054906101000a900460ff169050613cb1565b600090505b919050565b6000613cca613cc3613b11565b8484614519565b6001905092915050565b613d57846323b872dd60e01b858585604051602401613cf59392919061680a565b604051602081830303815290604052907bffffffffffffffffffffffffffffffffffffffffffffffffffffffff19166020820180517bffffffffffffffffffffffffffffffffffffffffffffffffffffffff83818316178352505050506146e4565b50505050565b6000613d6a8484846147ab565b6000600160008673ffffffffffffffffffffffffffffffffffffffff1673ffffffffffffffffffffffffffffffffffffffff1681526020019081526020016000206000613db5613b11565b73ffffffffffffffffffffffffffffffffffffffff1673ffffffffffffffffffffffffffffffffffffffff16815260200190815260200160002054905082811015613e35576040517f08c379a0000000000000000000000000000000000000000000000000000000008152600401613e2c90616b9e565b60405180910390fd5b613e4985613e41613b11565b858403614519565b60019150509392505050565b6000600960080160029054906101000a900473ffffffffffffffffffffffffffffffffffffffff1673ffffffffffffffffffffffffffffffffffffffff16631865c57d6040518163ffffffff1660e01b815260040160006040518083038186803b158015613ec257600080fd5b505afa158015613ed6573d6000803e3d6000fd5b505050506040513d6000823e3d601f19601f82011682018060405250810190613eff919061577c565b60a00151905090565b6000613f146008614a2c565b6000613f1e614a42565b90507f8030e83b04d87bef53480e26263266d6ca66863aa8506aca6f2559d18aa1cb6781604051613f4f9190616d40565b60405180910390a18091505090565b613f67826143f7565b1561400f5780601c601e60008573ffffffffffffffffffffffffffffffffffffffff1673ffffffffffffffffffffffffffffffffffffffff1681526020019081526020016000205481548110613fe6577f4e487b7100000000000000000000000000000000000000000000000000000000600052603260045260246000fd5b9060005260206000200160000160146101000a81548160ff021916908315150217905550614122565b601c60405180604001604052808473ffffffffffffffffffffffffffffffffffffffff1681526020018315158152509080600181540180825580915050600190039060005260206000200160009091909190915060008201518160000160006101000a81548173ffffffffffffffffffffffffffffffffffffffff021916908373ffffffffffffffffffffffffffffffffffffffff16021790555060208201518160000160146101000a81548160ff02191690831515021790555050506001601c805490506140de9190616f4c565b601e60008473ffffffffffffffffffffffffffffffffffffffff1673ffffffffffffffffffffffffffffffffffffffff168152602001908152602001600020819055505b5050565b60006141c8614133613b11565b848460016000614141613b11565b73ffffffffffffffffffffffffffffffffffffffff1673ffffffffffffffffffffffffffffffffffffffff16815260200190815260200160002060008873ffffffffffffffffffffffffffffffffffffffff1673ffffffffffffffffffffffffffffffffffffffff168152602001908152602001600020546141c39190616ec5565b614519565b6001905092915050565b60008060008411614218576040517f08c379a000000000000000000000000000000000000000000000000000000000815260040161420f90616c9e565b60405180910390fd5b614220614a42565b841115614262576040517f08c379a0000000000000000000000000000000000000000000000000000000008152600401614259906169fe565b60405180910390fd5b600061427a8585600001614a5390919063ffffffff16565b905083600001805490508114156142985760008092509250506142e7565b60018460010182815481106142d6577f4e487b7100000000000000000000000000000000000000000000000000000000600052603260045260246000fd5b906000526020600020015492509250505b9250929050565b600080600160006142fd613b11565b73ffffffffffffffffffffffffffffffffffffffff1673ffffffffffffffffffffffffffffffffffffffff16815260200190815260200160002060008573ffffffffffffffffffffffffffffffffffffffff1673ffffffffffffffffffffffffffffffffffffffff168152602001908152602001600020549050828110156143ba576040517f08c379a00000000000000000000000000000000000000000000000000000000081526004016143b190616cfe565b60405180910390fd5b6143ce6143c5613b11565b85858403614519565b600191505092915050565b60006143ed6143e6613b11565b84846147ab565b6001905092915050565b600080601e60008473ffffffffffffffffffffffffffffffffffffffff1673ffffffffffffffffffffffffffffffffffffffff1681526020019081526020016000205490506000601c805490501415614454576000915050614514565b601c80549050811061446a576000915050614514565b8273ffffffffffffffffffffffffffffffffffffffff16601c82815481106144bb577f4e487b7100000000000000000000000000000000000000000000000000000000600052603260045260246000fd5b9060005260206000200160000160009054906101000a900473ffffffffffffffffffffffffffffffffffffffff1673ffffffffffffffffffffffffffffffffffffffff161461450e576000915050614514565b60019150505b919050565b600073ffffffffffffffffffffffffffffffffffffffff168373ffffffffffffffffffffffffffffffffffffffff161415614589576040517f08c379a000000000000000000000000000000000000000000000000000000000815260040161458090616bfe565b60405180910390fd5b600073ffffffffffffffffffffffffffffffffffffffff168273ffffffffffffffffffffffffffffffffffffffff1614156145f9576040517f08c379a00000000000000000000000000000000000000000000000000000000081526004016145f090616a5e565b60405180910390fd5b80600160008573ffffffffffffffffffffffffffffffffffffffff1673ffffffffffffffffffffffffffffffffffffffff16815260200190815260200160002060008473ffffffffffffffffffffffffffffffffffffffff1673ffffffffffffffffffffffffffffffffffffffff168152602001908152602001600020819055508173ffffffffffffffffffffffffffffffffffffffff168373ffffffffffffffffffffffffffffffffffffffff167f8c5be1e5ebec7d5bd14f71427d1e84f3dd0314c0f7b2291e5b200ac8c7c3b925836040516146d79190616d40565b60405180910390a3505050565b6000614746826040518060400160405280602081526020017f5361666545524332303a206c6f772d6c6576656c2063616c6c206661696c65648152508573ffffffffffffffffffffffffffffffffffffffff16614b799092919063ffffffff16565b90506000815111156147a6578080602001905181019061476691906156d1565b6147a5576040517f08c379a000000000000000000000000000000000000000000000000000000000815260040161479c90616cde565b60405180910390fd5b5b505050565b600073ffffffffffffffffffffffffffffffffffffffff168373ffffffffffffffffffffffffffffffffffffffff16141561481b576040517f08c379a000000000000000000000000000000000000000000000000000000000815260040161481290616bde565b60405180910390fd5b600073ffffffffffffffffffffffffffffffffffffffff168273ffffffffffffffffffffffffffffffffffffffff16141561488b576040517f08c379a000000000000000000000000000000000000000000000000000000000815260040161488290616a1e565b60405180910390fd5b614896838383614b91565b60008060008573ffffffffffffffffffffffffffffffffffffffff1673ffffffffffffffffffffffffffffffffffffffff1681526020019081526020016000205490508181101561491c576040517f08c379a000000000000000000000000000000000000000000000000000000000815260040161491390616a9e565b60405180910390fd5b8181036000808673ffffffffffffffffffffffffffffffffffffffff1673ffffffffffffffffffffffffffffffffffffffff16815260200190815260200160002081905550816000808573ffffffffffffffffffffffffffffffffffffffff1673ffffffffffffffffffffffffffffffffffffffff16815260200190815260200160002060008282546149af9190616ec5565b925050819055508273ffffffffffffffffffffffffffffffffffffffff168473ffffffffffffffffffffffffffffffffffffffff167fddf252ad1be2c89b69c2b068fc378daa952ba7f163c4a11628f55a4df523b3ef84604051614a139190616d40565b60405180910390a3614a26848484614c4b565b50505050565b6001816000016000828254019250508190555050565b6000614a4e6008613b03565b905090565b60008083805490501415614a6a5760009050614b73565b600080848054905090505b80821015614af4576000614a898383614c50565b905084868281548110614ac5577f4e487b7100000000000000000000000000000000000000000000000000000000600052603260045260246000fd5b90600052602060002001541115614ade57809150614aee565b600181614aeb9190616ec5565b92505b50614a75565b600082118015614b5257508385600184614b0e9190616f4c565b81548110614b45577f4e487b7100000000000000000000000000000000000000000000000000000000600052603260045260246000fd5b9060005260206000200154145b15614b6d57600182614b649190616f4c565b92505050614b73565b81925050505b92915050565b6060614b888484600085614cb7565b90509392505050565b614b9c838383613ab6565b600073ffffffffffffffffffffffffffffffffffffffff168373ffffffffffffffffffffffffffffffffffffffff161415614be757614bda82614dcb565b614be2614e1e565b614c46565b600073ffffffffffffffffffffffffffffffffffffffff168273ffffffffffffffffffffffffffffffffffffffff161415614c3257614c2583614dcb565b614c2d614e1e565b614c45565b614c3b83614dcb565b614c4482614dcb565b5b5b505050565b505050565b600060028083614c609190617049565b600285614c6d9190617049565b614c779190616ec5565b614c819190616f1b565b600283614c8e9190616f1b565b600285614c9b9190616f1b565b614ca59190616ec5565b614caf9190616ec5565b905092915050565b606082471015614cfc576040517f08c379a0000000000000000000000000000000000000000000000000000000008152600401614cf390616ade565b60405180910390fd5b614d0585614e32565b614d44576040517f08c379a0000000000000000000000000000000000000000000000000000000008152600401614d3b90616c3e565b60405180910390fd5b6000808673ffffffffffffffffffffffffffffffffffffffff168587604051614d6d919061676a565b60006040518083038185875af1925050503d8060008114614daa576040519150601f19603f3d011682016040523d82523d6000602084013e614daf565b606091505b5091509150614dbf828286614e45565b92505050949350505050565b614e1b600560008373ffffffffffffffffffffffffffffffffffffffff1673ffffffffffffffffffffffffffffffffffffffff168152602001908152602001600020614e1683612874565b614eac565b50565b614e306006614e2b610fc1565b614eac565b565b600080823b905060008111915050919050565b60608315614e5557829050614ea5565b600083511115614e685782518084602001fd5b816040517f08c379a0000000000000000000000000000000000000000000000000000000008152600401614e9c919061699e565b60405180910390fd5b9392505050565b6000614eb6614a42565b905080614ec584600001614f27565b1015614f225782600001819080600181540180825580915050600190039060005260206000200160009091909190915055826001018290806001815401808255809150506001900390600052602060002001600090919091909150555b505050565b60008082805490501415614f3e5760009050614f95565b8160018380549050614f509190616f4c565b81548110614f87577f4e487b7100000000000000000000000000000000000000000000000000000000600052603260045260246000fd5b906000526020600020015490505b919050565b60405180610280016040528060008152602001600073ffffffffffffffffffffffffffffffffffffffff1681526020016060815260200160008152602001600073ffffffffffffffffffffffffffffffffffffffff168152602001600073ffffffffffffffffffffffffffffffffffffffff168152602001600073ffffffffffffffffffffffffffffffffffffffff16815260200160008152602001600015158152602001600015158152602001600073ffffffffffffffffffffffffffffffffffffffff16815260200160608152602001606081526020016060815260200160008152602001600081526020016000151581526020016000815260200160008152602001600081525090565b8280546150b390617017565b90600052602060002090601f0160209004810192826150d5576000855561511c565b82601f106150ee57805160ff191683800117855561511c565b8280016001018555821561511c579182015b8281111561511b578251825591602001919060010190615100565b5b509050615129919061512d565b5090565b5b8082111561514657600081600090555060010161512e565b5090565b600061515d61515884616da7565b616d76565b90508281526020810184848401111561517557600080fd5b615180848285616fd5565b509392505050565b600061519b61519684616da7565b616d76565b9050828152602081018484840111156151b357600080fd5b6151be848285616fe4565b509392505050565b6000813590506151d581617147565b92915050565b6000815190506151ea81617147565b92915050565b6000813590506151ff8161715e565b92915050565b6000815190506152148161715e565b92915050565b600082601f83011261522b57600080fd5b813561523b84826020860161514a565b91505092915050565b600082601f83011261525557600080fd5b8151615265848260208601615188565b91505092915050565b60006102c0828403121561528157600080fd5b61528c6102c0616d76565b9050600061529c848285016155a3565b60008301525060206152b0848285016151db565b602083015250604082015167ffffffffffffffff8111156152d057600080fd5b6152dc84828501615244565b60408301525060606152f0848285016155a3565b6060830152506080615304848285016151db565b60808301525060a0615318848285016151db565b60a08301525060c061532c848285016151db565b60c08301525060e0615340848285016151db565b60e083015250610100615355848285016155a3565b6101008301525061012061536b848285016155a3565b61012083015250610140615381848285016155a3565b61014083015250610160615397848285016155a3565b610160830152506101806153ad84828501615205565b610180830152506101a06153c384828501615205565b6101a0830152506101c06153d984828501615205565b6101c0830152506101e06153ef848285016155a3565b6101e083015250610200615405848285016155a3565b6102008301525061022061541b848285016155a3565b61022083015250610240615431848285016155a3565b61024083015250610260615447848285016155a3565b6102608301525061028061545d848285016155a3565b610280830152506102a082015167ffffffffffffffff81111561547f57600080fd5b61548b84828501615244565b6102a08301525092915050565b600061010082840312156154ab57600080fd5b6154b6610100616d76565b905060006154c6848285016155a3565b60008301525060206154da848285016151db565b602083015250604082015167ffffffffffffffff8111156154fa57600080fd5b61550684828501615244565b604083015250606061551a848285016151db565b606083015250608061552e848285016151db565b60808301525060a0615542848285016151db565b60a08301525060c0615556848285016151db565b60c08301525060e082015167ffffffffffffffff81111561557657600080fd5b61558284828501615244565b60e08301525092915050565b60008135905061559d81617175565b92915050565b6000815190506155b281617175565b92915050565b6000602082840312156155ca57600080fd5b60006155d8848285016151c6565b91505092915050565b600080604083850312156155f457600080fd5b6000615602858286016151c6565b9250506020615613858286016151c6565b9150509250929050565b60008060006060848603121561563257600080fd5b6000615640868287016151c6565b9350506020615651868287016151c6565b92505060406156628682870161558e565b9150509250925092565b6000806040838503121561567f57600080fd5b600061568d858286016151c6565b925050602061569e8582860161558e565b9150509250929050565b6000602082840312156156ba57600080fd5b60006156c8848285016151f0565b91505092915050565b6000602082840312156156e357600080fd5b60006156f184828501615205565b91505092915050565b60006020828403121561570c57600080fd5b600082013567ffffffffffffffff81111561572657600080fd5b6157328482850161521a565b91505092915050565b60006020828403121561574d57600080fd5b600082015167ffffffffffffffff81111561576757600080fd5b6157738482850161526e565b91505092915050565b60006020828403121561578e57600080fd5b600082015167ffffffffffffffff8111156157a857600080fd5b6157b484828501615498565b91505092915050565b6000602082840312156157cf57600080fd5b60006157dd8482850161558e565b91505092915050565b6000602082840312156157f857600080fd5b6000615806848285016155a3565b91505092915050565b6000806040838503121561582257600080fd5b60006158308582860161558e565b92505060206158418582860161558e565b9150509250929050565b6000615857838361667c565b905092915050565b600061586b83836166b9565b60808301905092915050565b6000615883838361670e565b60408301905092915050565b61589881616f80565b82525050565b6158a781616f80565b82525050565b60006158b882616e07565b6158c28185616e65565b9350836020820285016158d485616dd7565b8060005b8581101561591057848403895281516158f1858261584b565b94506158fc83616e3e565b925060208a019950506001810190506158d8565b50829750879550505050505092915050565b600061592d82616e12565b6159378185616e76565b935061594283616de7565b8060005b8381101561597357815161595a888261585f565b975061596583616e4b565b925050600181019050615946565b5085935050505092915050565b600061598b82616e1d565b6159958185616e87565b93506159a083616df7565b8060005b838110156159d15781516159b88882615877565b97506159c383616e58565b9250506001810190506159a4565b5085935050505092915050565b6159e781616f92565b82525050565b6159f681616f92565b82525050565b6000615a0782616e28565b615a118185616e98565b9350615a21818560208601616fe4565b80840191505092915050565b6000615a3882616e33565b615a428185616ea3565b9350615a52818560208601616fe4565b615a5b81617136565b840191505092915050565b6000615a7182616e33565b615a7b8185616eb4565b9350615a8b818560208601616fe4565b615a9481617136565b840191505092915050565b6000615aac601d83616eb4565b91507f4552433230536e617073686f743a206e6f6e6578697374656e742069640000006000830152602082019050919050565b6000615aec602383616eb4565b91507f45524332303a207472616e7366657220746f20746865207a65726f206164647260008301527f65737300000000000000000000000000000000000000000000000000000000006020830152604082019050919050565b6000615b52603783616eb4565b91507f41737365743a20696e766573746f722068617320616c726561647920636c616960008301527f6d656420666f7220676976656e2063616d706169676e2e0000000000000000006020830152604082019050919050565b6000615bb8602283616eb4565b91507f45524332303a20617070726f766520746f20746865207a65726f20616464726560008301527f73730000000000000000000000000000000000000000000000000000000000006020830152604082019050919050565b6000615c1e602e83616eb4565b91507f41737365743a204f6e6c7920697373756572206f776e65722063616e206d616b60008301527f65207468697320616374696f6e2e0000000000000000000000000000000000006020830152604082019050919050565b6000615c84602683616eb4565b91507f45524332303a207472616e7366657220616d6f756e742065786365656473206260008301527f616c616e636500000000000000000000000000000000000000000000000000006020830152604082019050919050565b6000615cea603b83616eb4565b91507f41737365743a2063616e277420636f6e766572742066726f6d206d6972726f7260008301527f656420746f6b656e3b204d697373696e6720617070726f76616c2e00000000006020830152604082019050919050565b6000615d50602683616eb4565b91507f416464726573733a20696e73756666696369656e742062616c616e636520666f60008301527f722063616c6c00000000000000000000000000000000000000000000000000006020830152604082019050919050565b6000615db6601d83616eb4565b91507f41737365743a2043616d706169676e206e6f7420617070726f7665642e0000006000830152602082019050919050565b6000615df6604583616eb4565b91507f41737365743a20696e76616c69642063616d706169676e20616464726573732060008301527f70726f766964656420666f7220636c61696d206c69717569646174696f6e207360208301527f686172652e0000000000000000000000000000000000000000000000000000006040830152606082019050919050565b6000615e82605783616eb4565b91507f41737365743a2043616d706169676e20686173207369676e616c6c656420746860008301527f652073616c652066696e616c697a6174696f6e206275742063616d706169676e60208301527f20746f6b656e7320617265206e6f742070726573656e740000000000000000006040830152606082019050919050565b6000615f0e601583616eb4565b91507f41737365743a206e6f74206c69717569646174656400000000000000000000006000830152602082019050919050565b6000615f4e605883616eb4565b91507f41737365743a2063616e277420757064617465206d6972726f72656420746f6b60008301527f656e3b20746865206578697374696e67206f6e65206973207374696c6c20616360208301527f7469766520616e6420696e2063697263756c6174696f6e2e00000000000000006040830152606082019050919050565b6000615fda602883616eb4565b91507f45524332303a207472616e7366657220616d6f756e742065786365656473206160008301527f6c6c6f77616e63650000000000000000000000000000000000000000000000006020830152604082019050919050565b6000616040602a83616eb4565b91507f41737365743a20416374696f6e20666f7262696464656e2c206173736574206c60008301527f6971756964617465642e000000000000000000000000000000000000000000006020830152604082019050919050565b60006160a6602583616eb4565b91507f45524332303a207472616e736665722066726f6d20746865207a65726f20616460008301527f64726573730000000000000000000000000000000000000000000000000000006020830152604082019050919050565b600061610c602483616eb4565b91507f45524332303a20617070726f76652066726f6d20746865207a65726f2061646460008301527f72657373000000000000000000000000000000000000000000000000000000006020830152604082019050919050565b6000616172604483616eb4565b91507f41737365743a20546869732066756e6374696f6e616c697479206973206e6f7460008301527f20616c6c6f7765642e2057616c6c6574206973206e6f742077686974656c697360208301527f7465642e000000000000000000000000000000000000000000000000000000006040830152606082019050919050565b60006161fe601d83616eb4565b91507f416464726573733a2063616c6c20746f206e6f6e2d636f6e74726163740000006000830152602082019050919050565b600061623e604f83616eb4565b91507f41737365743a2063616e277420636f6e766572742066726f6d206d6972726f7260008301527f656420746f6b656e3b204d6972726f72656420746f6b656e20776173206e657660208301527f657220696e697469616c697a65642e00000000000000000000000000000000006040830152606082019050919050565b60006162ca602f83616eb4565b91507f41737365743a204f6e6c792061737365742063726561746f722063616e206d6160008301527f6b65207468697320616374696f6e2e00000000000000000000000000000000006020830152604082019050919050565b6000616330601683616eb4565b91507f4552433230536e617073686f743a2069642069732030000000000000000000006000830152602082019050919050565b6000616370605483616eb4565b91507f41737365743a2043616d706169676e20686173207369676e616c6c656420746860008301527f652073616c652066696e616c697a6174696f6e2062757420726169736564206660208301527f756e647320617265206e6f742070726573656e740000000000000000000000006040830152606082019050919050565b60006163fc602a83616eb4565b91507f5361666545524332303a204552433230206f7065726174696f6e20646964206e60008301527f6f742073756363656564000000000000000000000000000000000000000000006020830152604082019050919050565b6000616462602583616eb4565b91507f45524332303a2064656372656173656420616c6c6f77616e63652062656c6f7760008301527f207a65726f0000000000000000000000000000000000000000000000000000006020830152604082019050919050565b6000610280830160008301516164d4600086018261673d565b5060208301516164e7602086018261588f565b50604083015184820360408601526164ff8282615a2d565b9150506060830151616514606086018261673d565b506080830151616527608086018261588f565b5060a083015161653a60a086018261588f565b5060c083015161654d60c086018261588f565b5060e083015161656060e086018261673d565b506101008301516165756101008601826159de565b5061012083015161658a6101208601826159de565b5061014083015161659f61014086018261588f565b506101608301518482036101608601526165b98282615a2d565b9150506101808301518482036101808601526165d58282615a2d565b9150506101a08301518482036101a08601526165f18282615a2d565b9150506101c08301516166086101c086018261673d565b506101e083015161661d6101e086018261673d565b506102008301516166326102008601826159de565b5061022083015161664761022086018261673d565b5061024083015161665c61024086018261673d565b5061026083015161667161026086018261673d565b508091505092915050565b600060408301600083015184820360008601526166998282615a2d565b91505060208301516166ae602086018261673d565b508091505092915050565b6080820160008201516166cf600085018261588f565b5060208201516166e2602085018261673d565b5060408201516166f5604085018261673d565b506060820151616708606085018261673d565b50505050565b604082016000820151616724600085018261588f565b50602082015161673760208501826159de565b50505050565b61674681616fbe565b82525050565b61675581616fbe565b82525050565b61676481616fc8565b82525050565b600061677682846159fc565b915081905092915050565b6000602082019050616796600083018461589e565b92915050565b60006040820190506167b1600083018561589e565b6167be602083018461589e565b9392505050565b60006080820190506167da600083018761589e565b6167e7602083018661589e565b6167f460408301856159ed565b616801606083018461674c565b95945050505050565b600060608201905061681f600083018661589e565b61682c602083018561589e565b616839604083018461674c565b949350505050565b6000606082019050616856600083018661589e565b61686360208301856159ed565b616870604083018461674c565b949350505050565b600060408201905061688d600083018561589e565b61689a602083018461674c565b9392505050565b60006060820190506168b6600083018661589e565b6168c3602083018561674c565b6168d0604083018461674c565b949350505050565b60006080820190506168ed600083018761589e565b6168fa602083018661674c565b616907604083018561674c565b616914606083018461674c565b95945050505050565b6000602082019050818103600083015261693781846158ad565b905092915050565b600060208201905081810360008301526169598184615922565b905092915050565b6000602082019050818103600083015261697b8184615980565b905092915050565b600060208201905061699860008301846159ed565b92915050565b600060208201905081810360008301526169b88184615a66565b905092915050565b600060608201905081810360008301526169da8186615a66565b90506169e9602083018561589e565b6169f6604083018461674c565b949350505050565b60006020820190508181036000830152616a1781615a9f565b9050919050565b60006020820190508181036000830152616a3781615adf565b9050919050565b60006020820190508181036000830152616a5781615b45565b9050919050565b60006020820190508181036000830152616a7781615bab565b9050919050565b60006020820190508181036000830152616a9781615c11565b9050919050565b60006020820190508181036000830152616ab781615c77565b9050919050565b60006020820190508181036000830152616ad781615cdd565b9050919050565b60006020820190508181036000830152616af781615d43565b9050919050565b60006020820190508181036000830152616b1781615da9565b9050919050565b60006020820190508181036000830152616b3781615de9565b9050919050565b60006020820190508181036000830152616b5781615e75565b9050919050565b60006020820190508181036000830152616b7781615f01565b9050919050565b60006020820190508181036000830152616b9781615f41565b9050919050565b60006020820190508181036000830152616bb781615fcd565b9050919050565b60006020820190508181036000830152616bd781616033565b9050919050565b60006020820190508181036000830152616bf781616099565b9050919050565b60006020820190508181036000830152616c17816160ff565b9050919050565b60006020820190508181036000830152616c3781616165565b9050919050565b60006020820190508181036000830152616c57816161f1565b9050919050565b60006020820190508181036000830152616c7781616231565b9050919050565b60006020820190508181036000830152616c97816162bd565b9050919050565b60006020820190508181036000830152616cb781616323565b9050919050565b60006020820190508181036000830152616cd781616363565b9050919050565b60006020820190508181036000830152616cf7816163ef565b9050919050565b60006020820190508181036000830152616d1781616455565b9050919050565b60006020820190508181036000830152616d3881846164bb565b905092915050565b6000602082019050616d55600083018461674c565b92915050565b6000602082019050616d70600083018461675b565b92915050565b6000604051905081810181811067ffffffffffffffff82111715616d9d57616d9c617107565b5b8060405250919050565b600067ffffffffffffffff821115616dc257616dc1617107565b5b601f19601f8301169050602081019050919050565b6000819050602082019050919050565b6000819050602082019050919050565b6000819050602082019050919050565b600081519050919050565b600081519050919050565b600081519050919050565b600081519050919050565b600081519050919050565b6000602082019050919050565b6000602082019050919050565b6000602082019050919050565b600082825260208201905092915050565b600082825260208201905092915050565b600082825260208201905092915050565b600081905092915050565b600082825260208201905092915050565b600082825260208201905092915050565b6000616ed082616fbe565b9150616edb83616fbe565b9250827fffffffffffffffffffffffffffffffffffffffffffffffffffffffffffffffff03821115616f1057616f0f61707a565b5b828201905092915050565b6000616f2682616fbe565b9150616f3183616fbe565b925082616f4157616f406170a9565b5b828204905092915050565b6000616f5782616fbe565b9150616f6283616fbe565b925082821015616f7557616f7461707a565b5b828203905092915050565b6000616f8b82616f9e565b9050919050565b60008115159050919050565b600073ffffffffffffffffffffffffffffffffffffffff82169050919050565b6000819050919050565b600060ff82169050919050565b82818337600083830152505050565b60005b83811015617002578082015181840152602081019050616fe7565b83811115617011576000848401525b50505050565b6000600282049050600182168061702f57607f821691505b60208210811415617043576170426170d8565b5b50919050565b600061705482616fbe565b915061705f83616fbe565b92508261706f5761706e6170a9565b5b828206905092915050565b7f4e487b7100000000000000000000000000000000000000000000000000000000600052601160045260246000fd5b7f4e487b7100000000000000000000000000000000000000000000000000000000600052601260045260246000fd5b7f4e487b7100000000000000000000000000000000000000000000000000000000600052602260045260246000fd5b7f4e487b7100000000000000000000000000000000000000000000000000000000600052604160045260246000fd5b6000601f19601f8301169050919050565b61715081616f80565b811461715b57600080fd5b50565b61716781616f92565b811461717257600080fd5b50565b61717e81616fbe565b811461718957600080fd5b5056fea264697066735822122096a27ab993564fbec2203a3aa688adb8622817e9e95fa22e770788907f5e096364736f6c63430008000033",
  "linkReferences": {},
  "deployedLinkReferences": {}
}