{
  "_format": "hh-sol-artifact-1",
  "contractName": "Asset",
  "sourceName": "contracts/asset/Asset.sol",
  "abi": [
    {
      "inputs": [
        {
          "components": [
            {
              "internalType": "uint256",
              "name": "id",
              "type": "uint256"
            },
            {
              "internalType": "address",
              "name": "owner",
              "type": "address"
            },
            {
              "internalType": "address",
              "name": "issuer",
              "type": "address"
            },
            {
              "internalType": "address",
              "name": "apxRegistry",
              "type": "address"
            },
            {
              "internalType": "string",
              "name": "ansName",
              "type": "string"
            },
            {
              "internalType": "uint256",
              "name": "ansId",
              "type": "uint256"
            },
            {
              "internalType": "uint256",
              "name": "initialTokenSupply",
              "type": "uint256"
            },
            {
              "internalType": "bool",
              "name": "whitelistRequiredForRevenueClaim",
              "type": "bool"
            },
            {
              "internalType": "bool",
              "name": "whitelistRequiredForLiquidationClaim",
              "type": "bool"
            },
            {
              "internalType": "string",
              "name": "name",
              "type": "string"
            },
            {
              "internalType": "string",
              "name": "symbol",
              "type": "string"
            },
            {
              "internalType": "string",
              "name": "info",
              "type": "string"
            }
          ],
          "internalType": "struct Structs.AssetConstructorParams",
          "name": "params",
          "type": "tuple"
        }
      ],
      "stateMutability": "nonpayable",
      "type": "constructor"
    },
    {
      "anonymous": false,
      "inputs": [
        {
          "indexed": true,
          "internalType": "address",
          "name": "owner",
          "type": "address"
        },
        {
          "indexed": true,
          "internalType": "address",
          "name": "spender",
          "type": "address"
        },
        {
          "indexed": false,
          "internalType": "uint256",
          "name": "value",
          "type": "uint256"
        }
      ],
      "name": "Approval",
      "type": "event"
    },
    {
      "anonymous": false,
      "inputs": [
        {
          "indexed": false,
          "internalType": "address",
          "name": "approver",
          "type": "address"
        },
        {
          "indexed": false,
          "internalType": "address",
          "name": "wallet",
          "type": "address"
        },
        {
          "indexed": false,
          "internalType": "bool",
          "name": "whitelisted",
          "type": "bool"
        },
        {
          "indexed": false,
          "internalType": "uint256",
          "name": "timestamp",
          "type": "uint256"
        }
      ],
      "name": "CampaignWhitelist",
      "type": "event"
    },
    {
      "anonymous": false,
      "inputs": [
        {
          "indexed": false,
          "internalType": "address",
          "name": "caller",
          "type": "address"
        },
        {
          "indexed": false,
          "internalType": "address",
          "name": "newOwner",
          "type": "address"
        },
        {
          "indexed": false,
          "internalType": "uint256",
          "name": "timestamp",
          "type": "uint256"
        }
      ],
      "name": "ChangeOwnership",
      "type": "event"
    },
    {
      "anonymous": false,
      "inputs": [
        {
          "indexed": true,
          "internalType": "address",
          "name": "investor",
          "type": "address"
        },
        {
          "indexed": false,
          "internalType": "uint256",
          "name": "amount",
          "type": "uint256"
        },
        {
          "indexed": false,
          "internalType": "uint256",
          "name": "timestamp",
          "type": "uint256"
        }
      ],
      "name": "ClaimLiquidationShare",
      "type": "event"
    },
    {
      "anonymous": false,
      "inputs": [
        {
          "indexed": false,
          "internalType": "address",
          "name": "campaign",
          "type": "address"
        },
        {
          "indexed": false,
          "internalType": "uint256",
          "name": "tokenAmount",
          "type": "uint256"
        },
        {
          "indexed": false,
          "internalType": "uint256",
          "name": "tokenValue",
          "type": "uint256"
        },
        {
          "indexed": false,
          "internalType": "uint256",
          "name": "timestamp",
          "type": "uint256"
        }
      ],
      "name": "FinalizeSale",
      "type": "event"
    },
    {
      "anonymous": false,
      "inputs": [
        {
          "indexed": false,
          "internalType": "address",
          "name": "liquidator",
          "type": "address"
        },
        {
          "indexed": false,
          "internalType": "uint256",
          "name": "liquidationFunds",
          "type": "uint256"
        },
        {
          "indexed": false,
          "internalType": "uint256",
          "name": "liquidatedTokensAmount",
          "type": "uint256"
        },
        {
          "indexed": false,
          "internalType": "address",
          "name": "mirroredToken",
          "type": "address"
        },
        {
          "indexed": false,
          "internalType": "uint256",
          "name": "timestamp",
          "type": "uint256"
        }
      ],
      "name": "LiquidateMirrored",
      "type": "event"
    },
    {
      "anonymous": false,
      "inputs": [
        {
          "indexed": false,
          "internalType": "address",
          "name": "liquidator",
          "type": "address"
        },
        {
          "indexed": false,
          "internalType": "uint256",
          "name": "liquidationFunds",
          "type": "uint256"
        },
        {
          "indexed": false,
          "internalType": "uint256",
          "name": "liquidatedTokensAmount",
          "type": "uint256"
        },
        {
          "indexed": false,
          "internalType": "uint256",
          "name": "timestamp",
          "type": "uint256"
        }
      ],
      "name": "Liquidated",
      "type": "event"
    },
    {
      "anonymous": false,
      "inputs": [
        {
          "indexed": true,
          "internalType": "address",
          "name": "wallet",
          "type": "address"
        },
        {
          "indexed": false,
          "internalType": "address",
          "name": "mirroredToken",
          "type": "address"
        },
        {
          "indexed": false,
          "internalType": "uint256",
          "name": "amount",
          "type": "uint256"
        },
        {
          "indexed": false,
          "internalType": "uint256",
          "name": "timestamp",
          "type": "uint256"
        }
      ],
      "name": "LockTokens",
      "type": "event"
    },
    {
      "anonymous": false,
      "inputs": [
        {
          "indexed": false,
          "internalType": "address",
          "name": "caller",
          "type": "address"
        },
        {
          "indexed": false,
          "internalType": "bool",
          "name": "approvedByIssuer",
          "type": "bool"
        },
        {
          "indexed": false,
          "internalType": "uint256",
          "name": "timestamp",
          "type": "uint256"
        }
      ],
      "name": "SetApprovedByIssuer",
      "type": "event"
    },
    {
      "anonymous": false,
      "inputs": [
        {
          "indexed": false,
          "internalType": "string",
          "name": "info",
          "type": "string"
        },
        {
          "indexed": false,
          "internalType": "address",
          "name": "setter",
          "type": "address"
        },
        {
          "indexed": false,
          "internalType": "uint256",
          "name": "timestamp",
          "type": "uint256"
        }
      ],
      "name": "SetInfo",
      "type": "event"
    },
    {
      "anonymous": false,
      "inputs": [
        {
          "indexed": false,
          "internalType": "address",
          "name": "approver",
          "type": "address"
        },
        {
          "indexed": false,
          "internalType": "bool",
          "name": "status",
          "type": "bool"
        },
        {
          "indexed": false,
          "internalType": "uint256",
          "name": "timestamp",
          "type": "uint256"
        }
      ],
      "name": "SetIssuerStatus",
      "type": "event"
    },
    {
      "anonymous": false,
      "inputs": [
        {
          "indexed": false,
          "internalType": "address",
          "name": "caller",
          "type": "address"
        },
        {
          "indexed": false,
          "internalType": "bool",
          "name": "whitelistRequired",
          "type": "bool"
        },
        {
          "indexed": false,
          "internalType": "uint256",
          "name": "timestamp",
          "type": "uint256"
        }
      ],
      "name": "SetWhitelistRequiredForLiquidationClaim",
      "type": "event"
    },
    {
      "anonymous": false,
      "inputs": [
        {
          "indexed": false,
          "internalType": "address",
          "name": "caller",
          "type": "address"
        },
        {
          "indexed": false,
          "internalType": "bool",
          "name": "whitelistRequired",
          "type": "bool"
        },
        {
          "indexed": false,
          "internalType": "uint256",
          "name": "timestamp",
          "type": "uint256"
        }
      ],
      "name": "SetWhitelistRequiredForRevenueClaim",
      "type": "event"
    },
    {
      "anonymous": false,
      "inputs": [
        {
          "indexed": false,
          "internalType": "uint256",
          "name": "id",
          "type": "uint256"
        }
      ],
      "name": "Snapshot",
      "type": "event"
    },
    {
      "anonymous": false,
      "inputs": [
        {
          "indexed": true,
          "internalType": "address",
          "name": "from",
          "type": "address"
        },
        {
          "indexed": true,
          "internalType": "address",
          "name": "to",
          "type": "address"
        },
        {
          "indexed": false,
          "internalType": "uint256",
          "name": "value",
          "type": "uint256"
        }
      ],
      "name": "Transfer",
      "type": "event"
    },
    {
      "anonymous": false,
      "inputs": [
        {
          "indexed": true,
          "internalType": "address",
          "name": "wallet",
          "type": "address"
        },
        {
          "indexed": false,
          "internalType": "address",
          "name": "mirroredToken",
          "type": "address"
        },
        {
          "indexed": false,
          "internalType": "uint256",
          "name": "amount",
          "type": "uint256"
        },
        {
          "indexed": false,
          "internalType": "uint256",
          "name": "timestamp",
          "type": "uint256"
        }
      ],
      "name": "UnlockTokens",
      "type": "event"
    },
    {
      "inputs": [
        {
          "internalType": "address",
          "name": "owner",
          "type": "address"
        },
        {
          "internalType": "address",
          "name": "spender",
          "type": "address"
        }
      ],
      "name": "allowance",
      "outputs": [
        {
          "internalType": "uint256",
          "name": "",
          "type": "uint256"
        }
      ],
      "stateMutability": "view",
      "type": "function"
    },
    {
      "inputs": [
        {
          "internalType": "address",
          "name": "spender",
          "type": "address"
        },
        {
          "internalType": "uint256",
          "name": "amount",
          "type": "uint256"
        }
      ],
      "name": "approve",
      "outputs": [
        {
          "internalType": "bool",
          "name": "",
          "type": "bool"
        }
      ],
      "stateMutability": "nonpayable",
      "type": "function"
    },
    {
      "inputs": [
        {
          "internalType": "address",
          "name": "campaign",
          "type": "address"
        }
      ],
      "name": "approveCampaign",
      "outputs": [],
      "stateMutability": "nonpayable",
      "type": "function"
    },
    {
      "inputs": [
        {
          "internalType": "address",
          "name": "",
          "type": "address"
        }
      ],
      "name": "approvedCampaignsMap",
      "outputs": [
        {
          "internalType": "uint256",
          "name": "",
          "type": "uint256"
        }
      ],
      "stateMutability": "view",
      "type": "function"
    },
    {
      "inputs": [
        {
          "internalType": "address",
          "name": "account",
          "type": "address"
        }
      ],
      "name": "balanceBeforeLiquidation",
      "outputs": [
        {
          "internalType": "uint256",
          "name": "",
          "type": "uint256"
        }
      ],
      "stateMutability": "view",
      "type": "function"
    },
    {
      "inputs": [
        {
          "internalType": "address",
          "name": "account",
          "type": "address"
        }
      ],
      "name": "balanceOf",
      "outputs": [
        {
          "internalType": "uint256",
          "name": "",
          "type": "uint256"
        }
      ],
      "stateMutability": "view",
      "type": "function"
    },
    {
      "inputs": [
        {
          "internalType": "address",
          "name": "account",
          "type": "address"
        },
        {
          "internalType": "uint256",
          "name": "snapshotId",
          "type": "uint256"
        }
      ],
      "name": "balanceOfAt",
      "outputs": [
        {
          "internalType": "uint256",
          "name": "",
          "type": "uint256"
        }
      ],
      "stateMutability": "view",
      "type": "function"
    },
    {
      "inputs": [
        {
          "internalType": "address",
          "name": "newOwner",
          "type": "address"
        }
      ],
      "name": "changeOwnership",
      "outputs": [],
      "stateMutability": "nonpayable",
      "type": "function"
    },
    {
      "inputs": [
        {
          "internalType": "address",
          "name": "investor",
          "type": "address"
        }
      ],
      "name": "claimLiquidationShare",
      "outputs": [],
      "stateMutability": "nonpayable",
      "type": "function"
    },
    {
      "inputs": [],
      "name": "decimals",
      "outputs": [
        {
          "internalType": "uint8",
          "name": "",
          "type": "uint8"
        }
      ],
      "stateMutability": "view",
      "type": "function"
    },
    {
      "inputs": [
        {
          "internalType": "address",
          "name": "spender",
          "type": "address"
        },
        {
          "internalType": "uint256",
          "name": "subtractedValue",
          "type": "uint256"
        }
      ],
      "name": "decreaseAllowance",
      "outputs": [
        {
          "internalType": "bool",
          "name": "",
          "type": "bool"
        }
      ],
      "stateMutability": "nonpayable",
      "type": "function"
    },
    {
      "inputs": [],
      "name": "finalizeSale",
      "outputs": [],
      "stateMutability": "nonpayable",
      "type": "function"
    },
    {
      "inputs": [],
      "name": "getAssetFactory",
      "outputs": [
        {
          "internalType": "address",
          "name": "",
          "type": "address"
        }
      ],
      "stateMutability": "view",
      "type": "function"
    },
    {
      "inputs": [],
      "name": "getCampaignRecords",
      "outputs": [
        {
          "components": [
            {
              "internalType": "address",
              "name": "wallet",
              "type": "address"
            },
            {
              "internalType": "bool",
              "name": "whitelisted",
              "type": "bool"
            }
          ],
          "internalType": "struct Structs.WalletRecord[]",
          "name": "",
          "type": "tuple[]"
        }
      ],
      "stateMutability": "view",
      "type": "function"
    },
    {
      "inputs": [],
      "name": "getInfoHistory",
      "outputs": [
        {
          "components": [
            {
              "internalType": "string",
              "name": "info",
              "type": "string"
            },
            {
              "internalType": "uint256",
              "name": "timestamp",
              "type": "uint256"
            }
          ],
          "internalType": "struct Structs.InfoEntry[]",
          "name": "",
          "type": "tuple[]"
        }
      ],
      "stateMutability": "view",
      "type": "function"
    },
    {
      "inputs": [],
      "name": "getIssuerAddress",
      "outputs": [
        {
          "internalType": "address",
          "name": "",
          "type": "address"
        }
      ],
      "stateMutability": "view",
      "type": "function"
    },
    {
      "inputs": [],
      "name": "getSellHistory",
      "outputs": [
        {
          "components": [
            {
              "internalType": "address",
              "name": "cfManager",
              "type": "address"
            },
            {
              "internalType": "uint256",
              "name": "tokenAmount",
              "type": "uint256"
            },
            {
              "internalType": "uint256",
              "name": "tokenValue",
              "type": "uint256"
            },
            {
              "internalType": "uint256",
              "name": "timestamp",
              "type": "uint256"
            }
          ],
          "internalType": "struct Structs.TokenSaleInfo[]",
          "name": "",
          "type": "tuple[]"
        }
      ],
      "stateMutability": "view",
      "type": "function"
    },
    {
      "inputs": [],
      "name": "getState",
      "outputs": [
        {
          "components": [
            {
              "internalType": "uint256",
              "name": "id",
              "type": "uint256"
            },
            {
              "internalType": "address",
              "name": "contractAddress",
              "type": "address"
            },
            {
              "internalType": "string",
              "name": "ansName",
              "type": "string"
            },
            {
              "internalType": "uint256",
              "name": "ansId",
              "type": "uint256"
            },
            {
              "internalType": "address",
              "name": "createdBy",
              "type": "address"
            },
            {
              "internalType": "address",
              "name": "owner",
              "type": "address"
            },
            {
              "internalType": "uint256",
              "name": "initialTokenSupply",
              "type": "uint256"
            },
            {
              "internalType": "bool",
              "name": "whitelistRequiredForRevenueClaim",
              "type": "bool"
            },
            {
              "internalType": "bool",
              "name": "whitelistRequiredForLiquidationClaim",
              "type": "bool"
            },
            {
              "internalType": "bool",
              "name": "assetApprovedByIssuer",
              "type": "bool"
            },
            {
              "internalType": "address",
              "name": "issuer",
              "type": "address"
            },
            {
              "internalType": "address",
              "name": "apxRegistry",
              "type": "address"
            },
            {
              "internalType": "string",
              "name": "info",
              "type": "string"
            },
            {
              "internalType": "string",
              "name": "name",
              "type": "string"
            },
            {
              "internalType": "string",
              "name": "symbol",
              "type": "string"
            },
            {
              "internalType": "uint256",
              "name": "totalAmountRaised",
              "type": "uint256"
            },
            {
              "internalType": "uint256",
              "name": "totalTokensSold",
              "type": "uint256"
            },
            {
              "internalType": "uint256",
              "name": "highestTokenSellPrice",
              "type": "uint256"
            },
            {
              "internalType": "uint256",
              "name": "totalTokensLocked",
              "type": "uint256"
            },
            {
              "internalType": "uint256",
              "name": "totalTokensLockedAndLiquidated",
              "type": "uint256"
            },
            {
              "internalType": "bool",
              "name": "liquidated",
              "type": "bool"
            },
            {
              "internalType": "uint256",
              "name": "liquidationFundsTotal",
              "type": "uint256"
            },
            {
              "internalType": "uint256",
              "name": "liquidationTimestamp",
              "type": "uint256"
            },
            {
              "internalType": "uint256",
              "name": "liquidationFundsClaimed",
              "type": "uint256"
            }
          ],
          "internalType": "struct Structs.AssetState",
          "name": "",
          "type": "tuple"
        }
      ],
      "stateMutability": "view",
      "type": "function"
    },
    {
      "inputs": [
        {
          "internalType": "address",
          "name": "spender",
          "type": "address"
        },
        {
          "internalType": "uint256",
          "name": "addedValue",
          "type": "uint256"
        }
      ],
      "name": "increaseAllowance",
      "outputs": [
        {
          "internalType": "bool",
          "name": "",
          "type": "bool"
        }
      ],
      "stateMutability": "nonpayable",
      "type": "function"
    },
    {
      "inputs": [
        {
          "internalType": "address[]",
          "name": "mirroredTokens",
          "type": "address[]"
        }
      ],
      "name": "liquidate",
      "outputs": [],
      "stateMutability": "nonpayable",
      "type": "function"
    },
    {
      "inputs": [
        {
          "internalType": "address",
          "name": "mirroredTokenAddress",
          "type": "address"
        }
      ],
      "name": "liquidateMirrored",
      "outputs": [],
      "stateMutability": "nonpayable",
      "type": "function"
    },
    {
      "inputs": [
        {
          "internalType": "address",
          "name": "",
          "type": "address"
        }
      ],
      "name": "liquidationClaimsMap",
      "outputs": [
        {
          "internalType": "uint256",
          "name": "",
          "type": "uint256"
        }
      ],
      "stateMutability": "view",
      "type": "function"
    },
    {
      "inputs": [
        {
          "internalType": "address",
          "name": "mirroredToken",
          "type": "address"
        },
        {
          "internalType": "uint256",
          "name": "amount",
          "type": "uint256"
        }
      ],
      "name": "lockTokens",
      "outputs": [],
      "stateMutability": "nonpayable",
      "type": "function"
    },
    {
      "inputs": [
        {
          "internalType": "address",
          "name": "",
          "type": "address"
        }
      ],
      "name": "locked",
      "outputs": [
        {
          "internalType": "uint256",
          "name": "",
          "type": "uint256"
        }
      ],
      "stateMutability": "view",
      "type": "function"
    },
    {
      "inputs": [
        {
          "internalType": "address",
          "name": "newRegistry",
          "type": "address"
        }
      ],
      "name": "migrateApxRegistry",
      "outputs": [],
      "stateMutability": "nonpayable",
      "type": "function"
    },
    {
      "inputs": [],
      "name": "name",
      "outputs": [
        {
          "internalType": "string",
          "name": "",
          "type": "string"
        }
      ],
      "stateMutability": "view",
      "type": "function"
    },
    {
      "inputs": [],
      "name": "priceDecimalsPrecision",
      "outputs": [
        {
          "internalType": "uint256",
          "name": "",
          "type": "uint256"
        }
      ],
      "stateMutability": "view",
      "type": "function"
    },
    {
      "inputs": [
        {
          "internalType": "string",
          "name": "info",
          "type": "string"
        }
      ],
      "name": "setInfo",
      "outputs": [],
      "stateMutability": "nonpayable",
      "type": "function"
    },
    {
      "inputs": [
        {
          "internalType": "bool",
          "name": "status",
          "type": "bool"
        }
      ],
      "name": "setIssuerStatus",
      "outputs": [],
      "stateMutability": "nonpayable",
      "type": "function"
    },
    {
      "inputs": [
        {
          "internalType": "bool",
          "name": "whitelistRequired",
          "type": "bool"
        }
      ],
      "name": "setWhitelistRequiredForLiquidationClaim",
      "outputs": [],
      "stateMutability": "nonpayable",
      "type": "function"
    },
    {
      "inputs": [
        {
          "internalType": "bool",
          "name": "whitelistRequired",
          "type": "bool"
        }
      ],
      "name": "setWhitelistRequiredForRevenueClaim",
      "outputs": [],
      "stateMutability": "nonpayable",
      "type": "function"
    },
    {
      "inputs": [],
      "name": "snapshot",
      "outputs": [
        {
          "internalType": "uint256",
          "name": "",
          "type": "uint256"
        }
      ],
      "stateMutability": "nonpayable",
      "type": "function"
    },
    {
      "inputs": [
        {
          "internalType": "address",
          "name": "",
          "type": "address"
        }
      ],
      "name": "successfulTokenSalesMap",
      "outputs": [
        {
          "internalType": "address",
          "name": "cfManager",
          "type": "address"
        },
        {
          "internalType": "uint256",
          "name": "tokenAmount",
          "type": "uint256"
        },
        {
          "internalType": "uint256",
          "name": "tokenValue",
          "type": "uint256"
        },
        {
          "internalType": "uint256",
          "name": "timestamp",
          "type": "uint256"
        }
      ],
      "stateMutability": "view",
      "type": "function"
    },
    {
      "inputs": [
        {
          "internalType": "address",
          "name": "campaign",
          "type": "address"
        }
      ],
      "name": "suspendCampaign",
      "outputs": [],
      "stateMutability": "nonpayable",
      "type": "function"
    },
    {
      "inputs": [],
      "name": "symbol",
      "outputs": [
        {
          "internalType": "string",
          "name": "",
          "type": "string"
        }
      ],
      "stateMutability": "view",
      "type": "function"
    },
    {
      "inputs": [],
      "name": "totalSupply",
      "outputs": [
        {
          "internalType": "uint256",
          "name": "",
          "type": "uint256"
        }
      ],
      "stateMutability": "view",
      "type": "function"
    },
    {
      "inputs": [
        {
          "internalType": "uint256",
          "name": "snapshotId",
          "type": "uint256"
        }
      ],
      "name": "totalSupplyAt",
      "outputs": [
        {
          "internalType": "uint256",
          "name": "",
          "type": "uint256"
        }
      ],
      "stateMutability": "view",
      "type": "function"
    },
    {
      "inputs": [
        {
          "internalType": "address",
          "name": "recipient",
          "type": "address"
        },
        {
          "internalType": "uint256",
          "name": "amount",
          "type": "uint256"
        }
      ],
      "name": "transfer",
      "outputs": [
        {
          "internalType": "bool",
          "name": "",
          "type": "bool"
        }
      ],
      "stateMutability": "nonpayable",
      "type": "function"
    },
    {
      "inputs": [
        {
          "internalType": "address",
          "name": "sender",
          "type": "address"
        },
        {
          "internalType": "address",
          "name": "recipient",
          "type": "address"
        },
        {
          "internalType": "uint256",
          "name": "amount",
          "type": "uint256"
        }
      ],
      "name": "transferFrom",
      "outputs": [
        {
          "internalType": "bool",
          "name": "",
          "type": "bool"
        }
      ],
      "stateMutability": "nonpayable",
      "type": "function"
    },
    {
      "inputs": [
        {
          "internalType": "address",
          "name": "wallet",
          "type": "address"
        },
        {
          "internalType": "uint256",
          "name": "amount",
          "type": "uint256"
        }
      ],
      "name": "unlockTokens",
      "outputs": [],
      "stateMutability": "nonpayable",
      "type": "function"
    }
  ],
  "bytecode": "0x60806040523480156200001157600080fd5b506040516200863338038062008633833981810160405281019062000037919062000fd1565b80610120015181610140015181600390805190602001906200005b92919062000bc2565b5080600490805190602001906200007492919062000bc2565b505050600073ffffffffffffffffffffffffffffffffffffffff16816020015173ffffffffffffffffffffffffffffffffffffffff161415620000ee576040517f08c379a0000000000000000000000000000000000000000000000000000000008152600401620000e5906200119a565b60405180910390fd5b600073ffffffffffffffffffffffffffffffffffffffff16816040015173ffffffffffffffffffffffffffffffffffffffff16141562000165576040517f08c379a00000000000000000000000000000000000000000000000000000000081526004016200015c90620011bc565b60405180910390fd5b60008160c0015111620001af576040517f08c379a0000000000000000000000000000000000000000000000000000000008152600401620001a690620011de565b60405180910390fd5b601e6040518060400160405280836101600151815260200142815250908060018154018082558091505060019003906000526020600020906002020160009091909190915060008201518160000190805190602001906200021292919062000bc2565b506020820151816001015550506000816020015173ffffffffffffffffffffffffffffffffffffffff16826040015173ffffffffffffffffffffffffffffffffffffffff16631865c57d6040518163ffffffff1660e01b815260040160006040518083038186803b1580156200028757600080fd5b505afa1580156200029c573d6000803e3d6000fd5b505050506040513d6000823e3d601f19601f82011682018060405250810190620002c7919062001016565b6080015173ffffffffffffffffffffffffffffffffffffffff161490506000309050604051806103000160405280846000015181526020018273ffffffffffffffffffffffffffffffffffffffff168152602001846080015181526020018460a0015181526020013373ffffffffffffffffffffffffffffffffffffffff168152602001846020015173ffffffffffffffffffffffffffffffffffffffff1681526020018460c0015181526020018460e0015115158152602001846101000151151581526020018315158152602001846040015173ffffffffffffffffffffffffffffffffffffffff168152602001846060015173ffffffffffffffffffffffffffffffffffffffff16815260200184610160015181526020018461012001518152602001846101400151815260200160008152602001600081526020016000815260200160008152602001600081526020016000151581526020016000815260200160008152602001600081525060096000820151816000015560208201518160010160006101000a81548173ffffffffffffffffffffffffffffffffffffffff021916908373ffffffffffffffffffffffffffffffffffffffff1602179055506040820151816002019080519060200190620004a792919062000bc2565b506060820151816003015560808201518160040160006101000a81548173ffffffffffffffffffffffffffffffffffffffff021916908373ffffffffffffffffffffffffffffffffffffffff16021790555060a08201518160050160006101000a81548173ffffffffffffffffffffffffffffffffffffffff021916908373ffffffffffffffffffffffffffffffffffffffff16021790555060c0820151816006015560e08201518160070160006101000a81548160ff0219169083151502179055506101008201518160070160016101000a81548160ff0219169083151502179055506101208201518160070160026101000a81548160ff0219169083151502179055506101408201518160070160036101000a81548173ffffffffffffffffffffffffffffffffffffffff021916908373ffffffffffffffffffffffffffffffffffffffff1602179055506101608201518160080160006101000a81548173ffffffffffffffffffffffffffffffffffffffff021916908373ffffffffffffffffffffffffffffffffffffffff1602179055506101808201518160090190805190602001906200065b92919062000bc2565b506101a082015181600a0190805190602001906200067b92919062000bc2565b506101c082015181600b0190805190602001906200069b92919062000bc2565b506101e082015181600c015561020082015181600d015561022082015181600e015561024082015181600f015561026082015181601001556102808201518160110160006101000a81548160ff0219169083151502179055506102a082015181601201556102c082015181601301556102e082015181601401559050506200073283602001518460c001516200073b60201b60201c565b505050620014e0565b600073ffffffffffffffffffffffffffffffffffffffff168273ffffffffffffffffffffffffffffffffffffffff161415620007ae576040517f08c379a0000000000000000000000000000000000000000000000000000000008152600401620007a59062001200565b60405180910390fd5b620007c260008383620008b460201b60201c565b8060026000828254620007d69190620012b7565b92505081905550806000808473ffffffffffffffffffffffffffffffffffffffff1673ffffffffffffffffffffffffffffffffffffffff16815260200190815260200160002060008282546200082d9190620012b7565b925050819055508173ffffffffffffffffffffffffffffffffffffffff16600073ffffffffffffffffffffffffffffffffffffffff167fddf252ad1be2c89b69c2b068fc378daa952ba7f163c4a11628f55a4df523b3ef8360405162000894919062001222565b60405180910390a3620008b060008383620009af60201b60201c565b5050565b620008cc838383620009b460201b6200345f1760201c565b600073ffffffffffffffffffffffffffffffffffffffff168373ffffffffffffffffffffffffffffffffffffffff16141562000929576200091382620009b960201b60201c565b6200092362000a1c60201b60201c565b620009aa565b600073ffffffffffffffffffffffffffffffffffffffff168273ffffffffffffffffffffffffffffffffffffffff16141562000986576200097083620009b960201b60201c565b6200098062000a1c60201b60201c565b620009a9565b6200099783620009b960201b60201c565b620009a882620009b960201b60201c565b5b5b505050565b505050565b505050565b62000a19600560008373ffffffffffffffffffffffffffffffffffffffff1673ffffffffffffffffffffffffffffffffffffffff16815260200190815260200160002062000a0d8362000a4060201b60201c565b62000a8860201b60201c565b50565b62000a3e600662000a3262000b1460201b60201c565b62000a8860201b60201c565b565b60008060008373ffffffffffffffffffffffffffffffffffffffff1673ffffffffffffffffffffffffffffffffffffffff168152602001908152602001600020549050919050565b600062000a9a62000b1e60201b60201c565b90508062000ab18460000162000b3c60201b60201c565b101562000b0f5782600001819080600181540180825580915050600190039060005260206000200160009091909190915055826001018290806001815401808255809150506001900390600052602060002001600090919091909150555b505050565b6000600254905090565b600062000b37600862000bb460201b620034641760201c565b905090565b6000808280549050141562000b55576000905062000baf565b816001838054905062000b69919062001314565b8154811062000ba1577f4e487b7100000000000000000000000000000000000000000000000000000000600052603260045260246000fd5b906000526020600020015490505b919050565b600081600001549050919050565b82805462000bd090620013cf565b90600052602060002090601f01602090048101928262000bf4576000855562000c40565b82601f1062000c0f57805160ff191683800117855562000c40565b8280016001018555821562000c40579182015b8281111562000c3f57825182559160200191906001019062000c22565b5b50905062000c4f919062000c53565b5090565b5b8082111562000c6e57600081600090555060010162000c54565b5090565b600062000c8962000c838462001273565b6200123f565b90508281526020810184848401111562000ca257600080fd5b62000caf84828562001399565b509392505050565b60008151905062000cc88162001492565b92915050565b60008151905062000cdf81620014ac565b92915050565b600082601f83011262000cf757600080fd5b815162000d0984826020860162000c72565b91505092915050565b6000610180828403121562000d2657600080fd5b62000d336101806200123f565b9050600062000d458482850162000fba565b600083015250602062000d5b8482850162000cb7565b602083015250604062000d718482850162000cb7565b604083015250606062000d878482850162000cb7565b606083015250608082015167ffffffffffffffff81111562000da857600080fd5b62000db68482850162000ce5565b60808301525060a062000dcc8482850162000fba565b60a08301525060c062000de28482850162000fba565b60c08301525060e062000df88482850162000cce565b60e08301525061010062000e0f8482850162000cce565b6101008301525061012082015167ffffffffffffffff81111562000e3257600080fd5b62000e408482850162000ce5565b6101208301525061014082015167ffffffffffffffff81111562000e6357600080fd5b62000e718482850162000ce5565b6101408301525061016082015167ffffffffffffffff81111562000e9457600080fd5b62000ea28482850162000ce5565b6101608301525092915050565b6000610100828403121562000ec357600080fd5b62000ed06101006200123f565b9050600062000ee28482850162000fba565b600083015250602062000ef88482850162000cb7565b602083015250604082015167ffffffffffffffff81111562000f1957600080fd5b62000f278482850162000ce5565b604083015250606062000f3d8482850162000cb7565b606083015250608062000f538482850162000cb7565b60808301525060a062000f698482850162000cb7565b60a08301525060c062000f7f8482850162000cb7565b60c08301525060e082015167ffffffffffffffff81111562000fa057600080fd5b62000fae8482850162000ce5565b60e08301525092915050565b60008151905062000fcb81620014c6565b92915050565b60006020828403121562000fe457600080fd5b600082015167ffffffffffffffff81111562000fff57600080fd5b6200100d8482850162000d12565b91505092915050565b6000602082840312156200102957600080fd5b600082015167ffffffffffffffff8111156200104457600080fd5b620010528482850162000eaf565b91505092915050565b60006200106a601d83620012a6565b91507f41737365743a20496e76616c6964206f776e65722070726f76696465640000006000830152602082019050919050565b6000620010ac601e83620012a6565b91507f41737365743a20496e76616c6964206973737565722070726f766964656400006000830152602082019050919050565b6000620010ee602683620012a6565b91507f41737365743a20496e697469616c20746f6b656e20737570706c792063616e2760008301527f74206265203000000000000000000000000000000000000000000000000000006020830152604082019050919050565b600062001156601f83620012a6565b91507f45524332303a206d696e7420746f20746865207a65726f2061646472657373006000830152602082019050919050565b62001194816200138f565b82525050565b60006020820190508181036000830152620011b5816200105b565b9050919050565b60006020820190508181036000830152620011d7816200109d565b9050919050565b60006020820190508181036000830152620011f981620010df565b9050919050565b600060208201905081810360008301526200121b8162001147565b9050919050565b600060208201905062001239600083018462001189565b92915050565b6000604051905081810181811067ffffffffffffffff8211171562001269576200126862001463565b5b8060405250919050565b600067ffffffffffffffff82111562001291576200129062001463565b5b601f19601f8301169050602081019050919050565b600082825260208201905092915050565b6000620012c4826200138f565b9150620012d1836200138f565b9250827fffffffffffffffffffffffffffffffffffffffffffffffffffffffffffffffff0382111562001309576200130862001405565b5b828201905092915050565b600062001321826200138f565b91506200132e836200138f565b92508282101562001344576200134362001405565b5b828203905092915050565b60006200135c826200136f565b9050919050565b60008115159050919050565b600073ffffffffffffffffffffffffffffffffffffffff82169050919050565b6000819050919050565b60005b83811015620013b95780820151818401526020810190506200139c565b83811115620013c9576000848401525b50505050565b60006002820490506001821680620013e857607f821691505b60208210811415620013ff57620013fe62001434565b5b50919050565b7f4e487b7100000000000000000000000000000000000000000000000000000000600052601160045260246000fd5b7f4e487b7100000000000000000000000000000000000000000000000000000000600052602260045260246000fd5b7f4e487b7100000000000000000000000000000000000000000000000000000000600052604160045260246000fd5b6200149d816200134f565b8114620014a957600080fd5b50565b620014b78162001363565b8114620014c357600080fd5b50565b620014d1816200138f565b8114620014dd57600080fd5b50565b61714380620014f06000396000f3fe608060405234801561001057600080fd5b50600436106102485760003560e01c806391b14c5f1161013b578063a9059cbb116100b8578063bb16c0681161007c578063bb16c06814610718578063bbd9445914610734578063c24fe16c14610750578063cbf9fe5f1461076e578063dd62ed3e1461079e57610248565b8063a9059cbb14610674578063a91e9750146106a4578063a985994b146106c2578063b1c25586146106de578063b3756506146106fa57610248565b806398e16255116100ff57806398e16255146105bc5780639a4e8ce8146105da5780639d564d9a146105f8578063a0a83f8c14610614578063a457c2d71461064457610248565b806391b14c5f14610518578063937f6e771461053457806395d89b41146105505780639711715a1461056e578063981b24d01461058c57610248565b806332e71ead116101c957806350c73efe1161018d57806350c73efe1461046257806358a687ec146104925780635b1cdef21461049c57806370a08231146104cc5780638ca3d4bb146104fc57610248565b806332e71ead1461039557806339509351146103b357806340e688da146103e357806349d3f161146104165780634ee2cd7e1461043257610248565b806323b872dd1161021057806323b872dd146102f35780632af4c31e146103235780632d8b95a01461033f5780632e61a5711461035b578063313ce5671461037757610248565b8063025ed7991461024d57806306fdde0314610269578063095ea7b31461028757806318160ddd146102b75780631865c57d146102d5575b600080fd5b61026760048036038101906102629190615110565b6107ce565b005b610271610942565b60405161027e9190616623565b60405180910390f35b6102a1600480360381019061029c9190615093565b6109d4565b6040516102ae9190616608565b60405180910390f35b6102bf6109f2565b6040516102cc9190616a65565b60405180910390f35b6102dd6109fc565b6040516102ea9190616a43565b60405180910390f35b61030d60048036038101906103089190615044565b610ee7565b60405161031a9190616608565b60405180910390f35b61033d60048036038101906103389190614fdf565b6110f4565b005b61035960048036038101906103549190615110565b611209565b005b61037560048036038101906103709190614fdf565b6112f7565b005b61037f611429565b60405161038c9190616aa9565b60405180910390f35b61039d611432565b6040516103aa91906163dc565b60405180910390f35b6103cd60048036038101906103c89190615093565b61145f565b6040516103da9190616608565b60405180910390f35b6103fd60048036038101906103f89190614fdf565b61150b565b60405161040d949392919061655d565b60405180910390f35b610430600480360381019061042b9190615110565b61155b565b005b61044c60048036038101906104479190615093565b611649565b6040516104599190616a65565b60405180910390f35b61047c60048036038101906104779190614fdf565b6116b9565b6040516104899190616a65565b60405180910390f35b61049a611701565b005b6104b660048036038101906104b19190614fdf565b611bcb565b6040516104c39190616a65565b60405180910390f35b6104e660048036038101906104e19190614fdf565b611be3565b6040516104f39190616a65565b60405180910390f35b61051660048036038101906105119190614fdf565b611c7d565b005b610532600480360381019061052d9190614fdf565b611daf565b005b61054e60048036038101906105499190615162565b611db2565b005b610558611f05565b6040516105659190616623565b60405180910390f35b610576611f97565b6040516105839190616a65565b60405180910390f35b6105a660048036038101906105a19190615225565b611ff9565b6040516105b39190616a65565b60405180910390f35b6105c461202a565b6040516105d191906165a2565b60405180910390f35b6105e2612125565b6040516105ef91906163dc565b60405180910390f35b610612600480360381019061060d9190615093565b612152565b005b61062e60048036038101906106299190614fdf565b6122fa565b60405161063b9190616a65565b60405180910390f35b61065e60048036038101906106599190615093565b612312565b60405161066b9190616608565b60405180910390f35b61068e60048036038101906106899190615093565b6123fd565b60405161069b9190616608565b60405180910390f35b6106ac612608565b6040516106b991906165c4565b60405180910390f35b6106dc60048036038101906106d791906150cf565b6126db565b005b6106f860048036038101906106f39190615093565b612957565b005b610702612b37565b60405161070f91906165e6565b60405180910390f35b610732600480360381019061072d9190614fdf565b612c03565b005b61074e60048036038101906107499190614fdf565b6130be565b005b6107586133ba565b6040516107659190616a65565b60405180910390f35b61078860048036038101906107839190614fdf565b6133c0565b6040516107959190616a65565b60405180910390f35b6107b860048036038101906107b39190615008565b6133d8565b6040516107c59190616a65565b60405180910390f35b600960070160039054906101000a900473ffffffffffffffffffffffffffffffffffffffff1673ffffffffffffffffffffffffffffffffffffffff16631865c57d6040518163ffffffff1660e01b815260040160006040518083038186803b15801561083957600080fd5b505afa15801561084d573d6000803e3d6000fd5b505050506040513d6000823e3d601f19601f8201168201806040525081019061087691906151e4565b6080015173ffffffffffffffffffffffffffffffffffffffff163373ffffffffffffffffffffffffffffffffffffffff16146108e7576040517f08c379a00000000000000000000000000000000000000000000000000000000081526004016108de90616743565b60405180910390fd5b80600960070160026101000a81548160ff0219169083151502179055507f378762f5fbec582efe534abe7b1b8f7e4e4a4ed6ce28c15fc23e2024ead4fcc333824260405161093793929190616473565b60405180910390a150565b60606003805461095190616f5c565b80601f016020809104026020016040519081016040528092919081815260200182805461097d90616f5c565b80156109ca5780601f1061099f576101008083540402835291602001916109ca565b820191906000526020600020905b8154815290600101906020018083116109ad57829003601f168201915b5050505050905090565b60006109e86109e1613472565b848461347a565b6001905092915050565b6000600254905090565b610a046148e2565b600960405180610300016040529081600082015481526020016001820160009054906101000a900473ffffffffffffffffffffffffffffffffffffffff1673ffffffffffffffffffffffffffffffffffffffff1673ffffffffffffffffffffffffffffffffffffffff168152602001600282018054610a8290616f5c565b80601f0160208091040260200160405190810160405280929190818152602001828054610aae90616f5c565b8015610afb5780601f10610ad057610100808354040283529160200191610afb565b820191906000526020600020905b815481529060010190602001808311610ade57829003601f168201915b50505050508152602001600382015481526020016004820160009054906101000a900473ffffffffffffffffffffffffffffffffffffffff1673ffffffffffffffffffffffffffffffffffffffff1673ffffffffffffffffffffffffffffffffffffffff1681526020016005820160009054906101000a900473ffffffffffffffffffffffffffffffffffffffff1673ffffffffffffffffffffffffffffffffffffffff1673ffffffffffffffffffffffffffffffffffffffff168152602001600682015481526020016007820160009054906101000a900460ff161515151581526020016007820160019054906101000a900460ff161515151581526020016007820160029054906101000a900460ff161515151581526020016007820160039054906101000a900473ffffffffffffffffffffffffffffffffffffffff1673ffffffffffffffffffffffffffffffffffffffff1673ffffffffffffffffffffffffffffffffffffffff1681526020016008820160009054906101000a900473ffffffffffffffffffffffffffffffffffffffff1673ffffffffffffffffffffffffffffffffffffffff1673ffffffffffffffffffffffffffffffffffffffff168152602001600982018054610cd190616f5c565b80601f0160208091040260200160405190810160405280929190818152602001828054610cfd90616f5c565b8015610d4a5780601f10610d1f57610100808354040283529160200191610d4a565b820191906000526020600020905b815481529060010190602001808311610d2d57829003601f168201915b50505050508152602001600a82018054610d6390616f5c565b80601f0160208091040260200160405190810160405280929190818152602001828054610d8f90616f5c565b8015610ddc5780601f10610db157610100808354040283529160200191610ddc565b820191906000526020600020905b815481529060010190602001808311610dbf57829003601f168201915b50505050508152602001600b82018054610df590616f5c565b80601f0160208091040260200160405190810160405280929190818152602001828054610e2190616f5c565b8015610e6e5780601f10610e4357610100808354040283529160200191610e6e565b820191906000526020600020905b815481529060010190602001808311610e5157829003601f168201915b50505050508152602001600c8201548152602001600d8201548152602001600e8201548152602001600f8201548152602001601082015481526020016011820160009054906101000a900460ff161515151581526020016012820154815260200160138201548152602001601482015481525050905090565b600083836000610ef5613645565b90503073ffffffffffffffffffffffffffffffffffffffff168373ffffffffffffffffffffffffffffffffffffffff161480610f365750610f3583613672565b5b8015610fc757508073ffffffffffffffffffffffffffffffffffffffff16633657e851836040518263ffffffff1660e01b8152600401610f7691906163dc565b60206040518083038186803b158015610f8e57600080fd5b505afa158015610fa2573d6000803e3d6000fd5b505050506040513d601f19601f82011682018060405250810190610fc69190615139565b5b8061109e57503073ffffffffffffffffffffffffffffffffffffffff168273ffffffffffffffffffffffffffffffffffffffff16148061100c575061100b82613672565b5b801561109d57508073ffffffffffffffffffffffffffffffffffffffff16633657e851846040518263ffffffff1660e01b815260040161104c91906163dc565b60206040518083038186803b15801561106457600080fd5b505afa158015611078573d6000803e3d6000fd5b505050506040513d601f19601f8201168201806040525081019061109c9190615139565b5b5b6110dd576040517f08c379a00000000000000000000000000000000000000000000000000000000081526004016110d4906168e3565b60405180910390fd5b6110e887878761380f565b93505050509392505050565b600960050160009054906101000a900473ffffffffffffffffffffffffffffffffffffffff1673ffffffffffffffffffffffffffffffffffffffff163373ffffffffffffffffffffffffffffffffffffffff1614611187576040517f08c379a000000000000000000000000000000000000000000000000000000000815260040161117e90616963565b60405180910390fd5b80600960050160006101000a81548173ffffffffffffffffffffffffffffffffffffffff021916908373ffffffffffffffffffffffffffffffffffffffff1602179055507fb4fa0c8f1565e6385961540cac5b9884d84157c515100cf972728e8be8dacdd33382426040516111fe9392919061643c565b60405180910390a150565b600960050160009054906101000a900473ffffffffffffffffffffffffffffffffffffffff1673ffffffffffffffffffffffffffffffffffffffff163373ffffffffffffffffffffffffffffffffffffffff161461129c576040517f08c379a000000000000000000000000000000000000000000000000000000000815260040161129390616963565b60405180910390fd5b80600960070160006101000a81548160ff0219169083151502179055507f9f9c59041e1db26af9a0f9d072677adec7d0a57053d68e6e298a48535b8bbc8e3382426040516112ec93929190616473565b60405180910390a150565b600960050160009054906101000a900473ffffffffffffffffffffffffffffffffffffffff1673ffffffffffffffffffffffffffffffffffffffff163373ffffffffffffffffffffffffffffffffffffffff161461138a576040517f08c379a000000000000000000000000000000000000000000000000000000000815260040161138190616963565b60405180910390fd5b600960110160009054906101000a900460ff16156113dd576040517f08c379a00000000000000000000000000000000000000000000000000000000081526004016113d490616823565b60405180910390fd5b6113e8816001613907565b7f5c6ace57e04d50c89abdde343bc20b6dbe48b8ce80684b10a2633f157b637d75338260014260405161141e94939291906163f7565b60405180910390a150565b60006012905090565b6000600960070160039054906101000a900473ffffffffffffffffffffffffffffffffffffffff16905090565b600061150161146c613472565b84846001600061147a613472565b73ffffffffffffffffffffffffffffffffffffffff1673ffffffffffffffffffffffffffffffffffffffff16815260200190815260200160002060008873ffffffffffffffffffffffffffffffffffffffff1673ffffffffffffffffffffffffffffffffffffffff168152602001908152602001600020546114fc9190616c3f565b61347a565b6001905092915050565b60226020528060005260406000206000915090508060000160009054906101000a900473ffffffffffffffffffffffffffffffffffffffff16908060010154908060020154908060030154905084565b600960050160009054906101000a900473ffffffffffffffffffffffffffffffffffffffff1673ffffffffffffffffffffffffffffffffffffffff163373ffffffffffffffffffffffffffffffffffffffff16146115ee576040517f08c379a00000000000000000000000000000000000000000000000000000000081526004016115e590616963565b60405180910390fd5b80600960070160016101000a81548160ff0219169083151502179055507f6d9ffa7cde4acb79d71e8ec905a78cd27084264f62509578d6bfc5db2490d95b33824260405161163e93929190616473565b60405180910390a150565b600080600061169684600560008873ffffffffffffffffffffffffffffffffffffffff1673ffffffffffffffffffffffffffffffffffffffff168152602001908152602001600020613acf565b91509150816116ad576116a8856116b9565b6116af565b805b9250505092915050565b60008060008373ffffffffffffffffffffffffffffffffffffffff1673ffffffffffffffffffffffffffffffffffffffff168152602001908152602001600020549050919050565b600960110160009054906101000a900460ff1615611754576040517f08c379a000000000000000000000000000000000000000000000000000000000815260040161174b90616823565b60405180910390fd5b600033905061176281613672565b6117a1576040517f08c379a0000000000000000000000000000000000000000000000000000000008152600401611798906167a3565b60405180910390fd5b60008173ffffffffffffffffffffffffffffffffffffffff16631865c57d6040518163ffffffff1660e01b815260040160006040518083038186803b1580156117e957600080fd5b505afa1580156117fd573d6000803e3d6000fd5b505050506040513d6000823e3d601f19601f8201168201806040525081019061182691906151a3565b9050806101c0015161186d576040517f08c379a000000000000000000000000000000000000000000000000000000000815260040161186490616943565b60405180910390fd5b6000816102600151905060008261028001519050600083610120015190506000821180156118a35750816118a086611be3565b10155b6118e2576040517f08c379a00000000000000000000000000000000000000000000000000000000081526004016118d9906167c3565b60405180910390fd5b6000831180156119815750826118f6613beb565b73ffffffffffffffffffffffffffffffffffffffff166370a08231876040518263ffffffff1660e01b815260040161192e91906163dc565b60206040518083038186803b15801561194657600080fd5b505afa15801561195a573d6000803e3d6000fd5b505050506040513d601f19601f8201168201806040525081019061197e919061524e565b10155b6119c0576040517f08c379a00000000000000000000000000000000000000000000000000000000081526004016119b7906169a3565b60405180910390fd5b826009600c0160008282546119d59190616c3f565b92505081905550816009600d0160008282546119f19190616c3f565b92505081905550600060405180608001604052808773ffffffffffffffffffffffffffffffffffffffff168152602001848152602001858152602001428152509050602081908060018154018082558091505060019003906000526020600020906004020160009091909190915060008201518160000160006101000a81548173ffffffffffffffffffffffffffffffffffffffff021916908373ffffffffffffffffffffffffffffffffffffffff160217905550602082015181600101556040820151816002015560608201518160030155505080602260008873ffffffffffffffffffffffffffffffffffffffff1673ffffffffffffffffffffffffffffffffffffffff16815260200190815260200160002060008201518160000160006101000a81548173ffffffffffffffffffffffffffffffffffffffff021916908373ffffffffffffffffffffffffffffffffffffffff1602179055506020820151816001015560408201518160020155606082015181600301559050506009600e0154821115611b8657816009600e01819055505b7fcbf0fbac05ba7258619b5b6f20bf2b567ce1a76f2f8f0a58f9e7fb3e90958c4833848642604051611bbb949392919061655d565b60405180910390a1505050505050565b60236020528060005260406000206000915090505481565b6000600960110160009054906101000a900460ff1615611c6c57600960050160009054906101000a900473ffffffffffffffffffffffffffffffffffffffff1673ffffffffffffffffffffffffffffffffffffffff168273ffffffffffffffffffffffffffffffffffffffff1614611c5c576000611c65565b611c646109f2565b5b9050611c78565b611c7582613bfa565b90505b919050565b600960050160009054906101000a900473ffffffffffffffffffffffffffffffffffffffff1673ffffffffffffffffffffffffffffffffffffffff163373ffffffffffffffffffffffffffffffffffffffff1614611d10576040517f08c379a0000000000000000000000000000000000000000000000000000000008152600401611d0790616963565b60405180910390fd5b600960110160009054906101000a900460ff1615611d63576040517f08c379a0000000000000000000000000000000000000000000000000000000008152600401611d5a90616823565b60405180910390fd5b611d6e816000613907565b7f5c6ace57e04d50c89abdde343bc20b6dbe48b8ce80684b10a2633f157b637d753382600042604051611da494939291906163f7565b60405180910390a150565b50565b600960050160009054906101000a900473ffffffffffffffffffffffffffffffffffffffff1673ffffffffffffffffffffffffffffffffffffffff163373ffffffffffffffffffffffffffffffffffffffff1614611e45576040517f08c379a0000000000000000000000000000000000000000000000000000000008152600401611e3c90616963565b60405180910390fd5b601e60405180604001604052808381526020014281525090806001815401808255809150506001900390600052602060002090600202016000909190919091506000820151816000019080519060200190611ea1929190614a0d565b5060208201518160010155505080600980019080519060200190611ec6929190614a0d565b507f39b28594242c42fce47a0a6e63bac12adbd07fbb35580f5a54b236858101d58a813342604051611efa93929190616645565b60405180910390a150565b606060048054611f1490616f5c565b80601f0160208091040260200160405190810160405280929190818152602001828054611f4090616f5c565b8015611f8d5780601f10611f6257610100808354040283529160200191611f8d565b820191906000526020600020905b815481529060010190602001808311611f7057829003601f168201915b5050505050905090565b6000600960110160009054906101000a900460ff1615611fec576040517f08c379a0000000000000000000000000000000000000000000000000000000008152600401611fe390616823565b60405180910390fd5b611ff4613c42565b905090565b6000806000612009846006613acf565b915091508161201f5761201a6109f2565b612021565b805b92505050919050565b6060601e805480602002602001604051908101604052809291908181526020016000905b8282101561211c578382906000526020600020906002020160405180604001604052908160008201805461208190616f5c565b80601f01602080910402602001604051908101604052809291908181526020018280546120ad90616f5c565b80156120fa5780601f106120cf576101008083540402835291602001916120fa565b820191906000526020600020905b8154815290600101906020018083116120dd57829003601f168201915b505050505081526020016001820154815250508152602001906001019061204e565b50505050905090565b6000600960040160009054906101000a900473ffffffffffffffffffffffffffffffffffffffff16905090565b600960110160009054906101000a900460ff16156121a5576040517f08c379a000000000000000000000000000000000000000000000000000000000815260040161219c90616823565b60405180910390fd5b80602460003373ffffffffffffffffffffffffffffffffffffffff1673ffffffffffffffffffffffffffffffffffffffff168152602001908152602001600020541015612227576040517f08c379a000000000000000000000000000000000000000000000000000000000815260040161221e90616863565b60405180910390fd5b61223182826123fd565b50806009600f0160008282546122479190616e91565b9250508190555080602460003373ffffffffffffffffffffffffffffffffffffffff1673ffffffffffffffffffffffffffffffffffffffff168152602001908152602001600020600082825461229d9190616e91565b925050819055508173ffffffffffffffffffffffffffffffffffffffff167f699d5f84f6dae9955e8356c381cd66833fa0ff5503825a42148187a22202e6593383426040516122ee939291906164d3565b60405180910390a25050565b60216020528060005260406000206000915090505481565b60008060016000612321613472565b73ffffffffffffffffffffffffffffffffffffffff1673ffffffffffffffffffffffffffffffffffffffff16815260200190815260200160002060008573ffffffffffffffffffffffffffffffffffffffff1673ffffffffffffffffffffffffffffffffffffffff168152602001908152602001600020549050828110156123de576040517f08c379a00000000000000000000000000000000000000000000000000000000081526004016123d590616a23565b60405180910390fd5b6123f26123e9613472565b8585840361347a565b600191505092915050565b60003383600061240b613645565b90503073ffffffffffffffffffffffffffffffffffffffff168373ffffffffffffffffffffffffffffffffffffffff16148061244c575061244b83613672565b5b80156124dd57508073ffffffffffffffffffffffffffffffffffffffff16633657e851836040518263ffffffff1660e01b815260040161248c91906163dc565b60206040518083038186803b1580156124a457600080fd5b505afa1580156124b8573d6000803e3d6000fd5b505050506040513d601f19601f820116820180604052508101906124dc9190615139565b5b806125b457503073ffffffffffffffffffffffffffffffffffffffff168273ffffffffffffffffffffffffffffffffffffffff161480612522575061252182613672565b5b80156125b357508073ffffffffffffffffffffffffffffffffffffffff16633657e851846040518263ffffffff1660e01b815260040161256291906163dc565b60206040518083038186803b15801561257a57600080fd5b505afa15801561258e573d6000803e3d6000fd5b505050506040513d601f19601f820116820180604052508101906125b29190615139565b5b5b6125f3576040517f08c379a00000000000000000000000000000000000000000000000000000000081526004016125ea906168e3565b60405180910390fd5b6125fd8686613c98565b935050505092915050565b60606020805480602002602001604051908101604052809291908181526020016000905b828210156126d257838290600052602060002090600402016040518060800160405290816000820160009054906101000a900473ffffffffffffffffffffffffffffffffffffffff1673ffffffffffffffffffffffffffffffffffffffff1673ffffffffffffffffffffffffffffffffffffffff16815260200160018201548152602001600282015481526020016003820154815250508152602001906001019061262c565b50505050905090565b600960110160009054906101000a900460ff161561272e576040517f08c379a000000000000000000000000000000000000000000000000000000000815260040161272590616823565b60405180910390fd5b600960050160009054906101000a900473ffffffffffffffffffffffffffffffffffffffff1673ffffffffffffffffffffffffffffffffffffffff163373ffffffffffffffffffffffffffffffffffffffff16146127c1576040517f08c379a00000000000000000000000000000000000000000000000000000000081526004016127b890616963565b60405180910390fd5b60005b815181101561282957612816828281518110612809577f4e487b7100000000000000000000000000000000000000000000000000000000600052603260045260246000fd5b6020026020010151612c03565b808061282190616f8e565b9150506127c4565b506009601001546009600f015414612876576040517f08c379a000000000000000000000000000000000000000000000000000000000815260040161286d906169e3565b60405180910390fd5b60006009600f01546128866109f2565b6128909190616e91565b905060006128a3826009600e0154613cb6565b905060008111156128e3576128e23330836128bc613beb565b73ffffffffffffffffffffffffffffffffffffffff16613cfd909392919063ffffffff16565b5b6001600960110160006101000a81548160ff02191690831515021790555080600960120181905550426009601301819055507f5b139eba78ea635d9730fabca1ca3904a0984d47bc5a7dd5366083847d0875ef3382844260405161294a949392919061655d565b60405180910390a1505050565b600960110160009054906101000a900460ff16156129aa576040517f08c379a00000000000000000000000000000000000000000000000000000000081526004016129a190616823565b60405180910390fd5b806129b533306133d8565b10156129f6576040517f08c379a00000000000000000000000000000000000000000000000000000000081526004016129ed906166c3565b60405180910390fd5b612a01333083610ee7565b508173ffffffffffffffffffffffffffffffffffffffff16630b9722eb33836040518363ffffffff1660e01b8152600401612a3d9291906164aa565b600060405180830381600087803b158015612a5757600080fd5b505af1158015612a6b573d6000803e3d6000fd5b50505050806009600f016000828254612a849190616c3f565b9250508190555080602460008473ffffffffffffffffffffffffffffffffffffffff1673ffffffffffffffffffffffffffffffffffffffff1681526020019081526020016000206000828254612ada9190616c3f565b925050819055503373ffffffffffffffffffffffffffffffffffffffff167f1275fd48486cbb7d356cea1842e2a40652ce8d0186eeddda588ef2b5f4a4213b838342604051612b2b939291906164d3565b60405180910390a25050565b6060601f805480602002602001604051908101604052809291908181526020016000905b82821015612bfa578382906000526020600020016040518060400160405290816000820160009054906101000a900473ffffffffffffffffffffffffffffffffffffffff1673ffffffffffffffffffffffffffffffffffffffff1673ffffffffffffffffffffffffffffffffffffffff1681526020016000820160149054906101000a900460ff16151515158152505081526020019060010190612b5b565b50505050905090565b600960110160009054906101000a900460ff1615612c56576040517f08c379a0000000000000000000000000000000000000000000000000000000008152600401612c4d90616823565b60405180910390fd5b600960050160009054906101000a900473ffffffffffffffffffffffffffffffffffffffff1673ffffffffffffffffffffffffffffffffffffffff163373ffffffffffffffffffffffffffffffffffffffff1614612ce9576040517f08c379a0000000000000000000000000000000000000000000000000000000008152600401612ce090616963565b60405180910390fd5b600073ffffffffffffffffffffffffffffffffffffffff168173ffffffffffffffffffffffffffffffffffffffff161415612d59576040517f08c379a0000000000000000000000000000000000000000000000000000000008152600401612d5090616883565b60405180910390fd5b6000602460008373ffffffffffffffffffffffffffffffffffffffff1673ffffffffffffffffffffffffffffffffffffffff1681526020019081526020016000205411612ddb576040517f08c379a0000000000000000000000000000000000000000000000000000000008152600401612dd290616843565b60405180910390fd5b600081905060008173ffffffffffffffffffffffffffffffffffffffff1663fe3298286040518163ffffffff1660e01b815260040160206040518083038186803b158015612e2857600080fd5b505afa158015612e3c573d6000803e3d6000fd5b505050506040513d601f19601f82011682018060405250810190612e60919061524e565b9050612f1333848473ffffffffffffffffffffffffffffffffffffffff1663fe3298286040518163ffffffff1660e01b815260040160206040518083038186803b158015612ead57600080fd5b505afa158015612ec1573d6000803e3d6000fd5b505050506040513d601f19601f82011682018060405250810190612ee5919061524e565b612eed613beb565b73ffffffffffffffffffffffffffffffffffffffff16613cfd909392919063ffffffff16565b60008273ffffffffffffffffffffffffffffffffffffffff166328a070256040518163ffffffff1660e01b8152600401602060405180830381600087803b158015612f5d57600080fd5b505af1158015612f71573d6000803e3d6000fd5b505050506040513d601f19601f82011682018060405250810190612f95919061524e565b9050602460008573ffffffffffffffffffffffffffffffffffffffff1673ffffffffffffffffffffffffffffffffffffffff168152602001908152602001600020548114613018576040517f08c379a000000000000000000000000000000000000000000000000000000000815260040161300f90616723565b60405180910390fd5b806009601001600082825461302d9190616c3f565b925050819055506000602460008673ffffffffffffffffffffffffffffffffffffffff1673ffffffffffffffffffffffffffffffffffffffff168152602001908152602001600020819055507ffad7c8d28e13a8bcb9811313bbe6330556ca68eec9be6c4d8882a6999f0ba7e833838387426040516130b095949392919061650a565b60405180910390a150505050565b600960110160009054906101000a900460ff16613110576040517f08c379a0000000000000000000000000000000000000000000000000000000008152600401613107906167e3565b60405180910390fd5b600960070160019054906101000a900460ff1615806131bb5750613132613645565b73ffffffffffffffffffffffffffffffffffffffff16633657e851826040518263ffffffff1660e01b815260040161316a91906163dc565b60206040518083038186803b15801561318257600080fd5b505afa158015613196573d6000803e3d6000fd5b505050506040513d601f19601f820116820180604052508101906131ba9190615139565b5b6131fa576040517f08c379a00000000000000000000000000000000000000000000000000000000081526004016131f1906166e3565b60405180910390fd5b600061320682306133d8565b90506000811161324b576040517f08c379a000000000000000000000000000000000000000000000000000000000815260040161324290616a03565b60405180910390fd5b60006132556109f2565b600960120154836132669190616e37565b6132709190616c95565b9050600081116132b5576040517f08c379a00000000000000000000000000000000000000000000000000000000081526004016132ac906168c3565b60405180910390fd5b6132e783826132c2613beb565b73ffffffffffffffffffffffffffffffffffffffff16613d869092919063ffffffff16565b6132f2833084610ee7565b5080602360008573ffffffffffffffffffffffffffffffffffffffff1673ffffffffffffffffffffffffffffffffffffffff16815260200190815260200160002060008282546133429190616c3f565b92505081905550806009601401600082825461335e9190616c3f565b925050819055508273ffffffffffffffffffffffffffffffffffffffff167f2aec1c87f3bc903aa0be5af816e24360e038c884cb96b991091f860698e3a25982426040516133ad929190616a80565b60405180910390a2505050565b61271081565b60246020528060005260406000206000915090505481565b6000600160008473ffffffffffffffffffffffffffffffffffffffff1673ffffffffffffffffffffffffffffffffffffffff16815260200190815260200160002060008373ffffffffffffffffffffffffffffffffffffffff1673ffffffffffffffffffffffffffffffffffffffff16815260200190815260200160002054905092915050565b505050565b600081600001549050919050565b600033905090565b600073ffffffffffffffffffffffffffffffffffffffff168373ffffffffffffffffffffffffffffffffffffffff1614156134ea576040517f08c379a00000000000000000000000000000000000000000000000000000000081526004016134e190616903565b60405180910390fd5b600073ffffffffffffffffffffffffffffffffffffffff168273ffffffffffffffffffffffffffffffffffffffff16141561355a576040517f08c379a000000000000000000000000000000000000000000000000000000000815260040161355190616703565b60405180910390fd5b80600160008573ffffffffffffffffffffffffffffffffffffffff1673ffffffffffffffffffffffffffffffffffffffff16815260200190815260200160002060008473ffffffffffffffffffffffffffffffffffffffff1673ffffffffffffffffffffffffffffffffffffffff168152602001908152602001600020819055508173ffffffffffffffffffffffffffffffffffffffff168373ffffffffffffffffffffffffffffffffffffffff167f8c5be1e5ebec7d5bd14f71427d1e84f3dd0314c0f7b2291e5b200ac8c7c3b925836040516136389190616a65565b60405180910390a3505050565b6000600960070160039054906101000a900473ffffffffffffffffffffffffffffffffffffffff16905090565b6000600960050160009054906101000a900473ffffffffffffffffffffffffffffffffffffffff1673ffffffffffffffffffffffffffffffffffffffff168273ffffffffffffffffffffffffffffffffffffffff16631865c57d6040518163ffffffff1660e01b815260040160006040518083038186803b1580156136f657600080fd5b505afa15801561370a573d6000803e3d6000fd5b505050506040513d6000823e3d601f19601f8201168201806040525081019061373391906151a3565b60a0015173ffffffffffffffffffffffffffffffffffffffff16141561375c576001905061380a565b61376582613e0c565b1561380557601f602160008473ffffffffffffffffffffffffffffffffffffffff1673ffffffffffffffffffffffffffffffffffffffff16815260200190815260200160002054815481106137e3577f4e487b7100000000000000000000000000000000000000000000000000000000600052603260045260246000fd5b9060005260206000200160000160149054906101000a900460ff16905061380a565b600090505b919050565b600061381c848484613f2e565b6000600160008673ffffffffffffffffffffffffffffffffffffffff1673ffffffffffffffffffffffffffffffffffffffff1681526020019081526020016000206000613867613472565b73ffffffffffffffffffffffffffffffffffffffff1673ffffffffffffffffffffffffffffffffffffffff168152602001908152602001600020549050828110156138e7576040517f08c379a00000000000000000000000000000000000000000000000000000000081526004016138de90616803565b60405180910390fd5b6138fb856138f3613472565b85840361347a565b60019150509392505050565b61391082613e0c565b156139b85780601f602160008573ffffffffffffffffffffffffffffffffffffffff1673ffffffffffffffffffffffffffffffffffffffff168152602001908152602001600020548154811061398f577f4e487b7100000000000000000000000000000000000000000000000000000000600052603260045260246000fd5b9060005260206000200160000160146101000a81548160ff021916908315150217905550613acb565b601f60405180604001604052808473ffffffffffffffffffffffffffffffffffffffff1681526020018315158152509080600181540180825580915050600190039060005260206000200160009091909190915060008201518160000160006101000a81548173ffffffffffffffffffffffffffffffffffffffff021916908373ffffffffffffffffffffffffffffffffffffffff16021790555060208201518160000160146101000a81548160ff02191690831515021790555050506001601f80549050613a879190616e91565b602160008473ffffffffffffffffffffffffffffffffffffffff1673ffffffffffffffffffffffffffffffffffffffff168152602001908152602001600020819055505b5050565b60008060008411613b15576040517f08c379a0000000000000000000000000000000000000000000000000000000008152600401613b0c90616983565b60405180910390fd5b613b1d6141af565b841115613b5f576040517f08c379a0000000000000000000000000000000000000000000000000000000008152600401613b5690616683565b60405180910390fd5b6000613b7785856000016141c090919063ffffffff16565b90508360000180549050811415613b95576000809250925050613be4565b6001846001018281548110613bd3577f4e487b7100000000000000000000000000000000000000000000000000000000600052603260045260246000fd5b906000526020600020015492509250505b9250929050565b6000613bf56142e6565b905090565b60008060008373ffffffffffffffffffffffffffffffffffffffff1673ffffffffffffffffffffffffffffffffffffffff168152602001908152602001600020549050919050565b6000613c4e600861437b565b6000613c586141af565b90507f8030e83b04d87bef53480e26263266d6ca66863aa8506aca6f2559d18aa1cb6781604051613c899190616a65565b60405180910390a18091505090565b6000613cac613ca5613472565b8484613f2e565b6001905092915050565b6000612710613cc3614391565b613ccd9190616e37565b613cd56143ac565b8385613ce19190616e37565b613ceb9190616e37565b613cf59190616c95565b905092915050565b613d80846323b872dd60e01b858585604051602401613d1e9392919061643c565b604051602081830303815290604052907bffffffffffffffffffffffffffffffffffffffffffffffffffffffff19166020820180517bffffffffffffffffffffffffffffffffffffffffffffffffffffffff838183161783525050505061443b565b50505050565b613e078363a9059cbb60e01b8484604051602401613da59291906164aa565b604051602081830303815290604052907bffffffffffffffffffffffffffffffffffffffffffffffffffffffff19166020820180517bffffffffffffffffffffffffffffffffffffffffffffffffffffffff838183161783525050505061443b565b505050565b600080602160008473ffffffffffffffffffffffffffffffffffffffff1673ffffffffffffffffffffffffffffffffffffffff1681526020019081526020016000205490506000601f805490501415613e69576000915050613f29565b601f805490508110613e7f576000915050613f29565b8273ffffffffffffffffffffffffffffffffffffffff16601f8281548110613ed0577f4e487b7100000000000000000000000000000000000000000000000000000000600052603260045260246000fd5b9060005260206000200160000160009054906101000a900473ffffffffffffffffffffffffffffffffffffffff1673ffffffffffffffffffffffffffffffffffffffff1614613f23576000915050613f29565b60019150505b919050565b600073ffffffffffffffffffffffffffffffffffffffff168373ffffffffffffffffffffffffffffffffffffffff161415613f9e576040517f08c379a0000000000000000000000000000000000000000000000000000000008152600401613f95906168a3565b60405180910390fd5b600073ffffffffffffffffffffffffffffffffffffffff168273ffffffffffffffffffffffffffffffffffffffff16141561400e576040517f08c379a0000000000000000000000000000000000000000000000000000000008152600401614005906166a3565b60405180910390fd5b614019838383614502565b60008060008573ffffffffffffffffffffffffffffffffffffffff1673ffffffffffffffffffffffffffffffffffffffff1681526020019081526020016000205490508181101561409f576040517f08c379a000000000000000000000000000000000000000000000000000000000815260040161409690616763565b60405180910390fd5b8181036000808673ffffffffffffffffffffffffffffffffffffffff1673ffffffffffffffffffffffffffffffffffffffff16815260200190815260200160002081905550816000808573ffffffffffffffffffffffffffffffffffffffff1673ffffffffffffffffffffffffffffffffffffffff16815260200190815260200160002060008282546141329190616c3f565b925050819055508273ffffffffffffffffffffffffffffffffffffffff168473ffffffffffffffffffffffffffffffffffffffff167fddf252ad1be2c89b69c2b068fc378daa952ba7f163c4a11628f55a4df523b3ef846040516141969190616a65565b60405180910390a36141a98484846145bc565b50505050565b60006141bb6008613464565b905090565b600080838054905014156141d757600090506142e0565b600080848054905090505b808210156142615760006141f683836145c1565b905084868281548110614232577f4e487b7100000000000000000000000000000000000000000000000000000000600052603260045260246000fd5b9060005260206000200154111561424b5780915061425b565b6001816142589190616c3f565b92505b506141e2565b6000821180156142bf5750838560018461427b9190616e91565b815481106142b2577f4e487b7100000000000000000000000000000000000000000000000000000000600052603260045260246000fd5b9060005260206000200154145b156142da576001826142d19190616e91565b925050506142e0565b81925050505b92915050565b60006142f0613645565b73ffffffffffffffffffffffffffffffffffffffff16631865c57d6040518163ffffffff1660e01b815260040160006040518083038186803b15801561433557600080fd5b505afa158015614349573d6000803e3d6000fd5b505050506040513d6000823e3d601f19601f8201168201806040525081019061437291906151e4565b60a00151905090565b6001816000016000828254019250508190555050565b600061439b611429565b600a6143a79190616d19565b905090565b60006143b66142e6565b73ffffffffffffffffffffffffffffffffffffffff1663313ce5676040518163ffffffff1660e01b815260040160206040518083038186803b1580156143fb57600080fd5b505afa15801561440f573d6000803e3d6000fd5b505050506040513d601f19601f820116820180604052508101906144339190615277565b60ff16905090565b600061449d826040518060400160405280602081526020017f5361666545524332303a206c6f772d6c6576656c2063616c6c206661696c65648152508573ffffffffffffffffffffffffffffffffffffffff166145e79092919063ffffffff16565b90506000815111156144fd57808060200190518101906144bd9190615139565b6144fc576040517f08c379a00000000000000000000000000000000000000000000000000000000081526004016144f3906169c3565b60405180910390fd5b5b505050565b61450d83838361345f565b600073ffffffffffffffffffffffffffffffffffffffff168373ffffffffffffffffffffffffffffffffffffffff1614156145585761454b826145ff565b614553614652565b6145b7565b600073ffffffffffffffffffffffffffffffffffffffff168273ffffffffffffffffffffffffffffffffffffffff1614156145a357614596836145ff565b61459e614652565b6145b6565b6145ac836145ff565b6145b5826145ff565b5b5b505050565b505050565b600060028284186145d29190616c95565b8284166145df9190616c3f565b905092915050565b60606145f68484600085614666565b90509392505050565b61464f600560008373ffffffffffffffffffffffffffffffffffffffff1673ffffffffffffffffffffffffffffffffffffffff16815260200190815260200160002061464a836116b9565b61477a565b50565b614664600661465f6109f2565b61477a565b565b6060824710156146ab576040517f08c379a00000000000000000000000000000000000000000000000000000000081526004016146a290616783565b60405180910390fd5b6146b4856147f5565b6146f3576040517f08c379a00000000000000000000000000000000000000000000000000000000081526004016146ea90616923565b60405180910390fd5b6000808673ffffffffffffffffffffffffffffffffffffffff16858760405161471c91906163c5565b60006040518083038185875af1925050503d8060008114614759576040519150601f19603f3d011682016040523d82523d6000602084013e61475e565b606091505b509150915061476e828286614808565b92505050949350505050565b60006147846141af565b9050806147938460000161486f565b10156147f05782600001819080600181540180825580915050600190039060005260206000200160009091909190915055826001018290806001815401808255809150506001900390600052602060002001600090919091909150555b505050565b600080823b905060008111915050919050565b6060831561481857829050614868565b60008351111561482b5782518084602001fd5b816040517f08c379a000000000000000000000000000000000000000000000000000000000815260040161485f9190616623565b60405180910390fd5b9392505050565b6000808280549050141561488657600090506148dd565b81600183805490506148989190616e91565b815481106148cf577f4e487b7100000000000000000000000000000000000000000000000000000000600052603260045260246000fd5b906000526020600020015490505b919050565b60405180610300016040528060008152602001600073ffffffffffffffffffffffffffffffffffffffff1681526020016060815260200160008152602001600073ffffffffffffffffffffffffffffffffffffffff168152602001600073ffffffffffffffffffffffffffffffffffffffff16815260200160008152602001600015158152602001600015158152602001600015158152602001600073ffffffffffffffffffffffffffffffffffffffff168152602001600073ffffffffffffffffffffffffffffffffffffffff16815260200160608152602001606081526020016060815260200160008152602001600081526020016000815260200160008152602001600081526020016000151581526020016000815260200160008152602001600081525090565b828054614a1990616f5c565b90600052602060002090601f016020900481019282614a3b5760008555614a82565b82601f10614a5457805160ff1916838001178555614a82565b82800160010185558215614a82579182015b82811115614a81578251825591602001919060010190614a66565b5b509050614a8f9190614a93565b5090565b5b80821115614aac576000816000905550600101614a94565b5090565b6000614ac3614abe84616af5565b616ac4565b90508083825260208201905082856020860282011115614ae257600080fd5b60005b85811015614b125781614af88882614b98565b845260208401935060208301925050600181019050614ae5565b5050509392505050565b6000614b2f614b2a84616b21565b616ac4565b905082815260208101848484011115614b4757600080fd5b614b52848285616f1a565b509392505050565b6000614b6d614b6884616b21565b616ac4565b905082815260208101848484011115614b8557600080fd5b614b90848285616f29565b509392505050565b600081359050614ba7816170b1565b92915050565b600081519050614bbc816170b1565b92915050565b600082601f830112614bd357600080fd5b8135614be3848260208601614ab0565b91505092915050565b600081359050614bfb816170c8565b92915050565b600081519050614c10816170c8565b92915050565b600082601f830112614c2757600080fd5b8135614c37848260208601614b1c565b91505092915050565b600082601f830112614c5157600080fd5b8151614c61848260208601614b5a565b91505092915050565b60006102e08284031215614c7d57600080fd5b614c886102e0616ac4565b90506000614c9884828501614fb5565b6000830152506020614cac84828501614bad565b602083015250604082015167ffffffffffffffff811115614ccc57600080fd5b614cd884828501614c40565b6040830152506060614cec84828501614fb5565b6060830152506080614d0084828501614bad565b60808301525060a0614d1484828501614bad565b60a08301525060c0614d2884828501614bad565b60c08301525060e0614d3c84828501614bad565b60e083015250610100614d5184828501614bad565b61010083015250610120614d6784828501614fb5565b61012083015250610140614d7d84828501614fb5565b61014083015250610160614d9384828501614fb5565b61016083015250610180614da984828501614fb5565b610180830152506101a0614dbf84828501614c01565b6101a0830152506101c0614dd584828501614c01565b6101c0830152506101e0614deb84828501614c01565b6101e083015250610200614e0184828501614fb5565b61020083015250610220614e1784828501614fb5565b61022083015250610240614e2d84828501614fb5565b61024083015250610260614e4384828501614fb5565b61026083015250610280614e5984828501614fb5565b610280830152506102a0614e6f84828501614fb5565b6102a0830152506102c082015167ffffffffffffffff811115614e9157600080fd5b614e9d84828501614c40565b6102c08301525092915050565b60006101008284031215614ebd57600080fd5b614ec8610100616ac4565b90506000614ed884828501614fb5565b6000830152506020614eec84828501614bad565b602083015250604082015167ffffffffffffffff811115614f0c57600080fd5b614f1884828501614c40565b6040830152506060614f2c84828501614bad565b6060830152506080614f4084828501614bad565b60808301525060a0614f5484828501614bad565b60a08301525060c0614f6884828501614bad565b60c08301525060e082015167ffffffffffffffff811115614f8857600080fd5b614f9484828501614c40565b60e08301525092915050565b600081359050614faf816170df565b92915050565b600081519050614fc4816170df565b92915050565b600081519050614fd9816170f6565b92915050565b600060208284031215614ff157600080fd5b6000614fff84828501614b98565b91505092915050565b6000806040838503121561501b57600080fd5b600061502985828601614b98565b925050602061503a85828601614b98565b9150509250929050565b60008060006060848603121561505957600080fd5b600061506786828701614b98565b935050602061507886828701614b98565b925050604061508986828701614fa0565b9150509250925092565b600080604083850312156150a657600080fd5b60006150b485828601614b98565b92505060206150c585828601614fa0565b9150509250929050565b6000602082840312156150e157600080fd5b600082013567ffffffffffffffff8111156150fb57600080fd5b61510784828501614bc2565b91505092915050565b60006020828403121561512257600080fd5b600061513084828501614bec565b91505092915050565b60006020828403121561514b57600080fd5b600061515984828501614c01565b91505092915050565b60006020828403121561517457600080fd5b600082013567ffffffffffffffff81111561518e57600080fd5b61519a84828501614c16565b91505092915050565b6000602082840312156151b557600080fd5b600082015167ffffffffffffffff8111156151cf57600080fd5b6151db84828501614c6a565b91505092915050565b6000602082840312156151f657600080fd5b600082015167ffffffffffffffff81111561521057600080fd5b61521c84828501614eaa565b91505092915050565b60006020828403121561523757600080fd5b600061524584828501614fa0565b91505092915050565b60006020828403121561526057600080fd5b600061526e84828501614fb5565b91505092915050565b60006020828403121561528957600080fd5b600061529784828501614fca565b91505092915050565b60006152ac83836162d7565b905092915050565b60006152c08383616314565b60808301905092915050565b60006152d88383616369565b60408301905092915050565b6152ed81616ec5565b82525050565b6152fc81616ec5565b82525050565b600061530d82616b81565b6153178185616bdf565b93508360208202850161532985616b51565b8060005b85811015615365578484038952815161534685826152a0565b945061535183616bb8565b925060208a0199505060018101905061532d565b50829750879550505050505092915050565b600061538282616b8c565b61538c8185616bf0565b935061539783616b61565b8060005b838110156153c85781516153af88826152b4565b97506153ba83616bc5565b92505060018101905061539b565b5085935050505092915050565b60006153e082616b97565b6153ea8185616c01565b93506153f583616b71565b8060005b8381101561542657815161540d88826152cc565b975061541883616bd2565b9250506001810190506153f9565b5085935050505092915050565b61543c81616ed7565b82525050565b61544b81616ed7565b82525050565b600061545c82616ba2565b6154668185616c12565b9350615476818560208601616f29565b80840191505092915050565b600061548d82616bad565b6154978185616c1d565b93506154a7818560208601616f29565b6154b081617093565b840191505092915050565b60006154c682616bad565b6154d08185616c2e565b93506154e0818560208601616f29565b6154e981617093565b840191505092915050565b6000615501601d83616c2e565b91507f4552433230536e617073686f743a206e6f6e6578697374656e742069640000006000830152602082019050919050565b6000615541602383616c2e565b91507f45524332303a207472616e7366657220746f20746865207a65726f206164647260008301527f65737300000000000000000000000000000000000000000000000000000000006020830152604082019050919050565b60006155a7602783616c2e565b91507f41737365743a204d697373696e6720616c6c6f77616e636520666f7220746f6b60008301527f656e206c6f636b000000000000000000000000000000000000000000000000006020830152604082019050919050565b600061560d604483616c2e565b91507f41737365743a2077616c6c6574206d7573742062652077686974656c6973746560008301527f64206265666f726520636c61696d696e67206c69717569646174696f6e20736860208301527f6172652e000000000000000000000000000000000000000000000000000000006040830152606082019050919050565b6000615699602283616c2e565b91507f45524332303a20617070726f766520746f20746865207a65726f20616464726560008301527f73730000000000000000000000000000000000000000000000000000000000006020830152604082019050919050565b60006156ff604883616c2e565b91507f41737365743a204c69717569646174656420746f6b656e7320737570706c792060008301527f646f6573206e6f74206d6174636820746865206c6f636b656420746f6b656e7360208301527f20737570706c792e0000000000000000000000000000000000000000000000006040830152606082019050919050565b600061578b602e83616c2e565b91507f41737365743a204f6e6c7920697373756572206f776e65722063616e206d616b60008301527f65207468697320616374696f6e2e0000000000000000000000000000000000006020830152604082019050919050565b60006157f1602683616c2e565b91507f45524332303a207472616e7366657220616d6f756e742065786365656473206260008301527f616c616e636500000000000000000000000000000000000000000000000000006020830152604082019050919050565b6000615857602683616c2e565b91507f416464726573733a20696e73756666696369656e742062616c616e636520666f60008301527f722063616c6c00000000000000000000000000000000000000000000000000006020830152604082019050919050565b60006158bd601d83616c2e565b91507f41737365743a2043616d706169676e206e6f7420617070726f7665642e0000006000830152602082019050919050565b60006158fd605783616c2e565b91507f41737365743a2043616d706169676e20686173207369676e616c6c656420746860008301527f652073616c652066696e616c697a6174696f6e206275742063616d706169676e60208301527f20746f6b656e7320617265206e6f742070726573656e740000000000000000006040830152606082019050919050565b6000615989601583616c2e565b91507f41737365743a206e6f74206c69717569646174656400000000000000000000006000830152602082019050919050565b60006159c9602883616c2e565b91507f45524332303a207472616e7366657220616d6f756e742065786365656473206160008301527f6c6c6f77616e63650000000000000000000000000000000000000000000000006020830152604082019050919050565b6000615a2f602a83616c2e565b91507f41737365743a20416374696f6e20666f7262696464656e2c206173736574206c60008301527f6971756964617465642e000000000000000000000000000000000000000000006020830152604082019050919050565b6000615a95603783616c2e565b91507f41737365743a204e6f20746f6b656e73206d6972726f726564206f6e2074686560008301527f2070726f766964656420746f6b656e20616464726573730000000000000000006020830152604082019050919050565b6000615afb602a83616c2e565b91507f41737365743a20696e737566666963656e7420616d6f756e74206f66206c6f6360008301527f6b656420746f6b656e73000000000000000000000000000000000000000000006020830152604082019050919050565b6000615b61602583616c2e565b91507f41737365743a20496e76616c6964206d6972726f72656420746f6b656e20616460008301527f64726573730000000000000000000000000000000000000000000000000000006020830152604082019050919050565b6000615bc7602583616c2e565b91507f45524332303a207472616e736665722066726f6d20746865207a65726f20616460008301527f64726573730000000000000000000000000000000000000000000000000000006020830152604082019050919050565b6000615c2d602483616c2e565b91507f41737365743a206e6f206c69717569646174696f6e2066756e647320746f206360008301527f6c61696d000000000000000000000000000000000000000000000000000000006020830152604082019050919050565b6000615c93603983616c2e565b91507f41737365743a204e6f74207472616e7366657261626c652e204f6e6c7920746f60008301527f6b656e206d6972726f72696e6720697320616c6c6f7765642e000000000000006020830152604082019050919050565b6000615cf9602483616c2e565b91507f45524332303a20617070726f76652066726f6d20746865207a65726f2061646460008301527f72657373000000000000000000000000000000000000000000000000000000006020830152604082019050919050565b6000615d5f601d83616c2e565b91507f416464726573733a2063616c6c20746f206e6f6e2d636f6e74726163740000006000830152602082019050919050565b6000615d9f601d83616c2e565b91507f41737365743a2043616d706169676e206e6f742066696e616c697a65640000006000830152602082019050919050565b6000615ddf602f83616c2e565b91507f41737365743a204f6e6c792061737365742063726561746f722063616e206d6160008301527f6b65207468697320616374696f6e2e00000000000000000000000000000000006020830152604082019050919050565b6000615e45601683616c2e565b91507f4552433230536e617073686f743a2069642069732030000000000000000000006000830152602082019050919050565b6000615e85605483616c2e565b91507f41737365743a2043616d706169676e20686173207369676e616c6c656420746860008301527f652073616c652066696e616c697a6174696f6e2062757420726169736564206660208301527f756e647320617265206e6f742070726573656e740000000000000000000000006040830152606082019050919050565b6000615f11602a83616c2e565b91507f5361666545524332303a204552433230206f7065726174696f6e20646964206e60008301527f6f742073756363656564000000000000000000000000000000000000000000006020830152604082019050919050565b6000615f77604183616c2e565b91507f41737365743a2043616e2774206c6971756964617465206f726967696e616c2060008301527f746f6b656e2e204c6971756964617465206d6972726f72656420746f6b656e7360208301527f21000000000000000000000000000000000000000000000000000000000000006040830152606082019050919050565b6000616003603883616c2e565b91507f41737365743a206e6f20746f6b656e7320617070726f76656420666f7220636c60008301527f61696d696e67206c69717569646174696f6e20736861726500000000000000006020830152604082019050919050565b6000616069602583616c2e565b91507f45524332303a2064656372656173656420616c6c6f77616e63652062656c6f7760008301527f207a65726f0000000000000000000000000000000000000000000000000000006020830152604082019050919050565b6000610300830160008301516160db6000860182616398565b5060208301516160ee60208601826152e4565b50604083015184820360408601526161068282615482565b915050606083015161611b6060860182616398565b50608083015161612e60808601826152e4565b5060a083015161614160a08601826152e4565b5060c083015161615460c0860182616398565b5060e083015161616760e0860182615433565b5061010083015161617c610100860182615433565b50610120830151616191610120860182615433565b506101408301516161a66101408601826152e4565b506101608301516161bb6101608601826152e4565b506101808301518482036101808601526161d58282615482565b9150506101a08301518482036101a08601526161f18282615482565b9150506101c08301518482036101c086015261620d8282615482565b9150506101e08301516162246101e0860182616398565b50610200830151616239610200860182616398565b5061022083015161624e610220860182616398565b50610240830151616263610240860182616398565b50610260830151616278610260860182616398565b5061028083015161628d610280860182615433565b506102a08301516162a26102a0860182616398565b506102c08301516162b76102c0860182616398565b506102e08301516162cc6102e0860182616398565b508091505092915050565b600060408301600083015184820360008601526162f48282615482565b91505060208301516163096020860182616398565b508091505092915050565b60808201600082015161632a60008501826152e4565b50602082015161633d6020850182616398565b5060408201516163506040850182616398565b5060608201516163636060850182616398565b50505050565b60408201600082015161637f60008501826152e4565b5060208201516163926020850182615433565b50505050565b6163a181616f03565b82525050565b6163b081616f03565b82525050565b6163bf81616f0d565b82525050565b60006163d18284615451565b915081905092915050565b60006020820190506163f160008301846152f3565b92915050565b600060808201905061640c60008301876152f3565b61641960208301866152f3565b6164266040830185615442565b61643360608301846163a7565b95945050505050565b600060608201905061645160008301866152f3565b61645e60208301856152f3565b61646b60408301846163a7565b949350505050565b600060608201905061648860008301866152f3565b6164956020830185615442565b6164a260408301846163a7565b949350505050565b60006040820190506164bf60008301856152f3565b6164cc60208301846163a7565b9392505050565b60006060820190506164e860008301866152f3565b6164f560208301856163a7565b61650260408301846163a7565b949350505050565b600060a08201905061651f60008301886152f3565b61652c60208301876163a7565b61653960408301866163a7565b61654660608301856152f3565b61655360808301846163a7565b9695505050505050565b600060808201905061657260008301876152f3565b61657f60208301866163a7565b61658c60408301856163a7565b61659960608301846163a7565b95945050505050565b600060208201905081810360008301526165bc8184615302565b905092915050565b600060208201905081810360008301526165de8184615377565b905092915050565b6000602082019050818103600083015261660081846153d5565b905092915050565b600060208201905061661d6000830184615442565b92915050565b6000602082019050818103600083015261663d81846154bb565b905092915050565b6000606082019050818103600083015261665f81866154bb565b905061666e60208301856152f3565b61667b60408301846163a7565b949350505050565b6000602082019050818103600083015261669c816154f4565b9050919050565b600060208201905081810360008301526166bc81615534565b9050919050565b600060208201905081810360008301526166dc8161559a565b9050919050565b600060208201905081810360008301526166fc81615600565b9050919050565b6000602082019050818103600083015261671c8161568c565b9050919050565b6000602082019050818103600083015261673c816156f2565b9050919050565b6000602082019050818103600083015261675c8161577e565b9050919050565b6000602082019050818103600083015261677c816157e4565b9050919050565b6000602082019050818103600083015261679c8161584a565b9050919050565b600060208201905081810360008301526167bc816158b0565b9050919050565b600060208201905081810360008301526167dc816158f0565b9050919050565b600060208201905081810360008301526167fc8161597c565b9050919050565b6000602082019050818103600083015261681c816159bc565b9050919050565b6000602082019050818103600083015261683c81615a22565b9050919050565b6000602082019050818103600083015261685c81615a88565b9050919050565b6000602082019050818103600083015261687c81615aee565b9050919050565b6000602082019050818103600083015261689c81615b54565b9050919050565b600060208201905081810360008301526168bc81615bba565b9050919050565b600060208201905081810360008301526168dc81615c20565b9050919050565b600060208201905081810360008301526168fc81615c86565b9050919050565b6000602082019050818103600083015261691c81615cec565b9050919050565b6000602082019050818103600083015261693c81615d52565b9050919050565b6000602082019050818103600083015261695c81615d92565b9050919050565b6000602082019050818103600083015261697c81615dd2565b9050919050565b6000602082019050818103600083015261699c81615e38565b9050919050565b600060208201905081810360008301526169bc81615e78565b9050919050565b600060208201905081810360008301526169dc81615f04565b9050919050565b600060208201905081810360008301526169fc81615f6a565b9050919050565b60006020820190508181036000830152616a1c81615ff6565b9050919050565b60006020820190508181036000830152616a3c8161605c565b9050919050565b60006020820190508181036000830152616a5d81846160c2565b905092915050565b6000602082019050616a7a60008301846163a7565b92915050565b6000604082019050616a9560008301856163a7565b616aa260208301846163a7565b9392505050565b6000602082019050616abe60008301846163b6565b92915050565b6000604051905081810181811067ffffffffffffffff82111715616aeb57616aea617064565b5b8060405250919050565b600067ffffffffffffffff821115616b1057616b0f617064565b5b602082029050602081019050919050565b600067ffffffffffffffff821115616b3c57616b3b617064565b5b601f19601f8301169050602081019050919050565b6000819050602082019050919050565b6000819050602082019050919050565b6000819050602082019050919050565b600081519050919050565b600081519050919050565b600081519050919050565b600081519050919050565b600081519050919050565b6000602082019050919050565b6000602082019050919050565b6000602082019050919050565b600082825260208201905092915050565b600082825260208201905092915050565b600082825260208201905092915050565b600081905092915050565b600082825260208201905092915050565b600082825260208201905092915050565b6000616c4a82616f03565b9150616c5583616f03565b9250827fffffffffffffffffffffffffffffffffffffffffffffffffffffffffffffffff03821115616c8a57616c89616fd7565b5b828201905092915050565b6000616ca082616f03565b9150616cab83616f03565b925082616cbb57616cba617006565b5b828204905092915050565b6000808291508390505b6001851115616d1057808604811115616cec57616ceb616fd7565b5b6001851615616cfb5780820291505b8081029050616d09856170a4565b9450616cd0565b94509492505050565b6000616d2482616f03565b9150616d2f83616f0d565b9250616d5c7fffffffffffffffffffffffffffffffffffffffffffffffffffffffffffffffff8484616d64565b905092915050565b600082616d745760019050616e30565b81616d825760009050616e30565b8160018114616d985760028114616da257616dd1565b6001915050616e30565b60ff841115616db457616db3616fd7565b5b8360020a915084821115616dcb57616dca616fd7565b5b50616e30565b5060208310610133831016604e8410600b8410161715616e065782820a905083811115616e0157616e00616fd7565b5b616e30565b616e138484846001616cc6565b92509050818404811115616e2a57616e29616fd7565b5b81810290505b9392505050565b6000616e4282616f03565b9150616e4d83616f03565b9250817fffffffffffffffffffffffffffffffffffffffffffffffffffffffffffffffff0483118215151615616e8657616e85616fd7565b5b828202905092915050565b6000616e9c82616f03565b9150616ea783616f03565b925082821015616eba57616eb9616fd7565b5b828203905092915050565b6000616ed082616ee3565b9050919050565b60008115159050919050565b600073ffffffffffffffffffffffffffffffffffffffff82169050919050565b6000819050919050565b600060ff82169050919050565b82818337600083830152505050565b60005b83811015616f47578082015181840152602081019050616f2c565b83811115616f56576000848401525b50505050565b60006002820490506001821680616f7457607f821691505b60208210811415616f8857616f87617035565b5b50919050565b6000616f9982616f03565b91507fffffffffffffffffffffffffffffffffffffffffffffffffffffffffffffffff821415616fcc57616fcb616fd7565b5b600182019050919050565b7f4e487b7100000000000000000000000000000000000000000000000000000000600052601160045260246000fd5b7f4e487b7100000000000000000000000000000000000000000000000000000000600052601260045260246000fd5b7f4e487b7100000000000000000000000000000000000000000000000000000000600052602260045260246000fd5b7f4e487b7100000000000000000000000000000000000000000000000000000000600052604160045260246000fd5b6000601f19601f8301169050919050565b60008160011c9050919050565b6170ba81616ec5565b81146170c557600080fd5b50565b6170d181616ed7565b81146170dc57600080fd5b50565b6170e881616f03565b81146170f357600080fd5b50565b6170ff81616f0d565b811461710a57600080fd5b5056fea26469706673582212209720280cecffd2660b0b3487a5ca6f3ccff7b422c0495ec9abe35d698c72979464736f6c63430008000033",
  "linkReferences": {},
  "deployedLinkReferences": {}
}