{
  "_format": "hh-sol-artifact-1",
  "contractName": "Issuer",
  "sourceName": "contracts/issuer/Issuer.sol",
  "abi": [
    {
      "inputs": [
        {
          "internalType": "uint256",
          "name": "id",
          "type": "uint256"
        },
        {
          "internalType": "address",
          "name": "owner",
          "type": "address"
        },
        {
          "internalType": "string",
          "name": "ansName",
          "type": "string"
        },
        {
          "internalType": "address",
          "name": "stablecoin",
          "type": "address"
        },
        {
          "internalType": "address",
          "name": "walletApprover",
          "type": "address"
        },
        {
          "internalType": "string",
          "name": "info",
          "type": "string"
        }
      ],
      "stateMutability": "nonpayable",
      "type": "constructor"
    },
    {
      "anonymous": false,
      "inputs": [
        {
          "indexed": false,
          "internalType": "address",
          "name": "caller",
          "type": "address"
        },
        {
          "indexed": false,
          "internalType": "address",
          "name": "newOwner",
          "type": "address"
        },
        {
          "indexed": false,
          "internalType": "uint256",
          "name": "timestamp",
          "type": "uint256"
        }
      ],
      "name": "ChangeOwnership",
      "type": "event"
    },
    {
      "anonymous": false,
      "inputs": [
        {
          "indexed": false,
          "internalType": "address",
          "name": "caller",
          "type": "address"
        },
        {
          "indexed": false,
          "internalType": "address",
          "name": "oldWalletApprover",
          "type": "address"
        },
        {
          "indexed": false,
          "internalType": "address",
          "name": "newWalletApprover",
          "type": "address"
        },
        {
          "indexed": false,
          "internalType": "uint256",
          "name": "timestamp",
          "type": "uint256"
        }
      ],
      "name": "ChangeWalletApprover",
      "type": "event"
    },
    {
      "anonymous": false,
      "inputs": [
        {
          "indexed": false,
          "internalType": "string",
          "name": "info",
          "type": "string"
        },
        {
          "indexed": false,
          "internalType": "address",
          "name": "setter",
          "type": "address"
        },
        {
          "indexed": false,
          "internalType": "uint256",
          "name": "timestamp",
          "type": "uint256"
        }
      ],
      "name": "SetInfo",
      "type": "event"
    },
    {
      "anonymous": false,
      "inputs": [
        {
          "indexed": true,
          "internalType": "address",
          "name": "approver",
          "type": "address"
        },
        {
          "indexed": false,
          "internalType": "address",
          "name": "wallet",
          "type": "address"
        },
        {
          "indexed": false,
          "internalType": "bool",
          "name": "whitelisted",
          "type": "bool"
        },
        {
          "indexed": false,
          "internalType": "uint256",
          "name": "timestamp",
          "type": "uint256"
        }
      ],
      "name": "WalletWhitelist",
      "type": "event"
    },
    {
      "inputs": [
        {
          "internalType": "address",
          "name": "wallet",
          "type": "address"
        }
      ],
      "name": "approveWallet",
      "outputs": [],
      "stateMutability": "nonpayable",
      "type": "function"
    },
    {
      "inputs": [
        {
          "internalType": "address",
          "name": "",
          "type": "address"
        }
      ],
      "name": "approvedWalletsMap",
      "outputs": [
        {
          "internalType": "uint256",
          "name": "",
          "type": "uint256"
        }
      ],
      "stateMutability": "view",
      "type": "function"
    },
    {
      "inputs": [
        {
          "internalType": "address",
          "name": "newOwner",
          "type": "address"
        }
      ],
      "name": "changeOwnership",
      "outputs": [],
      "stateMutability": "nonpayable",
      "type": "function"
    },
    {
      "inputs": [
        {
          "internalType": "address",
          "name": "newWalletApprover",
          "type": "address"
        }
      ],
      "name": "changeWalletApprover",
      "outputs": [],
      "stateMutability": "nonpayable",
      "type": "function"
    },
    {
      "inputs": [],
      "name": "getInfoHistory",
      "outputs": [
        {
          "components": [
            {
              "internalType": "string",
              "name": "info",
              "type": "string"
            },
            {
              "internalType": "uint256",
              "name": "timestamp",
              "type": "uint256"
            }
          ],
          "internalType": "struct Structs.InfoEntry[]",
          "name": "",
          "type": "tuple[]"
        }
      ],
      "stateMutability": "view",
      "type": "function"
    },
    {
      "inputs": [],
      "name": "getState",
      "outputs": [
        {
          "components": [
            {
              "internalType": "uint256",
              "name": "id",
              "type": "uint256"
            },
            {
              "internalType": "address",
              "name": "contractAddress",
              "type": "address"
            },
            {
              "internalType": "string",
              "name": "ansName",
              "type": "string"
            },
            {
              "internalType": "address",
              "name": "createdBy",
              "type": "address"
            },
            {
              "internalType": "address",
              "name": "owner",
              "type": "address"
            },
            {
              "internalType": "address",
              "name": "stablecoin",
              "type": "address"
            },
            {
              "internalType": "address",
              "name": "walletApprover",
              "type": "address"
            },
            {
              "internalType": "string",
              "name": "info",
              "type": "string"
            }
          ],
          "internalType": "struct Structs.IssuerState",
          "name": "",
          "type": "tuple"
        }
      ],
      "stateMutability": "view",
      "type": "function"
    },
    {
      "inputs": [],
      "name": "getWalletRecords",
      "outputs": [
        {
          "components": [
            {
              "internalType": "address",
              "name": "wallet",
              "type": "address"
            },
            {
              "internalType": "bool",
              "name": "whitelisted",
              "type": "bool"
            }
          ],
          "internalType": "struct Structs.WalletRecord[]",
          "name": "",
          "type": "tuple[]"
        }
      ],
      "stateMutability": "view",
      "type": "function"
    },
    {
      "inputs": [
        {
          "internalType": "address",
          "name": "wallet",
          "type": "address"
        }
      ],
      "name": "isWalletApproved",
      "outputs": [
        {
          "internalType": "bool",
          "name": "",
          "type": "bool"
        }
      ],
      "stateMutability": "view",
      "type": "function"
    },
    {
      "inputs": [
        {
          "internalType": "string",
          "name": "info",
          "type": "string"
        }
      ],
      "name": "setInfo",
      "outputs": [],
      "stateMutability": "nonpayable",
      "type": "function"
    },
    {
      "inputs": [
        {
          "internalType": "address",
          "name": "wallet",
          "type": "address"
        }
      ],
      "name": "suspendWallet",
      "outputs": [],
      "stateMutability": "nonpayable",
      "type": "function"
    }
  ],
  "bytecode": "0x60806040523480156200001157600080fd5b5060405162002548380380620025488339818101604052810190620000379190620005ae565b600073ffffffffffffffffffffffffffffffffffffffff168573ffffffffffffffffffffffffffffffffffffffff161415620000aa576040517f08c379a0000000000000000000000000000000000000000000000000000000008152600401620000a19062000788565b60405180910390fd5b600073ffffffffffffffffffffffffffffffffffffffff168373ffffffffffffffffffffffffffffffffffffffff1614156200011d576040517f08c379a00000000000000000000000000000000000000000000000000000000081526004016200011490620007aa565b60405180910390fd5b600073ffffffffffffffffffffffffffffffffffffffff168273ffffffffffffffffffffffffffffffffffffffff16141562000190576040517f08c379a00000000000000000000000000000000000000000000000000000000081526004016200018790620007cc565b60405180910390fd5b600860405180604001604052808381526020014281525090806001815401808255809150506001900390600052602060002090600202016000909190919091506000820151816000019080519060200190620001ee9291906200045e565b506020820151816001015550506040518061010001604052808781526020013073ffffffffffffffffffffffffffffffffffffffff1681526020018581526020013373ffffffffffffffffffffffffffffffffffffffff1681526020018673ffffffffffffffffffffffffffffffffffffffff1681526020018473ffffffffffffffffffffffffffffffffffffffff1681526020018373ffffffffffffffffffffffffffffffffffffffff16815260200182815250600080820151816000015560208201518160010160006101000a81548173ffffffffffffffffffffffffffffffffffffffff021916908373ffffffffffffffffffffffffffffffffffffffff1602179055506040820151816002019080519060200190620003139291906200045e565b5060608201518160030160006101000a81548173ffffffffffffffffffffffffffffffffffffffff021916908373ffffffffffffffffffffffffffffffffffffffff16021790555060808201518160040160006101000a81548173ffffffffffffffffffffffffffffffffffffffff021916908373ffffffffffffffffffffffffffffffffffffffff16021790555060a08201518160050160006101000a81548173ffffffffffffffffffffffffffffffffffffffff021916908373ffffffffffffffffffffffffffffffffffffffff16021790555060c08201518160060160006101000a81548173ffffffffffffffffffffffffffffffffffffffff021916908373ffffffffffffffffffffffffffffffffffffffff16021790555060e08201518160070190805190602001906200044e9291906200045e565b50905050505050505050620009a2565b8280546200046c90620008da565b90600052602060002090601f016020900481019282620004905760008555620004dc565b82601f10620004ab57805160ff1916838001178555620004dc565b82800160010185558215620004dc579182015b82811115620004db578251825591602001919060010190620004be565b5b509050620004eb9190620004ef565b5090565b5b808211156200050a576000816000905550600101620004f0565b5090565b6000620005256200051f8462000822565b620007ee565b9050828152602081018484840111156200053e57600080fd5b6200054b848285620008a4565b509392505050565b60008151905062000564816200096e565b92915050565b600082601f8301126200057c57600080fd5b81516200058e8482602086016200050e565b91505092915050565b600081519050620005a88162000988565b92915050565b60008060008060008060c08789031215620005c857600080fd5b6000620005d889828a0162000597565b9650506020620005eb89828a0162000553565b955050604087015167ffffffffffffffff8111156200060957600080fd5b6200061789828a016200056a565b94505060606200062a89828a0162000553565b93505060806200063d89828a0162000553565b92505060a087015167ffffffffffffffff8111156200065b57600080fd5b6200066989828a016200056a565b9150509295509295509295565b600062000685601d8362000855565b91507f4973737565723a20696e76616c6964206f776e657220616464726573730000006000830152602082019050919050565b6000620006c760228362000855565b91507f4973737565723a20696e76616c696420737461626c65636f696e20616464726560008301527f73730000000000000000000000000000000000000000000000000000000000006020830152604082019050919050565b60006200072f60278362000855565b91507f4973737565723a20696e76616c69642077616c6c657420617070726f7665722060008301527f61646472657373000000000000000000000000000000000000000000000000006020830152604082019050919050565b60006020820190508181036000830152620007a38162000676565b9050919050565b60006020820190508181036000830152620007c581620006b8565b9050919050565b60006020820190508181036000830152620007e78162000720565b9050919050565b6000604051905081810181811067ffffffffffffffff821117156200081857620008176200093f565b5b8060405250919050565b600067ffffffffffffffff82111562000840576200083f6200093f565b5b601f19601f8301169050602081019050919050565b600082825260208201905092915050565b600062000873826200087a565b9050919050565b600073ffffffffffffffffffffffffffffffffffffffff82169050919050565b6000819050919050565b60005b83811015620008c4578082015181840152602081019050620008a7565b83811115620008d4576000848401525b50505050565b60006002820490506001821680620008f357607f821691505b602082108114156200090a576200090962000910565b5b50919050565b7f4e487b7100000000000000000000000000000000000000000000000000000000600052602260045260246000fd5b7f4e487b7100000000000000000000000000000000000000000000000000000000600052604160045260246000fd5b620009798162000866565b81146200098557600080fd5b50565b62000993816200089a565b81146200099f57600080fd5b50565b611b9680620009b26000396000f3fe608060405234801561001057600080fd5b506004361061009e5760003560e01c8063937f6e7711610066578063937f6e771461014557806398e1625514610161578063cd9b4a111461017f578063dd30b0c7146101af578063e7283755146101cd5761009e565b80630fcb0ae5146100a35780631865c57d146100bf5780632af4c31e146100dd5780633657e851146100f957806360f6899314610129575b600080fd5b6100bd60048036038101906100b89190611244565b6101e9565b005b6100c76102dd565b6040516100d4919061187e565b60405180910390f35b6100f760048036038101906100f29190611244565b6105d4565b005b610113600480360381019061010e9190611244565b6106e9565b60405161012091906117c5565b60405180910390f35b610143600480360381019061013e9190611244565b6107f1565b005b61015f600480360381019061015a919061126d565b610988565b005b610169610adc565b6040516101769190611781565b60405180910390f35b61019960048036038101906101949190611244565b610bd7565b6040516101a691906118a0565b60405180910390f35b6101b7610bef565b6040516101c491906117a3565b60405180910390f35b6101e760048036038101906101e29190611244565b610cbb565b005b600060060160009054906101000a900473ffffffffffffffffffffffffffffffffffffffff1673ffffffffffffffffffffffffffffffffffffffff163373ffffffffffffffffffffffffffffffffffffffff161461027c576040517f08c379a00000000000000000000000000000000000000000000000000000000081526004016102739061183e565b60405180910390fd5b610287816001610daf565b3373ffffffffffffffffffffffffffffffffffffffff167f031b7bf49a2340714b695ae019eaa006c2e4c89b5e9ede80e3929d7e9465198c826001426040516102d29392919061174a565b60405180910390a250565b6102e5611071565b600060405180610100016040529081600082015481526020016001820160009054906101000a900473ffffffffffffffffffffffffffffffffffffffff1673ffffffffffffffffffffffffffffffffffffffff1673ffffffffffffffffffffffffffffffffffffffff16815260200160028201805461036390611a79565b80601f016020809104026020016040519081016040528092919081815260200182805461038f90611a79565b80156103dc5780601f106103b1576101008083540402835291602001916103dc565b820191906000526020600020905b8154815290600101906020018083116103bf57829003601f168201915b505050505081526020016003820160009054906101000a900473ffffffffffffffffffffffffffffffffffffffff1673ffffffffffffffffffffffffffffffffffffffff1673ffffffffffffffffffffffffffffffffffffffff1681526020016004820160009054906101000a900473ffffffffffffffffffffffffffffffffffffffff1673ffffffffffffffffffffffffffffffffffffffff1673ffffffffffffffffffffffffffffffffffffffff1681526020016005820160009054906101000a900473ffffffffffffffffffffffffffffffffffffffff1673ffffffffffffffffffffffffffffffffffffffff1673ffffffffffffffffffffffffffffffffffffffff1681526020016006820160009054906101000a900473ffffffffffffffffffffffffffffffffffffffff1673ffffffffffffffffffffffffffffffffffffffff1673ffffffffffffffffffffffffffffffffffffffff16815260200160078201805461054d90611a79565b80601f016020809104026020016040519081016040528092919081815260200182805461057990611a79565b80156105c65780601f1061059b576101008083540402835291602001916105c6565b820191906000526020600020905b8154815290600101906020018083116105a957829003601f168201915b505050505081525050905090565b600060040160009054906101000a900473ffffffffffffffffffffffffffffffffffffffff1673ffffffffffffffffffffffffffffffffffffffff163373ffffffffffffffffffffffffffffffffffffffff1614610667576040517f08c379a000000000000000000000000000000000000000000000000000000000815260040161065e9061181e565b60405180910390fd5b80600060040160006101000a81548173ffffffffffffffffffffffffffffffffffffffff021916908373ffffffffffffffffffffffffffffffffffffffff1602179055507fb4fa0c8f1565e6385961540cac5b9884d84157c515100cf972728e8be8dacdd33382426040516106de93929190611713565b60405180910390a150565b60008060040160009054906101000a900473ffffffffffffffffffffffffffffffffffffffff1673ffffffffffffffffffffffffffffffffffffffff168273ffffffffffffffffffffffffffffffffffffffff1614806107ea575061074d82610f77565b80156107e957506009600a60008473ffffffffffffffffffffffffffffffffffffffff1673ffffffffffffffffffffffffffffffffffffffff16815260200190815260200160002054815481106107cd577f4e487b7100000000000000000000000000000000000000000000000000000000600052603260045260246000fd5b9060005260206000200160000160149054906101000a900460ff165b5b9050919050565b600060040160009054906101000a900473ffffffffffffffffffffffffffffffffffffffff1673ffffffffffffffffffffffffffffffffffffffff163373ffffffffffffffffffffffffffffffffffffffff1614806108a05750600060060160009054906101000a900473ffffffffffffffffffffffffffffffffffffffff1673ffffffffffffffffffffffffffffffffffffffff163373ffffffffffffffffffffffffffffffffffffffff16145b6108df576040517f08c379a00000000000000000000000000000000000000000000000000000000081526004016108d69061185e565b60405180910390fd5b80600060060160006101000a81548173ffffffffffffffffffffffffffffffffffffffff021916908373ffffffffffffffffffffffffffffffffffffffff1602179055507fe4ff1f605955e821f9e684f2d7249e6ff8a5a14f51779fc709d118d7dbf6e9fe33600060060160009054906101000a900473ffffffffffffffffffffffffffffffffffffffff16834260405161097d94939291906116ce565b60405180910390a150565b600060040160009054906101000a900473ffffffffffffffffffffffffffffffffffffffff1673ffffffffffffffffffffffffffffffffffffffff163373ffffffffffffffffffffffffffffffffffffffff1614610a1b576040517f08c379a0000000000000000000000000000000000000000000000000000000008152600401610a129061181e565b60405180910390fd5b600860405180604001604052808381526020014281525090806001815401808255809150506001900390600052602060002090600202016000909190919091506000820151816000019080519060200190610a77929190611124565b506020820151816001015550508060006007019080519060200190610a9d929190611124565b507f39b28594242c42fce47a0a6e63bac12adbd07fbb35580f5a54b236858101d58a813342604051610ad1939291906117e0565b60405180910390a150565b60606008805480602002602001604051908101604052809291908181526020016000905b82821015610bce5783829060005260206000209060020201604051806040016040529081600082018054610b3390611a79565b80601f0160208091040260200160405190810160405280929190818152602001828054610b5f90611a79565b8015610bac5780601f10610b8157610100808354040283529160200191610bac565b820191906000526020600020905b815481529060010190602001808311610b8f57829003601f168201915b5050505050815260200160018201548152505081526020019060010190610b00565b50505050905090565b600a6020528060005260406000206000915090505481565b60606009805480602002602001604051908101604052809291908181526020016000905b82821015610cb2578382906000526020600020016040518060400160405290816000820160009054906101000a900473ffffffffffffffffffffffffffffffffffffffff1673ffffffffffffffffffffffffffffffffffffffff1673ffffffffffffffffffffffffffffffffffffffff1681526020016000820160149054906101000a900460ff16151515158152505081526020019060010190610c13565b50505050905090565b600060060160009054906101000a900473ffffffffffffffffffffffffffffffffffffffff1673ffffffffffffffffffffffffffffffffffffffff163373ffffffffffffffffffffffffffffffffffffffff1614610d4e576040517f08c379a0000000000000000000000000000000000000000000000000000000008152600401610d459061183e565b60405180910390fd5b610d59816000610daf565b3373ffffffffffffffffffffffffffffffffffffffff167f031b7bf49a2340714b695ae019eaa006c2e4c89b5e9ede80e3929d7e9465198c82600042604051610da49392919061174a565b60405180910390a250565b610db882610f77565b15610e6057806009600a60008573ffffffffffffffffffffffffffffffffffffffff1673ffffffffffffffffffffffffffffffffffffffff1681526020019081526020016000205481548110610e37577f4e487b7100000000000000000000000000000000000000000000000000000000600052603260045260246000fd5b9060005260206000200160000160146101000a81548160ff021916908315150217905550610f73565b600960405180604001604052808473ffffffffffffffffffffffffffffffffffffffff1681526020018315158152509080600181540180825580915050600190039060005260206000200160009091909190915060008201518160000160006101000a81548173ffffffffffffffffffffffffffffffffffffffff021916908373ffffffffffffffffffffffffffffffffffffffff16021790555060208201518160000160146101000a81548160ff02191690831515021790555050506001600980549050610f2f91906119bb565b600a60008473ffffffffffffffffffffffffffffffffffffffff1673ffffffffffffffffffffffffffffffffffffffff168152602001908152602001600020819055505b5050565b600080600a60008473ffffffffffffffffffffffffffffffffffffffff1673ffffffffffffffffffffffffffffffffffffffff1681526020019081526020016000205490506009805490508110610fd257600091505061106c565b8273ffffffffffffffffffffffffffffffffffffffff1660098281548110611023577f4e487b7100000000000000000000000000000000000000000000000000000000600052603260045260246000fd5b9060005260206000200160000160009054906101000a900473ffffffffffffffffffffffffffffffffffffffff1673ffffffffffffffffffffffffffffffffffffffff16149150505b919050565b60405180610100016040528060008152602001600073ffffffffffffffffffffffffffffffffffffffff16815260200160608152602001600073ffffffffffffffffffffffffffffffffffffffff168152602001600073ffffffffffffffffffffffffffffffffffffffff168152602001600073ffffffffffffffffffffffffffffffffffffffff168152602001600073ffffffffffffffffffffffffffffffffffffffff168152602001606081525090565b82805461113090611a79565b90600052602060002090601f0160209004810192826111525760008555611199565b82601f1061116b57805160ff1916838001178555611199565b82800160010185558215611199579182015b8281111561119857825182559160200191906001019061117d565b5b5090506111a691906111aa565b5090565b5b808211156111c35760008160009055506001016111ab565b5090565b60006111da6111d5846118ec565b6118bb565b9050828152602081018484840111156111f257600080fd5b6111fd848285611a37565b509392505050565b60008135905061121481611b49565b92915050565b600082601f83011261122b57600080fd5b813561123b8482602086016111c7565b91505092915050565b60006020828403121561125657600080fd5b600061126484828501611205565b91505092915050565b60006020828403121561127f57600080fd5b600082013567ffffffffffffffff81111561129957600080fd5b6112a58482850161121a565b91505092915050565b60006112ba838361158d565b905092915050565b60006112ce8383611681565b60408301905092915050565b6112e3816119ef565b82525050565b6112f2816119ef565b82525050565b60006113038261193c565b61130d8185611977565b93508360208202850161131f8561191c565b8060005b8581101561135b578484038952815161133c85826112ae565b94506113478361195d565b925060208a01995050600181019050611323565b50829750879550505050505092915050565b600061137882611947565b6113828185611988565b935061138d8361192c565b8060005b838110156113be5781516113a588826112c2565b97506113b08361196a565b925050600181019050611391565b5085935050505092915050565b6113d481611a01565b82525050565b6113e381611a01565b82525050565b60006113f482611952565b6113fe8185611999565b935061140e818560208601611a46565b61141781611b38565b840191505092915050565b600061142d82611952565b61143781856119aa565b9350611447818560208601611a46565b61145081611b38565b840191505092915050565b60006114686028836119aa565b91507f4973737565723a204f6e6c79206f776e65722063616e206d616b65207468697360008301527f20616374696f6e2e0000000000000000000000000000000000000000000000006020830152604082019050919050565b60006114ce6032836119aa565b91507f4973737565723a204f6e6c792077616c6c657420617070726f7665722063616e60008301527f206d616b65207468697320616374696f6e2e00000000000000000000000000006020830152604082019050919050565b6000611534602a836119aa565b91507f4973737565723a206e6f7420616c6c6f77656420746f2063616c6c207468697360008301527f2066756e6374696f6e2e000000000000000000000000000000000000000000006020830152604082019050919050565b600060408301600083015184820360008601526115aa82826113e9565b91505060208301516115bf60208601826116b0565b508091505092915050565b6000610100830160008301516115e360008601826116b0565b5060208301516115f660208601826112da565b506040830151848203604086015261160e82826113e9565b915050606083015161162360608601826112da565b50608083015161163660808601826112da565b5060a083015161164960a08601826112da565b5060c083015161165c60c08601826112da565b5060e083015184820360e086015261167482826113e9565b9150508091505092915050565b60408201600082015161169760008501826112da565b5060208201516116aa60208501826113cb565b50505050565b6116b981611a2d565b82525050565b6116c881611a2d565b82525050565b60006080820190506116e360008301876112e9565b6116f060208301866112e9565b6116fd60408301856112e9565b61170a60608301846116bf565b95945050505050565b600060608201905061172860008301866112e9565b61173560208301856112e9565b61174260408301846116bf565b949350505050565b600060608201905061175f60008301866112e9565b61176c60208301856113da565b61177960408301846116bf565b949350505050565b6000602082019050818103600083015261179b81846112f8565b905092915050565b600060208201905081810360008301526117bd818461136d565b905092915050565b60006020820190506117da60008301846113da565b92915050565b600060608201905081810360008301526117fa8186611422565b905061180960208301856112e9565b61181660408301846116bf565b949350505050565b600060208201905081810360008301526118378161145b565b9050919050565b60006020820190508181036000830152611857816114c1565b9050919050565b6000602082019050818103600083015261187781611527565b9050919050565b6000602082019050818103600083015261189881846115ca565b905092915050565b60006020820190506118b560008301846116bf565b92915050565b6000604051905081810181811067ffffffffffffffff821117156118e2576118e1611b09565b5b8060405250919050565b600067ffffffffffffffff82111561190757611906611b09565b5b601f19601f8301169050602081019050919050565b6000819050602082019050919050565b6000819050602082019050919050565b600081519050919050565b600081519050919050565b600081519050919050565b6000602082019050919050565b6000602082019050919050565b600082825260208201905092915050565b600082825260208201905092915050565b600082825260208201905092915050565b600082825260208201905092915050565b60006119c682611a2d565b91506119d183611a2d565b9250828210156119e4576119e3611aab565b5b828203905092915050565b60006119fa82611a0d565b9050919050565b60008115159050919050565b600073ffffffffffffffffffffffffffffffffffffffff82169050919050565b6000819050919050565b82818337600083830152505050565b60005b83811015611a64578082015181840152602081019050611a49565b83811115611a73576000848401525b50505050565b60006002820490506001821680611a9157607f821691505b60208210811415611aa557611aa4611ada565b5b50919050565b7f4e487b7100000000000000000000000000000000000000000000000000000000600052601160045260246000fd5b7f4e487b7100000000000000000000000000000000000000000000000000000000600052602260045260246000fd5b7f4e487b7100000000000000000000000000000000000000000000000000000000600052604160045260246000fd5b6000601f19601f8301169050919050565b611b52816119ef565b8114611b5d57600080fd5b5056fea26469706673582212200ba7ac63ef7929685a6387a48d0f78ab5a595b061bc3c794e852207762b67e8864736f6c63430008000033",
  "linkReferences": {},
  "deployedLinkReferences": {}
}