{
  "_format": "hh-sol-artifact-1",
  "contractName": "PayoutManagerFactory",
  "sourceName": "contracts/managers/payout/PayoutManagerFactory.sol",
  "abi": [
    {
      "anonymous": false,
      "inputs": [
        {
          "indexed": true,
          "internalType": "address",
          "name": "creator",
          "type": "address"
        },
        {
          "indexed": false,
          "internalType": "address",
          "name": "payoutManager",
          "type": "address"
        },
        {
          "indexed": false,
          "internalType": "uint256",
          "name": "id",
          "type": "uint256"
        },
        {
          "indexed": false,
          "internalType": "address",
          "name": "asset",
          "type": "address"
        },
        {
          "indexed": false,
          "internalType": "uint256",
          "name": "timestamp",
          "type": "uint256"
        }
      ],
      "name": "PayoutManagerCreated",
      "type": "event"
    },
    {
      "inputs": [
        {
          "internalType": "address",
          "name": "owner",
          "type": "address"
        },
        {
          "internalType": "string",
          "name": "ansName",
          "type": "string"
        },
        {
          "internalType": "address",
          "name": "assetAddress",
          "type": "address"
        },
        {
          "internalType": "string",
          "name": "info",
          "type": "string"
        }
      ],
      "name": "create",
      "outputs": [
        {
          "internalType": "address",
          "name": "",
          "type": "address"
        }
      ],
      "stateMutability": "nonpayable",
      "type": "function"
    },
    {
      "inputs": [],
      "name": "getInstances",
      "outputs": [
        {
          "internalType": "address[]",
          "name": "",
          "type": "address[]"
        }
      ],
      "stateMutability": "view",
      "type": "function"
    },
    {
      "inputs": [
        {
          "internalType": "address",
          "name": "asset",
          "type": "address"
        }
      ],
      "name": "getInstancesForAsset",
      "outputs": [
        {
          "internalType": "address[]",
          "name": "",
          "type": "address[]"
        }
      ],
      "stateMutability": "view",
      "type": "function"
    },
    {
      "inputs": [
        {
          "internalType": "address",
          "name": "issuer",
          "type": "address"
        }
      ],
      "name": "getInstancesForIssuer",
      "outputs": [
        {
          "internalType": "address[]",
          "name": "",
          "type": "address[]"
        }
      ],
      "stateMutability": "view",
      "type": "function"
    },
    {
      "inputs": [
        {
          "internalType": "uint256",
          "name": "",
          "type": "uint256"
        }
      ],
      "name": "instances",
      "outputs": [
        {
          "internalType": "address",
          "name": "",
          "type": "address"
        }
      ],
      "stateMutability": "view",
      "type": "function"
    },
    {
      "inputs": [
        {
          "internalType": "address",
          "name": "",
          "type": "address"
        },
        {
          "internalType": "string",
          "name": "",
          "type": "string"
        }
      ],
      "name": "namespace",
      "outputs": [
        {
          "internalType": "address",
          "name": "",
          "type": "address"
        }
      ],
      "stateMutability": "view",
      "type": "function"
    }
  ],
  "bytecode": "0x608060405234801561001057600080fd5b50614df0806100206000396000f3fe60806040523480156200001157600080fd5b50600436106200006a5760003560e01c8063170e5cc9146200006f578063238c3a9014620000a5578063498f286214620000db57806368ec6f491462000111578063a2f7b3a51462000147578063d35fdd79146200017d575b600080fd5b6200008d600480360381019062000087919062000d68565b6200019f565b6040516200009c919062001027565b60405180910390f35b620000c36004803603810190620000bd919062000ce2565b6200065a565b604051620000d2919062001091565b60405180910390f35b620000f96004803603810190620000f3919062000ce2565b62000729565b60405162000108919062001091565b60405180910390f35b6200012f600480360381019062000129919062000d0e565b620007f8565b6040516200013e919062001027565b60405180910390f35b6200016560048036038101906200015f919062000e4b565b62000850565b60405162000174919062001027565b60405180910390f35b6200018762000890565b60405162000196919062001091565b60405180910390f35b6000808373ffffffffffffffffffffffffffffffffffffffff16631865c57d6040518163ffffffff1660e01b815260040160006040518083038186803b158015620001e957600080fd5b505afa158015620001fe573d6000803e3d6000fd5b505050506040513d6000823e3d601f19601f8201168201806040525081019062000229919062000e06565b61014001519050600073ffffffffffffffffffffffffffffffffffffffff16600360008373ffffffffffffffffffffffffffffffffffffffff1673ffffffffffffffffffffffffffffffffffffffff168152602001908152602001600020866040516200029791906200100e565b908152602001604051809103902060009054906101000a900473ffffffffffffffffffffffffffffffffffffffff1673ffffffffffffffffffffffffffffffffffffffff16146200031f576040517f08c379a00000000000000000000000000000000000000000000000000000000081526004016200031690620010b5565b60405180910390fd5b6000808054905090506000600160008473ffffffffffffffffffffffffffffffffffffffff1673ffffffffffffffffffffffffffffffffffffffff1681526020019081526020016000208054905090506000828989848a8a604051620003859062000920565b6200039696959493929190620010d7565b604051809103906000f080158015620003b3573d6000803e3d6000fd5b5090506000819080600181540180825580915050600190039060005260206000200160009091909190916101000a81548173ffffffffffffffffffffffffffffffffffffffff021916908373ffffffffffffffffffffffffffffffffffffffff160217905550600160008573ffffffffffffffffffffffffffffffffffffffff1673ffffffffffffffffffffffffffffffffffffffff168152602001908152602001600020819080600181540180825580915050600190039060005260206000200160009091909190916101000a81548173ffffffffffffffffffffffffffffffffffffffff021916908373ffffffffffffffffffffffffffffffffffffffff160217905550600260008873ffffffffffffffffffffffffffffffffffffffff1673ffffffffffffffffffffffffffffffffffffffff168152602001908152602001600020819080600181540180825580915050600190039060005260206000200160009091909190916101000a81548173ffffffffffffffffffffffffffffffffffffffff021916908373ffffffffffffffffffffffffffffffffffffffff16021790555080600360008673ffffffffffffffffffffffffffffffffffffffff1673ffffffffffffffffffffffffffffffffffffffff16815260200190815260200160002089604051620005a991906200100e565b908152602001604051809103902060006101000a81548173ffffffffffffffffffffffffffffffffffffffff021916908373ffffffffffffffffffffffffffffffffffffffff1602179055508873ffffffffffffffffffffffffffffffffffffffff167fc99aeeec111b9962b2902fe22bcc245ec778639adff36c6fce0b84a7f31bc3ad82858a4260405162000643949392919062001044565b60405180910390a280945050505050949350505050565b6060600160008373ffffffffffffffffffffffffffffffffffffffff1673ffffffffffffffffffffffffffffffffffffffff1681526020019081526020016000208054806020026020016040519081016040528092919081815260200182805480156200071d57602002820191906000526020600020905b8160009054906101000a900473ffffffffffffffffffffffffffffffffffffffff1673ffffffffffffffffffffffffffffffffffffffff1681526020019060010190808311620006d2575b50505050509050919050565b6060600260008373ffffffffffffffffffffffffffffffffffffffff1673ffffffffffffffffffffffffffffffffffffffff168152602001908152602001600020805480602002602001604051908101604052809291908181526020018280548015620007ec57602002820191906000526020600020905b8160009054906101000a900473ffffffffffffffffffffffffffffffffffffffff1673ffffffffffffffffffffffffffffffffffffffff1681526020019060010190808311620007a1575b50505050509050919050565b6003602052816000526040600020818051602081018201805184825260208301602085012081835280955050505050506000915091509054906101000a900473ffffffffffffffffffffffffffffffffffffffff1681565b600081815481106200086157600080fd5b906000526020600020016000915054906101000a900473ffffffffffffffffffffffffffffffffffffffff1681565b606060008054806020026020016040519081016040528092919081815260200182805480156200091657602002820191906000526020600020905b8160009054906101000a900473ffffffffffffffffffffffffffffffffffffffff1673ffffffffffffffffffffffffffffffffffffffff1681526020019060010190808311620008cb575b5050505050905090565b613a84806200133783390190565b6000620009456200093f8462001186565b62001152565b9050828152602081018484840111156200095e57600080fd5b6200096b84828562001263565b509392505050565b60006200098a620009848462001186565b62001152565b905082815260208101848484011115620009a357600080fd5b620009b084828562001272565b509392505050565b600081359050620009c981620012e8565b92915050565b600081519050620009e081620012e8565b92915050565b600081519050620009f78162001302565b92915050565b600082601f83011262000a0f57600080fd5b813562000a218482602086016200092e565b91505092915050565b600082601f83011262000a3c57600080fd5b815162000a4e84826020860162000973565b91505092915050565b6000610280828403121562000a6b57600080fd5b62000a7861028062001152565b9050600062000a8a8482850162000ccb565b600083015250602062000aa084828501620009cf565b602083015250604082015167ffffffffffffffff81111562000ac157600080fd5b62000acf8482850162000a2a565b604083015250606062000ae58482850162000ccb565b606083015250608062000afb84828501620009cf565b60808301525060a062000b1184828501620009cf565b60a08301525060c062000b2784828501620009cf565b60c08301525060e062000b3d8482850162000ccb565b60e08301525061010062000b5484828501620009e6565b6101008301525061012062000b6c84828501620009e6565b6101208301525061014062000b8484828501620009cf565b6101408301525061016082015167ffffffffffffffff81111562000ba757600080fd5b62000bb58482850162000a2a565b6101608301525061018082015167ffffffffffffffff81111562000bd857600080fd5b62000be68482850162000a2a565b610180830152506101a082015167ffffffffffffffff81111562000c0957600080fd5b62000c178482850162000a2a565b6101a0830152506101c062000c2f8482850162000ccb565b6101c0830152506101e062000c478482850162000ccb565b6101e08301525061020062000c5f84828501620009e6565b6102008301525061022062000c778482850162000ccb565b6102208301525061024062000c8f8482850162000ccb565b6102408301525061026062000ca78482850162000ccb565b6102608301525092915050565b60008135905062000cc5816200131c565b92915050565b60008151905062000cdc816200131c565b92915050565b60006020828403121562000cf557600080fd5b600062000d0584828501620009b8565b91505092915050565b6000806040838503121562000d2257600080fd5b600062000d3285828601620009b8565b925050602083013567ffffffffffffffff81111562000d5057600080fd5b62000d5e85828601620009fd565b9150509250929050565b6000806000806080858703121562000d7f57600080fd5b600062000d8f87828801620009b8565b945050602085013567ffffffffffffffff81111562000dad57600080fd5b62000dbb87828801620009fd565b935050604062000dce87828801620009b8565b925050606085013567ffffffffffffffff81111562000dec57600080fd5b62000dfa87828801620009fd565b91505092959194509250565b60006020828403121562000e1957600080fd5b600082015167ffffffffffffffff81111562000e3457600080fd5b62000e428482850162000a57565b91505092915050565b60006020828403121562000e5e57600080fd5b600062000e6e8482850162000cb4565b91505092915050565b600062000e85838362000e91565b60208301905092915050565b62000e9c8162001219565b82525050565b62000ead8162001219565b82525050565b600062000ec082620011c9565b62000ecc8185620011ec565b935062000ed983620011b9565b8060005b8381101562000f1057815162000ef4888262000e77565b975062000f0183620011df565b92505060018101905062000edd565b5085935050505092915050565b600062000f2a82620011d4565b62000f368185620011fd565b935062000f4881856020860162001272565b62000f5381620012d7565b840191505092915050565b600062000f6b82620011d4565b62000f7781856200120e565b935062000f8981856020860162001272565b80840191505092915050565b600062000fa4603a83620011fd565b91507f5061796f75744d616e61676572466163746f72793a206973737565722077697460008301527f682074686973206e616d6520616c7265616479206578697374730000000000006020830152604082019050919050565b620010088162001259565b82525050565b60006200101c828462000f5e565b915081905092915050565b60006020820190506200103e600083018462000ea2565b92915050565b60006080820190506200105b600083018762000ea2565b6200106a602083018662000ffd565b62001079604083018562000ea2565b62001088606083018462000ffd565b95945050505050565b60006020820190508181036000830152620010ad818462000eb3565b905092915050565b60006020820190508181036000830152620010d08162000f95565b9050919050565b600060c082019050620010ee600083018962000ffd565b620010fd602083018862000ea2565b818103604083015262001111818762000f1d565b905062001122606083018662000ffd565b62001131608083018562000ea2565b81810360a083015262001145818462000f1d565b9050979650505050505050565b6000604051905081810181811067ffffffffffffffff821117156200117c576200117b620012a8565b5b8060405250919050565b600067ffffffffffffffff821115620011a457620011a3620012a8565b5b601f19601f8301169050602081019050919050565b6000819050602082019050919050565b600081519050919050565b600081519050919050565b6000602082019050919050565b600082825260208201905092915050565b600082825260208201905092915050565b600081905092915050565b6000620012268262001239565b9050919050565b60008115159050919050565b600073ffffffffffffffffffffffffffffffffffffffff82169050919050565b6000819050919050565b82818337600083830152505050565b60005b838110156200129257808201518184015260208101905062001275565b83811115620012a2576000848401525b50505050565b7f4e487b7100000000000000000000000000000000000000000000000000000000600052604160045260246000fd5b6000601f19601f8301169050919050565b620012f38162001219565b8114620012ff57600080fd5b50565b6200130d816200122d565b81146200131957600080fd5b50565b620013278162001259565b81146200133357600080fd5b5056fe60806040523480156200001157600080fd5b5060405162003a8438038062003a848339818101604052810190620000379190620004a1565b600073ffffffffffffffffffffffffffffffffffffffff168573ffffffffffffffffffffffffffffffffffffffff161415620000aa576040517f08c379a0000000000000000000000000000000000000000000000000000000008152600401620000a19062000635565b60405180910390fd5b600073ffffffffffffffffffffffffffffffffffffffff168273ffffffffffffffffffffffffffffffffffffffff1614156200011d576040517f08c379a0000000000000000000000000000000000000000000000000000000008152600401620001149062000613565b60405180910390fd5b6040518061014001604052808781526020013073ffffffffffffffffffffffffffffffffffffffff1681526020018581526020018481526020013373ffffffffffffffffffffffffffffffffffffffff1681526020018673ffffffffffffffffffffffffffffffffffffffff1681526020018373ffffffffffffffffffffffffffffffffffffffff168152602001600081526020016000815260200182815250600080820151816000015560208201518160010160006101000a81548173ffffffffffffffffffffffffffffffffffffffff021916908373ffffffffffffffffffffffffffffffffffffffff16021790555060408201518160020190805190602001906200022d92919062000351565b506060820151816003015560808201518160040160006101000a81548173ffffffffffffffffffffffffffffffffffffffff021916908373ffffffffffffffffffffffffffffffffffffffff16021790555060a08201518160050160006101000a81548173ffffffffffffffffffffffffffffffffffffffff021916908373ffffffffffffffffffffffffffffffffffffffff16021790555060c08201518160060160006101000a81548173ffffffffffffffffffffffffffffffffffffffff021916908373ffffffffffffffffffffffffffffffffffffffff16021790555060e0820151816007015561010082015181600801556101208201518160090190805190602001906200034192919062000351565b509050505050505050506200080b565b8280546200035f9062000743565b90600052602060002090601f016020900481019282620003835760008555620003cf565b82601f106200039e57805160ff1916838001178555620003cf565b82800160010185558215620003cf579182015b82811115620003ce578251825591602001919060010190620003b1565b5b509050620003de9190620003e2565b5090565b5b80821115620003fd576000816000905550600101620003e3565b5090565b60006200041862000412846200068b565b62000657565b9050828152602081018484840111156200043157600080fd5b6200043e8482856200070d565b509392505050565b6000815190506200045781620007d7565b92915050565b600082601f8301126200046f57600080fd5b81516200048184826020860162000401565b91505092915050565b6000815190506200049b81620007f1565b92915050565b60008060008060008060c08789031215620004bb57600080fd5b6000620004cb89828a016200048a565b9650506020620004de89828a0162000446565b955050604087015167ffffffffffffffff811115620004fc57600080fd5b6200050a89828a016200045d565b94505060606200051d89828a016200048a565b93505060806200053089828a0162000446565b92505060a087015167ffffffffffffffff8111156200054e57600080fd5b6200055c89828a016200045d565b9150509295509295509295565b600062000578602483620006be565b91507f5061796f75744d616e616765723a20696e76616c69642061737365742061646460008301527f72657373000000000000000000000000000000000000000000000000000000006020830152604082019050919050565b6000620005e0601c83620006be565b91507f5061796f75744d616e616765723a20696e76616c6964206f776e6572000000006000830152602082019050919050565b600060208201905081810360008301526200062e8162000569565b9050919050565b600060208201905081810360008301526200065081620005d1565b9050919050565b6000604051905081810181811067ffffffffffffffff82111715620006815762000680620007a8565b5b8060405250919050565b600067ffffffffffffffff821115620006a957620006a8620007a8565b5b601f19601f8301169050602081019050919050565b600082825260208201905092915050565b6000620006dc82620006e3565b9050919050565b600073ffffffffffffffffffffffffffffffffffffffff82169050919050565b6000819050919050565b60005b838110156200072d57808201518184015260208101905062000710565b838111156200073d576000848401525b50505050565b600060028204905060018216806200075c57607f821691505b6020821081141562000773576200077262000779565b5b50919050565b7f4e487b7100000000000000000000000000000000000000000000000000000000600052602260045260246000fd5b7f4e487b7100000000000000000000000000000000000000000000000000000000600052604160045260246000fd5b620007e281620006cf565b8114620007ee57600080fd5b50565b620007fc8162000703565b81146200080857600080fd5b50565b613269806200081b6000396000f3fe608060405234801561001057600080fd5b50600436106100cf5760003560e01c8063937f6e771161008c578063c21211a311610066578063c21211a314610214578063cb0ae43d14610244578063cfe8307014610260578063d430119b14610290576100cf565b8063937f6e77146101aa57806398e16255146101c6578063ae0b8fd5146101e4576100cf565b80630357371d146100d45780631865c57d146100f0578063259ddefc1461010e5780633a98ef391461013e578063429855101461015c5780636bf90c841461018c575b600080fd5b6100ee60048036038101906100e99190612158565b6102c0565b005b6100f86106c5565b6040516101059190612d18565b60405180910390f35b61012860048036038101906101239190612158565b610984565b6040516101359190612d3a565b60405180910390f35b610146610998565b6040516101539190612d3a565b60405180910390f35b61017660048036038101906101719190612351565b610a24565b6040516101839190612b9d565b60405180910390f35b610194610a53565b6040516101a19190612b7b565b60405180910390f35b6101c460048036038101906101bf91906121bd565b610c04565b005b6101ce610d22565b6040516101db9190612b59565b60405180910390f35b6101fe60048036038101906101f99190612351565b610e1d565b60405161020b9190612d3a565b60405180910390f35b61022e600480360381019061022991906122ff565b610e42565b60405161023b9190612d3a565b60405180910390f35b61025e600480360381019061025991906121fe565b610e5a565b005b61027a60048036038101906102759190612158565b6112de565b6040516102879190612d3a565b60405180910390f35b6102aa60048036038101906102a591906122ff565b61134c565b6040516102b79190612d3a565b60405180910390f35b6000600e6000838152602001908152602001600020549050600c600082815260200190815260200160002060008473ffffffffffffffffffffffffffffffffffffffff1673ffffffffffffffffffffffffffffffffffffffff16815260200190815260200160002060009054906101000a900460ff1615610376576040517f08c379a000000000000000000000000000000000000000000000000000000000815260040161036d90612c18565b60405180910390fd5b6000600d600083815260200190815260200160002060008573ffffffffffffffffffffffffffffffffffffffff1673ffffffffffffffffffffffffffffffffffffffff1681526020019081526020016000205414610409576040517f08c379a000000000000000000000000000000000000000000000000000000000815260040161040090612c58565b60405180910390fd5b6000600b8281548110610445577f4e487b7100000000000000000000000000000000000000000000000000000000600052603260045260246000fd5b90600052602060002090600702019050600061046185856113b4565b9050600081116104a6576040517f08c379a000000000000000000000000000000000000000000000000000000000815260040161049d90612c98565b60405180910390fd5b600082600501546104b561146d565b73ffffffffffffffffffffffffffffffffffffffff16633a98ef396040518163ffffffff1660e01b815260040160206040518083038186803b1580156104fa57600080fd5b505afa15801561050e573d6000803e3d6000fd5b505050506040513d601f19601f820116820180604052508101906105329190612328565b61053c9190612fe8565b90506000818385600201546105519190612f8e565b61055b9190612f5d565b905060008114156105a1576040517f08c379a000000000000000000000000000000000000000000000000000000000815260040161059890612cf8565b60405180910390fd5b80600d600087815260200190815260200160002060008973ffffffffffffffffffffffffffffffffffffffff1673ffffffffffffffffffffffffffffffffffffffff168152602001908152602001600020819055508084600301600082825461060a9190612f07565b92505081905550610643878261061e611499565b73ffffffffffffffffffffffffffffffffffffffff1661152e9092919063ffffffff16565b8673ffffffffffffffffffffffffffffffffffffffff167f93fede667057c1bd18fa0a628a650c1fc54bd3bd215fbdecbfca4b85a57c0f63600060060160009054906101000a900473ffffffffffffffffffffffffffffffffffffffff168784426040516106b49493929190612b14565b60405180910390a250505050505050565b6106cd611a8d565b600060405180610140016040529081600082015481526020016001820160009054906101000a900473ffffffffffffffffffffffffffffffffffffffff1673ffffffffffffffffffffffffffffffffffffffff1673ffffffffffffffffffffffffffffffffffffffff16815260200160028201805461074b906130a6565b80601f0160208091040260200160405190810160405280929190818152602001828054610777906130a6565b80156107c45780601f10610799576101008083540402835291602001916107c4565b820191906000526020600020905b8154815290600101906020018083116107a757829003601f168201915b50505050508152602001600382015481526020016004820160009054906101000a900473ffffffffffffffffffffffffffffffffffffffff1673ffffffffffffffffffffffffffffffffffffffff1673ffffffffffffffffffffffffffffffffffffffff1681526020016005820160009054906101000a900473ffffffffffffffffffffffffffffffffffffffff1673ffffffffffffffffffffffffffffffffffffffff1673ffffffffffffffffffffffffffffffffffffffff1681526020016006820160009054906101000a900473ffffffffffffffffffffffffffffffffffffffff1673ffffffffffffffffffffffffffffffffffffffff1673ffffffffffffffffffffffffffffffffffffffff16815260200160078201548152602001600882015481526020016009820180546108fd906130a6565b80601f0160208091040260200160405190810160405280929190818152602001828054610929906130a6565b80156109765780601f1061094b57610100808354040283529160200191610976565b820191906000526020600020905b81548152906001019060200180831161095957829003601f168201915b505050505081525050905090565b600061099083836113b4565b905092915050565b60006109a261146d565b73ffffffffffffffffffffffffffffffffffffffff16633a98ef396040518163ffffffff1660e01b815260040160206040518083038186803b1580156109e757600080fd5b505afa1580156109fb573d6000803e3d6000fd5b505050506040513d601f19601f82011682018060405250810190610a1f9190612328565b905090565b600c6020528160005260406000206020528060005260406000206000915091509054906101000a900460ff1681565b6060600b805480602002602001604051908101604052809291908181526020016000905b82821015610bfb57838290600052602060002090600702016040518060e001604052908160008201548152602001600182018054610ab4906130a6565b80601f0160208091040260200160405190810160405280929190818152602001828054610ae0906130a6565b8015610b2d5780601f10610b0257610100808354040283529160200191610b2d565b820191906000526020600020905b815481529060010190602001808311610b1057829003601f168201915b505050505081526020016002820154815260200160038201548152602001600482015481526020016005820154815260200160068201805480602002602001604051908101604052809291908181526020018280548015610be357602002820191906000526020600020905b8160009054906101000a900473ffffffffffffffffffffffffffffffffffffffff1673ffffffffffffffffffffffffffffffffffffffff1681526020019060010190808311610b99575b50505050508152505081526020019060010190610a77565b50505050905090565b600060050160009054906101000a900473ffffffffffffffffffffffffffffffffffffffff1673ffffffffffffffffffffffffffffffffffffffff163373ffffffffffffffffffffffffffffffffffffffff1614610c6157600080fd5b600a60405180604001604052808381526020014281525090806001815401808255809150506001900390600052602060002090600202016000909190919091506000820151816000019080519060200190610cbd929190611b38565b506020820151816001015550508060006009019080519060200190610ce3929190611b38565b507f39b28594242c42fce47a0a6e63bac12adbd07fbb35580f5a54b236858101d58a813342604051610d1793929190612bda565b60405180910390a150565b6060600a805480602002602001604051908101604052809291908181526020016000905b82821015610e145783829060005260206000209060020201604051806040016040529081600082018054610d79906130a6565b80601f0160208091040260200160405190810160405280929190818152602001828054610da5906130a6565b8015610df25780601f10610dc757610100808354040283529160200191610df2565b820191906000526020600020905b815481529060010190602001808311610dd557829003601f168201915b5050505050815260200160018201548152505081526020019060010190610d46565b50505050905090565b600d602052816000526040600020602052806000526040600020600091509150505481565b600e6020528060005260406000206000915090505481565b600060050160009054906101000a900473ffffffffffffffffffffffffffffffffffffffff1673ffffffffffffffffffffffffffffffffffffffff163373ffffffffffffffffffffffffffffffffffffffff1614610eb757600080fd5b60008211610efa576040517f08c379a0000000000000000000000000000000000000000000000000000000008152600401610ef190612c78565b60405180910390fd5b610f02611499565b73ffffffffffffffffffffffffffffffffffffffff166323b872dd3330856040518463ffffffff1660e01b8152600401610f3e93929190612ab4565b602060405180830381600087803b158015610f5857600080fd5b505af1158015610f6c573d6000803e3d6000fd5b505050506040513d601f19601f82011682018060405250810190610f909190612194565b506000610f9b61146d565b73ffffffffffffffffffffffffffffffffffffffff16639711715a6040518163ffffffff1660e01b8152600401602060405180830381600087803b158015610fe257600080fd5b505af1158015610ff6573d6000803e3d6000fd5b505050506040513d601f19601f8201168201806040525081019061101a9190612328565b90506000600b8054905090506000600b60018160018154018082558091505003906000526020600020906007020190508281600001819055508581600101908051906020019061106b929190611b38565b508481600201819055508381600601908051906020019061108d929190611bbe565b5080600601600060060160009054906101000a900473ffffffffffffffffffffffffffffffffffffffff169080600181540180825580915050600190039060005260206000200160009091909190916101000a81548173ffffffffffffffffffffffffffffffffffffffff021916908373ffffffffffffffffffffffffffffffffffffffff1602179055508060060161112461146d565b73ffffffffffffffffffffffffffffffffffffffff16631865c57d6040518163ffffffff1660e01b815260040160006040518083038186803b15801561116957600080fd5b505afa15801561117d573d6000803e3d6000fd5b505050506040513d6000823e3d601f19601f820116820180604052508101906111a6919061227d565b60c001519080600181540180825580915050600190039060005260206000200160009091909190916101000a81548173ffffffffffffffffffffffffffffffffffffffff021916908373ffffffffffffffffffffffffffffffffffffffff160217905550600061121683866115b4565b90508082600501819055506001600b805490506112339190612fe8565b600e6000868152602001908152602001600020819055506001600060070160008282546112609190612f07565b92505081905550856000600801600082825461127c9190612f07565b925050819055503373ffffffffffffffffffffffffffffffffffffffff167f37dc393c189f83817570d856284080a2cbb63ad41326d95644617f8970ae3c388488426040516112cd93929190612d55565b60405180910390a250505050505050565b6000600d6000600e600085815260200190815260200160002054815260200190815260200160002060008473ffffffffffffffffffffffffffffffffffffffff1673ffffffffffffffffffffffffffffffffffffffff16815260200190815260200160002054905092915050565b6000600b600e6000848152602001908152602001600020548154811061139b577f4e487b7100000000000000000000000000000000000000000000000000000000600052603260045260246000fd5b9060005260206000209060070201600301549050919050565b60008060060160009054906101000a900473ffffffffffffffffffffffffffffffffffffffff1673ffffffffffffffffffffffffffffffffffffffff16634ee2cd7e84846040518363ffffffff1660e01b8152600401611415929190612aeb565b60206040518083038186803b15801561142d57600080fd5b505afa158015611441573d6000803e3d6000fd5b505050506040513d601f19601f820116820180604052508101906114659190612328565b905092915050565b60008060060160009054906101000a900473ffffffffffffffffffffffffffffffffffffffff16905090565b60006114a361178a565b73ffffffffffffffffffffffffffffffffffffffff16631865c57d6040518163ffffffff1660e01b815260040160006040518083038186803b1580156114e857600080fd5b505afa1580156114fc573d6000803e3d6000fd5b505050506040513d6000823e3d601f19601f8201168201806040525081019061152591906122be565b60a00151905090565b6115af8363a9059cbb60e01b848460405160240161154d929190612aeb565b604051602081830303815290604052907bffffffffffffffffffffffffffffffffffffffffffffffffffffffff19166020820180517bffffffffffffffffffffffffffffffffffffffffffffffffffffffff8381831617835250505050611820565b505050565b60008060008060060160009054906101000a900473ffffffffffffffffffffffffffffffffffffffff16905060005b845181101561177e578173ffffffffffffffffffffffffffffffffffffffff166370a08231868381518110611641577f4e487b7100000000000000000000000000000000000000000000000000000000600052603260045260246000fd5b60200260200101516040518263ffffffff1660e01b81526004016116659190612a99565b60206040518083038186803b15801561167d57600080fd5b505afa158015611691573d6000803e3d6000fd5b505050506040513d601f19601f820116820180604052508101906116b59190612328565b836116c09190612f07565b92506001600c60008881526020019081526020016000206000878481518110611712577f4e487b7100000000000000000000000000000000000000000000000000000000600052603260045260246000fd5b602002602001015173ffffffffffffffffffffffffffffffffffffffff1673ffffffffffffffffffffffffffffffffffffffff16815260200190815260200160002060006101000a81548160ff0219169083151502179055508080611776906130d8565b9150506115e3565b50819250505092915050565b600061179461146d565b73ffffffffffffffffffffffffffffffffffffffff16631865c57d6040518163ffffffff1660e01b815260040160006040518083038186803b1580156117d957600080fd5b505afa1580156117ed573d6000803e3d6000fd5b505050506040513d6000823e3d601f19601f82011682018060405250810190611816919061227d565b6101400151905090565b6000611882826040518060400160405280602081526020017f5361666545524332303a206c6f772d6c6576656c2063616c6c206661696c65648152508573ffffffffffffffffffffffffffffffffffffffff166118e79092919063ffffffff16565b90506000815111156118e257808060200190518101906118a29190612194565b6118e1576040517f08c379a00000000000000000000000000000000000000000000000000000000081526004016118d890612cd8565b60405180910390fd5b5b505050565b60606118f684846000856118ff565b90509392505050565b606082471015611944576040517f08c379a000000000000000000000000000000000000000000000000000000000815260040161193b90612c38565b60405180910390fd5b61194d85611a13565b61198c576040517f08c379a000000000000000000000000000000000000000000000000000000000815260040161198390612cb8565b60405180910390fd5b6000808673ffffffffffffffffffffffffffffffffffffffff1685876040516119b59190612a82565b60006040518083038185875af1925050503d80600081146119f2576040519150601f19603f3d011682016040523d82523d6000602084013e6119f7565b606091505b5091509150611a07828286611a26565b92505050949350505050565b600080823b905060008111915050919050565b60608315611a3657829050611a86565b600083511115611a495782518084602001fd5b816040517f08c379a0000000000000000000000000000000000000000000000000000000008152600401611a7d9190612bb8565b60405180910390fd5b9392505050565b60405180610140016040528060008152602001600073ffffffffffffffffffffffffffffffffffffffff1681526020016060815260200160008152602001600073ffffffffffffffffffffffffffffffffffffffff168152602001600073ffffffffffffffffffffffffffffffffffffffff168152602001600073ffffffffffffffffffffffffffffffffffffffff1681526020016000815260200160008152602001606081525090565b828054611b44906130a6565b90600052602060002090601f016020900481019282611b665760008555611bad565b82601f10611b7f57805160ff1916838001178555611bad565b82800160010185558215611bad579182015b82811115611bac578251825591602001919060010190611b91565b5b509050611bba9190611c48565b5090565b828054828255906000526020600020908101928215611c37579160200282015b82811115611c365782518260006101000a81548173ffffffffffffffffffffffffffffffffffffffff021916908373ffffffffffffffffffffffffffffffffffffffff16021790555091602001919060010190611bde565b5b509050611c449190611c48565b5090565b5b80821115611c61576000816000905550600101611c49565b5090565b6000611c78611c7384612dbd565b612d8c565b90508083825260208201905082856020860282011115611c9757600080fd5b60005b85811015611cc75781611cad8882611d4d565b845260208401935060208301925050600181019050611c9a565b5050509392505050565b6000611ce4611cdf84612de9565b612d8c565b905082815260208101848484011115611cfc57600080fd5b611d07848285613064565b509392505050565b6000611d22611d1d84612de9565b612d8c565b905082815260208101848484011115611d3a57600080fd5b611d45848285613073565b509392505050565b600081359050611d5c816131ee565b92915050565b600081519050611d71816131ee565b92915050565b600082601f830112611d8857600080fd5b8135611d98848260208601611c65565b91505092915050565b600081519050611db081613205565b92915050565b600082601f830112611dc757600080fd5b8135611dd7848260208601611cd1565b91505092915050565b600082601f830112611df157600080fd5b8151611e01848260208601611d0f565b91505092915050565b60006102808284031215611e1d57600080fd5b611e28610280612d8c565b90506000611e3884828501612143565b6000830152506020611e4c84828501611d62565b602083015250604082015167ffffffffffffffff811115611e6c57600080fd5b611e7884828501611de0565b6040830152506060611e8c84828501612143565b6060830152506080611ea084828501611d62565b60808301525060a0611eb484828501611d62565b60a08301525060c0611ec884828501611d62565b60c08301525060e0611edc84828501612143565b60e083015250610100611ef184828501611da1565b61010083015250610120611f0784828501611da1565b61012083015250610140611f1d84828501611d62565b6101408301525061016082015167ffffffffffffffff811115611f3f57600080fd5b611f4b84828501611de0565b6101608301525061018082015167ffffffffffffffff811115611f6d57600080fd5b611f7984828501611de0565b610180830152506101a082015167ffffffffffffffff811115611f9b57600080fd5b611fa784828501611de0565b6101a0830152506101c0611fbd84828501612143565b6101c0830152506101e0611fd384828501612143565b6101e083015250610200611fe984828501611da1565b61020083015250610220611fff84828501612143565b6102208301525061024061201584828501612143565b6102408301525061026061202b84828501612143565b6102608301525092915050565b6000610100828403121561204b57600080fd5b612056610100612d8c565b9050600061206684828501612143565b600083015250602061207a84828501611d62565b602083015250604082015167ffffffffffffffff81111561209a57600080fd5b6120a684828501611de0565b60408301525060606120ba84828501611d62565b60608301525060806120ce84828501611d62565b60808301525060a06120e284828501611d62565b60a08301525060c06120f684828501611d62565b60c08301525060e082015167ffffffffffffffff81111561211657600080fd5b61212284828501611de0565b60e08301525092915050565b60008135905061213d8161321c565b92915050565b6000815190506121528161321c565b92915050565b6000806040838503121561216b57600080fd5b600061217985828601611d4d565b925050602061218a8582860161212e565b9150509250929050565b6000602082840312156121a657600080fd5b60006121b484828501611da1565b91505092915050565b6000602082840312156121cf57600080fd5b600082013567ffffffffffffffff8111156121e957600080fd5b6121f584828501611db6565b91505092915050565b60008060006060848603121561221357600080fd5b600084013567ffffffffffffffff81111561222d57600080fd5b61223986828701611db6565b935050602061224a8682870161212e565b925050604084013567ffffffffffffffff81111561226757600080fd5b61227386828701611d77565b9150509250925092565b60006020828403121561228f57600080fd5b600082015167ffffffffffffffff8111156122a957600080fd5b6122b584828501611e0a565b91505092915050565b6000602082840312156122d057600080fd5b600082015167ffffffffffffffff8111156122ea57600080fd5b6122f684828501612038565b91505092915050565b60006020828403121561231157600080fd5b600061231f8482850161212e565b91505092915050565b60006020828403121561233a57600080fd5b600061234884828501612143565b91505092915050565b6000806040838503121561236457600080fd5b60006123728582860161212e565b925050602061238385828601611d4d565b9150509250929050565b600061239983836123cd565b60208301905092915050565b60006123b183836128a3565b905092915050565b60006123c583836129c1565b905092915050565b6123d68161301c565b82525050565b6123e58161301c565b82525050565b60006123f682612e49565b6124008185612ea7565b935061240b83612e19565b8060005b8381101561243c578151612423888261238d565b975061242e83612e80565b92505060018101905061240f565b5085935050505092915050565b600061245482612e54565b61245e8185612eb8565b93508360208202850161247085612e29565b8060005b858110156124ac578484038952815161248d85826123a5565b945061249883612e8d565b925060208a01995050600181019050612474565b50829750879550505050505092915050565b60006124c982612e5f565b6124d38185612ec9565b9350836020820285016124e585612e39565b8060005b85811015612521578484038952815161250285826123b9565b945061250d83612e9a565b925060208a019950506001810190506124e9565b50829750879550505050505092915050565b61253c8161302e565b82525050565b600061254d82612e6a565b6125578185612eda565b9350612567818560208601613073565b80840191505092915050565b600061257e82612e75565b6125888185612ee5565b9350612598818560208601613073565b6125a1816131dd565b840191505092915050565b60006125b782612e75565b6125c18185612ef6565b93506125d1818560208601613073565b6125da816131dd565b840191505092915050565b60006125f2602583612ef6565b91507f5061796f75744d616e616765723a204163636f756e7420686173206e6f20736860008301527f617265732e0000000000000000000000000000000000000000000000000000006020830152604082019050919050565b6000612658602683612ef6565b91507f416464726573733a20696e73756666696369656e742062616c616e636520666f60008301527f722063616c6c00000000000000000000000000000000000000000000000000006020830152604082019050919050565b60006126be603183612ef6565b91507f5061796f75744d616e616765723a204163636f756e742068617320616c72656160008301527f64792072656c65617365642066756e64730000000000000000000000000000006020830152604082019050919050565b6000612724602d83612ef6565b91507f5061796f75744d616e616765723a20696e76616c6964207061796f757420616d60008301527f6f756e742070726f7669646564000000000000000000000000000000000000006020830152604082019050919050565b600061278a601683612ef6565b91507f4163636f756e7420686173206e6f207368617265732e000000000000000000006000830152602082019050919050565b60006127ca601d83612ef6565b91507f416464726573733a2063616c6c20746f206e6f6e2d636f6e74726163740000006000830152602082019050919050565b600061280a602a83612ef6565b91507f5361666545524332303a204552433230206f7065726174696f6e20646964206e60008301527f6f742073756363656564000000000000000000000000000000000000000000006020830152604082019050919050565b6000612870601b83612ef6565b91507f4163636f756e74206973206e6f7420647565207061796d656e742e00000000006000830152602082019050919050565b600060408301600083015184820360008601526128c08282612573565b91505060208301516128d56020860182612a64565b508091505092915050565b6000610140830160008301516128f96000860182612a64565b50602083015161290c60208601826123cd565b50604083015184820360408601526129248282612573565b91505060608301516129396060860182612a64565b50608083015161294c60808601826123cd565b5060a083015161295f60a08601826123cd565b5060c083015161297260c08601826123cd565b5060e083015161298560e0860182612a64565b5061010083015161299a610100860182612a64565b506101208301518482036101208601526129b48282612573565b9150508091505092915050565b600060e0830160008301516129d96000860182612a64565b50602083015184820360208601526129f18282612573565b9150506040830151612a066040860182612a64565b506060830151612a196060860182612a64565b506080830151612a2c6080860182612a64565b5060a0830151612a3f60a0860182612a64565b5060c083015184820360c0860152612a5782826123eb565b9150508091505092915050565b612a6d8161305a565b82525050565b612a7c8161305a565b82525050565b6000612a8e8284612542565b915081905092915050565b6000602082019050612aae60008301846123dc565b92915050565b6000606082019050612ac960008301866123dc565b612ad660208301856123dc565b612ae36040830184612a73565b949350505050565b6000604082019050612b0060008301856123dc565b612b0d6020830184612a73565b9392505050565b6000608082019050612b2960008301876123dc565b612b366020830186612a73565b612b436040830185612a73565b612b506060830184612a73565b95945050505050565b60006020820190508181036000830152612b738184612449565b905092915050565b60006020820190508181036000830152612b9581846124be565b905092915050565b6000602082019050612bb26000830184612533565b92915050565b60006020820190508181036000830152612bd281846125ac565b905092915050565b60006060820190508181036000830152612bf481866125ac565b9050612c0360208301856123dc565b612c106040830184612a73565b949350505050565b60006020820190508181036000830152612c31816125e5565b9050919050565b60006020820190508181036000830152612c518161264b565b9050919050565b60006020820190508181036000830152612c71816126b1565b9050919050565b60006020820190508181036000830152612c9181612717565b9050919050565b60006020820190508181036000830152612cb18161277d565b9050919050565b60006020820190508181036000830152612cd1816127bd565b9050919050565b60006020820190508181036000830152612cf1816127fd565b9050919050565b60006020820190508181036000830152612d1181612863565b9050919050565b60006020820190508181036000830152612d3281846128e0565b905092915050565b6000602082019050612d4f6000830184612a73565b92915050565b6000606082019050612d6a6000830186612a73565b612d776020830185612a73565b612d846040830184612a73565b949350505050565b6000604051905081810181811067ffffffffffffffff82111715612db357612db26131ae565b5b8060405250919050565b600067ffffffffffffffff821115612dd857612dd76131ae565b5b602082029050602081019050919050565b600067ffffffffffffffff821115612e0457612e036131ae565b5b601f19601f8301169050602081019050919050565b6000819050602082019050919050565b6000819050602082019050919050565b6000819050602082019050919050565b600081519050919050565b600081519050919050565b600081519050919050565b600081519050919050565b600081519050919050565b6000602082019050919050565b6000602082019050919050565b6000602082019050919050565b600082825260208201905092915050565b600082825260208201905092915050565b600082825260208201905092915050565b600081905092915050565b600082825260208201905092915050565b600082825260208201905092915050565b6000612f128261305a565b9150612f1d8361305a565b9250827fffffffffffffffffffffffffffffffffffffffffffffffffffffffffffffffff03821115612f5257612f51613121565b5b828201905092915050565b6000612f688261305a565b9150612f738361305a565b925082612f8357612f82613150565b5b828204905092915050565b6000612f998261305a565b9150612fa48361305a565b9250817fffffffffffffffffffffffffffffffffffffffffffffffffffffffffffffffff0483118215151615612fdd57612fdc613121565b5b828202905092915050565b6000612ff38261305a565b9150612ffe8361305a565b92508282101561301157613010613121565b5b828203905092915050565b60006130278261303a565b9050919050565b60008115159050919050565b600073ffffffffffffffffffffffffffffffffffffffff82169050919050565b6000819050919050565b82818337600083830152505050565b60005b83811015613091578082015181840152602081019050613076565b838111156130a0576000848401525b50505050565b600060028204905060018216806130be57607f821691505b602082108114156130d2576130d161317f565b5b50919050565b60006130e38261305a565b91507fffffffffffffffffffffffffffffffffffffffffffffffffffffffffffffffff82141561311657613115613121565b5b600182019050919050565b7f4e487b7100000000000000000000000000000000000000000000000000000000600052601160045260246000fd5b7f4e487b7100000000000000000000000000000000000000000000000000000000600052601260045260246000fd5b7f4e487b7100000000000000000000000000000000000000000000000000000000600052602260045260246000fd5b7f4e487b7100000000000000000000000000000000000000000000000000000000600052604160045260246000fd5b6000601f19601f8301169050919050565b6131f78161301c565b811461320257600080fd5b50565b61320e8161302e565b811461321957600080fd5b50565b6132258161305a565b811461323057600080fd5b5056fea264697066735822122028a021b78b8f1b00620aaf0190d167fa10a301b27e494058660776bbc3f8e20d64736f6c63430008000033a2646970667358221220bc4885629080337c605a15b54872f86f9bbb497618882226083fd12a46111c7964736f6c63430008000033",
  "linkReferences": {},
  "deployedLinkReferences": {}
}