{
  "_format": "hh-sol-artifact-1",
  "contractName": "AssetTransferableFactory",
  "sourceName": "contracts/asset-transferable/AssetTransferableFactory.sol",
  "abi": [
    {
      "anonymous": false,
      "inputs": [
        {
          "indexed": true,
          "internalType": "address",
          "name": "creator",
          "type": "address"
        },
        {
          "indexed": false,
          "internalType": "address",
          "name": "asset",
          "type": "address"
        },
        {
          "indexed": false,
          "internalType": "uint256",
          "name": "id",
          "type": "uint256"
        },
        {
          "indexed": false,
          "internalType": "uint256",
          "name": "timestamp",
          "type": "uint256"
        }
      ],
      "name": "AssetTransferableCreated",
      "type": "event"
    },
    {
      "inputs": [
        {
          "components": [
            {
              "internalType": "address",
              "name": "creator",
              "type": "address"
            },
            {
              "internalType": "address",
              "name": "issuer",
              "type": "address"
            },
            {
              "internalType": "address",
              "name": "apxRegistry",
              "type": "address"
            },
            {
              "internalType": "string",
              "name": "ansName",
              "type": "string"
            },
            {
              "internalType": "uint256",
              "name": "initialTokenSupply",
              "type": "uint256"
            },
            {
              "internalType": "bool",
              "name": "whitelistRequiredForRevenueClaim",
              "type": "bool"
            },
            {
              "internalType": "bool",
              "name": "whitelistRequiredForLiquidationClaim",
              "type": "bool"
            },
            {
              "internalType": "string",
              "name": "name",
              "type": "string"
            },
            {
              "internalType": "string",
              "name": "symbol",
              "type": "string"
            },
            {
              "internalType": "string",
              "name": "info",
              "type": "string"
            },
            {
              "internalType": "address",
              "name": "childChainManager",
              "type": "address"
            }
          ],
          "internalType": "struct Structs.AssetTransferableFactoryParams",
          "name": "params",
          "type": "tuple"
        }
      ],
      "name": "create",
      "outputs": [
        {
          "internalType": "address",
          "name": "",
          "type": "address"
        }
      ],
      "stateMutability": "nonpayable",
      "type": "function"
    },
    {
      "inputs": [],
      "name": "getInstances",
      "outputs": [
        {
          "internalType": "address[]",
          "name": "",
          "type": "address[]"
        }
      ],
      "stateMutability": "view",
      "type": "function"
    },
    {
      "inputs": [
        {
          "internalType": "address",
          "name": "issuer",
          "type": "address"
        }
      ],
      "name": "getInstancesForIssuer",
      "outputs": [
        {
          "internalType": "address[]",
          "name": "",
          "type": "address[]"
        }
      ],
      "stateMutability": "view",
      "type": "function"
    },
    {
      "inputs": [
        {
          "internalType": "uint256",
          "name": "",
          "type": "uint256"
        }
      ],
      "name": "instances",
      "outputs": [
        {
          "internalType": "address",
          "name": "",
          "type": "address"
        }
      ],
      "stateMutability": "view",
      "type": "function"
    },
    {
      "inputs": [
        {
          "internalType": "address",
          "name": "",
          "type": "address"
        },
        {
          "internalType": "string",
          "name": "",
          "type": "string"
        }
      ],
      "name": "namespace",
      "outputs": [
        {
          "internalType": "address",
          "name": "",
          "type": "address"
        }
      ],
      "stateMutability": "view",
      "type": "function"
    }
  ],
  "bytecode": "0x608060405234801561001057600080fd5b506197c9806100206000396000f3fe60806040523480156200001157600080fd5b50600436106200005e5760003560e01c8063238c3a90146200006357806368ec6f4914620000995780637a9cab9314620000cf578063a2f7b3a51462000105578063d35fdd79146200013b575b600080fd5b6200008160048036038101906200007b919062000a17565b6200015d565b60405162000090919062000e82565b60405180910390f35b620000b76004803603810190620000b1919062000a43565b6200022c565b604051620000c6919062000e28565b60405180910390f35b620000ed6004803603810190620000e7919062000a9d565b62000284565b604051620000fc919062000e28565b60405180910390f35b6200012360048036038101906200011d919062000ae2565b620006fd565b60405162000132919062000e28565b60405180910390f35b620001456200073d565b60405162000154919062000e82565b60405180910390f35b6060600160008373ffffffffffffffffffffffffffffffffffffffff1673ffffffffffffffffffffffffffffffffffffffff1681526020019081526020016000208054806020026020016040519081016040528092919081815260200182805480156200022057602002820191906000526020600020905b8160009054906101000a900473ffffffffffffffffffffffffffffffffffffffff1673ffffffffffffffffffffffffffffffffffffffff1681526020019060010190808311620001d5575b50505050509050919050565b6002602052816000526040600020818051602081018201805184825260208301602085012081835280955050505050506000915091509054906101000a900473ffffffffffffffffffffffffffffffffffffffff1681565b60008073ffffffffffffffffffffffffffffffffffffffff1660026000846020015173ffffffffffffffffffffffffffffffffffffffff1673ffffffffffffffffffffffffffffffffffffffff1681526020019081526020016000208360600151604051620002f4919062000e0f565b908152602001604051809103902060009054906101000a900473ffffffffffffffffffffffffffffffffffffffff1673ffffffffffffffffffffffffffffffffffffffff16146200037c576040517f08c379a0000000000000000000000000000000000000000000000000000000008152600401620003739062000ea6565b60405180910390fd5b600080805490509050600060016000856020015173ffffffffffffffffffffffffffffffffffffffff1673ffffffffffffffffffffffffffffffffffffffff1681526020019081526020016000208054905090506000604051806101a00160405280848152602001866000015173ffffffffffffffffffffffffffffffffffffffff168152602001866020015173ffffffffffffffffffffffffffffffffffffffff168152602001866040015173ffffffffffffffffffffffffffffffffffffffff16815260200186606001518152602001838152602001866080015181526020018660a00151151581526020018660c00151151581526020018660e0015181526020018661010001518152602001866101200151815260200186610140015173ffffffffffffffffffffffffffffffffffffffff16815250604051620004c390620007cd565b620004cf919062000ec8565b604051809103906000f080158015620004ec573d6000803e3d6000fd5b5090506000819080600181540180825580915050600190039060005260206000200160009091909190916101000a81548173ffffffffffffffffffffffffffffffffffffffff021916908373ffffffffffffffffffffffffffffffffffffffff16021790555060016000866020015173ffffffffffffffffffffffffffffffffffffffff1673ffffffffffffffffffffffffffffffffffffffff168152602001908152602001600020819080600181540180825580915050600190039060005260206000200160009091909190916101000a81548173ffffffffffffffffffffffffffffffffffffffff021916908373ffffffffffffffffffffffffffffffffffffffff1602179055508060026000876020015173ffffffffffffffffffffffffffffffffffffffff1673ffffffffffffffffffffffffffffffffffffffff16815260200190815260200160002086606001516040516200064e919062000e0f565b908152602001604051809103902060006101000a81548173ffffffffffffffffffffffffffffffffffffffff021916908373ffffffffffffffffffffffffffffffffffffffff160217905550846000015173ffffffffffffffffffffffffffffffffffffffff167fca2c58fe54777edb70b9d1ee90f27874dfe1061ce95c10b4615b40022c9c64e4828542604051620006ea9392919062000e45565b60405180910390a2809350505050919050565b600081815481106200070e57600080fd5b906000526020600020016000915054906101000a900473ffffffffffffffffffffffffffffffffffffffff1681565b60606000805480602002602001604051908101604052809291908181526020018280548015620007c357602002820191906000526020600020905b8160009054906101000a900473ffffffffffffffffffffffffffffffffffffffff1673ffffffffffffffffffffffffffffffffffffffff168152602001906001019080831162000778575b5050505050905090565b6186b280620010e283390190565b6000620007f2620007ec8462000f20565b62000eec565b9050828152602081018484840111156200080b57600080fd5b620008188482856200100e565b509392505050565b600081359050620008318162001093565b92915050565b6000813590506200084881620010ad565b92915050565b600082601f8301126200086057600080fd5b813562000872848260208601620007db565b91505092915050565b600061016082840312156200088f57600080fd5b6200089c61016062000eec565b90506000620008ae8482850162000820565b6000830152506020620008c48482850162000820565b6020830152506040620008da8482850162000820565b604083015250606082013567ffffffffffffffff811115620008fb57600080fd5b62000909848285016200084e565b60608301525060806200091f8482850162000a00565b60808301525060a0620009358482850162000837565b60a08301525060c06200094b8482850162000837565b60c08301525060e082013567ffffffffffffffff8111156200096c57600080fd5b6200097a848285016200084e565b60e08301525061010082013567ffffffffffffffff8111156200099c57600080fd5b620009aa848285016200084e565b6101008301525061012082013567ffffffffffffffff811115620009cd57600080fd5b620009db848285016200084e565b61012083015250610140620009f38482850162000820565b6101408301525092915050565b60008135905062000a1181620010c7565b92915050565b60006020828403121562000a2a57600080fd5b600062000a3a8482850162000820565b91505092915050565b6000806040838503121562000a5757600080fd5b600062000a678582860162000820565b925050602083013567ffffffffffffffff81111562000a8557600080fd5b62000a93858286016200084e565b9150509250929050565b60006020828403121562000ab057600080fd5b600082013567ffffffffffffffff81111562000acb57600080fd5b62000ad9848285016200087b565b91505092915050565b60006020828403121562000af557600080fd5b600062000b058482850162000a00565b91505092915050565b600062000b1c838362000b28565b60208301905092915050565b62000b338162000fc4565b82525050565b62000b448162000fc4565b82525050565b600062000b578262000f63565b62000b63818562000f86565b935062000b708362000f53565b8060005b8381101562000ba757815162000b8b888262000b0e565b975062000b988362000f79565b92505060018101905062000b74565b5085935050505092915050565b62000bbf8162000fd8565b82525050565b600062000bd28262000f6e565b62000bde818562000f97565b935062000bf08185602086016200101d565b62000bfb8162001082565b840191505092915050565b600062000c138262000f6e565b62000c1f818562000fb9565b935062000c318185602086016200101d565b80840191505092915050565b600062000c4c603d8362000fa8565b91507f41737365745472616e7366657261626c65466163746f72793a2061737365742060008301527f776974682074686973206e616d6520616c7265616479206578697374730000006020830152604082019050919050565b60006101a08301600083015162000cc0600086018262000ded565b50602083015162000cd5602086018262000b28565b50604083015162000cea604086018262000b28565b50606083015162000cff606086018262000b28565b506080830151848203608086015262000d19828262000bc5565b91505060a083015162000d3060a086018262000ded565b5060c083015162000d4560c086018262000ded565b5060e083015162000d5a60e086018262000bb4565b5061010083015162000d7161010086018262000bb4565b5061012083015184820361012086015262000d8d828262000bc5565b91505061014083015184820361014086015262000dab828262000bc5565b91505061016083015184820361016086015262000dc9828262000bc5565b91505061018083015162000de261018086018262000b28565b508091505092915050565b62000df88162001004565b82525050565b62000e098162001004565b82525050565b600062000e1d828462000c06565b915081905092915050565b600060208201905062000e3f600083018462000b39565b92915050565b600060608201905062000e5c600083018662000b39565b62000e6b602083018562000dfe565b62000e7a604083018462000dfe565b949350505050565b6000602082019050818103600083015262000e9e818462000b4a565b905092915050565b6000602082019050818103600083015262000ec18162000c3d565b9050919050565b6000602082019050818103600083015262000ee4818462000ca5565b905092915050565b6000604051905081810181811067ffffffffffffffff8211171562000f165762000f1562001053565b5b8060405250919050565b600067ffffffffffffffff82111562000f3e5762000f3d62001053565b5b601f19601f8301169050602081019050919050565b6000819050602082019050919050565b600081519050919050565b600081519050919050565b6000602082019050919050565b600082825260208201905092915050565b600082825260208201905092915050565b600082825260208201905092915050565b600081905092915050565b600062000fd18262000fe4565b9050919050565b60008115159050919050565b600073ffffffffffffffffffffffffffffffffffffffff82169050919050565b6000819050919050565b82818337600083830152505050565b60005b838110156200103d57808201518184015260208101905062001020565b838111156200104d576000848401525b50505050565b7f4e487b7100000000000000000000000000000000000000000000000000000000600052604160045260246000fd5b6000601f19601f8301169050919050565b6200109e8162000fc4565b8114620010aa57600080fd5b50565b620010b88162000fd8565b8114620010c457600080fd5b50565b620010d28162001004565b8114620010de57600080fd5b5056fe60806040523480156200001157600080fd5b50604051620086b2380380620086b28339818101604052810190620000379190620010a6565b80610120015181610140015181600390805190602001906200005b92919062000c7f565b5080600490805190602001906200007492919062000c7f565b505050600073ffffffffffffffffffffffffffffffffffffffff16816020015173ffffffffffffffffffffffffffffffffffffffff161415620000ee576040517f08c379a0000000000000000000000000000000000000000000000000000000008152600401620000e590620012d7565b60405180910390fd5b600073ffffffffffffffffffffffffffffffffffffffff16816040015173ffffffffffffffffffffffffffffffffffffffff16141562000165576040517f08c379a00000000000000000000000000000000000000000000000000000000081526004016200015c90620012f9565b60405180910390fd5b60008160c0015111620001af576040517f08c379a0000000000000000000000000000000000000000000000000000000008152600401620001a6906200133d565b60405180910390fd5b600073ffffffffffffffffffffffffffffffffffffffff1681610180015173ffffffffffffffffffffffffffffffffffffffff16141562000227576040517f08c379a00000000000000000000000000000000000000000000000000000000081526004016200021e906200131b565b60405180910390fd5b601d6040518060400160405280836101600151815260200142815250908060018154018082558091505060019003906000526020600020906002020160009091909190915060008201518160000190805190602001906200028a92919062000c7f565b506020820151816001015550506000816020015173ffffffffffffffffffffffffffffffffffffffff16826040015173ffffffffffffffffffffffffffffffffffffffff16631865c57d6040518163ffffffff1660e01b815260040160006040518083038186803b158015620002ff57600080fd5b505afa15801562000314573d6000803e3d6000fd5b505050506040513d6000823e3d601f19601f820116820180604052508101906200033f9190620010eb565b6080015173ffffffffffffffffffffffffffffffffffffffff161490506000309050604051806102e00160405280846000015181526020018273ffffffffffffffffffffffffffffffffffffffff168152602001846080015181526020018460a0015181526020013373ffffffffffffffffffffffffffffffffffffffff168152602001846020015173ffffffffffffffffffffffffffffffffffffffff1681526020018460c0015181526020018460e0015115158152602001846101000151151581526020018315158152602001846040015173ffffffffffffffffffffffffffffffffffffffff168152602001846060015173ffffffffffffffffffffffffffffffffffffffff16815260200184610160015181526020018461012001518152602001846101400151815260200160008152602001600081526020016000815260200160001515815260200160008152602001600081526020016000815260200184610180015173ffffffffffffffffffffffffffffffffffffffff1681525060096000820151816000015560208201518160010160006101000a81548173ffffffffffffffffffffffffffffffffffffffff021916908373ffffffffffffffffffffffffffffffffffffffff16021790555060408201518160020190805190602001906200053292919062000c7f565b506060820151816003015560808201518160040160006101000a81548173ffffffffffffffffffffffffffffffffffffffff021916908373ffffffffffffffffffffffffffffffffffffffff16021790555060a08201518160050160006101000a81548173ffffffffffffffffffffffffffffffffffffffff021916908373ffffffffffffffffffffffffffffffffffffffff16021790555060c0820151816006015560e08201518160070160006101000a81548160ff0219169083151502179055506101008201518160070160016101000a81548160ff0219169083151502179055506101208201518160070160026101000a81548160ff0219169083151502179055506101408201518160070160036101000a81548173ffffffffffffffffffffffffffffffffffffffff021916908373ffffffffffffffffffffffffffffffffffffffff1602179055506101608201518160080160006101000a81548173ffffffffffffffffffffffffffffffffffffffff021916908373ffffffffffffffffffffffffffffffffffffffff160217905550610180820151816009019080519060200190620006e692919062000c7f565b506101a082015181600a0190805190602001906200070692919062000c7f565b506101c082015181600b0190805190602001906200072692919062000c7f565b506101e082015181600c015561020082015181600d015561022082015181600e015561024082015181600f0160006101000a81548160ff021916908315150217905550610260820151816010015561028082015181601101556102a082015181601201556102c08201518160130160006101000a81548173ffffffffffffffffffffffffffffffffffffffff021916908373ffffffffffffffffffffffffffffffffffffffff160217905550905050620007ef83602001518460c00151620007f860201b60201c565b5050506200163f565b600073ffffffffffffffffffffffffffffffffffffffff168273ffffffffffffffffffffffffffffffffffffffff1614156200086b576040517f08c379a000000000000000000000000000000000000000000000000000000000815260040162000862906200135f565b60405180910390fd5b6200087f600083836200097160201b60201c565b806002600082825462000893919062001416565b92505081905550806000808473ffffffffffffffffffffffffffffffffffffffff1673ffffffffffffffffffffffffffffffffffffffff1681526020019081526020016000206000828254620008ea919062001416565b925050819055508173ffffffffffffffffffffffffffffffffffffffff16600073ffffffffffffffffffffffffffffffffffffffff167fddf252ad1be2c89b69c2b068fc378daa952ba7f163c4a11628f55a4df523b3ef8360405162000951919062001381565b60405180910390a36200096d6000838362000a6c60201b60201c565b5050565b6200098983838362000a7160201b62002fc91760201c565b600073ffffffffffffffffffffffffffffffffffffffff168373ffffffffffffffffffffffffffffffffffffffff161415620009e657620009d08262000a7660201b60201c565b620009e062000ad960201b60201c565b62000a67565b600073ffffffffffffffffffffffffffffffffffffffff168273ffffffffffffffffffffffffffffffffffffffff16141562000a435762000a2d8362000a7660201b60201c565b62000a3d62000ad960201b60201c565b62000a66565b62000a548362000a7660201b60201c565b62000a658262000a7660201b60201c565b5b5b505050565b505050565b505050565b62000ad6600560008373ffffffffffffffffffffffffffffffffffffffff1673ffffffffffffffffffffffffffffffffffffffff16815260200190815260200160002062000aca8362000afd60201b60201c565b62000b4560201b60201c565b50565b62000afb600662000aef62000bd160201b60201c565b62000b4560201b60201c565b565b60008060008373ffffffffffffffffffffffffffffffffffffffff1673ffffffffffffffffffffffffffffffffffffffff168152602001908152602001600020549050919050565b600062000b5762000bdb60201b60201c565b90508062000b6e8460000162000bf960201b60201c565b101562000bcc5782600001819080600181540180825580915050600190039060005260206000200160009091909190915055826001018290806001815401808255809150506001900390600052602060002001600090919091909150555b505050565b6000600254905090565b600062000bf4600862000c7160201b62002fce1760201c565b905090565b6000808280549050141562000c12576000905062000c6c565b816001838054905062000c26919062001473565b8154811062000c5e577f4e487b7100000000000000000000000000000000000000000000000000000000600052603260045260246000fd5b906000526020600020015490505b919050565b600081600001549050919050565b82805462000c8d906200152e565b90600052602060002090601f01602090048101928262000cb1576000855562000cfd565b82601f1062000ccc57805160ff191683800117855562000cfd565b8280016001018555821562000cfd579182015b8281111562000cfc57825182559160200191906001019062000cdf565b5b50905062000d0c919062000d10565b5090565b5b8082111562000d2b57600081600090555060010162000d11565b5090565b600062000d4662000d4084620013d2565b6200139e565b90508281526020810184848401111562000d5f57600080fd5b62000d6c848285620014f8565b509392505050565b60008151905062000d8581620015f1565b92915050565b60008151905062000d9c816200160b565b92915050565b600082601f83011262000db457600080fd5b815162000dc684826020860162000d2f565b91505092915050565b60006101a0828403121562000de357600080fd5b62000df06101a06200139e565b9050600062000e02848285016200108f565b600083015250602062000e188482850162000d74565b602083015250604062000e2e8482850162000d74565b604083015250606062000e448482850162000d74565b606083015250608082015167ffffffffffffffff81111562000e6557600080fd5b62000e738482850162000da2565b60808301525060a062000e89848285016200108f565b60a08301525060c062000e9f848285016200108f565b60c08301525060e062000eb58482850162000d8b565b60e08301525061010062000ecc8482850162000d8b565b6101008301525061012082015167ffffffffffffffff81111562000eef57600080fd5b62000efd8482850162000da2565b6101208301525061014082015167ffffffffffffffff81111562000f2057600080fd5b62000f2e8482850162000da2565b6101408301525061016082015167ffffffffffffffff81111562000f5157600080fd5b62000f5f8482850162000da2565b6101608301525061018062000f778482850162000d74565b6101808301525092915050565b6000610100828403121562000f9857600080fd5b62000fa56101006200139e565b9050600062000fb7848285016200108f565b600083015250602062000fcd8482850162000d74565b602083015250604082015167ffffffffffffffff81111562000fee57600080fd5b62000ffc8482850162000da2565b6040830152506060620010128482850162000d74565b6060830152506080620010288482850162000d74565b60808301525060a06200103e8482850162000d74565b60a08301525060c0620010548482850162000d74565b60c08301525060e082015167ffffffffffffffff8111156200107557600080fd5b620010838482850162000da2565b60e08301525092915050565b600081519050620010a08162001625565b92915050565b600060208284031215620010b957600080fd5b600082015167ffffffffffffffff811115620010d457600080fd5b620010e28482850162000dcf565b91505092915050565b600060208284031215620010fe57600080fd5b600082015167ffffffffffffffff8111156200111957600080fd5b620011278482850162000f84565b91505092915050565b60006200113f601d8362001405565b91507f41737365743a20496e76616c6964206f776e65722070726f76696465640000006000830152602082019050919050565b600062001181601e8362001405565b91507f41737365743a20496e76616c6964206973737565722070726f766964656400006000830152602082019050919050565b6000620011c360328362001405565b91507f4d6972726f726564546f6b656e3a20696e76616c6964206368696c642063686160008301527f696e206d616e61676572206164647265737300000000000000000000000000006020830152604082019050919050565b60006200122b60268362001405565b91507f41737365743a20496e697469616c20746f6b656e20737570706c792063616e2760008301527f74206265203000000000000000000000000000000000000000000000000000006020830152604082019050919050565b600062001293601f8362001405565b91507f45524332303a206d696e7420746f20746865207a65726f2061646472657373006000830152602082019050919050565b620012d181620014ee565b82525050565b60006020820190508181036000830152620012f28162001130565b9050919050565b60006020820190508181036000830152620013148162001172565b9050919050565b600060208201905081810360008301526200133681620011b4565b9050919050565b6000602082019050818103600083015262001358816200121c565b9050919050565b600060208201905081810360008301526200137a8162001284565b9050919050565b6000602082019050620013986000830184620012c6565b92915050565b6000604051905081810181811067ffffffffffffffff82111715620013c857620013c7620015c2565b5b8060405250919050565b600067ffffffffffffffff821115620013f057620013ef620015c2565b5b601f19601f8301169050602081019050919050565b600082825260208201905092915050565b60006200142382620014ee565b91506200143083620014ee565b9250827fffffffffffffffffffffffffffffffffffffffffffffffffffffffffffffffff0382111562001468576200146762001564565b5b828201905092915050565b60006200148082620014ee565b91506200148d83620014ee565b925082821015620014a357620014a262001564565b5b828203905092915050565b6000620014bb82620014ce565b9050919050565b60008115159050919050565b600073ffffffffffffffffffffffffffffffffffffffff82169050919050565b6000819050919050565b60005b8381101562001518578082015181840152602081019050620014fb565b8381111562001528576000848401525b50505050565b600060028204905060018216806200154757607f821691505b602082108114156200155e576200155d62001593565b5b50919050565b7f4e487b7100000000000000000000000000000000000000000000000000000000600052601160045260246000fd5b7f4e487b7100000000000000000000000000000000000000000000000000000000600052602260045260246000fd5b7f4e487b7100000000000000000000000000000000000000000000000000000000600052604160045260246000fd5b620015fc81620014ae565b81146200160857600080fd5b50565b6200161681620014c2565b81146200162257600080fd5b50565b6200163081620014ee565b81146200163c57600080fd5b50565b617063806200164f6000396000f3fe608060405234801561001057600080fd5b506004361061023d5760003560e01c80635b1cdef21161013b5780639a4e8ce8116100b8578063b37565061161007c578063b3756506146106dd578063bbd94459146106fb578063c24fe16c14610717578063cf2c52cb14610735578063dd62ed3e146107515761023d565b80639a4e8ce814610611578063a0a83f8c1461062f578063a457c2d71461065f578063a9059cbb1461068f578063a91e9750146106bf5761023d565b8063937f6e77116100ff578063937f6e771461056b57806395d89b41146105875780639711715a146105a5578063981b24d0146105c357806398e16255146105f35761023d565b80635b1cdef2146104b757806370a08231146104e7578063764a81bb146105175780638ca3d4bb1461053357806391b14c5f1461054f5761023d565b80632e1a7d4d116101c957806340e688da1161018d57806340e688da146103fe57806349d3f161146104315780634ee2cd7e1461044d57806350c73efe1461047d57806358a687ec146104ad5761023d565b80632e1a7d4d1461035a5780632e61a57114610376578063313ce5671461039257806332e71ead146103b057806339509351146103ce5761023d565b80631865c57d116102105780631865c57d146102ca57806323b872dd146102e857806328a07025146103185780632af4c31e146103225780632d8b95a01461033e5761023d565b8063025ed7991461024257806306fdde031461025e578063095ea7b31461027c57806318160ddd146102ac575b600080fd5b61025c60048036038101906102579190614faa565b610781565b005b6102666108f5565b6040516102739190616547565b60405180910390f35b61029660048036038101906102919190614f6e565b610987565b6040516102a3919061652c565b60405180910390f35b6102b46109a5565b6040516102c191906169c9565b60405180910390f35b6102d26109af565b6040516102df91906169a7565b60405180910390f35b61030260048036038101906102fd9190614ec7565b610edc565b60405161030f919061652c565b60405180910390f35b610320610fd4565b005b61033c60048036038101906103379190614e62565b611569565b005b61035860048036038101906103539190614faa565b61167e565b005b610374600480360381019061036f91906150e9565b61176c565b005b610390600480360381019061038b9190614e62565b611780565b005b61039a6118b2565b6040516103a79190616a0d565b60405180910390f35b6103b86118bb565b6040516103c591906162e5565b60405180910390f35b6103e860048036038101906103e39190614f6e565b6118e8565b6040516103f5919061652c565b60405180910390f35b61041860048036038101906104139190614e62565b611994565b6040516104289493929190616481565b60405180910390f35b61044b60048036038101906104469190614faa565b6119e4565b005b61046760048036038101906104629190614f6e565b611ad2565b60405161047491906169c9565b60405180910390f35b61049760048036038101906104929190614e62565b611b42565b6040516104a491906169c9565b60405180910390f35b6104b5611b8a565b005b6104d160048036038101906104cc9190614e62565b612054565b6040516104de91906169c9565b60405180910390f35b61050160048036038101906104fc9190614e62565b61206c565b60405161050e91906169c9565b60405180910390f35b610531600480360381019061052c9190614e62565b612106565b005b61054d60048036038101906105489190614e62565b612248565b005b61056960048036038101906105649190614e62565b61237a565b005b61058560048036038101906105809190614ffc565b6124a7565b005b61058f6125fa565b60405161059c9190616547565b60405180910390f35b6105ad61268c565b6040516105ba91906169c9565b60405180910390f35b6105dd60048036038101906105d891906150e9565b6126ee565b6040516105ea91906169c9565b60405180910390f35b6105fb61271f565b60405161060891906164c6565b60405180910390f35b61061961281a565b60405161062691906162e5565b60405180910390f35b61064960048036038101906106449190614e62565b612847565b60405161065691906169c9565b60405180910390f35b61067960048036038101906106749190614f6e565b61285e565b604051610686919061652c565b60405180910390f35b6106a960048036038101906106a49190614f6e565b612949565b6040516106b6919061652c565b60405180910390f35b6106c7612967565b6040516106d491906164e8565b60405180910390f35b6106e5612a3a565b6040516106f2919061650a565b60405180910390f35b61071560048036038101906107109190614e62565b612b06565b005b61071f612e86565b60405161072c91906169c9565b60405180910390f35b61074f600480360381019061074a9190614f16565b612e8c565b005b61076b60048036038101906107669190614e8b565b612f42565b60405161077891906169c9565b60405180910390f35b600960070160039054906101000a900473ffffffffffffffffffffffffffffffffffffffff1673ffffffffffffffffffffffffffffffffffffffff16631865c57d6040518163ffffffff1660e01b815260040160006040518083038186803b1580156107ec57600080fd5b505afa158015610800573d6000803e3d6000fd5b505050506040513d6000823e3d601f19601f8201168201806040525081019061082991906150a8565b6080015173ffffffffffffffffffffffffffffffffffffffff163373ffffffffffffffffffffffffffffffffffffffff161461089a576040517f08c379a000000000000000000000000000000000000000000000000000000000815260040161089190616667565b60405180910390fd5b80600960070160026101000a81548160ff0219169083151502179055507f378762f5fbec582efe534abe7b1b8f7e4e4a4ed6ce28c15fc23e2024ead4fcc33382426040516108ea939291906163ea565b60405180910390a150565b60606003805461090490616e94565b80601f016020809104026020016040519081016040528092919081815260200182805461093090616e94565b801561097d5780601f106109525761010080835404028352916020019161097d565b820191906000526020600020905b81548152906001019060200180831161096057829003601f168201915b5050505050905090565b600061099b610994612fdc565b8484612fe4565b6001905092915050565b6000600254905090565b6109b76146b0565b6009604051806102e0016040529081600082015481526020016001820160009054906101000a900473ffffffffffffffffffffffffffffffffffffffff1673ffffffffffffffffffffffffffffffffffffffff1673ffffffffffffffffffffffffffffffffffffffff168152602001600282018054610a3590616e94565b80601f0160208091040260200160405190810160405280929190818152602001828054610a6190616e94565b8015610aae5780601f10610a8357610100808354040283529160200191610aae565b820191906000526020600020905b815481529060010190602001808311610a9157829003601f168201915b50505050508152602001600382015481526020016004820160009054906101000a900473ffffffffffffffffffffffffffffffffffffffff1673ffffffffffffffffffffffffffffffffffffffff1673ffffffffffffffffffffffffffffffffffffffff1681526020016005820160009054906101000a900473ffffffffffffffffffffffffffffffffffffffff1673ffffffffffffffffffffffffffffffffffffffff1673ffffffffffffffffffffffffffffffffffffffff168152602001600682015481526020016007820160009054906101000a900460ff161515151581526020016007820160019054906101000a900460ff161515151581526020016007820160029054906101000a900460ff161515151581526020016007820160039054906101000a900473ffffffffffffffffffffffffffffffffffffffff1673ffffffffffffffffffffffffffffffffffffffff1673ffffffffffffffffffffffffffffffffffffffff1681526020016008820160009054906101000a900473ffffffffffffffffffffffffffffffffffffffff1673ffffffffffffffffffffffffffffffffffffffff1673ffffffffffffffffffffffffffffffffffffffff168152602001600982018054610c8490616e94565b80601f0160208091040260200160405190810160405280929190818152602001828054610cb090616e94565b8015610cfd5780601f10610cd257610100808354040283529160200191610cfd565b820191906000526020600020905b815481529060010190602001808311610ce057829003601f168201915b50505050508152602001600a82018054610d1690616e94565b80601f0160208091040260200160405190810160405280929190818152602001828054610d4290616e94565b8015610d8f5780601f10610d6457610100808354040283529160200191610d8f565b820191906000526020600020905b815481529060010190602001808311610d7257829003601f168201915b50505050508152602001600b82018054610da890616e94565b80601f0160208091040260200160405190810160405280929190818152602001828054610dd490616e94565b8015610e215780601f10610df657610100808354040283529160200191610e21565b820191906000526020600020905b815481529060010190602001808311610e0457829003601f168201915b50505050508152602001600c8201548152602001600d8201548152602001600e8201548152602001600f820160009054906101000a900460ff161515151581526020016010820154815260200160118201548152602001601282015481526020016013820160009054906101000a900473ffffffffffffffffffffffffffffffffffffffff1673ffffffffffffffffffffffffffffffffffffffff1673ffffffffffffffffffffffffffffffffffffffff1681525050905090565b6000610ee98484846131af565b6000600160008673ffffffffffffffffffffffffffffffffffffffff1673ffffffffffffffffffffffffffffffffffffffff1681526020019081526020016000206000610f34612fdc565b73ffffffffffffffffffffffffffffffffffffffff1673ffffffffffffffffffffffffffffffffffffffff16815260200190815260200160002054905082811015610fb4576040517f08c379a0000000000000000000000000000000000000000000000000000000008152600401610fab90616767565b60405180910390fd5b610fc885610fc0612fdc565b858403612fe4565b60019150509392505050565b6009600f0160009054906101000a900460ff1615611027576040517f08c379a000000000000000000000000000000000000000000000000000000000815260040161101e90616787565b60405180910390fd5b600960050160009054906101000a900473ffffffffffffffffffffffffffffffffffffffff1673ffffffffffffffffffffffffffffffffffffffff163373ffffffffffffffffffffffffffffffffffffffff16146110ba576040517f08c379a00000000000000000000000000000000000000000000000000000000081526004016110b1906168a7565b60405180910390fd5b6000600960080160009054906101000a900473ffffffffffffffffffffffffffffffffffffffff16905060008173ffffffffffffffffffffffffffffffffffffffff16633ac47c0a306040518263ffffffff1660e01b815260040161111f91906162e5565b6101406040518083038186803b15801561113857600080fd5b505afa15801561114c573d6000803e3d6000fd5b505050506040513d601f19601f82011682018060405250810190611170919061503d565b905080604001516111b6576040517f08c379a00000000000000000000000000000000000000000000000000000000081526004016111ad906167c7565b60405180910390fd5b80606001516111fa576040517f08c379a00000000000000000000000000000000000000000000000000000000081526004016111f190616887565b60405180910390fd5b3073ffffffffffffffffffffffffffffffffffffffff16816020015173ffffffffffffffffffffffffffffffffffffffff161461126c576040517f08c379a000000000000000000000000000000000000000000000000000000000815260040161126390616927565b60405180910390fd5b8061010001514211156112b4576040517f08c379a00000000000000000000000000000000000000000000000000000000081526004016112ab90616647565b60405180910390fd5b6000808260a001516009600e0154116112d6578260a001518360c001516112e0565b6009600e01546127105b9150915060003073ffffffffffffffffffffffffffffffffffffffff1663dd62ed3e33306040518363ffffffff1660e01b8152600401611321929190616300565b60206040518083038186803b15801561133957600080fd5b505afa15801561134d573d6000803e3d6000fd5b505050506040513d601f19601f820116820180604052508101906113719190615112565b90506000611380828585613430565b9050600081111561148e5780602260003373ffffffffffffffffffffffffffffffffffffffff1673ffffffffffffffffffffffffffffffffffffffff16815260200190815260200160002060008282546113da9190616b77565b9250508190555080600960120160008282546113f69190616b77565b925050819055503073ffffffffffffffffffffffffffffffffffffffff166323b872dd3330856040518463ffffffff1660e01b815260040161143a939291906163b3565b602060405180830381600087803b15801561145457600080fd5b505af1158015611468573d6000803e3d6000fd5b505050506040513d601f19601f8201168201806040525081019061148c9190614fd3565b505b60006114a261149b6109a5565b8686613430565b9050600082826114b29190616dc9565b905060008111156114f2576114f13330836114cb613476565b73ffffffffffffffffffffffffffffffffffffffff16613485909392919063ffffffff16565b5b60016009600f0160006101000a81548160ff02191690831515021790555042600960110181905550816009601001819055507f09c223cfcd8c93e245f558f5f8de755fc0930fd9bc257441155ef5d54a170e0f3383426040516115579392919061644a565b60405180910390a15050505050505050565b600960050160009054906101000a900473ffffffffffffffffffffffffffffffffffffffff1673ffffffffffffffffffffffffffffffffffffffff163373ffffffffffffffffffffffffffffffffffffffff16146115fc576040517f08c379a00000000000000000000000000000000000000000000000000000000081526004016115f3906168a7565b60405180910390fd5b80600960050160006101000a81548173ffffffffffffffffffffffffffffffffffffffff021916908373ffffffffffffffffffffffffffffffffffffffff1602179055507fb4fa0c8f1565e6385961540cac5b9884d84157c515100cf972728e8be8dacdd3338242604051611673939291906163b3565b60405180910390a150565b600960050160009054906101000a900473ffffffffffffffffffffffffffffffffffffffff1673ffffffffffffffffffffffffffffffffffffffff163373ffffffffffffffffffffffffffffffffffffffff1614611711576040517f08c379a0000000000000000000000000000000000000000000000000000000008152600401611708906168a7565b60405180910390fd5b80600960070160006101000a81548160ff0219169083151502179055507f9f9c59041e1db26af9a0f9d072677adec7d0a57053d68e6e298a48535b8bbc8e338242604051611761939291906163ea565b60405180910390a150565b61177d611777612fdc565b8261350e565b50565b600960050160009054906101000a900473ffffffffffffffffffffffffffffffffffffffff1673ffffffffffffffffffffffffffffffffffffffff163373ffffffffffffffffffffffffffffffffffffffff1614611813576040517f08c379a000000000000000000000000000000000000000000000000000000000815260040161180a906168a7565b60405180910390fd5b6009600f0160009054906101000a900460ff1615611866576040517f08c379a000000000000000000000000000000000000000000000000000000000815260040161185d90616787565b60405180910390fd5b6118718160016136e5565b7f5c6ace57e04d50c89abdde343bc20b6dbe48b8ce80684b10a2633f157b637d7533826001426040516118a7949392919061636e565b60405180910390a150565b60006012905090565b6000600960070160039054906101000a900473ffffffffffffffffffffffffffffffffffffffff16905090565b600061198a6118f5612fdc565b848460016000611903612fdc565b73ffffffffffffffffffffffffffffffffffffffff1673ffffffffffffffffffffffffffffffffffffffff16815260200190815260200160002060008873ffffffffffffffffffffffffffffffffffffffff1673ffffffffffffffffffffffffffffffffffffffff168152602001908152602001600020546119859190616b77565b612fe4565b6001905092915050565b60216020528060005260406000206000915090508060000160009054906101000a900473ffffffffffffffffffffffffffffffffffffffff16908060010154908060020154908060030154905084565b600960050160009054906101000a900473ffffffffffffffffffffffffffffffffffffffff1673ffffffffffffffffffffffffffffffffffffffff163373ffffffffffffffffffffffffffffffffffffffff1614611a77576040517f08c379a0000000000000000000000000000000000000000000000000000000008152600401611a6e906168a7565b60405180910390fd5b80600960070160016101000a81548160ff0219169083151502179055507f2f824341849edde519544d4a9e11421845a643b53a544a5e50fbe369cd44da4a338242604051611ac7939291906163ea565b60405180910390a150565b6000806000611b1f84600560008873ffffffffffffffffffffffffffffffffffffffff1673ffffffffffffffffffffffffffffffffffffffff1681526020019081526020016000206138ad565b9150915081611b3657611b3185611b42565b611b38565b805b9250505092915050565b60008060008373ffffffffffffffffffffffffffffffffffffffff1673ffffffffffffffffffffffffffffffffffffffff168152602001908152602001600020549050919050565b6009600f0160009054906101000a900460ff1615611bdd576040517f08c379a0000000000000000000000000000000000000000000000000000000008152600401611bd490616787565b60405180910390fd5b6000339050611beb816139c9565b611c2a576040517f08c379a0000000000000000000000000000000000000000000000000000000008152600401611c21906166e7565b60405180910390fd5b60008173ffffffffffffffffffffffffffffffffffffffff16631865c57d6040518163ffffffff1660e01b815260040160006040518083038186803b158015611c7257600080fd5b505afa158015611c86573d6000803e3d6000fd5b505050506040513d6000823e3d601f19601f82011682018060405250810190611caf9190615067565b9050806101c00151611cf6576040517f08c379a0000000000000000000000000000000000000000000000000000000008152600401611ced90616867565b60405180910390fd5b600081610260015190506000826102800151905060008361012001519050600082118015611d2c575081611d298661206c565b10155b611d6b576040517f08c379a0000000000000000000000000000000000000000000000000000000008152600401611d6290616727565b60405180910390fd5b600083118015611e0a575082611d7f613476565b73ffffffffffffffffffffffffffffffffffffffff166370a08231876040518263ffffffff1660e01b8152600401611db791906162e5565b60206040518083038186803b158015611dcf57600080fd5b505afa158015611de3573d6000803e3d6000fd5b505050506040513d601f19601f82011682018060405250810190611e079190615112565b10155b611e49576040517f08c379a0000000000000000000000000000000000000000000000000000000008152600401611e40906168e7565b60405180910390fd5b826009600c016000828254611e5e9190616b77565b92505081905550816009600d016000828254611e7a9190616b77565b92505081905550600060405180608001604052808773ffffffffffffffffffffffffffffffffffffffff168152602001848152602001858152602001428152509050601f81908060018154018082558091505060019003906000526020600020906004020160009091909190915060008201518160000160006101000a81548173ffffffffffffffffffffffffffffffffffffffff021916908373ffffffffffffffffffffffffffffffffffffffff160217905550602082015181600101556040820151816002015560608201518160030155505080602160008873ffffffffffffffffffffffffffffffffffffffff1673ffffffffffffffffffffffffffffffffffffffff16815260200190815260200160002060008201518160000160006101000a81548173ffffffffffffffffffffffffffffffffffffffff021916908373ffffffffffffffffffffffffffffffffffffffff1602179055506020820151816001015560408201518160020155606082015181600301559050506009600e015482111561200f57816009600e01819055505b7fcbf0fbac05ba7258619b5b6f20bf2b567ce1a76f2f8f0a58f9e7fb3e90958c48338486426040516120449493929190616481565b60405180910390a1505050505050565b60226020528060005260406000206000915090505481565b60006009600f0160009054906101000a900460ff16156120f557600960050160009054906101000a900473ffffffffffffffffffffffffffffffffffffffff1673ffffffffffffffffffffffffffffffffffffffff168273ffffffffffffffffffffffffffffffffffffffff16146120e55760006120ee565b6120ed6109a5565b5b9050612101565b6120fe82613b60565b90505b919050565b600960050160009054906101000a900473ffffffffffffffffffffffffffffffffffffffff1673ffffffffffffffffffffffffffffffffffffffff163373ffffffffffffffffffffffffffffffffffffffff1614612199576040517f08c379a0000000000000000000000000000000000000000000000000000000008152600401612190906168a7565b60405180910390fd5b6000600960130160009054906101000a900473ffffffffffffffffffffffffffffffffffffffff16905081600960130160006101000a81548173ffffffffffffffffffffffffffffffffffffffff021916908373ffffffffffffffffffffffffffffffffffffffff1602179055507f2330135097da4440ae721f5126f66619ce86b5dd8b0df9752a5ed74926e537023382844260405161223c9493929190616329565b60405180910390a15050565b600960050160009054906101000a900473ffffffffffffffffffffffffffffffffffffffff1673ffffffffffffffffffffffffffffffffffffffff163373ffffffffffffffffffffffffffffffffffffffff16146122db576040517f08c379a00000000000000000000000000000000000000000000000000000000081526004016122d2906168a7565b60405180910390fd5b6009600f0160009054906101000a900460ff161561232e576040517f08c379a000000000000000000000000000000000000000000000000000000000815260040161232590616787565b60405180910390fd5b6123398160006136e5565b7f5c6ace57e04d50c89abdde343bc20b6dbe48b8ce80684b10a2633f157b637d75338260004260405161236f949392919061636e565b60405180910390a150565b6009600f0160009054906101000a900460ff16156123cd576040517f08c379a00000000000000000000000000000000000000000000000000000000081526004016123c490616787565b60405180910390fd5b600960080160009054906101000a900473ffffffffffffffffffffffffffffffffffffffff1673ffffffffffffffffffffffffffffffffffffffff163373ffffffffffffffffffffffffffffffffffffffff1614612460576040517f08c379a000000000000000000000000000000000000000000000000000000000815260040161245790616707565b60405180910390fd5b80600960080160006101000a81548173ffffffffffffffffffffffffffffffffffffffff021916908373ffffffffffffffffffffffffffffffffffffffff16021790555050565b600960050160009054906101000a900473ffffffffffffffffffffffffffffffffffffffff1673ffffffffffffffffffffffffffffffffffffffff163373ffffffffffffffffffffffffffffffffffffffff161461253a576040517f08c379a0000000000000000000000000000000000000000000000000000000008152600401612531906168a7565b60405180910390fd5b601d604051806040016040528083815260200142815250908060018154018082558091505060019003906000526020600020906002020160009091909190915060008201518160000190805190602001906125969291906147ea565b50602082015181600101555050806009800190805190602001906125bb9291906147ea565b507f39b28594242c42fce47a0a6e63bac12adbd07fbb35580f5a54b236858101d58a8133426040516125ef93929190616569565b60405180910390a150565b60606004805461260990616e94565b80601f016020809104026020016040519081016040528092919081815260200182805461263590616e94565b80156126825780601f1061265757610100808354040283529160200191612682565b820191906000526020600020905b81548152906001019060200180831161266557829003601f168201915b5050505050905090565b60006009600f0160009054906101000a900460ff16156126e1576040517f08c379a00000000000000000000000000000000000000000000000000000000081526004016126d890616787565b60405180910390fd5b6126e9613ba8565b905090565b60008060006126fe8460066138ad565b91509150816127145761270f6109a5565b612716565b805b92505050919050565b6060601d805480602002602001604051908101604052809291908181526020016000905b82821015612811578382906000526020600020906002020160405180604001604052908160008201805461277690616e94565b80601f01602080910402602001604051908101604052809291908181526020018280546127a290616e94565b80156127ef5780601f106127c4576101008083540402835291602001916127ef565b820191906000526020600020905b8154815290600101906020018083116127d257829003601f168201915b5050505050815260200160018201548152505081526020019060010190612743565b50505050905090565b6000600960040160009054906101000a900473ffffffffffffffffffffffffffffffffffffffff16905090565b602080528060005260406000206000915090505481565b6000806001600061286d612fdc565b73ffffffffffffffffffffffffffffffffffffffff1673ffffffffffffffffffffffffffffffffffffffff16815260200190815260200160002060008573ffffffffffffffffffffffffffffffffffffffff1673ffffffffffffffffffffffffffffffffffffffff1681526020019081526020016000205490508281101561292a576040517f08c379a000000000000000000000000000000000000000000000000000000000815260040161292190616967565b60405180910390fd5b61293e612935612fdc565b85858403612fe4565b600191505092915050565b600061295d612956612fdc565b84846131af565b6001905092915050565b6060601f805480602002602001604051908101604052809291908181526020016000905b82821015612a3157838290600052602060002090600402016040518060800160405290816000820160009054906101000a900473ffffffffffffffffffffffffffffffffffffffff1673ffffffffffffffffffffffffffffffffffffffff1673ffffffffffffffffffffffffffffffffffffffff16815260200160018201548152602001600282015481526020016003820154815250508152602001906001019061298b565b50505050905090565b6060601e805480602002602001604051908101604052809291908181526020016000905b82821015612afd578382906000526020600020016040518060400160405290816000820160009054906101000a900473ffffffffffffffffffffffffffffffffffffffff1673ffffffffffffffffffffffffffffffffffffffff1673ffffffffffffffffffffffffffffffffffffffff1681526020016000820160149054906101000a900460ff16151515158152505081526020019060010190612a5e565b50505050905090565b6009600f0160009054906101000a900460ff16612b58576040517f08c379a0000000000000000000000000000000000000000000000000000000008152600401612b4f90616747565b60405180910390fd5b600960070160019054906101000a900460ff161580612c035750612b7a613bfe565b73ffffffffffffffffffffffffffffffffffffffff16633657e851826040518263ffffffff1660e01b8152600401612bb291906162e5565b60206040518083038186803b158015612bca57600080fd5b505afa158015612bde573d6000803e3d6000fd5b505050506040513d601f19601f82011682018060405250810190612c029190614fd3565b5b612c42576040517f08c379a0000000000000000000000000000000000000000000000000000000008152600401612c3990616607565b60405180910390fd5b6000612c4e8230612f42565b905060008111612c93576040517f08c379a0000000000000000000000000000000000000000000000000000000008152600401612c8a90616947565b60405180910390fd5b6000612c9d6109a5565b60096010015483612cae9190616d6f565b612cb89190616bcd565b905060008111612cfd576040517f08c379a0000000000000000000000000000000000000000000000000000000008152600401612cf490616807565b60405180910390fd5b80602260008573ffffffffffffffffffffffffffffffffffffffff1673ffffffffffffffffffffffffffffffffffffffff1681526020019081526020016000206000828254612d4c9190616b77565b925050819055508060096012016000828254612d689190616b77565b92505081905550612da18382612d7c613476565b73ffffffffffffffffffffffffffffffffffffffff16613c2b9092919063ffffffff16565b3073ffffffffffffffffffffffffffffffffffffffff166323b872dd8430856040518463ffffffff1660e01b8152600401612dde939291906163b3565b602060405180830381600087803b158015612df857600080fd5b505af1158015612e0c573d6000803e3d6000fd5b505050506040513d601f19601f82011682018060405250810190612e309190614fd3565b508273ffffffffffffffffffffffffffffffffffffffff167f2aec1c87f3bc903aa0be5af816e24360e038c884cb96b991091f860698e3a2598242604051612e799291906169e4565b60405180910390a2505050565b61271081565b600960130160009054906101000a900473ffffffffffffffffffffffffffffffffffffffff1673ffffffffffffffffffffffffffffffffffffffff163373ffffffffffffffffffffffffffffffffffffffff1614612f1f576040517f08c379a0000000000000000000000000000000000000000000000000000000008152600401612f16906166a7565b60405180910390fd5b60008282810190612f3091906150e9565b9050612f3c8482613cb1565b50505050565b6000600160008473ffffffffffffffffffffffffffffffffffffffff1673ffffffffffffffffffffffffffffffffffffffff16815260200190815260200160002060008373ffffffffffffffffffffffffffffffffffffffff1673ffffffffffffffffffffffffffffffffffffffff16815260200190815260200160002054905092915050565b505050565b600081600001549050919050565b600033905090565b600073ffffffffffffffffffffffffffffffffffffffff168373ffffffffffffffffffffffffffffffffffffffff161415613054576040517f08c379a000000000000000000000000000000000000000000000000000000000815260040161304b90616827565b60405180910390fd5b600073ffffffffffffffffffffffffffffffffffffffff168273ffffffffffffffffffffffffffffffffffffffff1614156130c4576040517f08c379a00000000000000000000000000000000000000000000000000000000081526004016130bb90616627565b60405180910390fd5b80600160008573ffffffffffffffffffffffffffffffffffffffff1673ffffffffffffffffffffffffffffffffffffffff16815260200190815260200160002060008473ffffffffffffffffffffffffffffffffffffffff1673ffffffffffffffffffffffffffffffffffffffff168152602001908152602001600020819055508173ffffffffffffffffffffffffffffffffffffffff168373ffffffffffffffffffffffffffffffffffffffff167f8c5be1e5ebec7d5bd14f71427d1e84f3dd0314c0f7b2291e5b200ac8c7c3b925836040516131a291906169c9565b60405180910390a3505050565b600073ffffffffffffffffffffffffffffffffffffffff168373ffffffffffffffffffffffffffffffffffffffff16141561321f576040517f08c379a0000000000000000000000000000000000000000000000000000000008152600401613216906167e7565b60405180910390fd5b600073ffffffffffffffffffffffffffffffffffffffff168273ffffffffffffffffffffffffffffffffffffffff16141561328f576040517f08c379a0000000000000000000000000000000000000000000000000000000008152600401613286906165c7565b60405180910390fd5b61329a838383613e11565b60008060008573ffffffffffffffffffffffffffffffffffffffff1673ffffffffffffffffffffffffffffffffffffffff16815260200190815260200160002054905081811015613320576040517f08c379a000000000000000000000000000000000000000000000000000000000815260040161331790616687565b60405180910390fd5b8181036000808673ffffffffffffffffffffffffffffffffffffffff1673ffffffffffffffffffffffffffffffffffffffff16815260200190815260200160002081905550816000808573ffffffffffffffffffffffffffffffffffffffff1673ffffffffffffffffffffffffffffffffffffffff16815260200190815260200160002060008282546133b39190616b77565b925050819055508273ffffffffffffffffffffffffffffffffffffffff168473ffffffffffffffffffffffffffffffffffffffff167fddf252ad1be2c89b69c2b068fc378daa952ba7f163c4a11628f55a4df523b3ef8460405161341791906169c9565b60405180910390a361342a848484613ecb565b50505050565b60008161343b613ed0565b6134459190616d6f565b61344d613eeb565b84866134599190616d6f565b6134639190616d6f565b61346d9190616bcd565b90509392505050565b6000613480613f83565b905090565b613508846323b872dd60e01b8585856040516024016134a6939291906163b3565b604051602081830303815290604052907bffffffffffffffffffffffffffffffffffffffffffffffffffffffff19166020820180517bffffffffffffffffffffffffffffffffffffffffffffffffffffffff8381831617835250505050614018565b50505050565b600073ffffffffffffffffffffffffffffffffffffffff168273ffffffffffffffffffffffffffffffffffffffff16141561357e576040517f08c379a0000000000000000000000000000000000000000000000000000000008152600401613575906167a7565b60405180910390fd5b61358a82600083613e11565b60008060008473ffffffffffffffffffffffffffffffffffffffff1673ffffffffffffffffffffffffffffffffffffffff16815260200190815260200160002054905081811015613610576040517f08c379a0000000000000000000000000000000000000000000000000000000008152600401613607906165e7565b60405180910390fd5b8181036000808573ffffffffffffffffffffffffffffffffffffffff1673ffffffffffffffffffffffffffffffffffffffff1681526020019081526020016000208190555081600260008282546136679190616dc9565b92505081905550600073ffffffffffffffffffffffffffffffffffffffff168373ffffffffffffffffffffffffffffffffffffffff167fddf252ad1be2c89b69c2b068fc378daa952ba7f163c4a11628f55a4df523b3ef846040516136cc91906169c9565b60405180910390a36136e083600084613ecb565b505050565b6136ee826140df565b156137965780601e602060008573ffffffffffffffffffffffffffffffffffffffff1673ffffffffffffffffffffffffffffffffffffffff168152602001908152602001600020548154811061376d577f4e487b7100000000000000000000000000000000000000000000000000000000600052603260045260246000fd5b9060005260206000200160000160146101000a81548160ff0219169083151502179055506138a9565b601e60405180604001604052808473ffffffffffffffffffffffffffffffffffffffff1681526020018315158152509080600181540180825580915050600190039060005260206000200160009091909190915060008201518160000160006101000a81548173ffffffffffffffffffffffffffffffffffffffff021916908373ffffffffffffffffffffffffffffffffffffffff16021790555060208201518160000160146101000a81548160ff02191690831515021790555050506001601e805490506138659190616dc9565b602060008473ffffffffffffffffffffffffffffffffffffffff1673ffffffffffffffffffffffffffffffffffffffff168152602001908152602001600020819055505b5050565b600080600084116138f3576040517f08c379a00000000000000000000000000000000000000000000000000000000081526004016138ea906168c7565b60405180910390fd5b6138fb614201565b84111561393d576040517f08c379a0000000000000000000000000000000000000000000000000000000008152600401613934906165a7565b60405180910390fd5b6000613955858560000161421290919063ffffffff16565b905083600001805490508114156139735760008092509250506139c2565b60018460010182815481106139b1577f4e487b7100000000000000000000000000000000000000000000000000000000600052603260045260246000fd5b906000526020600020015492509250505b9250929050565b6000600960050160009054906101000a900473ffffffffffffffffffffffffffffffffffffffff1673ffffffffffffffffffffffffffffffffffffffff168273ffffffffffffffffffffffffffffffffffffffff16631865c57d6040518163ffffffff1660e01b815260040160006040518083038186803b158015613a4d57600080fd5b505afa158015613a61573d6000803e3d6000fd5b505050506040513d6000823e3d601f19601f82011682018060405250810190613a8a9190615067565b60a0015173ffffffffffffffffffffffffffffffffffffffff161415613ab35760019050613b5b565b613abc826140df565b8015613b585750601e602060008473ffffffffffffffffffffffffffffffffffffffff1673ffffffffffffffffffffffffffffffffffffffff1681526020019081526020016000205481548110613b3c577f4e487b7100000000000000000000000000000000000000000000000000000000600052603260045260246000fd5b9060005260206000200160000160149054906101000a900460ff165b90505b919050565b60008060008373ffffffffffffffffffffffffffffffffffffffff1673ffffffffffffffffffffffffffffffffffffffff168152602001908152602001600020549050919050565b6000613bb46008614338565b6000613bbe614201565b90507f8030e83b04d87bef53480e26263266d6ca66863aa8506aca6f2559d18aa1cb6781604051613bef91906169c9565b60405180910390a18091505090565b6000600960070160039054906101000a900473ffffffffffffffffffffffffffffffffffffffff16905090565b613cac8363a9059cbb60e01b8484604051602401613c4a929190616421565b604051602081830303815290604052907bffffffffffffffffffffffffffffffffffffffffffffffffffffffff19166020820180517bffffffffffffffffffffffffffffffffffffffffffffffffffffffff8381831617835250505050614018565b505050565b600073ffffffffffffffffffffffffffffffffffffffff168273ffffffffffffffffffffffffffffffffffffffff161415613d21576040517f08c379a0000000000000000000000000000000000000000000000000000000008152600401613d1890616987565b60405180910390fd5b613d2d60008383613e11565b8060026000828254613d3f9190616b77565b92505081905550806000808473ffffffffffffffffffffffffffffffffffffffff1673ffffffffffffffffffffffffffffffffffffffff1681526020019081526020016000206000828254613d949190616b77565b925050819055508173ffffffffffffffffffffffffffffffffffffffff16600073ffffffffffffffffffffffffffffffffffffffff167fddf252ad1be2c89b69c2b068fc378daa952ba7f163c4a11628f55a4df523b3ef83604051613df991906169c9565b60405180910390a3613e0d60008383613ecb565b5050565b613e1c838383612fc9565b600073ffffffffffffffffffffffffffffffffffffffff168373ffffffffffffffffffffffffffffffffffffffff161415613e6757613e5a8261434e565b613e626143a1565b613ec6565b600073ffffffffffffffffffffffffffffffffffffffff168273ffffffffffffffffffffffffffffffffffffffff161415613eb257613ea58361434e565b613ead6143a1565b613ec5565b613ebb8361434e565b613ec48261434e565b5b5b505050565b505050565b6000613eda6118b2565b600a613ee69190616c51565b905090565b6000613ef5613f83565b73ffffffffffffffffffffffffffffffffffffffff1663313ce5676040518163ffffffff1660e01b815260040160206040518083038186803b158015613f3a57600080fd5b505afa158015613f4e573d6000803e3d6000fd5b505050506040513d601f19601f82011682018060405250810190613f72919061513b565b600a613f7e9190616c51565b905090565b6000613f8d613bfe565b73ffffffffffffffffffffffffffffffffffffffff16631865c57d6040518163ffffffff1660e01b815260040160006040518083038186803b158015613fd257600080fd5b505afa158015613fe6573d6000803e3d6000fd5b505050506040513d6000823e3d601f19601f8201168201806040525081019061400f91906150a8565b60a00151905090565b600061407a826040518060400160405280602081526020017f5361666545524332303a206c6f772d6c6576656c2063616c6c206661696c65648152508573ffffffffffffffffffffffffffffffffffffffff166143b59092919063ffffffff16565b90506000815111156140da578080602001905181019061409a9190614fd3565b6140d9576040517f08c379a00000000000000000000000000000000000000000000000000000000081526004016140d090616907565b60405180910390fd5b5b505050565b600080602060008473ffffffffffffffffffffffffffffffffffffffff1673ffffffffffffffffffffffffffffffffffffffff1681526020019081526020016000205490506000601e80549050141561413c5760009150506141fc565b601e8054905081106141525760009150506141fc565b8273ffffffffffffffffffffffffffffffffffffffff16601e82815481106141a3577f4e487b7100000000000000000000000000000000000000000000000000000000600052603260045260246000fd5b9060005260206000200160000160009054906101000a900473ffffffffffffffffffffffffffffffffffffffff1673ffffffffffffffffffffffffffffffffffffffff16146141f65760009150506141fc565b60019150505b919050565b600061420d6008612fce565b905090565b600080838054905014156142295760009050614332565b600080848054905090505b808210156142b357600061424883836143cd565b905084868281548110614284577f4e487b7100000000000000000000000000000000000000000000000000000000600052603260045260246000fd5b9060005260206000200154111561429d578091506142ad565b6001816142aa9190616b77565b92505b50614234565b600082118015614311575083856001846142cd9190616dc9565b81548110614304577f4e487b7100000000000000000000000000000000000000000000000000000000600052603260045260246000fd5b9060005260206000200154145b1561432c576001826143239190616dc9565b92505050614332565b81925050505b92915050565b6001816000016000828254019250508190555050565b61439e600560008373ffffffffffffffffffffffffffffffffffffffff1673ffffffffffffffffffffffffffffffffffffffff16815260200190815260200160002061439983611b42565b614434565b50565b6143b360066143ae6109a5565b614434565b565b60606143c484846000856144af565b90509392505050565b6000600280836143dd9190616ec6565b6002856143ea9190616ec6565b6143f49190616b77565b6143fe9190616bcd565b60028361440b9190616bcd565b6002856144189190616bcd565b6144229190616b77565b61442c9190616b77565b905092915050565b600061443e614201565b90508061444d846000016145c3565b10156144aa5782600001819080600181540180825580915050600190039060005260206000200160009091909190915055826001018290806001815401808255809150506001900390600052602060002001600090919091909150555b505050565b6060824710156144f4576040517f08c379a00000000000000000000000000000000000000000000000000000000081526004016144eb906166c7565b60405180910390fd5b6144fd85614636565b61453c576040517f08c379a000000000000000000000000000000000000000000000000000000000815260040161453390616847565b60405180910390fd5b6000808673ffffffffffffffffffffffffffffffffffffffff16858760405161456591906162ce565b60006040518083038185875af1925050503d80600081146145a2576040519150601f19603f3d011682016040523d82523d6000602084013e6145a7565b606091505b50915091506145b7828286614649565b92505050949350505050565b600080828054905014156145da5760009050614631565b81600183805490506145ec9190616dc9565b81548110614623577f4e487b7100000000000000000000000000000000000000000000000000000000600052603260045260246000fd5b906000526020600020015490505b919050565b600080823b905060008111915050919050565b60608315614659578290506146a9565b60008351111561466c5782518084602001fd5b816040517f08c379a00000000000000000000000000000000000000000000000000000000081526004016146a09190616547565b60405180910390fd5b9392505050565b604051806102e0016040528060008152602001600073ffffffffffffffffffffffffffffffffffffffff1681526020016060815260200160008152602001600073ffffffffffffffffffffffffffffffffffffffff168152602001600073ffffffffffffffffffffffffffffffffffffffff16815260200160008152602001600015158152602001600015158152602001600015158152602001600073ffffffffffffffffffffffffffffffffffffffff168152602001600073ffffffffffffffffffffffffffffffffffffffff168152602001606081526020016060815260200160608152602001600081526020016000815260200160008152602001600015158152602001600081526020016000815260200160008152602001600073ffffffffffffffffffffffffffffffffffffffff1681525090565b8280546147f690616e94565b90600052602060002090601f016020900481019282614818576000855561485f565b82601f1061483157805160ff191683800117855561485f565b8280016001018555821561485f579182015b8281111561485e578251825591602001919060010190614843565b5b50905061486c9190614870565b5090565b5b80821115614889576000816000905550600101614871565b5090565b60006148a061489b84616a59565b616a28565b9050828152602081018484840111156148b857600080fd5b6148c3848285616e52565b509392505050565b60006148de6148d984616a59565b616a28565b9050828152602081018484840111156148f657600080fd5b614901848285616e61565b509392505050565b60008135905061491881616fd1565b92915050565b60008151905061492d81616fd1565b92915050565b60008135905061494281616fe8565b92915050565b60008151905061495781616fe8565b92915050565b60008083601f84011261496f57600080fd5b8235905067ffffffffffffffff81111561498857600080fd5b6020830191508360018202830111156149a057600080fd5b9250929050565b600082601f8301126149b857600080fd5b81356149c884826020860161488d565b91505092915050565b600082601f8301126149e257600080fd5b81516149f28482602086016148cb565b91505092915050565b60006101408284031215614a0e57600080fd5b614a19610140616a28565b90506000614a298482850161491e565b6000830152506020614a3d8482850161491e565b6020830152506040614a5184828501614948565b6040830152506060614a6584828501614948565b6060830152506080614a7984828501614e38565b60808301525060a0614a8d84828501614e38565b60a08301525060c0614aa184828501614e38565b60c08301525060e0614ab584828501614e38565b60e083015250610100614aca84828501614e38565b61010083015250610120614ae08482850161491e565b6101208301525092915050565b60006102e08284031215614b0057600080fd5b614b0b6102e0616a28565b90506000614b1b84828501614e38565b6000830152506020614b2f8482850161491e565b602083015250604082015167ffffffffffffffff811115614b4f57600080fd5b614b5b848285016149d1565b6040830152506060614b6f84828501614e38565b6060830152506080614b838482850161491e565b60808301525060a0614b978482850161491e565b60a08301525060c0614bab8482850161491e565b60c08301525060e0614bbf8482850161491e565b60e083015250610100614bd48482850161491e565b61010083015250610120614bea84828501614e38565b61012083015250610140614c0084828501614e38565b61014083015250610160614c1684828501614e38565b61016083015250610180614c2c84828501614e38565b610180830152506101a0614c4284828501614948565b6101a0830152506101c0614c5884828501614948565b6101c0830152506101e0614c6e84828501614948565b6101e083015250610200614c8484828501614e38565b61020083015250610220614c9a84828501614e38565b61022083015250610240614cb084828501614e38565b61024083015250610260614cc684828501614e38565b61026083015250610280614cdc84828501614e38565b610280830152506102a0614cf284828501614e38565b6102a0830152506102c082015167ffffffffffffffff811115614d1457600080fd5b614d20848285016149d1565b6102c08301525092915050565b60006101008284031215614d4057600080fd5b614d4b610100616a28565b90506000614d5b84828501614e38565b6000830152506020614d6f8482850161491e565b602083015250604082015167ffffffffffffffff811115614d8f57600080fd5b614d9b848285016149d1565b6040830152506060614daf8482850161491e565b6060830152506080614dc38482850161491e565b60808301525060a0614dd78482850161491e565b60a08301525060c0614deb8482850161491e565b60c08301525060e082015167ffffffffffffffff811115614e0b57600080fd5b614e17848285016149d1565b60e08301525092915050565b600081359050614e3281616fff565b92915050565b600081519050614e4781616fff565b92915050565b600081519050614e5c81617016565b92915050565b600060208284031215614e7457600080fd5b6000614e8284828501614909565b91505092915050565b60008060408385031215614e9e57600080fd5b6000614eac85828601614909565b9250506020614ebd85828601614909565b9150509250929050565b600080600060608486031215614edc57600080fd5b6000614eea86828701614909565b9350506020614efb86828701614909565b9250506040614f0c86828701614e23565b9150509250925092565b600080600060408486031215614f2b57600080fd5b6000614f3986828701614909565b935050602084013567ffffffffffffffff811115614f5657600080fd5b614f628682870161495d565b92509250509250925092565b60008060408385031215614f8157600080fd5b6000614f8f85828601614909565b9250506020614fa085828601614e23565b9150509250929050565b600060208284031215614fbc57600080fd5b6000614fca84828501614933565b91505092915050565b600060208284031215614fe557600080fd5b6000614ff384828501614948565b91505092915050565b60006020828403121561500e57600080fd5b600082013567ffffffffffffffff81111561502857600080fd5b615034848285016149a7565b91505092915050565b6000610140828403121561505057600080fd5b600061505e848285016149fb565b91505092915050565b60006020828403121561507957600080fd5b600082015167ffffffffffffffff81111561509357600080fd5b61509f84828501614aed565b91505092915050565b6000602082840312156150ba57600080fd5b600082015167ffffffffffffffff8111156150d457600080fd5b6150e084828501614d2d565b91505092915050565b6000602082840312156150fb57600080fd5b600061510984828501614e23565b91505092915050565b60006020828403121561512457600080fd5b600061513284828501614e38565b91505092915050565b60006020828403121561514d57600080fd5b600061515b84828501614e4d565b91505092915050565b600061517083836161e0565b905092915050565b6000615184838361621d565b60808301905092915050565b600061519c8383616272565b60408301905092915050565b6151b181616dfd565b82525050565b6151c081616dfd565b82525050565b60006151d182616ab9565b6151db8185616b17565b9350836020820285016151ed85616a89565b8060005b85811015615229578484038952815161520a8582615164565b945061521583616af0565b925060208a019950506001810190506151f1565b50829750879550505050505092915050565b600061524682616ac4565b6152508185616b28565b935061525b83616a99565b8060005b8381101561528c5781516152738882615178565b975061527e83616afd565b92505060018101905061525f565b5085935050505092915050565b60006152a482616acf565b6152ae8185616b39565b93506152b983616aa9565b8060005b838110156152ea5781516152d18882615190565b97506152dc83616b0a565b9250506001810190506152bd565b5085935050505092915050565b61530081616e0f565b82525050565b61530f81616e0f565b82525050565b600061532082616ada565b61532a8185616b4a565b935061533a818560208601616e61565b80840191505092915050565b600061535182616ae5565b61535b8185616b55565b935061536b818560208601616e61565b61537481616fb3565b840191505092915050565b600061538a82616ae5565b6153948185616b66565b93506153a4818560208601616e61565b6153ad81616fb3565b840191505092915050565b60006153c5601d83616b66565b91507f4552433230536e617073686f743a206e6f6e6578697374656e742069640000006000830152602082019050919050565b6000615405602383616b66565b91507f45524332303a207472616e7366657220746f20746865207a65726f206164647260008301527f65737300000000000000000000000000000000000000000000000000000000006020830152604082019050919050565b600061546b602283616b66565b91507f45524332303a206275726e20616d6f756e7420657863656564732062616c616e60008301527f63650000000000000000000000000000000000000000000000000000000000006020830152604082019050919050565b60006154d1604483616b66565b91507f41737365743a2077616c6c6574206d7573742062652077686974656c6973746560008301527f64206265666f726520636c61696d696e67206c69717569646174696f6e20736860208301527f6172652e000000000000000000000000000000000000000000000000000000006040830152606082019050919050565b600061555d602283616b66565b91507f45524332303a20617070726f766520746f20746865207a65726f20616464726560008301527f73730000000000000000000000000000000000000000000000000000000000006020830152604082019050919050565b60006155c3602083616b66565b91507f41737365745472616e7366657261626c653a20507269636520657870697265646000830152602082019050919050565b6000615603602e83616b66565b91507f41737365743a204f6e6c7920697373756572206f776e65722063616e206d616b60008301527f65207468697320616374696f6e2e0000000000000000000000000000000000006020830152604082019050919050565b6000615669602683616b66565b91507f45524332303a207472616e7366657220616d6f756e742065786365656473206260008301527f616c616e636500000000000000000000000000000000000000000000000000006020830152604082019050919050565b60006156cf604183616b66565b91507f41737365745472616e7366657261626c653a204f6e6c79206368696c6420636860008301527f61696e206d616e616765722063616e206d616b65207468697320616374696f6e60208301527f2e000000000000000000000000000000000000000000000000000000000000006040830152606082019050919050565b600061575b602683616b66565b91507f416464726573733a20696e73756666696369656e742062616c616e636520666f60008301527f722063616c6c00000000000000000000000000000000000000000000000000006020830152604082019050919050565b60006157c1601d83616b66565b91507f41737365743a2043616d706169676e206e6f7420617070726f7665642e0000006000830152602082019050919050565b6000615801603b83616b66565b91507f41737365745472616e7366657261626c653a204f6e6c7920617078526567697360008301527f7472792063616e2063616c6c20746869732066756e6374696f6e2e00000000006020830152604082019050919050565b6000615867605783616b66565b91507f41737365743a2043616d706169676e20686173207369676e616c6c656420746860008301527f652073616c652066696e616c697a6174696f6e206275742063616d706169676e60208301527f20746f6b656e7320617265206e6f742070726573656e740000000000000000006040830152606082019050919050565b60006158f3601583616b66565b91507f41737365743a206e6f74206c69717569646174656400000000000000000000006000830152602082019050919050565b6000615933602883616b66565b91507f45524332303a207472616e7366657220616d6f756e742065786365656473206160008301527f6c6c6f77616e63650000000000000000000000000000000000000000000000006020830152604082019050919050565b6000615999602a83616b66565b91507f41737365743a20416374696f6e20666f7262696464656e2c206173736574206c60008301527f6971756964617465642e000000000000000000000000000000000000000000006020830152604082019050919050565b60006159ff602183616b66565b91507f45524332303a206275726e2066726f6d20746865207a65726f2061646472657360008301527f73000000000000000000000000000000000000000000000000000000000000006020830152604082019050919050565b6000615a65603183616b66565b91507f41737365745472616e7366657261626c653a204e6f742072656769737465726560008301527f6420696e204170782052656769737472790000000000000000000000000000006020830152604082019050919050565b6000615acb602583616b66565b91507f45524332303a207472616e736665722066726f6d20746865207a65726f20616460008301527f64726573730000000000000000000000000000000000000000000000000000006020830152604082019050919050565b6000615b31602483616b66565b91507f41737365743a206e6f206c69717569646174696f6e2066756e647320746f206360008301527f6c61696d000000000000000000000000000000000000000000000000000000006020830152604082019050919050565b6000615b97602483616b66565b91507f45524332303a20617070726f76652066726f6d20746865207a65726f2061646460008301527f72657373000000000000000000000000000000000000000000000000000000006020830152604082019050919050565b6000615bfd601d83616b66565b91507f416464726573733a2063616c6c20746f206e6f6e2d636f6e74726163740000006000830152602082019050919050565b6000615c3d601d83616b66565b91507f41737365743a2043616d706169676e206e6f742066696e616c697a65640000006000830152602082019050919050565b6000615c7d603083616b66565b91507f41737365745472616e7366657261626c653a20417373657420626c6f636b656460008301527f20696e20417078205265676973747279000000000000000000000000000000006020830152604082019050919050565b6000615ce3602f83616b66565b91507f41737365743a204f6e6c792061737365742063726561746f722063616e206d6160008301527f6b65207468697320616374696f6e2e00000000000000000000000000000000006020830152604082019050919050565b6000615d49601683616b66565b91507f4552433230536e617073686f743a2069642069732030000000000000000000006000830152602082019050919050565b6000615d89605483616b66565b91507f41737365743a2043616d706169676e20686173207369676e616c6c656420746860008301527f652073616c652066696e616c697a6174696f6e2062757420726169736564206660208301527f756e647320617265206e6f742070726573656e740000000000000000000000006040830152606082019050919050565b6000615e15602a83616b66565b91507f5361666545524332303a204552433230206f7065726174696f6e20646964206e60008301527f6f742073756363656564000000000000000000000000000000000000000000006020830152604082019050919050565b6000615e7b603083616b66565b91507f41737365745472616e7366657261626c653a20496e76616c6964206d6972726f60008301527f726564206173736574207265636f7264000000000000000000000000000000006020830152604082019050919050565b6000615ee1603883616b66565b91507f41737365743a206e6f20746f6b656e7320617070726f76656420666f7220636c60008301527f61696d696e67206c69717569646174696f6e20736861726500000000000000006020830152604082019050919050565b6000615f47602583616b66565b91507f45524332303a2064656372656173656420616c6c6f77616e63652062656c6f7760008301527f207a65726f0000000000000000000000000000000000000000000000000000006020830152604082019050919050565b6000615fad601f83616b66565b91507f45524332303a206d696e7420746f20746865207a65726f2061646472657373006000830152602082019050919050565b60006102e083016000830151615ff960008601826162a1565b50602083015161600c60208601826151a8565b50604083015184820360408601526160248282615346565b915050606083015161603960608601826162a1565b50608083015161604c60808601826151a8565b5060a083015161605f60a08601826151a8565b5060c083015161607260c08601826162a1565b5060e083015161608560e08601826152f7565b5061010083015161609a6101008601826152f7565b506101208301516160af6101208601826152f7565b506101408301516160c46101408601826151a8565b506101608301516160d96101608601826151a8565b506101808301518482036101808601526160f38282615346565b9150506101a08301518482036101a086015261610f8282615346565b9150506101c08301518482036101c086015261612b8282615346565b9150506101e08301516161426101e08601826162a1565b506102008301516161576102008601826162a1565b5061022083015161616c6102208601826162a1565b506102408301516161816102408601826152f7565b506102608301516161966102608601826162a1565b506102808301516161ab6102808601826162a1565b506102a08301516161c06102a08601826162a1565b506102c08301516161d56102c08601826151a8565b508091505092915050565b600060408301600083015184820360008601526161fd8282615346565b915050602083015161621260208601826162a1565b508091505092915050565b60808201600082015161623360008501826151a8565b50602082015161624660208501826162a1565b50604082015161625960408501826162a1565b50606082015161626c60608501826162a1565b50505050565b60408201600082015161628860008501826151a8565b50602082015161629b60208501826152f7565b50505050565b6162aa81616e3b565b82525050565b6162b981616e3b565b82525050565b6162c881616e45565b82525050565b60006162da8284615315565b915081905092915050565b60006020820190506162fa60008301846151b7565b92915050565b600060408201905061631560008301856151b7565b61632260208301846151b7565b9392505050565b600060808201905061633e60008301876151b7565b61634b60208301866151b7565b61635860408301856151b7565b61636560608301846162b0565b95945050505050565b600060808201905061638360008301876151b7565b61639060208301866151b7565b61639d6040830185615306565b6163aa60608301846162b0565b95945050505050565b60006060820190506163c860008301866151b7565b6163d560208301856151b7565b6163e260408301846162b0565b949350505050565b60006060820190506163ff60008301866151b7565b61640c6020830185615306565b61641960408301846162b0565b949350505050565b600060408201905061643660008301856151b7565b61644360208301846162b0565b9392505050565b600060608201905061645f60008301866151b7565b61646c60208301856162b0565b61647960408301846162b0565b949350505050565b600060808201905061649660008301876151b7565b6164a360208301866162b0565b6164b060408301856162b0565b6164bd60608301846162b0565b95945050505050565b600060208201905081810360008301526164e081846151c6565b905092915050565b60006020820190508181036000830152616502818461523b565b905092915050565b600060208201905081810360008301526165248184615299565b905092915050565b60006020820190506165416000830184615306565b92915050565b60006020820190508181036000830152616561818461537f565b905092915050565b60006060820190508181036000830152616583818661537f565b905061659260208301856151b7565b61659f60408301846162b0565b949350505050565b600060208201905081810360008301526165c0816153b8565b9050919050565b600060208201905081810360008301526165e0816153f8565b9050919050565b600060208201905081810360008301526166008161545e565b9050919050565b60006020820190508181036000830152616620816154c4565b9050919050565b6000602082019050818103600083015261664081615550565b9050919050565b60006020820190508181036000830152616660816155b6565b9050919050565b60006020820190508181036000830152616680816155f6565b9050919050565b600060208201905081810360008301526166a08161565c565b9050919050565b600060208201905081810360008301526166c0816156c2565b9050919050565b600060208201905081810360008301526166e08161574e565b9050919050565b60006020820190508181036000830152616700816157b4565b9050919050565b60006020820190508181036000830152616720816157f4565b9050919050565b600060208201905081810360008301526167408161585a565b9050919050565b60006020820190508181036000830152616760816158e6565b9050919050565b6000602082019050818103600083015261678081615926565b9050919050565b600060208201905081810360008301526167a08161598c565b9050919050565b600060208201905081810360008301526167c0816159f2565b9050919050565b600060208201905081810360008301526167e081615a58565b9050919050565b6000602082019050818103600083015261680081615abe565b9050919050565b6000602082019050818103600083015261682081615b24565b9050919050565b6000602082019050818103600083015261684081615b8a565b9050919050565b6000602082019050818103600083015261686081615bf0565b9050919050565b6000602082019050818103600083015261688081615c30565b9050919050565b600060208201905081810360008301526168a081615c70565b9050919050565b600060208201905081810360008301526168c081615cd6565b9050919050565b600060208201905081810360008301526168e081615d3c565b9050919050565b6000602082019050818103600083015261690081615d7c565b9050919050565b6000602082019050818103600083015261692081615e08565b9050919050565b6000602082019050818103600083015261694081615e6e565b9050919050565b6000602082019050818103600083015261696081615ed4565b9050919050565b6000602082019050818103600083015261698081615f3a565b9050919050565b600060208201905081810360008301526169a081615fa0565b9050919050565b600060208201905081810360008301526169c18184615fe0565b905092915050565b60006020820190506169de60008301846162b0565b92915050565b60006040820190506169f960008301856162b0565b616a0660208301846162b0565b9392505050565b6000602082019050616a2260008301846162bf565b92915050565b6000604051905081810181811067ffffffffffffffff82111715616a4f57616a4e616f84565b5b8060405250919050565b600067ffffffffffffffff821115616a7457616a73616f84565b5b601f19601f8301169050602081019050919050565b6000819050602082019050919050565b6000819050602082019050919050565b6000819050602082019050919050565b600081519050919050565b600081519050919050565b600081519050919050565b600081519050919050565b600081519050919050565b6000602082019050919050565b6000602082019050919050565b6000602082019050919050565b600082825260208201905092915050565b600082825260208201905092915050565b600082825260208201905092915050565b600081905092915050565b600082825260208201905092915050565b600082825260208201905092915050565b6000616b8282616e3b565b9150616b8d83616e3b565b9250827fffffffffffffffffffffffffffffffffffffffffffffffffffffffffffffffff03821115616bc257616bc1616ef7565b5b828201905092915050565b6000616bd882616e3b565b9150616be383616e3b565b925082616bf357616bf2616f26565b5b828204905092915050565b6000808291508390505b6001851115616c4857808604811115616c2457616c23616ef7565b5b6001851615616c335780820291505b8081029050616c4185616fc4565b9450616c08565b94509492505050565b6000616c5c82616e3b565b9150616c6783616e45565b9250616c947fffffffffffffffffffffffffffffffffffffffffffffffffffffffffffffffff8484616c9c565b905092915050565b600082616cac5760019050616d68565b81616cba5760009050616d68565b8160018114616cd05760028114616cda57616d09565b6001915050616d68565b60ff841115616cec57616ceb616ef7565b5b8360020a915084821115616d0357616d02616ef7565b5b50616d68565b5060208310610133831016604e8410600b8410161715616d3e5782820a905083811115616d3957616d38616ef7565b5b616d68565b616d4b8484846001616bfe565b92509050818404811115616d6257616d61616ef7565b5b81810290505b9392505050565b6000616d7a82616e3b565b9150616d8583616e3b565b9250817fffffffffffffffffffffffffffffffffffffffffffffffffffffffffffffffff0483118215151615616dbe57616dbd616ef7565b5b828202905092915050565b6000616dd482616e3b565b9150616ddf83616e3b565b925082821015616df257616df1616ef7565b5b828203905092915050565b6000616e0882616e1b565b9050919050565b60008115159050919050565b600073ffffffffffffffffffffffffffffffffffffffff82169050919050565b6000819050919050565b600060ff82169050919050565b82818337600083830152505050565b60005b83811015616e7f578082015181840152602081019050616e64565b83811115616e8e576000848401525b50505050565b60006002820490506001821680616eac57607f821691505b60208210811415616ec057616ebf616f55565b5b50919050565b6000616ed182616e3b565b9150616edc83616e3b565b925082616eec57616eeb616f26565b5b828206905092915050565b7f4e487b7100000000000000000000000000000000000000000000000000000000600052601160045260246000fd5b7f4e487b7100000000000000000000000000000000000000000000000000000000600052601260045260246000fd5b7f4e487b7100000000000000000000000000000000000000000000000000000000600052602260045260246000fd5b7f4e487b7100000000000000000000000000000000000000000000000000000000600052604160045260246000fd5b6000601f19601f8301169050919050565b60008160011c9050919050565b616fda81616dfd565b8114616fe557600080fd5b50565b616ff181616e0f565b8114616ffc57600080fd5b50565b61700881616e3b565b811461701357600080fd5b50565b61701f81616e45565b811461702a57600080fd5b5056fea2646970667358221220a413b30a95a52e6b16bb346868d2e65ea96162aff2000a18ce277870c80209c464736f6c63430008000033a26469706673582212200c61369ea00ffaad6a6dec900e23aa30f1bebb36dd1aa7ca51b9c19825be526164736f6c63430008000033",
  "linkReferences": {},
  "deployedLinkReferences": {}
}