{
  "_format": "hh-sol-artifact-1",
  "contractName": "AssetTransferableFactory",
  "sourceName": "contracts/asset-transferable/AssetTransferableFactory.sol",
  "abi": [
    {
      "anonymous": false,
      "inputs": [
        {
          "indexed": true,
          "internalType": "address",
          "name": "creator",
          "type": "address"
        },
        {
          "indexed": false,
          "internalType": "address",
          "name": "asset",
          "type": "address"
        },
        {
          "indexed": false,
          "internalType": "uint256",
          "name": "id",
          "type": "uint256"
        },
        {
          "indexed": false,
          "internalType": "uint256",
          "name": "timestamp",
          "type": "uint256"
        }
      ],
      "name": "AssetTransferableCreated",
      "type": "event"
    },
    {
      "inputs": [
        {
          "components": [
            {
              "internalType": "address",
              "name": "creator",
              "type": "address"
            },
            {
              "internalType": "address",
              "name": "issuer",
              "type": "address"
            },
            {
              "internalType": "address",
              "name": "apxRegistry",
              "type": "address"
            },
            {
              "internalType": "string",
              "name": "ansName",
              "type": "string"
            },
            {
              "internalType": "uint256",
              "name": "initialTokenSupply",
              "type": "uint256"
            },
            {
              "internalType": "bool",
              "name": "whitelistRequiredForRevenueClaim",
              "type": "bool"
            },
            {
              "internalType": "bool",
              "name": "whitelistRequiredForLiquidationClaim",
              "type": "bool"
            },
            {
              "internalType": "string",
              "name": "name",
              "type": "string"
            },
            {
              "internalType": "string",
              "name": "symbol",
              "type": "string"
            },
            {
              "internalType": "string",
              "name": "info",
              "type": "string"
            },
            {
              "internalType": "address",
              "name": "childChainManager",
              "type": "address"
            }
          ],
          "internalType": "struct Structs.AssetTransferableFactoryParams",
          "name": "params",
          "type": "tuple"
        }
      ],
      "name": "create",
      "outputs": [
        {
          "internalType": "address",
          "name": "",
          "type": "address"
        }
      ],
      "stateMutability": "nonpayable",
      "type": "function"
    },
    {
      "inputs": [],
      "name": "getInstances",
      "outputs": [
        {
          "internalType": "address[]",
          "name": "",
          "type": "address[]"
        }
      ],
      "stateMutability": "view",
      "type": "function"
    },
    {
      "inputs": [
        {
          "internalType": "address",
          "name": "issuer",
          "type": "address"
        }
      ],
      "name": "getInstancesForIssuer",
      "outputs": [
        {
          "internalType": "address[]",
          "name": "",
          "type": "address[]"
        }
      ],
      "stateMutability": "view",
      "type": "function"
    },
    {
      "inputs": [
        {
          "internalType": "uint256",
          "name": "",
          "type": "uint256"
        }
      ],
      "name": "instances",
      "outputs": [
        {
          "internalType": "address",
          "name": "",
          "type": "address"
        }
      ],
      "stateMutability": "view",
      "type": "function"
    },
    {
      "inputs": [
        {
          "internalType": "address",
          "name": "",
          "type": "address"
        },
        {
          "internalType": "string",
          "name": "",
          "type": "string"
        }
      ],
      "name": "namespace",
      "outputs": [
        {
          "internalType": "address",
          "name": "",
          "type": "address"
        }
      ],
      "stateMutability": "view",
      "type": "function"
    }
  ],
  "bytecode": "0x608060405234801561001057600080fd5b50619757806100206000396000f3fe60806040523480156200001157600080fd5b50600436106200005e5760003560e01c8063238c3a90146200006357806368ec6f4914620000995780637a9cab9314620000cf578063a2f7b3a51462000105578063d35fdd79146200013b575b600080fd5b6200008160048036038101906200007b919062000a17565b6200015d565b60405162000090919062000e82565b60405180910390f35b620000b76004803603810190620000b1919062000a43565b6200022c565b604051620000c6919062000e28565b60405180910390f35b620000ed6004803603810190620000e7919062000a9d565b62000284565b604051620000fc919062000e28565b60405180910390f35b6200012360048036038101906200011d919062000ae2565b620006fd565b60405162000132919062000e28565b60405180910390f35b620001456200073d565b60405162000154919062000e82565b60405180910390f35b6060600160008373ffffffffffffffffffffffffffffffffffffffff1673ffffffffffffffffffffffffffffffffffffffff1681526020019081526020016000208054806020026020016040519081016040528092919081815260200182805480156200022057602002820191906000526020600020905b8160009054906101000a900473ffffffffffffffffffffffffffffffffffffffff1673ffffffffffffffffffffffffffffffffffffffff1681526020019060010190808311620001d5575b50505050509050919050565b6002602052816000526040600020818051602081018201805184825260208301602085012081835280955050505050506000915091509054906101000a900473ffffffffffffffffffffffffffffffffffffffff1681565b60008073ffffffffffffffffffffffffffffffffffffffff1660026000846020015173ffffffffffffffffffffffffffffffffffffffff1673ffffffffffffffffffffffffffffffffffffffff1681526020019081526020016000208360600151604051620002f4919062000e0f565b908152602001604051809103902060009054906101000a900473ffffffffffffffffffffffffffffffffffffffff1673ffffffffffffffffffffffffffffffffffffffff16146200037c576040517f08c379a0000000000000000000000000000000000000000000000000000000008152600401620003739062000ea6565b60405180910390fd5b600080805490509050600060016000856020015173ffffffffffffffffffffffffffffffffffffffff1673ffffffffffffffffffffffffffffffffffffffff1681526020019081526020016000208054905090506000604051806101a00160405280848152602001866000015173ffffffffffffffffffffffffffffffffffffffff168152602001866020015173ffffffffffffffffffffffffffffffffffffffff168152602001866040015173ffffffffffffffffffffffffffffffffffffffff16815260200186606001518152602001838152602001866080015181526020018660a00151151581526020018660c00151151581526020018660e0015181526020018661010001518152602001866101200151815260200186610140015173ffffffffffffffffffffffffffffffffffffffff16815250604051620004c390620007cd565b620004cf919062000ec8565b604051809103906000f080158015620004ec573d6000803e3d6000fd5b5090506000819080600181540180825580915050600190039060005260206000200160009091909190916101000a81548173ffffffffffffffffffffffffffffffffffffffff021916908373ffffffffffffffffffffffffffffffffffffffff16021790555060016000866020015173ffffffffffffffffffffffffffffffffffffffff1673ffffffffffffffffffffffffffffffffffffffff168152602001908152602001600020819080600181540180825580915050600190039060005260206000200160009091909190916101000a81548173ffffffffffffffffffffffffffffffffffffffff021916908373ffffffffffffffffffffffffffffffffffffffff1602179055508060026000876020015173ffffffffffffffffffffffffffffffffffffffff1673ffffffffffffffffffffffffffffffffffffffff16815260200190815260200160002086606001516040516200064e919062000e0f565b908152602001604051809103902060006101000a81548173ffffffffffffffffffffffffffffffffffffffff021916908373ffffffffffffffffffffffffffffffffffffffff160217905550846000015173ffffffffffffffffffffffffffffffffffffffff167fca2c58fe54777edb70b9d1ee90f27874dfe1061ce95c10b4615b40022c9c64e4828542604051620006ea9392919062000e45565b60405180910390a2809350505050919050565b600081815481106200070e57600080fd5b906000526020600020016000915054906101000a900473ffffffffffffffffffffffffffffffffffffffff1681565b60606000805480602002602001604051908101604052809291908181526020018280548015620007c357602002820191906000526020600020905b8160009054906101000a900473ffffffffffffffffffffffffffffffffffffffff1673ffffffffffffffffffffffffffffffffffffffff168152602001906001019080831162000778575b5050505050905090565b61864080620010e283390190565b6000620007f2620007ec8462000f20565b62000eec565b9050828152602081018484840111156200080b57600080fd5b620008188482856200100e565b509392505050565b600081359050620008318162001093565b92915050565b6000813590506200084881620010ad565b92915050565b600082601f8301126200086057600080fd5b813562000872848260208601620007db565b91505092915050565b600061016082840312156200088f57600080fd5b6200089c61016062000eec565b90506000620008ae8482850162000820565b6000830152506020620008c48482850162000820565b6020830152506040620008da8482850162000820565b604083015250606082013567ffffffffffffffff811115620008fb57600080fd5b62000909848285016200084e565b60608301525060806200091f8482850162000a00565b60808301525060a0620009358482850162000837565b60a08301525060c06200094b8482850162000837565b60c08301525060e082013567ffffffffffffffff8111156200096c57600080fd5b6200097a848285016200084e565b60e08301525061010082013567ffffffffffffffff8111156200099c57600080fd5b620009aa848285016200084e565b6101008301525061012082013567ffffffffffffffff811115620009cd57600080fd5b620009db848285016200084e565b61012083015250610140620009f38482850162000820565b6101408301525092915050565b60008135905062000a1181620010c7565b92915050565b60006020828403121562000a2a57600080fd5b600062000a3a8482850162000820565b91505092915050565b6000806040838503121562000a5757600080fd5b600062000a678582860162000820565b925050602083013567ffffffffffffffff81111562000a8557600080fd5b62000a93858286016200084e565b9150509250929050565b60006020828403121562000ab057600080fd5b600082013567ffffffffffffffff81111562000acb57600080fd5b62000ad9848285016200087b565b91505092915050565b60006020828403121562000af557600080fd5b600062000b058482850162000a00565b91505092915050565b600062000b1c838362000b28565b60208301905092915050565b62000b338162000fc4565b82525050565b62000b448162000fc4565b82525050565b600062000b578262000f63565b62000b63818562000f86565b935062000b708362000f53565b8060005b8381101562000ba757815162000b8b888262000b0e565b975062000b988362000f79565b92505060018101905062000b74565b5085935050505092915050565b62000bbf8162000fd8565b82525050565b600062000bd28262000f6e565b62000bde818562000f97565b935062000bf08185602086016200101d565b62000bfb8162001082565b840191505092915050565b600062000c138262000f6e565b62000c1f818562000fb9565b935062000c318185602086016200101d565b80840191505092915050565b600062000c4c603d8362000fa8565b91507f41737365745472616e7366657261626c65466163746f72793a2061737365742060008301527f776974682074686973206e616d6520616c7265616479206578697374730000006020830152604082019050919050565b60006101a08301600083015162000cc0600086018262000ded565b50602083015162000cd5602086018262000b28565b50604083015162000cea604086018262000b28565b50606083015162000cff606086018262000b28565b506080830151848203608086015262000d19828262000bc5565b91505060a083015162000d3060a086018262000ded565b5060c083015162000d4560c086018262000ded565b5060e083015162000d5a60e086018262000bb4565b5061010083015162000d7161010086018262000bb4565b5061012083015184820361012086015262000d8d828262000bc5565b91505061014083015184820361014086015262000dab828262000bc5565b91505061016083015184820361016086015262000dc9828262000bc5565b91505061018083015162000de261018086018262000b28565b508091505092915050565b62000df88162001004565b82525050565b62000e098162001004565b82525050565b600062000e1d828462000c06565b915081905092915050565b600060208201905062000e3f600083018462000b39565b92915050565b600060608201905062000e5c600083018662000b39565b62000e6b602083018562000dfe565b62000e7a604083018462000dfe565b949350505050565b6000602082019050818103600083015262000e9e818462000b4a565b905092915050565b6000602082019050818103600083015262000ec18162000c3d565b9050919050565b6000602082019050818103600083015262000ee4818462000ca5565b905092915050565b6000604051905081810181811067ffffffffffffffff8211171562000f165762000f1562001053565b5b8060405250919050565b600067ffffffffffffffff82111562000f3e5762000f3d62001053565b5b601f19601f8301169050602081019050919050565b6000819050602082019050919050565b600081519050919050565b600081519050919050565b6000602082019050919050565b600082825260208201905092915050565b600082825260208201905092915050565b600082825260208201905092915050565b600081905092915050565b600062000fd18262000fe4565b9050919050565b60008115159050919050565b600073ffffffffffffffffffffffffffffffffffffffff82169050919050565b6000819050919050565b82818337600083830152505050565b60005b838110156200103d57808201518184015260208101905062001020565b838111156200104d576000848401525b50505050565b7f4e487b7100000000000000000000000000000000000000000000000000000000600052604160045260246000fd5b6000601f19601f8301169050919050565b6200109e8162000fc4565b8114620010aa57600080fd5b50565b620010b88162000fd8565b8114620010c457600080fd5b50565b620010d28162001004565b8114620010de57600080fd5b5056fe60806040523480156200001157600080fd5b5060405162008640380380620086408339818101604052810190620000379190620010a6565b80610120015181610140015181600390805190602001906200005b92919062000c7f565b5080600490805190602001906200007492919062000c7f565b505050600073ffffffffffffffffffffffffffffffffffffffff16816020015173ffffffffffffffffffffffffffffffffffffffff161415620000ee576040517f08c379a0000000000000000000000000000000000000000000000000000000008152600401620000e590620012d7565b60405180910390fd5b600073ffffffffffffffffffffffffffffffffffffffff16816040015173ffffffffffffffffffffffffffffffffffffffff16141562000165576040517f08c379a00000000000000000000000000000000000000000000000000000000081526004016200015c90620012f9565b60405180910390fd5b60008160c0015111620001af576040517f08c379a0000000000000000000000000000000000000000000000000000000008152600401620001a6906200133d565b60405180910390fd5b600073ffffffffffffffffffffffffffffffffffffffff1681610180015173ffffffffffffffffffffffffffffffffffffffff16141562000227576040517f08c379a00000000000000000000000000000000000000000000000000000000081526004016200021e906200131b565b60405180910390fd5b601d6040518060400160405280836101600151815260200142815250908060018154018082558091505060019003906000526020600020906002020160009091909190915060008201518160000190805190602001906200028a92919062000c7f565b506020820151816001015550506000816020015173ffffffffffffffffffffffffffffffffffffffff16826040015173ffffffffffffffffffffffffffffffffffffffff16631865c57d6040518163ffffffff1660e01b815260040160006040518083038186803b158015620002ff57600080fd5b505afa15801562000314573d6000803e3d6000fd5b505050506040513d6000823e3d601f19601f820116820180604052508101906200033f9190620010eb565b6080015173ffffffffffffffffffffffffffffffffffffffff161490506000309050604051806102e00160405280846000015181526020018273ffffffffffffffffffffffffffffffffffffffff168152602001846080015181526020018460a0015181526020013373ffffffffffffffffffffffffffffffffffffffff168152602001846020015173ffffffffffffffffffffffffffffffffffffffff1681526020018460c0015181526020018460e0015115158152602001846101000151151581526020018315158152602001846040015173ffffffffffffffffffffffffffffffffffffffff168152602001846060015173ffffffffffffffffffffffffffffffffffffffff16815260200184610160015181526020018461012001518152602001846101400151815260200160008152602001600081526020016000815260200160001515815260200160008152602001600081526020016000815260200184610180015173ffffffffffffffffffffffffffffffffffffffff1681525060096000820151816000015560208201518160010160006101000a81548173ffffffffffffffffffffffffffffffffffffffff021916908373ffffffffffffffffffffffffffffffffffffffff16021790555060408201518160020190805190602001906200053292919062000c7f565b506060820151816003015560808201518160040160006101000a81548173ffffffffffffffffffffffffffffffffffffffff021916908373ffffffffffffffffffffffffffffffffffffffff16021790555060a08201518160050160006101000a81548173ffffffffffffffffffffffffffffffffffffffff021916908373ffffffffffffffffffffffffffffffffffffffff16021790555060c0820151816006015560e08201518160070160006101000a81548160ff0219169083151502179055506101008201518160070160016101000a81548160ff0219169083151502179055506101208201518160070160026101000a81548160ff0219169083151502179055506101408201518160070160036101000a81548173ffffffffffffffffffffffffffffffffffffffff021916908373ffffffffffffffffffffffffffffffffffffffff1602179055506101608201518160080160006101000a81548173ffffffffffffffffffffffffffffffffffffffff021916908373ffffffffffffffffffffffffffffffffffffffff160217905550610180820151816009019080519060200190620006e692919062000c7f565b506101a082015181600a0190805190602001906200070692919062000c7f565b506101c082015181600b0190805190602001906200072692919062000c7f565b506101e082015181600c015561020082015181600d015561022082015181600e015561024082015181600f0160006101000a81548160ff021916908315150217905550610260820151816010015561028082015181601101556102a082015181601201556102c08201518160130160006101000a81548173ffffffffffffffffffffffffffffffffffffffff021916908373ffffffffffffffffffffffffffffffffffffffff160217905550905050620007ef83602001518460c00151620007f860201b60201c565b5050506200163f565b600073ffffffffffffffffffffffffffffffffffffffff168273ffffffffffffffffffffffffffffffffffffffff1614156200086b576040517f08c379a000000000000000000000000000000000000000000000000000000000815260040162000862906200135f565b60405180910390fd5b6200087f600083836200097160201b60201c565b806002600082825462000893919062001416565b92505081905550806000808473ffffffffffffffffffffffffffffffffffffffff1673ffffffffffffffffffffffffffffffffffffffff1681526020019081526020016000206000828254620008ea919062001416565b925050819055508173ffffffffffffffffffffffffffffffffffffffff16600073ffffffffffffffffffffffffffffffffffffffff167fddf252ad1be2c89b69c2b068fc378daa952ba7f163c4a11628f55a4df523b3ef8360405162000951919062001381565b60405180910390a36200096d6000838362000a6c60201b60201c565b5050565b6200098983838362000a7160201b62002fc91760201c565b600073ffffffffffffffffffffffffffffffffffffffff168373ffffffffffffffffffffffffffffffffffffffff161415620009e657620009d08262000a7660201b60201c565b620009e062000ad960201b60201c565b62000a67565b600073ffffffffffffffffffffffffffffffffffffffff168273ffffffffffffffffffffffffffffffffffffffff16141562000a435762000a2d8362000a7660201b60201c565b62000a3d62000ad960201b60201c565b62000a66565b62000a548362000a7660201b60201c565b62000a658262000a7660201b60201c565b5b5b505050565b505050565b505050565b62000ad6600560008373ffffffffffffffffffffffffffffffffffffffff1673ffffffffffffffffffffffffffffffffffffffff16815260200190815260200160002062000aca8362000afd60201b60201c565b62000b4560201b60201c565b50565b62000afb600662000aef62000bd160201b60201c565b62000b4560201b60201c565b565b60008060008373ffffffffffffffffffffffffffffffffffffffff1673ffffffffffffffffffffffffffffffffffffffff168152602001908152602001600020549050919050565b600062000b5762000bdb60201b60201c565b90508062000b6e8460000162000bf960201b60201c565b101562000bcc5782600001819080600181540180825580915050600190039060005260206000200160009091909190915055826001018290806001815401808255809150506001900390600052602060002001600090919091909150555b505050565b6000600254905090565b600062000bf4600862000c7160201b62002fce1760201c565b905090565b6000808280549050141562000c12576000905062000c6c565b816001838054905062000c26919062001473565b8154811062000c5e577f4e487b7100000000000000000000000000000000000000000000000000000000600052603260045260246000fd5b906000526020600020015490505b919050565b600081600001549050919050565b82805462000c8d906200152e565b90600052602060002090601f01602090048101928262000cb1576000855562000cfd565b82601f1062000ccc57805160ff191683800117855562000cfd565b8280016001018555821562000cfd579182015b8281111562000cfc57825182559160200191906001019062000cdf565b5b50905062000d0c919062000d10565b5090565b5b8082111562000d2b57600081600090555060010162000d11565b5090565b600062000d4662000d4084620013d2565b6200139e565b90508281526020810184848401111562000d5f57600080fd5b62000d6c848285620014f8565b509392505050565b60008151905062000d8581620015f1565b92915050565b60008151905062000d9c816200160b565b92915050565b600082601f83011262000db457600080fd5b815162000dc684826020860162000d2f565b91505092915050565b60006101a0828403121562000de357600080fd5b62000df06101a06200139e565b9050600062000e02848285016200108f565b600083015250602062000e188482850162000d74565b602083015250604062000e2e8482850162000d74565b604083015250606062000e448482850162000d74565b606083015250608082015167ffffffffffffffff81111562000e6557600080fd5b62000e738482850162000da2565b60808301525060a062000e89848285016200108f565b60a08301525060c062000e9f848285016200108f565b60c08301525060e062000eb58482850162000d8b565b60e08301525061010062000ecc8482850162000d8b565b6101008301525061012082015167ffffffffffffffff81111562000eef57600080fd5b62000efd8482850162000da2565b6101208301525061014082015167ffffffffffffffff81111562000f2057600080fd5b62000f2e8482850162000da2565b6101408301525061016082015167ffffffffffffffff81111562000f5157600080fd5b62000f5f8482850162000da2565b6101608301525061018062000f778482850162000d74565b6101808301525092915050565b6000610100828403121562000f9857600080fd5b62000fa56101006200139e565b9050600062000fb7848285016200108f565b600083015250602062000fcd8482850162000d74565b602083015250604082015167ffffffffffffffff81111562000fee57600080fd5b62000ffc8482850162000da2565b6040830152506060620010128482850162000d74565b6060830152506080620010288482850162000d74565b60808301525060a06200103e8482850162000d74565b60a08301525060c0620010548482850162000d74565b60c08301525060e082015167ffffffffffffffff8111156200107557600080fd5b620010838482850162000da2565b60e08301525092915050565b600081519050620010a08162001625565b92915050565b600060208284031215620010b957600080fd5b600082015167ffffffffffffffff811115620010d457600080fd5b620010e28482850162000dcf565b91505092915050565b600060208284031215620010fe57600080fd5b600082015167ffffffffffffffff8111156200111957600080fd5b620011278482850162000f84565b91505092915050565b60006200113f601d8362001405565b91507f41737365743a20496e76616c6964206f776e65722070726f76696465640000006000830152602082019050919050565b600062001181601e8362001405565b91507f41737365743a20496e76616c6964206973737565722070726f766964656400006000830152602082019050919050565b6000620011c360328362001405565b91507f4d6972726f726564546f6b656e3a20696e76616c6964206368696c642063686160008301527f696e206d616e61676572206164647265737300000000000000000000000000006020830152604082019050919050565b60006200122b60268362001405565b91507f41737365743a20496e697469616c20746f6b656e20737570706c792063616e2760008301527f74206265203000000000000000000000000000000000000000000000000000006020830152604082019050919050565b600062001293601f8362001405565b91507f45524332303a206d696e7420746f20746865207a65726f2061646472657373006000830152602082019050919050565b620012d181620014ee565b82525050565b60006020820190508181036000830152620012f28162001130565b9050919050565b60006020820190508181036000830152620013148162001172565b9050919050565b600060208201905081810360008301526200133681620011b4565b9050919050565b6000602082019050818103600083015262001358816200121c565b9050919050565b600060208201905081810360008301526200137a8162001284565b9050919050565b6000602082019050620013986000830184620012c6565b92915050565b6000604051905081810181811067ffffffffffffffff82111715620013c857620013c7620015c2565b5b8060405250919050565b600067ffffffffffffffff821115620013f057620013ef620015c2565b5b601f19601f8301169050602081019050919050565b600082825260208201905092915050565b60006200142382620014ee565b91506200143083620014ee565b9250827fffffffffffffffffffffffffffffffffffffffffffffffffffffffffffffffff0382111562001468576200146762001564565b5b828201905092915050565b60006200148082620014ee565b91506200148d83620014ee565b925082821015620014a357620014a262001564565b5b828203905092915050565b6000620014bb82620014ce565b9050919050565b60008115159050919050565b600073ffffffffffffffffffffffffffffffffffffffff82169050919050565b6000819050919050565b60005b8381101562001518578082015181840152602081019050620014fb565b8381111562001528576000848401525b50505050565b600060028204905060018216806200154757607f821691505b602082108114156200155e576200155d62001593565b5b50919050565b7f4e487b7100000000000000000000000000000000000000000000000000000000600052601160045260246000fd5b7f4e487b7100000000000000000000000000000000000000000000000000000000600052602260045260246000fd5b7f4e487b7100000000000000000000000000000000000000000000000000000000600052604160045260246000fd5b620015fc81620014ae565b81146200160857600080fd5b50565b6200161681620014c2565b81146200162257600080fd5b50565b6200163081620014ee565b81146200163c57600080fd5b50565b616ff1806200164f6000396000f3fe608060405234801561001057600080fd5b506004361061023d5760003560e01c80635b1cdef21161013b5780639a4e8ce8116100b8578063b37565061161007c578063b3756506146106dd578063bbd94459146106fb578063c24fe16c14610717578063cf2c52cb14610735578063dd62ed3e146107515761023d565b80639a4e8ce814610611578063a0a83f8c1461062f578063a457c2d71461065f578063a9059cbb1461068f578063a91e9750146106bf5761023d565b8063937f6e77116100ff578063937f6e771461056b57806395d89b41146105875780639711715a146105a5578063981b24d0146105c357806398e16255146105f35761023d565b80635b1cdef2146104b757806370a08231146104e7578063764a81bb146105175780638ca3d4bb1461053357806391b14c5f1461054f5761023d565b80632e1a7d4d116101c957806340e688da1161018d57806340e688da146103fe57806349d3f161146104315780634ee2cd7e1461044d57806350c73efe1461047d57806358a687ec146104ad5761023d565b80632e1a7d4d1461035a5780632e61a57114610376578063313ce5671461039257806332e71ead146103b057806339509351146103ce5761023d565b80631865c57d116102105780631865c57d146102ca57806323b872dd146102e857806328a07025146103185780632af4c31e146103225780632d8b95a01461033e5761023d565b8063025ed7991461024257806306fdde031461025e578063095ea7b31461027c57806318160ddd146102ac575b600080fd5b61025c60048036038101906102579190614f69565b610781565b005b6102666108f5565b6040516102739190616506565b60405180910390f35b61029660048036038101906102919190614f2d565b610987565b6040516102a391906164eb565b60405180910390f35b6102b46109a5565b6040516102c19190616988565b60405180910390f35b6102d26109af565b6040516102df9190616966565b60405180910390f35b61030260048036038101906102fd9190614e86565b610edc565b60405161030f91906164eb565b60405180910390f35b610320610fd4565b005b61033c60048036038101906103379190614e21565b611569565b005b61035860048036038101906103539190614f69565b61167e565b005b610374600480360381019061036f91906150a8565b61176c565b005b610390600480360381019061038b9190614e21565b611780565b005b61039a6118b2565b6040516103a791906169cc565b60405180910390f35b6103b86118bb565b6040516103c591906162a4565b60405180910390f35b6103e860048036038101906103e39190614f2d565b6118e8565b6040516103f591906164eb565b60405180910390f35b61041860048036038101906104139190614e21565b611994565b6040516104289493929190616440565b60405180910390f35b61044b60048036038101906104469190614f69565b6119e4565b005b61046760048036038101906104629190614f2d565b611ad2565b6040516104749190616988565b60405180910390f35b61049760048036038101906104929190614e21565b611b42565b6040516104a49190616988565b60405180910390f35b6104b5611b8a565b005b6104d160048036038101906104cc9190614e21565b612054565b6040516104de9190616988565b60405180910390f35b61050160048036038101906104fc9190614e21565b61206c565b60405161050e9190616988565b60405180910390f35b610531600480360381019061052c9190614e21565b612106565b005b61054d60048036038101906105489190614e21565b612248565b005b61056960048036038101906105649190614e21565b61237a565b005b61058560048036038101906105809190614fbb565b6124a7565b005b61058f6125fa565b60405161059c9190616506565b60405180910390f35b6105ad61268c565b6040516105ba9190616988565b60405180910390f35b6105dd60048036038101906105d891906150a8565b6126ee565b6040516105ea9190616988565b60405180910390f35b6105fb61271f565b6040516106089190616485565b60405180910390f35b61061961281a565b60405161062691906162a4565b60405180910390f35b61064960048036038101906106449190614e21565b612847565b6040516106569190616988565b60405180910390f35b61067960048036038101906106749190614f2d565b61285e565b60405161068691906164eb565b60405180910390f35b6106a960048036038101906106a49190614f2d565b612949565b6040516106b691906164eb565b60405180910390f35b6106c7612967565b6040516106d491906164a7565b60405180910390f35b6106e5612a3a565b6040516106f291906164c9565b60405180910390f35b61071560048036038101906107109190614e21565b612b06565b005b61071f612e86565b60405161072c9190616988565b60405180910390f35b61074f600480360381019061074a9190614ed5565b612e8c565b005b61076b60048036038101906107669190614e4a565b612f42565b6040516107789190616988565b60405180910390f35b600960070160039054906101000a900473ffffffffffffffffffffffffffffffffffffffff1673ffffffffffffffffffffffffffffffffffffffff16631865c57d6040518163ffffffff1660e01b815260040160006040518083038186803b1580156107ec57600080fd5b505afa158015610800573d6000803e3d6000fd5b505050506040513d6000823e3d601f19601f820116820180604052508101906108299190615067565b6080015173ffffffffffffffffffffffffffffffffffffffff163373ffffffffffffffffffffffffffffffffffffffff161461089a576040517f08c379a000000000000000000000000000000000000000000000000000000000815260040161089190616626565b60405180910390fd5b80600960070160026101000a81548160ff0219169083151502179055507f378762f5fbec582efe534abe7b1b8f7e4e4a4ed6ce28c15fc23e2024ead4fcc33382426040516108ea939291906163a9565b60405180910390a150565b60606003805461090490616e53565b80601f016020809104026020016040519081016040528092919081815260200182805461093090616e53565b801561097d5780601f106109525761010080835404028352916020019161097d565b820191906000526020600020905b81548152906001019060200180831161096057829003601f168201915b5050505050905090565b600061099b610994612fdc565b8484612fe4565b6001905092915050565b6000600254905090565b6109b761466f565b6009604051806102e0016040529081600082015481526020016001820160009054906101000a900473ffffffffffffffffffffffffffffffffffffffff1673ffffffffffffffffffffffffffffffffffffffff1673ffffffffffffffffffffffffffffffffffffffff168152602001600282018054610a3590616e53565b80601f0160208091040260200160405190810160405280929190818152602001828054610a6190616e53565b8015610aae5780601f10610a8357610100808354040283529160200191610aae565b820191906000526020600020905b815481529060010190602001808311610a9157829003601f168201915b50505050508152602001600382015481526020016004820160009054906101000a900473ffffffffffffffffffffffffffffffffffffffff1673ffffffffffffffffffffffffffffffffffffffff1673ffffffffffffffffffffffffffffffffffffffff1681526020016005820160009054906101000a900473ffffffffffffffffffffffffffffffffffffffff1673ffffffffffffffffffffffffffffffffffffffff1673ffffffffffffffffffffffffffffffffffffffff168152602001600682015481526020016007820160009054906101000a900460ff161515151581526020016007820160019054906101000a900460ff161515151581526020016007820160029054906101000a900460ff161515151581526020016007820160039054906101000a900473ffffffffffffffffffffffffffffffffffffffff1673ffffffffffffffffffffffffffffffffffffffff1673ffffffffffffffffffffffffffffffffffffffff1681526020016008820160009054906101000a900473ffffffffffffffffffffffffffffffffffffffff1673ffffffffffffffffffffffffffffffffffffffff1673ffffffffffffffffffffffffffffffffffffffff168152602001600982018054610c8490616e53565b80601f0160208091040260200160405190810160405280929190818152602001828054610cb090616e53565b8015610cfd5780601f10610cd257610100808354040283529160200191610cfd565b820191906000526020600020905b815481529060010190602001808311610ce057829003601f168201915b50505050508152602001600a82018054610d1690616e53565b80601f0160208091040260200160405190810160405280929190818152602001828054610d4290616e53565b8015610d8f5780601f10610d6457610100808354040283529160200191610d8f565b820191906000526020600020905b815481529060010190602001808311610d7257829003601f168201915b50505050508152602001600b82018054610da890616e53565b80601f0160208091040260200160405190810160405280929190818152602001828054610dd490616e53565b8015610e215780601f10610df657610100808354040283529160200191610e21565b820191906000526020600020905b815481529060010190602001808311610e0457829003601f168201915b50505050508152602001600c8201548152602001600d8201548152602001600e8201548152602001600f820160009054906101000a900460ff161515151581526020016010820154815260200160118201548152602001601282015481526020016013820160009054906101000a900473ffffffffffffffffffffffffffffffffffffffff1673ffffffffffffffffffffffffffffffffffffffff1673ffffffffffffffffffffffffffffffffffffffff1681525050905090565b6000610ee98484846131af565b6000600160008673ffffffffffffffffffffffffffffffffffffffff1673ffffffffffffffffffffffffffffffffffffffff1681526020019081526020016000206000610f34612fdc565b73ffffffffffffffffffffffffffffffffffffffff1673ffffffffffffffffffffffffffffffffffffffff16815260200190815260200160002054905082811015610fb4576040517f08c379a0000000000000000000000000000000000000000000000000000000008152600401610fab90616726565b60405180910390fd5b610fc885610fc0612fdc565b858403612fe4565b60019150509392505050565b6009600f0160009054906101000a900460ff1615611027576040517f08c379a000000000000000000000000000000000000000000000000000000000815260040161101e90616746565b60405180910390fd5b600960050160009054906101000a900473ffffffffffffffffffffffffffffffffffffffff1673ffffffffffffffffffffffffffffffffffffffff163373ffffffffffffffffffffffffffffffffffffffff16146110ba576040517f08c379a00000000000000000000000000000000000000000000000000000000081526004016110b190616866565b60405180910390fd5b6000600960080160009054906101000a900473ffffffffffffffffffffffffffffffffffffffff16905060008173ffffffffffffffffffffffffffffffffffffffff16633ac47c0a306040518263ffffffff1660e01b815260040161111f91906162a4565b6101406040518083038186803b15801561113857600080fd5b505afa15801561114c573d6000803e3d6000fd5b505050506040513d601f19601f820116820180604052508101906111709190614ffc565b905080604001516111b6576040517f08c379a00000000000000000000000000000000000000000000000000000000081526004016111ad90616786565b60405180910390fd5b80606001516111fa576040517f08c379a00000000000000000000000000000000000000000000000000000000081526004016111f190616846565b60405180910390fd5b3073ffffffffffffffffffffffffffffffffffffffff16816020015173ffffffffffffffffffffffffffffffffffffffff161461126c576040517f08c379a0000000000000000000000000000000000000000000000000000000008152600401611263906168e6565b60405180910390fd5b8061010001514211156112b4576040517f08c379a00000000000000000000000000000000000000000000000000000000081526004016112ab90616606565b60405180910390fd5b6000808260a001516009600e0154116112d6578260a001518360c001516112e0565b6009600e01546127105b9150915060003073ffffffffffffffffffffffffffffffffffffffff1663dd62ed3e33306040518363ffffffff1660e01b81526004016113219291906162bf565b60206040518083038186803b15801561133957600080fd5b505afa15801561134d573d6000803e3d6000fd5b505050506040513d601f19601f8201168201806040525081019061137191906150d1565b90506000611380828585613430565b9050600081111561148e5780602260003373ffffffffffffffffffffffffffffffffffffffff1673ffffffffffffffffffffffffffffffffffffffff16815260200190815260200160002060008282546113da9190616b36565b9250508190555080600960120160008282546113f69190616b36565b925050819055503073ffffffffffffffffffffffffffffffffffffffff166323b872dd3330856040518463ffffffff1660e01b815260040161143a93929190616372565b602060405180830381600087803b15801561145457600080fd5b505af1158015611468573d6000803e3d6000fd5b505050506040513d601f19601f8201168201806040525081019061148c9190614f92565b505b60006114a261149b6109a5565b8686613430565b9050600082826114b29190616d88565b905060008111156114f2576114f13330836114cb613476565b73ffffffffffffffffffffffffffffffffffffffff16613485909392919063ffffffff16565b5b60016009600f0160006101000a81548160ff02191690831515021790555042600960110181905550816009601001819055507f09c223cfcd8c93e245f558f5f8de755fc0930fd9bc257441155ef5d54a170e0f33834260405161155793929190616409565b60405180910390a15050505050505050565b600960050160009054906101000a900473ffffffffffffffffffffffffffffffffffffffff1673ffffffffffffffffffffffffffffffffffffffff163373ffffffffffffffffffffffffffffffffffffffff16146115fc576040517f08c379a00000000000000000000000000000000000000000000000000000000081526004016115f390616866565b60405180910390fd5b80600960050160006101000a81548173ffffffffffffffffffffffffffffffffffffffff021916908373ffffffffffffffffffffffffffffffffffffffff1602179055507fb4fa0c8f1565e6385961540cac5b9884d84157c515100cf972728e8be8dacdd333824260405161167393929190616372565b60405180910390a150565b600960050160009054906101000a900473ffffffffffffffffffffffffffffffffffffffff1673ffffffffffffffffffffffffffffffffffffffff163373ffffffffffffffffffffffffffffffffffffffff1614611711576040517f08c379a000000000000000000000000000000000000000000000000000000000815260040161170890616866565b60405180910390fd5b80600960070160006101000a81548160ff0219169083151502179055507f9f9c59041e1db26af9a0f9d072677adec7d0a57053d68e6e298a48535b8bbc8e338242604051611761939291906163a9565b60405180910390a150565b61177d611777612fdc565b8261350e565b50565b600960050160009054906101000a900473ffffffffffffffffffffffffffffffffffffffff1673ffffffffffffffffffffffffffffffffffffffff163373ffffffffffffffffffffffffffffffffffffffff1614611813576040517f08c379a000000000000000000000000000000000000000000000000000000000815260040161180a90616866565b60405180910390fd5b6009600f0160009054906101000a900460ff1615611866576040517f08c379a000000000000000000000000000000000000000000000000000000000815260040161185d90616746565b60405180910390fd5b6118718160016136e5565b7f5c6ace57e04d50c89abdde343bc20b6dbe48b8ce80684b10a2633f157b637d7533826001426040516118a7949392919061632d565b60405180910390a150565b60006012905090565b6000600960070160039054906101000a900473ffffffffffffffffffffffffffffffffffffffff16905090565b600061198a6118f5612fdc565b848460016000611903612fdc565b73ffffffffffffffffffffffffffffffffffffffff1673ffffffffffffffffffffffffffffffffffffffff16815260200190815260200160002060008873ffffffffffffffffffffffffffffffffffffffff1673ffffffffffffffffffffffffffffffffffffffff168152602001908152602001600020546119859190616b36565b612fe4565b6001905092915050565b60216020528060005260406000206000915090508060000160009054906101000a900473ffffffffffffffffffffffffffffffffffffffff16908060010154908060020154908060030154905084565b600960050160009054906101000a900473ffffffffffffffffffffffffffffffffffffffff1673ffffffffffffffffffffffffffffffffffffffff163373ffffffffffffffffffffffffffffffffffffffff1614611a77576040517f08c379a0000000000000000000000000000000000000000000000000000000008152600401611a6e90616866565b60405180910390fd5b80600960070160016101000a81548160ff0219169083151502179055507f2f824341849edde519544d4a9e11421845a643b53a544a5e50fbe369cd44da4a338242604051611ac7939291906163a9565b60405180910390a150565b6000806000611b1f84600560008873ffffffffffffffffffffffffffffffffffffffff1673ffffffffffffffffffffffffffffffffffffffff1681526020019081526020016000206138ad565b9150915081611b3657611b3185611b42565b611b38565b805b9250505092915050565b60008060008373ffffffffffffffffffffffffffffffffffffffff1673ffffffffffffffffffffffffffffffffffffffff168152602001908152602001600020549050919050565b6009600f0160009054906101000a900460ff1615611bdd576040517f08c379a0000000000000000000000000000000000000000000000000000000008152600401611bd490616746565b60405180910390fd5b6000339050611beb816139c9565b611c2a576040517f08c379a0000000000000000000000000000000000000000000000000000000008152600401611c21906166a6565b60405180910390fd5b60008173ffffffffffffffffffffffffffffffffffffffff16631865c57d6040518163ffffffff1660e01b815260040160006040518083038186803b158015611c7257600080fd5b505afa158015611c86573d6000803e3d6000fd5b505050506040513d6000823e3d601f19601f82011682018060405250810190611caf9190615026565b9050806101c00151611cf6576040517f08c379a0000000000000000000000000000000000000000000000000000000008152600401611ced90616826565b60405180910390fd5b600081610260015190506000826102800151905060008361012001519050600082118015611d2c575081611d298661206c565b10155b611d6b576040517f08c379a0000000000000000000000000000000000000000000000000000000008152600401611d62906166e6565b60405180910390fd5b600083118015611e0a575082611d7f613476565b73ffffffffffffffffffffffffffffffffffffffff166370a08231876040518263ffffffff1660e01b8152600401611db791906162a4565b60206040518083038186803b158015611dcf57600080fd5b505afa158015611de3573d6000803e3d6000fd5b505050506040513d601f19601f82011682018060405250810190611e0791906150d1565b10155b611e49576040517f08c379a0000000000000000000000000000000000000000000000000000000008152600401611e40906168a6565b60405180910390fd5b826009600c016000828254611e5e9190616b36565b92505081905550816009600d016000828254611e7a9190616b36565b92505081905550600060405180608001604052808773ffffffffffffffffffffffffffffffffffffffff168152602001848152602001858152602001428152509050601f81908060018154018082558091505060019003906000526020600020906004020160009091909190915060008201518160000160006101000a81548173ffffffffffffffffffffffffffffffffffffffff021916908373ffffffffffffffffffffffffffffffffffffffff160217905550602082015181600101556040820151816002015560608201518160030155505080602160008873ffffffffffffffffffffffffffffffffffffffff1673ffffffffffffffffffffffffffffffffffffffff16815260200190815260200160002060008201518160000160006101000a81548173ffffffffffffffffffffffffffffffffffffffff021916908373ffffffffffffffffffffffffffffffffffffffff1602179055506020820151816001015560408201518160020155606082015181600301559050506009600e015482111561200f57816009600e01819055505b7fcbf0fbac05ba7258619b5b6f20bf2b567ce1a76f2f8f0a58f9e7fb3e90958c48338486426040516120449493929190616440565b60405180910390a1505050505050565b60226020528060005260406000206000915090505481565b60006009600f0160009054906101000a900460ff16156120f557600960050160009054906101000a900473ffffffffffffffffffffffffffffffffffffffff1673ffffffffffffffffffffffffffffffffffffffff168273ffffffffffffffffffffffffffffffffffffffff16146120e55760006120ee565b6120ed6109a5565b5b9050612101565b6120fe82613b60565b90505b919050565b600960050160009054906101000a900473ffffffffffffffffffffffffffffffffffffffff1673ffffffffffffffffffffffffffffffffffffffff163373ffffffffffffffffffffffffffffffffffffffff1614612199576040517f08c379a000000000000000000000000000000000000000000000000000000000815260040161219090616866565b60405180910390fd5b6000600960130160009054906101000a900473ffffffffffffffffffffffffffffffffffffffff16905081600960130160006101000a81548173ffffffffffffffffffffffffffffffffffffffff021916908373ffffffffffffffffffffffffffffffffffffffff1602179055507f2330135097da4440ae721f5126f66619ce86b5dd8b0df9752a5ed74926e537023382844260405161223c94939291906162e8565b60405180910390a15050565b600960050160009054906101000a900473ffffffffffffffffffffffffffffffffffffffff1673ffffffffffffffffffffffffffffffffffffffff163373ffffffffffffffffffffffffffffffffffffffff16146122db576040517f08c379a00000000000000000000000000000000000000000000000000000000081526004016122d290616866565b60405180910390fd5b6009600f0160009054906101000a900460ff161561232e576040517f08c379a000000000000000000000000000000000000000000000000000000000815260040161232590616746565b60405180910390fd5b6123398160006136e5565b7f5c6ace57e04d50c89abdde343bc20b6dbe48b8ce80684b10a2633f157b637d75338260004260405161236f949392919061632d565b60405180910390a150565b6009600f0160009054906101000a900460ff16156123cd576040517f08c379a00000000000000000000000000000000000000000000000000000000081526004016123c490616746565b60405180910390fd5b600960080160009054906101000a900473ffffffffffffffffffffffffffffffffffffffff1673ffffffffffffffffffffffffffffffffffffffff163373ffffffffffffffffffffffffffffffffffffffff1614612460576040517f08c379a0000000000000000000000000000000000000000000000000000000008152600401612457906166c6565b60405180910390fd5b80600960080160006101000a81548173ffffffffffffffffffffffffffffffffffffffff021916908373ffffffffffffffffffffffffffffffffffffffff16021790555050565b600960050160009054906101000a900473ffffffffffffffffffffffffffffffffffffffff1673ffffffffffffffffffffffffffffffffffffffff163373ffffffffffffffffffffffffffffffffffffffff161461253a576040517f08c379a000000000000000000000000000000000000000000000000000000000815260040161253190616866565b60405180910390fd5b601d604051806040016040528083815260200142815250908060018154018082558091505060019003906000526020600020906002020160009091909190915060008201518160000190805190602001906125969291906147a9565b50602082015181600101555050806009800190805190602001906125bb9291906147a9565b507f39b28594242c42fce47a0a6e63bac12adbd07fbb35580f5a54b236858101d58a8133426040516125ef93929190616528565b60405180910390a150565b60606004805461260990616e53565b80601f016020809104026020016040519081016040528092919081815260200182805461263590616e53565b80156126825780601f1061265757610100808354040283529160200191612682565b820191906000526020600020905b81548152906001019060200180831161266557829003601f168201915b5050505050905090565b60006009600f0160009054906101000a900460ff16156126e1576040517f08c379a00000000000000000000000000000000000000000000000000000000081526004016126d890616746565b60405180910390fd5b6126e9613ba8565b905090565b60008060006126fe8460066138ad565b91509150816127145761270f6109a5565b612716565b805b92505050919050565b6060601d805480602002602001604051908101604052809291908181526020016000905b82821015612811578382906000526020600020906002020160405180604001604052908160008201805461277690616e53565b80601f01602080910402602001604051908101604052809291908181526020018280546127a290616e53565b80156127ef5780601f106127c4576101008083540402835291602001916127ef565b820191906000526020600020905b8154815290600101906020018083116127d257829003601f168201915b5050505050815260200160018201548152505081526020019060010190612743565b50505050905090565b6000600960040160009054906101000a900473ffffffffffffffffffffffffffffffffffffffff16905090565b602080528060005260406000206000915090505481565b6000806001600061286d612fdc565b73ffffffffffffffffffffffffffffffffffffffff1673ffffffffffffffffffffffffffffffffffffffff16815260200190815260200160002060008573ffffffffffffffffffffffffffffffffffffffff1673ffffffffffffffffffffffffffffffffffffffff1681526020019081526020016000205490508281101561292a576040517f08c379a000000000000000000000000000000000000000000000000000000000815260040161292190616926565b60405180910390fd5b61293e612935612fdc565b85858403612fe4565b600191505092915050565b600061295d612956612fdc565b84846131af565b6001905092915050565b6060601f805480602002602001604051908101604052809291908181526020016000905b82821015612a3157838290600052602060002090600402016040518060800160405290816000820160009054906101000a900473ffffffffffffffffffffffffffffffffffffffff1673ffffffffffffffffffffffffffffffffffffffff1673ffffffffffffffffffffffffffffffffffffffff16815260200160018201548152602001600282015481526020016003820154815250508152602001906001019061298b565b50505050905090565b6060601e805480602002602001604051908101604052809291908181526020016000905b82821015612afd578382906000526020600020016040518060400160405290816000820160009054906101000a900473ffffffffffffffffffffffffffffffffffffffff1673ffffffffffffffffffffffffffffffffffffffff1673ffffffffffffffffffffffffffffffffffffffff1681526020016000820160149054906101000a900460ff16151515158152505081526020019060010190612a5e565b50505050905090565b6009600f0160009054906101000a900460ff16612b58576040517f08c379a0000000000000000000000000000000000000000000000000000000008152600401612b4f90616706565b60405180910390fd5b600960070160019054906101000a900460ff161580612c035750612b7a613bfe565b73ffffffffffffffffffffffffffffffffffffffff16633657e851826040518263ffffffff1660e01b8152600401612bb291906162a4565b60206040518083038186803b158015612bca57600080fd5b505afa158015612bde573d6000803e3d6000fd5b505050506040513d601f19601f82011682018060405250810190612c029190614f92565b5b612c42576040517f08c379a0000000000000000000000000000000000000000000000000000000008152600401612c39906165c6565b60405180910390fd5b6000612c4e8230612f42565b905060008111612c93576040517f08c379a0000000000000000000000000000000000000000000000000000000008152600401612c8a90616906565b60405180910390fd5b6000612c9d6109a5565b60096010015483612cae9190616d2e565b612cb89190616b8c565b905060008111612cfd576040517f08c379a0000000000000000000000000000000000000000000000000000000008152600401612cf4906167c6565b60405180910390fd5b80602260008573ffffffffffffffffffffffffffffffffffffffff1673ffffffffffffffffffffffffffffffffffffffff1681526020019081526020016000206000828254612d4c9190616b36565b925050819055508060096012016000828254612d689190616b36565b92505081905550612da18382612d7c613476565b73ffffffffffffffffffffffffffffffffffffffff16613c2b9092919063ffffffff16565b3073ffffffffffffffffffffffffffffffffffffffff166323b872dd8430856040518463ffffffff1660e01b8152600401612dde93929190616372565b602060405180830381600087803b158015612df857600080fd5b505af1158015612e0c573d6000803e3d6000fd5b505050506040513d601f19601f82011682018060405250810190612e309190614f92565b508273ffffffffffffffffffffffffffffffffffffffff167f2aec1c87f3bc903aa0be5af816e24360e038c884cb96b991091f860698e3a2598242604051612e799291906169a3565b60405180910390a2505050565b61271081565b600960130160009054906101000a900473ffffffffffffffffffffffffffffffffffffffff1673ffffffffffffffffffffffffffffffffffffffff163373ffffffffffffffffffffffffffffffffffffffff1614612f1f576040517f08c379a0000000000000000000000000000000000000000000000000000000008152600401612f1690616666565b60405180910390fd5b60008282810190612f3091906150a8565b9050612f3c8482613cb1565b50505050565b6000600160008473ffffffffffffffffffffffffffffffffffffffff1673ffffffffffffffffffffffffffffffffffffffff16815260200190815260200160002060008373ffffffffffffffffffffffffffffffffffffffff1673ffffffffffffffffffffffffffffffffffffffff16815260200190815260200160002054905092915050565b505050565b600081600001549050919050565b600033905090565b600073ffffffffffffffffffffffffffffffffffffffff168373ffffffffffffffffffffffffffffffffffffffff161415613054576040517f08c379a000000000000000000000000000000000000000000000000000000000815260040161304b906167e6565b60405180910390fd5b600073ffffffffffffffffffffffffffffffffffffffff168273ffffffffffffffffffffffffffffffffffffffff1614156130c4576040517f08c379a00000000000000000000000000000000000000000000000000000000081526004016130bb906165e6565b60405180910390fd5b80600160008573ffffffffffffffffffffffffffffffffffffffff1673ffffffffffffffffffffffffffffffffffffffff16815260200190815260200160002060008473ffffffffffffffffffffffffffffffffffffffff1673ffffffffffffffffffffffffffffffffffffffff168152602001908152602001600020819055508173ffffffffffffffffffffffffffffffffffffffff168373ffffffffffffffffffffffffffffffffffffffff167f8c5be1e5ebec7d5bd14f71427d1e84f3dd0314c0f7b2291e5b200ac8c7c3b925836040516131a29190616988565b60405180910390a3505050565b600073ffffffffffffffffffffffffffffffffffffffff168373ffffffffffffffffffffffffffffffffffffffff16141561321f576040517f08c379a0000000000000000000000000000000000000000000000000000000008152600401613216906167a6565b60405180910390fd5b600073ffffffffffffffffffffffffffffffffffffffff168273ffffffffffffffffffffffffffffffffffffffff16141561328f576040517f08c379a000000000000000000000000000000000000000000000000000000000815260040161328690616586565b60405180910390fd5b61329a838383613e11565b60008060008573ffffffffffffffffffffffffffffffffffffffff1673ffffffffffffffffffffffffffffffffffffffff16815260200190815260200160002054905081811015613320576040517f08c379a000000000000000000000000000000000000000000000000000000000815260040161331790616646565b60405180910390fd5b8181036000808673ffffffffffffffffffffffffffffffffffffffff1673ffffffffffffffffffffffffffffffffffffffff16815260200190815260200160002081905550816000808573ffffffffffffffffffffffffffffffffffffffff1673ffffffffffffffffffffffffffffffffffffffff16815260200190815260200160002060008282546133b39190616b36565b925050819055508273ffffffffffffffffffffffffffffffffffffffff168473ffffffffffffffffffffffffffffffffffffffff167fddf252ad1be2c89b69c2b068fc378daa952ba7f163c4a11628f55a4df523b3ef846040516134179190616988565b60405180910390a361342a848484613ecb565b50505050565b60008161343b613ed0565b6134459190616d2e565b61344d613eeb565b84866134599190616d2e565b6134639190616d2e565b61346d9190616b8c565b90509392505050565b6000613480613f83565b905090565b613508846323b872dd60e01b8585856040516024016134a693929190616372565b604051602081830303815290604052907bffffffffffffffffffffffffffffffffffffffffffffffffffffffff19166020820180517bffffffffffffffffffffffffffffffffffffffffffffffffffffffff8381831617835250505050614018565b50505050565b600073ffffffffffffffffffffffffffffffffffffffff168273ffffffffffffffffffffffffffffffffffffffff16141561357e576040517f08c379a000000000000000000000000000000000000000000000000000000000815260040161357590616766565b60405180910390fd5b61358a82600083613e11565b60008060008473ffffffffffffffffffffffffffffffffffffffff1673ffffffffffffffffffffffffffffffffffffffff16815260200190815260200160002054905081811015613610576040517f08c379a0000000000000000000000000000000000000000000000000000000008152600401613607906165a6565b60405180910390fd5b8181036000808573ffffffffffffffffffffffffffffffffffffffff1673ffffffffffffffffffffffffffffffffffffffff1681526020019081526020016000208190555081600260008282546136679190616d88565b92505081905550600073ffffffffffffffffffffffffffffffffffffffff168373ffffffffffffffffffffffffffffffffffffffff167fddf252ad1be2c89b69c2b068fc378daa952ba7f163c4a11628f55a4df523b3ef846040516136cc9190616988565b60405180910390a36136e083600084613ecb565b505050565b6136ee826140df565b156137965780601e602060008573ffffffffffffffffffffffffffffffffffffffff1673ffffffffffffffffffffffffffffffffffffffff168152602001908152602001600020548154811061376d577f4e487b7100000000000000000000000000000000000000000000000000000000600052603260045260246000fd5b9060005260206000200160000160146101000a81548160ff0219169083151502179055506138a9565b601e60405180604001604052808473ffffffffffffffffffffffffffffffffffffffff1681526020018315158152509080600181540180825580915050600190039060005260206000200160009091909190915060008201518160000160006101000a81548173ffffffffffffffffffffffffffffffffffffffff021916908373ffffffffffffffffffffffffffffffffffffffff16021790555060208201518160000160146101000a81548160ff02191690831515021790555050506001601e805490506138659190616d88565b602060008473ffffffffffffffffffffffffffffffffffffffff1673ffffffffffffffffffffffffffffffffffffffff168152602001908152602001600020819055505b5050565b600080600084116138f3576040517f08c379a00000000000000000000000000000000000000000000000000000000081526004016138ea90616886565b60405180910390fd5b6138fb614201565b84111561393d576040517f08c379a000000000000000000000000000000000000000000000000000000000815260040161393490616566565b60405180910390fd5b6000613955858560000161421290919063ffffffff16565b905083600001805490508114156139735760008092509250506139c2565b60018460010182815481106139b1577f4e487b7100000000000000000000000000000000000000000000000000000000600052603260045260246000fd5b906000526020600020015492509250505b9250929050565b6000600960050160009054906101000a900473ffffffffffffffffffffffffffffffffffffffff1673ffffffffffffffffffffffffffffffffffffffff168273ffffffffffffffffffffffffffffffffffffffff16631865c57d6040518163ffffffff1660e01b815260040160006040518083038186803b158015613a4d57600080fd5b505afa158015613a61573d6000803e3d6000fd5b505050506040513d6000823e3d601f19601f82011682018060405250810190613a8a9190615026565b60a0015173ffffffffffffffffffffffffffffffffffffffff161415613ab35760019050613b5b565b613abc826140df565b8015613b585750601e602060008473ffffffffffffffffffffffffffffffffffffffff1673ffffffffffffffffffffffffffffffffffffffff1681526020019081526020016000205481548110613b3c577f4e487b7100000000000000000000000000000000000000000000000000000000600052603260045260246000fd5b9060005260206000200160000160149054906101000a900460ff165b90505b919050565b60008060008373ffffffffffffffffffffffffffffffffffffffff1673ffffffffffffffffffffffffffffffffffffffff168152602001908152602001600020549050919050565b6000613bb46008614338565b6000613bbe614201565b90507f8030e83b04d87bef53480e26263266d6ca66863aa8506aca6f2559d18aa1cb6781604051613bef9190616988565b60405180910390a18091505090565b6000600960070160039054906101000a900473ffffffffffffffffffffffffffffffffffffffff16905090565b613cac8363a9059cbb60e01b8484604051602401613c4a9291906163e0565b604051602081830303815290604052907bffffffffffffffffffffffffffffffffffffffffffffffffffffffff19166020820180517bffffffffffffffffffffffffffffffffffffffffffffffffffffffff8381831617835250505050614018565b505050565b600073ffffffffffffffffffffffffffffffffffffffff168273ffffffffffffffffffffffffffffffffffffffff161415613d21576040517f08c379a0000000000000000000000000000000000000000000000000000000008152600401613d1890616946565b60405180910390fd5b613d2d60008383613e11565b8060026000828254613d3f9190616b36565b92505081905550806000808473ffffffffffffffffffffffffffffffffffffffff1673ffffffffffffffffffffffffffffffffffffffff1681526020019081526020016000206000828254613d949190616b36565b925050819055508173ffffffffffffffffffffffffffffffffffffffff16600073ffffffffffffffffffffffffffffffffffffffff167fddf252ad1be2c89b69c2b068fc378daa952ba7f163c4a11628f55a4df523b3ef83604051613df99190616988565b60405180910390a3613e0d60008383613ecb565b5050565b613e1c838383612fc9565b600073ffffffffffffffffffffffffffffffffffffffff168373ffffffffffffffffffffffffffffffffffffffff161415613e6757613e5a8261434e565b613e626143a1565b613ec6565b600073ffffffffffffffffffffffffffffffffffffffff168273ffffffffffffffffffffffffffffffffffffffff161415613eb257613ea58361434e565b613ead6143a1565b613ec5565b613ebb8361434e565b613ec48261434e565b5b5b505050565b505050565b6000613eda6118b2565b600a613ee69190616c10565b905090565b6000613ef5613f83565b73ffffffffffffffffffffffffffffffffffffffff1663313ce5676040518163ffffffff1660e01b815260040160206040518083038186803b158015613f3a57600080fd5b505afa158015613f4e573d6000803e3d6000fd5b505050506040513d601f19601f82011682018060405250810190613f7291906150fa565b600a613f7e9190616c10565b905090565b6000613f8d613bfe565b73ffffffffffffffffffffffffffffffffffffffff16631865c57d6040518163ffffffff1660e01b815260040160006040518083038186803b158015613fd257600080fd5b505afa158015613fe6573d6000803e3d6000fd5b505050506040513d6000823e3d601f19601f8201168201806040525081019061400f9190615067565b60a00151905090565b600061407a826040518060400160405280602081526020017f5361666545524332303a206c6f772d6c6576656c2063616c6c206661696c65648152508573ffffffffffffffffffffffffffffffffffffffff166143b59092919063ffffffff16565b90506000815111156140da578080602001905181019061409a9190614f92565b6140d9576040517f08c379a00000000000000000000000000000000000000000000000000000000081526004016140d0906168c6565b60405180910390fd5b5b505050565b600080602060008473ffffffffffffffffffffffffffffffffffffffff1673ffffffffffffffffffffffffffffffffffffffff1681526020019081526020016000205490506000601e80549050141561413c5760009150506141fc565b601e8054905081106141525760009150506141fc565b8273ffffffffffffffffffffffffffffffffffffffff16601e82815481106141a3577f4e487b7100000000000000000000000000000000000000000000000000000000600052603260045260246000fd5b9060005260206000200160000160009054906101000a900473ffffffffffffffffffffffffffffffffffffffff1673ffffffffffffffffffffffffffffffffffffffff16146141f65760009150506141fc565b60019150505b919050565b600061420d6008612fce565b905090565b600080838054905014156142295760009050614332565b600080848054905090505b808210156142b357600061424883836143cd565b905084868281548110614284577f4e487b7100000000000000000000000000000000000000000000000000000000600052603260045260246000fd5b9060005260206000200154111561429d578091506142ad565b6001816142aa9190616b36565b92505b50614234565b600082118015614311575083856001846142cd9190616d88565b81548110614304577f4e487b7100000000000000000000000000000000000000000000000000000000600052603260045260246000fd5b9060005260206000200154145b1561432c576001826143239190616d88565b92505050614332565b81925050505b92915050565b6001816000016000828254019250508190555050565b61439e600560008373ffffffffffffffffffffffffffffffffffffffff1673ffffffffffffffffffffffffffffffffffffffff16815260200190815260200160002061439983611b42565b6143f3565b50565b6143b360066143ae6109a5565b6143f3565b565b60606143c4848460008561446e565b90509392505050565b600060028284186143de9190616b8c565b8284166143eb9190616b36565b905092915050565b60006143fd614201565b90508061440c84600001614582565b10156144695782600001819080600181540180825580915050600190039060005260206000200160009091909190915055826001018290806001815401808255809150506001900390600052602060002001600090919091909150555b505050565b6060824710156144b3576040517f08c379a00000000000000000000000000000000000000000000000000000000081526004016144aa90616686565b60405180910390fd5b6144bc856145f5565b6144fb576040517f08c379a00000000000000000000000000000000000000000000000000000000081526004016144f290616806565b60405180910390fd5b6000808673ffffffffffffffffffffffffffffffffffffffff168587604051614524919061628d565b60006040518083038185875af1925050503d8060008114614561576040519150601f19603f3d011682016040523d82523d6000602084013e614566565b606091505b5091509150614576828286614608565b92505050949350505050565b6000808280549050141561459957600090506145f0565b81600183805490506145ab9190616d88565b815481106145e2577f4e487b7100000000000000000000000000000000000000000000000000000000600052603260045260246000fd5b906000526020600020015490505b919050565b600080823b905060008111915050919050565b6060831561461857829050614668565b60008351111561462b5782518084602001fd5b816040517f08c379a000000000000000000000000000000000000000000000000000000000815260040161465f9190616506565b60405180910390fd5b9392505050565b604051806102e0016040528060008152602001600073ffffffffffffffffffffffffffffffffffffffff1681526020016060815260200160008152602001600073ffffffffffffffffffffffffffffffffffffffff168152602001600073ffffffffffffffffffffffffffffffffffffffff16815260200160008152602001600015158152602001600015158152602001600015158152602001600073ffffffffffffffffffffffffffffffffffffffff168152602001600073ffffffffffffffffffffffffffffffffffffffff168152602001606081526020016060815260200160608152602001600081526020016000815260200160008152602001600015158152602001600081526020016000815260200160008152602001600073ffffffffffffffffffffffffffffffffffffffff1681525090565b8280546147b590616e53565b90600052602060002090601f0160209004810192826147d7576000855561481e565b82601f106147f057805160ff191683800117855561481e565b8280016001018555821561481e579182015b8281111561481d578251825591602001919060010190614802565b5b50905061482b919061482f565b5090565b5b80821115614848576000816000905550600101614830565b5090565b600061485f61485a84616a18565b6169e7565b90508281526020810184848401111561487757600080fd5b614882848285616e11565b509392505050565b600061489d61489884616a18565b6169e7565b9050828152602081018484840111156148b557600080fd5b6148c0848285616e20565b509392505050565b6000813590506148d781616f5f565b92915050565b6000815190506148ec81616f5f565b92915050565b60008135905061490181616f76565b92915050565b60008151905061491681616f76565b92915050565b60008083601f84011261492e57600080fd5b8235905067ffffffffffffffff81111561494757600080fd5b60208301915083600182028301111561495f57600080fd5b9250929050565b600082601f83011261497757600080fd5b813561498784826020860161484c565b91505092915050565b600082601f8301126149a157600080fd5b81516149b184826020860161488a565b91505092915050565b600061014082840312156149cd57600080fd5b6149d86101406169e7565b905060006149e8848285016148dd565b60008301525060206149fc848285016148dd565b6020830152506040614a1084828501614907565b6040830152506060614a2484828501614907565b6060830152506080614a3884828501614df7565b60808301525060a0614a4c84828501614df7565b60a08301525060c0614a6084828501614df7565b60c08301525060e0614a7484828501614df7565b60e083015250610100614a8984828501614df7565b61010083015250610120614a9f848285016148dd565b6101208301525092915050565b60006102e08284031215614abf57600080fd5b614aca6102e06169e7565b90506000614ada84828501614df7565b6000830152506020614aee848285016148dd565b602083015250604082015167ffffffffffffffff811115614b0e57600080fd5b614b1a84828501614990565b6040830152506060614b2e84828501614df7565b6060830152506080614b42848285016148dd565b60808301525060a0614b56848285016148dd565b60a08301525060c0614b6a848285016148dd565b60c08301525060e0614b7e848285016148dd565b60e083015250610100614b93848285016148dd565b61010083015250610120614ba984828501614df7565b61012083015250610140614bbf84828501614df7565b61014083015250610160614bd584828501614df7565b61016083015250610180614beb84828501614df7565b610180830152506101a0614c0184828501614907565b6101a0830152506101c0614c1784828501614907565b6101c0830152506101e0614c2d84828501614907565b6101e083015250610200614c4384828501614df7565b61020083015250610220614c5984828501614df7565b61022083015250610240614c6f84828501614df7565b61024083015250610260614c8584828501614df7565b61026083015250610280614c9b84828501614df7565b610280830152506102a0614cb184828501614df7565b6102a0830152506102c082015167ffffffffffffffff811115614cd357600080fd5b614cdf84828501614990565b6102c08301525092915050565b60006101008284031215614cff57600080fd5b614d0a6101006169e7565b90506000614d1a84828501614df7565b6000830152506020614d2e848285016148dd565b602083015250604082015167ffffffffffffffff811115614d4e57600080fd5b614d5a84828501614990565b6040830152506060614d6e848285016148dd565b6060830152506080614d82848285016148dd565b60808301525060a0614d96848285016148dd565b60a08301525060c0614daa848285016148dd565b60c08301525060e082015167ffffffffffffffff811115614dca57600080fd5b614dd684828501614990565b60e08301525092915050565b600081359050614df181616f8d565b92915050565b600081519050614e0681616f8d565b92915050565b600081519050614e1b81616fa4565b92915050565b600060208284031215614e3357600080fd5b6000614e41848285016148c8565b91505092915050565b60008060408385031215614e5d57600080fd5b6000614e6b858286016148c8565b9250506020614e7c858286016148c8565b9150509250929050565b600080600060608486031215614e9b57600080fd5b6000614ea9868287016148c8565b9350506020614eba868287016148c8565b9250506040614ecb86828701614de2565b9150509250925092565b600080600060408486031215614eea57600080fd5b6000614ef8868287016148c8565b935050602084013567ffffffffffffffff811115614f1557600080fd5b614f218682870161491c565b92509250509250925092565b60008060408385031215614f4057600080fd5b6000614f4e858286016148c8565b9250506020614f5f85828601614de2565b9150509250929050565b600060208284031215614f7b57600080fd5b6000614f89848285016148f2565b91505092915050565b600060208284031215614fa457600080fd5b6000614fb284828501614907565b91505092915050565b600060208284031215614fcd57600080fd5b600082013567ffffffffffffffff811115614fe757600080fd5b614ff384828501614966565b91505092915050565b6000610140828403121561500f57600080fd5b600061501d848285016149ba565b91505092915050565b60006020828403121561503857600080fd5b600082015167ffffffffffffffff81111561505257600080fd5b61505e84828501614aac565b91505092915050565b60006020828403121561507957600080fd5b600082015167ffffffffffffffff81111561509357600080fd5b61509f84828501614cec565b91505092915050565b6000602082840312156150ba57600080fd5b60006150c884828501614de2565b91505092915050565b6000602082840312156150e357600080fd5b60006150f184828501614df7565b91505092915050565b60006020828403121561510c57600080fd5b600061511a84828501614e0c565b91505092915050565b600061512f838361619f565b905092915050565b600061514383836161dc565b60808301905092915050565b600061515b8383616231565b60408301905092915050565b61517081616dbc565b82525050565b61517f81616dbc565b82525050565b600061519082616a78565b61519a8185616ad6565b9350836020820285016151ac85616a48565b8060005b858110156151e857848403895281516151c98582615123565b94506151d483616aaf565b925060208a019950506001810190506151b0565b50829750879550505050505092915050565b600061520582616a83565b61520f8185616ae7565b935061521a83616a58565b8060005b8381101561524b5781516152328882615137565b975061523d83616abc565b92505060018101905061521e565b5085935050505092915050565b600061526382616a8e565b61526d8185616af8565b935061527883616a68565b8060005b838110156152a9578151615290888261514f565b975061529b83616ac9565b92505060018101905061527c565b5085935050505092915050565b6152bf81616dce565b82525050565b6152ce81616dce565b82525050565b60006152df82616a99565b6152e98185616b09565b93506152f9818560208601616e20565b80840191505092915050565b600061531082616aa4565b61531a8185616b14565b935061532a818560208601616e20565b61533381616f41565b840191505092915050565b600061534982616aa4565b6153538185616b25565b9350615363818560208601616e20565b61536c81616f41565b840191505092915050565b6000615384601d83616b25565b91507f4552433230536e617073686f743a206e6f6e6578697374656e742069640000006000830152602082019050919050565b60006153c4602383616b25565b91507f45524332303a207472616e7366657220746f20746865207a65726f206164647260008301527f65737300000000000000000000000000000000000000000000000000000000006020830152604082019050919050565b600061542a602283616b25565b91507f45524332303a206275726e20616d6f756e7420657863656564732062616c616e60008301527f63650000000000000000000000000000000000000000000000000000000000006020830152604082019050919050565b6000615490604483616b25565b91507f41737365743a2077616c6c6574206d7573742062652077686974656c6973746560008301527f64206265666f726520636c61696d696e67206c69717569646174696f6e20736860208301527f6172652e000000000000000000000000000000000000000000000000000000006040830152606082019050919050565b600061551c602283616b25565b91507f45524332303a20617070726f766520746f20746865207a65726f20616464726560008301527f73730000000000000000000000000000000000000000000000000000000000006020830152604082019050919050565b6000615582602083616b25565b91507f41737365745472616e7366657261626c653a20507269636520657870697265646000830152602082019050919050565b60006155c2602e83616b25565b91507f41737365743a204f6e6c7920697373756572206f776e65722063616e206d616b60008301527f65207468697320616374696f6e2e0000000000000000000000000000000000006020830152604082019050919050565b6000615628602683616b25565b91507f45524332303a207472616e7366657220616d6f756e742065786365656473206260008301527f616c616e636500000000000000000000000000000000000000000000000000006020830152604082019050919050565b600061568e604183616b25565b91507f41737365745472616e7366657261626c653a204f6e6c79206368696c6420636860008301527f61696e206d616e616765722063616e206d616b65207468697320616374696f6e60208301527f2e000000000000000000000000000000000000000000000000000000000000006040830152606082019050919050565b600061571a602683616b25565b91507f416464726573733a20696e73756666696369656e742062616c616e636520666f60008301527f722063616c6c00000000000000000000000000000000000000000000000000006020830152604082019050919050565b6000615780601d83616b25565b91507f41737365743a2043616d706169676e206e6f7420617070726f7665642e0000006000830152602082019050919050565b60006157c0603b83616b25565b91507f41737365745472616e7366657261626c653a204f6e6c7920617078526567697360008301527f7472792063616e2063616c6c20746869732066756e6374696f6e2e00000000006020830152604082019050919050565b6000615826605783616b25565b91507f41737365743a2043616d706169676e20686173207369676e616c6c656420746860008301527f652073616c652066696e616c697a6174696f6e206275742063616d706169676e60208301527f20746f6b656e7320617265206e6f742070726573656e740000000000000000006040830152606082019050919050565b60006158b2601583616b25565b91507f41737365743a206e6f74206c69717569646174656400000000000000000000006000830152602082019050919050565b60006158f2602883616b25565b91507f45524332303a207472616e7366657220616d6f756e742065786365656473206160008301527f6c6c6f77616e63650000000000000000000000000000000000000000000000006020830152604082019050919050565b6000615958602a83616b25565b91507f41737365743a20416374696f6e20666f7262696464656e2c206173736574206c60008301527f6971756964617465642e000000000000000000000000000000000000000000006020830152604082019050919050565b60006159be602183616b25565b91507f45524332303a206275726e2066726f6d20746865207a65726f2061646472657360008301527f73000000000000000000000000000000000000000000000000000000000000006020830152604082019050919050565b6000615a24603183616b25565b91507f41737365745472616e7366657261626c653a204e6f742072656769737465726560008301527f6420696e204170782052656769737472790000000000000000000000000000006020830152604082019050919050565b6000615a8a602583616b25565b91507f45524332303a207472616e736665722066726f6d20746865207a65726f20616460008301527f64726573730000000000000000000000000000000000000000000000000000006020830152604082019050919050565b6000615af0602483616b25565b91507f41737365743a206e6f206c69717569646174696f6e2066756e647320746f206360008301527f6c61696d000000000000000000000000000000000000000000000000000000006020830152604082019050919050565b6000615b56602483616b25565b91507f45524332303a20617070726f76652066726f6d20746865207a65726f2061646460008301527f72657373000000000000000000000000000000000000000000000000000000006020830152604082019050919050565b6000615bbc601d83616b25565b91507f416464726573733a2063616c6c20746f206e6f6e2d636f6e74726163740000006000830152602082019050919050565b6000615bfc601d83616b25565b91507f41737365743a2043616d706169676e206e6f742066696e616c697a65640000006000830152602082019050919050565b6000615c3c603083616b25565b91507f41737365745472616e7366657261626c653a20417373657420626c6f636b656460008301527f20696e20417078205265676973747279000000000000000000000000000000006020830152604082019050919050565b6000615ca2602f83616b25565b91507f41737365743a204f6e6c792061737365742063726561746f722063616e206d6160008301527f6b65207468697320616374696f6e2e00000000000000000000000000000000006020830152604082019050919050565b6000615d08601683616b25565b91507f4552433230536e617073686f743a2069642069732030000000000000000000006000830152602082019050919050565b6000615d48605483616b25565b91507f41737365743a2043616d706169676e20686173207369676e616c6c656420746860008301527f652073616c652066696e616c697a6174696f6e2062757420726169736564206660208301527f756e647320617265206e6f742070726573656e740000000000000000000000006040830152606082019050919050565b6000615dd4602a83616b25565b91507f5361666545524332303a204552433230206f7065726174696f6e20646964206e60008301527f6f742073756363656564000000000000000000000000000000000000000000006020830152604082019050919050565b6000615e3a603083616b25565b91507f41737365745472616e7366657261626c653a20496e76616c6964206d6972726f60008301527f726564206173736574207265636f7264000000000000000000000000000000006020830152604082019050919050565b6000615ea0603883616b25565b91507f41737365743a206e6f20746f6b656e7320617070726f76656420666f7220636c60008301527f61696d696e67206c69717569646174696f6e20736861726500000000000000006020830152604082019050919050565b6000615f06602583616b25565b91507f45524332303a2064656372656173656420616c6c6f77616e63652062656c6f7760008301527f207a65726f0000000000000000000000000000000000000000000000000000006020830152604082019050919050565b6000615f6c601f83616b25565b91507f45524332303a206d696e7420746f20746865207a65726f2061646472657373006000830152602082019050919050565b60006102e083016000830151615fb86000860182616260565b506020830151615fcb6020860182615167565b5060408301518482036040860152615fe38282615305565b9150506060830151615ff86060860182616260565b50608083015161600b6080860182615167565b5060a083015161601e60a0860182615167565b5060c083015161603160c0860182616260565b5060e083015161604460e08601826152b6565b506101008301516160596101008601826152b6565b5061012083015161606e6101208601826152b6565b50610140830151616083610140860182615167565b50610160830151616098610160860182615167565b506101808301518482036101808601526160b28282615305565b9150506101a08301518482036101a08601526160ce8282615305565b9150506101c08301518482036101c08601526160ea8282615305565b9150506101e08301516161016101e0860182616260565b50610200830151616116610200860182616260565b5061022083015161612b610220860182616260565b506102408301516161406102408601826152b6565b50610260830151616155610260860182616260565b5061028083015161616a610280860182616260565b506102a083015161617f6102a0860182616260565b506102c08301516161946102c0860182615167565b508091505092915050565b600060408301600083015184820360008601526161bc8282615305565b91505060208301516161d16020860182616260565b508091505092915050565b6080820160008201516161f26000850182615167565b5060208201516162056020850182616260565b5060408201516162186040850182616260565b50606082015161622b6060850182616260565b50505050565b6040820160008201516162476000850182615167565b50602082015161625a60208501826152b6565b50505050565b61626981616dfa565b82525050565b61627881616dfa565b82525050565b61628781616e04565b82525050565b600061629982846152d4565b915081905092915050565b60006020820190506162b96000830184615176565b92915050565b60006040820190506162d46000830185615176565b6162e16020830184615176565b9392505050565b60006080820190506162fd6000830187615176565b61630a6020830186615176565b6163176040830185615176565b616324606083018461626f565b95945050505050565b60006080820190506163426000830187615176565b61634f6020830186615176565b61635c60408301856152c5565b616369606083018461626f565b95945050505050565b60006060820190506163876000830186615176565b6163946020830185615176565b6163a1604083018461626f565b949350505050565b60006060820190506163be6000830186615176565b6163cb60208301856152c5565b6163d8604083018461626f565b949350505050565b60006040820190506163f56000830185615176565b616402602083018461626f565b9392505050565b600060608201905061641e6000830186615176565b61642b602083018561626f565b616438604083018461626f565b949350505050565b60006080820190506164556000830187615176565b616462602083018661626f565b61646f604083018561626f565b61647c606083018461626f565b95945050505050565b6000602082019050818103600083015261649f8184615185565b905092915050565b600060208201905081810360008301526164c181846151fa565b905092915050565b600060208201905081810360008301526164e38184615258565b905092915050565b600060208201905061650060008301846152c5565b92915050565b60006020820190508181036000830152616520818461533e565b905092915050565b60006060820190508181036000830152616542818661533e565b90506165516020830185615176565b61655e604083018461626f565b949350505050565b6000602082019050818103600083015261657f81615377565b9050919050565b6000602082019050818103600083015261659f816153b7565b9050919050565b600060208201905081810360008301526165bf8161541d565b9050919050565b600060208201905081810360008301526165df81615483565b9050919050565b600060208201905081810360008301526165ff8161550f565b9050919050565b6000602082019050818103600083015261661f81615575565b9050919050565b6000602082019050818103600083015261663f816155b5565b9050919050565b6000602082019050818103600083015261665f8161561b565b9050919050565b6000602082019050818103600083015261667f81615681565b9050919050565b6000602082019050818103600083015261669f8161570d565b9050919050565b600060208201905081810360008301526166bf81615773565b9050919050565b600060208201905081810360008301526166df816157b3565b9050919050565b600060208201905081810360008301526166ff81615819565b9050919050565b6000602082019050818103600083015261671f816158a5565b9050919050565b6000602082019050818103600083015261673f816158e5565b9050919050565b6000602082019050818103600083015261675f8161594b565b9050919050565b6000602082019050818103600083015261677f816159b1565b9050919050565b6000602082019050818103600083015261679f81615a17565b9050919050565b600060208201905081810360008301526167bf81615a7d565b9050919050565b600060208201905081810360008301526167df81615ae3565b9050919050565b600060208201905081810360008301526167ff81615b49565b9050919050565b6000602082019050818103600083015261681f81615baf565b9050919050565b6000602082019050818103600083015261683f81615bef565b9050919050565b6000602082019050818103600083015261685f81615c2f565b9050919050565b6000602082019050818103600083015261687f81615c95565b9050919050565b6000602082019050818103600083015261689f81615cfb565b9050919050565b600060208201905081810360008301526168bf81615d3b565b9050919050565b600060208201905081810360008301526168df81615dc7565b9050919050565b600060208201905081810360008301526168ff81615e2d565b9050919050565b6000602082019050818103600083015261691f81615e93565b9050919050565b6000602082019050818103600083015261693f81615ef9565b9050919050565b6000602082019050818103600083015261695f81615f5f565b9050919050565b600060208201905081810360008301526169808184615f9f565b905092915050565b600060208201905061699d600083018461626f565b92915050565b60006040820190506169b8600083018561626f565b6169c5602083018461626f565b9392505050565b60006020820190506169e1600083018461627e565b92915050565b6000604051905081810181811067ffffffffffffffff82111715616a0e57616a0d616f12565b5b8060405250919050565b600067ffffffffffffffff821115616a3357616a32616f12565b5b601f19601f8301169050602081019050919050565b6000819050602082019050919050565b6000819050602082019050919050565b6000819050602082019050919050565b600081519050919050565b600081519050919050565b600081519050919050565b600081519050919050565b600081519050919050565b6000602082019050919050565b6000602082019050919050565b6000602082019050919050565b600082825260208201905092915050565b600082825260208201905092915050565b600082825260208201905092915050565b600081905092915050565b600082825260208201905092915050565b600082825260208201905092915050565b6000616b4182616dfa565b9150616b4c83616dfa565b9250827fffffffffffffffffffffffffffffffffffffffffffffffffffffffffffffffff03821115616b8157616b80616e85565b5b828201905092915050565b6000616b9782616dfa565b9150616ba283616dfa565b925082616bb257616bb1616eb4565b5b828204905092915050565b6000808291508390505b6001851115616c0757808604811115616be357616be2616e85565b5b6001851615616bf25780820291505b8081029050616c0085616f52565b9450616bc7565b94509492505050565b6000616c1b82616dfa565b9150616c2683616e04565b9250616c537fffffffffffffffffffffffffffffffffffffffffffffffffffffffffffffffff8484616c5b565b905092915050565b600082616c6b5760019050616d27565b81616c795760009050616d27565b8160018114616c8f5760028114616c9957616cc8565b6001915050616d27565b60ff841115616cab57616caa616e85565b5b8360020a915084821115616cc257616cc1616e85565b5b50616d27565b5060208310610133831016604e8410600b8410161715616cfd5782820a905083811115616cf857616cf7616e85565b5b616d27565b616d0a8484846001616bbd565b92509050818404811115616d2157616d20616e85565b5b81810290505b9392505050565b6000616d3982616dfa565b9150616d4483616dfa565b9250817fffffffffffffffffffffffffffffffffffffffffffffffffffffffffffffffff0483118215151615616d7d57616d7c616e85565b5b828202905092915050565b6000616d9382616dfa565b9150616d9e83616dfa565b925082821015616db157616db0616e85565b5b828203905092915050565b6000616dc782616dda565b9050919050565b60008115159050919050565b600073ffffffffffffffffffffffffffffffffffffffff82169050919050565b6000819050919050565b600060ff82169050919050565b82818337600083830152505050565b60005b83811015616e3e578082015181840152602081019050616e23565b83811115616e4d576000848401525b50505050565b60006002820490506001821680616e6b57607f821691505b60208210811415616e7f57616e7e616ee3565b5b50919050565b7f4e487b7100000000000000000000000000000000000000000000000000000000600052601160045260246000fd5b7f4e487b7100000000000000000000000000000000000000000000000000000000600052601260045260246000fd5b7f4e487b7100000000000000000000000000000000000000000000000000000000600052602260045260246000fd5b7f4e487b7100000000000000000000000000000000000000000000000000000000600052604160045260246000fd5b6000601f19601f8301169050919050565b60008160011c9050919050565b616f6881616dbc565b8114616f7357600080fd5b50565b616f7f81616dce565b8114616f8a57600080fd5b50565b616f9681616dfa565b8114616fa157600080fd5b50565b616fad81616e04565b8114616fb857600080fd5b5056fea26469706673582212203695032f78815bc8f91a45d10d8e4637247e7576a17e991be47b7aadb6f0da3364736f6c63430008000033a26469706673582212201203b2d3b2346b06e68fdca4a11b9fc5be029de3b5430847e6d91a78337b9a9364736f6c63430008000033",
  "linkReferences": {},
  "deployedLinkReferences": {}
}