{
  "_format": "hh-sol-artifact-1",
  "contractName": "DeployerService",
  "sourceName": "contracts/services/DeployerService.sol",
  "abi": [
    {
      "anonymous": false,
      "inputs": [
        {
          "indexed": false,
          "internalType": "address",
          "name": "caller",
          "type": "address"
        },
        {
          "indexed": false,
          "internalType": "address",
          "name": "asset",
          "type": "address"
        },
        {
          "indexed": false,
          "internalType": "address",
          "name": "campaign",
          "type": "address"
        },
        {
          "indexed": false,
          "internalType": "uint256",
          "name": "timestamp",
          "type": "uint256"
        }
      ],
      "name": "DeployAssetCampaign",
      "type": "event"
    },
    {
      "anonymous": false,
      "inputs": [
        {
          "indexed": false,
          "internalType": "address",
          "name": "caller",
          "type": "address"
        },
        {
          "indexed": false,
          "internalType": "address",
          "name": "issuer",
          "type": "address"
        },
        {
          "indexed": false,
          "internalType": "address",
          "name": "asset",
          "type": "address"
        },
        {
          "indexed": false,
          "internalType": "address",
          "name": "campaign",
          "type": "address"
        },
        {
          "indexed": false,
          "internalType": "uint256",
          "name": "timestamp",
          "type": "uint256"
        }
      ],
      "name": "DeployIssuerAssetCampaign",
      "type": "event"
    },
    {
      "inputs": [
        {
          "components": [
            {
              "internalType": "contract IAssetFactory",
              "name": "assetFactory",
              "type": "address"
            },
            {
              "internalType": "contract ICfManagerSoftcapFactory",
              "name": "cfManagerSoftcapFactory",
              "type": "address"
            },
            {
              "internalType": "address",
              "name": "issuer",
              "type": "address"
            },
            {
              "internalType": "address",
              "name": "assetOwner",
              "type": "address"
            },
            {
              "internalType": "string",
              "name": "assetAnsName",
              "type": "string"
            },
            {
              "internalType": "uint256",
              "name": "assetInitialTokenSupply",
              "type": "uint256"
            },
            {
              "internalType": "bool",
              "name": "assetWhitelistRequired",
              "type": "bool"
            },
            {
              "internalType": "string",
              "name": "assetName",
              "type": "string"
            },
            {
              "internalType": "string",
              "name": "assetSymbol",
              "type": "string"
            },
            {
              "internalType": "string",
              "name": "assetInfo",
              "type": "string"
            },
            {
              "internalType": "address",
              "name": "cfManagerOwner",
              "type": "address"
            },
            {
              "internalType": "string",
              "name": "cfManagerAnsName",
              "type": "string"
            },
            {
              "internalType": "uint256",
              "name": "cfManagerPricePerToken",
              "type": "uint256"
            },
            {
              "internalType": "uint256",
              "name": "cfManagerSoftcap",
              "type": "uint256"
            },
            {
              "internalType": "uint256",
              "name": "cfManagerSoftcapMinInvestment",
              "type": "uint256"
            },
            {
              "internalType": "uint256",
              "name": "cfManagerSoftcapMaxInvestment",
              "type": "uint256"
            },
            {
              "internalType": "uint256",
              "name": "cfManagerTokensToSellAmount",
              "type": "uint256"
            },
            {
              "internalType": "bool",
              "name": "cfManagerWhitelistRequired",
              "type": "bool"
            },
            {
              "internalType": "string",
              "name": "cfManagerInfo",
              "type": "string"
            }
          ],
          "internalType": "struct DeployerService.DeployAssetCampaignRequest",
          "name": "request",
          "type": "tuple"
        }
      ],
      "name": "deployAssetCampaign",
      "outputs": [],
      "stateMutability": "nonpayable",
      "type": "function"
    },
    {
      "inputs": [
        {
          "components": [
            {
              "internalType": "contract IIssuerFactory",
              "name": "issuerFactory",
              "type": "address"
            },
            {
              "internalType": "contract IAssetFactory",
              "name": "assetFactory",
              "type": "address"
            },
            {
              "internalType": "contract ICfManagerSoftcapFactory",
              "name": "cfManagerSoftcapFactory",
              "type": "address"
            },
            {
              "internalType": "address",
              "name": "issuerOwner",
              "type": "address"
            },
            {
              "internalType": "string",
              "name": "issuerAnsName",
              "type": "string"
            },
            {
              "internalType": "address",
              "name": "issuerStablecoin",
              "type": "address"
            },
            {
              "internalType": "address",
              "name": "issuerWalletApprover",
              "type": "address"
            },
            {
              "internalType": "string",
              "name": "issuerInfo",
              "type": "string"
            },
            {
              "internalType": "address",
              "name": "assetOwner",
              "type": "address"
            },
            {
              "internalType": "string",
              "name": "assetAnsName",
              "type": "string"
            },
            {
              "internalType": "uint256",
              "name": "assetInitialTokenSupply",
              "type": "uint256"
            },
            {
              "internalType": "bool",
              "name": "assetWhitelistRequired",
              "type": "bool"
            },
            {
              "internalType": "string",
              "name": "assetName",
              "type": "string"
            },
            {
              "internalType": "string",
              "name": "assetSymbol",
              "type": "string"
            },
            {
              "internalType": "string",
              "name": "assetInfo",
              "type": "string"
            },
            {
              "internalType": "address",
              "name": "cfManagerOwner",
              "type": "address"
            },
            {
              "internalType": "string",
              "name": "cfManagerAnsName",
              "type": "string"
            },
            {
              "internalType": "uint256",
              "name": "cfManagerPricePerToken",
              "type": "uint256"
            },
            {
              "internalType": "uint256",
              "name": "cfManagerSoftcap",
              "type": "uint256"
            },
            {
              "internalType": "uint256",
              "name": "cfManagerSoftcapMinInvestment",
              "type": "uint256"
            },
            {
              "internalType": "uint256",
              "name": "cfManagerSoftcapMaxInvestment",
              "type": "uint256"
            },
            {
              "internalType": "uint256",
              "name": "cfManagerTokensToSellAmount",
              "type": "uint256"
            },
            {
              "internalType": "bool",
              "name": "cfManagerWhitelistRequired",
              "type": "bool"
            },
            {
              "internalType": "string",
              "name": "cfManagerInfo",
              "type": "string"
            }
          ],
          "internalType": "struct DeployerService.DeployIssuerAssetCampaignRequest",
          "name": "request",
          "type": "tuple"
        }
      ],
      "name": "deployIssuerAssetCampaign",
      "outputs": [],
      "stateMutability": "nonpayable",
      "type": "function"
    }
  ],
  "bytecode": "0x608060405234801561001057600080fd5b50611965806100206000396000f3fe608060405234801561001057600080fd5b50600436106100365760003560e01c8063125886091461003b5780638e1c8f7f14610057575b600080fd5b61005560048036038101906100509190611368565b610073565b005b610071600480360381019061006c9190611327565b6107b1565b005b6000816000015173ffffffffffffffffffffffffffffffffffffffff1663168e00343084608001518560a00151308760e001516040518663ffffffff1660e01b81526004016100c6959493929190611585565b602060405180830381600087803b1580156100e057600080fd5b505af11580156100f4573d6000803e3d6000fd5b505050506040513d601f19601f8201168201806040525081019061011891906112d5565b90506000826020015173ffffffffffffffffffffffffffffffffffffffff1663704b71c630848661012001518761014001518861016001518961018001518a6101a001518b6101c001516040518963ffffffff1660e01b81526004016101859897969594939291906114eb565b602060405180830381600087803b15801561019f57600080fd5b505af11580156101b3573d6000803e3d6000fd5b505050506040513d601f19601f820116820180604052508101906101d791906112d5565b90506000836040015173ffffffffffffffffffffffffffffffffffffffff16634fe21ac730866102000151858861022001518961024001518a61026001518b61028001518c6102c001518d6102e001516040518a63ffffffff1660e01b815260040161024b999897969594939291906115e6565b602060405180830381600087803b15801561026557600080fd5b505af1158015610279573d6000803e3d6000fd5b505050506040513d601f19601f8201168201806040525081019061029d91906112d5565b90508273ffffffffffffffffffffffffffffffffffffffff16630fcb0ae585606001516040518263ffffffff1660e01b81526004016102dc9190611438565b600060405180830381600087803b1580156102f657600080fd5b505af115801561030a573d6000803e3d6000fd5b505050508273ffffffffffffffffffffffffffffffffffffffff16630fcb0ae58561010001516040518263ffffffff1660e01b815260040161034c9190611438565b600060405180830381600087803b15801561036657600080fd5b505af115801561037a573d6000803e3d6000fd5b505050508273ffffffffffffffffffffffffffffffffffffffff16630fcb0ae5856101e001516040518263ffffffff1660e01b81526004016103bc9190611438565b600060405180830381600087803b1580156103d657600080fd5b505af11580156103ea573d6000803e3d6000fd5b505050506000846102a0015190506000818473ffffffffffffffffffffffffffffffffffffffff16633a98ef396040518163ffffffff1660e01b815260040160206040518083038186803b15801561044157600080fd5b505afa158015610455573d6000803e3d6000fd5b505050506040513d601f19601f8201168201806040525081019061047991906113a9565b6104839190611742565b905060008490508073ffffffffffffffffffffffffffffffffffffffff1663a9059cbb85856040518363ffffffff1660e01b81526004016104c5929190611681565b602060405180830381600087803b1580156104df57600080fd5b505af11580156104f3573d6000803e3d6000fd5b505050506040513d601f19601f8201168201806040525081019061051791906112fe565b508073ffffffffffffffffffffffffffffffffffffffff1663a9059cbb886101000151846040518363ffffffff1660e01b8152600401610558929190611681565b602060405180830381600087803b15801561057257600080fd5b505af1158015610586573d6000803e3d6000fd5b505050506040513d601f19601f820116820180604052508101906105aa91906112fe565b508573ffffffffffffffffffffffffffffffffffffffff166360f689938860c001516040518263ffffffff1660e01b81526004016105e89190611438565b600060405180830381600087803b15801561060257600080fd5b505af1158015610616573d6000803e3d6000fd5b505050508573ffffffffffffffffffffffffffffffffffffffff16632af4c31e88606001516040518263ffffffff1660e01b81526004016106579190611438565b600060405180830381600087803b15801561067157600080fd5b505af1158015610685573d6000803e3d6000fd5b505050508473ffffffffffffffffffffffffffffffffffffffff16632af4c31e8861010001516040518263ffffffff1660e01b81526004016106c79190611438565b600060405180830381600087803b1580156106e157600080fd5b505af11580156106f5573d6000803e3d6000fd5b505050508373ffffffffffffffffffffffffffffffffffffffff16632af4c31e886101e001516040518263ffffffff1660e01b81526004016107379190611438565b600060405180830381600087803b15801561075157600080fd5b505af1158015610765573d6000803e3d6000fd5b505050507f8e251f4cc0a82a4c92bfd89c350e861a829452c634180c7438734e470841f7ea33878787426040516107a0959493929190611453565b60405180910390a150505050505050565b6000816000015173ffffffffffffffffffffffffffffffffffffffff1663704b71c630846040015185608001518660a0015160008860e001518961010001518a61012001516040518963ffffffff1660e01b81526004016108199897969594939291906114eb565b602060405180830381600087803b15801561083357600080fd5b505af1158015610847573d6000803e3d6000fd5b505050506040513d601f19601f8201168201806040525081019061086b91906112d5565b90506000826020015173ffffffffffffffffffffffffffffffffffffffff16634fe21ac73085610160015185876101800151886101a00151896101c001518a6101e001518b61022001518c61024001516040518a63ffffffff1660e01b81526004016108df999897969594939291906115e6565b602060405180830381600087803b1580156108f957600080fd5b505af115801561090d573d6000803e3d6000fd5b505050506040513d601f19601f8201168201806040525081019061093191906112d5565b9050600083610200015190506000818473ffffffffffffffffffffffffffffffffffffffff16633a98ef396040518163ffffffff1660e01b815260040160206040518083038186803b15801561098657600080fd5b505afa15801561099a573d6000803e3d6000fd5b505050506040513d601f19601f820116820180604052508101906109be91906113a9565b6109c89190611742565b905060008490508073ffffffffffffffffffffffffffffffffffffffff1663a9059cbb85856040518363ffffffff1660e01b8152600401610a0a929190611681565b602060405180830381600087803b158015610a2457600080fd5b505af1158015610a38573d6000803e3d6000fd5b505050506040513d601f19601f82011682018060405250810190610a5c91906112fe565b508073ffffffffffffffffffffffffffffffffffffffff1663a9059cbb8760600151846040518363ffffffff1660e01b8152600401610a9c929190611681565b602060405180830381600087803b158015610ab657600080fd5b505af1158015610aca573d6000803e3d6000fd5b505050506040513d601f19601f82011682018060405250810190610aee91906112fe565b508473ffffffffffffffffffffffffffffffffffffffff16630d2012458760c001516040518263ffffffff1660e01b8152600401610b2c91906116aa565b600060405180830381600087803b158015610b4657600080fd5b505af1158015610b5a573d6000803e3d6000fd5b505050508473ffffffffffffffffffffffffffffffffffffffff16632af4c31e87606001516040518263ffffffff1660e01b8152600401610b9b9190611438565b600060405180830381600087803b158015610bb557600080fd5b505af1158015610bc9573d6000803e3d6000fd5b505050508373ffffffffffffffffffffffffffffffffffffffff16632af4c31e8761014001516040518263ffffffff1660e01b8152600401610c0b9190611438565b600060405180830381600087803b158015610c2557600080fd5b505af1158015610c39573d6000803e3d6000fd5b505050507f518b9a1b94a10102da0ed928b1fe634ef85ece6f5d3bade8d6e50b0a4381e13933868642604051610c7294939291906114a6565b60405180910390a1505050505050565b6000610c95610c90846116f6565b6116c5565b905082815260208101848484011115610cad57600080fd5b610cb88482856117f4565b509392505050565b600081359050610ccf816118a5565b92915050565b600081519050610ce4816118a5565b92915050565b600081359050610cf9816118bc565b92915050565b600081519050610d0e816118bc565b92915050565b600081359050610d23816118d3565b92915050565b600081359050610d38816118ea565b92915050565b600081359050610d4d81611901565b92915050565b600082601f830112610d6457600080fd5b8135610d74848260208601610c82565b91505092915050565b60006102608284031215610d9057600080fd5b610d9b6102606116c5565b90506000610dab84828501610d14565b6000830152506020610dbf84828501610d29565b6020830152506040610dd384828501610cc0565b6040830152506060610de784828501610cc0565b606083015250608082013567ffffffffffffffff811115610e0757600080fd5b610e1384828501610d53565b60808301525060a0610e27848285016112ab565b60a08301525060c0610e3b84828501610cea565b60c08301525060e082013567ffffffffffffffff811115610e5b57600080fd5b610e6784828501610d53565b60e08301525061010082013567ffffffffffffffff811115610e8857600080fd5b610e9484828501610d53565b6101008301525061012082013567ffffffffffffffff811115610eb657600080fd5b610ec284828501610d53565b61012083015250610140610ed884828501610cc0565b6101408301525061016082013567ffffffffffffffff811115610efa57600080fd5b610f0684828501610d53565b61016083015250610180610f1c848285016112ab565b610180830152506101a0610f32848285016112ab565b6101a0830152506101c0610f48848285016112ab565b6101c0830152506101e0610f5e848285016112ab565b6101e083015250610200610f74848285016112ab565b61020083015250610220610f8a84828501610cea565b6102208301525061024082013567ffffffffffffffff811115610fac57600080fd5b610fb884828501610d53565b6102408301525092915050565b60006103008284031215610fd857600080fd5b610fe36103006116c5565b90506000610ff384828501610d3e565b600083015250602061100784828501610d14565b602083015250604061101b84828501610d29565b604083015250606061102f84828501610cc0565b606083015250608082013567ffffffffffffffff81111561104f57600080fd5b61105b84828501610d53565b60808301525060a061106f84828501610cc0565b60a08301525060c061108384828501610cc0565b60c08301525060e082013567ffffffffffffffff8111156110a357600080fd5b6110af84828501610d53565b60e0830152506101006110c484828501610cc0565b6101008301525061012082013567ffffffffffffffff8111156110e657600080fd5b6110f284828501610d53565b61012083015250610140611108848285016112ab565b6101408301525061016061111e84828501610cea565b6101608301525061018082013567ffffffffffffffff81111561114057600080fd5b61114c84828501610d53565b610180830152506101a082013567ffffffffffffffff81111561116e57600080fd5b61117a84828501610d53565b6101a0830152506101c082013567ffffffffffffffff81111561119c57600080fd5b6111a884828501610d53565b6101c0830152506101e06111be84828501610cc0565b6101e08301525061020082013567ffffffffffffffff8111156111e057600080fd5b6111ec84828501610d53565b61020083015250610220611202848285016112ab565b61022083015250610240611218848285016112ab565b6102408301525061026061122e848285016112ab565b61026083015250610280611244848285016112ab565b610280830152506102a061125a848285016112ab565b6102a0830152506102c061127084828501610cea565b6102c0830152506102e082013567ffffffffffffffff81111561129257600080fd5b61129e84828501610d53565b6102e08301525092915050565b6000813590506112ba81611918565b92915050565b6000815190506112cf81611918565b92915050565b6000602082840312156112e757600080fd5b60006112f584828501610cd5565b91505092915050565b60006020828403121561131057600080fd5b600061131e84828501610cff565b91505092915050565b60006020828403121561133957600080fd5b600082013567ffffffffffffffff81111561135357600080fd5b61135f84828501610d7d565b91505092915050565b60006020828403121561137a57600080fd5b600082013567ffffffffffffffff81111561139457600080fd5b6113a084828501610fc5565b91505092915050565b6000602082840312156113bb57600080fd5b60006113c9848285016112c0565b91505092915050565b6113db81611776565b82525050565b6113ea81611788565b82525050565b60006113fb82611726565b6114058185611731565b9350611415818560208601611803565b61141e81611894565b840191505092915050565b611432816117ea565b82525050565b600060208201905061144d60008301846113d2565b92915050565b600060a08201905061146860008301886113d2565b61147560208301876113d2565b61148260408301866113d2565b61148f60608301856113d2565b61149c6080830184611429565b9695505050505050565b60006080820190506114bb60008301876113d2565b6114c860208301866113d2565b6114d560408301856113d2565b6114e26060830184611429565b95945050505050565b600061010082019050611501600083018b6113d2565b61150e602083018a6113d2565b818103604083015261152081896113f0565b905061152f6060830188611429565b61153c60808301876113e1565b81810360a083015261154e81866113f0565b905081810360c083015261156281856113f0565b905081810360e083015261157681846113f0565b90509998505050505050505050565b600060a08201905061159a60008301886113d2565b81810360208301526115ac81876113f0565b90506115bb60408301866113d2565b6115c860608301856113d2565b81810360808301526115da81846113f0565b90509695505050505050565b6000610120820190506115fc600083018c6113d2565b818103602083015261160e818b6113f0565b905061161d604083018a6113d2565b61162a6060830189611429565b6116376080830188611429565b61164460a0830187611429565b61165160c0830186611429565b61165e60e08301856113e1565b81810361010083015261167181846113f0565b90509a9950505050505050505050565b600060408201905061169660008301856113d2565b6116a36020830184611429565b9392505050565b60006020820190506116bf60008301846113e1565b92915050565b6000604051905081810181811067ffffffffffffffff821117156116ec576116eb611865565b5b8060405250919050565b600067ffffffffffffffff82111561171157611710611865565b5b601f19601f8301169050602081019050919050565b600081519050919050565b600082825260208201905092915050565b600061174d826117ea565b9150611758836117ea565b92508282101561176b5761176a611836565b5b828203905092915050565b6000611781826117ca565b9050919050565b60008115159050919050565b600061179f82611776565b9050919050565b60006117b182611776565b9050919050565b60006117c382611776565b9050919050565b600073ffffffffffffffffffffffffffffffffffffffff82169050919050565b6000819050919050565b82818337600083830152505050565b60005b83811015611821578082015181840152602081019050611806565b83811115611830576000848401525b50505050565b7f4e487b7100000000000000000000000000000000000000000000000000000000600052601160045260246000fd5b7f4e487b7100000000000000000000000000000000000000000000000000000000600052604160045260246000fd5b6000601f19601f8301169050919050565b6118ae81611776565b81146118b957600080fd5b50565b6118c581611788565b81146118d057600080fd5b50565b6118dc81611794565b81146118e757600080fd5b50565b6118f3816117a6565b81146118fe57600080fd5b50565b61190a816117b8565b811461191557600080fd5b50565b611921816117ea565b811461192c57600080fd5b5056fea26469706673582212200b29c2a6b8e5cd3756d41d6150bc4e7667da86e6e4e9c9ca41f48979962d83c464736f6c63430008000033",
  "linkReferences": {},
  "deployedLinkReferences": {}
}