{
  "_format": "hh-sol-artifact-1",
  "contractName": "DeployerService",
  "sourceName": "contracts/services/DeployerService.sol",
  "abi": [
    {
      "anonymous": false,
      "inputs": [
        {
          "indexed": false,
          "internalType": "address",
          "name": "caller",
          "type": "address"
        },
        {
          "indexed": false,
          "internalType": "address",
          "name": "asset",
          "type": "address"
        },
        {
          "indexed": false,
          "internalType": "address",
          "name": "campaign",
          "type": "address"
        },
        {
          "indexed": false,
          "internalType": "uint256",
          "name": "timestamp",
          "type": "uint256"
        }
      ],
      "name": "DeployAssetCampaign",
      "type": "event"
    },
    {
      "anonymous": false,
      "inputs": [
        {
          "indexed": false,
          "internalType": "address",
          "name": "caller",
          "type": "address"
        },
        {
          "indexed": false,
          "internalType": "address",
          "name": "asset",
          "type": "address"
        },
        {
          "indexed": false,
          "internalType": "address",
          "name": "campaign",
          "type": "address"
        },
        {
          "indexed": false,
          "internalType": "uint256",
          "name": "timestamp",
          "type": "uint256"
        }
      ],
      "name": "DeployAssetTransferableCampaign",
      "type": "event"
    },
    {
      "anonymous": false,
      "inputs": [
        {
          "indexed": false,
          "internalType": "address",
          "name": "caller",
          "type": "address"
        },
        {
          "indexed": false,
          "internalType": "address",
          "name": "issuer",
          "type": "address"
        },
        {
          "indexed": false,
          "internalType": "address",
          "name": "asset",
          "type": "address"
        },
        {
          "indexed": false,
          "internalType": "address",
          "name": "campaign",
          "type": "address"
        },
        {
          "indexed": false,
          "internalType": "uint256",
          "name": "timestamp",
          "type": "uint256"
        }
      ],
      "name": "DeployIssuerAssetCampaign",
      "type": "event"
    },
    {
      "anonymous": false,
      "inputs": [
        {
          "indexed": false,
          "internalType": "address",
          "name": "caller",
          "type": "address"
        },
        {
          "indexed": false,
          "internalType": "address",
          "name": "issuer",
          "type": "address"
        },
        {
          "indexed": false,
          "internalType": "address",
          "name": "asset",
          "type": "address"
        },
        {
          "indexed": false,
          "internalType": "address",
          "name": "campaign",
          "type": "address"
        },
        {
          "indexed": false,
          "internalType": "uint256",
          "name": "timestamp",
          "type": "uint256"
        }
      ],
      "name": "DeployIssuerAssetTransferableCampaign",
      "type": "event"
    },
    {
      "inputs": [
        {
          "components": [
            {
              "internalType": "contract IAssetFactory",
              "name": "assetFactory",
              "type": "address"
            },
            {
              "internalType": "contract ICfManagerSoftcapFactory",
              "name": "cfManagerSoftcapFactory",
              "type": "address"
            },
            {
              "internalType": "address",
              "name": "issuer",
              "type": "address"
            },
            {
              "internalType": "address",
              "name": "assetOwner",
              "type": "address"
            },
            {
              "internalType": "string",
              "name": "assetAnsName",
              "type": "string"
            },
            {
              "internalType": "uint256",
              "name": "assetInitialTokenSupply",
              "type": "uint256"
            },
            {
              "internalType": "bool",
              "name": "assetWhitelistRequiredForRevenueClaim",
              "type": "bool"
            },
            {
              "internalType": "bool",
              "name": "assetWhitelistRequiredForLiquidationClaim",
              "type": "bool"
            },
            {
              "internalType": "string",
              "name": "assetName",
              "type": "string"
            },
            {
              "internalType": "string",
              "name": "assetSymbol",
              "type": "string"
            },
            {
              "internalType": "string",
              "name": "assetInfo",
              "type": "string"
            },
            {
              "internalType": "address",
              "name": "cfManagerOwner",
              "type": "address"
            },
            {
              "internalType": "string",
              "name": "cfManagerAnsName",
              "type": "string"
            },
            {
              "internalType": "uint256",
              "name": "cfManagerPricePerToken",
              "type": "uint256"
            },
            {
              "internalType": "uint256",
              "name": "cfManagerSoftcap",
              "type": "uint256"
            },
            {
              "internalType": "uint256",
              "name": "cfManagerSoftcapMinInvestment",
              "type": "uint256"
            },
            {
              "internalType": "uint256",
              "name": "cfManagerSoftcapMaxInvestment",
              "type": "uint256"
            },
            {
              "internalType": "uint256",
              "name": "cfManagerTokensToSellAmount",
              "type": "uint256"
            },
            {
              "internalType": "bool",
              "name": "cfManagerWhitelistRequired",
              "type": "bool"
            },
            {
              "internalType": "string",
              "name": "cfManagerInfo",
              "type": "string"
            },
            {
              "internalType": "address",
              "name": "apxRegistry",
              "type": "address"
            }
          ],
          "internalType": "struct DeployerService.DeployAssetCampaignRequest",
          "name": "request",
          "type": "tuple"
        }
      ],
      "name": "deployAssetCampaign",
      "outputs": [],
      "stateMutability": "nonpayable",
      "type": "function"
    },
    {
      "inputs": [
        {
          "components": [
            {
              "internalType": "contract IAssetTransferableFactory",
              "name": "assetTransferableFactory",
              "type": "address"
            },
            {
              "internalType": "contract ICfManagerSoftcapFactory",
              "name": "cfManagerSoftcapFactory",
              "type": "address"
            },
            {
              "internalType": "address",
              "name": "issuer",
              "type": "address"
            },
            {
              "internalType": "address",
              "name": "assetOwner",
              "type": "address"
            },
            {
              "internalType": "string",
              "name": "assetAnsName",
              "type": "string"
            },
            {
              "internalType": "uint256",
              "name": "assetInitialTokenSupply",
              "type": "uint256"
            },
            {
              "internalType": "bool",
              "name": "assetWhitelistRequiredForRevenueClaim",
              "type": "bool"
            },
            {
              "internalType": "bool",
              "name": "assetWhitelistRequiredForLiquidationClaim",
              "type": "bool"
            },
            {
              "internalType": "string",
              "name": "assetName",
              "type": "string"
            },
            {
              "internalType": "string",
              "name": "assetSymbol",
              "type": "string"
            },
            {
              "internalType": "string",
              "name": "assetInfo",
              "type": "string"
            },
            {
              "internalType": "address",
              "name": "cfManagerOwner",
              "type": "address"
            },
            {
              "internalType": "string",
              "name": "cfManagerAnsName",
              "type": "string"
            },
            {
              "internalType": "uint256",
              "name": "cfManagerPricePerToken",
              "type": "uint256"
            },
            {
              "internalType": "uint256",
              "name": "cfManagerSoftcap",
              "type": "uint256"
            },
            {
              "internalType": "uint256",
              "name": "cfManagerSoftcapMinInvestment",
              "type": "uint256"
            },
            {
              "internalType": "uint256",
              "name": "cfManagerSoftcapMaxInvestment",
              "type": "uint256"
            },
            {
              "internalType": "uint256",
              "name": "cfManagerTokensToSellAmount",
              "type": "uint256"
            },
            {
              "internalType": "bool",
              "name": "cfManagerWhitelistRequired",
              "type": "bool"
            },
            {
              "internalType": "string",
              "name": "cfManagerInfo",
              "type": "string"
            },
            {
              "internalType": "address",
              "name": "apxRegistry",
              "type": "address"
            },
            {
              "internalType": "address",
              "name": "childChainManager",
              "type": "address"
            }
          ],
          "internalType": "struct DeployerService.DeployAssetTransferableCampaignRequest",
          "name": "request",
          "type": "tuple"
        }
      ],
      "name": "deployAssetTransferableCampaign",
      "outputs": [],
      "stateMutability": "nonpayable",
      "type": "function"
    },
    {
      "inputs": [
        {
          "components": [
            {
              "internalType": "contract IIssuerFactory",
              "name": "issuerFactory",
              "type": "address"
            },
            {
              "internalType": "contract IAssetFactory",
              "name": "assetFactory",
              "type": "address"
            },
            {
              "internalType": "contract ICfManagerSoftcapFactory",
              "name": "cfManagerSoftcapFactory",
              "type": "address"
            },
            {
              "internalType": "address",
              "name": "issuerOwner",
              "type": "address"
            },
            {
              "internalType": "string",
              "name": "issuerAnsName",
              "type": "string"
            },
            {
              "internalType": "address",
              "name": "issuerStablecoin",
              "type": "address"
            },
            {
              "internalType": "address",
              "name": "issuerWalletApprover",
              "type": "address"
            },
            {
              "internalType": "string",
              "name": "issuerInfo",
              "type": "string"
            },
            {
              "internalType": "address",
              "name": "assetOwner",
              "type": "address"
            },
            {
              "internalType": "string",
              "name": "assetAnsName",
              "type": "string"
            },
            {
              "internalType": "uint256",
              "name": "assetInitialTokenSupply",
              "type": "uint256"
            },
            {
              "internalType": "bool",
              "name": "assetWhitelistRequiredForRevenueClaim",
              "type": "bool"
            },
            {
              "internalType": "bool",
              "name": "assetWhitelistRequiredForLiquidationClaim",
              "type": "bool"
            },
            {
              "internalType": "string",
              "name": "assetName",
              "type": "string"
            },
            {
              "internalType": "string",
              "name": "assetSymbol",
              "type": "string"
            },
            {
              "internalType": "string",
              "name": "assetInfo",
              "type": "string"
            },
            {
              "internalType": "address",
              "name": "cfManagerOwner",
              "type": "address"
            },
            {
              "internalType": "string",
              "name": "cfManagerAnsName",
              "type": "string"
            },
            {
              "internalType": "uint256",
              "name": "cfManagerPricePerToken",
              "type": "uint256"
            },
            {
              "internalType": "uint256",
              "name": "cfManagerSoftcap",
              "type": "uint256"
            },
            {
              "internalType": "uint256",
              "name": "cfManagerSoftcapMinInvestment",
              "type": "uint256"
            },
            {
              "internalType": "uint256",
              "name": "cfManagerSoftcapMaxInvestment",
              "type": "uint256"
            },
            {
              "internalType": "uint256",
              "name": "cfManagerTokensToSellAmount",
              "type": "uint256"
            },
            {
              "internalType": "bool",
              "name": "cfManagerWhitelistRequired",
              "type": "bool"
            },
            {
              "internalType": "string",
              "name": "cfManagerInfo",
              "type": "string"
            },
            {
              "internalType": "address",
              "name": "apxRegistry",
              "type": "address"
            }
          ],
          "internalType": "struct DeployerService.DeployIssuerAssetCampaignRequest",
          "name": "request",
          "type": "tuple"
        }
      ],
      "name": "deployIssuerAssetCampaign",
      "outputs": [],
      "stateMutability": "nonpayable",
      "type": "function"
    },
    {
      "inputs": [
        {
          "components": [
            {
              "internalType": "contract IIssuerFactory",
              "name": "issuerFactory",
              "type": "address"
            },
            {
              "internalType": "contract IAssetTransferableFactory",
              "name": "assetTransferableFactory",
              "type": "address"
            },
            {
              "internalType": "contract ICfManagerSoftcapFactory",
              "name": "cfManagerSoftcapFactory",
              "type": "address"
            },
            {
              "internalType": "address",
              "name": "issuerOwner",
              "type": "address"
            },
            {
              "internalType": "string",
              "name": "issuerAnsName",
              "type": "string"
            },
            {
              "internalType": "address",
              "name": "issuerStablecoin",
              "type": "address"
            },
            {
              "internalType": "address",
              "name": "issuerWalletApprover",
              "type": "address"
            },
            {
              "internalType": "string",
              "name": "issuerInfo",
              "type": "string"
            },
            {
              "internalType": "address",
              "name": "assetOwner",
              "type": "address"
            },
            {
              "internalType": "string",
              "name": "assetAnsName",
              "type": "string"
            },
            {
              "internalType": "uint256",
              "name": "assetInitialTokenSupply",
              "type": "uint256"
            },
            {
              "internalType": "bool",
              "name": "assetWhitelistRequiredForRevenueClaim",
              "type": "bool"
            },
            {
              "internalType": "bool",
              "name": "assetWhitelistRequiredForLiquidationClaim",
              "type": "bool"
            },
            {
              "internalType": "string",
              "name": "assetName",
              "type": "string"
            },
            {
              "internalType": "string",
              "name": "assetSymbol",
              "type": "string"
            },
            {
              "internalType": "string",
              "name": "assetInfo",
              "type": "string"
            },
            {
              "internalType": "address",
              "name": "cfManagerOwner",
              "type": "address"
            },
            {
              "internalType": "string",
              "name": "cfManagerAnsName",
              "type": "string"
            },
            {
              "internalType": "uint256",
              "name": "cfManagerPricePerToken",
              "type": "uint256"
            },
            {
              "internalType": "uint256",
              "name": "cfManagerSoftcap",
              "type": "uint256"
            },
            {
              "internalType": "uint256",
              "name": "cfManagerSoftcapMinInvestment",
              "type": "uint256"
            },
            {
              "internalType": "uint256",
              "name": "cfManagerSoftcapMaxInvestment",
              "type": "uint256"
            },
            {
              "internalType": "uint256",
              "name": "cfManagerTokensToSellAmount",
              "type": "uint256"
            },
            {
              "internalType": "bool",
              "name": "cfManagerWhitelistRequired",
              "type": "bool"
            },
            {
              "internalType": "string",
              "name": "cfManagerInfo",
              "type": "string"
            },
            {
              "internalType": "address",
              "name": "apxRegistry",
              "type": "address"
            },
            {
              "internalType": "address",
              "name": "childChainManager",
              "type": "address"
            }
          ],
          "internalType": "struct DeployerService.DeployIssuerAssetTransferableCampaignRequest",
          "name": "request",
          "type": "tuple"
        }
      ],
      "name": "deployIssuerAssetTransferableCampaign",
      "outputs": [],
      "stateMutability": "nonpayable",
      "type": "function"
    }
  ],
  "bytecode": "0x608060405234801561001057600080fd5b50612dda806100206000396000f3fe608060405234801561001057600080fd5b506004361061004c5760003560e01c806351fb17c21461005157806377b51dd41461006d578063f1b7ff3a14610089578063fa1ffd5c146100a5575b600080fd5b61006b60048036038101906100669190612614565b6100c1565b005b61008760048036038101906100829190612592565b6107c7565b005b6100a3600480360381019061009e91906125d3565b610cd4565b005b6100bf60048036038101906100ba9190612551565b611420565b005b6000816000015173ffffffffffffffffffffffffffffffffffffffff1663168e00343084608001518560a00151308760e001516040518663ffffffff1660e01b81526004016101149594939291906129b9565b602060405180830381600087803b15801561012e57600080fd5b505af1158015610142573d6000803e3d6000fd5b505050506040513d601f19601f8201168201806040525081019061016691906124ff565b90506000826020015173ffffffffffffffffffffffffffffffffffffffff16637a9cab936040518061016001604052803073ffffffffffffffffffffffffffffffffffffffff1681526020018573ffffffffffffffffffffffffffffffffffffffff16815260200186610320015173ffffffffffffffffffffffffffffffffffffffff168152602001866101200151815260200186610140015181526020018661016001511515815260200186610180015115158152602001866101a001518152602001866101c001518152602001866101e00151815260200186610340015173ffffffffffffffffffffffffffffffffffffffff168152506040518263ffffffff1660e01b815260040161027b9190612ade565b602060405180830381600087803b15801561029557600080fd5b505af11580156102a9573d6000803e3d6000fd5b505050506040513d601f19601f820116820180604052508101906102cd91906124ff565b90506000836040015173ffffffffffffffffffffffffffffffffffffffff16634fe21ac730866102200151858861024001518961026001518a61028001518b6102a001518c6102e001518d61030001516040518a63ffffffff1660e01b815260040161034199989796959493929190612a1a565b602060405180830381600087803b15801561035b57600080fd5b505af115801561036f573d6000803e3d6000fd5b505050506040513d601f19601f8201168201806040525081019061039391906124ff565b90508273ffffffffffffffffffffffffffffffffffffffff16630fcb0ae585606001516040518263ffffffff1660e01b81526004016103d2919061284e565b600060405180830381600087803b1580156103ec57600080fd5b505af1158015610400573d6000803e3d6000fd5b505050506000846102c0015190506000818473ffffffffffffffffffffffffffffffffffffffff166318160ddd6040518163ffffffff1660e01b815260040160206040518083038186803b15801561045757600080fd5b505afa15801561046b573d6000803e3d6000fd5b505050506040513d601f19601f8201168201806040525081019061048f9190612655565b6104999190612b8e565b905060008490508073ffffffffffffffffffffffffffffffffffffffff1663a9059cbb85856040518363ffffffff1660e01b81526004016104db929190612ab5565b602060405180830381600087803b1580156104f557600080fd5b505af1158015610509573d6000803e3d6000fd5b505050506040513d601f19601f8201168201806040525081019061052d9190612528565b508073ffffffffffffffffffffffffffffffffffffffff1663a9059cbb886101000151846040518363ffffffff1660e01b815260040161056e929190612ab5565b602060405180830381600087803b15801561058857600080fd5b505af115801561059c573d6000803e3d6000fd5b505050506040513d601f19601f820116820180604052508101906105c09190612528565b508573ffffffffffffffffffffffffffffffffffffffff166360f689938860c001516040518263ffffffff1660e01b81526004016105fe919061284e565b600060405180830381600087803b15801561061857600080fd5b505af115801561062c573d6000803e3d6000fd5b505050508573ffffffffffffffffffffffffffffffffffffffff16632af4c31e88606001516040518263ffffffff1660e01b815260040161066d919061284e565b600060405180830381600087803b15801561068757600080fd5b505af115801561069b573d6000803e3d6000fd5b505050508473ffffffffffffffffffffffffffffffffffffffff16632af4c31e8861010001516040518263ffffffff1660e01b81526004016106dd919061284e565b600060405180830381600087803b1580156106f757600080fd5b505af115801561070b573d6000803e3d6000fd5b505050508373ffffffffffffffffffffffffffffffffffffffff16632af4c31e8861020001516040518263ffffffff1660e01b815260040161074d919061284e565b600060405180830381600087803b15801561076757600080fd5b505af115801561077b573d6000803e3d6000fd5b505050507f360a7955f4d818f11326324953c511ac2b29ec0b6c24859b4603aba2267d380133878787426040516107b6959493929190612869565b60405180910390a150505050505050565b6000816000015173ffffffffffffffffffffffffffffffffffffffff16637a9cab936040518061016001604052803073ffffffffffffffffffffffffffffffffffffffff168152602001856040015173ffffffffffffffffffffffffffffffffffffffff16815260200185610280015173ffffffffffffffffffffffffffffffffffffffff168152602001856080015181526020018560a0015181526020018560c00151151581526020018560e0015115158152602001856101000151815260200185610120015181526020018561014001518152602001856102a0015173ffffffffffffffffffffffffffffffffffffffff168152506040518263ffffffff1660e01b81526004016108da9190612ade565b602060405180830381600087803b1580156108f457600080fd5b505af1158015610908573d6000803e3d6000fd5b505050506040513d601f19601f8201168201806040525081019061092c91906124ff565b90506000826020015173ffffffffffffffffffffffffffffffffffffffff16634fe21ac73085610180015185876101a00151886101c00151896101e001518a61020001518b61024001518c61026001516040518a63ffffffff1660e01b81526004016109a099989796959493929190612a1a565b602060405180830381600087803b1580156109ba57600080fd5b505af11580156109ce573d6000803e3d6000fd5b505050506040513d601f19601f820116820180604052508101906109f291906124ff565b9050600083610220015190506000818473ffffffffffffffffffffffffffffffffffffffff166318160ddd6040518163ffffffff1660e01b815260040160206040518083038186803b158015610a4757600080fd5b505afa158015610a5b573d6000803e3d6000fd5b505050506040513d601f19601f82011682018060405250810190610a7f9190612655565b610a899190612b8e565b905060008490508073ffffffffffffffffffffffffffffffffffffffff1663a9059cbb85856040518363ffffffff1660e01b8152600401610acb929190612ab5565b602060405180830381600087803b158015610ae557600080fd5b505af1158015610af9573d6000803e3d6000fd5b505050506040513d601f19601f82011682018060405250810190610b1d9190612528565b508073ffffffffffffffffffffffffffffffffffffffff1663a9059cbb8760600151846040518363ffffffff1660e01b8152600401610b5d929190612ab5565b602060405180830381600087803b158015610b7757600080fd5b505af1158015610b8b573d6000803e3d6000fd5b505050506040513d601f19601f82011682018060405250810190610baf9190612528565b508473ffffffffffffffffffffffffffffffffffffffff16632af4c31e87606001516040518263ffffffff1660e01b8152600401610bed919061284e565b600060405180830381600087803b158015610c0757600080fd5b505af1158015610c1b573d6000803e3d6000fd5b505050508373ffffffffffffffffffffffffffffffffffffffff16632af4c31e8761016001516040518263ffffffff1660e01b8152600401610c5d919061284e565b600060405180830381600087803b158015610c7757600080fd5b505af1158015610c8b573d6000803e3d6000fd5b505050507f518b9a1b94a10102da0ed928b1fe634ef85ece6f5d3bade8d6e50b0a4381e13933868642604051610cc49493929190612974565b60405180910390a1505050505050565b6000816000015173ffffffffffffffffffffffffffffffffffffffff1663168e00343084608001518560a00151308760e001516040518663ffffffff1660e01b8152600401610d279594939291906129b9565b602060405180830381600087803b158015610d4157600080fd5b505af1158015610d55573d6000803e3d6000fd5b505050506040513d601f19601f82011682018060405250810190610d7991906124ff565b90506000826020015173ffffffffffffffffffffffffffffffffffffffff16630b5ecb8b30848661032001518761012001518861014001518961016001518a61018001518b6101a001518c6101c001518d6101e001516040518b63ffffffff1660e01b8152600401610df49a999897969594939291906128bc565b602060405180830381600087803b158015610e0e57600080fd5b505af1158015610e22573d6000803e3d6000fd5b505050506040513d601f19601f82011682018060405250810190610e4691906124ff565b90506000836040015173ffffffffffffffffffffffffffffffffffffffff16634fe21ac730866102200151858861024001518961026001518a61028001518b6102a001518c6102e001518d61030001516040518a63ffffffff1660e01b8152600401610eba99989796959493929190612a1a565b602060405180830381600087803b158015610ed457600080fd5b505af1158015610ee8573d6000803e3d6000fd5b505050506040513d601f19601f82011682018060405250810190610f0c91906124ff565b90508273ffffffffffffffffffffffffffffffffffffffff16630fcb0ae585606001516040518263ffffffff1660e01b8152600401610f4b919061284e565b600060405180830381600087803b158015610f6557600080fd5b505af1158015610f79573d6000803e3d6000fd5b505050508273ffffffffffffffffffffffffffffffffffffffff16630fcb0ae58561010001516040518263ffffffff1660e01b8152600401610fbb919061284e565b600060405180830381600087803b158015610fd557600080fd5b505af1158015610fe9573d6000803e3d6000fd5b505050508273ffffffffffffffffffffffffffffffffffffffff16630fcb0ae58561020001516040518263ffffffff1660e01b815260040161102b919061284e565b600060405180830381600087803b15801561104557600080fd5b505af1158015611059573d6000803e3d6000fd5b505050506000846102c0015190506000818473ffffffffffffffffffffffffffffffffffffffff166318160ddd6040518163ffffffff1660e01b815260040160206040518083038186803b1580156110b057600080fd5b505afa1580156110c4573d6000803e3d6000fd5b505050506040513d601f19601f820116820180604052508101906110e89190612655565b6110f29190612b8e565b905060008490508073ffffffffffffffffffffffffffffffffffffffff1663a9059cbb85856040518363ffffffff1660e01b8152600401611134929190612ab5565b602060405180830381600087803b15801561114e57600080fd5b505af1158015611162573d6000803e3d6000fd5b505050506040513d601f19601f820116820180604052508101906111869190612528565b508073ffffffffffffffffffffffffffffffffffffffff1663a9059cbb886101000151846040518363ffffffff1660e01b81526004016111c7929190612ab5565b602060405180830381600087803b1580156111e157600080fd5b505af11580156111f5573d6000803e3d6000fd5b505050506040513d601f19601f820116820180604052508101906112199190612528565b508573ffffffffffffffffffffffffffffffffffffffff166360f689938860c001516040518263ffffffff1660e01b8152600401611257919061284e565b600060405180830381600087803b15801561127157600080fd5b505af1158015611285573d6000803e3d6000fd5b505050508573ffffffffffffffffffffffffffffffffffffffff16632af4c31e88606001516040518263ffffffff1660e01b81526004016112c6919061284e565b600060405180830381600087803b1580156112e057600080fd5b505af11580156112f4573d6000803e3d6000fd5b505050508473ffffffffffffffffffffffffffffffffffffffff16632af4c31e8861010001516040518263ffffffff1660e01b8152600401611336919061284e565b600060405180830381600087803b15801561135057600080fd5b505af1158015611364573d6000803e3d6000fd5b505050508373ffffffffffffffffffffffffffffffffffffffff16632af4c31e8861020001516040518263ffffffff1660e01b81526004016113a6919061284e565b600060405180830381600087803b1580156113c057600080fd5b505af11580156113d4573d6000803e3d6000fd5b505050507f8e251f4cc0a82a4c92bfd89c350e861a829452c634180c7438734e470841f7ea338787874260405161140f959493929190612869565b60405180910390a150505050505050565b6000816000015173ffffffffffffffffffffffffffffffffffffffff16630b5ecb8b30846040015185610280015186608001518760a00151600160008a61010001518b61012001518c61014001516040518b63ffffffff1660e01b81526004016114939a999897969594939291906128bc565b602060405180830381600087803b1580156114ad57600080fd5b505af11580156114c1573d6000803e3d6000fd5b505050506040513d601f19601f820116820180604052508101906114e591906124ff565b90506000826020015173ffffffffffffffffffffffffffffffffffffffff16634fe21ac73085610180015185876101a00151886101c00151896101e001518a61020001518b61024001518c61026001516040518a63ffffffff1660e01b815260040161155999989796959493929190612a1a565b602060405180830381600087803b15801561157357600080fd5b505af1158015611587573d6000803e3d6000fd5b505050506040513d601f19601f820116820180604052508101906115ab91906124ff565b9050600083610220015190506000818473ffffffffffffffffffffffffffffffffffffffff166318160ddd6040518163ffffffff1660e01b815260040160206040518083038186803b15801561160057600080fd5b505afa158015611614573d6000803e3d6000fd5b505050506040513d601f19601f820116820180604052508101906116389190612655565b6116429190612b8e565b905060008490508073ffffffffffffffffffffffffffffffffffffffff1663a9059cbb85856040518363ffffffff1660e01b8152600401611684929190612ab5565b602060405180830381600087803b15801561169e57600080fd5b505af11580156116b2573d6000803e3d6000fd5b505050506040513d601f19601f820116820180604052508101906116d69190612528565b508073ffffffffffffffffffffffffffffffffffffffff1663a9059cbb8760600151846040518363ffffffff1660e01b8152600401611716929190612ab5565b602060405180830381600087803b15801561173057600080fd5b505af1158015611744573d6000803e3d6000fd5b505050506040513d601f19601f820116820180604052508101906117689190612528565b508473ffffffffffffffffffffffffffffffffffffffff16632af4c31e87606001516040518263ffffffff1660e01b81526004016117a6919061284e565b600060405180830381600087803b1580156117c057600080fd5b505af11580156117d4573d6000803e3d6000fd5b505050508373ffffffffffffffffffffffffffffffffffffffff16632af4c31e8761016001516040518263ffffffff1660e01b8152600401611816919061284e565b600060405180830381600087803b15801561183057600080fd5b505af1158015611844573d6000803e3d6000fd5b505050507f518b9a1b94a10102da0ed928b1fe634ef85ece6f5d3bade8d6e50b0a4381e1393386864260405161187d9493929190612974565b60405180910390a1505050505050565b60006118a061189b84612b31565b612b00565b9050828152602081018484840111156118b857600080fd5b6118c3848285612c52565b509392505050565b6000813590506118da81612d03565b92915050565b6000815190506118ef81612d03565b92915050565b60008135905061190481612d1a565b92915050565b60008151905061191981612d1a565b92915050565b60008135905061192e81612d31565b92915050565b60008135905061194381612d48565b92915050565b60008135905061195881612d5f565b92915050565b60008135905061196d81612d76565b92915050565b600082601f83011261198457600080fd5b813561199484826020860161188d565b91505092915050565b60006102a082840312156119b057600080fd5b6119bb6102a0612b00565b905060006119cb8482850161191f565b60008301525060206119df84828501611949565b60208301525060406119f3848285016118cb565b6040830152506060611a07848285016118cb565b606083015250608082013567ffffffffffffffff811115611a2757600080fd5b611a3384828501611973565b60808301525060a0611a47848285016124d5565b60a08301525060c0611a5b848285016118f5565b60c08301525060e0611a6f848285016118f5565b60e08301525061010082013567ffffffffffffffff811115611a9057600080fd5b611a9c84828501611973565b6101008301525061012082013567ffffffffffffffff811115611abe57600080fd5b611aca84828501611973565b6101208301525061014082013567ffffffffffffffff811115611aec57600080fd5b611af884828501611973565b61014083015250610160611b0e848285016118cb565b6101608301525061018082013567ffffffffffffffff811115611b3057600080fd5b611b3c84828501611973565b610180830152506101a0611b52848285016124d5565b6101a0830152506101c0611b68848285016124d5565b6101c0830152506101e0611b7e848285016124d5565b6101e083015250610200611b94848285016124d5565b61020083015250610220611baa848285016124d5565b61022083015250610240611bc0848285016118f5565b6102408301525061026082013567ffffffffffffffff811115611be257600080fd5b611bee84828501611973565b61026083015250610280611c04848285016118cb565b6102808301525092915050565b60006102c08284031215611c2457600080fd5b611c2f6102c0612b00565b90506000611c3f84828501611934565b6000830152506020611c5384828501611949565b6020830152506040611c67848285016118cb565b6040830152506060611c7b848285016118cb565b606083015250608082013567ffffffffffffffff811115611c9b57600080fd5b611ca784828501611973565b60808301525060a0611cbb848285016124d5565b60a08301525060c0611ccf848285016118f5565b60c08301525060e0611ce3848285016118f5565b60e08301525061010082013567ffffffffffffffff811115611d0457600080fd5b611d1084828501611973565b6101008301525061012082013567ffffffffffffffff811115611d3257600080fd5b611d3e84828501611973565b6101208301525061014082013567ffffffffffffffff811115611d6057600080fd5b611d6c84828501611973565b61014083015250610160611d82848285016118cb565b6101608301525061018082013567ffffffffffffffff811115611da457600080fd5b611db084828501611973565b610180830152506101a0611dc6848285016124d5565b6101a0830152506101c0611ddc848285016124d5565b6101c0830152506101e0611df2848285016124d5565b6101e083015250610200611e08848285016124d5565b61020083015250610220611e1e848285016124d5565b61022083015250610240611e34848285016118f5565b6102408301525061026082013567ffffffffffffffff811115611e5657600080fd5b611e6284828501611973565b61026083015250610280611e78848285016118cb565b610280830152506102a0611e8e848285016118cb565b6102a08301525092915050565b60006103408284031215611eae57600080fd5b611eb9610340612b00565b90506000611ec98482850161195e565b6000830152506020611edd8482850161191f565b6020830152506040611ef184828501611949565b6040830152506060611f05848285016118cb565b606083015250608082013567ffffffffffffffff811115611f2557600080fd5b611f3184828501611973565b60808301525060a0611f45848285016118cb565b60a08301525060c0611f59848285016118cb565b60c08301525060e082013567ffffffffffffffff811115611f7957600080fd5b611f8584828501611973565b60e083015250610100611f9a848285016118cb565b6101008301525061012082013567ffffffffffffffff811115611fbc57600080fd5b611fc884828501611973565b61012083015250610140611fde848285016124d5565b61014083015250610160611ff4848285016118f5565b6101608301525061018061200a848285016118f5565b610180830152506101a082013567ffffffffffffffff81111561202c57600080fd5b61203884828501611973565b6101a0830152506101c082013567ffffffffffffffff81111561205a57600080fd5b61206684828501611973565b6101c0830152506101e082013567ffffffffffffffff81111561208857600080fd5b61209484828501611973565b6101e0830152506102006120aa848285016118cb565b6102008301525061022082013567ffffffffffffffff8111156120cc57600080fd5b6120d884828501611973565b610220830152506102406120ee848285016124d5565b61024083015250610260612104848285016124d5565b6102608301525061028061211a848285016124d5565b610280830152506102a0612130848285016124d5565b6102a0830152506102c0612146848285016124d5565b6102c0830152506102e061215c848285016118f5565b6102e08301525061030082013567ffffffffffffffff81111561217e57600080fd5b61218a84828501611973565b610300830152506103206121a0848285016118cb565b6103208301525092915050565b600061036082840312156121c057600080fd5b6121cb610360612b00565b905060006121db8482850161195e565b60008301525060206121ef84828501611934565b602083015250604061220384828501611949565b6040830152506060612217848285016118cb565b606083015250608082013567ffffffffffffffff81111561223757600080fd5b61224384828501611973565b60808301525060a0612257848285016118cb565b60a08301525060c061226b848285016118cb565b60c08301525060e082013567ffffffffffffffff81111561228b57600080fd5b61229784828501611973565b60e0830152506101006122ac848285016118cb565b6101008301525061012082013567ffffffffffffffff8111156122ce57600080fd5b6122da84828501611973565b610120830152506101406122f0848285016124d5565b61014083015250610160612306848285016118f5565b6101608301525061018061231c848285016118f5565b610180830152506101a082013567ffffffffffffffff81111561233e57600080fd5b61234a84828501611973565b6101a0830152506101c082013567ffffffffffffffff81111561236c57600080fd5b61237884828501611973565b6101c0830152506101e082013567ffffffffffffffff81111561239a57600080fd5b6123a684828501611973565b6101e0830152506102006123bc848285016118cb565b6102008301525061022082013567ffffffffffffffff8111156123de57600080fd5b6123ea84828501611973565b61022083015250610240612400848285016124d5565b61024083015250610260612416848285016124d5565b6102608301525061028061242c848285016124d5565b610280830152506102a0612442848285016124d5565b6102a0830152506102c0612458848285016124d5565b6102c0830152506102e061246e848285016118f5565b6102e08301525061030082013567ffffffffffffffff81111561249057600080fd5b61249c84828501611973565b610300830152506103206124b2848285016118cb565b610320830152506103406124c8848285016118cb565b6103408301525092915050565b6000813590506124e481612d8d565b92915050565b6000815190506124f981612d8d565b92915050565b60006020828403121561251157600080fd5b600061251f848285016118e0565b91505092915050565b60006020828403121561253a57600080fd5b60006125488482850161190a565b91505092915050565b60006020828403121561256357600080fd5b600082013567ffffffffffffffff81111561257d57600080fd5b6125898482850161199d565b91505092915050565b6000602082840312156125a457600080fd5b600082013567ffffffffffffffff8111156125be57600080fd5b6125ca84828501611c11565b91505092915050565b6000602082840312156125e557600080fd5b600082013567ffffffffffffffff8111156125ff57600080fd5b61260b84828501611e9b565b91505092915050565b60006020828403121561262657600080fd5b600082013567ffffffffffffffff81111561264057600080fd5b61264c848285016121ad565b91505092915050565b60006020828403121561266757600080fd5b6000612675848285016124ea565b91505092915050565b61268781612bc2565b82525050565b61269681612bc2565b82525050565b6126a581612bd4565b82525050565b6126b481612bd4565b82525050565b60006126c582612b61565b6126cf8185612b6c565b93506126df818560208601612c61565b6126e881612cf2565b840191505092915050565b60006126fe82612b61565b6127088185612b7d565b9350612718818560208601612c61565b61272181612cf2565b840191505092915050565b600061016083016000830151612745600086018261267e565b506020830151612758602086018261267e565b50604083015161276b604086018261267e565b506060830151848203606086015261278382826126ba565b91505060808301516127986080860182612830565b5060a08301516127ab60a086018261269c565b5060c08301516127be60c086018261269c565b5060e083015184820360e08601526127d682826126ba565b9150506101008301518482036101008601526127f282826126ba565b91505061012083015184820361012086015261280e82826126ba565b91505061014083015161282561014086018261267e565b508091505092915050565b61283981612c48565b82525050565b61284881612c48565b82525050565b6000602082019050612863600083018461268d565b92915050565b600060a08201905061287e600083018861268d565b61288b602083018761268d565b612898604083018661268d565b6128a5606083018561268d565b6128b2608083018461283f565b9695505050505050565b6000610140820190506128d2600083018d61268d565b6128df602083018c61268d565b6128ec604083018b61268d565b81810360608301526128fe818a6126f3565b905061290d608083018961283f565b61291a60a08301886126ab565b61292760c08301876126ab565b81810360e083015261293981866126f3565b905081810361010083015261294e81856126f3565b905081810361012083015261296381846126f3565b90509b9a5050505050505050505050565b6000608082019050612989600083018761268d565b612996602083018661268d565b6129a3604083018561268d565b6129b0606083018461283f565b95945050505050565b600060a0820190506129ce600083018861268d565b81810360208301526129e081876126f3565b90506129ef604083018661268d565b6129fc606083018561268d565b8181036080830152612a0e81846126f3565b90509695505050505050565b600061012082019050612a30600083018c61268d565b8181036020830152612a42818b6126f3565b9050612a51604083018a61268d565b612a5e606083018961283f565b612a6b608083018861283f565b612a7860a083018761283f565b612a8560c083018661283f565b612a9260e08301856126ab565b818103610100830152612aa581846126f3565b90509a9950505050505050505050565b6000604082019050612aca600083018561268d565b612ad7602083018461283f565b9392505050565b60006020820190508181036000830152612af8818461272c565b905092915050565b6000604051905081810181811067ffffffffffffffff82111715612b2757612b26612cc3565b5b8060405250919050565b600067ffffffffffffffff821115612b4c57612b4b612cc3565b5b601f19601f8301169050602081019050919050565b600081519050919050565b600082825260208201905092915050565b600082825260208201905092915050565b6000612b9982612c48565b9150612ba483612c48565b925082821015612bb757612bb6612c94565b5b828203905092915050565b6000612bcd82612c28565b9050919050565b60008115159050919050565b6000612beb82612bc2565b9050919050565b6000612bfd82612bc2565b9050919050565b6000612c0f82612bc2565b9050919050565b6000612c2182612bc2565b9050919050565b600073ffffffffffffffffffffffffffffffffffffffff82169050919050565b6000819050919050565b82818337600083830152505050565b60005b83811015612c7f578082015181840152602081019050612c64565b83811115612c8e576000848401525b50505050565b7f4e487b7100000000000000000000000000000000000000000000000000000000600052601160045260246000fd5b7f4e487b7100000000000000000000000000000000000000000000000000000000600052604160045260246000fd5b6000601f19601f8301169050919050565b612d0c81612bc2565b8114612d1757600080fd5b50565b612d2381612bd4565b8114612d2e57600080fd5b50565b612d3a81612be0565b8114612d4557600080fd5b50565b612d5181612bf2565b8114612d5c57600080fd5b50565b612d6881612c04565b8114612d7357600080fd5b50565b612d7f81612c16565b8114612d8a57600080fd5b50565b612d9681612c48565b8114612da157600080fd5b5056fea2646970667358221220b1b6a8d0e431a22a4f1967918e6408d5f49f785aff60e9217d4738995de460b764736f6c63430008000033",
  "linkReferences": {},
  "deployedLinkReferences": {}
}