{
  "_format": "hh-sol-artifact-1",
  "contractName": "IssuerFactory",
  "sourceName": "contracts/issuer/IssuerFactory.sol",
  "abi": [
    {
      "anonymous": false,
      "inputs": [
        {
          "indexed": true,
          "internalType": "address",
          "name": "creator",
          "type": "address"
        },
        {
          "indexed": false,
          "internalType": "address",
          "name": "issuer",
          "type": "address"
        },
        {
          "indexed": false,
          "internalType": "uint256",
          "name": "id",
          "type": "uint256"
        },
        {
          "indexed": false,
          "internalType": "uint256",
          "name": "timestamp",
          "type": "uint256"
        }
      ],
      "name": "IssuerCreated",
      "type": "event"
    },
    {
      "inputs": [
        {
          "internalType": "address",
          "name": "owner",
          "type": "address"
        },
        {
          "internalType": "string",
          "name": "ansName",
          "type": "string"
        },
        {
          "internalType": "address",
          "name": "stablecoin",
          "type": "address"
        },
        {
          "internalType": "address",
          "name": "walletApprover",
          "type": "address"
        },
        {
          "internalType": "string",
          "name": "info",
          "type": "string"
        }
      ],
      "name": "create",
      "outputs": [
        {
          "internalType": "address",
          "name": "",
          "type": "address"
        }
      ],
      "stateMutability": "nonpayable",
      "type": "function"
    },
    {
      "inputs": [],
      "name": "getInstances",
      "outputs": [
        {
          "internalType": "address[]",
          "name": "",
          "type": "address[]"
        }
      ],
      "stateMutability": "view",
      "type": "function"
    },
    {
      "inputs": [
        {
          "internalType": "uint256",
          "name": "",
          "type": "uint256"
        }
      ],
      "name": "instances",
      "outputs": [
        {
          "internalType": "address",
          "name": "",
          "type": "address"
        }
      ],
      "stateMutability": "view",
      "type": "function"
    },
    {
      "inputs": [
        {
          "internalType": "string",
          "name": "",
          "type": "string"
        }
      ],
      "name": "namespace",
      "outputs": [
        {
          "internalType": "address",
          "name": "",
          "type": "address"
        }
      ],
      "stateMutability": "view",
      "type": "function"
    }
  ],
  "bytecode": "0x608060405234801561001057600080fd5b50612ff7806100206000396000f3fe60806040523480156200001157600080fd5b5060043610620000525760003560e01c8063168e003414620000575780638b6887b8146200008d578063a2f7b3a514620000c3578063d35fdd7914620000f9575b600080fd5b6200007560048036038101906200006f919062000509565b6200011b565b604051620000849190620007de565b60405180910390f35b620000ab6004803603810190620000a59190620005bd565b62000342565b604051620000ba9190620007de565b60405180910390f35b620000e16004803603810190620000db919062000602565b6200038b565b604051620000f09190620007de565b60405180910390f35b62000103620003cb565b60405162000112919062000838565b60405180910390f35b60008073ffffffffffffffffffffffffffffffffffffffff16600186604051620001469190620007c5565b908152602001604051809103902060009054906101000a900473ffffffffffffffffffffffffffffffffffffffff1673ffffffffffffffffffffffffffffffffffffffff1614620001ce576040517f08c379a0000000000000000000000000000000000000000000000000000000008152600401620001c5906200085c565b60405180910390fd5b6000808054905090506000818888888888604051620001ed906200045b565b620001fe969594939291906200087e565b604051809103906000f0801580156200021b573d6000803e3d6000fd5b5090506000819080600181540180825580915050600190039060005260206000200160009091909190916101000a81548173ffffffffffffffffffffffffffffffffffffffff021916908373ffffffffffffffffffffffffffffffffffffffff16021790555080600188604051620002949190620007c5565b908152602001604051809103902060006101000a81548173ffffffffffffffffffffffffffffffffffffffff021916908373ffffffffffffffffffffffffffffffffffffffff1602179055508773ffffffffffffffffffffffffffffffffffffffff167f5aa6b1353324c0d8718f3a028ccb9ca03d21f4895d6d2ee526d6beac86c7b8458284426040516200032c93929190620007fb565b60405180910390a2809250505095945050505050565b6001818051602081018201805184825260208301602085012081835280955050505050506000915054906101000a900473ffffffffffffffffffffffffffffffffffffffff1681565b600081815481106200039c57600080fd5b906000526020600020016000915054906101000a900473ffffffffffffffffffffffffffffffffffffffff1681565b606060008054806020026020016040519081016040528092919081815260200182805480156200045157602002820191906000526020600020905b8160009054906101000a900473ffffffffffffffffffffffffffffffffffffffff1673ffffffffffffffffffffffffffffffffffffffff168152602001906001019080831162000406575b5050505050905090565b61250a8062000ab883390190565b6000620004806200047a846200092d565b620008f9565b9050828152602081018484840111156200049957600080fd5b620004a6848285620009fe565b509392505050565b600081359050620004bf8162000a83565b92915050565b600082601f830112620004d757600080fd5b8135620004e984826020860162000469565b91505092915050565b600081359050620005038162000a9d565b92915050565b600080600080600060a086880312156200052257600080fd5b60006200053288828901620004ae565b955050602086013567ffffffffffffffff8111156200055057600080fd5b6200055e88828901620004c5565b94505060406200057188828901620004ae565b93505060606200058488828901620004ae565b925050608086013567ffffffffffffffff811115620005a257600080fd5b620005b088828901620004c5565b9150509295509295909350565b600060208284031215620005d057600080fd5b600082013567ffffffffffffffff811115620005eb57600080fd5b620005f984828501620004c5565b91505092915050565b6000602082840312156200061557600080fd5b60006200062584828501620004f2565b91505092915050565b60006200063c838362000648565b60208301905092915050565b6200065381620009c0565b82525050565b6200066481620009c0565b82525050565b6000620006778262000970565b62000683818562000993565b9350620006908362000960565b8060005b83811015620006c7578151620006ab88826200062e565b9750620006b88362000986565b92505060018101905062000694565b5085935050505092915050565b6000620006e1826200097b565b620006ed8185620009a4565b9350620006ff81856020860162000a0d565b6200070a8162000a72565b840191505092915050565b600062000722826200097b565b6200072e8185620009b5565b93506200074081856020860162000a0d565b80840191505092915050565b60006200075b603383620009a4565b91507f497373756572466163746f72793a20697373756572207769746820746869732060008301527f6e616d6520616c726561647920657869737473000000000000000000000000006020830152604082019050919050565b620007bf81620009f4565b82525050565b6000620007d3828462000715565b915081905092915050565b6000602082019050620007f5600083018462000659565b92915050565b600060608201905062000812600083018662000659565b620008216020830185620007b4565b620008306040830184620007b4565b949350505050565b600060208201905081810360008301526200085481846200066a565b905092915050565b6000602082019050818103600083015262000877816200074c565b9050919050565b600060c082019050620008956000830189620007b4565b620008a4602083018862000659565b8181036040830152620008b88187620006d4565b9050620008c9606083018662000659565b620008d8608083018562000659565b81810360a0830152620008ec8184620006d4565b9050979650505050505050565b6000604051905081810181811067ffffffffffffffff8211171562000923576200092262000a43565b5b8060405250919050565b600067ffffffffffffffff8211156200094b576200094a62000a43565b5b601f19601f8301169050602081019050919050565b6000819050602082019050919050565b600081519050919050565b600081519050919050565b6000602082019050919050565b600082825260208201905092915050565b600082825260208201905092915050565b600081905092915050565b6000620009cd82620009d4565b9050919050565b600073ffffffffffffffffffffffffffffffffffffffff82169050919050565b6000819050919050565b82818337600083830152505050565b60005b8381101562000a2d57808201518184015260208101905062000a10565b8381111562000a3d576000848401525b50505050565b7f4e487b7100000000000000000000000000000000000000000000000000000000600052604160045260246000fd5b6000601f19601f8301169050919050565b62000a8e81620009c0565b811462000a9a57600080fd5b50565b62000aa881620009f4565b811462000ab457600080fd5b5056fe60806040523480156200001157600080fd5b506040516200250a3803806200250a8339818101604052810190620000379190620005ae565b600073ffffffffffffffffffffffffffffffffffffffff168573ffffffffffffffffffffffffffffffffffffffff161415620000aa576040517f08c379a0000000000000000000000000000000000000000000000000000000008152600401620000a19062000788565b60405180910390fd5b600073ffffffffffffffffffffffffffffffffffffffff168373ffffffffffffffffffffffffffffffffffffffff1614156200011d576040517f08c379a00000000000000000000000000000000000000000000000000000000081526004016200011490620007aa565b60405180910390fd5b600073ffffffffffffffffffffffffffffffffffffffff168273ffffffffffffffffffffffffffffffffffffffff16141562000190576040517f08c379a00000000000000000000000000000000000000000000000000000000081526004016200018790620007cc565b60405180910390fd5b600860405180604001604052808381526020014281525090806001815401808255809150506001900390600052602060002090600202016000909190919091506000820151816000019080519060200190620001ee9291906200045e565b506020820151816001015550506040518061010001604052808781526020013073ffffffffffffffffffffffffffffffffffffffff1681526020018581526020013373ffffffffffffffffffffffffffffffffffffffff1681526020018673ffffffffffffffffffffffffffffffffffffffff1681526020018473ffffffffffffffffffffffffffffffffffffffff1681526020018373ffffffffffffffffffffffffffffffffffffffff16815260200182815250600080820151816000015560208201518160010160006101000a81548173ffffffffffffffffffffffffffffffffffffffff021916908373ffffffffffffffffffffffffffffffffffffffff1602179055506040820151816002019080519060200190620003139291906200045e565b5060608201518160030160006101000a81548173ffffffffffffffffffffffffffffffffffffffff021916908373ffffffffffffffffffffffffffffffffffffffff16021790555060808201518160040160006101000a81548173ffffffffffffffffffffffffffffffffffffffff021916908373ffffffffffffffffffffffffffffffffffffffff16021790555060a08201518160050160006101000a81548173ffffffffffffffffffffffffffffffffffffffff021916908373ffffffffffffffffffffffffffffffffffffffff16021790555060c08201518160060160006101000a81548173ffffffffffffffffffffffffffffffffffffffff021916908373ffffffffffffffffffffffffffffffffffffffff16021790555060e08201518160070190805190602001906200044e9291906200045e565b50905050505050505050620009a2565b8280546200046c90620008da565b90600052602060002090601f016020900481019282620004905760008555620004dc565b82601f10620004ab57805160ff1916838001178555620004dc565b82800160010185558215620004dc579182015b82811115620004db578251825591602001919060010190620004be565b5b509050620004eb9190620004ef565b5090565b5b808211156200050a576000816000905550600101620004f0565b5090565b6000620005256200051f8462000822565b620007ee565b9050828152602081018484840111156200053e57600080fd5b6200054b848285620008a4565b509392505050565b60008151905062000564816200096e565b92915050565b600082601f8301126200057c57600080fd5b81516200058e8482602086016200050e565b91505092915050565b600081519050620005a88162000988565b92915050565b60008060008060008060c08789031215620005c857600080fd5b6000620005d889828a0162000597565b9650506020620005eb89828a0162000553565b955050604087015167ffffffffffffffff8111156200060957600080fd5b6200061789828a016200056a565b94505060606200062a89828a0162000553565b93505060806200063d89828a0162000553565b92505060a087015167ffffffffffffffff8111156200065b57600080fd5b6200066989828a016200056a565b9150509295509295509295565b600062000685601d8362000855565b91507f4973737565723a20696e76616c6964206f776e657220616464726573730000006000830152602082019050919050565b6000620006c760228362000855565b91507f4973737565723a20696e76616c696420737461626c65636f696e20616464726560008301527f73730000000000000000000000000000000000000000000000000000000000006020830152604082019050919050565b60006200072f60278362000855565b91507f4973737565723a20696e76616c69642077616c6c657420617070726f7665722060008301527f61646472657373000000000000000000000000000000000000000000000000006020830152604082019050919050565b60006020820190508181036000830152620007a38162000676565b9050919050565b60006020820190508181036000830152620007c581620006b8565b9050919050565b60006020820190508181036000830152620007e78162000720565b9050919050565b6000604051905081810181811067ffffffffffffffff821117156200081857620008176200093f565b5b8060405250919050565b600067ffffffffffffffff82111562000840576200083f6200093f565b5b601f19601f8301169050602081019050919050565b600082825260208201905092915050565b600062000873826200087a565b9050919050565b600073ffffffffffffffffffffffffffffffffffffffff82169050919050565b6000819050919050565b60005b83811015620008c4578082015181840152602081019050620008a7565b83811115620008d4576000848401525b50505050565b60006002820490506001821680620008f357607f821691505b602082108114156200090a576200090962000910565b5b50919050565b7f4e487b7100000000000000000000000000000000000000000000000000000000600052602260045260246000fd5b7f4e487b7100000000000000000000000000000000000000000000000000000000600052604160045260246000fd5b620009798162000866565b81146200098557600080fd5b50565b62000993816200089a565b81146200099f57600080fd5b50565b611b5880620009b26000396000f3fe608060405234801561001057600080fd5b506004361061009e5760003560e01c8063937f6e7711610066578063937f6e771461014557806398e1625514610161578063cd9b4a111461017f578063dd30b0c7146101af578063e7283755146101cd5761009e565b80630fcb0ae5146100a35780631865c57d146100bf5780632af4c31e146100dd5780633657e851146100f957806360f6899314610129575b600080fd5b6100bd60048036038101906100b89190611206565b6101e9565b005b6100c76102dd565b6040516100d49190611840565b60405180910390f35b6100f760048036038101906100f29190611206565b6105d4565b005b610113600480360381019061010e9190611206565b6106e9565b6040516101209190611787565b60405180910390f35b610143600480360381019061013e9190611206565b6107a3565b005b61015f600480360381019061015a919061122f565b61093a565b005b610169610a8e565b6040516101769190611743565b60405180910390f35b61019960048036038101906101949190611206565b610b89565b6040516101a69190611862565b60405180910390f35b6101b7610ba1565b6040516101c49190611765565b60405180910390f35b6101e760048036038101906101e29190611206565b610c6d565b005b600060060160009054906101000a900473ffffffffffffffffffffffffffffffffffffffff1673ffffffffffffffffffffffffffffffffffffffff163373ffffffffffffffffffffffffffffffffffffffff161461027c576040517f08c379a000000000000000000000000000000000000000000000000000000000815260040161027390611800565b60405180910390fd5b610287816001610d61565b3373ffffffffffffffffffffffffffffffffffffffff167f031b7bf49a2340714b695ae019eaa006c2e4c89b5e9ede80e3929d7e9465198c826001426040516102d29392919061170c565b60405180910390a250565b6102e5611033565b600060405180610100016040529081600082015481526020016001820160009054906101000a900473ffffffffffffffffffffffffffffffffffffffff1673ffffffffffffffffffffffffffffffffffffffff1673ffffffffffffffffffffffffffffffffffffffff16815260200160028201805461036390611a3b565b80601f016020809104026020016040519081016040528092919081815260200182805461038f90611a3b565b80156103dc5780601f106103b1576101008083540402835291602001916103dc565b820191906000526020600020905b8154815290600101906020018083116103bf57829003601f168201915b505050505081526020016003820160009054906101000a900473ffffffffffffffffffffffffffffffffffffffff1673ffffffffffffffffffffffffffffffffffffffff1673ffffffffffffffffffffffffffffffffffffffff1681526020016004820160009054906101000a900473ffffffffffffffffffffffffffffffffffffffff1673ffffffffffffffffffffffffffffffffffffffff1673ffffffffffffffffffffffffffffffffffffffff1681526020016005820160009054906101000a900473ffffffffffffffffffffffffffffffffffffffff1673ffffffffffffffffffffffffffffffffffffffff1673ffffffffffffffffffffffffffffffffffffffff1681526020016006820160009054906101000a900473ffffffffffffffffffffffffffffffffffffffff1673ffffffffffffffffffffffffffffffffffffffff1673ffffffffffffffffffffffffffffffffffffffff16815260200160078201805461054d90611a3b565b80601f016020809104026020016040519081016040528092919081815260200182805461057990611a3b565b80156105c65780601f1061059b576101008083540402835291602001916105c6565b820191906000526020600020905b8154815290600101906020018083116105a957829003601f168201915b505050505081525050905090565b600060040160009054906101000a900473ffffffffffffffffffffffffffffffffffffffff1673ffffffffffffffffffffffffffffffffffffffff163373ffffffffffffffffffffffffffffffffffffffff1614610667576040517f08c379a000000000000000000000000000000000000000000000000000000000815260040161065e906117e0565b60405180910390fd5b80600060040160006101000a81548173ffffffffffffffffffffffffffffffffffffffff021916908373ffffffffffffffffffffffffffffffffffffffff1602179055507fb4fa0c8f1565e6385961540cac5b9884d84157c515100cf972728e8be8dacdd33382426040516106de939291906116d5565b60405180910390a150565b6000806106f583610f29565b90508061070657600091505061079e565b6009600a60008573ffffffffffffffffffffffffffffffffffffffff1673ffffffffffffffffffffffffffffffffffffffff168152602001908152602001600020548154811061077f577f4e487b7100000000000000000000000000000000000000000000000000000000600052603260045260246000fd5b9060005260206000200160000160149054906101000a900460ff169150505b919050565b600060040160009054906101000a900473ffffffffffffffffffffffffffffffffffffffff1673ffffffffffffffffffffffffffffffffffffffff163373ffffffffffffffffffffffffffffffffffffffff1614806108525750600060060160009054906101000a900473ffffffffffffffffffffffffffffffffffffffff1673ffffffffffffffffffffffffffffffffffffffff163373ffffffffffffffffffffffffffffffffffffffff16145b610891576040517f08c379a000000000000000000000000000000000000000000000000000000000815260040161088890611820565b60405180910390fd5b80600060060160006101000a81548173ffffffffffffffffffffffffffffffffffffffff021916908373ffffffffffffffffffffffffffffffffffffffff1602179055507fe4ff1f605955e821f9e684f2d7249e6ff8a5a14f51779fc709d118d7dbf6e9fe33600060060160009054906101000a900473ffffffffffffffffffffffffffffffffffffffff16834260405161092f9493929190611690565b60405180910390a150565b600060040160009054906101000a900473ffffffffffffffffffffffffffffffffffffffff1673ffffffffffffffffffffffffffffffffffffffff163373ffffffffffffffffffffffffffffffffffffffff16146109cd576040517f08c379a00000000000000000000000000000000000000000000000000000000081526004016109c4906117e0565b60405180910390fd5b600860405180604001604052808381526020014281525090806001815401808255809150506001900390600052602060002090600202016000909190919091506000820151816000019080519060200190610a299291906110e6565b506020820151816001015550508060006007019080519060200190610a4f9291906110e6565b507f39b28594242c42fce47a0a6e63bac12adbd07fbb35580f5a54b236858101d58a813342604051610a83939291906117a2565b60405180910390a150565b60606008805480602002602001604051908101604052809291908181526020016000905b82821015610b805783829060005260206000209060020201604051806040016040529081600082018054610ae590611a3b565b80601f0160208091040260200160405190810160405280929190818152602001828054610b1190611a3b565b8015610b5e5780601f10610b3357610100808354040283529160200191610b5e565b820191906000526020600020905b815481529060010190602001808311610b4157829003601f168201915b5050505050815260200160018201548152505081526020019060010190610ab2565b50505050905090565b600a6020528060005260406000206000915090505481565b60606009805480602002602001604051908101604052809291908181526020016000905b82821015610c64578382906000526020600020016040518060400160405290816000820160009054906101000a900473ffffffffffffffffffffffffffffffffffffffff1673ffffffffffffffffffffffffffffffffffffffff1673ffffffffffffffffffffffffffffffffffffffff1681526020016000820160149054906101000a900460ff16151515158152505081526020019060010190610bc5565b50505050905090565b600060060160009054906101000a900473ffffffffffffffffffffffffffffffffffffffff1673ffffffffffffffffffffffffffffffffffffffff163373ffffffffffffffffffffffffffffffffffffffff1614610d00576040517f08c379a0000000000000000000000000000000000000000000000000000000008152600401610cf790611800565b60405180910390fd5b610d0b816000610d61565b3373ffffffffffffffffffffffffffffffffffffffff167f031b7bf49a2340714b695ae019eaa006c2e4c89b5e9ede80e3929d7e9465198c82600042604051610d569392919061170c565b60405180910390a250565b610d6a82610f29565b15610e1257806009600a60008573ffffffffffffffffffffffffffffffffffffffff1673ffffffffffffffffffffffffffffffffffffffff1681526020019081526020016000205481548110610de9577f4e487b7100000000000000000000000000000000000000000000000000000000600052603260045260246000fd5b9060005260206000200160000160146101000a81548160ff021916908315150217905550610f25565b600960405180604001604052808473ffffffffffffffffffffffffffffffffffffffff1681526020018315158152509080600181540180825580915050600190039060005260206000200160009091909190915060008201518160000160006101000a81548173ffffffffffffffffffffffffffffffffffffffff021916908373ffffffffffffffffffffffffffffffffffffffff16021790555060208201518160000160146101000a81548160ff02191690831515021790555050506001600980549050610ee1919061197d565b600a60008473ffffffffffffffffffffffffffffffffffffffff1673ffffffffffffffffffffffffffffffffffffffff168152602001908152602001600020819055505b5050565b600080600a60008473ffffffffffffffffffffffffffffffffffffffff1673ffffffffffffffffffffffffffffffffffffffff1681526020019081526020016000205490506009805490508110610f8457600091505061102e565b8273ffffffffffffffffffffffffffffffffffffffff1660098281548110610fd5577f4e487b7100000000000000000000000000000000000000000000000000000000600052603260045260246000fd5b9060005260206000200160000160009054906101000a900473ffffffffffffffffffffffffffffffffffffffff1673ffffffffffffffffffffffffffffffffffffffff161461102857600091505061102e565b60019150505b919050565b60405180610100016040528060008152602001600073ffffffffffffffffffffffffffffffffffffffff16815260200160608152602001600073ffffffffffffffffffffffffffffffffffffffff168152602001600073ffffffffffffffffffffffffffffffffffffffff168152602001600073ffffffffffffffffffffffffffffffffffffffff168152602001600073ffffffffffffffffffffffffffffffffffffffff168152602001606081525090565b8280546110f290611a3b565b90600052602060002090601f016020900481019282611114576000855561115b565b82601f1061112d57805160ff191683800117855561115b565b8280016001018555821561115b579182015b8281111561115a57825182559160200191906001019061113f565b5b509050611168919061116c565b5090565b5b8082111561118557600081600090555060010161116d565b5090565b600061119c611197846118ae565b61187d565b9050828152602081018484840111156111b457600080fd5b6111bf8482856119f9565b509392505050565b6000813590506111d681611b0b565b92915050565b600082601f8301126111ed57600080fd5b81356111fd848260208601611189565b91505092915050565b60006020828403121561121857600080fd5b6000611226848285016111c7565b91505092915050565b60006020828403121561124157600080fd5b600082013567ffffffffffffffff81111561125b57600080fd5b611267848285016111dc565b91505092915050565b600061127c838361154f565b905092915050565b60006112908383611643565b60408301905092915050565b6112a5816119b1565b82525050565b6112b4816119b1565b82525050565b60006112c5826118fe565b6112cf8185611939565b9350836020820285016112e1856118de565b8060005b8581101561131d57848403895281516112fe8582611270565b94506113098361191f565b925060208a019950506001810190506112e5565b50829750879550505050505092915050565b600061133a82611909565b611344818561194a565b935061134f836118ee565b8060005b838110156113805781516113678882611284565b97506113728361192c565b925050600181019050611353565b5085935050505092915050565b611396816119c3565b82525050565b6113a5816119c3565b82525050565b60006113b682611914565b6113c0818561195b565b93506113d0818560208601611a08565b6113d981611afa565b840191505092915050565b60006113ef82611914565b6113f9818561196c565b9350611409818560208601611a08565b61141281611afa565b840191505092915050565b600061142a60288361196c565b91507f4973737565723a204f6e6c79206f776e65722063616e206d616b65207468697360008301527f20616374696f6e2e0000000000000000000000000000000000000000000000006020830152604082019050919050565b600061149060328361196c565b91507f4973737565723a204f6e6c792077616c6c657420617070726f7665722063616e60008301527f206d616b65207468697320616374696f6e2e00000000000000000000000000006020830152604082019050919050565b60006114f6602a8361196c565b91507f4973737565723a206e6f7420616c6c6f77656420746f2063616c6c207468697360008301527f2066756e6374696f6e2e000000000000000000000000000000000000000000006020830152604082019050919050565b6000604083016000830151848203600086015261156c82826113ab565b91505060208301516115816020860182611672565b508091505092915050565b6000610100830160008301516115a56000860182611672565b5060208301516115b8602086018261129c565b50604083015184820360408601526115d082826113ab565b91505060608301516115e5606086018261129c565b5060808301516115f8608086018261129c565b5060a083015161160b60a086018261129c565b5060c083015161161e60c086018261129c565b5060e083015184820360e086015261163682826113ab565b9150508091505092915050565b604082016000820151611659600085018261129c565b50602082015161166c602085018261138d565b50505050565b61167b816119ef565b82525050565b61168a816119ef565b82525050565b60006080820190506116a560008301876112ab565b6116b260208301866112ab565b6116bf60408301856112ab565b6116cc6060830184611681565b95945050505050565b60006060820190506116ea60008301866112ab565b6116f760208301856112ab565b6117046040830184611681565b949350505050565b600060608201905061172160008301866112ab565b61172e602083018561139c565b61173b6040830184611681565b949350505050565b6000602082019050818103600083015261175d81846112ba565b905092915050565b6000602082019050818103600083015261177f818461132f565b905092915050565b600060208201905061179c600083018461139c565b92915050565b600060608201905081810360008301526117bc81866113e4565b90506117cb60208301856112ab565b6117d86040830184611681565b949350505050565b600060208201905081810360008301526117f98161141d565b9050919050565b6000602082019050818103600083015261181981611483565b9050919050565b60006020820190508181036000830152611839816114e9565b9050919050565b6000602082019050818103600083015261185a818461158c565b905092915050565b60006020820190506118776000830184611681565b92915050565b6000604051905081810181811067ffffffffffffffff821117156118a4576118a3611acb565b5b8060405250919050565b600067ffffffffffffffff8211156118c9576118c8611acb565b5b601f19601f8301169050602081019050919050565b6000819050602082019050919050565b6000819050602082019050919050565b600081519050919050565b600081519050919050565b600081519050919050565b6000602082019050919050565b6000602082019050919050565b600082825260208201905092915050565b600082825260208201905092915050565b600082825260208201905092915050565b600082825260208201905092915050565b6000611988826119ef565b9150611993836119ef565b9250828210156119a6576119a5611a6d565b5b828203905092915050565b60006119bc826119cf565b9050919050565b60008115159050919050565b600073ffffffffffffffffffffffffffffffffffffffff82169050919050565b6000819050919050565b82818337600083830152505050565b60005b83811015611a26578082015181840152602081019050611a0b565b83811115611a35576000848401525b50505050565b60006002820490506001821680611a5357607f821691505b60208210811415611a6757611a66611a9c565b5b50919050565b7f4e487b7100000000000000000000000000000000000000000000000000000000600052601160045260246000fd5b7f4e487b7100000000000000000000000000000000000000000000000000000000600052602260045260246000fd5b7f4e487b7100000000000000000000000000000000000000000000000000000000600052604160045260246000fd5b6000601f19601f8301169050919050565b611b14816119b1565b8114611b1f57600080fd5b5056fea26469706673582212204b4cbe60ed13745deb118789e8eeae028e49098e98ec4a7cd9a19da4ea1c7b0d64736f6c63430008000033a264697066735822122094d4c263aa5f28c43d00bbc606795f24b5505b2b2bcc5f4c8cdc3e482107ab0264736f6c63430008000033",
  "linkReferences": {},
  "deployedLinkReferences": {}
}